{
	"state.sol": {
		"demo": {
			"abi": [
				{
					"inputs": [],
					"name": "getter",
					"outputs": [
						{
							"internalType": "uint256",
							"name": "",
							"type": "uint256"
						},
						{
							"internalType": "uint256",
							"name": "",
							"type": "uint256"
						},
						{
							"internalType": "address",
							"name": "",
							"type": "address"
						}
					],
					"stateMutability": "view",
					"type": "function"
				}
			],
			"devdoc": {
				"kind": "dev",
				"methods": {},
				"version": 1
			},
			"evm": {
				"assembly": "    /* \"state.sol\":57:199  contract demo{... */\n  mstore(0x40, 0x80)\n  callvalue\n  dup1\n  iszero\n  tag_1\n  jumpi\n  0x00\n  dup1\n  revert\ntag_1:\n  pop\n  dataSize(sub_0)\n  dup1\n  dataOffset(sub_0)\n  0x00\n  codecopy\n  0x00\n  return\nstop\n\nsub_0: assembly {\n        /* \"state.sol\":57:199  contract demo{... */\n      mstore(0x40, 0x80)\n      callvalue\n      dup1\n      iszero\n      tag_1\n      jumpi\n      0x00\n      dup1\n      revert\n    tag_1:\n      pop\n      jumpi(tag_2, lt(calldatasize, 0x04))\n      shr(0xe0, calldataload(0x00))\n      dup1\n      0x993a04b7\n      eq\n      tag_3\n      jumpi\n    tag_2:\n      0x00\n      dup1\n      revert\n        /* \"state.sol\":76:197  function getter() public view returns(uint,uint,address){... */\n    tag_3:\n      tag_4\n      tag_5\n      jump\t// in\n    tag_4:\n      mload(0x40)\n      tag_6\n      swap4\n      swap3\n      swap2\n      swap1\n      tag_7\n      jump\t// in\n    tag_6:\n      mload(0x40)\n      dup1\n      swap2\n      sub\n      swap1\n      return\n    tag_5:\n        /* \"state.sol\":114:118  uint */\n      0x00\n        /* \"state.sol\":119:123  uint */\n      dup1\n        /* \"state.sol\":124:131  address */\n      0x00\n        /* \"state.sol\":150:162  block.number */\n      number\n        /* \"state.sol\":163:178  block.timestamp */\n      timestamp\n        /* \"state.sol\":179:189  msg.sender */\n      caller\n        /* \"state.sol\":142:190  return (block.number,block.timestamp,msg.sender) */\n      swap3\n      pop\n      swap3\n      pop\n      swap3\n      pop\n        /* \"state.sol\":76:197  function getter() public view returns(uint,uint,address){... */\n      swap1\n      swap2\n      swap3\n      jump\t// out\n        /* \"#utility.yul\":7:84   */\n    tag_9:\n        /* \"#utility.yul\":44:51   */\n      0x00\n        /* \"#utility.yul\":73:78   */\n      dup2\n        /* \"#utility.yul\":62:78   */\n      swap1\n      pop\n        /* \"#utility.yul\":7:84   */\n      swap2\n      swap1\n      pop\n      jump\t// out\n        /* \"#utility.yul\":90:208   */\n    tag_10:\n        /* \"#utility.yul\":177:201   */\n      tag_17\n        /* \"#utility.yul\":195:200   */\n      dup2\n        /* \"#utility.yul\":177:201   */\n      tag_9\n      jump\t// in\n    tag_17:\n        /* \"#utility.yul\":172:175   */\n      dup3\n        /* \"#utility.yul\":165:202   */\n      mstore\n        /* \"#utility.yul\":90:208   */\n      pop\n      pop\n      jump\t// out\n        /* \"#utility.yul\":214:340   */\n    tag_11:\n        /* \"#utility.yul\":251:258   */\n      0x00\n        /* \"#utility.yul\":291:333   */\n      0xffffffffffffffffffffffffffffffffffffffff\n        /* \"#utility.yul\":284:289   */\n      dup3\n        /* \"#utility.yul\":280:334   */\n      and\n        /* \"#utility.yul\":269:334   */\n      swap1\n      pop\n        /* \"#utility.yul\":214:340   */\n      swap2\n      swap1\n      pop\n      jump\t// out\n        /* \"#utility.yul\":346:442   */\n    tag_12:\n        /* \"#utility.yul\":383:390   */\n      0x00\n        /* \"#utility.yul\":412:436   */\n      tag_20\n        /* \"#utility.yul\":430:435   */\n      dup3\n        /* \"#utility.yul\":412:436   */\n      tag_11\n      jump\t// in\n    tag_20:\n        /* \"#utility.yul\":401:436   */\n      swap1\n      pop\n        /* \"#utility.yul\":346:442   */\n      swap2\n      swap1\n      pop\n      jump\t// out\n        /* \"#utility.yul\":448:566   */\n    tag_13:\n        /* \"#utility.yul\":535:559   */\n      tag_22\n        /* \"#utility.yul\":553:558   */\n      dup2\n        /* \"#utility.yul\":535:559   */\n      tag_12\n      jump\t// in\n    tag_22:\n        /* \"#utility.yul\":530:533   */\n      dup3\n        /* \"#utility.yul\":523:560   */\n      mstore\n        /* \"#utility.yul\":448:566   */\n      pop\n      pop\n      jump\t// out\n        /* \"#utility.yul\":572:1014   */\n    tag_7:\n        /* \"#utility.yul\":721:725   */\n      0x00\n        /* \"#utility.yul\":759:761   */\n      0x60\n        /* \"#utility.yul\":748:757   */\n      dup3\n        /* \"#utility.yul\":744:762   */\n      add\n        /* \"#utility.yul\":736:762   */\n      swap1\n      pop\n        /* \"#utility.yul\":772:843   */\n      tag_24\n        /* \"#utility.yul\":840:841   */\n      0x00\n        /* \"#utility.yul\":829:838   */\n      dup4\n        /* \"#utility.yul\":825:842   */\n      add\n        /* \"#utility.yul\":816:822   */\n      dup7\n        /* \"#utility.yul\":772:843   */\n      tag_10\n      jump\t// in\n    tag_24:\n        /* \"#utility.yul\":853:925   */\n      tag_25\n        /* \"#utility.yul\":921:923   */\n      0x20\n        /* \"#utility.yul\":910:919   */\n      dup4\n        /* \"#utility.yul\":906:924   */\n      add\n        /* \"#utility.yul\":897:903   */\n      dup6\n        /* \"#utility.yul\":853:925   */\n      tag_10\n      jump\t// in\n    tag_25:\n        /* \"#utility.yul\":935:1007   */\n      tag_26\n        /* \"#utility.yul\":1003:1005   */\n      0x40\n        /* \"#utility.yul\":992:1001   */\n      dup4\n        /* \"#utility.yul\":988:1006   */\n      add\n        /* \"#utility.yul\":979:985   */\n      dup5\n        /* \"#utility.yul\":935:1007   */\n      tag_13\n      jump\t// in\n    tag_26:\n        /* \"#utility.yul\":572:1014   */\n      swap5\n      swap4\n      pop\n      pop\n      pop\n      pop\n      jump\t// out\n\n    auxdata: 0xa2646970667358221220ddd3d8557034d7778276a4db2bfe4a69ad519f2ef1101e53c31d47435d81cfdf64736f6c63430008140033\n}\n",
				"bytecode": {
					"linkReferences": {},
					"object": "608060405234801561000f575f80fd5b5061010d8061001d5f395ff3fe6080604052348015600e575f80fd5b50600436106026575f3560e01c8063993a04b714602a575b5f80fd5b60306046565b604051603d9392919060a8565b60405180910390f35b5f805f434233925092509250909192565b5f819050919050565b6067816057565b82525050565b5f73ffffffffffffffffffffffffffffffffffffffff82169050919050565b5f609482606d565b9050919050565b60a281608c565b82525050565b5f60608201905060b95f8301866060565b60c460208301856060565b60cf6040830184609b565b94935050505056fea2646970667358221220ddd3d8557034d7778276a4db2bfe4a69ad519f2ef1101e53c31d47435d81cfdf64736f6c63430008140033",
					"opcodes": "PUSH1 0x80 PUSH1 0x40 MSTORE CALLVALUE DUP1 ISZERO PUSH2 0xF JUMPI PUSH0 DUP1 REVERT JUMPDEST POP PUSH2 0x10D DUP1 PUSH2 0x1D PUSH0 CODECOPY PUSH0 RETURN INVALID PUSH1 0x80 PUSH1 0x40 MSTORE CALLVALUE DUP1 ISZERO PUSH1 0xE JUMPI PUSH0 DUP1 REVERT JUMPDEST POP PUSH1 0x4 CALLDATASIZE LT PUSH1 0x26 JUMPI PUSH0 CALLDATALOAD PUSH1 0xE0 SHR DUP1 PUSH4 0x993A04B7 EQ PUSH1 0x2A JUMPI JUMPDEST PUSH0 DUP1 REVERT JUMPDEST PUSH1 0x30 PUSH1 0x46 JUMP JUMPDEST PUSH1 0x40 MLOAD PUSH1 0x3D SWAP4 SWAP3 SWAP2 SWAP1 PUSH1 0xA8 JUMP JUMPDEST PUSH1 0x40 MLOAD DUP1 SWAP2 SUB SWAP1 RETURN JUMPDEST PUSH0 DUP1 PUSH0 NUMBER TIMESTAMP CALLER SWAP3 POP SWAP3 POP SWAP3 POP SWAP1 SWAP2 SWAP3 JUMP JUMPDEST PUSH0 DUP2 SWAP1 POP SWAP2 SWAP1 POP JUMP JUMPDEST PUSH1 0x67 DUP2 PUSH1 0x57 JUMP JUMPDEST DUP3 MSTORE POP POP JUMP JUMPDEST PUSH0 PUSH20 0xFFFFFFFFFFFFFFFFFFFFFFFFFFFFFFFFFFFFFFFF DUP3 AND SWAP1 POP SWAP2 SWAP1 POP JUMP JUMPDEST PUSH0 PUSH1 0x94 DUP3 PUSH1 0x6D JUMP JUMPDEST SWAP1 POP SWAP2 SWAP1 POP JUMP JUMPDEST PUSH1 0xA2 DUP2 PUSH1 0x8C JUMP JUMPDEST DUP3 MSTORE POP POP JUMP JUMPDEST PUSH0 PUSH1 0x60 DUP3 ADD SWAP1 POP PUSH1 0xB9 PUSH0 DUP4 ADD DUP7 PUSH1 0x60 JUMP JUMPDEST PUSH1 0xC4 PUSH1 0x20 DUP4 ADD DUP6 PUSH1 0x60 JUMP JUMPDEST PUSH1 0xCF PUSH1 0x40 DUP4 ADD DUP5 PUSH1 0x9B JUMP JUMPDEST SWAP5 SWAP4 POP POP POP POP JUMP INVALID LOG2 PUSH5 0x6970667358 0x22 SLT KECCAK256 0xDD 0xD3 0xD8 SSTORE PUSH17 0x34D7778276A4DB2BFE4A69AD519F2EF110 0x1E MSTORE8 0xC3 SAR SELFBALANCE NUMBER 0x5D DUP2 0xCF 0xDF PUSH5 0x736F6C6343 STOP ADDMOD EQ STOP CALLER "
				},
				"gasEstimates": {
					"creation": {
						"codeDepositCost": "53800",
						"executionCost": "103",
						"totalCost": "53903"
					},
					"external": {
						"getter()": "infinite"
					}
				},
				"methodIdentifiers": {
					"getter()": "993a04b7"
				}
			},
			"storageLayout": {
				"storage": [],
				"types": null
			},
			"userdoc": {
				"kind": "user",
				"methods": {},
				"version": 1
			}
		}
	}
}