{
	"Byte2.sol": {
		"local": {
			"abi": [
				{
					"inputs": [],
					"name": "doIt",
					"outputs": [],
					"stateMutability": "pure",
					"type": "function"
				}
			],
			"devdoc": {
				"kind": "dev",
				"methods": {},
				"version": 1
			},
			"evm": {
				"assembly": "    /* \"Byte2.sol\":58:256  contract local {... */\n  mstore(0x40, 0x80)\n  callvalue\n  dup1\n  iszero\n  tag_1\n  jumpi\n  0x00\n  dup1\n  revert\ntag_1:\n  pop\n  dataSize(sub_0)\n  dup1\n  dataOffset(sub_0)\n  0x00\n  codecopy\n  0x00\n  return\nstop\n\nsub_0: assembly {\n        /* \"Byte2.sol\":58:256  contract local {... */\n      mstore(0x40, 0x80)\n      callvalue\n      dup1\n      iszero\n      tag_1\n      jumpi\n      0x00\n      dup1\n      revert\n    tag_1:\n      pop\n      jumpi(tag_2, lt(calldatasize, 0x04))\n      shr(0xe0, calldataload(0x00))\n      dup1\n      0xb29f0835\n      eq\n      tag_3\n      jumpi\n    tag_2:\n      0x00\n      dup1\n      revert\n        /* \"Byte2.sol\":79:254  function doIt() public pure{... */\n    tag_3:\n      tag_4\n      tag_5\n      jump\t// in\n    tag_4:\n      stop\n    tag_5:\n        /* \"Byte2.sol\":116:130  bytes memory a */\n      0x00\n        /* \"Byte2.sol\":143:144  4 */\n      0x04\n        /* \"Byte2.sol\":133:145  new bytes(4) */\n      0xffffffffffffffff\n      dup2\n      gt\n      iszero\n      tag_7\n      jumpi\n      tag_8\n      tag_9\n      jump\t// in\n    tag_8:\n    tag_7:\n      mload(0x40)\n      swap1\n      dup1\n      dup3\n      mstore\n      dup1\n      0x1f\n      add\n      not(0x1f)\n      and\n      0x20\n      add\n      dup3\n      add\n      0x40\n      mstore\n      dup1\n      iszero\n      tag_10\n      jumpi\n      dup2\n      0x20\n      add\n      0x01\n      dup3\n      mul\n      dup1\n      calldatasize\n      dup4\n      calldatacopy\n      dup1\n      dup3\n      add\n      swap2\n      pop\n      pop\n      swap1\n      pop\n    tag_10:\n      pop\n        /* \"Byte2.sol\":116:145  bytes memory a = new bytes(4) */\n      swap1\n      pop\n        /* \"Byte2.sol\":159:165  uint i */\n      0x00\n        /* \"Byte2.sol\":155:248  for(uint i = 0 ; i < 4 ; i++){... */\n    tag_11:\n        /* \"Byte2.sol\":176:177  4 */\n      0x04\n        /* \"Byte2.sol\":172:173  i */\n      dup2\n        /* \"Byte2.sol\":172:177  i < 4 */\n      lt\n        /* \"Byte2.sol\":155:248  for(uint i = 0 ; i < 4 ; i++){... */\n      iszero\n      tag_12\n      jumpi\n        /* \"Byte2.sol\":198:208  a[i] = 's' */\n      0x7300000000000000000000000000000000000000000000000000000000000000\n        /* \"Byte2.sol\":198:199  a */\n      dup3\n        /* \"Byte2.sol\":200:201  i */\n      dup3\n        /* \"Byte2.sol\":198:202  a[i] */\n      dup2\n      mload\n      dup2\n      lt\n      tag_14\n      jumpi\n      tag_15\n      tag_16\n      jump\t// in\n    tag_15:\n    tag_14:\n      0x20\n      add\n      add\n        /* \"Byte2.sol\":198:208  a[i] = 's' */\n      swap1\n      not(0xffffffffffffffffffffffffffffffffffffffffffffffffffffffffffffff)\n      and\n      swap1\n      dup2\n      0x00\n      byte\n      swap1\n      mstore8\n      pop\n        /* \"Byte2.sol\":180:183  i++ */\n      dup1\n      dup1\n      tag_17\n      swap1\n      tag_18\n      jump\t// in\n    tag_17:\n      swap2\n      pop\n      pop\n        /* \"Byte2.sol\":155:248  for(uint i = 0 ; i < 4 ; i++){... */\n      jump(tag_11)\n    tag_12:\n      pop\n        /* \"Byte2.sol\":106:254  {... */\n      pop\n        /* \"Byte2.sol\":79:254  function doIt() public pure{... */\n      jump\t// out\n        /* \"#utility.yul\":7:187   */\n    tag_9:\n        /* \"#utility.yul\":55:132   */\n      0x4e487b7100000000000000000000000000000000000000000000000000000000\n        /* \"#utility.yul\":52:53   */\n      0x00\n        /* \"#utility.yul\":45:133   */\n      mstore\n        /* \"#utility.yul\":152:156   */\n      0x41\n        /* \"#utility.yul\":149:150   */\n      0x04\n        /* \"#utility.yul\":142:157   */\n      mstore\n        /* \"#utility.yul\":176:180   */\n      0x24\n        /* \"#utility.yul\":173:174   */\n      0x00\n        /* \"#utility.yul\":166:181   */\n      revert\n        /* \"#utility.yul\":193:373   */\n    tag_16:\n        /* \"#utility.yul\":241:318   */\n      0x4e487b7100000000000000000000000000000000000000000000000000000000\n        /* \"#utility.yul\":238:239   */\n      0x00\n        /* \"#utility.yul\":231:319   */\n      mstore\n        /* \"#utility.yul\":338:342   */\n      0x32\n        /* \"#utility.yul\":335:336   */\n      0x04\n        /* \"#utility.yul\":328:343   */\n      mstore\n        /* \"#utility.yul\":362:366   */\n      0x24\n        /* \"#utility.yul\":359:360   */\n      0x00\n        /* \"#utility.yul\":352:367   */\n      revert\n        /* \"#utility.yul\":379:559   */\n    tag_19:\n        /* \"#utility.yul\":427:504   */\n      0x4e487b7100000000000000000000000000000000000000000000000000000000\n        /* \"#utility.yul\":424:425   */\n      0x00\n        /* \"#utility.yul\":417:505   */\n      mstore\n        /* \"#utility.yul\":524:528   */\n      0x11\n        /* \"#utility.yul\":521:522   */\n      0x04\n        /* \"#utility.yul\":514:529   */\n      mstore\n        /* \"#utility.yul\":548:552   */\n      0x24\n        /* \"#utility.yul\":545:546   */\n      0x00\n        /* \"#utility.yul\":538:553   */\n      revert\n        /* \"#utility.yul\":565:642   */\n    tag_20:\n        /* \"#utility.yul\":602:609   */\n      0x00\n        /* \"#utility.yul\":631:636   */\n      dup2\n        /* \"#utility.yul\":620:636   */\n      swap1\n      pop\n        /* \"#utility.yul\":565:642   */\n      swap2\n      swap1\n      pop\n      jump\t// out\n        /* \"#utility.yul\":648:881   */\n    tag_18:\n        /* \"#utility.yul\":687:690   */\n      0x00\n        /* \"#utility.yul\":710:734   */\n      tag_27\n        /* \"#utility.yul\":728:733   */\n      dup3\n        /* \"#utility.yul\":710:734   */\n      tag_20\n      jump\t// in\n    tag_27:\n        /* \"#utility.yul\":701:734   */\n      swap2\n      pop\n        /* \"#utility.yul\":756:822   */\n      0xffffffffffffffffffffffffffffffffffffffffffffffffffffffffffffffff\n        /* \"#utility.yul\":749:754   */\n      dup3\n        /* \"#utility.yul\":746:823   */\n      sub\n        /* \"#utility.yul\":743:846   */\n      tag_28\n      jumpi\n        /* \"#utility.yul\":826:844   */\n      tag_29\n      tag_19\n      jump\t// in\n    tag_29:\n        /* \"#utility.yul\":743:846   */\n    tag_28:\n        /* \"#utility.yul\":873:874   */\n      0x01\n        /* \"#utility.yul\":866:871   */\n      dup3\n        /* \"#utility.yul\":862:875   */\n      add\n        /* \"#utility.yul\":855:875   */\n      swap1\n      pop\n        /* \"#utility.yul\":648:881   */\n      swap2\n      swap1\n      pop\n      jump\t// out\n\n    auxdata: 0xa26469706673582212207d9e480f19132ee63ed3b7f7521415e56a8d1cb31ff5bd970916705b91b0c88d64736f6c63430008140033\n}\n",
				"bytecode": {
					"linkReferences": {},
					"object": "608060405234801561000f575f80fd5b506102198061001d5f395ff3fe608060405234801561000f575f80fd5b5060043610610029575f3560e01c8063b29f08351461002d575b5f80fd5b610035610037565b005b5f600467ffffffffffffffff8111156100535761005261010c565b5b6040519080825280601f01601f1916602001820160405280156100855781602001600182028036833780820191505090505b5090505f5b6004811015610108577f73000000000000000000000000000000000000000000000000000000000000008282815181106100c7576100c6610139565b5b60200101907effffffffffffffffffffffffffffffffffffffffffffffffffffffffffffff191690815f1a90535080806101009061019c565b91505061008a565b5050565b7f4e487b71000000000000000000000000000000000000000000000000000000005f52604160045260245ffd5b7f4e487b71000000000000000000000000000000000000000000000000000000005f52603260045260245ffd5b7f4e487b71000000000000000000000000000000000000000000000000000000005f52601160045260245ffd5b5f819050919050565b5f6101a682610193565b91507fffffffffffffffffffffffffffffffffffffffffffffffffffffffffffffffff82036101d8576101d7610166565b5b60018201905091905056fea26469706673582212207d9e480f19132ee63ed3b7f7521415e56a8d1cb31ff5bd970916705b91b0c88d64736f6c63430008140033",
					"opcodes": "PUSH1 0x80 PUSH1 0x40 MSTORE CALLVALUE DUP1 ISZERO PUSH2 0xF JUMPI PUSH0 DUP1 REVERT JUMPDEST POP PUSH2 0x219 DUP1 PUSH2 0x1D PUSH0 CODECOPY PUSH0 RETURN INVALID PUSH1 0x80 PUSH1 0x40 MSTORE CALLVALUE DUP1 ISZERO PUSH2 0xF JUMPI PUSH0 DUP1 REVERT JUMPDEST POP PUSH1 0x4 CALLDATASIZE LT PUSH2 0x29 JUMPI PUSH0 CALLDATALOAD PUSH1 0xE0 SHR DUP1 PUSH4 0xB29F0835 EQ PUSH2 0x2D JUMPI JUMPDEST PUSH0 DUP1 REVERT JUMPDEST PUSH2 0x35 PUSH2 0x37 JUMP JUMPDEST STOP JUMPDEST PUSH0 PUSH1 0x4 PUSH8 0xFFFFFFFFFFFFFFFF DUP2 GT ISZERO PUSH2 0x53 JUMPI PUSH2 0x52 PUSH2 0x10C JUMP JUMPDEST JUMPDEST PUSH1 0x40 MLOAD SWAP1 DUP1 DUP3 MSTORE DUP1 PUSH1 0x1F ADD PUSH1 0x1F NOT AND PUSH1 0x20 ADD DUP3 ADD PUSH1 0x40 MSTORE DUP1 ISZERO PUSH2 0x85 JUMPI DUP2 PUSH1 0x20 ADD PUSH1 0x1 DUP3 MUL DUP1 CALLDATASIZE DUP4 CALLDATACOPY DUP1 DUP3 ADD SWAP2 POP POP SWAP1 POP JUMPDEST POP SWAP1 POP PUSH0 JUMPDEST PUSH1 0x4 DUP2 LT ISZERO PUSH2 0x108 JUMPI PUSH32 0x7300000000000000000000000000000000000000000000000000000000000000 DUP3 DUP3 DUP2 MLOAD DUP2 LT PUSH2 0xC7 JUMPI PUSH2 0xC6 PUSH2 0x139 JUMP JUMPDEST JUMPDEST PUSH1 0x20 ADD ADD SWAP1 PUSH31 0xFFFFFFFFFFFFFFFFFFFFFFFFFFFFFFFFFFFFFFFFFFFFFFFFFFFFFFFFFFFFFF NOT AND SWAP1 DUP2 PUSH0 BYTE SWAP1 MSTORE8 POP DUP1 DUP1 PUSH2 0x100 SWAP1 PUSH2 0x19C JUMP JUMPDEST SWAP2 POP POP PUSH2 0x8A JUMP JUMPDEST POP POP JUMP JUMPDEST PUSH32 0x4E487B7100000000000000000000000000000000000000000000000000000000 PUSH0 MSTORE PUSH1 0x41 PUSH1 0x4 MSTORE PUSH1 0x24 PUSH0 REVERT JUMPDEST PUSH32 0x4E487B7100000000000000000000000000000000000000000000000000000000 PUSH0 MSTORE PUSH1 0x32 PUSH1 0x4 MSTORE PUSH1 0x24 PUSH0 REVERT JUMPDEST PUSH32 0x4E487B7100000000000000000000000000000000000000000000000000000000 PUSH0 MSTORE PUSH1 0x11 PUSH1 0x4 MSTORE PUSH1 0x24 PUSH0 REVERT JUMPDEST PUSH0 DUP2 SWAP1 POP SWAP2 SWAP1 POP JUMP JUMPDEST PUSH0 PUSH2 0x1A6 DUP3 PUSH2 0x193 JUMP JUMPDEST SWAP2 POP PUSH32 0xFFFFFFFFFFFFFFFFFFFFFFFFFFFFFFFFFFFFFFFFFFFFFFFFFFFFFFFFFFFFFFFF DUP3 SUB PUSH2 0x1D8 JUMPI PUSH2 0x1D7 PUSH2 0x166 JUMP JUMPDEST JUMPDEST PUSH1 0x1 DUP3 ADD SWAP1 POP SWAP2 SWAP1 POP JUMP INVALID LOG2 PUSH5 0x6970667358 0x22 SLT KECCAK256 PUSH30 0x9E480F19132EE63ED3B7F7521415E56A8D1CB31FF5BD970916705B91B0C8 DUP14 PUSH5 0x736F6C6343 STOP ADDMOD EQ STOP CALLER "
				},
				"gasEstimates": {
					"creation": {
						"codeDepositCost": "107400",
						"executionCost": "151",
						"totalCost": "107551"
					},
					"external": {
						"doIt()": "infinite"
					}
				},
				"methodIdentifiers": {
					"doIt()": "b29f0835"
				}
			},
			"storageLayout": {
				"storage": [],
				"types": null
			},
			"userdoc": {
				"kind": "user",
				"methods": {},
				"version": 1
			}
		}
	}
}