{
	"mapStruct.sol": {
		"map": {
			"abi": [
				{
					"inputs": [
						{
							"internalType": "int256",
							"name": "",
							"type": "int256"
						}
					],
					"name": "myMap",
					"outputs": [
						{
							"internalType": "string",
							"name": "name",
							"type": "string"
						},
						{
							"internalType": "uint256",
							"name": "class",
							"type": "uint256"
						}
					],
					"stateMutability": "view",
					"type": "function"
				},
				{
					"inputs": [
						{
							"internalType": "int256",
							"name": "roll",
							"type": "int256"
						},
						{
							"internalType": "string",
							"name": "name",
							"type": "string"
						},
						{
							"internalType": "uint256",
							"name": "class",
							"type": "uint256"
						}
					],
					"name": "setter",
					"outputs": [],
					"stateMutability": "nonpayable",
					"type": "function"
				}
			],
			"devdoc": {
				"kind": "dev",
				"methods": {},
				"version": 1
			},
			"evm": {
				"assembly": "    /* \"mapStruct.sol\":57:296  contract map{... */\n  mstore(0x40, 0x80)\n  callvalue\n  dup1\n  iszero\n  tag_1\n  jumpi\n  0x00\n  dup1\n  revert\ntag_1:\n  pop\n  dataSize(sub_0)\n  dup1\n  dataOffset(sub_0)\n  0x00\n  codecopy\n  0x00\n  return\nstop\n\nsub_0: assembly {\n        /* \"mapStruct.sol\":57:296  contract map{... */\n      mstore(0x40, 0x80)\n      callvalue\n      dup1\n      iszero\n      tag_1\n      jumpi\n      0x00\n      dup1\n      revert\n    tag_1:\n      pop\n      jumpi(tag_2, lt(calldatasize, 0x04))\n      shr(0xe0, calldataload(0x00))\n      dup1\n      0x9d9defb2\n      eq\n      tag_3\n      jumpi\n      dup1\n      0xbb63d82f\n      eq\n      tag_4\n      jumpi\n    tag_2:\n      0x00\n      dup1\n      revert\n        /* \"mapStruct.sol\":142:176  mapping(int=>Student) public myMap */\n    tag_3:\n      tag_5\n      0x04\n      dup1\n      calldatasize\n      sub\n      dup2\n      add\n      swap1\n      tag_6\n      swap2\n      swap1\n      tag_7\n      jump\t// in\n    tag_6:\n      tag_8\n      jump\t// in\n    tag_5:\n      mload(0x40)\n      tag_9\n      swap3\n      swap2\n      swap1\n      tag_10\n      jump\t// in\n    tag_9:\n      mload(0x40)\n      dup1\n      swap2\n      sub\n      swap1\n      return\n        /* \"mapStruct.sol\":182:294  function setter(int roll,string memory name,uint class) public{... */\n    tag_4:\n      tag_11\n      0x04\n      dup1\n      calldatasize\n      sub\n      dup2\n      add\n      swap1\n      tag_12\n      swap2\n      swap1\n      tag_13\n      jump\t// in\n    tag_12:\n      tag_14\n      jump\t// in\n    tag_11:\n      stop\n        /* \"mapStruct.sol\":142:176  mapping(int=>Student) public myMap */\n    tag_8:\n      mstore(0x20, 0x00)\n      dup1\n      0x00\n      mstore\n      keccak256(0x00, 0x40)\n      0x00\n      swap2\n      pop\n      swap1\n      pop\n      dup1\n      0x00\n      add\n      dup1\n      sload\n      tag_15\n      swap1\n      tag_16\n      jump\t// in\n    tag_15:\n      dup1\n      0x1f\n      add\n      0x20\n      dup1\n      swap2\n      div\n      mul\n      0x20\n      add\n      mload(0x40)\n      swap1\n      dup2\n      add\n      0x40\n      mstore\n      dup1\n      swap3\n      swap2\n      swap1\n      dup2\n      dup2\n      mstore\n      0x20\n      add\n      dup3\n      dup1\n      sload\n      tag_17\n      swap1\n      tag_16\n      jump\t// in\n    tag_17:\n      dup1\n      iszero\n      tag_18\n      jumpi\n      dup1\n      0x1f\n      lt\n      tag_19\n      jumpi\n      0x0100\n      dup1\n      dup4\n      sload\n      div\n      mul\n      dup4\n      mstore\n      swap2\n      0x20\n      add\n      swap2\n      jump(tag_18)\n    tag_19:\n      dup3\n      add\n      swap2\n      swap1\n      0x00\n      mstore\n      keccak256(0x00, 0x20)\n      swap1\n    tag_20:\n      dup2\n      sload\n      dup2\n      mstore\n      swap1\n      0x01\n      add\n      swap1\n      0x20\n      add\n      dup1\n      dup4\n      gt\n      tag_20\n      jumpi\n      dup3\n      swap1\n      sub\n      0x1f\n      and\n      dup3\n      add\n      swap2\n    tag_18:\n      pop\n      pop\n      pop\n      pop\n      pop\n      swap1\n      dup1\n      0x01\n      add\n      sload\n      swap1\n      pop\n      dup3\n      jump\t// out\n        /* \"mapStruct.sol\":182:294  function setter(int roll,string memory name,uint class) public{... */\n    tag_14:\n        /* \"mapStruct.sol\":268:287  Student(name,class) */\n      mload(0x40)\n      dup1\n      0x40\n      add\n      0x40\n      mstore\n      dup1\n        /* \"mapStruct.sol\":276:280  name */\n      dup4\n        /* \"mapStruct.sol\":268:287  Student(name,class) */\n      dup2\n      mstore\n      0x20\n      add\n        /* \"mapStruct.sol\":281:286  class */\n      dup3\n        /* \"mapStruct.sol\":268:287  Student(name,class) */\n      dup2\n      mstore\n      pop\n        /* \"mapStruct.sol\":254:259  myMap */\n      0x00\n        /* \"mapStruct.sol\":254:265  myMap[roll] */\n      dup1\n        /* \"mapStruct.sol\":260:264  roll */\n      dup6\n        /* \"mapStruct.sol\":254:265  myMap[roll] */\n      dup2\n      mstore\n      0x20\n      add\n      swap1\n      dup2\n      mstore\n      0x20\n      add\n      0x00\n      keccak256\n        /* \"mapStruct.sol\":254:287  myMap[roll] = Student(name,class) */\n      0x00\n      dup3\n      add\n      mload\n      dup2\n      0x00\n      add\n      swap1\n      dup2\n      tag_22\n      swap2\n      swap1\n      tag_23\n      jump\t// in\n    tag_22:\n      pop\n      0x20\n      dup3\n      add\n      mload\n      dup2\n      0x01\n      add\n      sstore\n      swap1\n      pop\n      pop\n        /* \"mapStruct.sol\":182:294  function setter(int roll,string memory name,uint class) public{... */\n      pop\n      pop\n      pop\n      jump\t// out\n        /* \"#utility.yul\":7:82   */\n    tag_24:\n        /* \"#utility.yul\":40:46   */\n      0x00\n        /* \"#utility.yul\":73:75   */\n      0x40\n        /* \"#utility.yul\":67:76   */\n      mload\n        /* \"#utility.yul\":57:76   */\n      swap1\n      pop\n        /* \"#utility.yul\":7:82   */\n      swap1\n      jump\t// out\n        /* \"#utility.yul\":88:205   */\n    tag_25:\n        /* \"#utility.yul\":197:198   */\n      0x00\n        /* \"#utility.yul\":194:195   */\n      dup1\n        /* \"#utility.yul\":187:199   */\n      revert\n        /* \"#utility.yul\":211:328   */\n    tag_26:\n        /* \"#utility.yul\":320:321   */\n      0x00\n        /* \"#utility.yul\":317:318   */\n      dup1\n        /* \"#utility.yul\":310:322   */\n      revert\n        /* \"#utility.yul\":334:410   */\n    tag_27:\n        /* \"#utility.yul\":370:377   */\n      0x00\n        /* \"#utility.yul\":399:404   */\n      dup2\n        /* \"#utility.yul\":388:404   */\n      swap1\n      pop\n        /* \"#utility.yul\":334:410   */\n      swap2\n      swap1\n      pop\n      jump\t// out\n        /* \"#utility.yul\":416:536   */\n    tag_28:\n        /* \"#utility.yul\":488:511   */\n      tag_70\n        /* \"#utility.yul\":505:510   */\n      dup2\n        /* \"#utility.yul\":488:511   */\n      tag_27\n      jump\t// in\n    tag_70:\n        /* \"#utility.yul\":481:486   */\n      dup2\n        /* \"#utility.yul\":478:512   */\n      eq\n        /* \"#utility.yul\":468:530   */\n      tag_71\n      jumpi\n        /* \"#utility.yul\":526:527   */\n      0x00\n        /* \"#utility.yul\":523:524   */\n      dup1\n        /* \"#utility.yul\":516:528   */\n      revert\n        /* \"#utility.yul\":468:530   */\n    tag_71:\n        /* \"#utility.yul\":416:536   */\n      pop\n      jump\t// out\n        /* \"#utility.yul\":542:679   */\n    tag_29:\n        /* \"#utility.yul\":587:592   */\n      0x00\n        /* \"#utility.yul\":625:631   */\n      dup2\n        /* \"#utility.yul\":612:632   */\n      calldataload\n        /* \"#utility.yul\":603:632   */\n      swap1\n      pop\n        /* \"#utility.yul\":641:673   */\n      tag_73\n        /* \"#utility.yul\":667:672   */\n      dup2\n        /* \"#utility.yul\":641:673   */\n      tag_28\n      jump\t// in\n    tag_73:\n        /* \"#utility.yul\":542:679   */\n      swap3\n      swap2\n      pop\n      pop\n      jump\t// out\n        /* \"#utility.yul\":685:1012   */\n    tag_7:\n        /* \"#utility.yul\":743:749   */\n      0x00\n        /* \"#utility.yul\":792:794   */\n      0x20\n        /* \"#utility.yul\":780:789   */\n      dup3\n        /* \"#utility.yul\":771:778   */\n      dup5\n        /* \"#utility.yul\":767:790   */\n      sub\n        /* \"#utility.yul\":763:795   */\n      slt\n        /* \"#utility.yul\":760:879   */\n      iszero\n      tag_75\n      jumpi\n        /* \"#utility.yul\":798:877   */\n      tag_76\n      tag_25\n      jump\t// in\n    tag_76:\n        /* \"#utility.yul\":760:879   */\n    tag_75:\n        /* \"#utility.yul\":918:919   */\n      0x00\n        /* \"#utility.yul\":943:995   */\n      tag_77\n        /* \"#utility.yul\":987:994   */\n      dup5\n        /* \"#utility.yul\":978:984   */\n      dup3\n        /* \"#utility.yul\":967:976   */\n      dup6\n        /* \"#utility.yul\":963:985   */\n      add\n        /* \"#utility.yul\":943:995   */\n      tag_29\n      jump\t// in\n    tag_77:\n        /* \"#utility.yul\":933:995   */\n      swap2\n      pop\n        /* \"#utility.yul\":889:1005   */\n      pop\n        /* \"#utility.yul\":685:1012   */\n      swap3\n      swap2\n      pop\n      pop\n      jump\t// out\n        /* \"#utility.yul\":1018:1117   */\n    tag_30:\n        /* \"#utility.yul\":1070:1076   */\n      0x00\n        /* \"#utility.yul\":1104:1109   */\n      dup2\n        /* \"#utility.yul\":1098:1110   */\n      mload\n        /* \"#utility.yul\":1088:1110   */\n      swap1\n      pop\n        /* \"#utility.yul\":1018:1117   */\n      swap2\n      swap1\n      pop\n      jump\t// out\n        /* \"#utility.yul\":1123:1292   */\n    tag_31:\n        /* \"#utility.yul\":1207:1218   */\n      0x00\n        /* \"#utility.yul\":1241:1247   */\n      dup3\n        /* \"#utility.yul\":1236:1239   */\n      dup3\n        /* \"#utility.yul\":1229:1248   */\n      mstore\n        /* \"#utility.yul\":1281:1285   */\n      0x20\n        /* \"#utility.yul\":1276:1279   */\n      dup3\n        /* \"#utility.yul\":1272:1286   */\n      add\n        /* \"#utility.yul\":1257:1286   */\n      swap1\n      pop\n        /* \"#utility.yul\":1123:1292   */\n      swap3\n      swap2\n      pop\n      pop\n      jump\t// out\n        /* \"#utility.yul\":1298:1544   */\n    tag_32:\n        /* \"#utility.yul\":1379:1380   */\n      0x00\n        /* \"#utility.yul\":1389:1502   */\n    tag_81:\n        /* \"#utility.yul\":1403:1409   */\n      dup4\n        /* \"#utility.yul\":1400:1401   */\n      dup2\n        /* \"#utility.yul\":1397:1410   */\n      lt\n        /* \"#utility.yul\":1389:1502   */\n      iszero\n      tag_83\n      jumpi\n        /* \"#utility.yul\":1488:1489   */\n      dup1\n        /* \"#utility.yul\":1483:1486   */\n      dup3\n        /* \"#utility.yul\":1479:1490   */\n      add\n        /* \"#utility.yul\":1473:1491   */\n      mload\n        /* \"#utility.yul\":1469:1470   */\n      dup2\n        /* \"#utility.yul\":1464:1467   */\n      dup5\n        /* \"#utility.yul\":1460:1471   */\n      add\n        /* \"#utility.yul\":1453:1492   */\n      mstore\n        /* \"#utility.yul\":1425:1427   */\n      0x20\n        /* \"#utility.yul\":1422:1423   */\n      dup2\n        /* \"#utility.yul\":1418:1428   */\n      add\n        /* \"#utility.yul\":1413:1428   */\n      swap1\n      pop\n        /* \"#utility.yul\":1389:1502   */\n      jump(tag_81)\n    tag_83:\n        /* \"#utility.yul\":1536:1537   */\n      0x00\n        /* \"#utility.yul\":1527:1533   */\n      dup5\n        /* \"#utility.yul\":1522:1525   */\n      dup5\n        /* \"#utility.yul\":1518:1534   */\n      add\n        /* \"#utility.yul\":1511:1538   */\n      mstore\n        /* \"#utility.yul\":1360:1544   */\n      pop\n        /* \"#utility.yul\":1298:1544   */\n      pop\n      pop\n      pop\n      jump\t// out\n        /* \"#utility.yul\":1550:1652   */\n    tag_33:\n        /* \"#utility.yul\":1591:1597   */\n      0x00\n        /* \"#utility.yul\":1642:1644   */\n      0x1f\n        /* \"#utility.yul\":1638:1645   */\n      not\n        /* \"#utility.yul\":1633:1635   */\n      0x1f\n        /* \"#utility.yul\":1626:1631   */\n      dup4\n        /* \"#utility.yul\":1622:1636   */\n      add\n        /* \"#utility.yul\":1618:1646   */\n      and\n        /* \"#utility.yul\":1608:1646   */\n      swap1\n      pop\n        /* \"#utility.yul\":1550:1652   */\n      swap2\n      swap1\n      pop\n      jump\t// out\n        /* \"#utility.yul\":1658:2035   */\n    tag_34:\n        /* \"#utility.yul\":1746:1749   */\n      0x00\n        /* \"#utility.yul\":1774:1813   */\n      tag_86\n        /* \"#utility.yul\":1807:1812   */\n      dup3\n        /* \"#utility.yul\":1774:1813   */\n      tag_30\n      jump\t// in\n    tag_86:\n        /* \"#utility.yul\":1829:1900   */\n      tag_87\n        /* \"#utility.yul\":1893:1899   */\n      dup2\n        /* \"#utility.yul\":1888:1891   */\n      dup6\n        /* \"#utility.yul\":1829:1900   */\n      tag_31\n      jump\t// in\n    tag_87:\n        /* \"#utility.yul\":1822:1900   */\n      swap4\n      pop\n        /* \"#utility.yul\":1909:1974   */\n      tag_88\n        /* \"#utility.yul\":1967:1973   */\n      dup2\n        /* \"#utility.yul\":1962:1965   */\n      dup6\n        /* \"#utility.yul\":1955:1959   */\n      0x20\n        /* \"#utility.yul\":1948:1953   */\n      dup7\n        /* \"#utility.yul\":1944:1960   */\n      add\n        /* \"#utility.yul\":1909:1974   */\n      tag_32\n      jump\t// in\n    tag_88:\n        /* \"#utility.yul\":1999:2028   */\n      tag_89\n        /* \"#utility.yul\":2021:2027   */\n      dup2\n        /* \"#utility.yul\":1999:2028   */\n      tag_33\n      jump\t// in\n    tag_89:\n        /* \"#utility.yul\":1994:1997   */\n      dup5\n        /* \"#utility.yul\":1990:2029   */\n      add\n        /* \"#utility.yul\":1983:2029   */\n      swap2\n      pop\n        /* \"#utility.yul\":1750:2035   */\n      pop\n        /* \"#utility.yul\":1658:2035   */\n      swap3\n      swap2\n      pop\n      pop\n      jump\t// out\n        /* \"#utility.yul\":2041:2118   */\n    tag_35:\n        /* \"#utility.yul\":2078:2085   */\n      0x00\n        /* \"#utility.yul\":2107:2112   */\n      dup2\n        /* \"#utility.yul\":2096:2112   */\n      swap1\n      pop\n        /* \"#utility.yul\":2041:2118   */\n      swap2\n      swap1\n      pop\n      jump\t// out\n        /* \"#utility.yul\":2124:2242   */\n    tag_36:\n        /* \"#utility.yul\":2211:2235   */\n      tag_92\n        /* \"#utility.yul\":2229:2234   */\n      dup2\n        /* \"#utility.yul\":2211:2235   */\n      tag_35\n      jump\t// in\n    tag_92:\n        /* \"#utility.yul\":2206:2209   */\n      dup3\n        /* \"#utility.yul\":2199:2236   */\n      mstore\n        /* \"#utility.yul\":2124:2242   */\n      pop\n      pop\n      jump\t// out\n        /* \"#utility.yul\":2248:2671   */\n    tag_10:\n        /* \"#utility.yul\":2389:2393   */\n      0x00\n        /* \"#utility.yul\":2427:2429   */\n      0x40\n        /* \"#utility.yul\":2416:2425   */\n      dup3\n        /* \"#utility.yul\":2412:2430   */\n      add\n        /* \"#utility.yul\":2404:2430   */\n      swap1\n      pop\n        /* \"#utility.yul\":2476:2485   */\n      dup2\n        /* \"#utility.yul\":2470:2474   */\n      dup2\n        /* \"#utility.yul\":2466:2486   */\n      sub\n        /* \"#utility.yul\":2462:2463   */\n      0x00\n        /* \"#utility.yul\":2451:2460   */\n      dup4\n        /* \"#utility.yul\":2447:2464   */\n      add\n        /* \"#utility.yul\":2440:2487   */\n      mstore\n        /* \"#utility.yul\":2504:2582   */\n      tag_94\n        /* \"#utility.yul\":2577:2581   */\n      dup2\n        /* \"#utility.yul\":2568:2574   */\n      dup6\n        /* \"#utility.yul\":2504:2582   */\n      tag_34\n      jump\t// in\n    tag_94:\n        /* \"#utility.yul\":2496:2582   */\n      swap1\n      pop\n        /* \"#utility.yul\":2592:2664   */\n      tag_95\n        /* \"#utility.yul\":2660:2662   */\n      0x20\n        /* \"#utility.yul\":2649:2658   */\n      dup4\n        /* \"#utility.yul\":2645:2663   */\n      add\n        /* \"#utility.yul\":2636:2642   */\n      dup5\n        /* \"#utility.yul\":2592:2664   */\n      tag_36\n      jump\t// in\n    tag_95:\n        /* \"#utility.yul\":2248:2671   */\n      swap4\n      swap3\n      pop\n      pop\n      pop\n      jump\t// out\n        /* \"#utility.yul\":2677:2794   */\n    tag_37:\n        /* \"#utility.yul\":2786:2787   */\n      0x00\n        /* \"#utility.yul\":2783:2784   */\n      dup1\n        /* \"#utility.yul\":2776:2788   */\n      revert\n        /* \"#utility.yul\":2800:2917   */\n    tag_38:\n        /* \"#utility.yul\":2909:2910   */\n      0x00\n        /* \"#utility.yul\":2906:2907   */\n      dup1\n        /* \"#utility.yul\":2899:2911   */\n      revert\n        /* \"#utility.yul\":2923:3103   */\n    tag_39:\n        /* \"#utility.yul\":2971:3048   */\n      0x4e487b7100000000000000000000000000000000000000000000000000000000\n        /* \"#utility.yul\":2968:2969   */\n      0x00\n        /* \"#utility.yul\":2961:3049   */\n      mstore\n        /* \"#utility.yul\":3068:3072   */\n      0x41\n        /* \"#utility.yul\":3065:3066   */\n      0x04\n        /* \"#utility.yul\":3058:3073   */\n      mstore\n        /* \"#utility.yul\":3092:3096   */\n      0x24\n        /* \"#utility.yul\":3089:3090   */\n      0x00\n        /* \"#utility.yul\":3082:3097   */\n      revert\n        /* \"#utility.yul\":3109:3390   */\n    tag_40:\n        /* \"#utility.yul\":3192:3219   */\n      tag_100\n        /* \"#utility.yul\":3214:3218   */\n      dup3\n        /* \"#utility.yul\":3192:3219   */\n      tag_33\n      jump\t// in\n    tag_100:\n        /* \"#utility.yul\":3184:3190   */\n      dup2\n        /* \"#utility.yul\":3180:3220   */\n      add\n        /* \"#utility.yul\":3322:3328   */\n      dup2\n        /* \"#utility.yul\":3310:3320   */\n      dup2\n        /* \"#utility.yul\":3307:3329   */\n      lt\n        /* \"#utility.yul\":3286:3304   */\n      0xffffffffffffffff\n        /* \"#utility.yul\":3274:3284   */\n      dup3\n        /* \"#utility.yul\":3271:3305   */\n      gt\n        /* \"#utility.yul\":3268:3330   */\n      or\n        /* \"#utility.yul\":3265:3353   */\n      iszero\n      tag_101\n      jumpi\n        /* \"#utility.yul\":3333:3351   */\n      tag_102\n      tag_39\n      jump\t// in\n    tag_102:\n        /* \"#utility.yul\":3265:3353   */\n    tag_101:\n        /* \"#utility.yul\":3373:3383   */\n      dup1\n        /* \"#utility.yul\":3369:3371   */\n      0x40\n        /* \"#utility.yul\":3362:3384   */\n      mstore\n        /* \"#utility.yul\":3152:3390   */\n      pop\n        /* \"#utility.yul\":3109:3390   */\n      pop\n      pop\n      jump\t// out\n        /* \"#utility.yul\":3396:3525   */\n    tag_41:\n        /* \"#utility.yul\":3430:3436   */\n      0x00\n        /* \"#utility.yul\":3457:3477   */\n      tag_104\n      tag_24\n      jump\t// in\n    tag_104:\n        /* \"#utility.yul\":3447:3477   */\n      swap1\n      pop\n        /* \"#utility.yul\":3486:3519   */\n      tag_105\n        /* \"#utility.yul\":3514:3518   */\n      dup3\n        /* \"#utility.yul\":3506:3512   */\n      dup3\n        /* \"#utility.yul\":3486:3519   */\n      tag_40\n      jump\t// in\n    tag_105:\n        /* \"#utility.yul\":3396:3525   */\n      swap2\n      swap1\n      pop\n      jump\t// out\n        /* \"#utility.yul\":3531:3839   */\n    tag_42:\n        /* \"#utility.yul\":3593:3597   */\n      0x00\n        /* \"#utility.yul\":3683:3701   */\n      0xffffffffffffffff\n        /* \"#utility.yul\":3675:3681   */\n      dup3\n        /* \"#utility.yul\":3672:3702   */\n      gt\n        /* \"#utility.yul\":3669:3725   */\n      iszero\n      tag_107\n      jumpi\n        /* \"#utility.yul\":3705:3723   */\n      tag_108\n      tag_39\n      jump\t// in\n    tag_108:\n        /* \"#utility.yul\":3669:3725   */\n    tag_107:\n        /* \"#utility.yul\":3743:3772   */\n      tag_109\n        /* \"#utility.yul\":3765:3771   */\n      dup3\n        /* \"#utility.yul\":3743:3772   */\n      tag_33\n      jump\t// in\n    tag_109:\n        /* \"#utility.yul\":3735:3772   */\n      swap1\n      pop\n        /* \"#utility.yul\":3827:3831   */\n      0x20\n        /* \"#utility.yul\":3821:3825   */\n      dup2\n        /* \"#utility.yul\":3817:3832   */\n      add\n        /* \"#utility.yul\":3809:3832   */\n      swap1\n      pop\n        /* \"#utility.yul\":3531:3839   */\n      swap2\n      swap1\n      pop\n      jump\t// out\n        /* \"#utility.yul\":3845:3991   */\n    tag_43:\n        /* \"#utility.yul\":3942:3948   */\n      dup3\n        /* \"#utility.yul\":3937:3940   */\n      dup2\n        /* \"#utility.yul\":3932:3935   */\n      dup4\n        /* \"#utility.yul\":3919:3949   */\n      calldatacopy\n        /* \"#utility.yul\":3983:3984   */\n      0x00\n        /* \"#utility.yul\":3974:3980   */\n      dup4\n        /* \"#utility.yul\":3969:3972   */\n      dup4\n        /* \"#utility.yul\":3965:3981   */\n      add\n        /* \"#utility.yul\":3958:3985   */\n      mstore\n        /* \"#utility.yul\":3845:3991   */\n      pop\n      pop\n      pop\n      jump\t// out\n        /* \"#utility.yul\":3997:4422   */\n    tag_44:\n        /* \"#utility.yul\":4075:4080   */\n      0x00\n        /* \"#utility.yul\":4100:4166   */\n      tag_112\n        /* \"#utility.yul\":4116:4165   */\n      tag_113\n        /* \"#utility.yul\":4158:4164   */\n      dup5\n        /* \"#utility.yul\":4116:4165   */\n      tag_42\n      jump\t// in\n    tag_113:\n        /* \"#utility.yul\":4100:4166   */\n      tag_41\n      jump\t// in\n    tag_112:\n        /* \"#utility.yul\":4091:4166   */\n      swap1\n      pop\n        /* \"#utility.yul\":4189:4195   */\n      dup3\n        /* \"#utility.yul\":4182:4187   */\n      dup2\n        /* \"#utility.yul\":4175:4196   */\n      mstore\n        /* \"#utility.yul\":4227:4231   */\n      0x20\n        /* \"#utility.yul\":4220:4225   */\n      dup2\n        /* \"#utility.yul\":4216:4232   */\n      add\n        /* \"#utility.yul\":4265:4268   */\n      dup5\n        /* \"#utility.yul\":4256:4262   */\n      dup5\n        /* \"#utility.yul\":4251:4254   */\n      dup5\n        /* \"#utility.yul\":4247:4263   */\n      add\n        /* \"#utility.yul\":4244:4269   */\n      gt\n        /* \"#utility.yul\":4241:4353   */\n      iszero\n      tag_114\n      jumpi\n        /* \"#utility.yul\":4272:4351   */\n      tag_115\n      tag_38\n      jump\t// in\n    tag_115:\n        /* \"#utility.yul\":4241:4353   */\n    tag_114:\n        /* \"#utility.yul\":4362:4416   */\n      tag_116\n        /* \"#utility.yul\":4409:4415   */\n      dup5\n        /* \"#utility.yul\":4404:4407   */\n      dup3\n        /* \"#utility.yul\":4399:4402   */\n      dup6\n        /* \"#utility.yul\":4362:4416   */\n      tag_43\n      jump\t// in\n    tag_116:\n        /* \"#utility.yul\":4081:4422   */\n      pop\n        /* \"#utility.yul\":3997:4422   */\n      swap4\n      swap3\n      pop\n      pop\n      pop\n      jump\t// out\n        /* \"#utility.yul\":4442:4782   */\n    tag_45:\n        /* \"#utility.yul\":4498:4503   */\n      0x00\n        /* \"#utility.yul\":4547:4550   */\n      dup3\n        /* \"#utility.yul\":4540:4544   */\n      0x1f\n        /* \"#utility.yul\":4532:4538   */\n      dup4\n        /* \"#utility.yul\":4528:4545   */\n      add\n        /* \"#utility.yul\":4524:4551   */\n      slt\n        /* \"#utility.yul\":4514:4636   */\n      tag_118\n      jumpi\n        /* \"#utility.yul\":4555:4634   */\n      tag_119\n      tag_37\n      jump\t// in\n    tag_119:\n        /* \"#utility.yul\":4514:4636   */\n    tag_118:\n        /* \"#utility.yul\":4672:4678   */\n      dup2\n        /* \"#utility.yul\":4659:4679   */\n      calldataload\n        /* \"#utility.yul\":4697:4776   */\n      tag_120\n        /* \"#utility.yul\":4772:4775   */\n      dup5\n        /* \"#utility.yul\":4764:4770   */\n      dup3\n        /* \"#utility.yul\":4757:4761   */\n      0x20\n        /* \"#utility.yul\":4749:4755   */\n      dup7\n        /* \"#utility.yul\":4745:4762   */\n      add\n        /* \"#utility.yul\":4697:4776   */\n      tag_44\n      jump\t// in\n    tag_120:\n        /* \"#utility.yul\":4688:4776   */\n      swap2\n      pop\n        /* \"#utility.yul\":4504:4782   */\n      pop\n        /* \"#utility.yul\":4442:4782   */\n      swap3\n      swap2\n      pop\n      pop\n      jump\t// out\n        /* \"#utility.yul\":4788:4910   */\n    tag_46:\n        /* \"#utility.yul\":4861:4885   */\n      tag_122\n        /* \"#utility.yul\":4879:4884   */\n      dup2\n        /* \"#utility.yul\":4861:4885   */\n      tag_35\n      jump\t// in\n    tag_122:\n        /* \"#utility.yul\":4854:4859   */\n      dup2\n        /* \"#utility.yul\":4851:4886   */\n      eq\n        /* \"#utility.yul\":4841:4904   */\n      tag_123\n      jumpi\n        /* \"#utility.yul\":4900:4901   */\n      0x00\n        /* \"#utility.yul\":4897:4898   */\n      dup1\n        /* \"#utility.yul\":4890:4902   */\n      revert\n        /* \"#utility.yul\":4841:4904   */\n    tag_123:\n        /* \"#utility.yul\":4788:4910   */\n      pop\n      jump\t// out\n        /* \"#utility.yul\":4916:5055   */\n    tag_47:\n        /* \"#utility.yul\":4962:4967   */\n      0x00\n        /* \"#utility.yul\":5000:5006   */\n      dup2\n        /* \"#utility.yul\":4987:5007   */\n      calldataload\n        /* \"#utility.yul\":4978:5007   */\n      swap1\n      pop\n        /* \"#utility.yul\":5016:5049   */\n      tag_125\n        /* \"#utility.yul\":5043:5048   */\n      dup2\n        /* \"#utility.yul\":5016:5049   */\n      tag_46\n      jump\t// in\n    tag_125:\n        /* \"#utility.yul\":4916:5055   */\n      swap3\n      swap2\n      pop\n      pop\n      jump\t// out\n        /* \"#utility.yul\":5061:5858   */\n    tag_13:\n        /* \"#utility.yul\":5147:5153   */\n      0x00\n        /* \"#utility.yul\":5155:5161   */\n      dup1\n        /* \"#utility.yul\":5163:5169   */\n      0x00\n        /* \"#utility.yul\":5212:5214   */\n      0x60\n        /* \"#utility.yul\":5200:5209   */\n      dup5\n        /* \"#utility.yul\":5191:5198   */\n      dup7\n        /* \"#utility.yul\":5187:5210   */\n      sub\n        /* \"#utility.yul\":5183:5215   */\n      slt\n        /* \"#utility.yul\":5180:5299   */\n      iszero\n      tag_127\n      jumpi\n        /* \"#utility.yul\":5218:5297   */\n      tag_128\n      tag_25\n      jump\t// in\n    tag_128:\n        /* \"#utility.yul\":5180:5299   */\n    tag_127:\n        /* \"#utility.yul\":5338:5339   */\n      0x00\n        /* \"#utility.yul\":5363:5415   */\n      tag_129\n        /* \"#utility.yul\":5407:5414   */\n      dup7\n        /* \"#utility.yul\":5398:5404   */\n      dup3\n        /* \"#utility.yul\":5387:5396   */\n      dup8\n        /* \"#utility.yul\":5383:5405   */\n      add\n        /* \"#utility.yul\":5363:5415   */\n      tag_29\n      jump\t// in\n    tag_129:\n        /* \"#utility.yul\":5353:5415   */\n      swap4\n      pop\n        /* \"#utility.yul\":5309:5425   */\n      pop\n        /* \"#utility.yul\":5492:5494   */\n      0x20\n        /* \"#utility.yul\":5481:5490   */\n      dup5\n        /* \"#utility.yul\":5477:5495   */\n      add\n        /* \"#utility.yul\":5464:5496   */\n      calldataload\n        /* \"#utility.yul\":5523:5541   */\n      0xffffffffffffffff\n        /* \"#utility.yul\":5515:5521   */\n      dup2\n        /* \"#utility.yul\":5512:5542   */\n      gt\n        /* \"#utility.yul\":5509:5626   */\n      iszero\n      tag_130\n      jumpi\n        /* \"#utility.yul\":5545:5624   */\n      tag_131\n      tag_26\n      jump\t// in\n    tag_131:\n        /* \"#utility.yul\":5509:5626   */\n    tag_130:\n        /* \"#utility.yul\":5650:5713   */\n      tag_132\n        /* \"#utility.yul\":5705:5712   */\n      dup7\n        /* \"#utility.yul\":5696:5702   */\n      dup3\n        /* \"#utility.yul\":5685:5694   */\n      dup8\n        /* \"#utility.yul\":5681:5703   */\n      add\n        /* \"#utility.yul\":5650:5713   */\n      tag_45\n      jump\t// in\n    tag_132:\n        /* \"#utility.yul\":5640:5713   */\n      swap3\n      pop\n        /* \"#utility.yul\":5435:5723   */\n      pop\n        /* \"#utility.yul\":5762:5764   */\n      0x40\n        /* \"#utility.yul\":5788:5841   */\n      tag_133\n        /* \"#utility.yul\":5833:5840   */\n      dup7\n        /* \"#utility.yul\":5824:5830   */\n      dup3\n        /* \"#utility.yul\":5813:5822   */\n      dup8\n        /* \"#utility.yul\":5809:5831   */\n      add\n        /* \"#utility.yul\":5788:5841   */\n      tag_47\n      jump\t// in\n    tag_133:\n        /* \"#utility.yul\":5778:5841   */\n      swap2\n      pop\n        /* \"#utility.yul\":5733:5851   */\n      pop\n        /* \"#utility.yul\":5061:5858   */\n      swap3\n      pop\n      swap3\n      pop\n      swap3\n      jump\t// out\n        /* \"#utility.yul\":5864:6044   */\n    tag_48:\n        /* \"#utility.yul\":5912:5989   */\n      0x4e487b7100000000000000000000000000000000000000000000000000000000\n        /* \"#utility.yul\":5909:5910   */\n      0x00\n        /* \"#utility.yul\":5902:5990   */\n      mstore\n        /* \"#utility.yul\":6009:6013   */\n      0x22\n        /* \"#utility.yul\":6006:6007   */\n      0x04\n        /* \"#utility.yul\":5999:6014   */\n      mstore\n        /* \"#utility.yul\":6033:6037   */\n      0x24\n        /* \"#utility.yul\":6030:6031   */\n      0x00\n        /* \"#utility.yul\":6023:6038   */\n      revert\n        /* \"#utility.yul\":6050:6370   */\n    tag_16:\n        /* \"#utility.yul\":6094:6100   */\n      0x00\n        /* \"#utility.yul\":6131:6132   */\n      0x02\n        /* \"#utility.yul\":6125:6129   */\n      dup3\n        /* \"#utility.yul\":6121:6133   */\n      div\n        /* \"#utility.yul\":6111:6133   */\n      swap1\n      pop\n        /* \"#utility.yul\":6178:6179   */\n      0x01\n        /* \"#utility.yul\":6172:6176   */\n      dup3\n        /* \"#utility.yul\":6168:6180   */\n      and\n        /* \"#utility.yul\":6199:6217   */\n      dup1\n        /* \"#utility.yul\":6189:6270   */\n      tag_136\n      jumpi\n        /* \"#utility.yul\":6255:6259   */\n      0x7f\n        /* \"#utility.yul\":6247:6253   */\n      dup3\n        /* \"#utility.yul\":6243:6260   */\n      and\n        /* \"#utility.yul\":6233:6260   */\n      swap2\n      pop\n        /* \"#utility.yul\":6189:6270   */\n    tag_136:\n        /* \"#utility.yul\":6317:6319   */\n      0x20\n        /* \"#utility.yul\":6309:6315   */\n      dup3\n        /* \"#utility.yul\":6306:6320   */\n      lt\n        /* \"#utility.yul\":6286:6304   */\n      dup2\n        /* \"#utility.yul\":6283:6321   */\n      sub\n        /* \"#utility.yul\":6280:6364   */\n      tag_137\n      jumpi\n        /* \"#utility.yul\":6336:6354   */\n      tag_138\n      tag_48\n      jump\t// in\n    tag_138:\n        /* \"#utility.yul\":6280:6364   */\n    tag_137:\n        /* \"#utility.yul\":6101:6370   */\n      pop\n        /* \"#utility.yul\":6050:6370   */\n      swap2\n      swap1\n      pop\n      jump\t// out\n        /* \"#utility.yul\":6376:6517   */\n    tag_49:\n        /* \"#utility.yul\":6425:6429   */\n      0x00\n        /* \"#utility.yul\":6448:6451   */\n      dup2\n        /* \"#utility.yul\":6440:6451   */\n      swap1\n      pop\n        /* \"#utility.yul\":6471:6474   */\n      dup2\n        /* \"#utility.yul\":6468:6469   */\n      0x00\n        /* \"#utility.yul\":6461:6475   */\n      mstore\n        /* \"#utility.yul\":6505:6509   */\n      0x20\n        /* \"#utility.yul\":6502:6503   */\n      0x00\n        /* \"#utility.yul\":6492:6510   */\n      keccak256\n        /* \"#utility.yul\":6484:6510   */\n      swap1\n      pop\n        /* \"#utility.yul\":6376:6517   */\n      swap2\n      swap1\n      pop\n      jump\t// out\n        /* \"#utility.yul\":6523:6616   */\n    tag_50:\n        /* \"#utility.yul\":6560:6566   */\n      0x00\n        /* \"#utility.yul\":6607:6609   */\n      0x20\n        /* \"#utility.yul\":6602:6604   */\n      0x1f\n        /* \"#utility.yul\":6595:6600   */\n      dup4\n        /* \"#utility.yul\":6591:6605   */\n      add\n        /* \"#utility.yul\":6587:6610   */\n      div\n        /* \"#utility.yul\":6577:6610   */\n      swap1\n      pop\n        /* \"#utility.yul\":6523:6616   */\n      swap2\n      swap1\n      pop\n      jump\t// out\n        /* \"#utility.yul\":6622:6729   */\n    tag_51:\n        /* \"#utility.yul\":6666:6674   */\n      0x00\n        /* \"#utility.yul\":6716:6721   */\n      dup3\n        /* \"#utility.yul\":6710:6714   */\n      dup3\n        /* \"#utility.yul\":6706:6722   */\n      shl\n        /* \"#utility.yul\":6685:6722   */\n      swap1\n      pop\n        /* \"#utility.yul\":6622:6729   */\n      swap3\n      swap2\n      pop\n      pop\n      jump\t// out\n        /* \"#utility.yul\":6735:7128   */\n    tag_52:\n        /* \"#utility.yul\":6804:6810   */\n      0x00\n        /* \"#utility.yul\":6854:6855   */\n      0x08\n        /* \"#utility.yul\":6842:6852   */\n      dup4\n        /* \"#utility.yul\":6838:6856   */\n      mul\n        /* \"#utility.yul\":6877:6974   */\n      tag_143\n        /* \"#utility.yul\":6907:6973   */\n      0xffffffffffffffffffffffffffffffffffffffffffffffffffffffffffffffff\n        /* \"#utility.yul\":6896:6905   */\n      dup3\n        /* \"#utility.yul\":6877:6974   */\n      tag_51\n      jump\t// in\n    tag_143:\n        /* \"#utility.yul\":6995:7034   */\n      tag_144\n        /* \"#utility.yul\":7025:7033   */\n      dup7\n        /* \"#utility.yul\":7014:7023   */\n      dup4\n        /* \"#utility.yul\":6995:7034   */\n      tag_51\n      jump\t// in\n    tag_144:\n        /* \"#utility.yul\":6983:7034   */\n      swap6\n      pop\n        /* \"#utility.yul\":7067:7071   */\n      dup1\n        /* \"#utility.yul\":7063:7072   */\n      not\n        /* \"#utility.yul\":7056:7061   */\n      dup5\n        /* \"#utility.yul\":7052:7073   */\n      and\n        /* \"#utility.yul\":7043:7073   */\n      swap4\n      pop\n        /* \"#utility.yul\":7116:7120   */\n      dup1\n        /* \"#utility.yul\":7106:7114   */\n      dup7\n        /* \"#utility.yul\":7102:7121   */\n      and\n        /* \"#utility.yul\":7095:7100   */\n      dup5\n        /* \"#utility.yul\":7092:7122   */\n      or\n        /* \"#utility.yul\":7082:7122   */\n      swap3\n      pop\n        /* \"#utility.yul\":6811:7128   */\n      pop\n      pop\n        /* \"#utility.yul\":6735:7128   */\n      swap4\n      swap3\n      pop\n      pop\n      pop\n      jump\t// out\n        /* \"#utility.yul\":7134:7194   */\n    tag_53:\n        /* \"#utility.yul\":7162:7165   */\n      0x00\n        /* \"#utility.yul\":7183:7188   */\n      dup2\n        /* \"#utility.yul\":7176:7188   */\n      swap1\n      pop\n        /* \"#utility.yul\":7134:7194   */\n      swap2\n      swap1\n      pop\n      jump\t// out\n        /* \"#utility.yul\":7200:7342   */\n    tag_54:\n        /* \"#utility.yul\":7250:7259   */\n      0x00\n        /* \"#utility.yul\":7283:7336   */\n      tag_147\n        /* \"#utility.yul\":7301:7335   */\n      tag_148\n        /* \"#utility.yul\":7310:7334   */\n      tag_149\n        /* \"#utility.yul\":7328:7333   */\n      dup5\n        /* \"#utility.yul\":7310:7334   */\n      tag_35\n      jump\t// in\n    tag_149:\n        /* \"#utility.yul\":7301:7335   */\n      tag_53\n      jump\t// in\n    tag_148:\n        /* \"#utility.yul\":7283:7336   */\n      tag_35\n      jump\t// in\n    tag_147:\n        /* \"#utility.yul\":7270:7336   */\n      swap1\n      pop\n        /* \"#utility.yul\":7200:7342   */\n      swap2\n      swap1\n      pop\n      jump\t// out\n        /* \"#utility.yul\":7348:7423   */\n    tag_55:\n        /* \"#utility.yul\":7391:7394   */\n      0x00\n        /* \"#utility.yul\":7412:7417   */\n      dup2\n        /* \"#utility.yul\":7405:7417   */\n      swap1\n      pop\n        /* \"#utility.yul\":7348:7423   */\n      swap2\n      swap1\n      pop\n      jump\t// out\n        /* \"#utility.yul\":7429:7698   */\n    tag_56:\n        /* \"#utility.yul\":7539:7578   */\n      tag_152\n        /* \"#utility.yul\":7570:7577   */\n      dup4\n        /* \"#utility.yul\":7539:7578   */\n      tag_54\n      jump\t// in\n    tag_152:\n        /* \"#utility.yul\":7600:7691   */\n      tag_153\n        /* \"#utility.yul\":7649:7690   */\n      tag_154\n        /* \"#utility.yul\":7673:7689   */\n      dup3\n        /* \"#utility.yul\":7649:7690   */\n      tag_55\n      jump\t// in\n    tag_154:\n        /* \"#utility.yul\":7641:7647   */\n      dup5\n        /* \"#utility.yul\":7634:7638   */\n      dup5\n        /* \"#utility.yul\":7628:7639   */\n      sload\n        /* \"#utility.yul\":7600:7691   */\n      tag_52\n      jump\t// in\n    tag_153:\n        /* \"#utility.yul\":7594:7598   */\n      dup3\n        /* \"#utility.yul\":7587:7692   */\n      sstore\n        /* \"#utility.yul\":7505:7698   */\n      pop\n        /* \"#utility.yul\":7429:7698   */\n      pop\n      pop\n      pop\n      jump\t// out\n        /* \"#utility.yul\":7704:7777   */\n    tag_57:\n        /* \"#utility.yul\":7749:7752   */\n      0x00\n        /* \"#utility.yul\":7704:7777   */\n      swap1\n      jump\t// out\n        /* \"#utility.yul\":7783:7972   */\n    tag_58:\n        /* \"#utility.yul\":7860:7892   */\n      tag_157\n      tag_57\n      jump\t// in\n    tag_157:\n        /* \"#utility.yul\":7901:7966   */\n      tag_158\n        /* \"#utility.yul\":7959:7965   */\n      dup2\n        /* \"#utility.yul\":7951:7957   */\n      dup5\n        /* \"#utility.yul\":7945:7949   */\n      dup5\n        /* \"#utility.yul\":7901:7966   */\n      tag_56\n      jump\t// in\n    tag_158:\n        /* \"#utility.yul\":7836:7972   */\n      pop\n        /* \"#utility.yul\":7783:7972   */\n      pop\n      pop\n      jump\t// out\n        /* \"#utility.yul\":7978:8164   */\n    tag_59:\n        /* \"#utility.yul\":8038:8158   */\n    tag_160:\n        /* \"#utility.yul\":8055:8058   */\n      dup2\n        /* \"#utility.yul\":8048:8053   */\n      dup2\n        /* \"#utility.yul\":8045:8059   */\n      lt\n        /* \"#utility.yul\":8038:8158   */\n      iszero\n      tag_162\n      jumpi\n        /* \"#utility.yul\":8109:8148   */\n      tag_163\n        /* \"#utility.yul\":8146:8147   */\n      0x00\n        /* \"#utility.yul\":8139:8144   */\n      dup3\n        /* \"#utility.yul\":8109:8148   */\n      tag_58\n      jump\t// in\n    tag_163:\n        /* \"#utility.yul\":8082:8083   */\n      0x01\n        /* \"#utility.yul\":8075:8080   */\n      dup2\n        /* \"#utility.yul\":8071:8084   */\n      add\n        /* \"#utility.yul\":8062:8084   */\n      swap1\n      pop\n        /* \"#utility.yul\":8038:8158   */\n      jump(tag_160)\n    tag_162:\n        /* \"#utility.yul\":7978:8164   */\n      pop\n      pop\n      jump\t// out\n        /* \"#utility.yul\":8170:8713   */\n    tag_60:\n        /* \"#utility.yul\":8271:8273   */\n      0x1f\n        /* \"#utility.yul\":8266:8269   */\n      dup3\n        /* \"#utility.yul\":8263:8274   */\n      gt\n        /* \"#utility.yul\":8260:8706   */\n      iszero\n      tag_165\n      jumpi\n        /* \"#utility.yul\":8305:8343   */\n      tag_166\n        /* \"#utility.yul\":8337:8342   */\n      dup2\n        /* \"#utility.yul\":8305:8343   */\n      tag_49\n      jump\t// in\n    tag_166:\n        /* \"#utility.yul\":8389:8418   */\n      tag_167\n        /* \"#utility.yul\":8407:8417   */\n      dup5\n        /* \"#utility.yul\":8389:8418   */\n      tag_50\n      jump\t// in\n    tag_167:\n        /* \"#utility.yul\":8379:8387   */\n      dup2\n        /* \"#utility.yul\":8375:8419   */\n      add\n        /* \"#utility.yul\":8572:8574   */\n      0x20\n        /* \"#utility.yul\":8560:8570   */\n      dup6\n        /* \"#utility.yul\":8557:8575   */\n      lt\n        /* \"#utility.yul\":8554:8603   */\n      iszero\n      tag_168\n      jumpi\n        /* \"#utility.yul\":8593:8601   */\n      dup2\n        /* \"#utility.yul\":8578:8601   */\n      swap1\n      pop\n        /* \"#utility.yul\":8554:8603   */\n    tag_168:\n        /* \"#utility.yul\":8616:8696   */\n      tag_169\n        /* \"#utility.yul\":8672:8694   */\n      tag_170\n        /* \"#utility.yul\":8690:8693   */\n      dup6\n        /* \"#utility.yul\":8672:8694   */\n      tag_50\n      jump\t// in\n    tag_170:\n        /* \"#utility.yul\":8662:8670   */\n      dup4\n        /* \"#utility.yul\":8658:8695   */\n      add\n        /* \"#utility.yul\":8645:8656   */\n      dup3\n        /* \"#utility.yul\":8616:8696   */\n      tag_59\n      jump\t// in\n    tag_169:\n        /* \"#utility.yul\":8275:8706   */\n      pop\n      pop\n        /* \"#utility.yul\":8260:8706   */\n    tag_165:\n        /* \"#utility.yul\":8170:8713   */\n      pop\n      pop\n      pop\n      jump\t// out\n        /* \"#utility.yul\":8719:8836   */\n    tag_61:\n        /* \"#utility.yul\":8773:8781   */\n      0x00\n        /* \"#utility.yul\":8823:8828   */\n      dup3\n        /* \"#utility.yul\":8817:8821   */\n      dup3\n        /* \"#utility.yul\":8813:8829   */\n      shr\n        /* \"#utility.yul\":8792:8829   */\n      swap1\n      pop\n        /* \"#utility.yul\":8719:8836   */\n      swap3\n      swap2\n      pop\n      pop\n      jump\t// out\n        /* \"#utility.yul\":8842:9011   */\n    tag_62:\n        /* \"#utility.yul\":8886:8892   */\n      0x00\n        /* \"#utility.yul\":8919:8970   */\n      tag_173\n        /* \"#utility.yul\":8967:8968   */\n      0x00\n        /* \"#utility.yul\":8963:8969   */\n      not\n        /* \"#utility.yul\":8955:8960   */\n      dup5\n        /* \"#utility.yul\":8952:8953   */\n      0x08\n        /* \"#utility.yul\":8948:8961   */\n      mul\n        /* \"#utility.yul\":8919:8970   */\n      tag_61\n      jump\t// in\n    tag_173:\n        /* \"#utility.yul\":8915:8971   */\n      not\n        /* \"#utility.yul\":9000:9004   */\n      dup1\n        /* \"#utility.yul\":8994:8998   */\n      dup4\n        /* \"#utility.yul\":8990:9005   */\n      and\n        /* \"#utility.yul\":8980:9005   */\n      swap2\n      pop\n        /* \"#utility.yul\":8893:9011   */\n      pop\n        /* \"#utility.yul\":8842:9011   */\n      swap3\n      swap2\n      pop\n      pop\n      jump\t// out\n        /* \"#utility.yul\":9016:9311   */\n    tag_63:\n        /* \"#utility.yul\":9092:9096   */\n      0x00\n        /* \"#utility.yul\":9238:9267   */\n      tag_175\n        /* \"#utility.yul\":9263:9266   */\n      dup4\n        /* \"#utility.yul\":9257:9261   */\n      dup4\n        /* \"#utility.yul\":9238:9267   */\n      tag_62\n      jump\t// in\n    tag_175:\n        /* \"#utility.yul\":9230:9267   */\n      swap2\n      pop\n        /* \"#utility.yul\":9300:9303   */\n      dup3\n        /* \"#utility.yul\":9297:9298   */\n      0x02\n        /* \"#utility.yul\":9293:9304   */\n      mul\n        /* \"#utility.yul\":9287:9291   */\n      dup3\n        /* \"#utility.yul\":9284:9305   */\n      or\n        /* \"#utility.yul\":9276:9305   */\n      swap1\n      pop\n        /* \"#utility.yul\":9016:9311   */\n      swap3\n      swap2\n      pop\n      pop\n      jump\t// out\n        /* \"#utility.yul\":9316:10711   */\n    tag_23:\n        /* \"#utility.yul\":9433:9470   */\n      tag_177\n        /* \"#utility.yul\":9466:9469   */\n      dup3\n        /* \"#utility.yul\":9433:9470   */\n      tag_30\n      jump\t// in\n    tag_177:\n        /* \"#utility.yul\":9535:9553   */\n      0xffffffffffffffff\n        /* \"#utility.yul\":9527:9533   */\n      dup2\n        /* \"#utility.yul\":9524:9554   */\n      gt\n        /* \"#utility.yul\":9521:9577   */\n      iszero\n      tag_178\n      jumpi\n        /* \"#utility.yul\":9557:9575   */\n      tag_179\n      tag_39\n      jump\t// in\n    tag_179:\n        /* \"#utility.yul\":9521:9577   */\n    tag_178:\n        /* \"#utility.yul\":9601:9639   */\n      tag_180\n        /* \"#utility.yul\":9633:9637   */\n      dup3\n        /* \"#utility.yul\":9627:9638   */\n      sload\n        /* \"#utility.yul\":9601:9639   */\n      tag_16\n      jump\t// in\n    tag_180:\n        /* \"#utility.yul\":9686:9753   */\n      tag_181\n        /* \"#utility.yul\":9746:9752   */\n      dup3\n        /* \"#utility.yul\":9738:9744   */\n      dup3\n        /* \"#utility.yul\":9732:9736   */\n      dup6\n        /* \"#utility.yul\":9686:9753   */\n      tag_60\n      jump\t// in\n    tag_181:\n        /* \"#utility.yul\":9780:9781   */\n      0x00\n        /* \"#utility.yul\":9804:9808   */\n      0x20\n        /* \"#utility.yul\":9791:9808   */\n      swap1\n      pop\n        /* \"#utility.yul\":9836:9838   */\n      0x1f\n        /* \"#utility.yul\":9828:9834   */\n      dup4\n        /* \"#utility.yul\":9825:9839   */\n      gt\n        /* \"#utility.yul\":9853:9854   */\n      0x01\n        /* \"#utility.yul\":9848:10466   */\n      dup2\n      eq\n      tag_183\n      jumpi\n        /* \"#utility.yul\":10510:10511   */\n      0x00\n        /* \"#utility.yul\":10527:10533   */\n      dup5\n        /* \"#utility.yul\":10524:10601   */\n      iszero\n      tag_184\n      jumpi\n        /* \"#utility.yul\":10576:10585   */\n      dup3\n        /* \"#utility.yul\":10571:10574   */\n      dup8\n        /* \"#utility.yul\":10567:10586   */\n      add\n        /* \"#utility.yul\":10561:10587   */\n      mload\n        /* \"#utility.yul\":10552:10587   */\n      swap1\n      pop\n        /* \"#utility.yul\":10524:10601   */\n    tag_184:\n        /* \"#utility.yul\":10627:10694   */\n      tag_185\n        /* \"#utility.yul\":10687:10693   */\n      dup6\n        /* \"#utility.yul\":10680:10685   */\n      dup3\n        /* \"#utility.yul\":10627:10694   */\n      tag_63\n      jump\t// in\n    tag_185:\n        /* \"#utility.yul\":10621:10625   */\n      dup7\n        /* \"#utility.yul\":10614:10695   */\n      sstore\n        /* \"#utility.yul\":10483:10705   */\n      pop\n        /* \"#utility.yul\":9818:10705   */\n      jump(tag_182)\n        /* \"#utility.yul\":9848:10466   */\n    tag_183:\n        /* \"#utility.yul\":9900:9904   */\n      0x1f\n        /* \"#utility.yul\":9896:9905   */\n      not\n        /* \"#utility.yul\":9888:9894   */\n      dup5\n        /* \"#utility.yul\":9884:9906   */\n      and\n        /* \"#utility.yul\":9934:9971   */\n      tag_186\n        /* \"#utility.yul\":9966:9970   */\n      dup7\n        /* \"#utility.yul\":9934:9971   */\n      tag_49\n      jump\t// in\n    tag_186:\n        /* \"#utility.yul\":9993:9994   */\n      0x00\n        /* \"#utility.yul\":10007:10215   */\n    tag_187:\n        /* \"#utility.yul\":10021:10028   */\n      dup3\n        /* \"#utility.yul\":10018:10019   */\n      dup2\n        /* \"#utility.yul\":10015:10029   */\n      lt\n        /* \"#utility.yul\":10007:10215   */\n      iszero\n      tag_189\n      jumpi\n        /* \"#utility.yul\":10100:10109   */\n      dup5\n        /* \"#utility.yul\":10095:10098   */\n      dup10\n        /* \"#utility.yul\":10091:10110   */\n      add\n        /* \"#utility.yul\":10085:10111   */\n      mload\n        /* \"#utility.yul\":10077:10083   */\n      dup3\n        /* \"#utility.yul\":10070:10112   */\n      sstore\n        /* \"#utility.yul\":10151:10152   */\n      0x01\n        /* \"#utility.yul\":10143:10149   */\n      dup3\n        /* \"#utility.yul\":10139:10153   */\n      add\n        /* \"#utility.yul\":10129:10153   */\n      swap2\n      pop\n        /* \"#utility.yul\":10198:10200   */\n      0x20\n        /* \"#utility.yul\":10187:10196   */\n      dup6\n        /* \"#utility.yul\":10183:10201   */\n      add\n        /* \"#utility.yul\":10170:10201   */\n      swap5\n      pop\n        /* \"#utility.yul\":10044:10048   */\n      0x20\n        /* \"#utility.yul\":10041:10042   */\n      dup2\n        /* \"#utility.yul\":10037:10049   */\n      add\n        /* \"#utility.yul\":10032:10049   */\n      swap1\n      pop\n        /* \"#utility.yul\":10007:10215   */\n      jump(tag_187)\n    tag_189:\n        /* \"#utility.yul\":10243:10249   */\n      dup7\n        /* \"#utility.yul\":10234:10241   */\n      dup4\n        /* \"#utility.yul\":10231:10250   */\n      lt\n        /* \"#utility.yul\":10228:10407   */\n      iszero\n      tag_190\n      jumpi\n        /* \"#utility.yul\":10301:10310   */\n      dup5\n        /* \"#utility.yul\":10296:10299   */\n      dup10\n        /* \"#utility.yul\":10292:10311   */\n      add\n        /* \"#utility.yul\":10286:10312   */\n      mload\n        /* \"#utility.yul\":10344:10392   */\n      tag_191\n        /* \"#utility.yul\":10386:10390   */\n      0x1f\n        /* \"#utility.yul\":10378:10384   */\n      dup10\n        /* \"#utility.yul\":10374:10391   */\n      and\n        /* \"#utility.yul\":10363:10372   */\n      dup3\n        /* \"#utility.yul\":10344:10392   */\n      tag_62\n      jump\t// in\n    tag_191:\n        /* \"#utility.yul\":10336:10342   */\n      dup4\n        /* \"#utility.yul\":10329:10393   */\n      sstore\n        /* \"#utility.yul\":10251:10407   */\n      pop\n        /* \"#utility.yul\":10228:10407   */\n    tag_190:\n        /* \"#utility.yul\":10453:10454   */\n      0x01\n        /* \"#utility.yul\":10449:10450   */\n      0x02\n        /* \"#utility.yul\":10441:10447   */\n      dup9\n        /* \"#utility.yul\":10437:10451   */\n      mul\n        /* \"#utility.yul\":10433:10455   */\n      add\n        /* \"#utility.yul\":10427:10431   */\n      dup9\n        /* \"#utility.yul\":10420:10456   */\n      sstore\n        /* \"#utility.yul\":9855:10466   */\n      pop\n      pop\n      pop\n        /* \"#utility.yul\":9818:10705   */\n    tag_182:\n      pop\n        /* \"#utility.yul\":9408:10711   */\n      pop\n      pop\n      pop\n        /* \"#utility.yul\":9316:10711   */\n      pop\n      pop\n      jump\t// out\n\n    auxdata: 0xa264697066735822122063f3c762c424fd5314a5beed8458c48067c810b482b7adb943760c7194e5371e64736f6c63430008140033\n}\n",
				"bytecode": {
					"linkReferences": {},
					"object": "608060405234801561000f575f80fd5b506107758061001d5f395ff3fe608060405234801561000f575f80fd5b5060043610610034575f3560e01c80639d9defb214610038578063bb63d82f14610069575b5f80fd5b610052600480360381019061004d91906101b9565b610085565b604051610060929190610286565b60405180910390f35b610083600480360381019061007e919061040a565b61012a565b005b5f602052805f5260405f205f91509050805f0180546100a3906104a3565b80601f01602080910402602001604051908101604052809291908181526020018280546100cf906104a3565b801561011a5780601f106100f15761010080835404028352916020019161011a565b820191905f5260205f20905b8154815290600101906020018083116100fd57829003601f168201915b5050505050908060010154905082565b6040518060400160405280838152602001828152505f808581526020019081526020015f205f820151815f0190816101629190610670565b5060208201518160010155905050505050565b5f604051905090565b5f80fd5b5f80fd5b5f819050919050565b61019881610186565b81146101a2575f80fd5b50565b5f813590506101b38161018f565b92915050565b5f602082840312156101ce576101cd61017e565b5b5f6101db848285016101a5565b91505092915050565b5f81519050919050565b5f82825260208201905092915050565b5f5b8381101561021b578082015181840152602081019050610200565b5f8484015250505050565b5f601f19601f8301169050919050565b5f610240826101e4565b61024a81856101ee565b935061025a8185602086016101fe565b61026381610226565b840191505092915050565b5f819050919050565b6102808161026e565b82525050565b5f6040820190508181035f83015261029e8185610236565b90506102ad6020830184610277565b9392505050565b5f80fd5b5f80fd5b7f4e487b71000000000000000000000000000000000000000000000000000000005f52604160045260245ffd5b6102f282610226565b810181811067ffffffffffffffff82111715610311576103106102bc565b5b80604052505050565b5f610323610175565b905061032f82826102e9565b919050565b5f67ffffffffffffffff82111561034e5761034d6102bc565b5b61035782610226565b9050602081019050919050565b828183375f83830152505050565b5f61038461037f84610334565b61031a565b9050828152602081018484840111156103a05761039f6102b8565b5b6103ab848285610364565b509392505050565b5f82601f8301126103c7576103c66102b4565b5b81356103d7848260208601610372565b91505092915050565b6103e98161026e565b81146103f3575f80fd5b50565b5f81359050610404816103e0565b92915050565b5f805f606084860312156104215761042061017e565b5b5f61042e868287016101a5565b935050602084013567ffffffffffffffff81111561044f5761044e610182565b5b61045b868287016103b3565b925050604061046c868287016103f6565b9150509250925092565b7f4e487b71000000000000000000000000000000000000000000000000000000005f52602260045260245ffd5b5f60028204905060018216806104ba57607f821691505b6020821081036104cd576104cc610476565b5b50919050565b5f819050815f5260205f209050919050565b5f6020601f8301049050919050565b5f82821b905092915050565b5f6008830261052f7fffffffffffffffffffffffffffffffffffffffffffffffffffffffffffffffff826104f4565b61053986836104f4565b95508019841693508086168417925050509392505050565b5f819050919050565b5f61057461056f61056a8461026e565b610551565b61026e565b9050919050565b5f819050919050565b61058d8361055a565b6105a16105998261057b565b848454610500565b825550505050565b5f90565b6105b56105a9565b6105c0818484610584565b505050565b5b818110156105e3576105d85f826105ad565b6001810190506105c6565b5050565b601f821115610628576105f9816104d3565b610602846104e5565b81016020851015610611578190505b61062561061d856104e5565b8301826105c5565b50505b505050565b5f82821c905092915050565b5f6106485f198460080261062d565b1980831691505092915050565b5f6106608383610639565b9150826002028217905092915050565b610679826101e4565b67ffffffffffffffff811115610692576106916102bc565b5b61069c82546104a3565b6106a78282856105e7565b5f60209050601f8311600181146106d8575f84156106c6578287015190505b6106d08582610655565b865550610737565b601f1984166106e6866104d3565b5f5b8281101561070d578489015182556001820191506020850194506020810190506106e8565b8683101561072a5784890151610726601f891682610639565b8355505b6001600288020188555050505b50505050505056fea264697066735822122063f3c762c424fd5314a5beed8458c48067c810b482b7adb943760c7194e5371e64736f6c63430008140033",
					"opcodes": "PUSH1 0x80 PUSH1 0x40 MSTORE CALLVALUE DUP1 ISZERO PUSH2 0xF JUMPI PUSH0 DUP1 REVERT JUMPDEST POP PUSH2 0x775 DUP1 PUSH2 0x1D PUSH0 CODECOPY PUSH0 RETURN INVALID PUSH1 0x80 PUSH1 0x40 MSTORE CALLVALUE DUP1 ISZERO PUSH2 0xF JUMPI PUSH0 DUP1 REVERT JUMPDEST POP PUSH1 0x4 CALLDATASIZE LT PUSH2 0x34 JUMPI PUSH0 CALLDATALOAD PUSH1 0xE0 SHR DUP1 PUSH4 0x9D9DEFB2 EQ PUSH2 0x38 JUMPI DUP1 PUSH4 0xBB63D82F EQ PUSH2 0x69 JUMPI JUMPDEST PUSH0 DUP1 REVERT JUMPDEST PUSH2 0x52 PUSH1 0x4 DUP1 CALLDATASIZE SUB DUP2 ADD SWAP1 PUSH2 0x4D SWAP2 SWAP1 PUSH2 0x1B9 JUMP JUMPDEST PUSH2 0x85 JUMP JUMPDEST PUSH1 0x40 MLOAD PUSH2 0x60 SWAP3 SWAP2 SWAP1 PUSH2 0x286 JUMP JUMPDEST PUSH1 0x40 MLOAD DUP1 SWAP2 SUB SWAP1 RETURN JUMPDEST PUSH2 0x83 PUSH1 0x4 DUP1 CALLDATASIZE SUB DUP2 ADD SWAP1 PUSH2 0x7E SWAP2 SWAP1 PUSH2 0x40A JUMP JUMPDEST PUSH2 0x12A JUMP JUMPDEST STOP JUMPDEST PUSH0 PUSH1 0x20 MSTORE DUP1 PUSH0 MSTORE PUSH1 0x40 PUSH0 KECCAK256 PUSH0 SWAP2 POP SWAP1 POP DUP1 PUSH0 ADD DUP1 SLOAD PUSH2 0xA3 SWAP1 PUSH2 0x4A3 JUMP JUMPDEST DUP1 PUSH1 0x1F ADD PUSH1 0x20 DUP1 SWAP2 DIV MUL PUSH1 0x20 ADD PUSH1 0x40 MLOAD SWAP1 DUP2 ADD PUSH1 0x40 MSTORE DUP1 SWAP3 SWAP2 SWAP1 DUP2 DUP2 MSTORE PUSH1 0x20 ADD DUP3 DUP1 SLOAD PUSH2 0xCF SWAP1 PUSH2 0x4A3 JUMP JUMPDEST DUP1 ISZERO PUSH2 0x11A JUMPI DUP1 PUSH1 0x1F LT PUSH2 0xF1 JUMPI PUSH2 0x100 DUP1 DUP4 SLOAD DIV MUL DUP4 MSTORE SWAP2 PUSH1 0x20 ADD SWAP2 PUSH2 0x11A JUMP JUMPDEST DUP3 ADD SWAP2 SWAP1 PUSH0 MSTORE PUSH1 0x20 PUSH0 KECCAK256 SWAP1 JUMPDEST DUP2 SLOAD DUP2 MSTORE SWAP1 PUSH1 0x1 ADD SWAP1 PUSH1 0x20 ADD DUP1 DUP4 GT PUSH2 0xFD JUMPI DUP3 SWAP1 SUB PUSH1 0x1F AND DUP3 ADD SWAP2 JUMPDEST POP POP POP POP POP SWAP1 DUP1 PUSH1 0x1 ADD SLOAD SWAP1 POP DUP3 JUMP JUMPDEST PUSH1 0x40 MLOAD DUP1 PUSH1 0x40 ADD PUSH1 0x40 MSTORE DUP1 DUP4 DUP2 MSTORE PUSH1 0x20 ADD DUP3 DUP2 MSTORE POP PUSH0 DUP1 DUP6 DUP2 MSTORE PUSH1 0x20 ADD SWAP1 DUP2 MSTORE PUSH1 0x20 ADD PUSH0 KECCAK256 PUSH0 DUP3 ADD MLOAD DUP2 PUSH0 ADD SWAP1 DUP2 PUSH2 0x162 SWAP2 SWAP1 PUSH2 0x670 JUMP JUMPDEST POP PUSH1 0x20 DUP3 ADD MLOAD DUP2 PUSH1 0x1 ADD SSTORE SWAP1 POP POP POP POP POP JUMP JUMPDEST PUSH0 PUSH1 0x40 MLOAD SWAP1 POP SWAP1 JUMP JUMPDEST PUSH0 DUP1 REVERT JUMPDEST PUSH0 DUP1 REVERT JUMPDEST PUSH0 DUP2 SWAP1 POP SWAP2 SWAP1 POP JUMP JUMPDEST PUSH2 0x198 DUP2 PUSH2 0x186 JUMP JUMPDEST DUP2 EQ PUSH2 0x1A2 JUMPI PUSH0 DUP1 REVERT JUMPDEST POP JUMP JUMPDEST PUSH0 DUP2 CALLDATALOAD SWAP1 POP PUSH2 0x1B3 DUP2 PUSH2 0x18F JUMP JUMPDEST SWAP3 SWAP2 POP POP JUMP JUMPDEST PUSH0 PUSH1 0x20 DUP3 DUP5 SUB SLT ISZERO PUSH2 0x1CE JUMPI PUSH2 0x1CD PUSH2 0x17E JUMP JUMPDEST JUMPDEST PUSH0 PUSH2 0x1DB DUP5 DUP3 DUP6 ADD PUSH2 0x1A5 JUMP JUMPDEST SWAP2 POP POP SWAP3 SWAP2 POP POP JUMP JUMPDEST PUSH0 DUP2 MLOAD SWAP1 POP SWAP2 SWAP1 POP JUMP JUMPDEST PUSH0 DUP3 DUP3 MSTORE PUSH1 0x20 DUP3 ADD SWAP1 POP SWAP3 SWAP2 POP POP JUMP JUMPDEST PUSH0 JUMPDEST DUP4 DUP2 LT ISZERO PUSH2 0x21B JUMPI DUP1 DUP3 ADD MLOAD DUP2 DUP5 ADD MSTORE PUSH1 0x20 DUP2 ADD SWAP1 POP PUSH2 0x200 JUMP JUMPDEST PUSH0 DUP5 DUP5 ADD MSTORE POP POP POP POP JUMP JUMPDEST PUSH0 PUSH1 0x1F NOT PUSH1 0x1F DUP4 ADD AND SWAP1 POP SWAP2 SWAP1 POP JUMP JUMPDEST PUSH0 PUSH2 0x240 DUP3 PUSH2 0x1E4 JUMP JUMPDEST PUSH2 0x24A DUP2 DUP6 PUSH2 0x1EE JUMP JUMPDEST SWAP4 POP PUSH2 0x25A DUP2 DUP6 PUSH1 0x20 DUP7 ADD PUSH2 0x1FE JUMP JUMPDEST PUSH2 0x263 DUP2 PUSH2 0x226 JUMP JUMPDEST DUP5 ADD SWAP2 POP POP SWAP3 SWAP2 POP POP JUMP JUMPDEST PUSH0 DUP2 SWAP1 POP SWAP2 SWAP1 POP JUMP JUMPDEST PUSH2 0x280 DUP2 PUSH2 0x26E JUMP JUMPDEST DUP3 MSTORE POP POP JUMP JUMPDEST PUSH0 PUSH1 0x40 DUP3 ADD SWAP1 POP DUP2 DUP2 SUB PUSH0 DUP4 ADD MSTORE PUSH2 0x29E DUP2 DUP6 PUSH2 0x236 JUMP JUMPDEST SWAP1 POP PUSH2 0x2AD PUSH1 0x20 DUP4 ADD DUP5 PUSH2 0x277 JUMP JUMPDEST SWAP4 SWAP3 POP POP POP JUMP JUMPDEST PUSH0 DUP1 REVERT JUMPDEST PUSH0 DUP1 REVERT JUMPDEST PUSH32 0x4E487B7100000000000000000000000000000000000000000000000000000000 PUSH0 MSTORE PUSH1 0x41 PUSH1 0x4 MSTORE PUSH1 0x24 PUSH0 REVERT JUMPDEST PUSH2 0x2F2 DUP3 PUSH2 0x226 JUMP JUMPDEST DUP2 ADD DUP2 DUP2 LT PUSH8 0xFFFFFFFFFFFFFFFF DUP3 GT OR ISZERO PUSH2 0x311 JUMPI PUSH2 0x310 PUSH2 0x2BC JUMP JUMPDEST JUMPDEST DUP1 PUSH1 0x40 MSTORE POP POP POP JUMP JUMPDEST PUSH0 PUSH2 0x323 PUSH2 0x175 JUMP JUMPDEST SWAP1 POP PUSH2 0x32F DUP3 DUP3 PUSH2 0x2E9 JUMP JUMPDEST SWAP2 SWAP1 POP JUMP JUMPDEST PUSH0 PUSH8 0xFFFFFFFFFFFFFFFF DUP3 GT ISZERO PUSH2 0x34E JUMPI PUSH2 0x34D PUSH2 0x2BC JUMP JUMPDEST JUMPDEST PUSH2 0x357 DUP3 PUSH2 0x226 JUMP JUMPDEST SWAP1 POP PUSH1 0x20 DUP2 ADD SWAP1 POP SWAP2 SWAP1 POP JUMP JUMPDEST DUP3 DUP2 DUP4 CALLDATACOPY PUSH0 DUP4 DUP4 ADD MSTORE POP POP POP JUMP JUMPDEST PUSH0 PUSH2 0x384 PUSH2 0x37F DUP5 PUSH2 0x334 JUMP JUMPDEST PUSH2 0x31A JUMP JUMPDEST SWAP1 POP DUP3 DUP2 MSTORE PUSH1 0x20 DUP2 ADD DUP5 DUP5 DUP5 ADD GT ISZERO PUSH2 0x3A0 JUMPI PUSH2 0x39F PUSH2 0x2B8 JUMP JUMPDEST JUMPDEST PUSH2 0x3AB DUP5 DUP3 DUP6 PUSH2 0x364 JUMP JUMPDEST POP SWAP4 SWAP3 POP POP POP JUMP JUMPDEST PUSH0 DUP3 PUSH1 0x1F DUP4 ADD SLT PUSH2 0x3C7 JUMPI PUSH2 0x3C6 PUSH2 0x2B4 JUMP JUMPDEST JUMPDEST DUP2 CALLDATALOAD PUSH2 0x3D7 DUP5 DUP3 PUSH1 0x20 DUP7 ADD PUSH2 0x372 JUMP JUMPDEST SWAP2 POP POP SWAP3 SWAP2 POP POP JUMP JUMPDEST PUSH2 0x3E9 DUP2 PUSH2 0x26E JUMP JUMPDEST DUP2 EQ PUSH2 0x3F3 JUMPI PUSH0 DUP1 REVERT JUMPDEST POP JUMP JUMPDEST PUSH0 DUP2 CALLDATALOAD SWAP1 POP PUSH2 0x404 DUP2 PUSH2 0x3E0 JUMP JUMPDEST SWAP3 SWAP2 POP POP JUMP JUMPDEST PUSH0 DUP1 PUSH0 PUSH1 0x60 DUP5 DUP7 SUB SLT ISZERO PUSH2 0x421 JUMPI PUSH2 0x420 PUSH2 0x17E JUMP JUMPDEST JUMPDEST PUSH0 PUSH2 0x42E DUP7 DUP3 DUP8 ADD PUSH2 0x1A5 JUMP JUMPDEST SWAP4 POP POP PUSH1 0x20 DUP5 ADD CALLDATALOAD PUSH8 0xFFFFFFFFFFFFFFFF DUP2 GT ISZERO PUSH2 0x44F JUMPI PUSH2 0x44E PUSH2 0x182 JUMP JUMPDEST JUMPDEST PUSH2 0x45B DUP7 DUP3 DUP8 ADD PUSH2 0x3B3 JUMP JUMPDEST SWAP3 POP POP PUSH1 0x40 PUSH2 0x46C DUP7 DUP3 DUP8 ADD PUSH2 0x3F6 JUMP JUMPDEST SWAP2 POP POP SWAP3 POP SWAP3 POP SWAP3 JUMP JUMPDEST PUSH32 0x4E487B7100000000000000000000000000000000000000000000000000000000 PUSH0 MSTORE PUSH1 0x22 PUSH1 0x4 MSTORE PUSH1 0x24 PUSH0 REVERT JUMPDEST PUSH0 PUSH1 0x2 DUP3 DIV SWAP1 POP PUSH1 0x1 DUP3 AND DUP1 PUSH2 0x4BA JUMPI PUSH1 0x7F DUP3 AND SWAP2 POP JUMPDEST PUSH1 0x20 DUP3 LT DUP2 SUB PUSH2 0x4CD JUMPI PUSH2 0x4CC PUSH2 0x476 JUMP JUMPDEST JUMPDEST POP SWAP2 SWAP1 POP JUMP JUMPDEST PUSH0 DUP2 SWAP1 POP DUP2 PUSH0 MSTORE PUSH1 0x20 PUSH0 KECCAK256 SWAP1 POP SWAP2 SWAP1 POP JUMP JUMPDEST PUSH0 PUSH1 0x20 PUSH1 0x1F DUP4 ADD DIV SWAP1 POP SWAP2 SWAP1 POP JUMP JUMPDEST PUSH0 DUP3 DUP3 SHL SWAP1 POP SWAP3 SWAP2 POP POP JUMP JUMPDEST PUSH0 PUSH1 0x8 DUP4 MUL PUSH2 0x52F PUSH32 0xFFFFFFFFFFFFFFFFFFFFFFFFFFFFFFFFFFFFFFFFFFFFFFFFFFFFFFFFFFFFFFFF DUP3 PUSH2 0x4F4 JUMP JUMPDEST PUSH2 0x539 DUP7 DUP4 PUSH2 0x4F4 JUMP JUMPDEST SWAP6 POP DUP1 NOT DUP5 AND SWAP4 POP DUP1 DUP7 AND DUP5 OR SWAP3 POP POP POP SWAP4 SWAP3 POP POP POP JUMP JUMPDEST PUSH0 DUP2 SWAP1 POP SWAP2 SWAP1 POP JUMP JUMPDEST PUSH0 PUSH2 0x574 PUSH2 0x56F PUSH2 0x56A DUP5 PUSH2 0x26E JUMP JUMPDEST PUSH2 0x551 JUMP JUMPDEST PUSH2 0x26E JUMP JUMPDEST SWAP1 POP SWAP2 SWAP1 POP JUMP JUMPDEST PUSH0 DUP2 SWAP1 POP SWAP2 SWAP1 POP JUMP JUMPDEST PUSH2 0x58D DUP4 PUSH2 0x55A JUMP JUMPDEST PUSH2 0x5A1 PUSH2 0x599 DUP3 PUSH2 0x57B JUMP JUMPDEST DUP5 DUP5 SLOAD PUSH2 0x500 JUMP JUMPDEST DUP3 SSTORE POP POP POP POP JUMP JUMPDEST PUSH0 SWAP1 JUMP JUMPDEST PUSH2 0x5B5 PUSH2 0x5A9 JUMP JUMPDEST PUSH2 0x5C0 DUP2 DUP5 DUP5 PUSH2 0x584 JUMP JUMPDEST POP POP POP JUMP JUMPDEST JUMPDEST DUP2 DUP2 LT ISZERO PUSH2 0x5E3 JUMPI PUSH2 0x5D8 PUSH0 DUP3 PUSH2 0x5AD JUMP JUMPDEST PUSH1 0x1 DUP2 ADD SWAP1 POP PUSH2 0x5C6 JUMP JUMPDEST POP POP JUMP JUMPDEST PUSH1 0x1F DUP3 GT ISZERO PUSH2 0x628 JUMPI PUSH2 0x5F9 DUP2 PUSH2 0x4D3 JUMP JUMPDEST PUSH2 0x602 DUP5 PUSH2 0x4E5 JUMP JUMPDEST DUP2 ADD PUSH1 0x20 DUP6 LT ISZERO PUSH2 0x611 JUMPI DUP2 SWAP1 POP JUMPDEST PUSH2 0x625 PUSH2 0x61D DUP6 PUSH2 0x4E5 JUMP JUMPDEST DUP4 ADD DUP3 PUSH2 0x5C5 JUMP JUMPDEST POP POP JUMPDEST POP POP POP JUMP JUMPDEST PUSH0 DUP3 DUP3 SHR SWAP1 POP SWAP3 SWAP2 POP POP JUMP JUMPDEST PUSH0 PUSH2 0x648 PUSH0 NOT DUP5 PUSH1 0x8 MUL PUSH2 0x62D JUMP JUMPDEST NOT DUP1 DUP4 AND SWAP2 POP POP SWAP3 SWAP2 POP POP JUMP JUMPDEST PUSH0 PUSH2 0x660 DUP4 DUP4 PUSH2 0x639 JUMP JUMPDEST SWAP2 POP DUP3 PUSH1 0x2 MUL DUP3 OR SWAP1 POP SWAP3 SWAP2 POP POP JUMP JUMPDEST PUSH2 0x679 DUP3 PUSH2 0x1E4 JUMP JUMPDEST PUSH8 0xFFFFFFFFFFFFFFFF DUP2 GT ISZERO PUSH2 0x692 JUMPI PUSH2 0x691 PUSH2 0x2BC JUMP JUMPDEST JUMPDEST PUSH2 0x69C DUP3 SLOAD PUSH2 0x4A3 JUMP JUMPDEST PUSH2 0x6A7 DUP3 DUP3 DUP6 PUSH2 0x5E7 JUMP JUMPDEST PUSH0 PUSH1 0x20 SWAP1 POP PUSH1 0x1F DUP4 GT PUSH1 0x1 DUP2 EQ PUSH2 0x6D8 JUMPI PUSH0 DUP5 ISZERO PUSH2 0x6C6 JUMPI DUP3 DUP8 ADD MLOAD SWAP1 POP JUMPDEST PUSH2 0x6D0 DUP6 DUP3 PUSH2 0x655 JUMP JUMPDEST DUP7 SSTORE POP PUSH2 0x737 JUMP JUMPDEST PUSH1 0x1F NOT DUP5 AND PUSH2 0x6E6 DUP7 PUSH2 0x4D3 JUMP JUMPDEST PUSH0 JUMPDEST DUP3 DUP2 LT ISZERO PUSH2 0x70D JUMPI DUP5 DUP10 ADD MLOAD DUP3 SSTORE PUSH1 0x1 DUP3 ADD SWAP2 POP PUSH1 0x20 DUP6 ADD SWAP5 POP PUSH1 0x20 DUP2 ADD SWAP1 POP PUSH2 0x6E8 JUMP JUMPDEST DUP7 DUP4 LT ISZERO PUSH2 0x72A JUMPI DUP5 DUP10 ADD MLOAD PUSH2 0x726 PUSH1 0x1F DUP10 AND DUP3 PUSH2 0x639 JUMP JUMPDEST DUP4 SSTORE POP JUMPDEST PUSH1 0x1 PUSH1 0x2 DUP9 MUL ADD DUP9 SSTORE POP POP POP JUMPDEST POP POP POP POP POP POP JUMP INVALID LOG2 PUSH5 0x6970667358 0x22 SLT KECCAK256 PUSH4 0xF3C762C4 0x24 REVERT MSTORE8 EQ 0xA5 0xBE 0xED DUP5 PC 0xC4 DUP1 PUSH8 0xC810B482B7ADB943 PUSH23 0xC7194E5371E64736F6C63430008140033000000000000 "
				},
				"gasEstimates": {
					"creation": {
						"codeDepositCost": "381800",
						"executionCost": "416",
						"totalCost": "382216"
					},
					"external": {
						"myMap(int256)": "infinite",
						"setter(int256,string,uint256)": "infinite"
					}
				},
				"methodIdentifiers": {
					"myMap(int256)": "9d9defb2",
					"setter(int256,string,uint256)": "bb63d82f"
				}
			},
			"storageLayout": {
				"storage": [
					{
						"astId": 11,
						"contract": "mapStruct.sol:map",
						"label": "myMap",
						"offset": 0,
						"slot": "0",
						"type": "t_mapping(t_int256,t_struct(Student)6_storage)"
					}
				],
				"types": {
					"t_int256": {
						"encoding": "inplace",
						"label": "int256",
						"numberOfBytes": "32"
					},
					"t_mapping(t_int256,t_struct(Student)6_storage)": {
						"encoding": "mapping",
						"key": "t_int256",
						"label": "mapping(int256 => struct map.Student)",
						"numberOfBytes": "32",
						"value": "t_struct(Student)6_storage"
					},
					"t_string_storage": {
						"encoding": "bytes",
						"label": "string",
						"numberOfBytes": "32"
					},
					"t_struct(Student)6_storage": {
						"encoding": "inplace",
						"label": "struct map.Student",
						"members": [
							{
								"astId": 3,
								"contract": "mapStruct.sol:map",
								"label": "name",
								"offset": 0,
								"slot": "0",
								"type": "t_string_storage"
							},
							{
								"astId": 5,
								"contract": "mapStruct.sol:map",
								"label": "class",
								"offset": 0,
								"slot": "1",
								"type": "t_uint256"
							}
						],
						"numberOfBytes": "64"
					},
					"t_uint256": {
						"encoding": "inplace",
						"label": "uint256",
						"numberOfBytes": "32"
					}
				}
			},
			"userdoc": {
				"kind": "user",
				"methods": {},
				"version": 1
			}
		}
	}
}