{
	"RentalAggrement.sol": {
		"Aggrement": {
			"abi": [
				{
					"inputs": [],
					"stateMutability": "nonpayable",
					"type": "constructor"
				},
				{
					"anonymous": false,
					"inputs": [
						{
							"indexed": false,
							"internalType": "string",
							"name": "",
							"type": "string"
						}
					],
					"name": "Trigger",
					"type": "event"
				},
				{
					"anonymous": false,
					"inputs": [
						{
							"indexed": false,
							"internalType": "string",
							"name": "",
							"type": "string"
						}
					],
					"name": "sayThankYou",
					"type": "event"
				},
				{
					"inputs": [],
					"name": "Leave",
					"outputs": [
						{
							"internalType": "bool",
							"name": "",
							"type": "bool"
						}
					],
					"stateMutability": "nonpayable",
					"type": "function"
				},
				{
					"inputs": [
						{
							"internalType": "string",
							"name": "name",
							"type": "string"
						},
						{
							"internalType": "uint256",
							"name": "aadhar",
							"type": "uint256"
						},
						{
							"internalType": "uint256",
							"name": "roomNumber",
							"type": "uint256"
						}
					],
					"name": "Registration",
					"outputs": [
						{
							"internalType": "bool",
							"name": "",
							"type": "bool"
						}
					],
					"stateMutability": "nonpayable",
					"type": "function"
				},
				{
					"inputs": [
						{
							"internalType": "uint256",
							"name": "",
							"type": "uint256"
						}
					],
					"name": "RoomsState",
					"outputs": [
						{
							"internalType": "bool",
							"name": "",
							"type": "bool"
						}
					],
					"stateMutability": "view",
					"type": "function"
				},
				{
					"inputs": [],
					"name": "TakeFare",
					"outputs": [
						{
							"internalType": "bool",
							"name": "",
							"type": "bool"
						}
					],
					"stateMutability": "nonpayable",
					"type": "function"
				},
				{
					"inputs": [
						{
							"internalType": "uint256",
							"name": "",
							"type": "uint256"
						}
					],
					"name": "Tenants",
					"outputs": [
						{
							"internalType": "address",
							"name": "",
							"type": "address"
						}
					],
					"stateMutability": "view",
					"type": "function"
				},
				{
					"inputs": [],
					"name": "availableRooms",
					"outputs": [
						{
							"internalType": "uint256[]",
							"name": "",
							"type": "uint256[]"
						}
					],
					"stateMutability": "view",
					"type": "function"
				},
				{
					"inputs": [
						{
							"internalType": "uint256",
							"name": "amount",
							"type": "uint256"
						}
					],
					"name": "changeDeposite",
					"outputs": [
						{
							"internalType": "bool",
							"name": "",
							"type": "bool"
						}
					],
					"stateMutability": "nonpayable",
					"type": "function"
				},
				{
					"inputs": [
						{
							"internalType": "uint256",
							"name": "amount",
							"type": "uint256"
						}
					],
					"name": "changeRent",
					"outputs": [
						{
							"internalType": "bool",
							"name": "",
							"type": "bool"
						}
					],
					"stateMutability": "nonpayable",
					"type": "function"
				},
				{
					"inputs": [],
					"name": "creatingNewRoom",
					"outputs": [
						{
							"internalType": "bool",
							"name": "",
							"type": "bool"
						}
					],
					"stateMutability": "nonpayable",
					"type": "function"
				},
				{
					"inputs": [],
					"name": "depositFee",
					"outputs": [
						{
							"internalType": "uint256",
							"name": "",
							"type": "uint256"
						}
					],
					"stateMutability": "view",
					"type": "function"
				},
				{
					"inputs": [],
					"name": "monthlyFee",
					"outputs": [
						{
							"internalType": "uint256",
							"name": "",
							"type": "uint256"
						}
					],
					"stateMutability": "view",
					"type": "function"
				},
				{
					"inputs": [],
					"name": "totalRoomsAvailable",
					"outputs": [
						{
							"internalType": "uint256",
							"name": "",
							"type": "uint256"
						}
					],
					"stateMutability": "view",
					"type": "function"
				}
			],
			"devdoc": {
				"kind": "dev",
				"methods": {},
				"version": 1
			},
			"evm": {
				"assembly": "    /* \"RentalAggrement.sol\":209:4637  contract Aggrement{... */\n  mstore(0x40, 0x80)\n    /* \"RentalAggrement.sol\":249:251  10 */\n  0x0a\n    /* \"RentalAggrement.sol\":233:251  uint capacity = 10 */\n  0x00\n  sstore\n    /* \"RentalAggrement.sol\":291:293  10 */\n  0x0a\n    /* \"RentalAggrement.sol\":257:293  uint public totalRoomsAvailable = 10 */\n  0x01\n  sstore\n    /* \"RentalAggrement.sol\":673:881  constructor(){... */\n  callvalue\n  dup1\n  iszero\n  tag_1\n  jumpi\n  0x00\n  dup1\n  revert\ntag_1:\n  pop\n    /* \"RentalAggrement.sol\":704:714  msg.sender */\n  caller\n    /* \"RentalAggrement.sol\":696:701  owner */\n  0x04\n  0x00\n    /* \"RentalAggrement.sol\":696:714  owner = msg.sender */\n  0x0100\n  exp\n  dup2\n  sload\n  dup2\n  0xffffffffffffffffffffffffffffffffffffffff\n  mul\n  not\n  and\n  swap1\n  dup4\n  0xffffffffffffffffffffffffffffffffffffffff\n  and\n  mul\n  or\n  swap1\n  sstore\n  pop\n    /* \"RentalAggrement.sol\":746:765  totalRoomsAvailable */\n  sload(0x01)\n    /* \"RentalAggrement.sol\":732:766  new address[](totalRoomsAvailable) */\n  0xffffffffffffffff\n  dup2\n  gt\n  iszero\n  tag_4\n  jumpi\n  tag_5\n  tag_6\n  jump\t// in\ntag_5:\ntag_4:\n  mload(0x40)\n  swap1\n  dup1\n  dup3\n  mstore\n  dup1\n  0x20\n  mul\n  0x20\n  add\n  dup3\n  add\n  0x40\n  mstore\n  dup1\n  iszero\n  tag_7\n  jumpi\n  dup2\n  0x20\n  add\n  0x20\n  dup3\n  mul\n  dup1\n  calldatasize\n  dup4\n  calldatacopy\n  dup1\n  dup3\n  add\n  swap2\n  pop\n  pop\n  swap1\n  pop\ntag_7:\n  pop\n    /* \"RentalAggrement.sol\":724:729  Rooms */\n  0x02\n    /* \"RentalAggrement.sol\":724:766  Rooms = new address[](totalRoomsAvailable) */\n  swap1\n  dup1\n  mload\n  swap1\n  0x20\n  add\n  swap1\n  tag_8\n  swap3\n  swap2\n  swap1\n  tag_9\n  jump\t// in\ntag_8:\n  pop\n    /* \"RentalAggrement.sol\":800:819  totalRoomsAvailable */\n  sload(0x01)\n    /* \"RentalAggrement.sol\":789:820  new bool[](totalRoomsAvailable) */\n  0xffffffffffffffff\n  dup2\n  gt\n  iszero\n  tag_10\n  jumpi\n  tag_11\n  tag_6\n  jump\t// in\ntag_11:\ntag_10:\n  mload(0x40)\n  swap1\n  dup1\n  dup3\n  mstore\n  dup1\n  0x20\n  mul\n  0x20\n  add\n  dup3\n  add\n  0x40\n  mstore\n  dup1\n  iszero\n  tag_12\n  jumpi\n  dup2\n  0x20\n  add\n  0x20\n  dup3\n  mul\n  dup1\n  calldatasize\n  dup4\n  calldatacopy\n  dup1\n  dup3\n  add\n  swap2\n  pop\n  pop\n  swap1\n  pop\ntag_12:\n  pop\n    /* \"RentalAggrement.sol\":776:786  RoomsState */\n  0x03\n    /* \"RentalAggrement.sol\":776:820  RoomsState = new bool[](totalRoomsAvailable) */\n  swap1\n  dup1\n  mload\n  swap1\n  0x20\n  add\n  swap1\n  tag_13\n  swap3\n  swap2\n  swap1\n  tag_14\n  jump\t// in\ntag_13:\n  pop\n    /* \"RentalAggrement.sol\":843:847  9000 */\n  0x2328\n    /* \"RentalAggrement.sol\":830:840  depositFee */\n  0x05\n    /* \"RentalAggrement.sol\":830:847  depositFee = 9000 */\n  dup2\n  swap1\n  sstore\n  pop\n    /* \"RentalAggrement.sol\":870:874  9000 */\n  0x2328\n    /* \"RentalAggrement.sol\":857:867  monthlyFee */\n  0x06\n    /* \"RentalAggrement.sol\":857:874  monthlyFee = 9000 */\n  dup2\n  swap1\n  sstore\n  pop\n    /* \"RentalAggrement.sol\":209:4637  contract Aggrement{... */\n  jump(tag_15)\ntag_9:\n  dup3\n  dup1\n  sload\n  dup3\n  dup3\n  sstore\n  swap1\n  0x00\n  mstore\n  keccak256(0x00, 0x20)\n  swap1\n  dup2\n  add\n  swap3\n  dup3\n  iszero\n  tag_16\n  jumpi\n  swap2\n  0x20\n  mul\n  dup3\n  add\ntag_17:\n  dup3\n  dup2\n  gt\n  iszero\n  tag_18\n  jumpi\n  dup3\n  mload\n  dup3\n  exp(0x0100, 0x00)\n  dup2\n  sload\n  dup2\n  0xffffffffffffffffffffffffffffffffffffffff\n  mul\n  not\n  and\n  swap1\n  dup4\n  0xffffffffffffffffffffffffffffffffffffffff\n  and\n  mul\n  or\n  swap1\n  sstore\n  pop\n  swap2\n  0x20\n  add\n  swap2\n  swap1\n  0x01\n  add\n  swap1\n  jump(tag_17)\ntag_18:\ntag_16:\n  pop\n  swap1\n  pop\n  tag_19\n  swap2\n  swap1\n  tag_20\n  jump\t// in\ntag_19:\n  pop\n  swap1\n  jump\t// out\ntag_14:\n  dup3\n  dup1\n  sload\n  dup3\n  dup3\n  sstore\n  swap1\n  0x00\n  mstore\n  keccak256(0x00, 0x20)\n  swap1\n  0x1f\n  add\n  0x20\n  swap1\n  div\n  dup2\n  add\n  swap3\n  dup3\n  iszero\n  tag_21\n  jumpi\n  swap2\n  0x20\n  mul\n  dup3\n  add\n  0x00\ntag_22:\n  dup4\n  dup3\n  gt\n  iszero\n  tag_23\n  jumpi\n  dup4\n  mload\n  dup4\n  dup3\n  0x0100\n  exp\n  dup2\n  sload\n  dup2\n  0xff\n  mul\n  not\n  and\n  swap1\n  dup4\n  iszero\n  iszero\n  mul\n  or\n  swap1\n  sstore\n  pop\n  swap3\n  0x20\n  add\n  swap3\n  0x01\n  add\n  0x20\n  dup2\n  0x00\n  add\n  div\n  swap3\n  dup4\n  add\n  swap3\n  0x01\n  sub\n  mul\n  jump(tag_22)\ntag_23:\n  dup1\n  iszero\n  tag_24\n  jumpi\n  dup3\n  dup2\n  0x0100\n  exp\n  dup2\n  sload\n  swap1\n  0xff\n  mul\n  not\n  and\n  swap1\n  sstore\n  0x01\n  add\n  0x20\n  dup2\n  0x00\n  add\n  div\n  swap3\n  dup4\n  add\n  swap3\n  0x01\n  sub\n  mul\n  jump(tag_23)\ntag_24:\n  pop\ntag_21:\n  pop\n  swap1\n  pop\n  tag_25\n  swap2\n  swap1\n  tag_20\n  jump\t// in\ntag_25:\n  pop\n  swap1\n  jump\t// out\ntag_20:\ntag_26:\n  dup1\n  dup3\n  gt\n  iszero\n  tag_27\n  jumpi\n  0x00\n  dup2\n  0x00\n  swap1\n  sstore\n  pop\n  0x01\n  add\n  jump(tag_26)\ntag_27:\n  pop\n  swap1\n  jump\t// out\n    /* \"#utility.yul\":7:187   */\ntag_6:\n    /* \"#utility.yul\":55:132   */\n  0x4e487b7100000000000000000000000000000000000000000000000000000000\n    /* \"#utility.yul\":52:53   */\n  0x00\n    /* \"#utility.yul\":45:133   */\n  mstore\n    /* \"#utility.yul\":152:156   */\n  0x41\n    /* \"#utility.yul\":149:150   */\n  0x04\n    /* \"#utility.yul\":142:157   */\n  mstore\n    /* \"#utility.yul\":176:180   */\n  0x24\n    /* \"#utility.yul\":173:174   */\n  0x00\n    /* \"#utility.yul\":166:181   */\n  revert\n    /* \"RentalAggrement.sol\":209:4637  contract Aggrement{... */\ntag_15:\n  dataSize(sub_0)\n  dup1\n  dataOffset(sub_0)\n  0x00\n  codecopy\n  0x00\n  return\nstop\n\nsub_0: assembly {\n        /* \"RentalAggrement.sol\":209:4637  contract Aggrement{... */\n      mstore(0x40, 0x80)\n      callvalue\n      dup1\n      iszero\n      tag_1\n      jumpi\n      0x00\n      dup1\n      revert\n    tag_1:\n      pop\n      jumpi(tag_2, lt(calldatasize, 0x04))\n      shr(0xe0, calldataload(0x00))\n      dup1\n      0x8cfd3e40\n      gt\n      tag_15\n      jumpi\n      dup1\n      0x8cfd3e40\n      eq\n      tag_9\n      jumpi\n      dup1\n      0xac8f5ead\n      eq\n      tag_10\n      jumpi\n      dup1\n      0xae3c0176\n      eq\n      tag_11\n      jumpi\n      dup1\n      0xb2ae388a\n      eq\n      tag_12\n      jumpi\n      dup1\n      0xdd7ef706\n      eq\n      tag_13\n      jumpi\n      dup1\n      0xef2ae960\n      eq\n      tag_14\n      jumpi\n      jump(tag_2)\n    tag_15:\n      dup1\n      0x294c6082\n      eq\n      tag_3\n      jumpi\n      dup1\n      0x441f91d9\n      eq\n      tag_4\n      jumpi\n      dup1\n      0x4c5869f6\n      eq\n      tag_5\n      jumpi\n      dup1\n      0x54db01b7\n      eq\n      tag_6\n      jumpi\n      dup1\n      0x67a52793\n      eq\n      tag_7\n      jumpi\n      dup1\n      0x7d0d3c6d\n      eq\n      tag_8\n      jumpi\n    tag_2:\n      0x00\n      dup1\n      revert\n        /* \"RentalAggrement.sol\":914:2109  function Registration(string memory name,uint aadhar,uint roomNumber) public returns(bool){... */\n    tag_3:\n      tag_16\n      0x04\n      dup1\n      calldatasize\n      sub\n      dup2\n      add\n      swap1\n      tag_17\n      swap2\n      swap1\n      tag_18\n      jump\t// in\n    tag_17:\n      tag_19\n      jump\t// in\n    tag_16:\n      mload(0x40)\n      tag_20\n      swap2\n      swap1\n      tag_21\n      jump\t// in\n    tag_20:\n      mload(0x40)\n      dup1\n      swap2\n      sub\n      swap1\n      return\n        /* \"RentalAggrement.sol\":471:495  address[] public Tenants */\n    tag_4:\n      tag_22\n      0x04\n      dup1\n      calldatasize\n      sub\n      dup2\n      add\n      swap1\n      tag_23\n      swap2\n      swap1\n      tag_24\n      jump\t// in\n    tag_23:\n      tag_25\n      jump\t// in\n    tag_22:\n      mload(0x40)\n      tag_26\n      swap2\n      swap1\n      tag_27\n      jump\t// in\n    tag_26:\n      mload(0x40)\n      dup1\n      swap2\n      sub\n      swap1\n      return\n        /* \"RentalAggrement.sol\":4573:4635  function TakeFare() public returns(bool){... */\n    tag_5:\n      tag_28\n      tag_29\n      jump\t// in\n    tag_28:\n      mload(0x40)\n      tag_30\n      swap2\n      swap1\n      tag_21\n      jump\t// in\n    tag_30:\n      mload(0x40)\n      dup1\n      swap2\n      sub\n      swap1\n      return\n        /* \"RentalAggrement.sol\":4047:4276  function changeDeposite(uint amount) public returns(bool){... */\n    tag_6:\n      tag_31\n      0x04\n      dup1\n      calldatasize\n      sub\n      dup2\n      add\n      swap1\n      tag_32\n      swap2\n      swap1\n      tag_24\n      jump\t// in\n    tag_32:\n      tag_33\n      jump\t// in\n    tag_31:\n      mload(0x40)\n      tag_34\n      swap2\n      swap1\n      tag_21\n      jump\t// in\n    tag_34:\n      mload(0x40)\n      dup1\n      swap2\n      sub\n      swap1\n      return\n        /* \"RentalAggrement.sol\":371:393  uint public depositFee */\n    tag_7:\n      tag_35\n      tag_36\n      jump\t// in\n    tag_35:\n      mload(0x40)\n      tag_37\n      swap2\n      swap1\n      tag_38\n      jump\t// in\n    tag_37:\n      mload(0x40)\n      dup1\n      swap2\n      sub\n      swap1\n      return\n        /* \"RentalAggrement.sol\":4310:4500  function creatingNewRoom() public returns(bool){... */\n    tag_8:\n      tag_39\n      tag_40\n      jump\t// in\n    tag_39:\n      mload(0x40)\n      tag_41\n      swap2\n      swap1\n      tag_21\n      jump\t// in\n    tag_41:\n      mload(0x40)\n      dup1\n      swap2\n      sub\n      swap1\n      return\n        /* \"RentalAggrement.sol\":399:421  uint public monthlyFee */\n    tag_9:\n      tag_42\n      tag_43\n      jump\t// in\n    tag_42:\n      mload(0x40)\n      tag_44\n      swap2\n      swap1\n      tag_38\n      jump\t// in\n    tag_44:\n      mload(0x40)\n      dup1\n      swap2\n      sub\n      swap1\n      return\n        /* \"RentalAggrement.sol\":2138:3311  function Leave() public returns(bool){... */\n    tag_10:\n      tag_45\n      tag_46\n      jump\t// in\n    tag_45:\n      mload(0x40)\n      tag_47\n      swap2\n      swap1\n      tag_21\n      jump\t// in\n    tag_47:\n      mload(0x40)\n      dup1\n      swap2\n      sub\n      swap1\n      return\n        /* \"RentalAggrement.sol\":3409:3755  function availableRooms() public view returns(uint[] memory){... */\n    tag_11:\n      tag_48\n      tag_49\n      jump\t// in\n    tag_48:\n      mload(0x40)\n      tag_50\n      swap2\n      swap1\n      tag_51\n      jump\t// in\n    tag_50:\n      mload(0x40)\n      dup1\n      swap2\n      sub\n      swap1\n      return\n        /* \"RentalAggrement.sol\":321:346  bool [] public RoomsState */\n    tag_12:\n      tag_52\n      0x04\n      dup1\n      calldatasize\n      sub\n      dup2\n      add\n      swap1\n      tag_53\n      swap2\n      swap1\n      tag_24\n      jump\t// in\n    tag_53:\n      tag_54\n      jump\t// in\n    tag_52:\n      mload(0x40)\n      tag_55\n      swap2\n      swap1\n      tag_21\n      jump\t// in\n    tag_55:\n      mload(0x40)\n      dup1\n      swap2\n      sub\n      swap1\n      return\n        /* \"RentalAggrement.sol\":3785:4010  function changeRent(uint amount) public returns(bool){... */\n    tag_13:\n      tag_56\n      0x04\n      dup1\n      calldatasize\n      sub\n      dup2\n      add\n      swap1\n      tag_57\n      swap2\n      swap1\n      tag_24\n      jump\t// in\n    tag_57:\n      tag_58\n      jump\t// in\n    tag_56:\n      mload(0x40)\n      tag_59\n      swap2\n      swap1\n      tag_21\n      jump\t// in\n    tag_59:\n      mload(0x40)\n      dup1\n      swap2\n      sub\n      swap1\n      return\n        /* \"RentalAggrement.sol\":257:293  uint public totalRoomsAvailable = 10 */\n    tag_14:\n      tag_60\n      tag_61\n      jump\t// in\n    tag_60:\n      mload(0x40)\n      tag_62\n      swap2\n      swap1\n      tag_38\n      jump\t// in\n    tag_62:\n      mload(0x40)\n      dup1\n      swap2\n      sub\n      swap1\n      return\n        /* \"RentalAggrement.sol\":914:2109  function Registration(string memory name,uint aadhar,uint roomNumber) public returns(bool){... */\n    tag_19:\n        /* \"RentalAggrement.sol\":999:1003  bool */\n      0x00\n        /* \"RentalAggrement.sol\":1112:1120  capacity */\n      dup1\n      sload\n        /* \"RentalAggrement.sol\":1098:1108  roomNumber */\n      dup3\n        /* \"RentalAggrement.sol\":1098:1120  roomNumber >= capacity */\n      lt\n        /* \"RentalAggrement.sol\":1095:1209  if(roomNumber >= capacity){... */\n      tag_64\n      jumpi\n        /* \"RentalAggrement.sol\":1140:1172  Trigger(\"No such room exists !\") */\n      0x767a686a4c3a04a95e094547835f2313a4e1fc9f6689362feb2906141a3ef0ee\n      mload(0x40)\n      tag_65\n      swap1\n      tag_66\n      jump\t// in\n    tag_65:\n      mload(0x40)\n      dup1\n      swap2\n      sub\n      swap1\n      log1\n        /* \"RentalAggrement.sol\":1193:1198  false */\n      0x00\n        /* \"RentalAggrement.sol\":1186:1198  return false */\n      swap1\n      pop\n      jump(tag_63)\n        /* \"RentalAggrement.sol\":1095:1209  if(roomNumber >= capacity){... */\n    tag_64:\n        /* \"RentalAggrement.sol\":1274:1284  RoomsState */\n      0x03\n        /* \"RentalAggrement.sol\":1285:1295  roomNumber */\n      dup3\n        /* \"RentalAggrement.sol\":1274:1296  RoomsState[roomNumber] */\n      dup2\n      sload\n      dup2\n      lt\n      tag_67\n      jumpi\n      tag_68\n      tag_69\n      jump\t// in\n    tag_68:\n    tag_67:\n      swap1\n      0x00\n      mstore\n      keccak256(0x00, 0x20)\n      swap1\n      0x20\n      swap2\n      dup3\n      dup3\n      div\n      add\n      swap2\n      swap1\n      mod\n      swap1\n      sload\n      swap1\n      0x0100\n      exp\n      swap1\n      div\n      0xff\n      and\n        /* \"RentalAggrement.sol\":1271:1388  if(RoomsState[roomNumber]){... */\n      iszero\n      tag_71\n      jumpi\n        /* \"RentalAggrement.sol\":1316:1351  Trigger(\"Room is already occupied\") */\n      0x767a686a4c3a04a95e094547835f2313a4e1fc9f6689362feb2906141a3ef0ee\n      mload(0x40)\n      tag_72\n      swap1\n      tag_73\n      jump\t// in\n    tag_72:\n      mload(0x40)\n      dup1\n      swap2\n      sub\n      swap1\n      log1\n        /* \"RentalAggrement.sol\":1372:1377  false */\n      0x00\n        /* \"RentalAggrement.sol\":1365:1377  return false */\n      swap1\n      pop\n      jump(tag_63)\n        /* \"RentalAggrement.sol\":1271:1388  if(RoomsState[roomNumber]){... */\n    tag_71:\n        /* \"RentalAggrement.sol\":1506:1507  0 */\n      0x00\n        /* \"RentalAggrement.sol\":1465:1478  TenantDetails */\n      0x07\n        /* \"RentalAggrement.sol\":1465:1490  TenantDetails[msg.sender] */\n      0x00\n        /* \"RentalAggrement.sol\":1479:1489  msg.sender */\n      caller\n        /* \"RentalAggrement.sol\":1465:1490  TenantDetails[msg.sender] */\n      0xffffffffffffffffffffffffffffffffffffffff\n      and\n      0xffffffffffffffffffffffffffffffffffffffff\n      and\n      dup2\n      mstore\n      0x20\n      add\n      swap1\n      dup2\n      mstore\n      0x20\n      add\n      0x00\n      keccak256\n        /* \"RentalAggrement.sol\":1465:1503  TenantDetails[msg.sender].aadharNumber */\n      0x02\n      add\n      sload\n        /* \"RentalAggrement.sol\":1465:1507  TenantDetails[msg.sender].aadharNumber > 0 */\n      gt\n        /* \"RentalAggrement.sol\":1462:1630  if(TenantDetails[msg.sender].aadharNumber > 0){... */\n      iszero\n      tag_74\n      jumpi\n        /* \"RentalAggrement.sol\":1527:1593  Trigger(\"You already have one room,you can't take another room !\") */\n      0x767a686a4c3a04a95e094547835f2313a4e1fc9f6689362feb2906141a3ef0ee\n      mload(0x40)\n      tag_75\n      swap1\n      tag_76\n      jump\t// in\n    tag_75:\n      mload(0x40)\n      dup1\n      swap2\n      sub\n      swap1\n      log1\n        /* \"RentalAggrement.sol\":1614:1619  false */\n      0x00\n        /* \"RentalAggrement.sol\":1607:1619  return false */\n      swap1\n      pop\n      jump(tag_63)\n        /* \"RentalAggrement.sol\":1462:1630  if(TenantDetails[msg.sender].aadharNumber > 0){... */\n    tag_74:\n        /* \"RentalAggrement.sol\":1672:1687  Tenant memory t */\n      tag_77\n      tag_78\n      jump\t// in\n    tag_77:\n        /* \"RentalAggrement.sol\":1706:1710  name */\n      dup5\n        /* \"RentalAggrement.sol\":1697:1698  t */\n      dup2\n        /* \"RentalAggrement.sol\":1697:1703  t.name */\n      0x00\n      add\n        /* \"RentalAggrement.sol\":1697:1710  t.name = name */\n      dup2\n      swap1\n      mstore\n      pop\n        /* \"RentalAggrement.sol\":1737:1743  aadhar */\n      dup4\n        /* \"RentalAggrement.sol\":1720:1721  t */\n      dup2\n        /* \"RentalAggrement.sol\":1720:1734  t.aadharNumber */\n      0x40\n      add\n        /* \"RentalAggrement.sol\":1720:1743  t.aadharNumber = aadhar */\n      dup2\n      dup2\n      mstore\n      pop\n      pop\n        /* \"RentalAggrement.sol\":1768:1778  roomNumber */\n      dup3\n        /* \"RentalAggrement.sol\":1753:1754  t */\n      dup2\n        /* \"RentalAggrement.sol\":1753:1765  t.roomNumber */\n      0x60\n      add\n        /* \"RentalAggrement.sol\":1753:1778  t.roomNumber = roomNumber */\n      dup2\n      dup2\n      mstore\n      pop\n      pop\n        /* \"RentalAggrement.sol\":1809:1824  block.timestamp */\n      timestamp\n        /* \"RentalAggrement.sol\":1788:1789  t */\n      dup2\n        /* \"RentalAggrement.sol\":1788:1806  t.JoiningTimestamp */\n      0x20\n      add\n        /* \"RentalAggrement.sol\":1788:1824  t.JoiningTimestamp = block.timestamp */\n      dup2\n      dup2\n      mstore\n      pop\n      pop\n        /* \"RentalAggrement.sol\":1834:1853  t.status = \"JOINED\" */\n      mload(0x40)\n      dup1\n      0x40\n      add\n      0x40\n      mstore\n      dup1\n      0x06\n      dup2\n      mstore\n      0x20\n      add\n      0x4a4f494e45440000000000000000000000000000000000000000000000000000\n      dup2\n      mstore\n      pop\n        /* \"RentalAggrement.sol\":1834:1835  t */\n      dup2\n        /* \"RentalAggrement.sol\":1834:1842  t.status */\n      0xa0\n      add\n        /* \"RentalAggrement.sol\":1834:1853  t.status = \"JOINED\" */\n      dup2\n      swap1\n      mstore\n      pop\n        /* \"RentalAggrement.sol\":1932:1933  t */\n      dup1\n        /* \"RentalAggrement.sol\":1904:1917  TenantDetails */\n      0x07\n        /* \"RentalAggrement.sol\":1904:1929  TenantDetails[msg.sender] */\n      0x00\n        /* \"RentalAggrement.sol\":1918:1928  msg.sender */\n      caller\n        /* \"RentalAggrement.sol\":1904:1929  TenantDetails[msg.sender] */\n      0xffffffffffffffffffffffffffffffffffffffff\n      and\n      0xffffffffffffffffffffffffffffffffffffffff\n      and\n      dup2\n      mstore\n      0x20\n      add\n      swap1\n      dup2\n      mstore\n      0x20\n      add\n      0x00\n      keccak256\n        /* \"RentalAggrement.sol\":1904:1933  TenantDetails[msg.sender] = t */\n      0x00\n      dup3\n      add\n      mload\n      dup2\n      0x00\n      add\n      swap1\n      dup2\n      tag_79\n      swap2\n      swap1\n      tag_80\n      jump\t// in\n    tag_79:\n      pop\n      0x20\n      dup3\n      add\n      mload\n      dup2\n      0x01\n      add\n      sstore\n      0x40\n      dup3\n      add\n      mload\n      dup2\n      0x02\n      add\n      sstore\n      0x60\n      dup3\n      add\n      mload\n      dup2\n      0x03\n      add\n      sstore\n      0x80\n      dup3\n      add\n      mload\n      dup2\n      0x04\n      add\n      sstore\n      0xa0\n      dup3\n      add\n      mload\n      dup2\n      0x05\n      add\n      swap1\n      dup2\n      tag_81\n      swap2\n      swap1\n      tag_80\n      jump\t// in\n    tag_81:\n      pop\n      swap1\n      pop\n      pop\n        /* \"RentalAggrement.sol\":1970:1974  true */\n      0x01\n        /* \"RentalAggrement.sol\":1943:1953  RoomsState */\n      0x03\n        /* \"RentalAggrement.sol\":1954:1955  t */\n      dup3\n        /* \"RentalAggrement.sol\":1954:1966  t.roomNumber */\n      0x60\n      add\n      mload\n        /* \"RentalAggrement.sol\":1943:1967  RoomsState[t.roomNumber] */\n      dup2\n      sload\n      dup2\n      lt\n      tag_82\n      jumpi\n      tag_83\n      tag_69\n      jump\t// in\n    tag_83:\n    tag_82:\n      swap1\n      0x00\n      mstore\n      keccak256(0x00, 0x20)\n      swap1\n      0x20\n      swap2\n      dup3\n      dup3\n      div\n      add\n      swap2\n      swap1\n      mod\n        /* \"RentalAggrement.sol\":1943:1974  RoomsState[t.roomNumber] = true */\n      0x0100\n      exp\n      dup2\n      sload\n      dup2\n      0xff\n      mul\n      not\n      and\n      swap1\n      dup4\n      iszero\n      iszero\n      mul\n      or\n      swap1\n      sstore\n      pop\n        /* \"RentalAggrement.sol\":2006:2016  msg.sender */\n      caller\n        /* \"RentalAggrement.sol\":1984:1989  Rooms */\n      0x02\n        /* \"RentalAggrement.sol\":1990:1991  t */\n      dup3\n        /* \"RentalAggrement.sol\":1990:2002  t.roomNumber */\n      0x60\n      add\n      mload\n        /* \"RentalAggrement.sol\":1984:2003  Rooms[t.roomNumber] */\n      dup2\n      sload\n      dup2\n      lt\n      tag_85\n      jumpi\n      tag_86\n      tag_69\n      jump\t// in\n    tag_86:\n    tag_85:\n      swap1\n      0x00\n      mstore\n      keccak256(0x00, 0x20)\n      add\n      0x00\n        /* \"RentalAggrement.sol\":1984:2016  Rooms[t.roomNumber] = msg.sender */\n      0x0100\n      exp\n      dup2\n      sload\n      dup2\n      0xffffffffffffffffffffffffffffffffffffffff\n      mul\n      not\n      and\n      swap1\n      dup4\n      0xffffffffffffffffffffffffffffffffffffffff\n      and\n      mul\n      or\n      swap1\n      sstore\n      pop\n        /* \"RentalAggrement.sol\":2026:2033  Tenants */\n      0x08\n        /* \"RentalAggrement.sol\":2039:2049  msg.sender */\n      caller\n        /* \"RentalAggrement.sol\":2026:2050  Tenants.push(msg.sender) */\n      swap1\n      dup1\n      0x01\n      dup2\n      sload\n      add\n      dup1\n      dup3\n      sstore\n      dup1\n      swap2\n      pop\n      pop\n      0x01\n      swap1\n      sub\n      swap1\n      0x00\n      mstore\n      keccak256(0x00, 0x20)\n      add\n      0x00\n      swap1\n      swap2\n      swap1\n      swap2\n      swap1\n      swap2\n      0x0100\n      exp\n      dup2\n      sload\n      dup2\n      0xffffffffffffffffffffffffffffffffffffffff\n      mul\n      not\n      and\n      swap1\n      dup4\n      0xffffffffffffffffffffffffffffffffffffffff\n      and\n      mul\n      or\n      swap1\n      sstore\n      pop\n        /* \"RentalAggrement.sol\":2060:2079  totalRoomsAvailable */\n      0x01\n      0x00\n        /* \"RentalAggrement.sol\":2060:2081  totalRoomsAvailable-- */\n      dup2\n      sload\n      dup1\n      swap3\n      swap2\n      swap1\n      tag_89\n      swap1\n      tag_90\n      jump\t// in\n    tag_89:\n      swap2\n      swap1\n      pop\n      sstore\n      pop\n        /* \"RentalAggrement.sol\":2098:2102  true */\n      0x01\n        /* \"RentalAggrement.sol\":2091:2102  return true */\n      swap2\n      pop\n      pop\n        /* \"RentalAggrement.sol\":914:2109  function Registration(string memory name,uint aadhar,uint roomNumber) public returns(bool){... */\n    tag_63:\n      swap4\n      swap3\n      pop\n      pop\n      pop\n      jump\t// out\n        /* \"RentalAggrement.sol\":471:495  address[] public Tenants */\n    tag_25:\n      0x08\n      dup2\n      dup2\n      sload\n      dup2\n      lt\n      tag_91\n      jumpi\n      0x00\n      dup1\n      revert\n    tag_91:\n      swap1\n      0x00\n      mstore\n      keccak256(0x00, 0x20)\n      add\n      0x00\n      swap2\n      pop\n      sload\n      swap1\n      0x0100\n      exp\n      swap1\n      div\n      0xffffffffffffffffffffffffffffffffffffffff\n      and\n      dup2\n      jump\t// out\n        /* \"RentalAggrement.sol\":4573:4635  function TakeFare() public returns(bool){... */\n    tag_29:\n        /* \"RentalAggrement.sol\":4608:4612  bool */\n      0x00\n        /* \"RentalAggrement.sol\":4573:4635  function TakeFare() public returns(bool){... */\n      swap1\n      jump\t// out\n        /* \"RentalAggrement.sol\":4047:4276  function changeDeposite(uint amount) public returns(bool){... */\n    tag_33:\n        /* \"RentalAggrement.sol\":4099:4103  bool */\n      0x00\n        /* \"RentalAggrement.sol\":4131:4136  owner */\n      0x04\n      0x00\n      swap1\n      sload\n      swap1\n      0x0100\n      exp\n      swap1\n      div\n      0xffffffffffffffffffffffffffffffffffffffff\n      and\n        /* \"RentalAggrement.sol\":4117:4136  msg.sender != owner */\n      0xffffffffffffffffffffffffffffffffffffffff\n      and\n        /* \"RentalAggrement.sol\":4117:4127  msg.sender */\n      caller\n        /* \"RentalAggrement.sol\":4117:4136  msg.sender != owner */\n      0xffffffffffffffffffffffffffffffffffffffff\n      and\n      eq\n        /* \"RentalAggrement.sol\":4114:4220  if(msg.sender != owner){... */\n      tag_95\n      jumpi\n        /* \"RentalAggrement.sol\":4156:4183  Trigger(\"Not autherized !\") */\n      0x767a686a4c3a04a95e094547835f2313a4e1fc9f6689362feb2906141a3ef0ee\n      mload(0x40)\n      tag_96\n      swap1\n      tag_97\n      jump\t// in\n    tag_96:\n      mload(0x40)\n      dup1\n      swap2\n      sub\n      swap1\n      log1\n        /* \"RentalAggrement.sol\":4204:4209  false */\n      0x00\n        /* \"RentalAggrement.sol\":4197:4209  return false */\n      swap1\n      pop\n      jump(tag_94)\n        /* \"RentalAggrement.sol\":4114:4220  if(msg.sender != owner){... */\n    tag_95:\n        /* \"RentalAggrement.sol\":4242:4248  amount */\n      dup2\n        /* \"RentalAggrement.sol\":4229:4239  depositFee */\n      0x05\n        /* \"RentalAggrement.sol\":4229:4248  depositFee = amount */\n      dup2\n      swap1\n      sstore\n      pop\n        /* \"RentalAggrement.sol\":4265:4269  true */\n      0x01\n        /* \"RentalAggrement.sol\":4258:4269  return true */\n      swap1\n      pop\n        /* \"RentalAggrement.sol\":4047:4276  function changeDeposite(uint amount) public returns(bool){... */\n    tag_94:\n      swap2\n      swap1\n      pop\n      jump\t// out\n        /* \"RentalAggrement.sol\":371:393  uint public depositFee */\n    tag_36:\n      sload(0x05)\n      dup2\n      jump\t// out\n        /* \"RentalAggrement.sol\":4310:4500  function creatingNewRoom() public returns(bool){... */\n    tag_40:\n        /* \"RentalAggrement.sol\":4352:4356  bool */\n      0x00\n        /* \"RentalAggrement.sol\":4367:4375  capacity */\n      dup1\n      0x00\n        /* \"RentalAggrement.sol\":4367:4377  capacity++ */\n      dup2\n      sload\n      dup1\n      swap3\n      swap2\n      swap1\n      tag_99\n      swap1\n      tag_100\n      jump\t// in\n    tag_99:\n      swap2\n      swap1\n      pop\n      sstore\n      pop\n        /* \"RentalAggrement.sol\":4387:4406  totalRoomsAvailable */\n      0x01\n      0x00\n        /* \"RentalAggrement.sol\":4387:4408  totalRoomsAvailable++ */\n      dup2\n      sload\n      dup1\n      swap3\n      swap2\n      swap1\n      tag_101\n      swap1\n      tag_100\n      jump\t// in\n    tag_101:\n      swap2\n      swap1\n      pop\n      sstore\n      pop\n        /* \"RentalAggrement.sol\":4418:4428  RoomsState */\n      0x03\n        /* \"RentalAggrement.sol\":4434:4439  false */\n      0x00\n        /* \"RentalAggrement.sol\":4418:4440  RoomsState.push(false) */\n      swap1\n      dup1\n      0x01\n      dup2\n      sload\n      add\n      dup1\n      dup3\n      sstore\n      dup1\n      swap2\n      pop\n      pop\n      0x01\n      swap1\n      sub\n      swap1\n      0x00\n      mstore\n      keccak256(0x00, 0x20)\n      swap1\n      0x20\n      swap2\n      dup3\n      dup3\n      div\n      add\n      swap2\n      swap1\n      mod\n      swap1\n      swap2\n      swap1\n      swap2\n      swap1\n      swap2\n      0x0100\n      exp\n      dup2\n      sload\n      dup2\n      0xff\n      mul\n      not\n      and\n      swap1\n      dup4\n      iszero\n      iszero\n      mul\n      or\n      swap1\n      sstore\n      pop\n        /* \"RentalAggrement.sol\":4450:4455  Rooms */\n      0x02\n        /* \"RentalAggrement.sol\":4469:4470  0 */\n      0x00\n        /* \"RentalAggrement.sol\":4450:4472  Rooms.push(address(0)) */\n      swap1\n      dup1\n      0x01\n      dup2\n      sload\n      add\n      dup1\n      dup3\n      sstore\n      dup1\n      swap2\n      pop\n      pop\n      0x01\n      swap1\n      sub\n      swap1\n      0x00\n      mstore\n      keccak256(0x00, 0x20)\n      add\n      0x00\n      swap1\n      swap2\n      swap1\n      swap2\n      swap1\n      swap2\n      0x0100\n      exp\n      dup2\n      sload\n      dup2\n      0xffffffffffffffffffffffffffffffffffffffff\n      mul\n      not\n      and\n      swap1\n      dup4\n      0xffffffffffffffffffffffffffffffffffffffff\n      and\n      mul\n      or\n      swap1\n      sstore\n      pop\n        /* \"RentalAggrement.sol\":4489:4493  true */\n      0x01\n        /* \"RentalAggrement.sol\":4482:4493  return true */\n      swap1\n      pop\n        /* \"RentalAggrement.sol\":4310:4500  function creatingNewRoom() public returns(bool){... */\n      swap1\n      jump\t// out\n        /* \"RentalAggrement.sol\":399:421  uint public monthlyFee */\n    tag_43:\n      sload(0x06)\n      dup2\n      jump\t// out\n        /* \"RentalAggrement.sol\":2138:3311  function Leave() public returns(bool){... */\n    tag_46:\n        /* \"RentalAggrement.sol\":2170:2174  bool */\n      0x00\n        /* \"RentalAggrement.sol\":2304:2305  0 */\n      dup1\n        /* \"RentalAggrement.sol\":2262:2275  TenantDetails */\n      0x07\n        /* \"RentalAggrement.sol\":2262:2287  TenantDetails[msg.sender] */\n      0x00\n        /* \"RentalAggrement.sol\":2276:2286  msg.sender */\n      caller\n        /* \"RentalAggrement.sol\":2262:2287  TenantDetails[msg.sender] */\n      0xffffffffffffffffffffffffffffffffffffffff\n      and\n      0xffffffffffffffffffffffffffffffffffffffff\n      and\n      dup2\n      mstore\n      0x20\n      add\n      swap1\n      dup2\n      mstore\n      0x20\n      add\n      0x00\n      keccak256\n        /* \"RentalAggrement.sol\":2262:2300  TenantDetails[msg.sender].aadharNumber */\n      0x02\n      add\n      sload\n        /* \"RentalAggrement.sol\":2262:2305  TenantDetails[msg.sender].aadharNumber == 0 */\n      sub\n        /* \"RentalAggrement.sol\":2259:2423  if(TenantDetails[msg.sender].aadharNumber == 0){... */\n      tag_105\n      jumpi\n        /* \"RentalAggrement.sol\":2325:2386  Trigger(\"Sorry, You are not associated with any room here !\") */\n      0x767a686a4c3a04a95e094547835f2313a4e1fc9f6689362feb2906141a3ef0ee\n      mload(0x40)\n      tag_106\n      swap1\n      tag_107\n      jump\t// in\n    tag_106:\n      mload(0x40)\n      dup1\n      swap2\n      sub\n      swap1\n      log1\n        /* \"RentalAggrement.sol\":2407:2412  false */\n      0x00\n        /* \"RentalAggrement.sol\":2400:2412  return false */\n      swap1\n      pop\n      jump(tag_104)\n        /* \"RentalAggrement.sol\":2259:2423  if(TenantDetails[msg.sender].aadharNumber == 0){... */\n    tag_105:\n        /* \"RentalAggrement.sol\":2596:2615  totalRoomsAvailable */\n      0x01\n      0x00\n        /* \"RentalAggrement.sol\":2596:2617  totalRoomsAvailable++ */\n      dup2\n      sload\n      dup1\n      swap3\n      swap2\n      swap1\n      tag_108\n      swap1\n      tag_100\n      jump\t// in\n    tag_108:\n      swap2\n      swap1\n      pop\n      sstore\n      pop\n        /* \"RentalAggrement.sol\":2627:2642  uint roomNumber */\n      0x00\n        /* \"RentalAggrement.sol\":2645:2658  TenantDetails */\n      0x07\n        /* \"RentalAggrement.sol\":2645:2670  TenantDetails[msg.sender] */\n      0x00\n        /* \"RentalAggrement.sol\":2659:2669  msg.sender */\n      caller\n        /* \"RentalAggrement.sol\":2645:2670  TenantDetails[msg.sender] */\n      0xffffffffffffffffffffffffffffffffffffffff\n      and\n      0xffffffffffffffffffffffffffffffffffffffff\n      and\n      dup2\n      mstore\n      0x20\n      add\n      swap1\n      dup2\n      mstore\n      0x20\n      add\n      0x00\n      keccak256\n        /* \"RentalAggrement.sol\":2645:2681  TenantDetails[msg.sender].roomNumber */\n      0x03\n      add\n      sload\n        /* \"RentalAggrement.sol\":2627:2681  uint roomNumber = TenantDetails[msg.sender].roomNumber */\n      swap1\n      pop\n        /* \"RentalAggrement.sol\":2719:2720  0 */\n      0x00\n        /* \"RentalAggrement.sol\":2691:2696  Rooms */\n      0x02\n        /* \"RentalAggrement.sol\":2697:2707  roomNumber */\n      dup3\n        /* \"RentalAggrement.sol\":2691:2708  Rooms[roomNumber] */\n      dup2\n      sload\n      dup2\n      lt\n      tag_109\n      jumpi\n      tag_110\n      tag_69\n      jump\t// in\n    tag_110:\n    tag_109:\n      swap1\n      0x00\n      mstore\n      keccak256(0x00, 0x20)\n      add\n      0x00\n        /* \"RentalAggrement.sol\":2691:2721  Rooms[roomNumber] = address(0) */\n      0x0100\n      exp\n      dup2\n      sload\n      dup2\n      0xffffffffffffffffffffffffffffffffffffffff\n      mul\n      not\n      and\n      swap1\n      dup4\n      0xffffffffffffffffffffffffffffffffffffffff\n      and\n      mul\n      or\n      swap1\n      sstore\n      pop\n        /* \"RentalAggrement.sol\":2756:2761  false */\n      0x00\n        /* \"RentalAggrement.sol\":2731:2741  RoomsState */\n      0x03\n        /* \"RentalAggrement.sol\":2742:2752  roomNumber */\n      dup3\n        /* \"RentalAggrement.sol\":2731:2753  RoomsState[roomNumber] */\n      dup2\n      sload\n      dup2\n      lt\n      tag_112\n      jumpi\n      tag_113\n      tag_69\n      jump\t// in\n    tag_113:\n    tag_112:\n      swap1\n      0x00\n      mstore\n      keccak256(0x00, 0x20)\n      swap1\n      0x20\n      swap2\n      dup3\n      dup3\n      div\n      add\n      swap2\n      swap1\n      mod\n        /* \"RentalAggrement.sol\":2731:2761  RoomsState[roomNumber] = false */\n      0x0100\n      exp\n      dup2\n      sload\n      dup2\n      0xff\n      mul\n      not\n      and\n      swap1\n      dup4\n      iszero\n      iszero\n      mul\n      or\n      swap1\n      sstore\n      pop\n        /* \"RentalAggrement.sol\":2771:2812  TenantDetails[msg.sender].status = \"LEFT\" */\n      mload(0x40)\n      dup1\n      0x40\n      add\n      0x40\n      mstore\n      dup1\n      0x04\n      dup2\n      mstore\n      0x20\n      add\n      0x4c45465400000000000000000000000000000000000000000000000000000000\n      dup2\n      mstore\n      pop\n        /* \"RentalAggrement.sol\":2771:2784  TenantDetails */\n      0x07\n        /* \"RentalAggrement.sol\":2771:2796  TenantDetails[msg.sender] */\n      0x00\n        /* \"RentalAggrement.sol\":2785:2795  msg.sender */\n      caller\n        /* \"RentalAggrement.sol\":2771:2796  TenantDetails[msg.sender] */\n      0xffffffffffffffffffffffffffffffffffffffff\n      and\n      0xffffffffffffffffffffffffffffffffffffffff\n      and\n      dup2\n      mstore\n      0x20\n      add\n      swap1\n      dup2\n      mstore\n      0x20\n      add\n      0x00\n      keccak256\n        /* \"RentalAggrement.sol\":2771:2803  TenantDetails[msg.sender].status */\n      0x05\n      add\n        /* \"RentalAggrement.sol\":2771:2812  TenantDetails[msg.sender].status = \"LEFT\" */\n      swap1\n      dup2\n      tag_115\n      swap2\n      swap1\n      tag_80\n      jump\t// in\n    tag_115:\n      pop\n        /* \"RentalAggrement.sol\":2867:2882  block.timestamp */\n      timestamp\n        /* \"RentalAggrement.sol\":2822:2835  TenantDetails */\n      0x07\n        /* \"RentalAggrement.sol\":2822:2847  TenantDetails[msg.sender] */\n      0x00\n        /* \"RentalAggrement.sol\":2836:2846  msg.sender */\n      caller\n        /* \"RentalAggrement.sol\":2822:2847  TenantDetails[msg.sender] */\n      0xffffffffffffffffffffffffffffffffffffffff\n      and\n      0xffffffffffffffffffffffffffffffffffffffff\n      and\n      dup2\n      mstore\n      0x20\n      add\n      swap1\n      dup2\n      mstore\n      0x20\n      add\n      0x00\n      keccak256\n        /* \"RentalAggrement.sol\":2822:2864  TenantDetails[msg.sender].leavingTimestamp */\n      0x04\n      add\n        /* \"RentalAggrement.sol\":2822:2882  TenantDetails[msg.sender].leavingTimestamp = block.timestamp */\n      dup2\n      swap1\n      sstore\n      pop\n        /* \"RentalAggrement.sol\":2946:2956  uint found */\n      0x00\n        /* \"RentalAggrement.sol\":2959:2966  Tenants */\n      0x08\n        /* \"RentalAggrement.sol\":2959:2973  Tenants.length */\n      dup1\n      sload\n      swap1\n      pop\n        /* \"RentalAggrement.sol\":2946:2973  uint found = Tenants.length */\n      swap1\n      pop\n        /* \"RentalAggrement.sol\":2987:2993  uint i */\n      0x00\n        /* \"RentalAggrement.sol\":2983:3142  for(uint i = 0 ; i < Tenants.length ; i++){... */\n    tag_116:\n        /* \"RentalAggrement.sol\":3004:3011  Tenants */\n      0x08\n        /* \"RentalAggrement.sol\":3004:3018  Tenants.length */\n      dup1\n      sload\n      swap1\n      pop\n        /* \"RentalAggrement.sol\":3000:3001  i */\n      dup2\n        /* \"RentalAggrement.sol\":3000:3018  i < Tenants.length */\n      lt\n        /* \"RentalAggrement.sol\":2983:3142  for(uint i = 0 ; i < Tenants.length ; i++){... */\n      iszero\n      tag_117\n      jumpi\n        /* \"RentalAggrement.sol\":3056:3066  msg.sender */\n      caller\n        /* \"RentalAggrement.sol\":3042:3066  Tenants[i] == msg.sender */\n      0xffffffffffffffffffffffffffffffffffffffff\n      and\n        /* \"RentalAggrement.sol\":3042:3049  Tenants */\n      0x08\n        /* \"RentalAggrement.sol\":3050:3051  i */\n      dup3\n        /* \"RentalAggrement.sol\":3042:3052  Tenants[i] */\n      dup2\n      sload\n      dup2\n      lt\n      tag_119\n      jumpi\n      tag_120\n      tag_69\n      jump\t// in\n    tag_120:\n    tag_119:\n      swap1\n      0x00\n      mstore\n      keccak256(0x00, 0x20)\n      add\n      0x00\n      swap1\n      sload\n      swap1\n      0x0100\n      exp\n      swap1\n      div\n      0xffffffffffffffffffffffffffffffffffffffff\n      and\n        /* \"RentalAggrement.sol\":3042:3066  Tenants[i] == msg.sender */\n      0xffffffffffffffffffffffffffffffffffffffff\n      and\n      sub\n        /* \"RentalAggrement.sol\":3039:3132  if(Tenants[i] == msg.sender){... */\n      tag_122\n      jumpi\n        /* \"RentalAggrement.sol\":3093:3094  i */\n      dup1\n        /* \"RentalAggrement.sol\":3085:3094  found = i */\n      swap2\n      pop\n        /* \"RentalAggrement.sol\":3112:3117  break */\n      jump(tag_117)\n        /* \"RentalAggrement.sol\":3039:3132  if(Tenants[i] == msg.sender){... */\n    tag_122:\n        /* \"RentalAggrement.sol\":3021:3024  i++ */\n      dup1\n      dup1\n      tag_123\n      swap1\n      tag_100\n      jump\t// in\n    tag_123:\n      swap2\n      pop\n      pop\n        /* \"RentalAggrement.sol\":2983:3142  for(uint i = 0 ; i < Tenants.length ; i++){... */\n      jump(tag_116)\n    tag_117:\n      pop\n        /* \"RentalAggrement.sol\":3151:3261  while(found < Tenants.length-1){... */\n    tag_124:\n        /* \"RentalAggrement.sol\":3180:3181  1 */\n      0x01\n        /* \"RentalAggrement.sol\":3165:3172  Tenants */\n      0x08\n        /* \"RentalAggrement.sol\":3165:3179  Tenants.length */\n      dup1\n      sload\n      swap1\n      pop\n        /* \"RentalAggrement.sol\":3165:3181  Tenants.length-1 */\n      tag_126\n      swap2\n      swap1\n      tag_127\n      jump\t// in\n    tag_126:\n        /* \"RentalAggrement.sol\":3157:3162  found */\n      dup2\n        /* \"RentalAggrement.sol\":3157:3181  found < Tenants.length-1 */\n      lt\n        /* \"RentalAggrement.sol\":3151:3261  while(found < Tenants.length-1){... */\n      iszero\n      tag_125\n      jumpi\n        /* \"RentalAggrement.sol\":3213:3220  Tenants */\n      0x08\n        /* \"RentalAggrement.sol\":3227:3228  1 */\n      0x01\n        /* \"RentalAggrement.sol\":3221:3226  found */\n      dup3\n        /* \"RentalAggrement.sol\":3221:3228  found+1 */\n      tag_128\n      swap2\n      swap1\n      tag_129\n      jump\t// in\n    tag_128:\n        /* \"RentalAggrement.sol\":3213:3229  Tenants[found+1] */\n      dup2\n      sload\n      dup2\n      lt\n      tag_130\n      jumpi\n      tag_131\n      tag_69\n      jump\t// in\n    tag_131:\n    tag_130:\n      swap1\n      0x00\n      mstore\n      keccak256(0x00, 0x20)\n      add\n      0x00\n      swap1\n      sload\n      swap1\n      0x0100\n      exp\n      swap1\n      div\n      0xffffffffffffffffffffffffffffffffffffffff\n      and\n        /* \"RentalAggrement.sol\":3196:3203  Tenants */\n      0x08\n        /* \"RentalAggrement.sol\":3204:3209  found */\n      dup3\n        /* \"RentalAggrement.sol\":3196:3210  Tenants[found] */\n      dup2\n      sload\n      dup2\n      lt\n      tag_133\n      jumpi\n      tag_134\n      tag_69\n      jump\t// in\n    tag_134:\n    tag_133:\n      swap1\n      0x00\n      mstore\n      keccak256(0x00, 0x20)\n      add\n      0x00\n        /* \"RentalAggrement.sol\":3196:3229  Tenants[found] = Tenants[found+1] */\n      0x0100\n      exp\n      dup2\n      sload\n      dup2\n      0xffffffffffffffffffffffffffffffffffffffff\n      mul\n      not\n      and\n      swap1\n      dup4\n      0xffffffffffffffffffffffffffffffffffffffff\n      and\n      mul\n      or\n      swap1\n      sstore\n      pop\n        /* \"RentalAggrement.sol\":3243:3250  found++ */\n      dup1\n      dup1\n      tag_136\n      swap1\n      tag_100\n      jump\t// in\n    tag_136:\n      swap2\n      pop\n      pop\n        /* \"RentalAggrement.sol\":3151:3261  while(found < Tenants.length-1){... */\n      jump(tag_124)\n    tag_125:\n        /* \"RentalAggrement.sol\":3270:3277  Tenants */\n      0x08\n        /* \"RentalAggrement.sol\":3270:3283  Tenants.pop() */\n      dup1\n      sload\n      dup1\n      tag_137\n      jumpi\n      tag_138\n      tag_139\n      jump\t// in\n    tag_138:\n    tag_137:\n      0x01\n      swap1\n      sub\n      dup2\n      dup2\n      swap1\n      0x00\n      mstore\n      keccak256(0x00, 0x20)\n      add\n      exp(0x0100, 0x00)\n      dup2\n      sload\n      swap1\n      0xffffffffffffffffffffffffffffffffffffffff\n      mul\n      not\n      and\n      swap1\n      sstore\n      swap1\n      sstore\n        /* \"RentalAggrement.sol\":3300:3304  true */\n      0x01\n        /* \"RentalAggrement.sol\":3293:3304  return true */\n      swap3\n      pop\n      pop\n      pop\n        /* \"RentalAggrement.sol\":2138:3311  function Leave() public returns(bool){... */\n    tag_104:\n      swap1\n      jump\t// out\n        /* \"RentalAggrement.sol\":3409:3755  function availableRooms() public view returns(uint[] memory){... */\n    tag_49:\n        /* \"RentalAggrement.sol\":3455:3468  uint[] memory */\n      0x60\n        /* \"RentalAggrement.sol\":3479:3502  uint[] memory available */\n      0x00\n        /* \"RentalAggrement.sol\":3516:3535  totalRoomsAvailable */\n      sload(0x01)\n        /* \"RentalAggrement.sol\":3505:3536  new uint[](totalRoomsAvailable) */\n      0xffffffffffffffff\n      dup2\n      gt\n      iszero\n      tag_142\n      jumpi\n      tag_143\n      tag_144\n      jump\t// in\n    tag_143:\n    tag_142:\n      mload(0x40)\n      swap1\n      dup1\n      dup3\n      mstore\n      dup1\n      0x20\n      mul\n      0x20\n      add\n      dup3\n      add\n      0x40\n      mstore\n      dup1\n      iszero\n      tag_145\n      jumpi\n      dup2\n      0x20\n      add\n      0x20\n      dup3\n      mul\n      dup1\n      calldatasize\n      dup4\n      calldatacopy\n      dup1\n      dup3\n      add\n      swap2\n      pop\n      pop\n      swap1\n      pop\n    tag_145:\n      pop\n        /* \"RentalAggrement.sol\":3479:3536  uint[] memory available = new uint[](totalRoomsAvailable) */\n      swap1\n      pop\n        /* \"RentalAggrement.sol\":3546:3552  uint l */\n      0x00\n        /* \"RentalAggrement.sol\":3570:3576  uint i */\n      dup1\n        /* \"RentalAggrement.sol\":3566:3723  for(uint i = 0 ; i < RoomsState.length ; i++){... */\n    tag_146:\n        /* \"RentalAggrement.sol\":3587:3597  RoomsState */\n      0x03\n        /* \"RentalAggrement.sol\":3587:3604  RoomsState.length */\n      dup1\n      sload\n      swap1\n      pop\n        /* \"RentalAggrement.sol\":3583:3584  i */\n      dup2\n        /* \"RentalAggrement.sol\":3583:3604  i < RoomsState.length */\n      lt\n        /* \"RentalAggrement.sol\":3566:3723  for(uint i = 0 ; i < RoomsState.length ; i++){... */\n      iszero\n      tag_147\n      jumpi\n        /* \"RentalAggrement.sol\":3629:3639  RoomsState */\n      0x03\n        /* \"RentalAggrement.sol\":3640:3641  i */\n      dup2\n        /* \"RentalAggrement.sol\":3629:3642  RoomsState[i] */\n      dup2\n      sload\n      dup2\n      lt\n      tag_149\n      jumpi\n      tag_150\n      tag_69\n      jump\t// in\n    tag_150:\n    tag_149:\n      swap1\n      0x00\n      mstore\n      keccak256(0x00, 0x20)\n      swap1\n      0x20\n      swap2\n      dup3\n      dup3\n      div\n      add\n      swap2\n      swap1\n      mod\n      swap1\n      sload\n      swap1\n      0x0100\n      exp\n      swap1\n      div\n      0xff\n      and\n        /* \"RentalAggrement.sol\":3625:3713  if(!RoomsState[i]){... */\n      tag_152\n      jumpi\n        /* \"RentalAggrement.sol\":3676:3677  i */\n      dup1\n        /* \"RentalAggrement.sol\":3661:3670  available */\n      dup4\n        /* \"RentalAggrement.sol\":3671:3672  l */\n      dup4\n        /* \"RentalAggrement.sol\":3661:3673  available[l] */\n      dup2\n      mload\n      dup2\n      lt\n      tag_153\n      jumpi\n      tag_154\n      tag_69\n      jump\t// in\n    tag_154:\n    tag_153:\n      0x20\n      mul\n      0x20\n      add\n      add\n        /* \"RentalAggrement.sol\":3661:3677  available[l] = i */\n      dup2\n      dup2\n      mstore\n      pop\n      pop\n        /* \"RentalAggrement.sol\":3695:3698  l++ */\n      dup2\n      dup1\n      tag_155\n      swap1\n      tag_100\n      jump\t// in\n    tag_155:\n      swap3\n      pop\n      pop\n        /* \"RentalAggrement.sol\":3625:3713  if(!RoomsState[i]){... */\n    tag_152:\n        /* \"RentalAggrement.sol\":3607:3610  i++ */\n      dup1\n      dup1\n      tag_156\n      swap1\n      tag_100\n      jump\t// in\n    tag_156:\n      swap2\n      pop\n      pop\n        /* \"RentalAggrement.sol\":3566:3723  for(uint i = 0 ; i < RoomsState.length ; i++){... */\n      jump(tag_146)\n    tag_147:\n      pop\n        /* \"RentalAggrement.sol\":3739:3748  available */\n      dup2\n        /* \"RentalAggrement.sol\":3732:3748  return available */\n      swap3\n      pop\n      pop\n      pop\n        /* \"RentalAggrement.sol\":3409:3755  function availableRooms() public view returns(uint[] memory){... */\n      swap1\n      jump\t// out\n        /* \"RentalAggrement.sol\":321:346  bool [] public RoomsState */\n    tag_54:\n      0x03\n      dup2\n      dup2\n      sload\n      dup2\n      lt\n      tag_157\n      jumpi\n      0x00\n      dup1\n      revert\n    tag_157:\n      swap1\n      0x00\n      mstore\n      keccak256(0x00, 0x20)\n      swap1\n      0x20\n      swap2\n      dup3\n      dup3\n      div\n      add\n      swap2\n      swap1\n      mod\n      swap2\n      pop\n      sload\n      swap1\n      0x0100\n      exp\n      swap1\n      div\n      0xff\n      and\n      dup2\n      jump\t// out\n        /* \"RentalAggrement.sol\":3785:4010  function changeRent(uint amount) public returns(bool){... */\n    tag_58:\n        /* \"RentalAggrement.sol\":3833:3837  bool */\n      0x00\n        /* \"RentalAggrement.sol\":3865:3870  owner */\n      0x04\n      0x00\n      swap1\n      sload\n      swap1\n      0x0100\n      exp\n      swap1\n      div\n      0xffffffffffffffffffffffffffffffffffffffff\n      and\n        /* \"RentalAggrement.sol\":3851:3870  msg.sender != owner */\n      0xffffffffffffffffffffffffffffffffffffffff\n      and\n        /* \"RentalAggrement.sol\":3851:3861  msg.sender */\n      caller\n        /* \"RentalAggrement.sol\":3851:3870  msg.sender != owner */\n      0xffffffffffffffffffffffffffffffffffffffff\n      and\n      eq\n        /* \"RentalAggrement.sol\":3848:3954  if(msg.sender != owner){... */\n      tag_160\n      jumpi\n        /* \"RentalAggrement.sol\":3890:3917  Trigger(\"Not autherized !\") */\n      0x767a686a4c3a04a95e094547835f2313a4e1fc9f6689362feb2906141a3ef0ee\n      mload(0x40)\n      tag_161\n      swap1\n      tag_97\n      jump\t// in\n    tag_161:\n      mload(0x40)\n      dup1\n      swap2\n      sub\n      swap1\n      log1\n        /* \"RentalAggrement.sol\":3938:3943  false */\n      0x00\n        /* \"RentalAggrement.sol\":3931:3943  return false */\n      swap1\n      pop\n      jump(tag_159)\n        /* \"RentalAggrement.sol\":3848:3954  if(msg.sender != owner){... */\n    tag_160:\n        /* \"RentalAggrement.sol\":3976:3982  amount */\n      dup2\n        /* \"RentalAggrement.sol\":3963:3973  monthlyFee */\n      0x06\n        /* \"RentalAggrement.sol\":3963:3982  monthlyFee = amount */\n      dup2\n      swap1\n      sstore\n      pop\n        /* \"RentalAggrement.sol\":3999:4003  true */\n      0x01\n        /* \"RentalAggrement.sol\":3992:4003  return true */\n      swap1\n      pop\n        /* \"RentalAggrement.sol\":3785:4010  function changeRent(uint amount) public returns(bool){... */\n    tag_159:\n      swap2\n      swap1\n      pop\n      jump\t// out\n        /* \"RentalAggrement.sol\":257:293  uint public totalRoomsAvailable = 10 */\n    tag_61:\n      sload(0x01)\n      dup2\n      jump\t// out\n    tag_78:\n      mload(0x40)\n      dup1\n      0xc0\n      add\n      0x40\n      mstore\n      dup1\n      0x60\n      dup2\n      mstore\n      0x20\n      add\n      0x00\n      dup2\n      mstore\n      0x20\n      add\n      0x00\n      dup2\n      mstore\n      0x20\n      add\n      0x00\n      dup2\n      mstore\n      0x20\n      add\n      0x00\n      dup2\n      mstore\n      0x20\n      add\n      0x60\n      dup2\n      mstore\n      pop\n      swap1\n      jump\t// out\n        /* \"#utility.yul\":7:82   */\n    tag_162:\n        /* \"#utility.yul\":40:46   */\n      0x00\n        /* \"#utility.yul\":73:75   */\n      0x40\n        /* \"#utility.yul\":67:76   */\n      mload\n        /* \"#utility.yul\":57:76   */\n      swap1\n      pop\n        /* \"#utility.yul\":7:82   */\n      swap1\n      jump\t// out\n        /* \"#utility.yul\":88:205   */\n    tag_163:\n        /* \"#utility.yul\":197:198   */\n      0x00\n        /* \"#utility.yul\":194:195   */\n      dup1\n        /* \"#utility.yul\":187:199   */\n      revert\n        /* \"#utility.yul\":211:328   */\n    tag_164:\n        /* \"#utility.yul\":320:321   */\n      0x00\n        /* \"#utility.yul\":317:318   */\n      dup1\n        /* \"#utility.yul\":310:322   */\n      revert\n        /* \"#utility.yul\":334:451   */\n    tag_165:\n        /* \"#utility.yul\":443:444   */\n      0x00\n        /* \"#utility.yul\":440:441   */\n      dup1\n        /* \"#utility.yul\":433:445   */\n      revert\n        /* \"#utility.yul\":457:574   */\n    tag_166:\n        /* \"#utility.yul\":566:567   */\n      0x00\n        /* \"#utility.yul\":563:564   */\n      dup1\n        /* \"#utility.yul\":556:568   */\n      revert\n        /* \"#utility.yul\":580:682   */\n    tag_167:\n        /* \"#utility.yul\":621:627   */\n      0x00\n        /* \"#utility.yul\":672:674   */\n      0x1f\n        /* \"#utility.yul\":668:675   */\n      not\n        /* \"#utility.yul\":663:665   */\n      0x1f\n        /* \"#utility.yul\":656:661   */\n      dup4\n        /* \"#utility.yul\":652:666   */\n      add\n        /* \"#utility.yul\":648:676   */\n      and\n        /* \"#utility.yul\":638:676   */\n      swap1\n      pop\n        /* \"#utility.yul\":580:682   */\n      swap2\n      swap1\n      pop\n      jump\t// out\n        /* \"#utility.yul\":688:868   */\n    tag_144:\n        /* \"#utility.yul\":736:813   */\n      0x4e487b7100000000000000000000000000000000000000000000000000000000\n        /* \"#utility.yul\":733:734   */\n      0x00\n        /* \"#utility.yul\":726:814   */\n      mstore\n        /* \"#utility.yul\":833:837   */\n      0x41\n        /* \"#utility.yul\":830:831   */\n      0x04\n        /* \"#utility.yul\":823:838   */\n      mstore\n        /* \"#utility.yul\":857:861   */\n      0x24\n        /* \"#utility.yul\":854:855   */\n      0x00\n        /* \"#utility.yul\":847:862   */\n      revert\n        /* \"#utility.yul\":874:1155   */\n    tag_168:\n        /* \"#utility.yul\":957:984   */\n      tag_229\n        /* \"#utility.yul\":979:983   */\n      dup3\n        /* \"#utility.yul\":957:984   */\n      tag_167\n      jump\t// in\n    tag_229:\n        /* \"#utility.yul\":949:955   */\n      dup2\n        /* \"#utility.yul\":945:985   */\n      add\n        /* \"#utility.yul\":1087:1093   */\n      dup2\n        /* \"#utility.yul\":1075:1085   */\n      dup2\n        /* \"#utility.yul\":1072:1094   */\n      lt\n        /* \"#utility.yul\":1051:1069   */\n      0xffffffffffffffff\n        /* \"#utility.yul\":1039:1049   */\n      dup3\n        /* \"#utility.yul\":1036:1070   */\n      gt\n        /* \"#utility.yul\":1033:1095   */\n      or\n        /* \"#utility.yul\":1030:1118   */\n      iszero\n      tag_230\n      jumpi\n        /* \"#utility.yul\":1098:1116   */\n      tag_231\n      tag_144\n      jump\t// in\n    tag_231:\n        /* \"#utility.yul\":1030:1118   */\n    tag_230:\n        /* \"#utility.yul\":1138:1148   */\n      dup1\n        /* \"#utility.yul\":1134:1136   */\n      0x40\n        /* \"#utility.yul\":1127:1149   */\n      mstore\n        /* \"#utility.yul\":917:1155   */\n      pop\n        /* \"#utility.yul\":874:1155   */\n      pop\n      pop\n      jump\t// out\n        /* \"#utility.yul\":1161:1290   */\n    tag_169:\n        /* \"#utility.yul\":1195:1201   */\n      0x00\n        /* \"#utility.yul\":1222:1242   */\n      tag_233\n      tag_162\n      jump\t// in\n    tag_233:\n        /* \"#utility.yul\":1212:1242   */\n      swap1\n      pop\n        /* \"#utility.yul\":1251:1284   */\n      tag_234\n        /* \"#utility.yul\":1279:1283   */\n      dup3\n        /* \"#utility.yul\":1271:1277   */\n      dup3\n        /* \"#utility.yul\":1251:1284   */\n      tag_168\n      jump\t// in\n    tag_234:\n        /* \"#utility.yul\":1161:1290   */\n      swap2\n      swap1\n      pop\n      jump\t// out\n        /* \"#utility.yul\":1296:1604   */\n    tag_170:\n        /* \"#utility.yul\":1358:1362   */\n      0x00\n        /* \"#utility.yul\":1448:1466   */\n      0xffffffffffffffff\n        /* \"#utility.yul\":1440:1446   */\n      dup3\n        /* \"#utility.yul\":1437:1467   */\n      gt\n        /* \"#utility.yul\":1434:1490   */\n      iszero\n      tag_236\n      jumpi\n        /* \"#utility.yul\":1470:1488   */\n      tag_237\n      tag_144\n      jump\t// in\n    tag_237:\n        /* \"#utility.yul\":1434:1490   */\n    tag_236:\n        /* \"#utility.yul\":1508:1537   */\n      tag_238\n        /* \"#utility.yul\":1530:1536   */\n      dup3\n        /* \"#utility.yul\":1508:1537   */\n      tag_167\n      jump\t// in\n    tag_238:\n        /* \"#utility.yul\":1500:1537   */\n      swap1\n      pop\n        /* \"#utility.yul\":1592:1596   */\n      0x20\n        /* \"#utility.yul\":1586:1590   */\n      dup2\n        /* \"#utility.yul\":1582:1597   */\n      add\n        /* \"#utility.yul\":1574:1597   */\n      swap1\n      pop\n        /* \"#utility.yul\":1296:1604   */\n      swap2\n      swap1\n      pop\n      jump\t// out\n        /* \"#utility.yul\":1610:1756   */\n    tag_171:\n        /* \"#utility.yul\":1707:1713   */\n      dup3\n        /* \"#utility.yul\":1702:1705   */\n      dup2\n        /* \"#utility.yul\":1697:1700   */\n      dup4\n        /* \"#utility.yul\":1684:1714   */\n      calldatacopy\n        /* \"#utility.yul\":1748:1749   */\n      0x00\n        /* \"#utility.yul\":1739:1745   */\n      dup4\n        /* \"#utility.yul\":1734:1737   */\n      dup4\n        /* \"#utility.yul\":1730:1746   */\n      add\n        /* \"#utility.yul\":1723:1750   */\n      mstore\n        /* \"#utility.yul\":1610:1756   */\n      pop\n      pop\n      pop\n      jump\t// out\n        /* \"#utility.yul\":1762:2187   */\n    tag_172:\n        /* \"#utility.yul\":1840:1845   */\n      0x00\n        /* \"#utility.yul\":1865:1931   */\n      tag_241\n        /* \"#utility.yul\":1881:1930   */\n      tag_242\n        /* \"#utility.yul\":1923:1929   */\n      dup5\n        /* \"#utility.yul\":1881:1930   */\n      tag_170\n      jump\t// in\n    tag_242:\n        /* \"#utility.yul\":1865:1931   */\n      tag_169\n      jump\t// in\n    tag_241:\n        /* \"#utility.yul\":1856:1931   */\n      swap1\n      pop\n        /* \"#utility.yul\":1954:1960   */\n      dup3\n        /* \"#utility.yul\":1947:1952   */\n      dup2\n        /* \"#utility.yul\":1940:1961   */\n      mstore\n        /* \"#utility.yul\":1992:1996   */\n      0x20\n        /* \"#utility.yul\":1985:1990   */\n      dup2\n        /* \"#utility.yul\":1981:1997   */\n      add\n        /* \"#utility.yul\":2030:2033   */\n      dup5\n        /* \"#utility.yul\":2021:2027   */\n      dup5\n        /* \"#utility.yul\":2016:2019   */\n      dup5\n        /* \"#utility.yul\":2012:2028   */\n      add\n        /* \"#utility.yul\":2009:2034   */\n      gt\n        /* \"#utility.yul\":2006:2118   */\n      iszero\n      tag_243\n      jumpi\n        /* \"#utility.yul\":2037:2116   */\n      tag_244\n      tag_166\n      jump\t// in\n    tag_244:\n        /* \"#utility.yul\":2006:2118   */\n    tag_243:\n        /* \"#utility.yul\":2127:2181   */\n      tag_245\n        /* \"#utility.yul\":2174:2180   */\n      dup5\n        /* \"#utility.yul\":2169:2172   */\n      dup3\n        /* \"#utility.yul\":2164:2167   */\n      dup6\n        /* \"#utility.yul\":2127:2181   */\n      tag_171\n      jump\t// in\n    tag_245:\n        /* \"#utility.yul\":1846:2187   */\n      pop\n        /* \"#utility.yul\":1762:2187   */\n      swap4\n      swap3\n      pop\n      pop\n      pop\n      jump\t// out\n        /* \"#utility.yul\":2207:2547   */\n    tag_173:\n        /* \"#utility.yul\":2263:2268   */\n      0x00\n        /* \"#utility.yul\":2312:2315   */\n      dup3\n        /* \"#utility.yul\":2305:2309   */\n      0x1f\n        /* \"#utility.yul\":2297:2303   */\n      dup4\n        /* \"#utility.yul\":2293:2310   */\n      add\n        /* \"#utility.yul\":2289:2316   */\n      slt\n        /* \"#utility.yul\":2279:2401   */\n      tag_247\n      jumpi\n        /* \"#utility.yul\":2320:2399   */\n      tag_248\n      tag_165\n      jump\t// in\n    tag_248:\n        /* \"#utility.yul\":2279:2401   */\n    tag_247:\n        /* \"#utility.yul\":2437:2443   */\n      dup2\n        /* \"#utility.yul\":2424:2444   */\n      calldataload\n        /* \"#utility.yul\":2462:2541   */\n      tag_249\n        /* \"#utility.yul\":2537:2540   */\n      dup5\n        /* \"#utility.yul\":2529:2535   */\n      dup3\n        /* \"#utility.yul\":2522:2526   */\n      0x20\n        /* \"#utility.yul\":2514:2520   */\n      dup7\n        /* \"#utility.yul\":2510:2527   */\n      add\n        /* \"#utility.yul\":2462:2541   */\n      tag_172\n      jump\t// in\n    tag_249:\n        /* \"#utility.yul\":2453:2541   */\n      swap2\n      pop\n        /* \"#utility.yul\":2269:2547   */\n      pop\n        /* \"#utility.yul\":2207:2547   */\n      swap3\n      swap2\n      pop\n      pop\n      jump\t// out\n        /* \"#utility.yul\":2553:2630   */\n    tag_174:\n        /* \"#utility.yul\":2590:2597   */\n      0x00\n        /* \"#utility.yul\":2619:2624   */\n      dup2\n        /* \"#utility.yul\":2608:2624   */\n      swap1\n      pop\n        /* \"#utility.yul\":2553:2630   */\n      swap2\n      swap1\n      pop\n      jump\t// out\n        /* \"#utility.yul\":2636:2758   */\n    tag_175:\n        /* \"#utility.yul\":2709:2733   */\n      tag_252\n        /* \"#utility.yul\":2727:2732   */\n      dup2\n        /* \"#utility.yul\":2709:2733   */\n      tag_174\n      jump\t// in\n    tag_252:\n        /* \"#utility.yul\":2702:2707   */\n      dup2\n        /* \"#utility.yul\":2699:2734   */\n      eq\n        /* \"#utility.yul\":2689:2752   */\n      tag_253\n      jumpi\n        /* \"#utility.yul\":2748:2749   */\n      0x00\n        /* \"#utility.yul\":2745:2746   */\n      dup1\n        /* \"#utility.yul\":2738:2750   */\n      revert\n        /* \"#utility.yul\":2689:2752   */\n    tag_253:\n        /* \"#utility.yul\":2636:2758   */\n      pop\n      jump\t// out\n        /* \"#utility.yul\":2764:2903   */\n    tag_176:\n        /* \"#utility.yul\":2810:2815   */\n      0x00\n        /* \"#utility.yul\":2848:2854   */\n      dup2\n        /* \"#utility.yul\":2835:2855   */\n      calldataload\n        /* \"#utility.yul\":2826:2855   */\n      swap1\n      pop\n        /* \"#utility.yul\":2864:2897   */\n      tag_255\n        /* \"#utility.yul\":2891:2896   */\n      dup2\n        /* \"#utility.yul\":2864:2897   */\n      tag_175\n      jump\t// in\n    tag_255:\n        /* \"#utility.yul\":2764:2903   */\n      swap3\n      swap2\n      pop\n      pop\n      jump\t// out\n        /* \"#utility.yul\":2909:3708   */\n    tag_18:\n        /* \"#utility.yul\":2996:3002   */\n      0x00\n        /* \"#utility.yul\":3004:3010   */\n      dup1\n        /* \"#utility.yul\":3012:3018   */\n      0x00\n        /* \"#utility.yul\":3061:3063   */\n      0x60\n        /* \"#utility.yul\":3049:3058   */\n      dup5\n        /* \"#utility.yul\":3040:3047   */\n      dup7\n        /* \"#utility.yul\":3036:3059   */\n      sub\n        /* \"#utility.yul\":3032:3064   */\n      slt\n        /* \"#utility.yul\":3029:3148   */\n      iszero\n      tag_257\n      jumpi\n        /* \"#utility.yul\":3067:3146   */\n      tag_258\n      tag_163\n      jump\t// in\n    tag_258:\n        /* \"#utility.yul\":3029:3148   */\n    tag_257:\n        /* \"#utility.yul\":3215:3216   */\n      0x00\n        /* \"#utility.yul\":3204:3213   */\n      dup5\n        /* \"#utility.yul\":3200:3217   */\n      add\n        /* \"#utility.yul\":3187:3218   */\n      calldataload\n        /* \"#utility.yul\":3245:3263   */\n      0xffffffffffffffff\n        /* \"#utility.yul\":3237:3243   */\n      dup2\n        /* \"#utility.yul\":3234:3264   */\n      gt\n        /* \"#utility.yul\":3231:3348   */\n      iszero\n      tag_259\n      jumpi\n        /* \"#utility.yul\":3267:3346   */\n      tag_260\n      tag_164\n      jump\t// in\n    tag_260:\n        /* \"#utility.yul\":3231:3348   */\n    tag_259:\n        /* \"#utility.yul\":3372:3435   */\n      tag_261\n        /* \"#utility.yul\":3427:3434   */\n      dup7\n        /* \"#utility.yul\":3418:3424   */\n      dup3\n        /* \"#utility.yul\":3407:3416   */\n      dup8\n        /* \"#utility.yul\":3403:3425   */\n      add\n        /* \"#utility.yul\":3372:3435   */\n      tag_173\n      jump\t// in\n    tag_261:\n        /* \"#utility.yul\":3362:3435   */\n      swap4\n      pop\n        /* \"#utility.yul\":3158:3445   */\n      pop\n        /* \"#utility.yul\":3484:3486   */\n      0x20\n        /* \"#utility.yul\":3510:3563   */\n      tag_262\n        /* \"#utility.yul\":3555:3562   */\n      dup7\n        /* \"#utility.yul\":3546:3552   */\n      dup3\n        /* \"#utility.yul\":3535:3544   */\n      dup8\n        /* \"#utility.yul\":3531:3553   */\n      add\n        /* \"#utility.yul\":3510:3563   */\n      tag_176\n      jump\t// in\n    tag_262:\n        /* \"#utility.yul\":3500:3563   */\n      swap3\n      pop\n        /* \"#utility.yul\":3455:3573   */\n      pop\n        /* \"#utility.yul\":3612:3614   */\n      0x40\n        /* \"#utility.yul\":3638:3691   */\n      tag_263\n        /* \"#utility.yul\":3683:3690   */\n      dup7\n        /* \"#utility.yul\":3674:3680   */\n      dup3\n        /* \"#utility.yul\":3663:3672   */\n      dup8\n        /* \"#utility.yul\":3659:3681   */\n      add\n        /* \"#utility.yul\":3638:3691   */\n      tag_176\n      jump\t// in\n    tag_263:\n        /* \"#utility.yul\":3628:3691   */\n      swap2\n      pop\n        /* \"#utility.yul\":3583:3701   */\n      pop\n        /* \"#utility.yul\":2909:3708   */\n      swap3\n      pop\n      swap3\n      pop\n      swap3\n      jump\t// out\n        /* \"#utility.yul\":3714:3804   */\n    tag_177:\n        /* \"#utility.yul\":3748:3755   */\n      0x00\n        /* \"#utility.yul\":3791:3796   */\n      dup2\n        /* \"#utility.yul\":3784:3797   */\n      iszero\n        /* \"#utility.yul\":3777:3798   */\n      iszero\n        /* \"#utility.yul\":3766:3798   */\n      swap1\n      pop\n        /* \"#utility.yul\":3714:3804   */\n      swap2\n      swap1\n      pop\n      jump\t// out\n        /* \"#utility.yul\":3810:3919   */\n    tag_178:\n        /* \"#utility.yul\":3891:3912   */\n      tag_266\n        /* \"#utility.yul\":3906:3911   */\n      dup2\n        /* \"#utility.yul\":3891:3912   */\n      tag_177\n      jump\t// in\n    tag_266:\n        /* \"#utility.yul\":3886:3889   */\n      dup3\n        /* \"#utility.yul\":3879:3913   */\n      mstore\n        /* \"#utility.yul\":3810:3919   */\n      pop\n      pop\n      jump\t// out\n        /* \"#utility.yul\":3925:4135   */\n    tag_21:\n        /* \"#utility.yul\":4012:4016   */\n      0x00\n        /* \"#utility.yul\":4050:4052   */\n      0x20\n        /* \"#utility.yul\":4039:4048   */\n      dup3\n        /* \"#utility.yul\":4035:4053   */\n      add\n        /* \"#utility.yul\":4027:4053   */\n      swap1\n      pop\n        /* \"#utility.yul\":4063:4128   */\n      tag_268\n        /* \"#utility.yul\":4125:4126   */\n      0x00\n        /* \"#utility.yul\":4114:4123   */\n      dup4\n        /* \"#utility.yul\":4110:4127   */\n      add\n        /* \"#utility.yul\":4101:4107   */\n      dup5\n        /* \"#utility.yul\":4063:4128   */\n      tag_178\n      jump\t// in\n    tag_268:\n        /* \"#utility.yul\":3925:4135   */\n      swap3\n      swap2\n      pop\n      pop\n      jump\t// out\n        /* \"#utility.yul\":4141:4470   */\n    tag_24:\n        /* \"#utility.yul\":4200:4206   */\n      0x00\n        /* \"#utility.yul\":4249:4251   */\n      0x20\n        /* \"#utility.yul\":4237:4246   */\n      dup3\n        /* \"#utility.yul\":4228:4235   */\n      dup5\n        /* \"#utility.yul\":4224:4247   */\n      sub\n        /* \"#utility.yul\":4220:4252   */\n      slt\n        /* \"#utility.yul\":4217:4336   */\n      iszero\n      tag_270\n      jumpi\n        /* \"#utility.yul\":4255:4334   */\n      tag_271\n      tag_163\n      jump\t// in\n    tag_271:\n        /* \"#utility.yul\":4217:4336   */\n    tag_270:\n        /* \"#utility.yul\":4375:4376   */\n      0x00\n        /* \"#utility.yul\":4400:4453   */\n      tag_272\n        /* \"#utility.yul\":4445:4452   */\n      dup5\n        /* \"#utility.yul\":4436:4442   */\n      dup3\n        /* \"#utility.yul\":4425:4434   */\n      dup6\n        /* \"#utility.yul\":4421:4443   */\n      add\n        /* \"#utility.yul\":4400:4453   */\n      tag_176\n      jump\t// in\n    tag_272:\n        /* \"#utility.yul\":4390:4453   */\n      swap2\n      pop\n        /* \"#utility.yul\":4346:4463   */\n      pop\n        /* \"#utility.yul\":4141:4470   */\n      swap3\n      swap2\n      pop\n      pop\n      jump\t// out\n        /* \"#utility.yul\":4476:4602   */\n    tag_179:\n        /* \"#utility.yul\":4513:4520   */\n      0x00\n        /* \"#utility.yul\":4553:4595   */\n      0xffffffffffffffffffffffffffffffffffffffff\n        /* \"#utility.yul\":4546:4551   */\n      dup3\n        /* \"#utility.yul\":4542:4596   */\n      and\n        /* \"#utility.yul\":4531:4596   */\n      swap1\n      pop\n        /* \"#utility.yul\":4476:4602   */\n      swap2\n      swap1\n      pop\n      jump\t// out\n        /* \"#utility.yul\":4608:4704   */\n    tag_180:\n        /* \"#utility.yul\":4645:4652   */\n      0x00\n        /* \"#utility.yul\":4674:4698   */\n      tag_275\n        /* \"#utility.yul\":4692:4697   */\n      dup3\n        /* \"#utility.yul\":4674:4698   */\n      tag_179\n      jump\t// in\n    tag_275:\n        /* \"#utility.yul\":4663:4698   */\n      swap1\n      pop\n        /* \"#utility.yul\":4608:4704   */\n      swap2\n      swap1\n      pop\n      jump\t// out\n        /* \"#utility.yul\":4710:4828   */\n    tag_181:\n        /* \"#utility.yul\":4797:4821   */\n      tag_277\n        /* \"#utility.yul\":4815:4820   */\n      dup2\n        /* \"#utility.yul\":4797:4821   */\n      tag_180\n      jump\t// in\n    tag_277:\n        /* \"#utility.yul\":4792:4795   */\n      dup3\n        /* \"#utility.yul\":4785:4822   */\n      mstore\n        /* \"#utility.yul\":4710:4828   */\n      pop\n      pop\n      jump\t// out\n        /* \"#utility.yul\":4834:5056   */\n    tag_27:\n        /* \"#utility.yul\":4927:4931   */\n      0x00\n        /* \"#utility.yul\":4965:4967   */\n      0x20\n        /* \"#utility.yul\":4954:4963   */\n      dup3\n        /* \"#utility.yul\":4950:4968   */\n      add\n        /* \"#utility.yul\":4942:4968   */\n      swap1\n      pop\n        /* \"#utility.yul\":4978:5049   */\n      tag_279\n        /* \"#utility.yul\":5046:5047   */\n      0x00\n        /* \"#utility.yul\":5035:5044   */\n      dup4\n        /* \"#utility.yul\":5031:5048   */\n      add\n        /* \"#utility.yul\":5022:5028   */\n      dup5\n        /* \"#utility.yul\":4978:5049   */\n      tag_181\n      jump\t// in\n    tag_279:\n        /* \"#utility.yul\":4834:5056   */\n      swap3\n      swap2\n      pop\n      pop\n      jump\t// out\n        /* \"#utility.yul\":5062:5180   */\n    tag_182:\n        /* \"#utility.yul\":5149:5173   */\n      tag_281\n        /* \"#utility.yul\":5167:5172   */\n      dup2\n        /* \"#utility.yul\":5149:5173   */\n      tag_174\n      jump\t// in\n    tag_281:\n        /* \"#utility.yul\":5144:5147   */\n      dup3\n        /* \"#utility.yul\":5137:5174   */\n      mstore\n        /* \"#utility.yul\":5062:5180   */\n      pop\n      pop\n      jump\t// out\n        /* \"#utility.yul\":5186:5408   */\n    tag_38:\n        /* \"#utility.yul\":5279:5283   */\n      0x00\n        /* \"#utility.yul\":5317:5319   */\n      0x20\n        /* \"#utility.yul\":5306:5315   */\n      dup3\n        /* \"#utility.yul\":5302:5320   */\n      add\n        /* \"#utility.yul\":5294:5320   */\n      swap1\n      pop\n        /* \"#utility.yul\":5330:5401   */\n      tag_283\n        /* \"#utility.yul\":5398:5399   */\n      0x00\n        /* \"#utility.yul\":5387:5396   */\n      dup4\n        /* \"#utility.yul\":5383:5400   */\n      add\n        /* \"#utility.yul\":5374:5380   */\n      dup5\n        /* \"#utility.yul\":5330:5401   */\n      tag_182\n      jump\t// in\n    tag_283:\n        /* \"#utility.yul\":5186:5408   */\n      swap3\n      swap2\n      pop\n      pop\n      jump\t// out\n        /* \"#utility.yul\":5414:5528   */\n    tag_183:\n        /* \"#utility.yul\":5481:5487   */\n      0x00\n        /* \"#utility.yul\":5515:5520   */\n      dup2\n        /* \"#utility.yul\":5509:5521   */\n      mload\n        /* \"#utility.yul\":5499:5521   */\n      swap1\n      pop\n        /* \"#utility.yul\":5414:5528   */\n      swap2\n      swap1\n      pop\n      jump\t// out\n        /* \"#utility.yul\":5534:5718   */\n    tag_184:\n        /* \"#utility.yul\":5633:5644   */\n      0x00\n        /* \"#utility.yul\":5667:5673   */\n      dup3\n        /* \"#utility.yul\":5662:5665   */\n      dup3\n        /* \"#utility.yul\":5655:5674   */\n      mstore\n        /* \"#utility.yul\":5707:5711   */\n      0x20\n        /* \"#utility.yul\":5702:5705   */\n      dup3\n        /* \"#utility.yul\":5698:5712   */\n      add\n        /* \"#utility.yul\":5683:5712   */\n      swap1\n      pop\n        /* \"#utility.yul\":5534:5718   */\n      swap3\n      swap2\n      pop\n      pop\n      jump\t// out\n        /* \"#utility.yul\":5724:5856   */\n    tag_185:\n        /* \"#utility.yul\":5791:5795   */\n      0x00\n        /* \"#utility.yul\":5814:5817   */\n      dup2\n        /* \"#utility.yul\":5806:5817   */\n      swap1\n      pop\n        /* \"#utility.yul\":5844:5848   */\n      0x20\n        /* \"#utility.yul\":5839:5842   */\n      dup3\n        /* \"#utility.yul\":5835:5849   */\n      add\n        /* \"#utility.yul\":5827:5849   */\n      swap1\n      pop\n        /* \"#utility.yul\":5724:5856   */\n      swap2\n      swap1\n      pop\n      jump\t// out\n        /* \"#utility.yul\":5862:5970   */\n    tag_186:\n        /* \"#utility.yul\":5939:5963   */\n      tag_288\n        /* \"#utility.yul\":5957:5962   */\n      dup2\n        /* \"#utility.yul\":5939:5963   */\n      tag_174\n      jump\t// in\n    tag_288:\n        /* \"#utility.yul\":5934:5937   */\n      dup3\n        /* \"#utility.yul\":5927:5964   */\n      mstore\n        /* \"#utility.yul\":5862:5970   */\n      pop\n      pop\n      jump\t// out\n        /* \"#utility.yul\":5976:6155   */\n    tag_187:\n        /* \"#utility.yul\":6045:6055   */\n      0x00\n        /* \"#utility.yul\":6066:6112   */\n      tag_290\n        /* \"#utility.yul\":6108:6111   */\n      dup4\n        /* \"#utility.yul\":6100:6106   */\n      dup4\n        /* \"#utility.yul\":6066:6112   */\n      tag_186\n      jump\t// in\n    tag_290:\n        /* \"#utility.yul\":6144:6148   */\n      0x20\n        /* \"#utility.yul\":6139:6142   */\n      dup4\n        /* \"#utility.yul\":6135:6149   */\n      add\n        /* \"#utility.yul\":6121:6149   */\n      swap1\n      pop\n        /* \"#utility.yul\":5976:6155   */\n      swap3\n      swap2\n      pop\n      pop\n      jump\t// out\n        /* \"#utility.yul\":6161:6274   */\n    tag_188:\n        /* \"#utility.yul\":6231:6235   */\n      0x00\n        /* \"#utility.yul\":6263:6267   */\n      0x20\n        /* \"#utility.yul\":6258:6261   */\n      dup3\n        /* \"#utility.yul\":6254:6268   */\n      add\n        /* \"#utility.yul\":6246:6268   */\n      swap1\n      pop\n        /* \"#utility.yul\":6161:6274   */\n      swap2\n      swap1\n      pop\n      jump\t// out\n        /* \"#utility.yul\":6310:7042   */\n    tag_189:\n        /* \"#utility.yul\":6429:6432   */\n      0x00\n        /* \"#utility.yul\":6458:6512   */\n      tag_293\n        /* \"#utility.yul\":6506:6511   */\n      dup3\n        /* \"#utility.yul\":6458:6512   */\n      tag_183\n      jump\t// in\n    tag_293:\n        /* \"#utility.yul\":6528:6614   */\n      tag_294\n        /* \"#utility.yul\":6607:6613   */\n      dup2\n        /* \"#utility.yul\":6602:6605   */\n      dup6\n        /* \"#utility.yul\":6528:6614   */\n      tag_184\n      jump\t// in\n    tag_294:\n        /* \"#utility.yul\":6521:6614   */\n      swap4\n      pop\n        /* \"#utility.yul\":6638:6694   */\n      tag_295\n        /* \"#utility.yul\":6688:6693   */\n      dup4\n        /* \"#utility.yul\":6638:6694   */\n      tag_185\n      jump\t// in\n    tag_295:\n        /* \"#utility.yul\":6717:6724   */\n      dup1\n        /* \"#utility.yul\":6748:6749   */\n      0x00\n        /* \"#utility.yul\":6733:7017   */\n    tag_296:\n        /* \"#utility.yul\":6758:6764   */\n      dup4\n        /* \"#utility.yul\":6755:6756   */\n      dup2\n        /* \"#utility.yul\":6752:6765   */\n      lt\n        /* \"#utility.yul\":6733:7017   */\n      iszero\n      tag_298\n      jumpi\n        /* \"#utility.yul\":6834:6840   */\n      dup2\n        /* \"#utility.yul\":6828:6841   */\n      mload\n        /* \"#utility.yul\":6861:6924   */\n      tag_299\n        /* \"#utility.yul\":6920:6923   */\n      dup9\n        /* \"#utility.yul\":6905:6918   */\n      dup3\n        /* \"#utility.yul\":6861:6924   */\n      tag_187\n      jump\t// in\n    tag_299:\n        /* \"#utility.yul\":6854:6924   */\n      swap8\n      pop\n        /* \"#utility.yul\":6947:7007   */\n      tag_300\n        /* \"#utility.yul\":7000:7006   */\n      dup4\n        /* \"#utility.yul\":6947:7007   */\n      tag_188\n      jump\t// in\n    tag_300:\n        /* \"#utility.yul\":6937:7007   */\n      swap3\n      pop\n        /* \"#utility.yul\":6793:7017   */\n      pop\n        /* \"#utility.yul\":6780:6781   */\n      0x01\n        /* \"#utility.yul\":6777:6778   */\n      dup2\n        /* \"#utility.yul\":6773:6782   */\n      add\n        /* \"#utility.yul\":6768:6782   */\n      swap1\n      pop\n        /* \"#utility.yul\":6733:7017   */\n      jump(tag_296)\n    tag_298:\n        /* \"#utility.yul\":6737:6751   */\n      pop\n        /* \"#utility.yul\":7033:7036   */\n      dup6\n        /* \"#utility.yul\":7026:7036   */\n      swap4\n      pop\n        /* \"#utility.yul\":6434:7042   */\n      pop\n      pop\n      pop\n        /* \"#utility.yul\":6310:7042   */\n      swap3\n      swap2\n      pop\n      pop\n      jump\t// out\n        /* \"#utility.yul\":7048:7421   */\n    tag_51:\n        /* \"#utility.yul\":7191:7195   */\n      0x00\n        /* \"#utility.yul\":7229:7231   */\n      0x20\n        /* \"#utility.yul\":7218:7227   */\n      dup3\n        /* \"#utility.yul\":7214:7232   */\n      add\n        /* \"#utility.yul\":7206:7232   */\n      swap1\n      pop\n        /* \"#utility.yul\":7278:7287   */\n      dup2\n        /* \"#utility.yul\":7272:7276   */\n      dup2\n        /* \"#utility.yul\":7268:7288   */\n      sub\n        /* \"#utility.yul\":7264:7265   */\n      0x00\n        /* \"#utility.yul\":7253:7262   */\n      dup4\n        /* \"#utility.yul\":7249:7266   */\n      add\n        /* \"#utility.yul\":7242:7289   */\n      mstore\n        /* \"#utility.yul\":7306:7414   */\n      tag_302\n        /* \"#utility.yul\":7409:7413   */\n      dup2\n        /* \"#utility.yul\":7400:7406   */\n      dup5\n        /* \"#utility.yul\":7306:7414   */\n      tag_189\n      jump\t// in\n    tag_302:\n        /* \"#utility.yul\":7298:7414   */\n      swap1\n      pop\n        /* \"#utility.yul\":7048:7421   */\n      swap3\n      swap2\n      pop\n      pop\n      jump\t// out\n        /* \"#utility.yul\":7427:7596   */\n    tag_190:\n        /* \"#utility.yul\":7511:7522   */\n      0x00\n        /* \"#utility.yul\":7545:7551   */\n      dup3\n        /* \"#utility.yul\":7540:7543   */\n      dup3\n        /* \"#utility.yul\":7533:7552   */\n      mstore\n        /* \"#utility.yul\":7585:7589   */\n      0x20\n        /* \"#utility.yul\":7580:7583   */\n      dup3\n        /* \"#utility.yul\":7576:7590   */\n      add\n        /* \"#utility.yul\":7561:7590   */\n      swap1\n      pop\n        /* \"#utility.yul\":7427:7596   */\n      swap3\n      swap2\n      pop\n      pop\n      jump\t// out\n        /* \"#utility.yul\":7602:7773   */\n    tag_191:\n        /* \"#utility.yul\":7742:7765   */\n      0x4e6f207375636820726f6f6d2065786973747320210000000000000000000000\n        /* \"#utility.yul\":7738:7739   */\n      0x00\n        /* \"#utility.yul\":7730:7736   */\n      dup3\n        /* \"#utility.yul\":7726:7740   */\n      add\n        /* \"#utility.yul\":7719:7766   */\n      mstore\n        /* \"#utility.yul\":7602:7773   */\n      pop\n      jump\t// out\n        /* \"#utility.yul\":7779:8145   */\n    tag_192:\n        /* \"#utility.yul\":7921:7924   */\n      0x00\n        /* \"#utility.yul\":7942:8009   */\n      tag_306\n        /* \"#utility.yul\":8006:8008   */\n      0x15\n        /* \"#utility.yul\":8001:8004   */\n      dup4\n        /* \"#utility.yul\":7942:8009   */\n      tag_190\n      jump\t// in\n    tag_306:\n        /* \"#utility.yul\":7935:8009   */\n      swap2\n      pop\n        /* \"#utility.yul\":8018:8111   */\n      tag_307\n        /* \"#utility.yul\":8107:8110   */\n      dup3\n        /* \"#utility.yul\":8018:8111   */\n      tag_191\n      jump\t// in\n    tag_307:\n        /* \"#utility.yul\":8136:8138   */\n      0x20\n        /* \"#utility.yul\":8131:8134   */\n      dup3\n        /* \"#utility.yul\":8127:8139   */\n      add\n        /* \"#utility.yul\":8120:8139   */\n      swap1\n      pop\n        /* \"#utility.yul\":7779:8145   */\n      swap2\n      swap1\n      pop\n      jump\t// out\n        /* \"#utility.yul\":8151:8570   */\n    tag_66:\n        /* \"#utility.yul\":8317:8321   */\n      0x00\n        /* \"#utility.yul\":8355:8357   */\n      0x20\n        /* \"#utility.yul\":8344:8353   */\n      dup3\n        /* \"#utility.yul\":8340:8358   */\n      add\n        /* \"#utility.yul\":8332:8358   */\n      swap1\n      pop\n        /* \"#utility.yul\":8404:8413   */\n      dup2\n        /* \"#utility.yul\":8398:8402   */\n      dup2\n        /* \"#utility.yul\":8394:8414   */\n      sub\n        /* \"#utility.yul\":8390:8391   */\n      0x00\n        /* \"#utility.yul\":8379:8388   */\n      dup4\n        /* \"#utility.yul\":8375:8392   */\n      add\n        /* \"#utility.yul\":8368:8415   */\n      mstore\n        /* \"#utility.yul\":8432:8563   */\n      tag_309\n        /* \"#utility.yul\":8558:8562   */\n      dup2\n        /* \"#utility.yul\":8432:8563   */\n      tag_192\n      jump\t// in\n    tag_309:\n        /* \"#utility.yul\":8424:8563   */\n      swap1\n      pop\n        /* \"#utility.yul\":8151:8570   */\n      swap2\n      swap1\n      pop\n      jump\t// out\n        /* \"#utility.yul\":8576:8756   */\n    tag_69:\n        /* \"#utility.yul\":8624:8701   */\n      0x4e487b7100000000000000000000000000000000000000000000000000000000\n        /* \"#utility.yul\":8621:8622   */\n      0x00\n        /* \"#utility.yul\":8614:8702   */\n      mstore\n        /* \"#utility.yul\":8721:8725   */\n      0x32\n        /* \"#utility.yul\":8718:8719   */\n      0x04\n        /* \"#utility.yul\":8711:8726   */\n      mstore\n        /* \"#utility.yul\":8745:8749   */\n      0x24\n        /* \"#utility.yul\":8742:8743   */\n      0x00\n        /* \"#utility.yul\":8735:8750   */\n      revert\n        /* \"#utility.yul\":8762:8936   */\n    tag_193:\n        /* \"#utility.yul\":8902:8928   */\n      0x526f6f6d20697320616c7265616479206f636375706965640000000000000000\n        /* \"#utility.yul\":8898:8899   */\n      0x00\n        /* \"#utility.yul\":8890:8896   */\n      dup3\n        /* \"#utility.yul\":8886:8900   */\n      add\n        /* \"#utility.yul\":8879:8929   */\n      mstore\n        /* \"#utility.yul\":8762:8936   */\n      pop\n      jump\t// out\n        /* \"#utility.yul\":8942:9308   */\n    tag_194:\n        /* \"#utility.yul\":9084:9087   */\n      0x00\n        /* \"#utility.yul\":9105:9172   */\n      tag_313\n        /* \"#utility.yul\":9169:9171   */\n      0x18\n        /* \"#utility.yul\":9164:9167   */\n      dup4\n        /* \"#utility.yul\":9105:9172   */\n      tag_190\n      jump\t// in\n    tag_313:\n        /* \"#utility.yul\":9098:9172   */\n      swap2\n      pop\n        /* \"#utility.yul\":9181:9274   */\n      tag_314\n        /* \"#utility.yul\":9270:9273   */\n      dup3\n        /* \"#utility.yul\":9181:9274   */\n      tag_193\n      jump\t// in\n    tag_314:\n        /* \"#utility.yul\":9299:9301   */\n      0x20\n        /* \"#utility.yul\":9294:9297   */\n      dup3\n        /* \"#utility.yul\":9290:9302   */\n      add\n        /* \"#utility.yul\":9283:9302   */\n      swap1\n      pop\n        /* \"#utility.yul\":8942:9308   */\n      swap2\n      swap1\n      pop\n      jump\t// out\n        /* \"#utility.yul\":9314:9733   */\n    tag_73:\n        /* \"#utility.yul\":9480:9484   */\n      0x00\n        /* \"#utility.yul\":9518:9520   */\n      0x20\n        /* \"#utility.yul\":9507:9516   */\n      dup3\n        /* \"#utility.yul\":9503:9521   */\n      add\n        /* \"#utility.yul\":9495:9521   */\n      swap1\n      pop\n        /* \"#utility.yul\":9567:9576   */\n      dup2\n        /* \"#utility.yul\":9561:9565   */\n      dup2\n        /* \"#utility.yul\":9557:9577   */\n      sub\n        /* \"#utility.yul\":9553:9554   */\n      0x00\n        /* \"#utility.yul\":9542:9551   */\n      dup4\n        /* \"#utility.yul\":9538:9555   */\n      add\n        /* \"#utility.yul\":9531:9578   */\n      mstore\n        /* \"#utility.yul\":9595:9726   */\n      tag_316\n        /* \"#utility.yul\":9721:9725   */\n      dup2\n        /* \"#utility.yul\":9595:9726   */\n      tag_194\n      jump\t// in\n    tag_316:\n        /* \"#utility.yul\":9587:9726   */\n      swap1\n      pop\n        /* \"#utility.yul\":9314:9733   */\n      swap2\n      swap1\n      pop\n      jump\t// out\n        /* \"#utility.yul\":9739:9981   */\n    tag_195:\n        /* \"#utility.yul\":9879:9913   */\n      0x596f7520616c72656164792068617665206f6e6520726f6f6d2c796f75206361\n        /* \"#utility.yul\":9875:9876   */\n      0x00\n        /* \"#utility.yul\":9867:9873   */\n      dup3\n        /* \"#utility.yul\":9863:9877   */\n      add\n        /* \"#utility.yul\":9856:9914   */\n      mstore\n        /* \"#utility.yul\":9948:9973   */\n      0x6e27742074616b6520616e6f7468657220726f6f6d2021000000000000000000\n        /* \"#utility.yul\":9943:9945   */\n      0x20\n        /* \"#utility.yul\":9935:9941   */\n      dup3\n        /* \"#utility.yul\":9931:9946   */\n      add\n        /* \"#utility.yul\":9924:9974   */\n      mstore\n        /* \"#utility.yul\":9739:9981   */\n      pop\n      jump\t// out\n        /* \"#utility.yul\":9987:10353   */\n    tag_196:\n        /* \"#utility.yul\":10129:10132   */\n      0x00\n        /* \"#utility.yul\":10150:10217   */\n      tag_319\n        /* \"#utility.yul\":10214:10216   */\n      0x37\n        /* \"#utility.yul\":10209:10212   */\n      dup4\n        /* \"#utility.yul\":10150:10217   */\n      tag_190\n      jump\t// in\n    tag_319:\n        /* \"#utility.yul\":10143:10217   */\n      swap2\n      pop\n        /* \"#utility.yul\":10226:10319   */\n      tag_320\n        /* \"#utility.yul\":10315:10318   */\n      dup3\n        /* \"#utility.yul\":10226:10319   */\n      tag_195\n      jump\t// in\n    tag_320:\n        /* \"#utility.yul\":10344:10346   */\n      0x40\n        /* \"#utility.yul\":10339:10342   */\n      dup3\n        /* \"#utility.yul\":10335:10347   */\n      add\n        /* \"#utility.yul\":10328:10347   */\n      swap1\n      pop\n        /* \"#utility.yul\":9987:10353   */\n      swap2\n      swap1\n      pop\n      jump\t// out\n        /* \"#utility.yul\":10359:10778   */\n    tag_76:\n        /* \"#utility.yul\":10525:10529   */\n      0x00\n        /* \"#utility.yul\":10563:10565   */\n      0x20\n        /* \"#utility.yul\":10552:10561   */\n      dup3\n        /* \"#utility.yul\":10548:10566   */\n      add\n        /* \"#utility.yul\":10540:10566   */\n      swap1\n      pop\n        /* \"#utility.yul\":10612:10621   */\n      dup2\n        /* \"#utility.yul\":10606:10610   */\n      dup2\n        /* \"#utility.yul\":10602:10622   */\n      sub\n        /* \"#utility.yul\":10598:10599   */\n      0x00\n        /* \"#utility.yul\":10587:10596   */\n      dup4\n        /* \"#utility.yul\":10583:10600   */\n      add\n        /* \"#utility.yul\":10576:10623   */\n      mstore\n        /* \"#utility.yul\":10640:10771   */\n      tag_322\n        /* \"#utility.yul\":10766:10770   */\n      dup2\n        /* \"#utility.yul\":10640:10771   */\n      tag_196\n      jump\t// in\n    tag_322:\n        /* \"#utility.yul\":10632:10771   */\n      swap1\n      pop\n        /* \"#utility.yul\":10359:10778   */\n      swap2\n      swap1\n      pop\n      jump\t// out\n        /* \"#utility.yul\":10784:10883   */\n    tag_197:\n        /* \"#utility.yul\":10836:10842   */\n      0x00\n        /* \"#utility.yul\":10870:10875   */\n      dup2\n        /* \"#utility.yul\":10864:10876   */\n      mload\n        /* \"#utility.yul\":10854:10876   */\n      swap1\n      pop\n        /* \"#utility.yul\":10784:10883   */\n      swap2\n      swap1\n      pop\n      jump\t// out\n        /* \"#utility.yul\":10889:11069   */\n    tag_198:\n        /* \"#utility.yul\":10937:11014   */\n      0x4e487b7100000000000000000000000000000000000000000000000000000000\n        /* \"#utility.yul\":10934:10935   */\n      0x00\n        /* \"#utility.yul\":10927:11015   */\n      mstore\n        /* \"#utility.yul\":11034:11038   */\n      0x22\n        /* \"#utility.yul\":11031:11032   */\n      0x04\n        /* \"#utility.yul\":11024:11039   */\n      mstore\n        /* \"#utility.yul\":11058:11062   */\n      0x24\n        /* \"#utility.yul\":11055:11056   */\n      0x00\n        /* \"#utility.yul\":11048:11063   */\n      revert\n        /* \"#utility.yul\":11075:11395   */\n    tag_199:\n        /* \"#utility.yul\":11119:11125   */\n      0x00\n        /* \"#utility.yul\":11156:11157   */\n      0x02\n        /* \"#utility.yul\":11150:11154   */\n      dup3\n        /* \"#utility.yul\":11146:11158   */\n      div\n        /* \"#utility.yul\":11136:11158   */\n      swap1\n      pop\n        /* \"#utility.yul\":11203:11204   */\n      0x01\n        /* \"#utility.yul\":11197:11201   */\n      dup3\n        /* \"#utility.yul\":11193:11205   */\n      and\n        /* \"#utility.yul\":11224:11242   */\n      dup1\n        /* \"#utility.yul\":11214:11295   */\n      tag_326\n      jumpi\n        /* \"#utility.yul\":11280:11284   */\n      0x7f\n        /* \"#utility.yul\":11272:11278   */\n      dup3\n        /* \"#utility.yul\":11268:11285   */\n      and\n        /* \"#utility.yul\":11258:11285   */\n      swap2\n      pop\n        /* \"#utility.yul\":11214:11295   */\n    tag_326:\n        /* \"#utility.yul\":11342:11344   */\n      0x20\n        /* \"#utility.yul\":11334:11340   */\n      dup3\n        /* \"#utility.yul\":11331:11345   */\n      lt\n        /* \"#utility.yul\":11311:11329   */\n      dup2\n        /* \"#utility.yul\":11308:11346   */\n      sub\n        /* \"#utility.yul\":11305:11389   */\n      tag_327\n      jumpi\n        /* \"#utility.yul\":11361:11379   */\n      tag_328\n      tag_198\n      jump\t// in\n    tag_328:\n        /* \"#utility.yul\":11305:11389   */\n    tag_327:\n        /* \"#utility.yul\":11126:11395   */\n      pop\n        /* \"#utility.yul\":11075:11395   */\n      swap2\n      swap1\n      pop\n      jump\t// out\n        /* \"#utility.yul\":11401:11542   */\n    tag_200:\n        /* \"#utility.yul\":11450:11454   */\n      0x00\n        /* \"#utility.yul\":11473:11476   */\n      dup2\n        /* \"#utility.yul\":11465:11476   */\n      swap1\n      pop\n        /* \"#utility.yul\":11496:11499   */\n      dup2\n        /* \"#utility.yul\":11493:11494   */\n      0x00\n        /* \"#utility.yul\":11486:11500   */\n      mstore\n        /* \"#utility.yul\":11530:11534   */\n      0x20\n        /* \"#utility.yul\":11527:11528   */\n      0x00\n        /* \"#utility.yul\":11517:11535   */\n      keccak256\n        /* \"#utility.yul\":11509:11535   */\n      swap1\n      pop\n        /* \"#utility.yul\":11401:11542   */\n      swap2\n      swap1\n      pop\n      jump\t// out\n        /* \"#utility.yul\":11548:11641   */\n    tag_201:\n        /* \"#utility.yul\":11585:11591   */\n      0x00\n        /* \"#utility.yul\":11632:11634   */\n      0x20\n        /* \"#utility.yul\":11627:11629   */\n      0x1f\n        /* \"#utility.yul\":11620:11625   */\n      dup4\n        /* \"#utility.yul\":11616:11630   */\n      add\n        /* \"#utility.yul\":11612:11635   */\n      div\n        /* \"#utility.yul\":11602:11635   */\n      swap1\n      pop\n        /* \"#utility.yul\":11548:11641   */\n      swap2\n      swap1\n      pop\n      jump\t// out\n        /* \"#utility.yul\":11647:11754   */\n    tag_202:\n        /* \"#utility.yul\":11691:11699   */\n      0x00\n        /* \"#utility.yul\":11741:11746   */\n      dup3\n        /* \"#utility.yul\":11735:11739   */\n      dup3\n        /* \"#utility.yul\":11731:11747   */\n      shl\n        /* \"#utility.yul\":11710:11747   */\n      swap1\n      pop\n        /* \"#utility.yul\":11647:11754   */\n      swap3\n      swap2\n      pop\n      pop\n      jump\t// out\n        /* \"#utility.yul\":11760:12153   */\n    tag_203:\n        /* \"#utility.yul\":11829:11835   */\n      0x00\n        /* \"#utility.yul\":11879:11880   */\n      0x08\n        /* \"#utility.yul\":11867:11877   */\n      dup4\n        /* \"#utility.yul\":11863:11881   */\n      mul\n        /* \"#utility.yul\":11902:11999   */\n      tag_333\n        /* \"#utility.yul\":11932:11998   */\n      0xffffffffffffffffffffffffffffffffffffffffffffffffffffffffffffffff\n        /* \"#utility.yul\":11921:11930   */\n      dup3\n        /* \"#utility.yul\":11902:11999   */\n      tag_202\n      jump\t// in\n    tag_333:\n        /* \"#utility.yul\":12020:12059   */\n      tag_334\n        /* \"#utility.yul\":12050:12058   */\n      dup7\n        /* \"#utility.yul\":12039:12048   */\n      dup4\n        /* \"#utility.yul\":12020:12059   */\n      tag_202\n      jump\t// in\n    tag_334:\n        /* \"#utility.yul\":12008:12059   */\n      swap6\n      pop\n        /* \"#utility.yul\":12092:12096   */\n      dup1\n        /* \"#utility.yul\":12088:12097   */\n      not\n        /* \"#utility.yul\":12081:12086   */\n      dup5\n        /* \"#utility.yul\":12077:12098   */\n      and\n        /* \"#utility.yul\":12068:12098   */\n      swap4\n      pop\n        /* \"#utility.yul\":12141:12145   */\n      dup1\n        /* \"#utility.yul\":12131:12139   */\n      dup7\n        /* \"#utility.yul\":12127:12146   */\n      and\n        /* \"#utility.yul\":12120:12125   */\n      dup5\n        /* \"#utility.yul\":12117:12147   */\n      or\n        /* \"#utility.yul\":12107:12147   */\n      swap3\n      pop\n        /* \"#utility.yul\":11836:12153   */\n      pop\n      pop\n        /* \"#utility.yul\":11760:12153   */\n      swap4\n      swap3\n      pop\n      pop\n      pop\n      jump\t// out\n        /* \"#utility.yul\":12159:12219   */\n    tag_204:\n        /* \"#utility.yul\":12187:12190   */\n      0x00\n        /* \"#utility.yul\":12208:12213   */\n      dup2\n        /* \"#utility.yul\":12201:12213   */\n      swap1\n      pop\n        /* \"#utility.yul\":12159:12219   */\n      swap2\n      swap1\n      pop\n      jump\t// out\n        /* \"#utility.yul\":12225:12367   */\n    tag_205:\n        /* \"#utility.yul\":12275:12284   */\n      0x00\n        /* \"#utility.yul\":12308:12361   */\n      tag_337\n        /* \"#utility.yul\":12326:12360   */\n      tag_338\n        /* \"#utility.yul\":12335:12359   */\n      tag_339\n        /* \"#utility.yul\":12353:12358   */\n      dup5\n        /* \"#utility.yul\":12335:12359   */\n      tag_174\n      jump\t// in\n    tag_339:\n        /* \"#utility.yul\":12326:12360   */\n      tag_204\n      jump\t// in\n    tag_338:\n        /* \"#utility.yul\":12308:12361   */\n      tag_174\n      jump\t// in\n    tag_337:\n        /* \"#utility.yul\":12295:12361   */\n      swap1\n      pop\n        /* \"#utility.yul\":12225:12367   */\n      swap2\n      swap1\n      pop\n      jump\t// out\n        /* \"#utility.yul\":12373:12448   */\n    tag_206:\n        /* \"#utility.yul\":12416:12419   */\n      0x00\n        /* \"#utility.yul\":12437:12442   */\n      dup2\n        /* \"#utility.yul\":12430:12442   */\n      swap1\n      pop\n        /* \"#utility.yul\":12373:12448   */\n      swap2\n      swap1\n      pop\n      jump\t// out\n        /* \"#utility.yul\":12454:12723   */\n    tag_207:\n        /* \"#utility.yul\":12564:12603   */\n      tag_342\n        /* \"#utility.yul\":12595:12602   */\n      dup4\n        /* \"#utility.yul\":12564:12603   */\n      tag_205\n      jump\t// in\n    tag_342:\n        /* \"#utility.yul\":12625:12716   */\n      tag_343\n        /* \"#utility.yul\":12674:12715   */\n      tag_344\n        /* \"#utility.yul\":12698:12714   */\n      dup3\n        /* \"#utility.yul\":12674:12715   */\n      tag_206\n      jump\t// in\n    tag_344:\n        /* \"#utility.yul\":12666:12672   */\n      dup5\n        /* \"#utility.yul\":12659:12663   */\n      dup5\n        /* \"#utility.yul\":12653:12664   */\n      sload\n        /* \"#utility.yul\":12625:12716   */\n      tag_203\n      jump\t// in\n    tag_343:\n        /* \"#utility.yul\":12619:12623   */\n      dup3\n        /* \"#utility.yul\":12612:12717   */\n      sstore\n        /* \"#utility.yul\":12530:12723   */\n      pop\n        /* \"#utility.yul\":12454:12723   */\n      pop\n      pop\n      pop\n      jump\t// out\n        /* \"#utility.yul\":12729:12802   */\n    tag_208:\n        /* \"#utility.yul\":12774:12777   */\n      0x00\n        /* \"#utility.yul\":12729:12802   */\n      swap1\n      jump\t// out\n        /* \"#utility.yul\":12808:12997   */\n    tag_209:\n        /* \"#utility.yul\":12885:12917   */\n      tag_347\n      tag_208\n      jump\t// in\n    tag_347:\n        /* \"#utility.yul\":12926:12991   */\n      tag_348\n        /* \"#utility.yul\":12984:12990   */\n      dup2\n        /* \"#utility.yul\":12976:12982   */\n      dup5\n        /* \"#utility.yul\":12970:12974   */\n      dup5\n        /* \"#utility.yul\":12926:12991   */\n      tag_207\n      jump\t// in\n    tag_348:\n        /* \"#utility.yul\":12861:12997   */\n      pop\n        /* \"#utility.yul\":12808:12997   */\n      pop\n      pop\n      jump\t// out\n        /* \"#utility.yul\":13003:13189   */\n    tag_210:\n        /* \"#utility.yul\":13063:13183   */\n    tag_350:\n        /* \"#utility.yul\":13080:13083   */\n      dup2\n        /* \"#utility.yul\":13073:13078   */\n      dup2\n        /* \"#utility.yul\":13070:13084   */\n      lt\n        /* \"#utility.yul\":13063:13183   */\n      iszero\n      tag_352\n      jumpi\n        /* \"#utility.yul\":13134:13173   */\n      tag_353\n        /* \"#utility.yul\":13171:13172   */\n      0x00\n        /* \"#utility.yul\":13164:13169   */\n      dup3\n        /* \"#utility.yul\":13134:13173   */\n      tag_209\n      jump\t// in\n    tag_353:\n        /* \"#utility.yul\":13107:13108   */\n      0x01\n        /* \"#utility.yul\":13100:13105   */\n      dup2\n        /* \"#utility.yul\":13096:13109   */\n      add\n        /* \"#utility.yul\":13087:13109   */\n      swap1\n      pop\n        /* \"#utility.yul\":13063:13183   */\n      jump(tag_350)\n    tag_352:\n        /* \"#utility.yul\":13003:13189   */\n      pop\n      pop\n      jump\t// out\n        /* \"#utility.yul\":13195:13738   */\n    tag_211:\n        /* \"#utility.yul\":13296:13298   */\n      0x1f\n        /* \"#utility.yul\":13291:13294   */\n      dup3\n        /* \"#utility.yul\":13288:13299   */\n      gt\n        /* \"#utility.yul\":13285:13731   */\n      iszero\n      tag_355\n      jumpi\n        /* \"#utility.yul\":13330:13368   */\n      tag_356\n        /* \"#utility.yul\":13362:13367   */\n      dup2\n        /* \"#utility.yul\":13330:13368   */\n      tag_200\n      jump\t// in\n    tag_356:\n        /* \"#utility.yul\":13414:13443   */\n      tag_357\n        /* \"#utility.yul\":13432:13442   */\n      dup5\n        /* \"#utility.yul\":13414:13443   */\n      tag_201\n      jump\t// in\n    tag_357:\n        /* \"#utility.yul\":13404:13412   */\n      dup2\n        /* \"#utility.yul\":13400:13444   */\n      add\n        /* \"#utility.yul\":13597:13599   */\n      0x20\n        /* \"#utility.yul\":13585:13595   */\n      dup6\n        /* \"#utility.yul\":13582:13600   */\n      lt\n        /* \"#utility.yul\":13579:13628   */\n      iszero\n      tag_358\n      jumpi\n        /* \"#utility.yul\":13618:13626   */\n      dup2\n        /* \"#utility.yul\":13603:13626   */\n      swap1\n      pop\n        /* \"#utility.yul\":13579:13628   */\n    tag_358:\n        /* \"#utility.yul\":13641:13721   */\n      tag_359\n        /* \"#utility.yul\":13697:13719   */\n      tag_360\n        /* \"#utility.yul\":13715:13718   */\n      dup6\n        /* \"#utility.yul\":13697:13719   */\n      tag_201\n      jump\t// in\n    tag_360:\n        /* \"#utility.yul\":13687:13695   */\n      dup4\n        /* \"#utility.yul\":13683:13720   */\n      add\n        /* \"#utility.yul\":13670:13681   */\n      dup3\n        /* \"#utility.yul\":13641:13721   */\n      tag_210\n      jump\t// in\n    tag_359:\n        /* \"#utility.yul\":13300:13731   */\n      pop\n      pop\n        /* \"#utility.yul\":13285:13731   */\n    tag_355:\n        /* \"#utility.yul\":13195:13738   */\n      pop\n      pop\n      pop\n      jump\t// out\n        /* \"#utility.yul\":13744:13861   */\n    tag_212:\n        /* \"#utility.yul\":13798:13806   */\n      0x00\n        /* \"#utility.yul\":13848:13853   */\n      dup3\n        /* \"#utility.yul\":13842:13846   */\n      dup3\n        /* \"#utility.yul\":13838:13854   */\n      shr\n        /* \"#utility.yul\":13817:13854   */\n      swap1\n      pop\n        /* \"#utility.yul\":13744:13861   */\n      swap3\n      swap2\n      pop\n      pop\n      jump\t// out\n        /* \"#utility.yul\":13867:14036   */\n    tag_213:\n        /* \"#utility.yul\":13911:13917   */\n      0x00\n        /* \"#utility.yul\":13944:13995   */\n      tag_363\n        /* \"#utility.yul\":13992:13993   */\n      0x00\n        /* \"#utility.yul\":13988:13994   */\n      not\n        /* \"#utility.yul\":13980:13985   */\n      dup5\n        /* \"#utility.yul\":13977:13978   */\n      0x08\n        /* \"#utility.yul\":13973:13986   */\n      mul\n        /* \"#utility.yul\":13944:13995   */\n      tag_212\n      jump\t// in\n    tag_363:\n        /* \"#utility.yul\":13940:13996   */\n      not\n        /* \"#utility.yul\":14025:14029   */\n      dup1\n        /* \"#utility.yul\":14019:14023   */\n      dup4\n        /* \"#utility.yul\":14015:14030   */\n      and\n        /* \"#utility.yul\":14005:14030   */\n      swap2\n      pop\n        /* \"#utility.yul\":13918:14036   */\n      pop\n        /* \"#utility.yul\":13867:14036   */\n      swap3\n      swap2\n      pop\n      pop\n      jump\t// out\n        /* \"#utility.yul\":14041:14336   */\n    tag_214:\n        /* \"#utility.yul\":14117:14121   */\n      0x00\n        /* \"#utility.yul\":14263:14292   */\n      tag_365\n        /* \"#utility.yul\":14288:14291   */\n      dup4\n        /* \"#utility.yul\":14282:14286   */\n      dup4\n        /* \"#utility.yul\":14263:14292   */\n      tag_213\n      jump\t// in\n    tag_365:\n        /* \"#utility.yul\":14255:14292   */\n      swap2\n      pop\n        /* \"#utility.yul\":14325:14328   */\n      dup3\n        /* \"#utility.yul\":14322:14323   */\n      0x02\n        /* \"#utility.yul\":14318:14329   */\n      mul\n        /* \"#utility.yul\":14312:14316   */\n      dup3\n        /* \"#utility.yul\":14309:14330   */\n      or\n        /* \"#utility.yul\":14301:14330   */\n      swap1\n      pop\n        /* \"#utility.yul\":14041:14336   */\n      swap3\n      swap2\n      pop\n      pop\n      jump\t// out\n        /* \"#utility.yul\":14341:15736   */\n    tag_80:\n        /* \"#utility.yul\":14458:14495   */\n      tag_367\n        /* \"#utility.yul\":14491:14494   */\n      dup3\n        /* \"#utility.yul\":14458:14495   */\n      tag_197\n      jump\t// in\n    tag_367:\n        /* \"#utility.yul\":14560:14578   */\n      0xffffffffffffffff\n        /* \"#utility.yul\":14552:14558   */\n      dup2\n        /* \"#utility.yul\":14549:14579   */\n      gt\n        /* \"#utility.yul\":14546:14602   */\n      iszero\n      tag_368\n      jumpi\n        /* \"#utility.yul\":14582:14600   */\n      tag_369\n      tag_144\n      jump\t// in\n    tag_369:\n        /* \"#utility.yul\":14546:14602   */\n    tag_368:\n        /* \"#utility.yul\":14626:14664   */\n      tag_370\n        /* \"#utility.yul\":14658:14662   */\n      dup3\n        /* \"#utility.yul\":14652:14663   */\n      sload\n        /* \"#utility.yul\":14626:14664   */\n      tag_199\n      jump\t// in\n    tag_370:\n        /* \"#utility.yul\":14711:14778   */\n      tag_371\n        /* \"#utility.yul\":14771:14777   */\n      dup3\n        /* \"#utility.yul\":14763:14769   */\n      dup3\n        /* \"#utility.yul\":14757:14761   */\n      dup6\n        /* \"#utility.yul\":14711:14778   */\n      tag_211\n      jump\t// in\n    tag_371:\n        /* \"#utility.yul\":14805:14806   */\n      0x00\n        /* \"#utility.yul\":14829:14833   */\n      0x20\n        /* \"#utility.yul\":14816:14833   */\n      swap1\n      pop\n        /* \"#utility.yul\":14861:14863   */\n      0x1f\n        /* \"#utility.yul\":14853:14859   */\n      dup4\n        /* \"#utility.yul\":14850:14864   */\n      gt\n        /* \"#utility.yul\":14878:14879   */\n      0x01\n        /* \"#utility.yul\":14873:15491   */\n      dup2\n      eq\n      tag_373\n      jumpi\n        /* \"#utility.yul\":15535:15536   */\n      0x00\n        /* \"#utility.yul\":15552:15558   */\n      dup5\n        /* \"#utility.yul\":15549:15626   */\n      iszero\n      tag_374\n      jumpi\n        /* \"#utility.yul\":15601:15610   */\n      dup3\n        /* \"#utility.yul\":15596:15599   */\n      dup8\n        /* \"#utility.yul\":15592:15611   */\n      add\n        /* \"#utility.yul\":15586:15612   */\n      mload\n        /* \"#utility.yul\":15577:15612   */\n      swap1\n      pop\n        /* \"#utility.yul\":15549:15626   */\n    tag_374:\n        /* \"#utility.yul\":15652:15719   */\n      tag_375\n        /* \"#utility.yul\":15712:15718   */\n      dup6\n        /* \"#utility.yul\":15705:15710   */\n      dup3\n        /* \"#utility.yul\":15652:15719   */\n      tag_214\n      jump\t// in\n    tag_375:\n        /* \"#utility.yul\":15646:15650   */\n      dup7\n        /* \"#utility.yul\":15639:15720   */\n      sstore\n        /* \"#utility.yul\":15508:15730   */\n      pop\n        /* \"#utility.yul\":14843:15730   */\n      jump(tag_372)\n        /* \"#utility.yul\":14873:15491   */\n    tag_373:\n        /* \"#utility.yul\":14925:14929   */\n      0x1f\n        /* \"#utility.yul\":14921:14930   */\n      not\n        /* \"#utility.yul\":14913:14919   */\n      dup5\n        /* \"#utility.yul\":14909:14931   */\n      and\n        /* \"#utility.yul\":14959:14996   */\n      tag_376\n        /* \"#utility.yul\":14991:14995   */\n      dup7\n        /* \"#utility.yul\":14959:14996   */\n      tag_200\n      jump\t// in\n    tag_376:\n        /* \"#utility.yul\":15018:15019   */\n      0x00\n        /* \"#utility.yul\":15032:15240   */\n    tag_377:\n        /* \"#utility.yul\":15046:15053   */\n      dup3\n        /* \"#utility.yul\":15043:15044   */\n      dup2\n        /* \"#utility.yul\":15040:15054   */\n      lt\n        /* \"#utility.yul\":15032:15240   */\n      iszero\n      tag_379\n      jumpi\n        /* \"#utility.yul\":15125:15134   */\n      dup5\n        /* \"#utility.yul\":15120:15123   */\n      dup10\n        /* \"#utility.yul\":15116:15135   */\n      add\n        /* \"#utility.yul\":15110:15136   */\n      mload\n        /* \"#utility.yul\":15102:15108   */\n      dup3\n        /* \"#utility.yul\":15095:15137   */\n      sstore\n        /* \"#utility.yul\":15176:15177   */\n      0x01\n        /* \"#utility.yul\":15168:15174   */\n      dup3\n        /* \"#utility.yul\":15164:15178   */\n      add\n        /* \"#utility.yul\":15154:15178   */\n      swap2\n      pop\n        /* \"#utility.yul\":15223:15225   */\n      0x20\n        /* \"#utility.yul\":15212:15221   */\n      dup6\n        /* \"#utility.yul\":15208:15226   */\n      add\n        /* \"#utility.yul\":15195:15226   */\n      swap5\n      pop\n        /* \"#utility.yul\":15069:15073   */\n      0x20\n        /* \"#utility.yul\":15066:15067   */\n      dup2\n        /* \"#utility.yul\":15062:15074   */\n      add\n        /* \"#utility.yul\":15057:15074   */\n      swap1\n      pop\n        /* \"#utility.yul\":15032:15240   */\n      jump(tag_377)\n    tag_379:\n        /* \"#utility.yul\":15268:15274   */\n      dup7\n        /* \"#utility.yul\":15259:15266   */\n      dup4\n        /* \"#utility.yul\":15256:15275   */\n      lt\n        /* \"#utility.yul\":15253:15432   */\n      iszero\n      tag_380\n      jumpi\n        /* \"#utility.yul\":15326:15335   */\n      dup5\n        /* \"#utility.yul\":15321:15324   */\n      dup10\n        /* \"#utility.yul\":15317:15336   */\n      add\n        /* \"#utility.yul\":15311:15337   */\n      mload\n        /* \"#utility.yul\":15369:15417   */\n      tag_381\n        /* \"#utility.yul\":15411:15415   */\n      0x1f\n        /* \"#utility.yul\":15403:15409   */\n      dup10\n        /* \"#utility.yul\":15399:15416   */\n      and\n        /* \"#utility.yul\":15388:15397   */\n      dup3\n        /* \"#utility.yul\":15369:15417   */\n      tag_213\n      jump\t// in\n    tag_381:\n        /* \"#utility.yul\":15361:15367   */\n      dup4\n        /* \"#utility.yul\":15354:15418   */\n      sstore\n        /* \"#utility.yul\":15276:15432   */\n      pop\n        /* \"#utility.yul\":15253:15432   */\n    tag_380:\n        /* \"#utility.yul\":15478:15479   */\n      0x01\n        /* \"#utility.yul\":15474:15475   */\n      0x02\n        /* \"#utility.yul\":15466:15472   */\n      dup9\n        /* \"#utility.yul\":15462:15476   */\n      mul\n        /* \"#utility.yul\":15458:15480   */\n      add\n        /* \"#utility.yul\":15452:15456   */\n      dup9\n        /* \"#utility.yul\":15445:15481   */\n      sstore\n        /* \"#utility.yul\":14880:15491   */\n      pop\n      pop\n      pop\n        /* \"#utility.yul\":14843:15730   */\n    tag_372:\n      pop\n        /* \"#utility.yul\":14433:15736   */\n      pop\n      pop\n      pop\n        /* \"#utility.yul\":14341:15736   */\n      pop\n      pop\n      jump\t// out\n        /* \"#utility.yul\":15742:15922   */\n    tag_215:\n        /* \"#utility.yul\":15790:15867   */\n      0x4e487b7100000000000000000000000000000000000000000000000000000000\n        /* \"#utility.yul\":15787:15788   */\n      0x00\n        /* \"#utility.yul\":15780:15868   */\n      mstore\n        /* \"#utility.yul\":15887:15891   */\n      0x11\n        /* \"#utility.yul\":15884:15885   */\n      0x04\n        /* \"#utility.yul\":15877:15892   */\n      mstore\n        /* \"#utility.yul\":15911:15915   */\n      0x24\n        /* \"#utility.yul\":15908:15909   */\n      0x00\n        /* \"#utility.yul\":15901:15916   */\n      revert\n        /* \"#utility.yul\":15928:16099   */\n    tag_90:\n        /* \"#utility.yul\":15967:15970   */\n      0x00\n        /* \"#utility.yul\":15990:16014   */\n      tag_384\n        /* \"#utility.yul\":16008:16013   */\n      dup3\n        /* \"#utility.yul\":15990:16014   */\n      tag_174\n      jump\t// in\n    tag_384:\n        /* \"#utility.yul\":15981:16014   */\n      swap2\n      pop\n        /* \"#utility.yul\":16036:16040   */\n      0x00\n        /* \"#utility.yul\":16029:16034   */\n      dup3\n        /* \"#utility.yul\":16026:16041   */\n      sub\n        /* \"#utility.yul\":16023:16064   */\n      tag_385\n      jumpi\n        /* \"#utility.yul\":16044:16062   */\n      tag_386\n      tag_215\n      jump\t// in\n    tag_386:\n        /* \"#utility.yul\":16023:16064   */\n    tag_385:\n        /* \"#utility.yul\":16091:16092   */\n      0x01\n        /* \"#utility.yul\":16084:16089   */\n      dup3\n        /* \"#utility.yul\":16080:16093   */\n      sub\n        /* \"#utility.yul\":16073:16093   */\n      swap1\n      pop\n        /* \"#utility.yul\":15928:16099   */\n      swap2\n      swap1\n      pop\n      jump\t// out\n        /* \"#utility.yul\":16105:16271   */\n    tag_216:\n        /* \"#utility.yul\":16245:16263   */\n      0x4e6f7420617574686572697a6564202100000000000000000000000000000000\n        /* \"#utility.yul\":16241:16242   */\n      0x00\n        /* \"#utility.yul\":16233:16239   */\n      dup3\n        /* \"#utility.yul\":16229:16243   */\n      add\n        /* \"#utility.yul\":16222:16264   */\n      mstore\n        /* \"#utility.yul\":16105:16271   */\n      pop\n      jump\t// out\n        /* \"#utility.yul\":16277:16643   */\n    tag_217:\n        /* \"#utility.yul\":16419:16422   */\n      0x00\n        /* \"#utility.yul\":16440:16507   */\n      tag_389\n        /* \"#utility.yul\":16504:16506   */\n      0x10\n        /* \"#utility.yul\":16499:16502   */\n      dup4\n        /* \"#utility.yul\":16440:16507   */\n      tag_190\n      jump\t// in\n    tag_389:\n        /* \"#utility.yul\":16433:16507   */\n      swap2\n      pop\n        /* \"#utility.yul\":16516:16609   */\n      tag_390\n        /* \"#utility.yul\":16605:16608   */\n      dup3\n        /* \"#utility.yul\":16516:16609   */\n      tag_216\n      jump\t// in\n    tag_390:\n        /* \"#utility.yul\":16634:16636   */\n      0x20\n        /* \"#utility.yul\":16629:16632   */\n      dup3\n        /* \"#utility.yul\":16625:16637   */\n      add\n        /* \"#utility.yul\":16618:16637   */\n      swap1\n      pop\n        /* \"#utility.yul\":16277:16643   */\n      swap2\n      swap1\n      pop\n      jump\t// out\n        /* \"#utility.yul\":16649:17068   */\n    tag_97:\n        /* \"#utility.yul\":16815:16819   */\n      0x00\n        /* \"#utility.yul\":16853:16855   */\n      0x20\n        /* \"#utility.yul\":16842:16851   */\n      dup3\n        /* \"#utility.yul\":16838:16856   */\n      add\n        /* \"#utility.yul\":16830:16856   */\n      swap1\n      pop\n        /* \"#utility.yul\":16902:16911   */\n      dup2\n        /* \"#utility.yul\":16896:16900   */\n      dup2\n        /* \"#utility.yul\":16892:16912   */\n      sub\n        /* \"#utility.yul\":16888:16889   */\n      0x00\n        /* \"#utility.yul\":16877:16886   */\n      dup4\n        /* \"#utility.yul\":16873:16890   */\n      add\n        /* \"#utility.yul\":16866:16913   */\n      mstore\n        /* \"#utility.yul\":16930:17061   */\n      tag_392\n        /* \"#utility.yul\":17056:17060   */\n      dup2\n        /* \"#utility.yul\":16930:17061   */\n      tag_217\n      jump\t// in\n    tag_392:\n        /* \"#utility.yul\":16922:17061   */\n      swap1\n      pop\n        /* \"#utility.yul\":16649:17068   */\n      swap2\n      swap1\n      pop\n      jump\t// out\n        /* \"#utility.yul\":17074:17307   */\n    tag_100:\n        /* \"#utility.yul\":17113:17116   */\n      0x00\n        /* \"#utility.yul\":17136:17160   */\n      tag_394\n        /* \"#utility.yul\":17154:17159   */\n      dup3\n        /* \"#utility.yul\":17136:17160   */\n      tag_174\n      jump\t// in\n    tag_394:\n        /* \"#utility.yul\":17127:17160   */\n      swap2\n      pop\n        /* \"#utility.yul\":17182:17248   */\n      0xffffffffffffffffffffffffffffffffffffffffffffffffffffffffffffffff\n        /* \"#utility.yul\":17175:17180   */\n      dup3\n        /* \"#utility.yul\":17172:17249   */\n      sub\n        /* \"#utility.yul\":17169:17272   */\n      tag_395\n      jumpi\n        /* \"#utility.yul\":17252:17270   */\n      tag_396\n      tag_215\n      jump\t// in\n    tag_396:\n        /* \"#utility.yul\":17169:17272   */\n    tag_395:\n        /* \"#utility.yul\":17299:17300   */\n      0x01\n        /* \"#utility.yul\":17292:17297   */\n      dup3\n        /* \"#utility.yul\":17288:17301   */\n      add\n        /* \"#utility.yul\":17281:17301   */\n      swap1\n      pop\n        /* \"#utility.yul\":17074:17307   */\n      swap2\n      swap1\n      pop\n      jump\t// out\n        /* \"#utility.yul\":17313:17550   */\n    tag_218:\n        /* \"#utility.yul\":17453:17487   */\n      0x536f7272792c20596f7520617265206e6f74206173736f636961746564207769\n        /* \"#utility.yul\":17449:17450   */\n      0x00\n        /* \"#utility.yul\":17441:17447   */\n      dup3\n        /* \"#utility.yul\":17437:17451   */\n      add\n        /* \"#utility.yul\":17430:17488   */\n      mstore\n        /* \"#utility.yul\":17522:17542   */\n      0x746820616e7920726f6f6d206865726520210000000000000000000000000000\n        /* \"#utility.yul\":17517:17519   */\n      0x20\n        /* \"#utility.yul\":17509:17515   */\n      dup3\n        /* \"#utility.yul\":17505:17520   */\n      add\n        /* \"#utility.yul\":17498:17543   */\n      mstore\n        /* \"#utility.yul\":17313:17550   */\n      pop\n      jump\t// out\n        /* \"#utility.yul\":17556:17922   */\n    tag_219:\n        /* \"#utility.yul\":17698:17701   */\n      0x00\n        /* \"#utility.yul\":17719:17786   */\n      tag_399\n        /* \"#utility.yul\":17783:17785   */\n      0x32\n        /* \"#utility.yul\":17778:17781   */\n      dup4\n        /* \"#utility.yul\":17719:17786   */\n      tag_190\n      jump\t// in\n    tag_399:\n        /* \"#utility.yul\":17712:17786   */\n      swap2\n      pop\n        /* \"#utility.yul\":17795:17888   */\n      tag_400\n        /* \"#utility.yul\":17884:17887   */\n      dup3\n        /* \"#utility.yul\":17795:17888   */\n      tag_218\n      jump\t// in\n    tag_400:\n        /* \"#utility.yul\":17913:17915   */\n      0x40\n        /* \"#utility.yul\":17908:17911   */\n      dup3\n        /* \"#utility.yul\":17904:17916   */\n      add\n        /* \"#utility.yul\":17897:17916   */\n      swap1\n      pop\n        /* \"#utility.yul\":17556:17922   */\n      swap2\n      swap1\n      pop\n      jump\t// out\n        /* \"#utility.yul\":17928:18347   */\n    tag_107:\n        /* \"#utility.yul\":18094:18098   */\n      0x00\n        /* \"#utility.yul\":18132:18134   */\n      0x20\n        /* \"#utility.yul\":18121:18130   */\n      dup3\n        /* \"#utility.yul\":18117:18135   */\n      add\n        /* \"#utility.yul\":18109:18135   */\n      swap1\n      pop\n        /* \"#utility.yul\":18181:18190   */\n      dup2\n        /* \"#utility.yul\":18175:18179   */\n      dup2\n        /* \"#utility.yul\":18171:18191   */\n      sub\n        /* \"#utility.yul\":18167:18168   */\n      0x00\n        /* \"#utility.yul\":18156:18165   */\n      dup4\n        /* \"#utility.yul\":18152:18169   */\n      add\n        /* \"#utility.yul\":18145:18192   */\n      mstore\n        /* \"#utility.yul\":18209:18340   */\n      tag_402\n        /* \"#utility.yul\":18335:18339   */\n      dup2\n        /* \"#utility.yul\":18209:18340   */\n      tag_219\n      jump\t// in\n    tag_402:\n        /* \"#utility.yul\":18201:18340   */\n      swap1\n      pop\n        /* \"#utility.yul\":17928:18347   */\n      swap2\n      swap1\n      pop\n      jump\t// out\n        /* \"#utility.yul\":18353:18547   */\n    tag_127:\n        /* \"#utility.yul\":18393:18397   */\n      0x00\n        /* \"#utility.yul\":18413:18433   */\n      tag_404\n        /* \"#utility.yul\":18431:18432   */\n      dup3\n        /* \"#utility.yul\":18413:18433   */\n      tag_174\n      jump\t// in\n    tag_404:\n        /* \"#utility.yul\":18408:18433   */\n      swap2\n      pop\n        /* \"#utility.yul\":18447:18467   */\n      tag_405\n        /* \"#utility.yul\":18465:18466   */\n      dup4\n        /* \"#utility.yul\":18447:18467   */\n      tag_174\n      jump\t// in\n    tag_405:\n        /* \"#utility.yul\":18442:18467   */\n      swap3\n      pop\n        /* \"#utility.yul\":18491:18492   */\n      dup3\n        /* \"#utility.yul\":18488:18489   */\n      dup3\n        /* \"#utility.yul\":18484:18493   */\n      sub\n        /* \"#utility.yul\":18476:18493   */\n      swap1\n      pop\n        /* \"#utility.yul\":18515:18516   */\n      dup2\n        /* \"#utility.yul\":18509:18513   */\n      dup2\n        /* \"#utility.yul\":18506:18517   */\n      gt\n        /* \"#utility.yul\":18503:18540   */\n      iszero\n      tag_406\n      jumpi\n        /* \"#utility.yul\":18520:18538   */\n      tag_407\n      tag_215\n      jump\t// in\n    tag_407:\n        /* \"#utility.yul\":18503:18540   */\n    tag_406:\n        /* \"#utility.yul\":18353:18547   */\n      swap3\n      swap2\n      pop\n      pop\n      jump\t// out\n        /* \"#utility.yul\":18553:18744   */\n    tag_129:\n        /* \"#utility.yul\":18593:18596   */\n      0x00\n        /* \"#utility.yul\":18612:18632   */\n      tag_409\n        /* \"#utility.yul\":18630:18631   */\n      dup3\n        /* \"#utility.yul\":18612:18632   */\n      tag_174\n      jump\t// in\n    tag_409:\n        /* \"#utility.yul\":18607:18632   */\n      swap2\n      pop\n        /* \"#utility.yul\":18646:18666   */\n      tag_410\n        /* \"#utility.yul\":18664:18665   */\n      dup4\n        /* \"#utility.yul\":18646:18666   */\n      tag_174\n      jump\t// in\n    tag_410:\n        /* \"#utility.yul\":18641:18666   */\n      swap3\n      pop\n        /* \"#utility.yul\":18689:18690   */\n      dup3\n        /* \"#utility.yul\":18686:18687   */\n      dup3\n        /* \"#utility.yul\":18682:18691   */\n      add\n        /* \"#utility.yul\":18675:18691   */\n      swap1\n      pop\n        /* \"#utility.yul\":18710:18713   */\n      dup1\n        /* \"#utility.yul\":18707:18708   */\n      dup3\n        /* \"#utility.yul\":18704:18714   */\n      gt\n        /* \"#utility.yul\":18701:18737   */\n      iszero\n      tag_411\n      jumpi\n        /* \"#utility.yul\":18717:18735   */\n      tag_412\n      tag_215\n      jump\t// in\n    tag_412:\n        /* \"#utility.yul\":18701:18737   */\n    tag_411:\n        /* \"#utility.yul\":18553:18744   */\n      swap3\n      swap2\n      pop\n      pop\n      jump\t// out\n        /* \"#utility.yul\":18750:18930   */\n    tag_139:\n        /* \"#utility.yul\":18798:18875   */\n      0x4e487b7100000000000000000000000000000000000000000000000000000000\n        /* \"#utility.yul\":18795:18796   */\n      0x00\n        /* \"#utility.yul\":18788:18876   */\n      mstore\n        /* \"#utility.yul\":18895:18899   */\n      0x31\n        /* \"#utility.yul\":18892:18893   */\n      0x04\n        /* \"#utility.yul\":18885:18900   */\n      mstore\n        /* \"#utility.yul\":18919:18923   */\n      0x24\n        /* \"#utility.yul\":18916:18917   */\n      0x00\n        /* \"#utility.yul\":18909:18924   */\n      revert\n\n    auxdata: 0xa264697066735822122096f095b7b48ad4ae588aead8ce890adea43a579eb8f36f80a4412a4785d8e3de64736f6c63430008140033\n}\n",
				"bytecode": {
					"linkReferences": {},
					"object": "6080604052600a5f55600a60015534801562000019575f80fd5b503360045f6101000a81548173ffffffffffffffffffffffffffffffffffffffff021916908373ffffffffffffffffffffffffffffffffffffffff16021790555060015467ffffffffffffffff81111562000079576200007862000291565b5b604051908082528060200260200182016040528015620000a85781602001602082028036833780820191505090505b5060029080519060200190620000c092919062000140565b5060015467ffffffffffffffff811115620000e057620000df62000291565b5b6040519080825280602002602001820160405280156200010f5781602001602082028036833780820191505090505b506003908051906020019062000127929190620001cc565b50612328600581905550612328600681905550620002be565b828054828255905f5260205f20908101928215620001b9579160200282015b82811115620001b8578251825f6101000a81548173ffffffffffffffffffffffffffffffffffffffff021916908373ffffffffffffffffffffffffffffffffffffffff160217905550916020019190600101906200015f565b5b509050620001c8919062000274565b5090565b828054828255905f5260205f2090601f0160209004810192821562000261579160200282015f5b838211156200023157835183826101000a81548160ff02191690831515021790555092602001926001016020815f01049283019260010302620001f3565b80156200025f5782816101000a81549060ff02191690556001016020815f0104928301926001030262000231565b505b50905062000270919062000274565b5090565b5b808211156200028d575f815f90555060010162000275565b5090565b7f4e487b71000000000000000000000000000000000000000000000000000000005f52604160045260245ffd5b6117f080620002cc5f395ff3fe608060405234801561000f575f80fd5b50600436106100b2575f3560e01c80638cfd3e401161006f5780638cfd3e40146101a0578063ac8f5ead146101be578063ae3c0176146101dc578063b2ae388a146101fa578063dd7ef7061461022a578063ef2ae9601461025a576100b2565b8063294c6082146100b6578063441f91d9146100e65780634c5869f61461011657806354db01b71461013457806367a52793146101645780637d0d3c6d14610182575b5f80fd5b6100d060048036038101906100cb9190610f07565b610278565b6040516100dd9190610f8d565b60405180910390f35b61010060048036038101906100fb9190610fa6565b6105d9565b60405161010d9190611010565b60405180910390f35b61011e610614565b60405161012b9190610f8d565b60405180910390f35b61014e60048036038101906101499190610fa6565b610618565b60405161015b9190610f8d565b60405180910390f35b61016c6106bb565b6040516101799190611038565b60405180910390f35b61018a6106c1565b6040516101979190610f8d565b60405180910390f35b6101a8610798565b6040516101b59190611038565b60405180910390f35b6101c661079e565b6040516101d39190610f8d565b60405180910390f35b6101e4610b9a565b6040516101f19190611108565b60405180910390f35b610214600480360381019061020f9190610fa6565b610c7b565b6040516102219190610f8d565b60405180910390f35b610244600480360381019061023f9190610fa6565b610cac565b6040516102519190610f8d565b60405180910390f35b610262610d4f565b60405161026f9190611038565b60405180910390f35b5f805482106102be577f767a686a4c3a04a95e094547835f2313a4e1fc9f6689362feb2906141a3ef0ee6040516102ae90611182565b60405180910390a15f90506105d2565b600382815481106102d2576102d16111a0565b5b905f5260205f2090602091828204019190069054906101000a900460ff1615610332577f767a686a4c3a04a95e094547835f2313a4e1fc9f6689362feb2906141a3ef0ee60405161032290611217565b60405180910390a15f90506105d2565b5f60075f3373ffffffffffffffffffffffffffffffffffffffff1673ffffffffffffffffffffffffffffffffffffffff1681526020019081526020015f206002015411156103b7577f767a686a4c3a04a95e094547835f2313a4e1fc9f6689362feb2906141a3ef0ee6040516103a7906112a5565b60405180910390a15f90506105d2565b6103bf610d55565b84815f01819052508381604001818152505082816060018181525050428160200181815250506040518060400160405280600681526020017f4a4f494e454400000000000000000000000000000000000000000000000000008152508160a001819052508060075f3373ffffffffffffffffffffffffffffffffffffffff1673ffffffffffffffffffffffffffffffffffffffff1681526020019081526020015f205f820151815f01908161047491906114c7565b506020820151816001015560408201518160020155606082015181600301556080820151816004015560a08201518160050190816104b291906114c7565b50905050600160038260600151815481106104d0576104cf6111a0565b5b905f5260205f2090602091828204019190066101000a81548160ff0219169083151502179055503360028260600151815481106105105761050f6111a0565b5b905f5260205f20015f6101000a81548173ffffffffffffffffffffffffffffffffffffffff021916908373ffffffffffffffffffffffffffffffffffffffff160217905550600833908060018154018082558091505060019003905f5260205f20015f9091909190916101000a81548173ffffffffffffffffffffffffffffffffffffffff021916908373ffffffffffffffffffffffffffffffffffffffff16021790555060015f8154809291906105c7906115c3565b919050555060019150505b9392505050565b600881815481106105e8575f80fd5b905f5260205f20015f915054906101000a900473ffffffffffffffffffffffffffffffffffffffff1681565b5f90565b5f60045f9054906101000a900473ffffffffffffffffffffffffffffffffffffffff1673ffffffffffffffffffffffffffffffffffffffff163373ffffffffffffffffffffffffffffffffffffffff16146106aa577f767a686a4c3a04a95e094547835f2313a4e1fc9f6689362feb2906141a3ef0ee60405161069a90611634565b60405180910390a15f90506106b6565b81600581905550600190505b919050565b60055481565b5f805f8154809291906106d390611652565b919050555060015f8154809291906106ea90611652565b919050555060035f908060018154018082558091505060019003905f5260205f2090602091828204019190069091909190916101000a81548160ff02191690831515021790555060025f908060018154018082558091505060019003905f5260205f20015f9091909190916101000a81548173ffffffffffffffffffffffffffffffffffffffff021916908373ffffffffffffffffffffffffffffffffffffffff1602179055506001905090565b60065481565b5f8060075f3373ffffffffffffffffffffffffffffffffffffffff1673ffffffffffffffffffffffffffffffffffffffff1681526020019081526020015f206002015403610823577f767a686a4c3a04a95e094547835f2313a4e1fc9f6689362feb2906141a3ef0ee60405161081390611709565b60405180910390a15f9050610b97565b60015f81548092919061083590611652565b91905055505f60075f3373ffffffffffffffffffffffffffffffffffffffff1673ffffffffffffffffffffffffffffffffffffffff1681526020019081526020015f206003015490505f60028281548110610893576108926111a0565b5b905f5260205f20015f6101000a81548173ffffffffffffffffffffffffffffffffffffffff021916908373ffffffffffffffffffffffffffffffffffffffff1602179055505f600382815481106108ed576108ec6111a0565b5b905f5260205f2090602091828204019190066101000a81548160ff0219169083151502179055506040518060400160405280600481526020017f4c4546540000000000000000000000000000000000000000000000000000000081525060075f3373ffffffffffffffffffffffffffffffffffffffff1673ffffffffffffffffffffffffffffffffffffffff1681526020019081526020015f20600501908161099691906114c7565b504260075f3373ffffffffffffffffffffffffffffffffffffffff1673ffffffffffffffffffffffffffffffffffffffff1681526020019081526020015f20600401819055505f60088054905090505f5b600880549050811015610a7d573373ffffffffffffffffffffffffffffffffffffffff1660088281548110610a1f57610a1e6111a0565b5b905f5260205f20015f9054906101000a900473ffffffffffffffffffffffffffffffffffffffff1673ffffffffffffffffffffffffffffffffffffffff1603610a6a57809150610a7d565b8080610a7590611652565b9150506109e7565b505b6001600880549050610a919190611727565b811015610b4c576008600182610aa7919061175a565b81548110610ab857610ab76111a0565b5b905f5260205f20015f9054906101000a900473ffffffffffffffffffffffffffffffffffffffff1660088281548110610af457610af36111a0565b5b905f5260205f20015f6101000a81548173ffffffffffffffffffffffffffffffffffffffff021916908373ffffffffffffffffffffffffffffffffffffffff1602179055508080610b4490611652565b915050610a7f565b6008805480610b5e57610b5d61178d565b5b600190038181905f5260205f20015f6101000a81549073ffffffffffffffffffffffffffffffffffffffff021916905590556001925050505b90565b60605f60015467ffffffffffffffff811115610bb957610bb8610db0565b5b604051908082528060200260200182016040528015610be75781602001602082028036833780820191505090505b5090505f805b600380549050811015610c725760038181548110610c0e57610c0d6111a0565b5b905f5260205f2090602091828204019190069054906101000a900460ff16610c5f5780838381518110610c4457610c436111a0565b5b6020026020010181815250508180610c5b90611652565b9250505b8080610c6a90611652565b915050610bed565b50819250505090565b60038181548110610c8a575f80fd5b905f5260205f209060209182820401919006915054906101000a900460ff1681565b5f60045f9054906101000a900473ffffffffffffffffffffffffffffffffffffffff1673ffffffffffffffffffffffffffffffffffffffff163373ffffffffffffffffffffffffffffffffffffffff1614610d3e577f767a686a4c3a04a95e094547835f2313a4e1fc9f6689362feb2906141a3ef0ee604051610d2e90611634565b60405180910390a15f9050610d4a565b81600681905550600190505b919050565b60015481565b6040518060c00160405280606081526020015f81526020015f81526020015f81526020015f8152602001606081525090565b5f604051905090565b5f80fd5b5f80fd5b5f80fd5b5f80fd5b5f601f19601f8301169050919050565b7f4e487b71000000000000000000000000000000000000000000000000000000005f52604160045260245ffd5b610de682610da0565b810181811067ffffffffffffffff82111715610e0557610e04610db0565b5b80604052505050565b5f610e17610d87565b9050610e238282610ddd565b919050565b5f67ffffffffffffffff821115610e4257610e41610db0565b5b610e4b82610da0565b9050602081019050919050565b828183375f83830152505050565b5f610e78610e7384610e28565b610e0e565b905082815260208101848484011115610e9457610e93610d9c565b5b610e9f848285610e58565b509392505050565b5f82601f830112610ebb57610eba610d98565b5b8135610ecb848260208601610e66565b91505092915050565b5f819050919050565b610ee681610ed4565b8114610ef0575f80fd5b50565b5f81359050610f0181610edd565b92915050565b5f805f60608486031215610f1e57610f1d610d90565b5b5f84013567ffffffffffffffff811115610f3b57610f3a610d94565b5b610f4786828701610ea7565b9350506020610f5886828701610ef3565b9250506040610f6986828701610ef3565b9150509250925092565b5f8115159050919050565b610f8781610f73565b82525050565b5f602082019050610fa05f830184610f7e565b92915050565b5f60208284031215610fbb57610fba610d90565b5b5f610fc884828501610ef3565b91505092915050565b5f73ffffffffffffffffffffffffffffffffffffffff82169050919050565b5f610ffa82610fd1565b9050919050565b61100a81610ff0565b82525050565b5f6020820190506110235f830184611001565b92915050565b61103281610ed4565b82525050565b5f60208201905061104b5f830184611029565b92915050565b5f81519050919050565b5f82825260208201905092915050565b5f819050602082019050919050565b61108381610ed4565b82525050565b5f611094838361107a565b60208301905092915050565b5f602082019050919050565b5f6110b682611051565b6110c0818561105b565b93506110cb8361106b565b805f5b838110156110fb5781516110e28882611089565b97506110ed836110a0565b9250506001810190506110ce565b5085935050505092915050565b5f6020820190508181035f83015261112081846110ac565b905092915050565b5f82825260208201905092915050565b7f4e6f207375636820726f6f6d20657869737473202100000000000000000000005f82015250565b5f61116c601583611128565b915061117782611138565b602082019050919050565b5f6020820190508181035f83015261119981611160565b9050919050565b7f4e487b71000000000000000000000000000000000000000000000000000000005f52603260045260245ffd5b7f526f6f6d20697320616c7265616479206f6363757069656400000000000000005f82015250565b5f611201601883611128565b915061120c826111cd565b602082019050919050565b5f6020820190508181035f83015261122e816111f5565b9050919050565b7f596f7520616c72656164792068617665206f6e6520726f6f6d2c796f752063615f8201527f6e27742074616b6520616e6f7468657220726f6f6d2021000000000000000000602082015250565b5f61128f603783611128565b915061129a82611235565b604082019050919050565b5f6020820190508181035f8301526112bc81611283565b9050919050565b5f81519050919050565b7f4e487b71000000000000000000000000000000000000000000000000000000005f52602260045260245ffd5b5f600282049050600182168061131157607f821691505b602082108103611324576113236112cd565b5b50919050565b5f819050815f5260205f209050919050565b5f6020601f8301049050919050565b5f82821b905092915050565b5f600883026113867fffffffffffffffffffffffffffffffffffffffffffffffffffffffffffffffff8261134b565b611390868361134b565b95508019841693508086168417925050509392505050565b5f819050919050565b5f6113cb6113c66113c184610ed4565b6113a8565b610ed4565b9050919050565b5f819050919050565b6113e4836113b1565b6113f86113f0826113d2565b848454611357565b825550505050565b5f90565b61140c611400565b6114178184846113db565b505050565b5b8181101561143a5761142f5f82611404565b60018101905061141d565b5050565b601f82111561147f576114508161132a565b6114598461133c565b81016020851015611468578190505b61147c6114748561133c565b83018261141c565b50505b505050565b5f82821c905092915050565b5f61149f5f1984600802611484565b1980831691505092915050565b5f6114b78383611490565b9150826002028217905092915050565b6114d0826112c3565b67ffffffffffffffff8111156114e9576114e8610db0565b5b6114f382546112fa565b6114fe82828561143e565b5f60209050601f83116001811461152f575f841561151d578287015190505b61152785826114ac565b86555061158e565b601f19841661153d8661132a565b5f5b828110156115645784890151825560018201915060208501945060208101905061153f565b86831015611581578489015161157d601f891682611490565b8355505b6001600288020188555050505b505050505050565b7f4e487b71000000000000000000000000000000000000000000000000000000005f52601160045260245ffd5b5f6115cd82610ed4565b91505f82036115df576115de611596565b5b600182039050919050565b7f4e6f7420617574686572697a65642021000000000000000000000000000000005f82015250565b5f61161e601083611128565b9150611629826115ea565b602082019050919050565b5f6020820190508181035f83015261164b81611612565b9050919050565b5f61165c82610ed4565b91507fffffffffffffffffffffffffffffffffffffffffffffffffffffffffffffffff820361168e5761168d611596565b5b600182019050919050565b7f536f7272792c20596f7520617265206e6f74206173736f6369617465642077695f8201527f746820616e7920726f6f6d206865726520210000000000000000000000000000602082015250565b5f6116f3603283611128565b91506116fe82611699565b604082019050919050565b5f6020820190508181035f830152611720816116e7565b9050919050565b5f61173182610ed4565b915061173c83610ed4565b925082820390508181111561175457611753611596565b5b92915050565b5f61176482610ed4565b915061176f83610ed4565b925082820190508082111561178757611786611596565b5b92915050565b7f4e487b71000000000000000000000000000000000000000000000000000000005f52603160045260245ffdfea264697066735822122096f095b7b48ad4ae588aead8ce890adea43a579eb8f36f80a4412a4785d8e3de64736f6c63430008140033",
					"opcodes": "PUSH1 0x80 PUSH1 0x40 MSTORE PUSH1 0xA PUSH0 SSTORE PUSH1 0xA PUSH1 0x1 SSTORE CALLVALUE DUP1 ISZERO PUSH3 0x19 JUMPI PUSH0 DUP1 REVERT JUMPDEST POP CALLER PUSH1 0x4 PUSH0 PUSH2 0x100 EXP DUP2 SLOAD DUP2 PUSH20 0xFFFFFFFFFFFFFFFFFFFFFFFFFFFFFFFFFFFFFFFF MUL NOT AND SWAP1 DUP4 PUSH20 0xFFFFFFFFFFFFFFFFFFFFFFFFFFFFFFFFFFFFFFFF AND MUL OR SWAP1 SSTORE POP PUSH1 0x1 SLOAD PUSH8 0xFFFFFFFFFFFFFFFF DUP2 GT ISZERO PUSH3 0x79 JUMPI PUSH3 0x78 PUSH3 0x291 JUMP JUMPDEST JUMPDEST PUSH1 0x40 MLOAD SWAP1 DUP1 DUP3 MSTORE DUP1 PUSH1 0x20 MUL PUSH1 0x20 ADD DUP3 ADD PUSH1 0x40 MSTORE DUP1 ISZERO PUSH3 0xA8 JUMPI DUP2 PUSH1 0x20 ADD PUSH1 0x20 DUP3 MUL DUP1 CALLDATASIZE DUP4 CALLDATACOPY DUP1 DUP3 ADD SWAP2 POP POP SWAP1 POP JUMPDEST POP PUSH1 0x2 SWAP1 DUP1 MLOAD SWAP1 PUSH1 0x20 ADD SWAP1 PUSH3 0xC0 SWAP3 SWAP2 SWAP1 PUSH3 0x140 JUMP JUMPDEST POP PUSH1 0x1 SLOAD PUSH8 0xFFFFFFFFFFFFFFFF DUP2 GT ISZERO PUSH3 0xE0 JUMPI PUSH3 0xDF PUSH3 0x291 JUMP JUMPDEST JUMPDEST PUSH1 0x40 MLOAD SWAP1 DUP1 DUP3 MSTORE DUP1 PUSH1 0x20 MUL PUSH1 0x20 ADD DUP3 ADD PUSH1 0x40 MSTORE DUP1 ISZERO PUSH3 0x10F JUMPI DUP2 PUSH1 0x20 ADD PUSH1 0x20 DUP3 MUL DUP1 CALLDATASIZE DUP4 CALLDATACOPY DUP1 DUP3 ADD SWAP2 POP POP SWAP1 POP JUMPDEST POP PUSH1 0x3 SWAP1 DUP1 MLOAD SWAP1 PUSH1 0x20 ADD SWAP1 PUSH3 0x127 SWAP3 SWAP2 SWAP1 PUSH3 0x1CC JUMP JUMPDEST POP PUSH2 0x2328 PUSH1 0x5 DUP2 SWAP1 SSTORE POP PUSH2 0x2328 PUSH1 0x6 DUP2 SWAP1 SSTORE POP PUSH3 0x2BE JUMP JUMPDEST DUP3 DUP1 SLOAD DUP3 DUP3 SSTORE SWAP1 PUSH0 MSTORE PUSH1 0x20 PUSH0 KECCAK256 SWAP1 DUP2 ADD SWAP3 DUP3 ISZERO PUSH3 0x1B9 JUMPI SWAP2 PUSH1 0x20 MUL DUP3 ADD JUMPDEST DUP3 DUP2 GT ISZERO PUSH3 0x1B8 JUMPI DUP3 MLOAD DUP3 PUSH0 PUSH2 0x100 EXP DUP2 SLOAD DUP2 PUSH20 0xFFFFFFFFFFFFFFFFFFFFFFFFFFFFFFFFFFFFFFFF MUL NOT AND SWAP1 DUP4 PUSH20 0xFFFFFFFFFFFFFFFFFFFFFFFFFFFFFFFFFFFFFFFF AND MUL OR SWAP1 SSTORE POP SWAP2 PUSH1 0x20 ADD SWAP2 SWAP1 PUSH1 0x1 ADD SWAP1 PUSH3 0x15F JUMP JUMPDEST JUMPDEST POP SWAP1 POP PUSH3 0x1C8 SWAP2 SWAP1 PUSH3 0x274 JUMP JUMPDEST POP SWAP1 JUMP JUMPDEST DUP3 DUP1 SLOAD DUP3 DUP3 SSTORE SWAP1 PUSH0 MSTORE PUSH1 0x20 PUSH0 KECCAK256 SWAP1 PUSH1 0x1F ADD PUSH1 0x20 SWAP1 DIV DUP2 ADD SWAP3 DUP3 ISZERO PUSH3 0x261 JUMPI SWAP2 PUSH1 0x20 MUL DUP3 ADD PUSH0 JUMPDEST DUP4 DUP3 GT ISZERO PUSH3 0x231 JUMPI DUP4 MLOAD DUP4 DUP3 PUSH2 0x100 EXP DUP2 SLOAD DUP2 PUSH1 0xFF MUL NOT AND SWAP1 DUP4 ISZERO ISZERO MUL OR SWAP1 SSTORE POP SWAP3 PUSH1 0x20 ADD SWAP3 PUSH1 0x1 ADD PUSH1 0x20 DUP2 PUSH0 ADD DIV SWAP3 DUP4 ADD SWAP3 PUSH1 0x1 SUB MUL PUSH3 0x1F3 JUMP JUMPDEST DUP1 ISZERO PUSH3 0x25F JUMPI DUP3 DUP2 PUSH2 0x100 EXP DUP2 SLOAD SWAP1 PUSH1 0xFF MUL NOT AND SWAP1 SSTORE PUSH1 0x1 ADD PUSH1 0x20 DUP2 PUSH0 ADD DIV SWAP3 DUP4 ADD SWAP3 PUSH1 0x1 SUB MUL PUSH3 0x231 JUMP JUMPDEST POP JUMPDEST POP SWAP1 POP PUSH3 0x270 SWAP2 SWAP1 PUSH3 0x274 JUMP JUMPDEST POP SWAP1 JUMP JUMPDEST JUMPDEST DUP1 DUP3 GT ISZERO PUSH3 0x28D JUMPI PUSH0 DUP2 PUSH0 SWAP1 SSTORE POP PUSH1 0x1 ADD PUSH3 0x275 JUMP JUMPDEST POP SWAP1 JUMP JUMPDEST PUSH32 0x4E487B7100000000000000000000000000000000000000000000000000000000 PUSH0 MSTORE PUSH1 0x41 PUSH1 0x4 MSTORE PUSH1 0x24 PUSH0 REVERT JUMPDEST PUSH2 0x17F0 DUP1 PUSH3 0x2CC PUSH0 CODECOPY PUSH0 RETURN INVALID PUSH1 0x80 PUSH1 0x40 MSTORE CALLVALUE DUP1 ISZERO PUSH2 0xF JUMPI PUSH0 DUP1 REVERT JUMPDEST POP PUSH1 0x4 CALLDATASIZE LT PUSH2 0xB2 JUMPI PUSH0 CALLDATALOAD PUSH1 0xE0 SHR DUP1 PUSH4 0x8CFD3E40 GT PUSH2 0x6F JUMPI DUP1 PUSH4 0x8CFD3E40 EQ PUSH2 0x1A0 JUMPI DUP1 PUSH4 0xAC8F5EAD EQ PUSH2 0x1BE JUMPI DUP1 PUSH4 0xAE3C0176 EQ PUSH2 0x1DC JUMPI DUP1 PUSH4 0xB2AE388A EQ PUSH2 0x1FA JUMPI DUP1 PUSH4 0xDD7EF706 EQ PUSH2 0x22A JUMPI DUP1 PUSH4 0xEF2AE960 EQ PUSH2 0x25A JUMPI PUSH2 0xB2 JUMP JUMPDEST DUP1 PUSH4 0x294C6082 EQ PUSH2 0xB6 JUMPI DUP1 PUSH4 0x441F91D9 EQ PUSH2 0xE6 JUMPI DUP1 PUSH4 0x4C5869F6 EQ PUSH2 0x116 JUMPI DUP1 PUSH4 0x54DB01B7 EQ PUSH2 0x134 JUMPI DUP1 PUSH4 0x67A52793 EQ PUSH2 0x164 JUMPI DUP1 PUSH4 0x7D0D3C6D EQ PUSH2 0x182 JUMPI JUMPDEST PUSH0 DUP1 REVERT JUMPDEST PUSH2 0xD0 PUSH1 0x4 DUP1 CALLDATASIZE SUB DUP2 ADD SWAP1 PUSH2 0xCB SWAP2 SWAP1 PUSH2 0xF07 JUMP JUMPDEST PUSH2 0x278 JUMP JUMPDEST PUSH1 0x40 MLOAD PUSH2 0xDD SWAP2 SWAP1 PUSH2 0xF8D JUMP JUMPDEST PUSH1 0x40 MLOAD DUP1 SWAP2 SUB SWAP1 RETURN JUMPDEST PUSH2 0x100 PUSH1 0x4 DUP1 CALLDATASIZE SUB DUP2 ADD SWAP1 PUSH2 0xFB SWAP2 SWAP1 PUSH2 0xFA6 JUMP JUMPDEST PUSH2 0x5D9 JUMP JUMPDEST PUSH1 0x40 MLOAD PUSH2 0x10D SWAP2 SWAP1 PUSH2 0x1010 JUMP JUMPDEST PUSH1 0x40 MLOAD DUP1 SWAP2 SUB SWAP1 RETURN JUMPDEST PUSH2 0x11E PUSH2 0x614 JUMP JUMPDEST PUSH1 0x40 MLOAD PUSH2 0x12B SWAP2 SWAP1 PUSH2 0xF8D JUMP JUMPDEST PUSH1 0x40 MLOAD DUP1 SWAP2 SUB SWAP1 RETURN JUMPDEST PUSH2 0x14E PUSH1 0x4 DUP1 CALLDATASIZE SUB DUP2 ADD SWAP1 PUSH2 0x149 SWAP2 SWAP1 PUSH2 0xFA6 JUMP JUMPDEST PUSH2 0x618 JUMP JUMPDEST PUSH1 0x40 MLOAD PUSH2 0x15B SWAP2 SWAP1 PUSH2 0xF8D JUMP JUMPDEST PUSH1 0x40 MLOAD DUP1 SWAP2 SUB SWAP1 RETURN JUMPDEST PUSH2 0x16C PUSH2 0x6BB JUMP JUMPDEST PUSH1 0x40 MLOAD PUSH2 0x179 SWAP2 SWAP1 PUSH2 0x1038 JUMP JUMPDEST PUSH1 0x40 MLOAD DUP1 SWAP2 SUB SWAP1 RETURN JUMPDEST PUSH2 0x18A PUSH2 0x6C1 JUMP JUMPDEST PUSH1 0x40 MLOAD PUSH2 0x197 SWAP2 SWAP1 PUSH2 0xF8D JUMP JUMPDEST PUSH1 0x40 MLOAD DUP1 SWAP2 SUB SWAP1 RETURN JUMPDEST PUSH2 0x1A8 PUSH2 0x798 JUMP JUMPDEST PUSH1 0x40 MLOAD PUSH2 0x1B5 SWAP2 SWAP1 PUSH2 0x1038 JUMP JUMPDEST PUSH1 0x40 MLOAD DUP1 SWAP2 SUB SWAP1 RETURN JUMPDEST PUSH2 0x1C6 PUSH2 0x79E JUMP JUMPDEST PUSH1 0x40 MLOAD PUSH2 0x1D3 SWAP2 SWAP1 PUSH2 0xF8D JUMP JUMPDEST PUSH1 0x40 MLOAD DUP1 SWAP2 SUB SWAP1 RETURN JUMPDEST PUSH2 0x1E4 PUSH2 0xB9A JUMP JUMPDEST PUSH1 0x40 MLOAD PUSH2 0x1F1 SWAP2 SWAP1 PUSH2 0x1108 JUMP JUMPDEST PUSH1 0x40 MLOAD DUP1 SWAP2 SUB SWAP1 RETURN JUMPDEST PUSH2 0x214 PUSH1 0x4 DUP1 CALLDATASIZE SUB DUP2 ADD SWAP1 PUSH2 0x20F SWAP2 SWAP1 PUSH2 0xFA6 JUMP JUMPDEST PUSH2 0xC7B JUMP JUMPDEST PUSH1 0x40 MLOAD PUSH2 0x221 SWAP2 SWAP1 PUSH2 0xF8D JUMP JUMPDEST PUSH1 0x40 MLOAD DUP1 SWAP2 SUB SWAP1 RETURN JUMPDEST PUSH2 0x244 PUSH1 0x4 DUP1 CALLDATASIZE SUB DUP2 ADD SWAP1 PUSH2 0x23F SWAP2 SWAP1 PUSH2 0xFA6 JUMP JUMPDEST PUSH2 0xCAC JUMP JUMPDEST PUSH1 0x40 MLOAD PUSH2 0x251 SWAP2 SWAP1 PUSH2 0xF8D JUMP JUMPDEST PUSH1 0x40 MLOAD DUP1 SWAP2 SUB SWAP1 RETURN JUMPDEST PUSH2 0x262 PUSH2 0xD4F JUMP JUMPDEST PUSH1 0x40 MLOAD PUSH2 0x26F SWAP2 SWAP1 PUSH2 0x1038 JUMP JUMPDEST PUSH1 0x40 MLOAD DUP1 SWAP2 SUB SWAP1 RETURN JUMPDEST PUSH0 DUP1 SLOAD DUP3 LT PUSH2 0x2BE JUMPI PUSH32 0x767A686A4C3A04A95E094547835F2313A4E1FC9F6689362FEB2906141A3EF0EE PUSH1 0x40 MLOAD PUSH2 0x2AE SWAP1 PUSH2 0x1182 JUMP JUMPDEST PUSH1 0x40 MLOAD DUP1 SWAP2 SUB SWAP1 LOG1 PUSH0 SWAP1 POP PUSH2 0x5D2 JUMP JUMPDEST PUSH1 0x3 DUP3 DUP2 SLOAD DUP2 LT PUSH2 0x2D2 JUMPI PUSH2 0x2D1 PUSH2 0x11A0 JUMP JUMPDEST JUMPDEST SWAP1 PUSH0 MSTORE PUSH1 0x20 PUSH0 KECCAK256 SWAP1 PUSH1 0x20 SWAP2 DUP3 DUP3 DIV ADD SWAP2 SWAP1 MOD SWAP1 SLOAD SWAP1 PUSH2 0x100 EXP SWAP1 DIV PUSH1 0xFF AND ISZERO PUSH2 0x332 JUMPI PUSH32 0x767A686A4C3A04A95E094547835F2313A4E1FC9F6689362FEB2906141A3EF0EE PUSH1 0x40 MLOAD PUSH2 0x322 SWAP1 PUSH2 0x1217 JUMP JUMPDEST PUSH1 0x40 MLOAD DUP1 SWAP2 SUB SWAP1 LOG1 PUSH0 SWAP1 POP PUSH2 0x5D2 JUMP JUMPDEST PUSH0 PUSH1 0x7 PUSH0 CALLER PUSH20 0xFFFFFFFFFFFFFFFFFFFFFFFFFFFFFFFFFFFFFFFF AND PUSH20 0xFFFFFFFFFFFFFFFFFFFFFFFFFFFFFFFFFFFFFFFF AND DUP2 MSTORE PUSH1 0x20 ADD SWAP1 DUP2 MSTORE PUSH1 0x20 ADD PUSH0 KECCAK256 PUSH1 0x2 ADD SLOAD GT ISZERO PUSH2 0x3B7 JUMPI PUSH32 0x767A686A4C3A04A95E094547835F2313A4E1FC9F6689362FEB2906141A3EF0EE PUSH1 0x40 MLOAD PUSH2 0x3A7 SWAP1 PUSH2 0x12A5 JUMP JUMPDEST PUSH1 0x40 MLOAD DUP1 SWAP2 SUB SWAP1 LOG1 PUSH0 SWAP1 POP PUSH2 0x5D2 JUMP JUMPDEST PUSH2 0x3BF PUSH2 0xD55 JUMP JUMPDEST DUP5 DUP2 PUSH0 ADD DUP2 SWAP1 MSTORE POP DUP4 DUP2 PUSH1 0x40 ADD DUP2 DUP2 MSTORE POP POP DUP3 DUP2 PUSH1 0x60 ADD DUP2 DUP2 MSTORE POP POP TIMESTAMP DUP2 PUSH1 0x20 ADD DUP2 DUP2 MSTORE POP POP PUSH1 0x40 MLOAD DUP1 PUSH1 0x40 ADD PUSH1 0x40 MSTORE DUP1 PUSH1 0x6 DUP2 MSTORE PUSH1 0x20 ADD PUSH32 0x4A4F494E45440000000000000000000000000000000000000000000000000000 DUP2 MSTORE POP DUP2 PUSH1 0xA0 ADD DUP2 SWAP1 MSTORE POP DUP1 PUSH1 0x7 PUSH0 CALLER PUSH20 0xFFFFFFFFFFFFFFFFFFFFFFFFFFFFFFFFFFFFFFFF AND PUSH20 0xFFFFFFFFFFFFFFFFFFFFFFFFFFFFFFFFFFFFFFFF AND DUP2 MSTORE PUSH1 0x20 ADD SWAP1 DUP2 MSTORE PUSH1 0x20 ADD PUSH0 KECCAK256 PUSH0 DUP3 ADD MLOAD DUP2 PUSH0 ADD SWAP1 DUP2 PUSH2 0x474 SWAP2 SWAP1 PUSH2 0x14C7 JUMP JUMPDEST POP PUSH1 0x20 DUP3 ADD MLOAD DUP2 PUSH1 0x1 ADD SSTORE PUSH1 0x40 DUP3 ADD MLOAD DUP2 PUSH1 0x2 ADD SSTORE PUSH1 0x60 DUP3 ADD MLOAD DUP2 PUSH1 0x3 ADD SSTORE PUSH1 0x80 DUP3 ADD MLOAD DUP2 PUSH1 0x4 ADD SSTORE PUSH1 0xA0 DUP3 ADD MLOAD DUP2 PUSH1 0x5 ADD SWAP1 DUP2 PUSH2 0x4B2 SWAP2 SWAP1 PUSH2 0x14C7 JUMP JUMPDEST POP SWAP1 POP POP PUSH1 0x1 PUSH1 0x3 DUP3 PUSH1 0x60 ADD MLOAD DUP2 SLOAD DUP2 LT PUSH2 0x4D0 JUMPI PUSH2 0x4CF PUSH2 0x11A0 JUMP JUMPDEST JUMPDEST SWAP1 PUSH0 MSTORE PUSH1 0x20 PUSH0 KECCAK256 SWAP1 PUSH1 0x20 SWAP2 DUP3 DUP3 DIV ADD SWAP2 SWAP1 MOD PUSH2 0x100 EXP DUP2 SLOAD DUP2 PUSH1 0xFF MUL NOT AND SWAP1 DUP4 ISZERO ISZERO MUL OR SWAP1 SSTORE POP CALLER PUSH1 0x2 DUP3 PUSH1 0x60 ADD MLOAD DUP2 SLOAD DUP2 LT PUSH2 0x510 JUMPI PUSH2 0x50F PUSH2 0x11A0 JUMP JUMPDEST JUMPDEST SWAP1 PUSH0 MSTORE PUSH1 0x20 PUSH0 KECCAK256 ADD PUSH0 PUSH2 0x100 EXP DUP2 SLOAD DUP2 PUSH20 0xFFFFFFFFFFFFFFFFFFFFFFFFFFFFFFFFFFFFFFFF MUL NOT AND SWAP1 DUP4 PUSH20 0xFFFFFFFFFFFFFFFFFFFFFFFFFFFFFFFFFFFFFFFF AND MUL OR SWAP1 SSTORE POP PUSH1 0x8 CALLER SWAP1 DUP1 PUSH1 0x1 DUP2 SLOAD ADD DUP1 DUP3 SSTORE DUP1 SWAP2 POP POP PUSH1 0x1 SWAP1 SUB SWAP1 PUSH0 MSTORE PUSH1 0x20 PUSH0 KECCAK256 ADD PUSH0 SWAP1 SWAP2 SWAP1 SWAP2 SWAP1 SWAP2 PUSH2 0x100 EXP DUP2 SLOAD DUP2 PUSH20 0xFFFFFFFFFFFFFFFFFFFFFFFFFFFFFFFFFFFFFFFF MUL NOT AND SWAP1 DUP4 PUSH20 0xFFFFFFFFFFFFFFFFFFFFFFFFFFFFFFFFFFFFFFFF AND MUL OR SWAP1 SSTORE POP PUSH1 0x1 PUSH0 DUP2 SLOAD DUP1 SWAP3 SWAP2 SWAP1 PUSH2 0x5C7 SWAP1 PUSH2 0x15C3 JUMP JUMPDEST SWAP2 SWAP1 POP SSTORE POP PUSH1 0x1 SWAP2 POP POP JUMPDEST SWAP4 SWAP3 POP POP POP JUMP JUMPDEST PUSH1 0x8 DUP2 DUP2 SLOAD DUP2 LT PUSH2 0x5E8 JUMPI PUSH0 DUP1 REVERT JUMPDEST SWAP1 PUSH0 MSTORE PUSH1 0x20 PUSH0 KECCAK256 ADD PUSH0 SWAP2 POP SLOAD SWAP1 PUSH2 0x100 EXP SWAP1 DIV PUSH20 0xFFFFFFFFFFFFFFFFFFFFFFFFFFFFFFFFFFFFFFFF AND DUP2 JUMP JUMPDEST PUSH0 SWAP1 JUMP JUMPDEST PUSH0 PUSH1 0x4 PUSH0 SWAP1 SLOAD SWAP1 PUSH2 0x100 EXP SWAP1 DIV PUSH20 0xFFFFFFFFFFFFFFFFFFFFFFFFFFFFFFFFFFFFFFFF AND PUSH20 0xFFFFFFFFFFFFFFFFFFFFFFFFFFFFFFFFFFFFFFFF AND CALLER PUSH20 0xFFFFFFFFFFFFFFFFFFFFFFFFFFFFFFFFFFFFFFFF AND EQ PUSH2 0x6AA JUMPI PUSH32 0x767A686A4C3A04A95E094547835F2313A4E1FC9F6689362FEB2906141A3EF0EE PUSH1 0x40 MLOAD PUSH2 0x69A SWAP1 PUSH2 0x1634 JUMP JUMPDEST PUSH1 0x40 MLOAD DUP1 SWAP2 SUB SWAP1 LOG1 PUSH0 SWAP1 POP PUSH2 0x6B6 JUMP JUMPDEST DUP2 PUSH1 0x5 DUP2 SWAP1 SSTORE POP PUSH1 0x1 SWAP1 POP JUMPDEST SWAP2 SWAP1 POP JUMP JUMPDEST PUSH1 0x5 SLOAD DUP2 JUMP JUMPDEST PUSH0 DUP1 PUSH0 DUP2 SLOAD DUP1 SWAP3 SWAP2 SWAP1 PUSH2 0x6D3 SWAP1 PUSH2 0x1652 JUMP JUMPDEST SWAP2 SWAP1 POP SSTORE POP PUSH1 0x1 PUSH0 DUP2 SLOAD DUP1 SWAP3 SWAP2 SWAP1 PUSH2 0x6EA SWAP1 PUSH2 0x1652 JUMP JUMPDEST SWAP2 SWAP1 POP SSTORE POP PUSH1 0x3 PUSH0 SWAP1 DUP1 PUSH1 0x1 DUP2 SLOAD ADD DUP1 DUP3 SSTORE DUP1 SWAP2 POP POP PUSH1 0x1 SWAP1 SUB SWAP1 PUSH0 MSTORE PUSH1 0x20 PUSH0 KECCAK256 SWAP1 PUSH1 0x20 SWAP2 DUP3 DUP3 DIV ADD SWAP2 SWAP1 MOD SWAP1 SWAP2 SWAP1 SWAP2 SWAP1 SWAP2 PUSH2 0x100 EXP DUP2 SLOAD DUP2 PUSH1 0xFF MUL NOT AND SWAP1 DUP4 ISZERO ISZERO MUL OR SWAP1 SSTORE POP PUSH1 0x2 PUSH0 SWAP1 DUP1 PUSH1 0x1 DUP2 SLOAD ADD DUP1 DUP3 SSTORE DUP1 SWAP2 POP POP PUSH1 0x1 SWAP1 SUB SWAP1 PUSH0 MSTORE PUSH1 0x20 PUSH0 KECCAK256 ADD PUSH0 SWAP1 SWAP2 SWAP1 SWAP2 SWAP1 SWAP2 PUSH2 0x100 EXP DUP2 SLOAD DUP2 PUSH20 0xFFFFFFFFFFFFFFFFFFFFFFFFFFFFFFFFFFFFFFFF MUL NOT AND SWAP1 DUP4 PUSH20 0xFFFFFFFFFFFFFFFFFFFFFFFFFFFFFFFFFFFFFFFF AND MUL OR SWAP1 SSTORE POP PUSH1 0x1 SWAP1 POP SWAP1 JUMP JUMPDEST PUSH1 0x6 SLOAD DUP2 JUMP JUMPDEST PUSH0 DUP1 PUSH1 0x7 PUSH0 CALLER PUSH20 0xFFFFFFFFFFFFFFFFFFFFFFFFFFFFFFFFFFFFFFFF AND PUSH20 0xFFFFFFFFFFFFFFFFFFFFFFFFFFFFFFFFFFFFFFFF AND DUP2 MSTORE PUSH1 0x20 ADD SWAP1 DUP2 MSTORE PUSH1 0x20 ADD PUSH0 KECCAK256 PUSH1 0x2 ADD SLOAD SUB PUSH2 0x823 JUMPI PUSH32 0x767A686A4C3A04A95E094547835F2313A4E1FC9F6689362FEB2906141A3EF0EE PUSH1 0x40 MLOAD PUSH2 0x813 SWAP1 PUSH2 0x1709 JUMP JUMPDEST PUSH1 0x40 MLOAD DUP1 SWAP2 SUB SWAP1 LOG1 PUSH0 SWAP1 POP PUSH2 0xB97 JUMP JUMPDEST PUSH1 0x1 PUSH0 DUP2 SLOAD DUP1 SWAP3 SWAP2 SWAP1 PUSH2 0x835 SWAP1 PUSH2 0x1652 JUMP JUMPDEST SWAP2 SWAP1 POP SSTORE POP PUSH0 PUSH1 0x7 PUSH0 CALLER PUSH20 0xFFFFFFFFFFFFFFFFFFFFFFFFFFFFFFFFFFFFFFFF AND PUSH20 0xFFFFFFFFFFFFFFFFFFFFFFFFFFFFFFFFFFFFFFFF AND DUP2 MSTORE PUSH1 0x20 ADD SWAP1 DUP2 MSTORE PUSH1 0x20 ADD PUSH0 KECCAK256 PUSH1 0x3 ADD SLOAD SWAP1 POP PUSH0 PUSH1 0x2 DUP3 DUP2 SLOAD DUP2 LT PUSH2 0x893 JUMPI PUSH2 0x892 PUSH2 0x11A0 JUMP JUMPDEST JUMPDEST SWAP1 PUSH0 MSTORE PUSH1 0x20 PUSH0 KECCAK256 ADD PUSH0 PUSH2 0x100 EXP DUP2 SLOAD DUP2 PUSH20 0xFFFFFFFFFFFFFFFFFFFFFFFFFFFFFFFFFFFFFFFF MUL NOT AND SWAP1 DUP4 PUSH20 0xFFFFFFFFFFFFFFFFFFFFFFFFFFFFFFFFFFFFFFFF AND MUL OR SWAP1 SSTORE POP PUSH0 PUSH1 0x3 DUP3 DUP2 SLOAD DUP2 LT PUSH2 0x8ED JUMPI PUSH2 0x8EC PUSH2 0x11A0 JUMP JUMPDEST JUMPDEST SWAP1 PUSH0 MSTORE PUSH1 0x20 PUSH0 KECCAK256 SWAP1 PUSH1 0x20 SWAP2 DUP3 DUP3 DIV ADD SWAP2 SWAP1 MOD PUSH2 0x100 EXP DUP2 SLOAD DUP2 PUSH1 0xFF MUL NOT AND SWAP1 DUP4 ISZERO ISZERO MUL OR SWAP1 SSTORE POP PUSH1 0x40 MLOAD DUP1 PUSH1 0x40 ADD PUSH1 0x40 MSTORE DUP1 PUSH1 0x4 DUP2 MSTORE PUSH1 0x20 ADD PUSH32 0x4C45465400000000000000000000000000000000000000000000000000000000 DUP2 MSTORE POP PUSH1 0x7 PUSH0 CALLER PUSH20 0xFFFFFFFFFFFFFFFFFFFFFFFFFFFFFFFFFFFFFFFF AND PUSH20 0xFFFFFFFFFFFFFFFFFFFFFFFFFFFFFFFFFFFFFFFF AND DUP2 MSTORE PUSH1 0x20 ADD SWAP1 DUP2 MSTORE PUSH1 0x20 ADD PUSH0 KECCAK256 PUSH1 0x5 ADD SWAP1 DUP2 PUSH2 0x996 SWAP2 SWAP1 PUSH2 0x14C7 JUMP JUMPDEST POP TIMESTAMP PUSH1 0x7 PUSH0 CALLER PUSH20 0xFFFFFFFFFFFFFFFFFFFFFFFFFFFFFFFFFFFFFFFF AND PUSH20 0xFFFFFFFFFFFFFFFFFFFFFFFFFFFFFFFFFFFFFFFF AND DUP2 MSTORE PUSH1 0x20 ADD SWAP1 DUP2 MSTORE PUSH1 0x20 ADD PUSH0 KECCAK256 PUSH1 0x4 ADD DUP2 SWAP1 SSTORE POP PUSH0 PUSH1 0x8 DUP1 SLOAD SWAP1 POP SWAP1 POP PUSH0 JUMPDEST PUSH1 0x8 DUP1 SLOAD SWAP1 POP DUP2 LT ISZERO PUSH2 0xA7D JUMPI CALLER PUSH20 0xFFFFFFFFFFFFFFFFFFFFFFFFFFFFFFFFFFFFFFFF AND PUSH1 0x8 DUP3 DUP2 SLOAD DUP2 LT PUSH2 0xA1F JUMPI PUSH2 0xA1E PUSH2 0x11A0 JUMP JUMPDEST JUMPDEST SWAP1 PUSH0 MSTORE PUSH1 0x20 PUSH0 KECCAK256 ADD PUSH0 SWAP1 SLOAD SWAP1 PUSH2 0x100 EXP SWAP1 DIV PUSH20 0xFFFFFFFFFFFFFFFFFFFFFFFFFFFFFFFFFFFFFFFF AND PUSH20 0xFFFFFFFFFFFFFFFFFFFFFFFFFFFFFFFFFFFFFFFF AND SUB PUSH2 0xA6A JUMPI DUP1 SWAP2 POP PUSH2 0xA7D JUMP JUMPDEST DUP1 DUP1 PUSH2 0xA75 SWAP1 PUSH2 0x1652 JUMP JUMPDEST SWAP2 POP POP PUSH2 0x9E7 JUMP JUMPDEST POP JUMPDEST PUSH1 0x1 PUSH1 0x8 DUP1 SLOAD SWAP1 POP PUSH2 0xA91 SWAP2 SWAP1 PUSH2 0x1727 JUMP JUMPDEST DUP2 LT ISZERO PUSH2 0xB4C JUMPI PUSH1 0x8 PUSH1 0x1 DUP3 PUSH2 0xAA7 SWAP2 SWAP1 PUSH2 0x175A JUMP JUMPDEST DUP2 SLOAD DUP2 LT PUSH2 0xAB8 JUMPI PUSH2 0xAB7 PUSH2 0x11A0 JUMP JUMPDEST JUMPDEST SWAP1 PUSH0 MSTORE PUSH1 0x20 PUSH0 KECCAK256 ADD PUSH0 SWAP1 SLOAD SWAP1 PUSH2 0x100 EXP SWAP1 DIV PUSH20 0xFFFFFFFFFFFFFFFFFFFFFFFFFFFFFFFFFFFFFFFF AND PUSH1 0x8 DUP3 DUP2 SLOAD DUP2 LT PUSH2 0xAF4 JUMPI PUSH2 0xAF3 PUSH2 0x11A0 JUMP JUMPDEST JUMPDEST SWAP1 PUSH0 MSTORE PUSH1 0x20 PUSH0 KECCAK256 ADD PUSH0 PUSH2 0x100 EXP DUP2 SLOAD DUP2 PUSH20 0xFFFFFFFFFFFFFFFFFFFFFFFFFFFFFFFFFFFFFFFF MUL NOT AND SWAP1 DUP4 PUSH20 0xFFFFFFFFFFFFFFFFFFFFFFFFFFFFFFFFFFFFFFFF AND MUL OR SWAP1 SSTORE POP DUP1 DUP1 PUSH2 0xB44 SWAP1 PUSH2 0x1652 JUMP JUMPDEST SWAP2 POP POP PUSH2 0xA7F JUMP JUMPDEST PUSH1 0x8 DUP1 SLOAD DUP1 PUSH2 0xB5E JUMPI PUSH2 0xB5D PUSH2 0x178D JUMP JUMPDEST JUMPDEST PUSH1 0x1 SWAP1 SUB DUP2 DUP2 SWAP1 PUSH0 MSTORE PUSH1 0x20 PUSH0 KECCAK256 ADD PUSH0 PUSH2 0x100 EXP DUP2 SLOAD SWAP1 PUSH20 0xFFFFFFFFFFFFFFFFFFFFFFFFFFFFFFFFFFFFFFFF MUL NOT AND SWAP1 SSTORE SWAP1 SSTORE PUSH1 0x1 SWAP3 POP POP POP JUMPDEST SWAP1 JUMP JUMPDEST PUSH1 0x60 PUSH0 PUSH1 0x1 SLOAD PUSH8 0xFFFFFFFFFFFFFFFF DUP2 GT ISZERO PUSH2 0xBB9 JUMPI PUSH2 0xBB8 PUSH2 0xDB0 JUMP JUMPDEST JUMPDEST PUSH1 0x40 MLOAD SWAP1 DUP1 DUP3 MSTORE DUP1 PUSH1 0x20 MUL PUSH1 0x20 ADD DUP3 ADD PUSH1 0x40 MSTORE DUP1 ISZERO PUSH2 0xBE7 JUMPI DUP2 PUSH1 0x20 ADD PUSH1 0x20 DUP3 MUL DUP1 CALLDATASIZE DUP4 CALLDATACOPY DUP1 DUP3 ADD SWAP2 POP POP SWAP1 POP JUMPDEST POP SWAP1 POP PUSH0 DUP1 JUMPDEST PUSH1 0x3 DUP1 SLOAD SWAP1 POP DUP2 LT ISZERO PUSH2 0xC72 JUMPI PUSH1 0x3 DUP2 DUP2 SLOAD DUP2 LT PUSH2 0xC0E JUMPI PUSH2 0xC0D PUSH2 0x11A0 JUMP JUMPDEST JUMPDEST SWAP1 PUSH0 MSTORE PUSH1 0x20 PUSH0 KECCAK256 SWAP1 PUSH1 0x20 SWAP2 DUP3 DUP3 DIV ADD SWAP2 SWAP1 MOD SWAP1 SLOAD SWAP1 PUSH2 0x100 EXP SWAP1 DIV PUSH1 0xFF AND PUSH2 0xC5F JUMPI DUP1 DUP4 DUP4 DUP2 MLOAD DUP2 LT PUSH2 0xC44 JUMPI PUSH2 0xC43 PUSH2 0x11A0 JUMP JUMPDEST JUMPDEST PUSH1 0x20 MUL PUSH1 0x20 ADD ADD DUP2 DUP2 MSTORE POP POP DUP2 DUP1 PUSH2 0xC5B SWAP1 PUSH2 0x1652 JUMP JUMPDEST SWAP3 POP POP JUMPDEST DUP1 DUP1 PUSH2 0xC6A SWAP1 PUSH2 0x1652 JUMP JUMPDEST SWAP2 POP POP PUSH2 0xBED JUMP JUMPDEST POP DUP2 SWAP3 POP POP POP SWAP1 JUMP JUMPDEST PUSH1 0x3 DUP2 DUP2 SLOAD DUP2 LT PUSH2 0xC8A JUMPI PUSH0 DUP1 REVERT JUMPDEST SWAP1 PUSH0 MSTORE PUSH1 0x20 PUSH0 KECCAK256 SWAP1 PUSH1 0x20 SWAP2 DUP3 DUP3 DIV ADD SWAP2 SWAP1 MOD SWAP2 POP SLOAD SWAP1 PUSH2 0x100 EXP SWAP1 DIV PUSH1 0xFF AND DUP2 JUMP JUMPDEST PUSH0 PUSH1 0x4 PUSH0 SWAP1 SLOAD SWAP1 PUSH2 0x100 EXP SWAP1 DIV PUSH20 0xFFFFFFFFFFFFFFFFFFFFFFFFFFFFFFFFFFFFFFFF AND PUSH20 0xFFFFFFFFFFFFFFFFFFFFFFFFFFFFFFFFFFFFFFFF AND CALLER PUSH20 0xFFFFFFFFFFFFFFFFFFFFFFFFFFFFFFFFFFFFFFFF AND EQ PUSH2 0xD3E JUMPI PUSH32 0x767A686A4C3A04A95E094547835F2313A4E1FC9F6689362FEB2906141A3EF0EE PUSH1 0x40 MLOAD PUSH2 0xD2E SWAP1 PUSH2 0x1634 JUMP JUMPDEST PUSH1 0x40 MLOAD DUP1 SWAP2 SUB SWAP1 LOG1 PUSH0 SWAP1 POP PUSH2 0xD4A JUMP JUMPDEST DUP2 PUSH1 0x6 DUP2 SWAP1 SSTORE POP PUSH1 0x1 SWAP1 POP JUMPDEST SWAP2 SWAP1 POP JUMP JUMPDEST PUSH1 0x1 SLOAD DUP2 JUMP JUMPDEST PUSH1 0x40 MLOAD DUP1 PUSH1 0xC0 ADD PUSH1 0x40 MSTORE DUP1 PUSH1 0x60 DUP2 MSTORE PUSH1 0x20 ADD PUSH0 DUP2 MSTORE PUSH1 0x20 ADD PUSH0 DUP2 MSTORE PUSH1 0x20 ADD PUSH0 DUP2 MSTORE PUSH1 0x20 ADD PUSH0 DUP2 MSTORE PUSH1 0x20 ADD PUSH1 0x60 DUP2 MSTORE POP SWAP1 JUMP JUMPDEST PUSH0 PUSH1 0x40 MLOAD SWAP1 POP SWAP1 JUMP JUMPDEST PUSH0 DUP1 REVERT JUMPDEST PUSH0 DUP1 REVERT JUMPDEST PUSH0 DUP1 REVERT JUMPDEST PUSH0 DUP1 REVERT JUMPDEST PUSH0 PUSH1 0x1F NOT PUSH1 0x1F DUP4 ADD AND SWAP1 POP SWAP2 SWAP1 POP JUMP JUMPDEST PUSH32 0x4E487B7100000000000000000000000000000000000000000000000000000000 PUSH0 MSTORE PUSH1 0x41 PUSH1 0x4 MSTORE PUSH1 0x24 PUSH0 REVERT JUMPDEST PUSH2 0xDE6 DUP3 PUSH2 0xDA0 JUMP JUMPDEST DUP2 ADD DUP2 DUP2 LT PUSH8 0xFFFFFFFFFFFFFFFF DUP3 GT OR ISZERO PUSH2 0xE05 JUMPI PUSH2 0xE04 PUSH2 0xDB0 JUMP JUMPDEST JUMPDEST DUP1 PUSH1 0x40 MSTORE POP POP POP JUMP JUMPDEST PUSH0 PUSH2 0xE17 PUSH2 0xD87 JUMP JUMPDEST SWAP1 POP PUSH2 0xE23 DUP3 DUP3 PUSH2 0xDDD JUMP JUMPDEST SWAP2 SWAP1 POP JUMP JUMPDEST PUSH0 PUSH8 0xFFFFFFFFFFFFFFFF DUP3 GT ISZERO PUSH2 0xE42 JUMPI PUSH2 0xE41 PUSH2 0xDB0 JUMP JUMPDEST JUMPDEST PUSH2 0xE4B DUP3 PUSH2 0xDA0 JUMP JUMPDEST SWAP1 POP PUSH1 0x20 DUP2 ADD SWAP1 POP SWAP2 SWAP1 POP JUMP JUMPDEST DUP3 DUP2 DUP4 CALLDATACOPY PUSH0 DUP4 DUP4 ADD MSTORE POP POP POP JUMP JUMPDEST PUSH0 PUSH2 0xE78 PUSH2 0xE73 DUP5 PUSH2 0xE28 JUMP JUMPDEST PUSH2 0xE0E JUMP JUMPDEST SWAP1 POP DUP3 DUP2 MSTORE PUSH1 0x20 DUP2 ADD DUP5 DUP5 DUP5 ADD GT ISZERO PUSH2 0xE94 JUMPI PUSH2 0xE93 PUSH2 0xD9C JUMP JUMPDEST JUMPDEST PUSH2 0xE9F DUP5 DUP3 DUP6 PUSH2 0xE58 JUMP JUMPDEST POP SWAP4 SWAP3 POP POP POP JUMP JUMPDEST PUSH0 DUP3 PUSH1 0x1F DUP4 ADD SLT PUSH2 0xEBB JUMPI PUSH2 0xEBA PUSH2 0xD98 JUMP JUMPDEST JUMPDEST DUP2 CALLDATALOAD PUSH2 0xECB DUP5 DUP3 PUSH1 0x20 DUP7 ADD PUSH2 0xE66 JUMP JUMPDEST SWAP2 POP POP SWAP3 SWAP2 POP POP JUMP JUMPDEST PUSH0 DUP2 SWAP1 POP SWAP2 SWAP1 POP JUMP JUMPDEST PUSH2 0xEE6 DUP2 PUSH2 0xED4 JUMP JUMPDEST DUP2 EQ PUSH2 0xEF0 JUMPI PUSH0 DUP1 REVERT JUMPDEST POP JUMP JUMPDEST PUSH0 DUP2 CALLDATALOAD SWAP1 POP PUSH2 0xF01 DUP2 PUSH2 0xEDD JUMP JUMPDEST SWAP3 SWAP2 POP POP JUMP JUMPDEST PUSH0 DUP1 PUSH0 PUSH1 0x60 DUP5 DUP7 SUB SLT ISZERO PUSH2 0xF1E JUMPI PUSH2 0xF1D PUSH2 0xD90 JUMP JUMPDEST JUMPDEST PUSH0 DUP5 ADD CALLDATALOAD PUSH8 0xFFFFFFFFFFFFFFFF DUP2 GT ISZERO PUSH2 0xF3B JUMPI PUSH2 0xF3A PUSH2 0xD94 JUMP JUMPDEST JUMPDEST PUSH2 0xF47 DUP7 DUP3 DUP8 ADD PUSH2 0xEA7 JUMP JUMPDEST SWAP4 POP POP PUSH1 0x20 PUSH2 0xF58 DUP7 DUP3 DUP8 ADD PUSH2 0xEF3 JUMP JUMPDEST SWAP3 POP POP PUSH1 0x40 PUSH2 0xF69 DUP7 DUP3 DUP8 ADD PUSH2 0xEF3 JUMP JUMPDEST SWAP2 POP POP SWAP3 POP SWAP3 POP SWAP3 JUMP JUMPDEST PUSH0 DUP2 ISZERO ISZERO SWAP1 POP SWAP2 SWAP1 POP JUMP JUMPDEST PUSH2 0xF87 DUP2 PUSH2 0xF73 JUMP JUMPDEST DUP3 MSTORE POP POP JUMP JUMPDEST PUSH0 PUSH1 0x20 DUP3 ADD SWAP1 POP PUSH2 0xFA0 PUSH0 DUP4 ADD DUP5 PUSH2 0xF7E JUMP JUMPDEST SWAP3 SWAP2 POP POP JUMP JUMPDEST PUSH0 PUSH1 0x20 DUP3 DUP5 SUB SLT ISZERO PUSH2 0xFBB JUMPI PUSH2 0xFBA PUSH2 0xD90 JUMP JUMPDEST JUMPDEST PUSH0 PUSH2 0xFC8 DUP5 DUP3 DUP6 ADD PUSH2 0xEF3 JUMP JUMPDEST SWAP2 POP POP SWAP3 SWAP2 POP POP JUMP JUMPDEST PUSH0 PUSH20 0xFFFFFFFFFFFFFFFFFFFFFFFFFFFFFFFFFFFFFFFF DUP3 AND SWAP1 POP SWAP2 SWAP1 POP JUMP JUMPDEST PUSH0 PUSH2 0xFFA DUP3 PUSH2 0xFD1 JUMP JUMPDEST SWAP1 POP SWAP2 SWAP1 POP JUMP JUMPDEST PUSH2 0x100A DUP2 PUSH2 0xFF0 JUMP JUMPDEST DUP3 MSTORE POP POP JUMP JUMPDEST PUSH0 PUSH1 0x20 DUP3 ADD SWAP1 POP PUSH2 0x1023 PUSH0 DUP4 ADD DUP5 PUSH2 0x1001 JUMP JUMPDEST SWAP3 SWAP2 POP POP JUMP JUMPDEST PUSH2 0x1032 DUP2 PUSH2 0xED4 JUMP JUMPDEST DUP3 MSTORE POP POP JUMP JUMPDEST PUSH0 PUSH1 0x20 DUP3 ADD SWAP1 POP PUSH2 0x104B PUSH0 DUP4 ADD DUP5 PUSH2 0x1029 JUMP JUMPDEST SWAP3 SWAP2 POP POP JUMP JUMPDEST PUSH0 DUP2 MLOAD SWAP1 POP SWAP2 SWAP1 POP JUMP JUMPDEST PUSH0 DUP3 DUP3 MSTORE PUSH1 0x20 DUP3 ADD SWAP1 POP SWAP3 SWAP2 POP POP JUMP JUMPDEST PUSH0 DUP2 SWAP1 POP PUSH1 0x20 DUP3 ADD SWAP1 POP SWAP2 SWAP1 POP JUMP JUMPDEST PUSH2 0x1083 DUP2 PUSH2 0xED4 JUMP JUMPDEST DUP3 MSTORE POP POP JUMP JUMPDEST PUSH0 PUSH2 0x1094 DUP4 DUP4 PUSH2 0x107A JUMP JUMPDEST PUSH1 0x20 DUP4 ADD SWAP1 POP SWAP3 SWAP2 POP POP JUMP JUMPDEST PUSH0 PUSH1 0x20 DUP3 ADD SWAP1 POP SWAP2 SWAP1 POP JUMP JUMPDEST PUSH0 PUSH2 0x10B6 DUP3 PUSH2 0x1051 JUMP JUMPDEST PUSH2 0x10C0 DUP2 DUP6 PUSH2 0x105B JUMP JUMPDEST SWAP4 POP PUSH2 0x10CB DUP4 PUSH2 0x106B JUMP JUMPDEST DUP1 PUSH0 JUMPDEST DUP4 DUP2 LT ISZERO PUSH2 0x10FB JUMPI DUP2 MLOAD PUSH2 0x10E2 DUP9 DUP3 PUSH2 0x1089 JUMP JUMPDEST SWAP8 POP PUSH2 0x10ED DUP4 PUSH2 0x10A0 JUMP JUMPDEST SWAP3 POP POP PUSH1 0x1 DUP2 ADD SWAP1 POP PUSH2 0x10CE JUMP JUMPDEST POP DUP6 SWAP4 POP POP POP POP SWAP3 SWAP2 POP POP JUMP JUMPDEST PUSH0 PUSH1 0x20 DUP3 ADD SWAP1 POP DUP2 DUP2 SUB PUSH0 DUP4 ADD MSTORE PUSH2 0x1120 DUP2 DUP5 PUSH2 0x10AC JUMP JUMPDEST SWAP1 POP SWAP3 SWAP2 POP POP JUMP JUMPDEST PUSH0 DUP3 DUP3 MSTORE PUSH1 0x20 DUP3 ADD SWAP1 POP SWAP3 SWAP2 POP POP JUMP JUMPDEST PUSH32 0x4E6F207375636820726F6F6D2065786973747320210000000000000000000000 PUSH0 DUP3 ADD MSTORE POP JUMP JUMPDEST PUSH0 PUSH2 0x116C PUSH1 0x15 DUP4 PUSH2 0x1128 JUMP JUMPDEST SWAP2 POP PUSH2 0x1177 DUP3 PUSH2 0x1138 JUMP JUMPDEST PUSH1 0x20 DUP3 ADD SWAP1 POP SWAP2 SWAP1 POP JUMP JUMPDEST PUSH0 PUSH1 0x20 DUP3 ADD SWAP1 POP DUP2 DUP2 SUB PUSH0 DUP4 ADD MSTORE PUSH2 0x1199 DUP2 PUSH2 0x1160 JUMP JUMPDEST SWAP1 POP SWAP2 SWAP1 POP JUMP JUMPDEST PUSH32 0x4E487B7100000000000000000000000000000000000000000000000000000000 PUSH0 MSTORE PUSH1 0x32 PUSH1 0x4 MSTORE PUSH1 0x24 PUSH0 REVERT JUMPDEST PUSH32 0x526F6F6D20697320616C7265616479206F636375706965640000000000000000 PUSH0 DUP3 ADD MSTORE POP JUMP JUMPDEST PUSH0 PUSH2 0x1201 PUSH1 0x18 DUP4 PUSH2 0x1128 JUMP JUMPDEST SWAP2 POP PUSH2 0x120C DUP3 PUSH2 0x11CD JUMP JUMPDEST PUSH1 0x20 DUP3 ADD SWAP1 POP SWAP2 SWAP1 POP JUMP JUMPDEST PUSH0 PUSH1 0x20 DUP3 ADD SWAP1 POP DUP2 DUP2 SUB PUSH0 DUP4 ADD MSTORE PUSH2 0x122E DUP2 PUSH2 0x11F5 JUMP JUMPDEST SWAP1 POP SWAP2 SWAP1 POP JUMP JUMPDEST PUSH32 0x596F7520616C72656164792068617665206F6E6520726F6F6D2C796F75206361 PUSH0 DUP3 ADD MSTORE PUSH32 0x6E27742074616B6520616E6F7468657220726F6F6D2021000000000000000000 PUSH1 0x20 DUP3 ADD MSTORE POP JUMP JUMPDEST PUSH0 PUSH2 0x128F PUSH1 0x37 DUP4 PUSH2 0x1128 JUMP JUMPDEST SWAP2 POP PUSH2 0x129A DUP3 PUSH2 0x1235 JUMP JUMPDEST PUSH1 0x40 DUP3 ADD SWAP1 POP SWAP2 SWAP1 POP JUMP JUMPDEST PUSH0 PUSH1 0x20 DUP3 ADD SWAP1 POP DUP2 DUP2 SUB PUSH0 DUP4 ADD MSTORE PUSH2 0x12BC DUP2 PUSH2 0x1283 JUMP JUMPDEST SWAP1 POP SWAP2 SWAP1 POP JUMP JUMPDEST PUSH0 DUP2 MLOAD SWAP1 POP SWAP2 SWAP1 POP JUMP JUMPDEST PUSH32 0x4E487B7100000000000000000000000000000000000000000000000000000000 PUSH0 MSTORE PUSH1 0x22 PUSH1 0x4 MSTORE PUSH1 0x24 PUSH0 REVERT JUMPDEST PUSH0 PUSH1 0x2 DUP3 DIV SWAP1 POP PUSH1 0x1 DUP3 AND DUP1 PUSH2 0x1311 JUMPI PUSH1 0x7F DUP3 AND SWAP2 POP JUMPDEST PUSH1 0x20 DUP3 LT DUP2 SUB PUSH2 0x1324 JUMPI PUSH2 0x1323 PUSH2 0x12CD JUMP JUMPDEST JUMPDEST POP SWAP2 SWAP1 POP JUMP JUMPDEST PUSH0 DUP2 SWAP1 POP DUP2 PUSH0 MSTORE PUSH1 0x20 PUSH0 KECCAK256 SWAP1 POP SWAP2 SWAP1 POP JUMP JUMPDEST PUSH0 PUSH1 0x20 PUSH1 0x1F DUP4 ADD DIV SWAP1 POP SWAP2 SWAP1 POP JUMP JUMPDEST PUSH0 DUP3 DUP3 SHL SWAP1 POP SWAP3 SWAP2 POP POP JUMP JUMPDEST PUSH0 PUSH1 0x8 DUP4 MUL PUSH2 0x1386 PUSH32 0xFFFFFFFFFFFFFFFFFFFFFFFFFFFFFFFFFFFFFFFFFFFFFFFFFFFFFFFFFFFFFFFF DUP3 PUSH2 0x134B JUMP JUMPDEST PUSH2 0x1390 DUP7 DUP4 PUSH2 0x134B JUMP JUMPDEST SWAP6 POP DUP1 NOT DUP5 AND SWAP4 POP DUP1 DUP7 AND DUP5 OR SWAP3 POP POP POP SWAP4 SWAP3 POP POP POP JUMP JUMPDEST PUSH0 DUP2 SWAP1 POP SWAP2 SWAP1 POP JUMP JUMPDEST PUSH0 PUSH2 0x13CB PUSH2 0x13C6 PUSH2 0x13C1 DUP5 PUSH2 0xED4 JUMP JUMPDEST PUSH2 0x13A8 JUMP JUMPDEST PUSH2 0xED4 JUMP JUMPDEST SWAP1 POP SWAP2 SWAP1 POP JUMP JUMPDEST PUSH0 DUP2 SWAP1 POP SWAP2 SWAP1 POP JUMP JUMPDEST PUSH2 0x13E4 DUP4 PUSH2 0x13B1 JUMP JUMPDEST PUSH2 0x13F8 PUSH2 0x13F0 DUP3 PUSH2 0x13D2 JUMP JUMPDEST DUP5 DUP5 SLOAD PUSH2 0x1357 JUMP JUMPDEST DUP3 SSTORE POP POP POP POP JUMP JUMPDEST PUSH0 SWAP1 JUMP JUMPDEST PUSH2 0x140C PUSH2 0x1400 JUMP JUMPDEST PUSH2 0x1417 DUP2 DUP5 DUP5 PUSH2 0x13DB JUMP JUMPDEST POP POP POP JUMP JUMPDEST JUMPDEST DUP2 DUP2 LT ISZERO PUSH2 0x143A JUMPI PUSH2 0x142F PUSH0 DUP3 PUSH2 0x1404 JUMP JUMPDEST PUSH1 0x1 DUP2 ADD SWAP1 POP PUSH2 0x141D JUMP JUMPDEST POP POP JUMP JUMPDEST PUSH1 0x1F DUP3 GT ISZERO PUSH2 0x147F JUMPI PUSH2 0x1450 DUP2 PUSH2 0x132A JUMP JUMPDEST PUSH2 0x1459 DUP5 PUSH2 0x133C JUMP JUMPDEST DUP2 ADD PUSH1 0x20 DUP6 LT ISZERO PUSH2 0x1468 JUMPI DUP2 SWAP1 POP JUMPDEST PUSH2 0x147C PUSH2 0x1474 DUP6 PUSH2 0x133C JUMP JUMPDEST DUP4 ADD DUP3 PUSH2 0x141C JUMP JUMPDEST POP POP JUMPDEST POP POP POP JUMP JUMPDEST PUSH0 DUP3 DUP3 SHR SWAP1 POP SWAP3 SWAP2 POP POP JUMP JUMPDEST PUSH0 PUSH2 0x149F PUSH0 NOT DUP5 PUSH1 0x8 MUL PUSH2 0x1484 JUMP JUMPDEST NOT DUP1 DUP4 AND SWAP2 POP POP SWAP3 SWAP2 POP POP JUMP JUMPDEST PUSH0 PUSH2 0x14B7 DUP4 DUP4 PUSH2 0x1490 JUMP JUMPDEST SWAP2 POP DUP3 PUSH1 0x2 MUL DUP3 OR SWAP1 POP SWAP3 SWAP2 POP POP JUMP JUMPDEST PUSH2 0x14D0 DUP3 PUSH2 0x12C3 JUMP JUMPDEST PUSH8 0xFFFFFFFFFFFFFFFF DUP2 GT ISZERO PUSH2 0x14E9 JUMPI PUSH2 0x14E8 PUSH2 0xDB0 JUMP JUMPDEST JUMPDEST PUSH2 0x14F3 DUP3 SLOAD PUSH2 0x12FA JUMP JUMPDEST PUSH2 0x14FE DUP3 DUP3 DUP6 PUSH2 0x143E JUMP JUMPDEST PUSH0 PUSH1 0x20 SWAP1 POP PUSH1 0x1F DUP4 GT PUSH1 0x1 DUP2 EQ PUSH2 0x152F JUMPI PUSH0 DUP5 ISZERO PUSH2 0x151D JUMPI DUP3 DUP8 ADD MLOAD SWAP1 POP JUMPDEST PUSH2 0x1527 DUP6 DUP3 PUSH2 0x14AC JUMP JUMPDEST DUP7 SSTORE POP PUSH2 0x158E JUMP JUMPDEST PUSH1 0x1F NOT DUP5 AND PUSH2 0x153D DUP7 PUSH2 0x132A JUMP JUMPDEST PUSH0 JUMPDEST DUP3 DUP2 LT ISZERO PUSH2 0x1564 JUMPI DUP5 DUP10 ADD MLOAD DUP3 SSTORE PUSH1 0x1 DUP3 ADD SWAP2 POP PUSH1 0x20 DUP6 ADD SWAP5 POP PUSH1 0x20 DUP2 ADD SWAP1 POP PUSH2 0x153F JUMP JUMPDEST DUP7 DUP4 LT ISZERO PUSH2 0x1581 JUMPI DUP5 DUP10 ADD MLOAD PUSH2 0x157D PUSH1 0x1F DUP10 AND DUP3 PUSH2 0x1490 JUMP JUMPDEST DUP4 SSTORE POP JUMPDEST PUSH1 0x1 PUSH1 0x2 DUP9 MUL ADD DUP9 SSTORE POP POP POP JUMPDEST POP POP POP POP POP POP JUMP JUMPDEST PUSH32 0x4E487B7100000000000000000000000000000000000000000000000000000000 PUSH0 MSTORE PUSH1 0x11 PUSH1 0x4 MSTORE PUSH1 0x24 PUSH0 REVERT JUMPDEST PUSH0 PUSH2 0x15CD DUP3 PUSH2 0xED4 JUMP JUMPDEST SWAP2 POP PUSH0 DUP3 SUB PUSH2 0x15DF JUMPI PUSH2 0x15DE PUSH2 0x1596 JUMP JUMPDEST JUMPDEST PUSH1 0x1 DUP3 SUB SWAP1 POP SWAP2 SWAP1 POP JUMP JUMPDEST PUSH32 0x4E6F7420617574686572697A6564202100000000000000000000000000000000 PUSH0 DUP3 ADD MSTORE POP JUMP JUMPDEST PUSH0 PUSH2 0x161E PUSH1 0x10 DUP4 PUSH2 0x1128 JUMP JUMPDEST SWAP2 POP PUSH2 0x1629 DUP3 PUSH2 0x15EA JUMP JUMPDEST PUSH1 0x20 DUP3 ADD SWAP1 POP SWAP2 SWAP1 POP JUMP JUMPDEST PUSH0 PUSH1 0x20 DUP3 ADD SWAP1 POP DUP2 DUP2 SUB PUSH0 DUP4 ADD MSTORE PUSH2 0x164B DUP2 PUSH2 0x1612 JUMP JUMPDEST SWAP1 POP SWAP2 SWAP1 POP JUMP JUMPDEST PUSH0 PUSH2 0x165C DUP3 PUSH2 0xED4 JUMP JUMPDEST SWAP2 POP PUSH32 0xFFFFFFFFFFFFFFFFFFFFFFFFFFFFFFFFFFFFFFFFFFFFFFFFFFFFFFFFFFFFFFFF DUP3 SUB PUSH2 0x168E JUMPI PUSH2 0x168D PUSH2 0x1596 JUMP JUMPDEST JUMPDEST PUSH1 0x1 DUP3 ADD SWAP1 POP SWAP2 SWAP1 POP JUMP JUMPDEST PUSH32 0x536F7272792C20596F7520617265206E6F74206173736F636961746564207769 PUSH0 DUP3 ADD MSTORE PUSH32 0x746820616E7920726F6F6D206865726520210000000000000000000000000000 PUSH1 0x20 DUP3 ADD MSTORE POP JUMP JUMPDEST PUSH0 PUSH2 0x16F3 PUSH1 0x32 DUP4 PUSH2 0x1128 JUMP JUMPDEST SWAP2 POP PUSH2 0x16FE DUP3 PUSH2 0x1699 JUMP JUMPDEST PUSH1 0x40 DUP3 ADD SWAP1 POP SWAP2 SWAP1 POP JUMP JUMPDEST PUSH0 PUSH1 0x20 DUP3 ADD SWAP1 POP DUP2 DUP2 SUB PUSH0 DUP4 ADD MSTORE PUSH2 0x1720 DUP2 PUSH2 0x16E7 JUMP JUMPDEST SWAP1 POP SWAP2 SWAP1 POP JUMP JUMPDEST PUSH0 PUSH2 0x1731 DUP3 PUSH2 0xED4 JUMP JUMPDEST SWAP2 POP PUSH2 0x173C DUP4 PUSH2 0xED4 JUMP JUMPDEST SWAP3 POP DUP3 DUP3 SUB SWAP1 POP DUP2 DUP2 GT ISZERO PUSH2 0x1754 JUMPI PUSH2 0x1753 PUSH2 0x1596 JUMP JUMPDEST JUMPDEST SWAP3 SWAP2 POP POP JUMP JUMPDEST PUSH0 PUSH2 0x1764 DUP3 PUSH2 0xED4 JUMP JUMPDEST SWAP2 POP PUSH2 0x176F DUP4 PUSH2 0xED4 JUMP JUMPDEST SWAP3 POP DUP3 DUP3 ADD SWAP1 POP DUP1 DUP3 GT ISZERO PUSH2 0x1787 JUMPI PUSH2 0x1786 PUSH2 0x1596 JUMP JUMPDEST JUMPDEST SWAP3 SWAP2 POP POP JUMP JUMPDEST PUSH32 0x4E487B7100000000000000000000000000000000000000000000000000000000 PUSH0 MSTORE PUSH1 0x31 PUSH1 0x4 MSTORE PUSH1 0x24 PUSH0 REVERT INVALID LOG2 PUSH5 0x6970667358 0x22 SLT KECCAK256 SWAP7 CREATE SWAP6 0xB7 0xB4 DUP11 0xD4 0xAE PC DUP11 0xEA 0xD8 0xCE DUP10 EXP 0xDE LOG4 GASPRICE JUMPI SWAP15 0xB8 RETURN PUSH16 0x80A4412A4785D8E3DE64736F6C634300 ADDMOD EQ STOP CALLER "
				},
				"gasEstimates": {
					"creation": {
						"codeDepositCost": "1225600",
						"executionCost": "infinite",
						"totalCost": "infinite"
					},
					"external": {
						"Leave()": "infinite",
						"Registration(string,uint256,uint256)": "infinite",
						"RoomsState(uint256)": "6597",
						"TakeFare()": "375",
						"Tenants(uint256)": "4967",
						"availableRooms()": "infinite",
						"changeDeposite(uint256)": "24950",
						"changeRent(uint256)": "24971",
						"creatingNewRoom()": "infinite",
						"depositFee()": "2514",
						"monthlyFee()": "2425",
						"totalRoomsAvailable()": "2535"
					}
				},
				"methodIdentifiers": {
					"Leave()": "ac8f5ead",
					"Registration(string,uint256,uint256)": "294c6082",
					"RoomsState(uint256)": "b2ae388a",
					"TakeFare()": "4c5869f6",
					"Tenants(uint256)": "441f91d9",
					"availableRooms()": "ae3c0176",
					"changeDeposite(uint256)": "54db01b7",
					"changeRent(uint256)": "dd7ef706",
					"creatingNewRoom()": "7d0d3c6d",
					"depositFee()": "67a52793",
					"monthlyFee()": "8cfd3e40",
					"totalRoomsAvailable()": "ef2ae960"
				}
			},
			"storageLayout": {
				"storage": [
					{
						"astId": 17,
						"contract": "RentalAggrement.sol:Aggrement",
						"label": "capacity",
						"offset": 0,
						"slot": "0",
						"type": "t_uint256"
					},
					{
						"astId": 20,
						"contract": "RentalAggrement.sol:Aggrement",
						"label": "totalRoomsAvailable",
						"offset": 0,
						"slot": "1",
						"type": "t_uint256"
					},
					{
						"astId": 23,
						"contract": "RentalAggrement.sol:Aggrement",
						"label": "Rooms",
						"offset": 0,
						"slot": "2",
						"type": "t_array(t_address)dyn_storage"
					},
					{
						"astId": 26,
						"contract": "RentalAggrement.sol:Aggrement",
						"label": "RoomsState",
						"offset": 0,
						"slot": "3",
						"type": "t_array(t_bool)dyn_storage"
					},
					{
						"astId": 28,
						"contract": "RentalAggrement.sol:Aggrement",
						"label": "owner",
						"offset": 0,
						"slot": "4",
						"type": "t_address"
					},
					{
						"astId": 30,
						"contract": "RentalAggrement.sol:Aggrement",
						"label": "depositFee",
						"offset": 0,
						"slot": "5",
						"type": "t_uint256"
					},
					{
						"astId": 32,
						"contract": "RentalAggrement.sol:Aggrement",
						"label": "monthlyFee",
						"offset": 0,
						"slot": "6",
						"type": "t_uint256"
					},
					{
						"astId": 37,
						"contract": "RentalAggrement.sol:Aggrement",
						"label": "TenantDetails",
						"offset": 0,
						"slot": "7",
						"type": "t_mapping(t_address,t_struct(Tenant)14_storage)"
					},
					{
						"astId": 40,
						"contract": "RentalAggrement.sol:Aggrement",
						"label": "Tenants",
						"offset": 0,
						"slot": "8",
						"type": "t_array(t_address)dyn_storage"
					}
				],
				"types": {
					"t_address": {
						"encoding": "inplace",
						"label": "address",
						"numberOfBytes": "20"
					},
					"t_array(t_address)dyn_storage": {
						"base": "t_address",
						"encoding": "dynamic_array",
						"label": "address[]",
						"numberOfBytes": "32"
					},
					"t_array(t_bool)dyn_storage": {
						"base": "t_bool",
						"encoding": "dynamic_array",
						"label": "bool[]",
						"numberOfBytes": "32"
					},
					"t_bool": {
						"encoding": "inplace",
						"label": "bool",
						"numberOfBytes": "1"
					},
					"t_mapping(t_address,t_struct(Tenant)14_storage)": {
						"encoding": "mapping",
						"key": "t_address",
						"label": "mapping(address => struct Tenant)",
						"numberOfBytes": "32",
						"value": "t_struct(Tenant)14_storage"
					},
					"t_string_storage": {
						"encoding": "bytes",
						"label": "string",
						"numberOfBytes": "32"
					},
					"t_struct(Tenant)14_storage": {
						"encoding": "inplace",
						"label": "struct Tenant",
						"members": [
							{
								"astId": 3,
								"contract": "RentalAggrement.sol:Aggrement",
								"label": "name",
								"offset": 0,
								"slot": "0",
								"type": "t_string_storage"
							},
							{
								"astId": 5,
								"contract": "RentalAggrement.sol:Aggrement",
								"label": "JoiningTimestamp",
								"offset": 0,
								"slot": "1",
								"type": "t_uint256"
							},
							{
								"astId": 7,
								"contract": "RentalAggrement.sol:Aggrement",
								"label": "aadharNumber",
								"offset": 0,
								"slot": "2",
								"type": "t_uint256"
							},
							{
								"astId": 9,
								"contract": "RentalAggrement.sol:Aggrement",
								"label": "roomNumber",
								"offset": 0,
								"slot": "3",
								"type": "t_uint256"
							},
							{
								"astId": 11,
								"contract": "RentalAggrement.sol:Aggrement",
								"label": "leavingTimestamp",
								"offset": 0,
								"slot": "4",
								"type": "t_uint256"
							},
							{
								"astId": 13,
								"contract": "RentalAggrement.sol:Aggrement",
								"label": "status",
								"offset": 0,
								"slot": "5",
								"type": "t_string_storage"
							}
						],
						"numberOfBytes": "192"
					},
					"t_uint256": {
						"encoding": "inplace",
						"label": "uint256",
						"numberOfBytes": "32"
					}
				}
			},
			"userdoc": {
				"kind": "user",
				"methods": {},
				"version": 1
			}
		}
	}
}