{
	"byte.sol": {
		"local": {
			"abi": [
				{
					"inputs": [],
					"stateMutability": "nonpayable",
					"type": "constructor"
				},
				{
					"inputs": [],
					"name": "a",
					"outputs": [
						{
							"internalType": "bytes",
							"name": "",
							"type": "bytes"
						}
					],
					"stateMutability": "view",
					"type": "function"
				},
				{
					"inputs": [],
					"name": "b",
					"outputs": [
						{
							"internalType": "bytes2",
							"name": "",
							"type": "bytes2"
						}
					],
					"stateMutability": "view",
					"type": "function"
				},
				{
					"inputs": [],
					"name": "c",
					"outputs": [
						{
							"internalType": "bytes3",
							"name": "",
							"type": "bytes3"
						}
					],
					"stateMutability": "view",
					"type": "function"
				},
				{
					"inputs": [],
					"name": "d",
					"outputs": [
						{
							"internalType": "bytes",
							"name": "",
							"type": "bytes"
						}
					],
					"stateMutability": "view",
					"type": "function"
				},
				{
					"inputs": [],
					"name": "setter",
					"outputs": [],
					"stateMutability": "nonpayable",
					"type": "function"
				}
			],
			"devdoc": {
				"kind": "dev",
				"methods": {},
				"version": 1
			},
			"evm": {
				"assembly": "    /* \"byte.sol\":58:412  contract local {... */\n  mstore(0x40, 0x80)\n    /* \"byte.sol\":103:126  bytes3 public c = \"ABC\" */\n  0x4142430000000000000000000000000000000000000000000000000000000000\n  0x00\n  dup1\n  0x0100\n  exp\n  dup2\n  sload\n  dup2\n  0xffffff\n  mul\n  not\n  and\n  swap1\n  dup4\n  0xe8\n  shr\n  mul\n  or\n  swap1\n  sstore\n  pop\n    /* \"byte.sol\":238:239  6 */\n  0x06\n    /* \"byte.sol\":228:240  new bytes(6) */\n  0xffffffffffffffff\n  dup2\n  gt\n  iszero\n  tag_1\n  jumpi\n  tag_2\n  tag_3\n  jump\t// in\ntag_2:\ntag_1:\n  mload(0x40)\n  swap1\n  dup1\n  dup3\n  mstore\n  dup1\n  0x1f\n  add\n  not(0x1f)\n  and\n  0x20\n  add\n  dup3\n  add\n  0x40\n  mstore\n  dup1\n  iszero\n  tag_4\n  jumpi\n  dup2\n  0x20\n  add\n  0x01\n  dup3\n  mul\n  dup1\n  calldatasize\n  dup4\n  calldatacopy\n  dup1\n  dup3\n  add\n  swap2\n  pop\n  pop\n  swap1\n  pop\ntag_4:\n  pop\n    /* \"byte.sol\":211:240  bytes public a = new bytes(6) */\n  0x01\n  swap1\n  dup2\n  tag_5\n  swap2\n  swap1\n  tag_6\n  jump\t// in\ntag_5:\n  pop\n    /* \"byte.sol\":266:308  constructor(){... */\n  callvalue\n  dup1\n  iszero\n  tag_7\n  jumpi\n  0x00\n  dup1\n  revert\ntag_7:\n  pop\n    /* \"byte.sol\":289:301  a = \"abcdef\" */\n  mload(0x40)\n  dup1\n  0x40\n  add\n  0x40\n  mstore\n  dup1\n  0x06\n  dup2\n  mstore\n  0x20\n  add\n  0x6162636465660000000000000000000000000000000000000000000000000000\n  dup2\n  mstore\n  pop\n    /* \"byte.sol\":289:290  a */\n  0x01\n    /* \"byte.sol\":289:301  a = \"abcdef\" */\n  swap1\n  dup2\n  tag_10\n  swap2\n  swap1\n  tag_11\n  jump\t// in\ntag_10:\n  pop\n    /* \"byte.sol\":58:412  contract local {... */\n  jump(tag_12)\n    /* \"#utility.yul\":7:187   */\ntag_3:\n    /* \"#utility.yul\":55:132   */\n  0x4e487b7100000000000000000000000000000000000000000000000000000000\n    /* \"#utility.yul\":52:53   */\n  0x00\n    /* \"#utility.yul\":45:133   */\n  mstore\n    /* \"#utility.yul\":152:156   */\n  0x41\n    /* \"#utility.yul\":149:150   */\n  0x04\n    /* \"#utility.yul\":142:157   */\n  mstore\n    /* \"#utility.yul\":176:180   */\n  0x24\n    /* \"#utility.yul\":173:174   */\n  0x00\n    /* \"#utility.yul\":166:181   */\n  revert\n    /* \"#utility.yul\":193:291   */\ntag_13:\n    /* \"#utility.yul\":244:250   */\n  0x00\n    /* \"#utility.yul\":278:283   */\n  dup2\n    /* \"#utility.yul\":272:284   */\n  mload\n    /* \"#utility.yul\":262:284   */\n  swap1\n  pop\n    /* \"#utility.yul\":193:291   */\n  swap2\n  swap1\n  pop\n  jump\t// out\n    /* \"#utility.yul\":297:477   */\ntag_14:\n    /* \"#utility.yul\":345:422   */\n  0x4e487b7100000000000000000000000000000000000000000000000000000000\n    /* \"#utility.yul\":342:343   */\n  0x00\n    /* \"#utility.yul\":335:423   */\n  mstore\n    /* \"#utility.yul\":442:446   */\n  0x22\n    /* \"#utility.yul\":439:440   */\n  0x04\n    /* \"#utility.yul\":432:447   */\n  mstore\n    /* \"#utility.yul\":466:470   */\n  0x24\n    /* \"#utility.yul\":463:464   */\n  0x00\n    /* \"#utility.yul\":456:471   */\n  revert\n    /* \"#utility.yul\":483:803   */\ntag_15:\n    /* \"#utility.yul\":527:533   */\n  0x00\n    /* \"#utility.yul\":564:565   */\n  0x02\n    /* \"#utility.yul\":558:562   */\n  dup3\n    /* \"#utility.yul\":554:566   */\n  div\n    /* \"#utility.yul\":544:566   */\n  swap1\n  pop\n    /* \"#utility.yul\":611:612   */\n  0x01\n    /* \"#utility.yul\":605:609   */\n  dup3\n    /* \"#utility.yul\":601:613   */\n  and\n    /* \"#utility.yul\":632:650   */\n  dup1\n    /* \"#utility.yul\":622:703   */\n  tag_38\n  jumpi\n    /* \"#utility.yul\":688:692   */\n  0x7f\n    /* \"#utility.yul\":680:686   */\n  dup3\n    /* \"#utility.yul\":676:693   */\n  and\n    /* \"#utility.yul\":666:693   */\n  swap2\n  pop\n    /* \"#utility.yul\":622:703   */\ntag_38:\n    /* \"#utility.yul\":750:752   */\n  0x20\n    /* \"#utility.yul\":742:748   */\n  dup3\n    /* \"#utility.yul\":739:753   */\n  lt\n    /* \"#utility.yul\":719:737   */\n  dup2\n    /* \"#utility.yul\":716:754   */\n  sub\n    /* \"#utility.yul\":713:797   */\n  tag_39\n  jumpi\n    /* \"#utility.yul\":769:787   */\n  tag_40\n  tag_14\n  jump\t// in\ntag_40:\n    /* \"#utility.yul\":713:797   */\ntag_39:\n    /* \"#utility.yul\":534:803   */\n  pop\n    /* \"#utility.yul\":483:803   */\n  swap2\n  swap1\n  pop\n  jump\t// out\n    /* \"#utility.yul\":809:949   */\ntag_16:\n    /* \"#utility.yul\":857:861   */\n  0x00\n    /* \"#utility.yul\":880:883   */\n  dup2\n    /* \"#utility.yul\":872:883   */\n  swap1\n  pop\n    /* \"#utility.yul\":903:906   */\n  dup2\n    /* \"#utility.yul\":900:901   */\n  0x00\n    /* \"#utility.yul\":893:907   */\n  mstore\n    /* \"#utility.yul\":937:941   */\n  0x20\n    /* \"#utility.yul\":934:935   */\n  0x00\n    /* \"#utility.yul\":924:942   */\n  keccak256\n    /* \"#utility.yul\":916:942   */\n  swap1\n  pop\n    /* \"#utility.yul\":809:949   */\n  swap2\n  swap1\n  pop\n  jump\t// out\n    /* \"#utility.yul\":955:1048   */\ntag_17:\n    /* \"#utility.yul\":992:998   */\n  0x00\n    /* \"#utility.yul\":1039:1041   */\n  0x20\n    /* \"#utility.yul\":1034:1036   */\n  0x1f\n    /* \"#utility.yul\":1027:1032   */\n  dup4\n    /* \"#utility.yul\":1023:1037   */\n  add\n    /* \"#utility.yul\":1019:1042   */\n  div\n    /* \"#utility.yul\":1009:1042   */\n  swap1\n  pop\n    /* \"#utility.yul\":955:1048   */\n  swap2\n  swap1\n  pop\n  jump\t// out\n    /* \"#utility.yul\":1054:1161   */\ntag_18:\n    /* \"#utility.yul\":1098:1106   */\n  0x00\n    /* \"#utility.yul\":1148:1153   */\n  dup3\n    /* \"#utility.yul\":1142:1146   */\n  dup3\n    /* \"#utility.yul\":1138:1154   */\n  shl\n    /* \"#utility.yul\":1117:1154   */\n  swap1\n  pop\n    /* \"#utility.yul\":1054:1161   */\n  swap3\n  swap2\n  pop\n  pop\n  jump\t// out\n    /* \"#utility.yul\":1167:1560   */\ntag_19:\n    /* \"#utility.yul\":1236:1242   */\n  0x00\n    /* \"#utility.yul\":1286:1287   */\n  0x08\n    /* \"#utility.yul\":1274:1284   */\n  dup4\n    /* \"#utility.yul\":1270:1288   */\n  mul\n    /* \"#utility.yul\":1309:1406   */\n  tag_45\n    /* \"#utility.yul\":1339:1405   */\n  0xffffffffffffffffffffffffffffffffffffffffffffffffffffffffffffffff\n    /* \"#utility.yul\":1328:1337   */\n  dup3\n    /* \"#utility.yul\":1309:1406   */\n  tag_18\n  jump\t// in\ntag_45:\n    /* \"#utility.yul\":1427:1466   */\n  tag_46\n    /* \"#utility.yul\":1457:1465   */\n  dup7\n    /* \"#utility.yul\":1446:1455   */\n  dup4\n    /* \"#utility.yul\":1427:1466   */\n  tag_18\n  jump\t// in\ntag_46:\n    /* \"#utility.yul\":1415:1466   */\n  swap6\n  pop\n    /* \"#utility.yul\":1499:1503   */\n  dup1\n    /* \"#utility.yul\":1495:1504   */\n  not\n    /* \"#utility.yul\":1488:1493   */\n  dup5\n    /* \"#utility.yul\":1484:1505   */\n  and\n    /* \"#utility.yul\":1475:1505   */\n  swap4\n  pop\n    /* \"#utility.yul\":1548:1552   */\n  dup1\n    /* \"#utility.yul\":1538:1546   */\n  dup7\n    /* \"#utility.yul\":1534:1553   */\n  and\n    /* \"#utility.yul\":1527:1532   */\n  dup5\n    /* \"#utility.yul\":1524:1554   */\n  or\n    /* \"#utility.yul\":1514:1554   */\n  swap3\n  pop\n    /* \"#utility.yul\":1243:1560   */\n  pop\n  pop\n    /* \"#utility.yul\":1167:1560   */\n  swap4\n  swap3\n  pop\n  pop\n  pop\n  jump\t// out\n    /* \"#utility.yul\":1566:1643   */\ntag_20:\n    /* \"#utility.yul\":1603:1610   */\n  0x00\n    /* \"#utility.yul\":1632:1637   */\n  dup2\n    /* \"#utility.yul\":1621:1637   */\n  swap1\n  pop\n    /* \"#utility.yul\":1566:1643   */\n  swap2\n  swap1\n  pop\n  jump\t// out\n    /* \"#utility.yul\":1649:1709   */\ntag_21:\n    /* \"#utility.yul\":1677:1680   */\n  0x00\n    /* \"#utility.yul\":1698:1703   */\n  dup2\n    /* \"#utility.yul\":1691:1703   */\n  swap1\n  pop\n    /* \"#utility.yul\":1649:1709   */\n  swap2\n  swap1\n  pop\n  jump\t// out\n    /* \"#utility.yul\":1715:1857   */\ntag_22:\n    /* \"#utility.yul\":1765:1774   */\n  0x00\n    /* \"#utility.yul\":1798:1851   */\n  tag_50\n    /* \"#utility.yul\":1816:1850   */\n  tag_51\n    /* \"#utility.yul\":1825:1849   */\n  tag_52\n    /* \"#utility.yul\":1843:1848   */\n  dup5\n    /* \"#utility.yul\":1825:1849   */\n  tag_20\n  jump\t// in\ntag_52:\n    /* \"#utility.yul\":1816:1850   */\n  tag_21\n  jump\t// in\ntag_51:\n    /* \"#utility.yul\":1798:1851   */\n  tag_20\n  jump\t// in\ntag_50:\n    /* \"#utility.yul\":1785:1851   */\n  swap1\n  pop\n    /* \"#utility.yul\":1715:1857   */\n  swap2\n  swap1\n  pop\n  jump\t// out\n    /* \"#utility.yul\":1863:1938   */\ntag_23:\n    /* \"#utility.yul\":1906:1909   */\n  0x00\n    /* \"#utility.yul\":1927:1932   */\n  dup2\n    /* \"#utility.yul\":1920:1932   */\n  swap1\n  pop\n    /* \"#utility.yul\":1863:1938   */\n  swap2\n  swap1\n  pop\n  jump\t// out\n    /* \"#utility.yul\":1944:2213   */\ntag_24:\n    /* \"#utility.yul\":2054:2093   */\n  tag_55\n    /* \"#utility.yul\":2085:2092   */\n  dup4\n    /* \"#utility.yul\":2054:2093   */\n  tag_22\n  jump\t// in\ntag_55:\n    /* \"#utility.yul\":2115:2206   */\n  tag_56\n    /* \"#utility.yul\":2164:2205   */\n  tag_57\n    /* \"#utility.yul\":2188:2204   */\n  dup3\n    /* \"#utility.yul\":2164:2205   */\n  tag_23\n  jump\t// in\ntag_57:\n    /* \"#utility.yul\":2156:2162   */\n  dup5\n    /* \"#utility.yul\":2149:2153   */\n  dup5\n    /* \"#utility.yul\":2143:2154   */\n  sload\n    /* \"#utility.yul\":2115:2206   */\n  tag_19\n  jump\t// in\ntag_56:\n    /* \"#utility.yul\":2109:2113   */\n  dup3\n    /* \"#utility.yul\":2102:2207   */\n  sstore\n    /* \"#utility.yul\":2020:2213   */\n  pop\n    /* \"#utility.yul\":1944:2213   */\n  pop\n  pop\n  pop\n  jump\t// out\n    /* \"#utility.yul\":2219:2292   */\ntag_25:\n    /* \"#utility.yul\":2264:2267   */\n  0x00\n    /* \"#utility.yul\":2219:2292   */\n  swap1\n  jump\t// out\n    /* \"#utility.yul\":2298:2487   */\ntag_26:\n    /* \"#utility.yul\":2375:2407   */\n  tag_60\n  tag_25\n  jump\t// in\ntag_60:\n    /* \"#utility.yul\":2416:2481   */\n  tag_61\n    /* \"#utility.yul\":2474:2480   */\n  dup2\n    /* \"#utility.yul\":2466:2472   */\n  dup5\n    /* \"#utility.yul\":2460:2464   */\n  dup5\n    /* \"#utility.yul\":2416:2481   */\n  tag_24\n  jump\t// in\ntag_61:\n    /* \"#utility.yul\":2351:2487   */\n  pop\n    /* \"#utility.yul\":2298:2487   */\n  pop\n  pop\n  jump\t// out\n    /* \"#utility.yul\":2493:2679   */\ntag_27:\n    /* \"#utility.yul\":2553:2673   */\ntag_63:\n    /* \"#utility.yul\":2570:2573   */\n  dup2\n    /* \"#utility.yul\":2563:2568   */\n  dup2\n    /* \"#utility.yul\":2560:2574   */\n  lt\n    /* \"#utility.yul\":2553:2673   */\n  iszero\n  tag_65\n  jumpi\n    /* \"#utility.yul\":2624:2663   */\n  tag_66\n    /* \"#utility.yul\":2661:2662   */\n  0x00\n    /* \"#utility.yul\":2654:2659   */\n  dup3\n    /* \"#utility.yul\":2624:2663   */\n  tag_26\n  jump\t// in\ntag_66:\n    /* \"#utility.yul\":2597:2598   */\n  0x01\n    /* \"#utility.yul\":2590:2595   */\n  dup2\n    /* \"#utility.yul\":2586:2599   */\n  add\n    /* \"#utility.yul\":2577:2599   */\n  swap1\n  pop\n    /* \"#utility.yul\":2553:2673   */\n  jump(tag_63)\ntag_65:\n    /* \"#utility.yul\":2493:2679   */\n  pop\n  pop\n  jump\t// out\n    /* \"#utility.yul\":2685:3226   */\ntag_28:\n    /* \"#utility.yul\":2785:2787   */\n  0x1f\n    /* \"#utility.yul\":2780:2783   */\n  dup3\n    /* \"#utility.yul\":2777:2788   */\n  gt\n    /* \"#utility.yul\":2774:3219   */\n  iszero\n  tag_68\n  jumpi\n    /* \"#utility.yul\":2819:2856   */\n  tag_69\n    /* \"#utility.yul\":2850:2855   */\n  dup2\n    /* \"#utility.yul\":2819:2856   */\n  tag_16\n  jump\t// in\ntag_69:\n    /* \"#utility.yul\":2902:2931   */\n  tag_70\n    /* \"#utility.yul\":2920:2930   */\n  dup5\n    /* \"#utility.yul\":2902:2931   */\n  tag_17\n  jump\t// in\ntag_70:\n    /* \"#utility.yul\":2892:2900   */\n  dup2\n    /* \"#utility.yul\":2888:2932   */\n  add\n    /* \"#utility.yul\":3085:3087   */\n  0x20\n    /* \"#utility.yul\":3073:3083   */\n  dup6\n    /* \"#utility.yul\":3070:3088   */\n  lt\n    /* \"#utility.yul\":3067:3116   */\n  iszero\n  tag_71\n  jumpi\n    /* \"#utility.yul\":3106:3114   */\n  dup2\n    /* \"#utility.yul\":3091:3114   */\n  swap1\n  pop\n    /* \"#utility.yul\":3067:3116   */\ntag_71:\n    /* \"#utility.yul\":3129:3209   */\n  tag_72\n    /* \"#utility.yul\":3185:3207   */\n  tag_73\n    /* \"#utility.yul\":3203:3206   */\n  dup6\n    /* \"#utility.yul\":3185:3207   */\n  tag_17\n  jump\t// in\ntag_73:\n    /* \"#utility.yul\":3175:3183   */\n  dup4\n    /* \"#utility.yul\":3171:3208   */\n  add\n    /* \"#utility.yul\":3158:3169   */\n  dup3\n    /* \"#utility.yul\":3129:3209   */\n  tag_27\n  jump\t// in\ntag_72:\n    /* \"#utility.yul\":2789:3219   */\n  pop\n  pop\n    /* \"#utility.yul\":2774:3219   */\ntag_68:\n    /* \"#utility.yul\":2685:3226   */\n  pop\n  pop\n  pop\n  jump\t// out\n    /* \"#utility.yul\":3232:3349   */\ntag_29:\n    /* \"#utility.yul\":3286:3294   */\n  0x00\n    /* \"#utility.yul\":3336:3341   */\n  dup3\n    /* \"#utility.yul\":3330:3334   */\n  dup3\n    /* \"#utility.yul\":3326:3342   */\n  shr\n    /* \"#utility.yul\":3305:3342   */\n  swap1\n  pop\n    /* \"#utility.yul\":3232:3349   */\n  swap3\n  swap2\n  pop\n  pop\n  jump\t// out\n    /* \"#utility.yul\":3355:3524   */\ntag_30:\n    /* \"#utility.yul\":3399:3405   */\n  0x00\n    /* \"#utility.yul\":3432:3483   */\n  tag_76\n    /* \"#utility.yul\":3480:3481   */\n  0x00\n    /* \"#utility.yul\":3476:3482   */\n  not\n    /* \"#utility.yul\":3468:3473   */\n  dup5\n    /* \"#utility.yul\":3465:3466   */\n  0x08\n    /* \"#utility.yul\":3461:3474   */\n  mul\n    /* \"#utility.yul\":3432:3483   */\n  tag_29\n  jump\t// in\ntag_76:\n    /* \"#utility.yul\":3428:3484   */\n  not\n    /* \"#utility.yul\":3513:3517   */\n  dup1\n    /* \"#utility.yul\":3507:3511   */\n  dup4\n    /* \"#utility.yul\":3503:3518   */\n  and\n    /* \"#utility.yul\":3493:3518   */\n  swap2\n  pop\n    /* \"#utility.yul\":3406:3524   */\n  pop\n    /* \"#utility.yul\":3355:3524   */\n  swap3\n  swap2\n  pop\n  pop\n  jump\t// out\n    /* \"#utility.yul\":3529:3824   */\ntag_31:\n    /* \"#utility.yul\":3605:3609   */\n  0x00\n    /* \"#utility.yul\":3751:3780   */\n  tag_78\n    /* \"#utility.yul\":3776:3779   */\n  dup4\n    /* \"#utility.yul\":3770:3774   */\n  dup4\n    /* \"#utility.yul\":3751:3780   */\n  tag_30\n  jump\t// in\ntag_78:\n    /* \"#utility.yul\":3743:3780   */\n  swap2\n  pop\n    /* \"#utility.yul\":3813:3816   */\n  dup3\n    /* \"#utility.yul\":3810:3811   */\n  0x02\n    /* \"#utility.yul\":3806:3817   */\n  mul\n    /* \"#utility.yul\":3800:3804   */\n  dup3\n    /* \"#utility.yul\":3797:3818   */\n  or\n    /* \"#utility.yul\":3789:3818   */\n  swap1\n  pop\n    /* \"#utility.yul\":3529:3824   */\n  swap3\n  swap2\n  pop\n  pop\n  jump\t// out\n    /* \"#utility.yul\":3829:5219   */\ntag_6:\n    /* \"#utility.yul\":3944:3980   */\n  tag_80\n    /* \"#utility.yul\":3976:3979   */\n  dup3\n    /* \"#utility.yul\":3944:3980   */\n  tag_13\n  jump\t// in\ntag_80:\n    /* \"#utility.yul\":4045:4063   */\n  0xffffffffffffffff\n    /* \"#utility.yul\":4037:4043   */\n  dup2\n    /* \"#utility.yul\":4034:4064   */\n  gt\n    /* \"#utility.yul\":4031:4087   */\n  iszero\n  tag_81\n  jumpi\n    /* \"#utility.yul\":4067:4085   */\n  tag_82\n  tag_3\n  jump\t// in\ntag_82:\n    /* \"#utility.yul\":4031:4087   */\ntag_81:\n    /* \"#utility.yul\":4111:4149   */\n  tag_83\n    /* \"#utility.yul\":4143:4147   */\n  dup3\n    /* \"#utility.yul\":4137:4148   */\n  sload\n    /* \"#utility.yul\":4111:4149   */\n  tag_15\n  jump\t// in\ntag_83:\n    /* \"#utility.yul\":4196:4262   */\n  tag_84\n    /* \"#utility.yul\":4255:4261   */\n  dup3\n    /* \"#utility.yul\":4247:4253   */\n  dup3\n    /* \"#utility.yul\":4241:4245   */\n  dup6\n    /* \"#utility.yul\":4196:4262   */\n  tag_28\n  jump\t// in\ntag_84:\n    /* \"#utility.yul\":4289:4290   */\n  0x00\n    /* \"#utility.yul\":4313:4317   */\n  0x20\n    /* \"#utility.yul\":4300:4317   */\n  swap1\n  pop\n    /* \"#utility.yul\":4345:4347   */\n  0x1f\n    /* \"#utility.yul\":4337:4343   */\n  dup4\n    /* \"#utility.yul\":4334:4348   */\n  gt\n    /* \"#utility.yul\":4362:4363   */\n  0x01\n    /* \"#utility.yul\":4357:4974   */\n  dup2\n  eq\n  tag_86\n  jumpi\n    /* \"#utility.yul\":5018:5019   */\n  0x00\n    /* \"#utility.yul\":5035:5041   */\n  dup5\n    /* \"#utility.yul\":5032:5109   */\n  iszero\n  tag_87\n  jumpi\n    /* \"#utility.yul\":5084:5093   */\n  dup3\n    /* \"#utility.yul\":5079:5082   */\n  dup8\n    /* \"#utility.yul\":5075:5094   */\n  add\n    /* \"#utility.yul\":5069:5095   */\n  mload\n    /* \"#utility.yul\":5060:5095   */\n  swap1\n  pop\n    /* \"#utility.yul\":5032:5109   */\ntag_87:\n    /* \"#utility.yul\":5135:5202   */\n  tag_88\n    /* \"#utility.yul\":5195:5201   */\n  dup6\n    /* \"#utility.yul\":5188:5193   */\n  dup3\n    /* \"#utility.yul\":5135:5202   */\n  tag_31\n  jump\t// in\ntag_88:\n    /* \"#utility.yul\":5129:5133   */\n  dup7\n    /* \"#utility.yul\":5122:5203   */\n  sstore\n    /* \"#utility.yul\":4991:5213   */\n  pop\n    /* \"#utility.yul\":4327:5213   */\n  jump(tag_85)\n    /* \"#utility.yul\":4357:4974   */\ntag_86:\n    /* \"#utility.yul\":4409:4413   */\n  0x1f\n    /* \"#utility.yul\":4405:4414   */\n  not\n    /* \"#utility.yul\":4397:4403   */\n  dup5\n    /* \"#utility.yul\":4393:4415   */\n  and\n    /* \"#utility.yul\":4443:4479   */\n  tag_89\n    /* \"#utility.yul\":4474:4478   */\n  dup7\n    /* \"#utility.yul\":4443:4479   */\n  tag_16\n  jump\t// in\ntag_89:\n    /* \"#utility.yul\":4501:4502   */\n  0x00\n    /* \"#utility.yul\":4515:4723   */\ntag_90:\n    /* \"#utility.yul\":4529:4536   */\n  dup3\n    /* \"#utility.yul\":4526:4527   */\n  dup2\n    /* \"#utility.yul\":4523:4537   */\n  lt\n    /* \"#utility.yul\":4515:4723   */\n  iszero\n  tag_92\n  jumpi\n    /* \"#utility.yul\":4608:4617   */\n  dup5\n    /* \"#utility.yul\":4603:4606   */\n  dup10\n    /* \"#utility.yul\":4599:4618   */\n  add\n    /* \"#utility.yul\":4593:4619   */\n  mload\n    /* \"#utility.yul\":4585:4591   */\n  dup3\n    /* \"#utility.yul\":4578:4620   */\n  sstore\n    /* \"#utility.yul\":4659:4660   */\n  0x01\n    /* \"#utility.yul\":4651:4657   */\n  dup3\n    /* \"#utility.yul\":4647:4661   */\n  add\n    /* \"#utility.yul\":4637:4661   */\n  swap2\n  pop\n    /* \"#utility.yul\":4706:4708   */\n  0x20\n    /* \"#utility.yul\":4695:4704   */\n  dup6\n    /* \"#utility.yul\":4691:4709   */\n  add\n    /* \"#utility.yul\":4678:4709   */\n  swap5\n  pop\n    /* \"#utility.yul\":4552:4556   */\n  0x20\n    /* \"#utility.yul\":4549:4550   */\n  dup2\n    /* \"#utility.yul\":4545:4557   */\n  add\n    /* \"#utility.yul\":4540:4557   */\n  swap1\n  pop\n    /* \"#utility.yul\":4515:4723   */\n  jump(tag_90)\ntag_92:\n    /* \"#utility.yul\":4751:4757   */\n  dup7\n    /* \"#utility.yul\":4742:4749   */\n  dup4\n    /* \"#utility.yul\":4739:4758   */\n  lt\n    /* \"#utility.yul\":4736:4915   */\n  iszero\n  tag_93\n  jumpi\n    /* \"#utility.yul\":4809:4818   */\n  dup5\n    /* \"#utility.yul\":4804:4807   */\n  dup10\n    /* \"#utility.yul\":4800:4819   */\n  add\n    /* \"#utility.yul\":4794:4820   */\n  mload\n    /* \"#utility.yul\":4852:4900   */\n  tag_94\n    /* \"#utility.yul\":4894:4898   */\n  0x1f\n    /* \"#utility.yul\":4886:4892   */\n  dup10\n    /* \"#utility.yul\":4882:4899   */\n  and\n    /* \"#utility.yul\":4871:4880   */\n  dup3\n    /* \"#utility.yul\":4852:4900   */\n  tag_30\n  jump\t// in\ntag_94:\n    /* \"#utility.yul\":4844:4850   */\n  dup4\n    /* \"#utility.yul\":4837:4901   */\n  sstore\n    /* \"#utility.yul\":4759:4915   */\n  pop\n    /* \"#utility.yul\":4736:4915   */\ntag_93:\n    /* \"#utility.yul\":4961:4962   */\n  0x01\n    /* \"#utility.yul\":4957:4958   */\n  0x02\n    /* \"#utility.yul\":4949:4955   */\n  dup9\n    /* \"#utility.yul\":4945:4959   */\n  mul\n    /* \"#utility.yul\":4941:4963   */\n  add\n    /* \"#utility.yul\":4935:4939   */\n  dup9\n    /* \"#utility.yul\":4928:4964   */\n  sstore\n    /* \"#utility.yul\":4364:4974   */\n  pop\n  pop\n  pop\n    /* \"#utility.yul\":4327:5213   */\ntag_85:\n  pop\n    /* \"#utility.yul\":3919:5219   */\n  pop\n  pop\n  pop\n    /* \"#utility.yul\":3829:5219   */\n  pop\n  pop\n  jump\t// out\n    /* \"#utility.yul\":5225:5324   */\ntag_32:\n    /* \"#utility.yul\":5277:5283   */\n  0x00\n    /* \"#utility.yul\":5311:5316   */\n  dup2\n    /* \"#utility.yul\":5305:5317   */\n  mload\n    /* \"#utility.yul\":5295:5317   */\n  swap1\n  pop\n    /* \"#utility.yul\":5225:5324   */\n  swap2\n  swap1\n  pop\n  jump\t// out\n    /* \"#utility.yul\":5330:6722   */\ntag_11:\n    /* \"#utility.yul\":5446:5483   */\n  tag_97\n    /* \"#utility.yul\":5479:5482   */\n  dup3\n    /* \"#utility.yul\":5446:5483   */\n  tag_32\n  jump\t// in\ntag_97:\n    /* \"#utility.yul\":5548:5566   */\n  0xffffffffffffffff\n    /* \"#utility.yul\":5540:5546   */\n  dup2\n    /* \"#utility.yul\":5537:5567   */\n  gt\n    /* \"#utility.yul\":5534:5590   */\n  iszero\n  tag_98\n  jumpi\n    /* \"#utility.yul\":5570:5588   */\n  tag_99\n  tag_3\n  jump\t// in\ntag_99:\n    /* \"#utility.yul\":5534:5590   */\ntag_98:\n    /* \"#utility.yul\":5614:5652   */\n  tag_100\n    /* \"#utility.yul\":5646:5650   */\n  dup3\n    /* \"#utility.yul\":5640:5651   */\n  sload\n    /* \"#utility.yul\":5614:5652   */\n  tag_15\n  jump\t// in\ntag_100:\n    /* \"#utility.yul\":5699:5765   */\n  tag_101\n    /* \"#utility.yul\":5758:5764   */\n  dup3\n    /* \"#utility.yul\":5750:5756   */\n  dup3\n    /* \"#utility.yul\":5744:5748   */\n  dup6\n    /* \"#utility.yul\":5699:5765   */\n  tag_28\n  jump\t// in\ntag_101:\n    /* \"#utility.yul\":5792:5793   */\n  0x00\n    /* \"#utility.yul\":5816:5820   */\n  0x20\n    /* \"#utility.yul\":5803:5820   */\n  swap1\n  pop\n    /* \"#utility.yul\":5848:5850   */\n  0x1f\n    /* \"#utility.yul\":5840:5846   */\n  dup4\n    /* \"#utility.yul\":5837:5851   */\n  gt\n    /* \"#utility.yul\":5865:5866   */\n  0x01\n    /* \"#utility.yul\":5860:6477   */\n  dup2\n  eq\n  tag_103\n  jumpi\n    /* \"#utility.yul\":6521:6522   */\n  0x00\n    /* \"#utility.yul\":6538:6544   */\n  dup5\n    /* \"#utility.yul\":6535:6612   */\n  iszero\n  tag_104\n  jumpi\n    /* \"#utility.yul\":6587:6596   */\n  dup3\n    /* \"#utility.yul\":6582:6585   */\n  dup8\n    /* \"#utility.yul\":6578:6597   */\n  add\n    /* \"#utility.yul\":6572:6598   */\n  mload\n    /* \"#utility.yul\":6563:6598   */\n  swap1\n  pop\n    /* \"#utility.yul\":6535:6612   */\ntag_104:\n    /* \"#utility.yul\":6638:6705   */\n  tag_105\n    /* \"#utility.yul\":6698:6704   */\n  dup6\n    /* \"#utility.yul\":6691:6696   */\n  dup3\n    /* \"#utility.yul\":6638:6705   */\n  tag_31\n  jump\t// in\ntag_105:\n    /* \"#utility.yul\":6632:6636   */\n  dup7\n    /* \"#utility.yul\":6625:6706   */\n  sstore\n    /* \"#utility.yul\":6494:6716   */\n  pop\n    /* \"#utility.yul\":5830:6716   */\n  jump(tag_102)\n    /* \"#utility.yul\":5860:6477   */\ntag_103:\n    /* \"#utility.yul\":5912:5916   */\n  0x1f\n    /* \"#utility.yul\":5908:5917   */\n  not\n    /* \"#utility.yul\":5900:5906   */\n  dup5\n    /* \"#utility.yul\":5896:5918   */\n  and\n    /* \"#utility.yul\":5946:5982   */\n  tag_106\n    /* \"#utility.yul\":5977:5981   */\n  dup7\n    /* \"#utility.yul\":5946:5982   */\n  tag_16\n  jump\t// in\ntag_106:\n    /* \"#utility.yul\":6004:6005   */\n  0x00\n    /* \"#utility.yul\":6018:6226   */\ntag_107:\n    /* \"#utility.yul\":6032:6039   */\n  dup3\n    /* \"#utility.yul\":6029:6030   */\n  dup2\n    /* \"#utility.yul\":6026:6040   */\n  lt\n    /* \"#utility.yul\":6018:6226   */\n  iszero\n  tag_109\n  jumpi\n    /* \"#utility.yul\":6111:6120   */\n  dup5\n    /* \"#utility.yul\":6106:6109   */\n  dup10\n    /* \"#utility.yul\":6102:6121   */\n  add\n    /* \"#utility.yul\":6096:6122   */\n  mload\n    /* \"#utility.yul\":6088:6094   */\n  dup3\n    /* \"#utility.yul\":6081:6123   */\n  sstore\n    /* \"#utility.yul\":6162:6163   */\n  0x01\n    /* \"#utility.yul\":6154:6160   */\n  dup3\n    /* \"#utility.yul\":6150:6164   */\n  add\n    /* \"#utility.yul\":6140:6164   */\n  swap2\n  pop\n    /* \"#utility.yul\":6209:6211   */\n  0x20\n    /* \"#utility.yul\":6198:6207   */\n  dup6\n    /* \"#utility.yul\":6194:6212   */\n  add\n    /* \"#utility.yul\":6181:6212   */\n  swap5\n  pop\n    /* \"#utility.yul\":6055:6059   */\n  0x20\n    /* \"#utility.yul\":6052:6053   */\n  dup2\n    /* \"#utility.yul\":6048:6060   */\n  add\n    /* \"#utility.yul\":6043:6060   */\n  swap1\n  pop\n    /* \"#utility.yul\":6018:6226   */\n  jump(tag_107)\ntag_109:\n    /* \"#utility.yul\":6254:6260   */\n  dup7\n    /* \"#utility.yul\":6245:6252   */\n  dup4\n    /* \"#utility.yul\":6242:6261   */\n  lt\n    /* \"#utility.yul\":6239:6418   */\n  iszero\n  tag_110\n  jumpi\n    /* \"#utility.yul\":6312:6321   */\n  dup5\n    /* \"#utility.yul\":6307:6310   */\n  dup10\n    /* \"#utility.yul\":6303:6322   */\n  add\n    /* \"#utility.yul\":6297:6323   */\n  mload\n    /* \"#utility.yul\":6355:6403   */\n  tag_111\n    /* \"#utility.yul\":6397:6401   */\n  0x1f\n    /* \"#utility.yul\":6389:6395   */\n  dup10\n    /* \"#utility.yul\":6385:6402   */\n  and\n    /* \"#utility.yul\":6374:6383   */\n  dup3\n    /* \"#utility.yul\":6355:6403   */\n  tag_30\n  jump\t// in\ntag_111:\n    /* \"#utility.yul\":6347:6353   */\n  dup4\n    /* \"#utility.yul\":6340:6404   */\n  sstore\n    /* \"#utility.yul\":6262:6418   */\n  pop\n    /* \"#utility.yul\":6239:6418   */\ntag_110:\n    /* \"#utility.yul\":6464:6465   */\n  0x01\n    /* \"#utility.yul\":6460:6461   */\n  0x02\n    /* \"#utility.yul\":6452:6458   */\n  dup9\n    /* \"#utility.yul\":6448:6462   */\n  mul\n    /* \"#utility.yul\":6444:6466   */\n  add\n    /* \"#utility.yul\":6438:6442   */\n  dup9\n    /* \"#utility.yul\":6431:6467   */\n  sstore\n    /* \"#utility.yul\":5867:6477   */\n  pop\n  pop\n  pop\n    /* \"#utility.yul\":5830:6716   */\ntag_102:\n  pop\n    /* \"#utility.yul\":5421:6722   */\n  pop\n  pop\n  pop\n    /* \"#utility.yul\":5330:6722   */\n  pop\n  pop\n  jump\t// out\n    /* \"byte.sol\":58:412  contract local {... */\ntag_12:\n  dataSize(sub_0)\n  dup1\n  dataOffset(sub_0)\n  0x00\n  codecopy\n  0x00\n  return\nstop\n\nsub_0: assembly {\n        /* \"byte.sol\":58:412  contract local {... */\n      mstore(0x40, 0x80)\n      callvalue\n      dup1\n      iszero\n      tag_1\n      jumpi\n      0x00\n      dup1\n      revert\n    tag_1:\n      pop\n      jumpi(tag_2, lt(calldatasize, 0x04))\n      shr(0xe0, calldataload(0x00))\n      dup1\n      0x0dbe671f\n      eq\n      tag_3\n      jumpi\n      dup1\n      0x3f3108f7\n      eq\n      tag_4\n      jumpi\n      dup1\n      0x4df7e3d0\n      eq\n      tag_5\n      jumpi\n      dup1\n      0x8a054ac2\n      eq\n      tag_6\n      jumpi\n      dup1\n      0xc3da42b8\n      eq\n      tag_7\n      jumpi\n    tag_2:\n      0x00\n      dup1\n      revert\n        /* \"byte.sol\":211:240  bytes public a = new bytes(6) */\n    tag_3:\n      tag_8\n      tag_9\n      jump\t// in\n    tag_8:\n      mload(0x40)\n      tag_10\n      swap2\n      swap1\n      tag_11\n      jump\t// in\n    tag_10:\n      mload(0x40)\n      dup1\n      swap2\n      sub\n      swap1\n      return\n        /* \"byte.sol\":314:410  function setter() public{... */\n    tag_4:\n      tag_12\n      tag_13\n      jump\t// in\n    tag_12:\n      stop\n        /* \"byte.sol\":148:163  bytes2 public b */\n    tag_5:\n      tag_14\n      tag_15\n      jump\t// in\n    tag_14:\n      mload(0x40)\n      tag_16\n      swap2\n      swap1\n      tag_17\n      jump\t// in\n    tag_16:\n      mload(0x40)\n      dup1\n      swap2\n      sub\n      swap1\n      return\n        /* \"byte.sol\":246:260  bytes public d */\n    tag_6:\n      tag_18\n      tag_19\n      jump\t// in\n    tag_18:\n      mload(0x40)\n      tag_20\n      swap2\n      swap1\n      tag_11\n      jump\t// in\n    tag_20:\n      mload(0x40)\n      dup1\n      swap2\n      sub\n      swap1\n      return\n        /* \"byte.sol\":103:126  bytes3 public c = \"ABC\" */\n    tag_7:\n      tag_21\n      tag_22\n      jump\t// in\n    tag_21:\n      mload(0x40)\n      tag_23\n      swap2\n      swap1\n      tag_24\n      jump\t// in\n    tag_23:\n      mload(0x40)\n      dup1\n      swap2\n      sub\n      swap1\n      return\n        /* \"byte.sol\":211:240  bytes public a = new bytes(6) */\n    tag_9:\n      0x01\n      dup1\n      sload\n      tag_25\n      swap1\n      tag_26\n      jump\t// in\n    tag_25:\n      dup1\n      0x1f\n      add\n      0x20\n      dup1\n      swap2\n      div\n      mul\n      0x20\n      add\n      mload(0x40)\n      swap1\n      dup2\n      add\n      0x40\n      mstore\n      dup1\n      swap3\n      swap2\n      swap1\n      dup2\n      dup2\n      mstore\n      0x20\n      add\n      dup3\n      dup1\n      sload\n      tag_27\n      swap1\n      tag_26\n      jump\t// in\n    tag_27:\n      dup1\n      iszero\n      tag_28\n      jumpi\n      dup1\n      0x1f\n      lt\n      tag_29\n      jumpi\n      0x0100\n      dup1\n      dup4\n      sload\n      div\n      mul\n      dup4\n      mstore\n      swap2\n      0x20\n      add\n      swap2\n      jump(tag_28)\n    tag_29:\n      dup3\n      add\n      swap2\n      swap1\n      0x00\n      mstore\n      keccak256(0x00, 0x20)\n      swap1\n    tag_30:\n      dup2\n      sload\n      dup2\n      mstore\n      swap1\n      0x01\n      add\n      swap1\n      0x20\n      add\n      dup1\n      dup4\n      gt\n      tag_30\n      jumpi\n      dup3\n      swap1\n      sub\n      0x1f\n      and\n      dup3\n      add\n      swap2\n    tag_28:\n      pop\n      pop\n      pop\n      pop\n      pop\n      dup2\n      jump\t// out\n        /* \"byte.sol\":314:410  function setter() public{... */\n    tag_13:\n        /* \"byte.sol\":347:365  d = \"fsjdfjhfajhf\" */\n      mload(0x40)\n      dup1\n      0x40\n      add\n      0x40\n      mstore\n      dup1\n      0x0c\n      dup2\n      mstore\n      0x20\n      add\n      0x66736a64666a6866616a68660000000000000000000000000000000000000000\n      dup2\n      mstore\n      pop\n        /* \"byte.sol\":347:348  d */\n      0x02\n        /* \"byte.sol\":347:365  d = \"fsjdfjhfajhf\" */\n      swap1\n      dup2\n      tag_32\n      swap2\n      swap1\n      tag_33\n      jump\t// in\n    tag_32:\n      pop\n        /* \"byte.sol\":374:384  d[0] = 'm' */\n      0x6d00000000000000000000000000000000000000000000000000000000000000\n        /* \"byte.sol\":374:375  d */\n      0x02\n        /* \"byte.sol\":376:377  0 */\n      0x00\n        /* \"byte.sol\":374:378  d[0] */\n      dup2\n      sload\n      tag_34\n      swap1\n      tag_26\n      jump\t// in\n    tag_34:\n      dup2\n      lt\n      tag_35\n      jumpi\n      tag_36\n      tag_37\n      jump\t// in\n    tag_36:\n    tag_35:\n      dup2\n      sload\n      0x01\n      and\n      iszero\n      tag_38\n      jumpi\n      swap1\n      0x00\n      mstore\n      keccak256(0x00, 0x20)\n      swap1\n      0x20\n      swap2\n      dup3\n      dup3\n      div\n      add\n      swap2\n      swap1\n      mod\n    tag_38:\n        /* \"byte.sol\":374:384  d[0] = 'm' */\n      0x1f\n      sub\n      0x0100\n      exp\n      dup2\n      sload\n      dup2\n      0xff\n      mul\n      not\n      and\n      swap1\n      0x0100000000000000000000000000000000000000000000000000000000000000\n      dup5\n      div\n      mul\n      or\n      swap1\n      sstore\n      pop\n        /* \"byte.sol\":393:403  a[0] = 'p' */\n      0x7000000000000000000000000000000000000000000000000000000000000000\n        /* \"byte.sol\":393:394  a */\n      0x01\n        /* \"byte.sol\":395:396  0 */\n      0x00\n        /* \"byte.sol\":393:397  a[0] */\n      dup2\n      sload\n      tag_39\n      swap1\n      tag_26\n      jump\t// in\n    tag_39:\n      dup2\n      lt\n      tag_40\n      jumpi\n      tag_41\n      tag_37\n      jump\t// in\n    tag_41:\n    tag_40:\n      dup2\n      sload\n      0x01\n      and\n      iszero\n      tag_42\n      jumpi\n      swap1\n      0x00\n      mstore\n      keccak256(0x00, 0x20)\n      swap1\n      0x20\n      swap2\n      dup3\n      dup3\n      div\n      add\n      swap2\n      swap1\n      mod\n    tag_42:\n        /* \"byte.sol\":393:403  a[0] = 'p' */\n      0x1f\n      sub\n      0x0100\n      exp\n      dup2\n      sload\n      dup2\n      0xff\n      mul\n      not\n      and\n      swap1\n      0x0100000000000000000000000000000000000000000000000000000000000000\n      dup5\n      div\n      mul\n      or\n      swap1\n      sstore\n      pop\n        /* \"byte.sol\":314:410  function setter() public{... */\n      jump\t// out\n        /* \"byte.sol\":148:163  bytes2 public b */\n    tag_15:\n      0x00\n      0x03\n      swap1\n      sload\n      swap1\n      0x0100\n      exp\n      swap1\n      div\n      0xf0\n      shl\n      dup2\n      jump\t// out\n        /* \"byte.sol\":246:260  bytes public d */\n    tag_19:\n      0x02\n      dup1\n      sload\n      tag_43\n      swap1\n      tag_26\n      jump\t// in\n    tag_43:\n      dup1\n      0x1f\n      add\n      0x20\n      dup1\n      swap2\n      div\n      mul\n      0x20\n      add\n      mload(0x40)\n      swap1\n      dup2\n      add\n      0x40\n      mstore\n      dup1\n      swap3\n      swap2\n      swap1\n      dup2\n      dup2\n      mstore\n      0x20\n      add\n      dup3\n      dup1\n      sload\n      tag_44\n      swap1\n      tag_26\n      jump\t// in\n    tag_44:\n      dup1\n      iszero\n      tag_45\n      jumpi\n      dup1\n      0x1f\n      lt\n      tag_46\n      jumpi\n      0x0100\n      dup1\n      dup4\n      sload\n      div\n      mul\n      dup4\n      mstore\n      swap2\n      0x20\n      add\n      swap2\n      jump(tag_45)\n    tag_46:\n      dup3\n      add\n      swap2\n      swap1\n      0x00\n      mstore\n      keccak256(0x00, 0x20)\n      swap1\n    tag_47:\n      dup2\n      sload\n      dup2\n      mstore\n      swap1\n      0x01\n      add\n      swap1\n      0x20\n      add\n      dup1\n      dup4\n      gt\n      tag_47\n      jumpi\n      dup3\n      swap1\n      sub\n      0x1f\n      and\n      dup3\n      add\n      swap2\n    tag_45:\n      pop\n      pop\n      pop\n      pop\n      pop\n      dup2\n      jump\t// out\n        /* \"byte.sol\":103:126  bytes3 public c = \"ABC\" */\n    tag_22:\n      0x00\n      dup1\n      sload\n      swap1\n      0x0100\n      exp\n      swap1\n      div\n      0xe8\n      shl\n      dup2\n      jump\t// out\n        /* \"#utility.yul\":7:105   */\n    tag_48:\n        /* \"#utility.yul\":58:64   */\n      0x00\n        /* \"#utility.yul\":92:97   */\n      dup2\n        /* \"#utility.yul\":86:98   */\n      mload\n        /* \"#utility.yul\":76:98   */\n      swap1\n      pop\n        /* \"#utility.yul\":7:105   */\n      swap2\n      swap1\n      pop\n      jump\t// out\n        /* \"#utility.yul\":111:279   */\n    tag_49:\n        /* \"#utility.yul\":194:205   */\n      0x00\n        /* \"#utility.yul\":228:234   */\n      dup3\n        /* \"#utility.yul\":223:226   */\n      dup3\n        /* \"#utility.yul\":216:235   */\n      mstore\n        /* \"#utility.yul\":268:272   */\n      0x20\n        /* \"#utility.yul\":263:266   */\n      dup3\n        /* \"#utility.yul\":259:273   */\n      add\n        /* \"#utility.yul\":244:273   */\n      swap1\n      pop\n        /* \"#utility.yul\":111:279   */\n      swap3\n      swap2\n      pop\n      pop\n      jump\t// out\n        /* \"#utility.yul\":285:531   */\n    tag_50:\n        /* \"#utility.yul\":366:367   */\n      0x00\n        /* \"#utility.yul\":376:489   */\n    tag_80:\n        /* \"#utility.yul\":390:396   */\n      dup4\n        /* \"#utility.yul\":387:388   */\n      dup2\n        /* \"#utility.yul\":384:397   */\n      lt\n        /* \"#utility.yul\":376:489   */\n      iszero\n      tag_82\n      jumpi\n        /* \"#utility.yul\":475:476   */\n      dup1\n        /* \"#utility.yul\":470:473   */\n      dup3\n        /* \"#utility.yul\":466:477   */\n      add\n        /* \"#utility.yul\":460:478   */\n      mload\n        /* \"#utility.yul\":456:457   */\n      dup2\n        /* \"#utility.yul\":451:454   */\n      dup5\n        /* \"#utility.yul\":447:458   */\n      add\n        /* \"#utility.yul\":440:479   */\n      mstore\n        /* \"#utility.yul\":412:414   */\n      0x20\n        /* \"#utility.yul\":409:410   */\n      dup2\n        /* \"#utility.yul\":405:415   */\n      add\n        /* \"#utility.yul\":400:415   */\n      swap1\n      pop\n        /* \"#utility.yul\":376:489   */\n      jump(tag_80)\n    tag_82:\n        /* \"#utility.yul\":523:524   */\n      0x00\n        /* \"#utility.yul\":514:520   */\n      dup5\n        /* \"#utility.yul\":509:512   */\n      dup5\n        /* \"#utility.yul\":505:521   */\n      add\n        /* \"#utility.yul\":498:525   */\n      mstore\n        /* \"#utility.yul\":347:531   */\n      pop\n        /* \"#utility.yul\":285:531   */\n      pop\n      pop\n      pop\n      jump\t// out\n        /* \"#utility.yul\":537:639   */\n    tag_51:\n        /* \"#utility.yul\":578:584   */\n      0x00\n        /* \"#utility.yul\":629:631   */\n      0x1f\n        /* \"#utility.yul\":625:632   */\n      not\n        /* \"#utility.yul\":620:622   */\n      0x1f\n        /* \"#utility.yul\":613:618   */\n      dup4\n        /* \"#utility.yul\":609:623   */\n      add\n        /* \"#utility.yul\":605:633   */\n      and\n        /* \"#utility.yul\":595:633   */\n      swap1\n      pop\n        /* \"#utility.yul\":537:639   */\n      swap2\n      swap1\n      pop\n      jump\t// out\n        /* \"#utility.yul\":645:1018   */\n    tag_52:\n        /* \"#utility.yul\":731:734   */\n      0x00\n        /* \"#utility.yul\":759:797   */\n      tag_85\n        /* \"#utility.yul\":791:796   */\n      dup3\n        /* \"#utility.yul\":759:797   */\n      tag_48\n      jump\t// in\n    tag_85:\n        /* \"#utility.yul\":813:883   */\n      tag_86\n        /* \"#utility.yul\":876:882   */\n      dup2\n        /* \"#utility.yul\":871:874   */\n      dup6\n        /* \"#utility.yul\":813:883   */\n      tag_49\n      jump\t// in\n    tag_86:\n        /* \"#utility.yul\":806:883   */\n      swap4\n      pop\n        /* \"#utility.yul\":892:957   */\n      tag_87\n        /* \"#utility.yul\":950:956   */\n      dup2\n        /* \"#utility.yul\":945:948   */\n      dup6\n        /* \"#utility.yul\":938:942   */\n      0x20\n        /* \"#utility.yul\":931:936   */\n      dup7\n        /* \"#utility.yul\":927:943   */\n      add\n        /* \"#utility.yul\":892:957   */\n      tag_50\n      jump\t// in\n    tag_87:\n        /* \"#utility.yul\":982:1011   */\n      tag_88\n        /* \"#utility.yul\":1004:1010   */\n      dup2\n        /* \"#utility.yul\":982:1011   */\n      tag_51\n      jump\t// in\n    tag_88:\n        /* \"#utility.yul\":977:980   */\n      dup5\n        /* \"#utility.yul\":973:1012   */\n      add\n        /* \"#utility.yul\":966:1012   */\n      swap2\n      pop\n        /* \"#utility.yul\":735:1018   */\n      pop\n        /* \"#utility.yul\":645:1018   */\n      swap3\n      swap2\n      pop\n      pop\n      jump\t// out\n        /* \"#utility.yul\":1024:1333   */\n    tag_11:\n        /* \"#utility.yul\":1135:1139   */\n      0x00\n        /* \"#utility.yul\":1173:1175   */\n      0x20\n        /* \"#utility.yul\":1162:1171   */\n      dup3\n        /* \"#utility.yul\":1158:1176   */\n      add\n        /* \"#utility.yul\":1150:1176   */\n      swap1\n      pop\n        /* \"#utility.yul\":1222:1231   */\n      dup2\n        /* \"#utility.yul\":1216:1220   */\n      dup2\n        /* \"#utility.yul\":1212:1232   */\n      sub\n        /* \"#utility.yul\":1208:1209   */\n      0x00\n        /* \"#utility.yul\":1197:1206   */\n      dup4\n        /* \"#utility.yul\":1193:1210   */\n      add\n        /* \"#utility.yul\":1186:1233   */\n      mstore\n        /* \"#utility.yul\":1250:1326   */\n      tag_90\n        /* \"#utility.yul\":1321:1325   */\n      dup2\n        /* \"#utility.yul\":1312:1318   */\n      dup5\n        /* \"#utility.yul\":1250:1326   */\n      tag_52\n      jump\t// in\n    tag_90:\n        /* \"#utility.yul\":1242:1326   */\n      swap1\n      pop\n        /* \"#utility.yul\":1024:1333   */\n      swap3\n      swap2\n      pop\n      pop\n      jump\t// out\n        /* \"#utility.yul\":1339:1488   */\n    tag_53:\n        /* \"#utility.yul\":1375:1382   */\n      0x00\n        /* \"#utility.yul\":1415:1481   */\n      0xffff000000000000000000000000000000000000000000000000000000000000\n        /* \"#utility.yul\":1408:1413   */\n      dup3\n        /* \"#utility.yul\":1404:1482   */\n      and\n        /* \"#utility.yul\":1393:1482   */\n      swap1\n      pop\n        /* \"#utility.yul\":1339:1488   */\n      swap2\n      swap1\n      pop\n      jump\t// out\n        /* \"#utility.yul\":1494:1609   */\n    tag_54:\n        /* \"#utility.yul\":1579:1602   */\n      tag_93\n        /* \"#utility.yul\":1596:1601   */\n      dup2\n        /* \"#utility.yul\":1579:1602   */\n      tag_53\n      jump\t// in\n    tag_93:\n        /* \"#utility.yul\":1574:1577   */\n      dup3\n        /* \"#utility.yul\":1567:1603   */\n      mstore\n        /* \"#utility.yul\":1494:1609   */\n      pop\n      pop\n      jump\t// out\n        /* \"#utility.yul\":1615:1833   */\n    tag_17:\n        /* \"#utility.yul\":1706:1710   */\n      0x00\n        /* \"#utility.yul\":1744:1746   */\n      0x20\n        /* \"#utility.yul\":1733:1742   */\n      dup3\n        /* \"#utility.yul\":1729:1747   */\n      add\n        /* \"#utility.yul\":1721:1747   */\n      swap1\n      pop\n        /* \"#utility.yul\":1757:1826   */\n      tag_95\n        /* \"#utility.yul\":1823:1824   */\n      0x00\n        /* \"#utility.yul\":1812:1821   */\n      dup4\n        /* \"#utility.yul\":1808:1825   */\n      add\n        /* \"#utility.yul\":1799:1805   */\n      dup5\n        /* \"#utility.yul\":1757:1826   */\n      tag_54\n      jump\t// in\n    tag_95:\n        /* \"#utility.yul\":1615:1833   */\n      swap3\n      swap2\n      pop\n      pop\n      jump\t// out\n        /* \"#utility.yul\":1839:1988   */\n    tag_55:\n        /* \"#utility.yul\":1875:1882   */\n      0x00\n        /* \"#utility.yul\":1915:1981   */\n      0xffffff0000000000000000000000000000000000000000000000000000000000\n        /* \"#utility.yul\":1908:1913   */\n      dup3\n        /* \"#utility.yul\":1904:1982   */\n      and\n        /* \"#utility.yul\":1893:1982   */\n      swap1\n      pop\n        /* \"#utility.yul\":1839:1988   */\n      swap2\n      swap1\n      pop\n      jump\t// out\n        /* \"#utility.yul\":1994:2109   */\n    tag_56:\n        /* \"#utility.yul\":2079:2102   */\n      tag_98\n        /* \"#utility.yul\":2096:2101   */\n      dup2\n        /* \"#utility.yul\":2079:2102   */\n      tag_55\n      jump\t// in\n    tag_98:\n        /* \"#utility.yul\":2074:2077   */\n      dup3\n        /* \"#utility.yul\":2067:2103   */\n      mstore\n        /* \"#utility.yul\":1994:2109   */\n      pop\n      pop\n      jump\t// out\n        /* \"#utility.yul\":2115:2333   */\n    tag_24:\n        /* \"#utility.yul\":2206:2210   */\n      0x00\n        /* \"#utility.yul\":2244:2246   */\n      0x20\n        /* \"#utility.yul\":2233:2242   */\n      dup3\n        /* \"#utility.yul\":2229:2247   */\n      add\n        /* \"#utility.yul\":2221:2247   */\n      swap1\n      pop\n        /* \"#utility.yul\":2257:2326   */\n      tag_100\n        /* \"#utility.yul\":2323:2324   */\n      0x00\n        /* \"#utility.yul\":2312:2321   */\n      dup4\n        /* \"#utility.yul\":2308:2325   */\n      add\n        /* \"#utility.yul\":2299:2305   */\n      dup5\n        /* \"#utility.yul\":2257:2326   */\n      tag_56\n      jump\t// in\n    tag_100:\n        /* \"#utility.yul\":2115:2333   */\n      swap3\n      swap2\n      pop\n      pop\n      jump\t// out\n        /* \"#utility.yul\":2339:2519   */\n    tag_57:\n        /* \"#utility.yul\":2387:2464   */\n      0x4e487b7100000000000000000000000000000000000000000000000000000000\n        /* \"#utility.yul\":2384:2385   */\n      0x00\n        /* \"#utility.yul\":2377:2465   */\n      mstore\n        /* \"#utility.yul\":2484:2488   */\n      0x22\n        /* \"#utility.yul\":2481:2482   */\n      0x04\n        /* \"#utility.yul\":2474:2489   */\n      mstore\n        /* \"#utility.yul\":2508:2512   */\n      0x24\n        /* \"#utility.yul\":2505:2506   */\n      0x00\n        /* \"#utility.yul\":2498:2513   */\n      revert\n        /* \"#utility.yul\":2525:2845   */\n    tag_26:\n        /* \"#utility.yul\":2569:2575   */\n      0x00\n        /* \"#utility.yul\":2606:2607   */\n      0x02\n        /* \"#utility.yul\":2600:2604   */\n      dup3\n        /* \"#utility.yul\":2596:2608   */\n      div\n        /* \"#utility.yul\":2586:2608   */\n      swap1\n      pop\n        /* \"#utility.yul\":2653:2654   */\n      0x01\n        /* \"#utility.yul\":2647:2651   */\n      dup3\n        /* \"#utility.yul\":2643:2655   */\n      and\n        /* \"#utility.yul\":2674:2692   */\n      dup1\n        /* \"#utility.yul\":2664:2745   */\n      tag_103\n      jumpi\n        /* \"#utility.yul\":2730:2734   */\n      0x7f\n        /* \"#utility.yul\":2722:2728   */\n      dup3\n        /* \"#utility.yul\":2718:2735   */\n      and\n        /* \"#utility.yul\":2708:2735   */\n      swap2\n      pop\n        /* \"#utility.yul\":2664:2745   */\n    tag_103:\n        /* \"#utility.yul\":2792:2794   */\n      0x20\n        /* \"#utility.yul\":2784:2790   */\n      dup3\n        /* \"#utility.yul\":2781:2795   */\n      lt\n        /* \"#utility.yul\":2761:2779   */\n      dup2\n        /* \"#utility.yul\":2758:2796   */\n      sub\n        /* \"#utility.yul\":2755:2839   */\n      tag_104\n      jumpi\n        /* \"#utility.yul\":2811:2829   */\n      tag_105\n      tag_57\n      jump\t// in\n    tag_105:\n        /* \"#utility.yul\":2755:2839   */\n    tag_104:\n        /* \"#utility.yul\":2576:2845   */\n      pop\n        /* \"#utility.yul\":2525:2845   */\n      swap2\n      swap1\n      pop\n      jump\t// out\n        /* \"#utility.yul\":2851:2950   */\n    tag_58:\n        /* \"#utility.yul\":2903:2909   */\n      0x00\n        /* \"#utility.yul\":2937:2942   */\n      dup2\n        /* \"#utility.yul\":2931:2943   */\n      mload\n        /* \"#utility.yul\":2921:2943   */\n      swap1\n      pop\n        /* \"#utility.yul\":2851:2950   */\n      swap2\n      swap1\n      pop\n      jump\t// out\n        /* \"#utility.yul\":2956:3136   */\n    tag_59:\n        /* \"#utility.yul\":3004:3081   */\n      0x4e487b7100000000000000000000000000000000000000000000000000000000\n        /* \"#utility.yul\":3001:3002   */\n      0x00\n        /* \"#utility.yul\":2994:3082   */\n      mstore\n        /* \"#utility.yul\":3101:3105   */\n      0x41\n        /* \"#utility.yul\":3098:3099   */\n      0x04\n        /* \"#utility.yul\":3091:3106   */\n      mstore\n        /* \"#utility.yul\":3125:3129   */\n      0x24\n        /* \"#utility.yul\":3122:3123   */\n      0x00\n        /* \"#utility.yul\":3115:3130   */\n      revert\n        /* \"#utility.yul\":3142:3282   */\n    tag_60:\n        /* \"#utility.yul\":3190:3194   */\n      0x00\n        /* \"#utility.yul\":3213:3216   */\n      dup2\n        /* \"#utility.yul\":3205:3216   */\n      swap1\n      pop\n        /* \"#utility.yul\":3236:3239   */\n      dup2\n        /* \"#utility.yul\":3233:3234   */\n      0x00\n        /* \"#utility.yul\":3226:3240   */\n      mstore\n        /* \"#utility.yul\":3270:3274   */\n      0x20\n        /* \"#utility.yul\":3267:3268   */\n      0x00\n        /* \"#utility.yul\":3257:3275   */\n      keccak256\n        /* \"#utility.yul\":3249:3275   */\n      swap1\n      pop\n        /* \"#utility.yul\":3142:3282   */\n      swap2\n      swap1\n      pop\n      jump\t// out\n        /* \"#utility.yul\":3288:3381   */\n    tag_61:\n        /* \"#utility.yul\":3325:3331   */\n      0x00\n        /* \"#utility.yul\":3372:3374   */\n      0x20\n        /* \"#utility.yul\":3367:3369   */\n      0x1f\n        /* \"#utility.yul\":3360:3365   */\n      dup4\n        /* \"#utility.yul\":3356:3370   */\n      add\n        /* \"#utility.yul\":3352:3375   */\n      div\n        /* \"#utility.yul\":3342:3375   */\n      swap1\n      pop\n        /* \"#utility.yul\":3288:3381   */\n      swap2\n      swap1\n      pop\n      jump\t// out\n        /* \"#utility.yul\":3387:3494   */\n    tag_62:\n        /* \"#utility.yul\":3431:3439   */\n      0x00\n        /* \"#utility.yul\":3481:3486   */\n      dup3\n        /* \"#utility.yul\":3475:3479   */\n      dup3\n        /* \"#utility.yul\":3471:3487   */\n      shl\n        /* \"#utility.yul\":3450:3487   */\n      swap1\n      pop\n        /* \"#utility.yul\":3387:3494   */\n      swap3\n      swap2\n      pop\n      pop\n      jump\t// out\n        /* \"#utility.yul\":3500:3893   */\n    tag_63:\n        /* \"#utility.yul\":3569:3575   */\n      0x00\n        /* \"#utility.yul\":3619:3620   */\n      0x08\n        /* \"#utility.yul\":3607:3617   */\n      dup4\n        /* \"#utility.yul\":3603:3621   */\n      mul\n        /* \"#utility.yul\":3642:3739   */\n      tag_112\n        /* \"#utility.yul\":3672:3738   */\n      0xffffffffffffffffffffffffffffffffffffffffffffffffffffffffffffffff\n        /* \"#utility.yul\":3661:3670   */\n      dup3\n        /* \"#utility.yul\":3642:3739   */\n      tag_62\n      jump\t// in\n    tag_112:\n        /* \"#utility.yul\":3760:3799   */\n      tag_113\n        /* \"#utility.yul\":3790:3798   */\n      dup7\n        /* \"#utility.yul\":3779:3788   */\n      dup4\n        /* \"#utility.yul\":3760:3799   */\n      tag_62\n      jump\t// in\n    tag_113:\n        /* \"#utility.yul\":3748:3799   */\n      swap6\n      pop\n        /* \"#utility.yul\":3832:3836   */\n      dup1\n        /* \"#utility.yul\":3828:3837   */\n      not\n        /* \"#utility.yul\":3821:3826   */\n      dup5\n        /* \"#utility.yul\":3817:3838   */\n      and\n        /* \"#utility.yul\":3808:3838   */\n      swap4\n      pop\n        /* \"#utility.yul\":3881:3885   */\n      dup1\n        /* \"#utility.yul\":3871:3879   */\n      dup7\n        /* \"#utility.yul\":3867:3886   */\n      and\n        /* \"#utility.yul\":3860:3865   */\n      dup5\n        /* \"#utility.yul\":3857:3887   */\n      or\n        /* \"#utility.yul\":3847:3887   */\n      swap3\n      pop\n        /* \"#utility.yul\":3576:3893   */\n      pop\n      pop\n        /* \"#utility.yul\":3500:3893   */\n      swap4\n      swap3\n      pop\n      pop\n      pop\n      jump\t// out\n        /* \"#utility.yul\":3899:3976   */\n    tag_64:\n        /* \"#utility.yul\":3936:3943   */\n      0x00\n        /* \"#utility.yul\":3965:3970   */\n      dup2\n        /* \"#utility.yul\":3954:3970   */\n      swap1\n      pop\n        /* \"#utility.yul\":3899:3976   */\n      swap2\n      swap1\n      pop\n      jump\t// out\n        /* \"#utility.yul\":3982:4042   */\n    tag_65:\n        /* \"#utility.yul\":4010:4013   */\n      0x00\n        /* \"#utility.yul\":4031:4036   */\n      dup2\n        /* \"#utility.yul\":4024:4036   */\n      swap1\n      pop\n        /* \"#utility.yul\":3982:4042   */\n      swap2\n      swap1\n      pop\n      jump\t// out\n        /* \"#utility.yul\":4048:4190   */\n    tag_66:\n        /* \"#utility.yul\":4098:4107   */\n      0x00\n        /* \"#utility.yul\":4131:4184   */\n      tag_117\n        /* \"#utility.yul\":4149:4183   */\n      tag_118\n        /* \"#utility.yul\":4158:4182   */\n      tag_119\n        /* \"#utility.yul\":4176:4181   */\n      dup5\n        /* \"#utility.yul\":4158:4182   */\n      tag_64\n      jump\t// in\n    tag_119:\n        /* \"#utility.yul\":4149:4183   */\n      tag_65\n      jump\t// in\n    tag_118:\n        /* \"#utility.yul\":4131:4184   */\n      tag_64\n      jump\t// in\n    tag_117:\n        /* \"#utility.yul\":4118:4184   */\n      swap1\n      pop\n        /* \"#utility.yul\":4048:4190   */\n      swap2\n      swap1\n      pop\n      jump\t// out\n        /* \"#utility.yul\":4196:4271   */\n    tag_67:\n        /* \"#utility.yul\":4239:4242   */\n      0x00\n        /* \"#utility.yul\":4260:4265   */\n      dup2\n        /* \"#utility.yul\":4253:4265   */\n      swap1\n      pop\n        /* \"#utility.yul\":4196:4271   */\n      swap2\n      swap1\n      pop\n      jump\t// out\n        /* \"#utility.yul\":4277:4546   */\n    tag_68:\n        /* \"#utility.yul\":4387:4426   */\n      tag_122\n        /* \"#utility.yul\":4418:4425   */\n      dup4\n        /* \"#utility.yul\":4387:4426   */\n      tag_66\n      jump\t// in\n    tag_122:\n        /* \"#utility.yul\":4448:4539   */\n      tag_123\n        /* \"#utility.yul\":4497:4538   */\n      tag_124\n        /* \"#utility.yul\":4521:4537   */\n      dup3\n        /* \"#utility.yul\":4497:4538   */\n      tag_67\n      jump\t// in\n    tag_124:\n        /* \"#utility.yul\":4489:4495   */\n      dup5\n        /* \"#utility.yul\":4482:4486   */\n      dup5\n        /* \"#utility.yul\":4476:4487   */\n      sload\n        /* \"#utility.yul\":4448:4539   */\n      tag_63\n      jump\t// in\n    tag_123:\n        /* \"#utility.yul\":4442:4446   */\n      dup3\n        /* \"#utility.yul\":4435:4540   */\n      sstore\n        /* \"#utility.yul\":4353:4546   */\n      pop\n        /* \"#utility.yul\":4277:4546   */\n      pop\n      pop\n      pop\n      jump\t// out\n        /* \"#utility.yul\":4552:4625   */\n    tag_69:\n        /* \"#utility.yul\":4597:4600   */\n      0x00\n        /* \"#utility.yul\":4552:4625   */\n      swap1\n      jump\t// out\n        /* \"#utility.yul\":4631:4820   */\n    tag_70:\n        /* \"#utility.yul\":4708:4740   */\n      tag_127\n      tag_69\n      jump\t// in\n    tag_127:\n        /* \"#utility.yul\":4749:4814   */\n      tag_128\n        /* \"#utility.yul\":4807:4813   */\n      dup2\n        /* \"#utility.yul\":4799:4805   */\n      dup5\n        /* \"#utility.yul\":4793:4797   */\n      dup5\n        /* \"#utility.yul\":4749:4814   */\n      tag_68\n      jump\t// in\n    tag_128:\n        /* \"#utility.yul\":4684:4820   */\n      pop\n        /* \"#utility.yul\":4631:4820   */\n      pop\n      pop\n      jump\t// out\n        /* \"#utility.yul\":4826:5012   */\n    tag_71:\n        /* \"#utility.yul\":4886:5006   */\n    tag_130:\n        /* \"#utility.yul\":4903:4906   */\n      dup2\n        /* \"#utility.yul\":4896:4901   */\n      dup2\n        /* \"#utility.yul\":4893:4907   */\n      lt\n        /* \"#utility.yul\":4886:5006   */\n      iszero\n      tag_132\n      jumpi\n        /* \"#utility.yul\":4957:4996   */\n      tag_133\n        /* \"#utility.yul\":4994:4995   */\n      0x00\n        /* \"#utility.yul\":4987:4992   */\n      dup3\n        /* \"#utility.yul\":4957:4996   */\n      tag_70\n      jump\t// in\n    tag_133:\n        /* \"#utility.yul\":4930:4931   */\n      0x01\n        /* \"#utility.yul\":4923:4928   */\n      dup2\n        /* \"#utility.yul\":4919:4932   */\n      add\n        /* \"#utility.yul\":4910:4932   */\n      swap1\n      pop\n        /* \"#utility.yul\":4886:5006   */\n      jump(tag_130)\n    tag_132:\n        /* \"#utility.yul\":4826:5012   */\n      pop\n      pop\n      jump\t// out\n        /* \"#utility.yul\":5018:5559   */\n    tag_72:\n        /* \"#utility.yul\":5118:5120   */\n      0x1f\n        /* \"#utility.yul\":5113:5116   */\n      dup3\n        /* \"#utility.yul\":5110:5121   */\n      gt\n        /* \"#utility.yul\":5107:5552   */\n      iszero\n      tag_135\n      jumpi\n        /* \"#utility.yul\":5152:5189   */\n      tag_136\n        /* \"#utility.yul\":5183:5188   */\n      dup2\n        /* \"#utility.yul\":5152:5189   */\n      tag_60\n      jump\t// in\n    tag_136:\n        /* \"#utility.yul\":5235:5264   */\n      tag_137\n        /* \"#utility.yul\":5253:5263   */\n      dup5\n        /* \"#utility.yul\":5235:5264   */\n      tag_61\n      jump\t// in\n    tag_137:\n        /* \"#utility.yul\":5225:5233   */\n      dup2\n        /* \"#utility.yul\":5221:5265   */\n      add\n        /* \"#utility.yul\":5418:5420   */\n      0x20\n        /* \"#utility.yul\":5406:5416   */\n      dup6\n        /* \"#utility.yul\":5403:5421   */\n      lt\n        /* \"#utility.yul\":5400:5449   */\n      iszero\n      tag_138\n      jumpi\n        /* \"#utility.yul\":5439:5447   */\n      dup2\n        /* \"#utility.yul\":5424:5447   */\n      swap1\n      pop\n        /* \"#utility.yul\":5400:5449   */\n    tag_138:\n        /* \"#utility.yul\":5462:5542   */\n      tag_139\n        /* \"#utility.yul\":5518:5540   */\n      tag_140\n        /* \"#utility.yul\":5536:5539   */\n      dup6\n        /* \"#utility.yul\":5518:5540   */\n      tag_61\n      jump\t// in\n    tag_140:\n        /* \"#utility.yul\":5508:5516   */\n      dup4\n        /* \"#utility.yul\":5504:5541   */\n      add\n        /* \"#utility.yul\":5491:5502   */\n      dup3\n        /* \"#utility.yul\":5462:5542   */\n      tag_71\n      jump\t// in\n    tag_139:\n        /* \"#utility.yul\":5122:5552   */\n      pop\n      pop\n        /* \"#utility.yul\":5107:5552   */\n    tag_135:\n        /* \"#utility.yul\":5018:5559   */\n      pop\n      pop\n      pop\n      jump\t// out\n        /* \"#utility.yul\":5565:5682   */\n    tag_73:\n        /* \"#utility.yul\":5619:5627   */\n      0x00\n        /* \"#utility.yul\":5669:5674   */\n      dup3\n        /* \"#utility.yul\":5663:5667   */\n      dup3\n        /* \"#utility.yul\":5659:5675   */\n      shr\n        /* \"#utility.yul\":5638:5675   */\n      swap1\n      pop\n        /* \"#utility.yul\":5565:5682   */\n      swap3\n      swap2\n      pop\n      pop\n      jump\t// out\n        /* \"#utility.yul\":5688:5857   */\n    tag_74:\n        /* \"#utility.yul\":5732:5738   */\n      0x00\n        /* \"#utility.yul\":5765:5816   */\n      tag_143\n        /* \"#utility.yul\":5813:5814   */\n      0x00\n        /* \"#utility.yul\":5809:5815   */\n      not\n        /* \"#utility.yul\":5801:5806   */\n      dup5\n        /* \"#utility.yul\":5798:5799   */\n      0x08\n        /* \"#utility.yul\":5794:5807   */\n      mul\n        /* \"#utility.yul\":5765:5816   */\n      tag_73\n      jump\t// in\n    tag_143:\n        /* \"#utility.yul\":5761:5817   */\n      not\n        /* \"#utility.yul\":5846:5850   */\n      dup1\n        /* \"#utility.yul\":5840:5844   */\n      dup4\n        /* \"#utility.yul\":5836:5851   */\n      and\n        /* \"#utility.yul\":5826:5851   */\n      swap2\n      pop\n        /* \"#utility.yul\":5739:5857   */\n      pop\n        /* \"#utility.yul\":5688:5857   */\n      swap3\n      swap2\n      pop\n      pop\n      jump\t// out\n        /* \"#utility.yul\":5862:6157   */\n    tag_75:\n        /* \"#utility.yul\":5938:5942   */\n      0x00\n        /* \"#utility.yul\":6084:6113   */\n      tag_145\n        /* \"#utility.yul\":6109:6112   */\n      dup4\n        /* \"#utility.yul\":6103:6107   */\n      dup4\n        /* \"#utility.yul\":6084:6113   */\n      tag_74\n      jump\t// in\n    tag_145:\n        /* \"#utility.yul\":6076:6113   */\n      swap2\n      pop\n        /* \"#utility.yul\":6146:6149   */\n      dup3\n        /* \"#utility.yul\":6143:6144   */\n      0x02\n        /* \"#utility.yul\":6139:6150   */\n      mul\n        /* \"#utility.yul\":6133:6137   */\n      dup3\n        /* \"#utility.yul\":6130:6151   */\n      or\n        /* \"#utility.yul\":6122:6151   */\n      swap1\n      pop\n        /* \"#utility.yul\":5862:6157   */\n      swap3\n      swap2\n      pop\n      pop\n      jump\t// out\n        /* \"#utility.yul\":6162:7554   */\n    tag_33:\n        /* \"#utility.yul\":6278:6315   */\n      tag_147\n        /* \"#utility.yul\":6311:6314   */\n      dup3\n        /* \"#utility.yul\":6278:6315   */\n      tag_58\n      jump\t// in\n    tag_147:\n        /* \"#utility.yul\":6380:6398   */\n      0xffffffffffffffff\n        /* \"#utility.yul\":6372:6378   */\n      dup2\n        /* \"#utility.yul\":6369:6399   */\n      gt\n        /* \"#utility.yul\":6366:6422   */\n      iszero\n      tag_148\n      jumpi\n        /* \"#utility.yul\":6402:6420   */\n      tag_149\n      tag_59\n      jump\t// in\n    tag_149:\n        /* \"#utility.yul\":6366:6422   */\n    tag_148:\n        /* \"#utility.yul\":6446:6484   */\n      tag_150\n        /* \"#utility.yul\":6478:6482   */\n      dup3\n        /* \"#utility.yul\":6472:6483   */\n      sload\n        /* \"#utility.yul\":6446:6484   */\n      tag_26\n      jump\t// in\n    tag_150:\n        /* \"#utility.yul\":6531:6597   */\n      tag_151\n        /* \"#utility.yul\":6590:6596   */\n      dup3\n        /* \"#utility.yul\":6582:6588   */\n      dup3\n        /* \"#utility.yul\":6576:6580   */\n      dup6\n        /* \"#utility.yul\":6531:6597   */\n      tag_72\n      jump\t// in\n    tag_151:\n        /* \"#utility.yul\":6624:6625   */\n      0x00\n        /* \"#utility.yul\":6648:6652   */\n      0x20\n        /* \"#utility.yul\":6635:6652   */\n      swap1\n      pop\n        /* \"#utility.yul\":6680:6682   */\n      0x1f\n        /* \"#utility.yul\":6672:6678   */\n      dup4\n        /* \"#utility.yul\":6669:6683   */\n      gt\n        /* \"#utility.yul\":6697:6698   */\n      0x01\n        /* \"#utility.yul\":6692:7309   */\n      dup2\n      eq\n      tag_153\n      jumpi\n        /* \"#utility.yul\":7353:7354   */\n      0x00\n        /* \"#utility.yul\":7370:7376   */\n      dup5\n        /* \"#utility.yul\":7367:7444   */\n      iszero\n      tag_154\n      jumpi\n        /* \"#utility.yul\":7419:7428   */\n      dup3\n        /* \"#utility.yul\":7414:7417   */\n      dup8\n        /* \"#utility.yul\":7410:7429   */\n      add\n        /* \"#utility.yul\":7404:7430   */\n      mload\n        /* \"#utility.yul\":7395:7430   */\n      swap1\n      pop\n        /* \"#utility.yul\":7367:7444   */\n    tag_154:\n        /* \"#utility.yul\":7470:7537   */\n      tag_155\n        /* \"#utility.yul\":7530:7536   */\n      dup6\n        /* \"#utility.yul\":7523:7528   */\n      dup3\n        /* \"#utility.yul\":7470:7537   */\n      tag_75\n      jump\t// in\n    tag_155:\n        /* \"#utility.yul\":7464:7468   */\n      dup7\n        /* \"#utility.yul\":7457:7538   */\n      sstore\n        /* \"#utility.yul\":7326:7548   */\n      pop\n        /* \"#utility.yul\":6662:7548   */\n      jump(tag_152)\n        /* \"#utility.yul\":6692:7309   */\n    tag_153:\n        /* \"#utility.yul\":6744:6748   */\n      0x1f\n        /* \"#utility.yul\":6740:6749   */\n      not\n        /* \"#utility.yul\":6732:6738   */\n      dup5\n        /* \"#utility.yul\":6728:6750   */\n      and\n        /* \"#utility.yul\":6778:6814   */\n      tag_156\n        /* \"#utility.yul\":6809:6813   */\n      dup7\n        /* \"#utility.yul\":6778:6814   */\n      tag_60\n      jump\t// in\n    tag_156:\n        /* \"#utility.yul\":6836:6837   */\n      0x00\n        /* \"#utility.yul\":6850:7058   */\n    tag_157:\n        /* \"#utility.yul\":6864:6871   */\n      dup3\n        /* \"#utility.yul\":6861:6862   */\n      dup2\n        /* \"#utility.yul\":6858:6872   */\n      lt\n        /* \"#utility.yul\":6850:7058   */\n      iszero\n      tag_159\n      jumpi\n        /* \"#utility.yul\":6943:6952   */\n      dup5\n        /* \"#utility.yul\":6938:6941   */\n      dup10\n        /* \"#utility.yul\":6934:6953   */\n      add\n        /* \"#utility.yul\":6928:6954   */\n      mload\n        /* \"#utility.yul\":6920:6926   */\n      dup3\n        /* \"#utility.yul\":6913:6955   */\n      sstore\n        /* \"#utility.yul\":6994:6995   */\n      0x01\n        /* \"#utility.yul\":6986:6992   */\n      dup3\n        /* \"#utility.yul\":6982:6996   */\n      add\n        /* \"#utility.yul\":6972:6996   */\n      swap2\n      pop\n        /* \"#utility.yul\":7041:7043   */\n      0x20\n        /* \"#utility.yul\":7030:7039   */\n      dup6\n        /* \"#utility.yul\":7026:7044   */\n      add\n        /* \"#utility.yul\":7013:7044   */\n      swap5\n      pop\n        /* \"#utility.yul\":6887:6891   */\n      0x20\n        /* \"#utility.yul\":6884:6885   */\n      dup2\n        /* \"#utility.yul\":6880:6892   */\n      add\n        /* \"#utility.yul\":6875:6892   */\n      swap1\n      pop\n        /* \"#utility.yul\":6850:7058   */\n      jump(tag_157)\n    tag_159:\n        /* \"#utility.yul\":7086:7092   */\n      dup7\n        /* \"#utility.yul\":7077:7084   */\n      dup4\n        /* \"#utility.yul\":7074:7093   */\n      lt\n        /* \"#utility.yul\":7071:7250   */\n      iszero\n      tag_160\n      jumpi\n        /* \"#utility.yul\":7144:7153   */\n      dup5\n        /* \"#utility.yul\":7139:7142   */\n      dup10\n        /* \"#utility.yul\":7135:7154   */\n      add\n        /* \"#utility.yul\":7129:7155   */\n      mload\n        /* \"#utility.yul\":7187:7235   */\n      tag_161\n        /* \"#utility.yul\":7229:7233   */\n      0x1f\n        /* \"#utility.yul\":7221:7227   */\n      dup10\n        /* \"#utility.yul\":7217:7234   */\n      and\n        /* \"#utility.yul\":7206:7215   */\n      dup3\n        /* \"#utility.yul\":7187:7235   */\n      tag_74\n      jump\t// in\n    tag_161:\n        /* \"#utility.yul\":7179:7185   */\n      dup4\n        /* \"#utility.yul\":7172:7236   */\n      sstore\n        /* \"#utility.yul\":7094:7250   */\n      pop\n        /* \"#utility.yul\":7071:7250   */\n    tag_160:\n        /* \"#utility.yul\":7296:7297   */\n      0x01\n        /* \"#utility.yul\":7292:7293   */\n      0x02\n        /* \"#utility.yul\":7284:7290   */\n      dup9\n        /* \"#utility.yul\":7280:7294   */\n      mul\n        /* \"#utility.yul\":7276:7298   */\n      add\n        /* \"#utility.yul\":7270:7274   */\n      dup9\n        /* \"#utility.yul\":7263:7299   */\n      sstore\n        /* \"#utility.yul\":6699:7309   */\n      pop\n      pop\n      pop\n        /* \"#utility.yul\":6662:7548   */\n    tag_152:\n      pop\n        /* \"#utility.yul\":6253:7554   */\n      pop\n      pop\n      pop\n        /* \"#utility.yul\":6162:7554   */\n      pop\n      pop\n      jump\t// out\n        /* \"#utility.yul\":7560:7740   */\n    tag_37:\n        /* \"#utility.yul\":7608:7685   */\n      0x4e487b7100000000000000000000000000000000000000000000000000000000\n        /* \"#utility.yul\":7605:7606   */\n      0x00\n        /* \"#utility.yul\":7598:7686   */\n      mstore\n        /* \"#utility.yul\":7705:7709   */\n      0x32\n        /* \"#utility.yul\":7702:7703   */\n      0x04\n        /* \"#utility.yul\":7695:7710   */\n      mstore\n        /* \"#utility.yul\":7729:7733   */\n      0x24\n        /* \"#utility.yul\":7726:7727   */\n      0x00\n        /* \"#utility.yul\":7719:7734   */\n      revert\n\n    auxdata: 0xa2646970667358221220762f604f0f1016844e0e51f5534262d8d0a51bb6ad21edb38262ba724de9f73a64736f6c63430008140033\n}\n",
				"bytecode": {
					"linkReferences": {},
					"object": "60806040527f41424300000000000000000000000000000000000000000000000000000000005f806101000a81548162ffffff021916908360e81c0217905550600667ffffffffffffffff8111156200005d576200005c620000fc565b5b6040519080825280601f01601f191660200182016040528015620000905781602001600182028036833780820191505090505b5060019081620000a1919062000360565b50348015620000ae575f80fd5b506040518060400160405280600681526020017f616263646566000000000000000000000000000000000000000000000000000081525060019081620000f591906200044e565b5062000532565b7f4e487b71000000000000000000000000000000000000000000000000000000005f52604160045260245ffd5b5f81519050919050565b7f4e487b71000000000000000000000000000000000000000000000000000000005f52602260045260245ffd5b5f60028204905060018216806200017857607f821691505b6020821081036200018e576200018d62000133565b5b50919050565b5f819050815f5260205f209050919050565b5f6020601f8301049050919050565b5f82821b905092915050565b5f60088302620001f27fffffffffffffffffffffffffffffffffffffffffffffffffffffffffffffffff82620001b5565b620001fe8683620001b5565b95508019841693508086168417925050509392505050565b5f819050919050565b5f819050919050565b5f62000248620002426200023c8462000216565b6200021f565b62000216565b9050919050565b5f819050919050565b620002638362000228565b6200027b62000272826200024f565b848454620001c1565b825550505050565b5f90565b6200029162000283565b6200029e81848462000258565b505050565b5b81811015620002c557620002b95f8262000287565b600181019050620002a4565b5050565b601f8211156200031457620002de8162000194565b620002e984620001a6565b81016020851015620002f9578190505b620003116200030885620001a6565b830182620002a3565b50505b505050565b5f82821c905092915050565b5f620003365f198460080262000319565b1980831691505092915050565b5f62000350838362000325565b9150826002028217905092915050565b6200036b8262000129565b67ffffffffffffffff811115620003875762000386620000fc565b5b62000393825462000160565b620003a0828285620002c9565b5f60209050601f831160018114620003d6575f8415620003c1578287015190505b620003cd858262000343565b8655506200043c565b601f198416620003e68662000194565b5f5b828110156200040f57848901518255600182019150602085019450602081019050620003e8565b868310156200042f57848901516200042b601f89168262000325565b8355505b6001600288020188555050505b505050505050565b5f81519050919050565b620004598262000444565b67ffffffffffffffff811115620004755762000474620000fc565b5b62000481825462000160565b6200048e828285620002c9565b5f60209050601f831160018114620004c4575f8415620004af578287015190505b620004bb858262000343565b8655506200052a565b601f198416620004d48662000194565b5f5b82811015620004fd57848901518255600182019150602085019450602081019050620004d6565b868310156200051d578489015162000519601f89168262000325565b8355505b6001600288020188555050505b505050505050565b61083e80620005405f395ff3fe608060405234801561000f575f80fd5b5060043610610055575f3560e01c80630dbe671f146100595780633f3108f7146100775780634df7e3d0146100815780638a054ac21461009f578063c3da42b8146100bd575b5f80fd5b6100616100db565b60405161006e919061040c565b60405180910390f35b61007f610167565b005b6100896102d4565b6040516100969190610466565b60405180910390f35b6100a76102e6565b6040516100b4919061040c565b60405180910390f35b6100c5610372565b6040516100d291906104b9565b60405180910390f35b600180546100e8906104ff565b80601f0160208091040260200160405190810160405280929190818152602001828054610114906104ff565b801561015f5780601f106101365761010080835404028352916020019161015f565b820191905f5260205f20905b81548152906001019060200180831161014257829003601f168201915b505050505081565b6040518060400160405280600c81526020017f66736a64666a6866616a68660000000000000000000000000000000000000000815250600290816101ab919061070c565b507f6d0000000000000000000000000000000000000000000000000000000000000060025f81546101db906104ff565b81106101ea576101e96107db565b5b81546001161561020757905f5260205f2090602091828204019190065b601f036101000a81548160ff021916907f0100000000000000000000000000000000000000000000000000000000000000840402179055507f700000000000000000000000000000000000000000000000000000000000000060015f815461026e906104ff565b811061027d5761027c6107db565b5b81546001161561029a57905f5260205f2090602091828204019190065b601f036101000a81548160ff021916907f010000000000000000000000000000000000000000000000000000000000000084040217905550565b5f60039054906101000a900460f01b81565b600280546102f3906104ff565b80601f016020809104026020016040519081016040528092919081815260200182805461031f906104ff565b801561036a5780601f106103415761010080835404028352916020019161036a565b820191905f5260205f20905b81548152906001019060200180831161034d57829003601f168201915b505050505081565b5f8054906101000a900460e81b81565b5f81519050919050565b5f82825260208201905092915050565b5f5b838110156103b957808201518184015260208101905061039e565b5f8484015250505050565b5f601f19601f8301169050919050565b5f6103de82610382565b6103e8818561038c565b93506103f881856020860161039c565b610401816103c4565b840191505092915050565b5f6020820190508181035f83015261042481846103d4565b905092915050565b5f7fffff00000000000000000000000000000000000000000000000000000000000082169050919050565b6104608161042c565b82525050565b5f6020820190506104795f830184610457565b92915050565b5f7fffffff000000000000000000000000000000000000000000000000000000000082169050919050565b6104b38161047f565b82525050565b5f6020820190506104cc5f8301846104aa565b92915050565b7f4e487b71000000000000000000000000000000000000000000000000000000005f52602260045260245ffd5b5f600282049050600182168061051657607f821691505b602082108103610529576105286104d2565b5b50919050565b5f81519050919050565b7f4e487b71000000000000000000000000000000000000000000000000000000005f52604160045260245ffd5b5f819050815f5260205f209050919050565b5f6020601f8301049050919050565b5f82821b905092915050565b5f600883026105c27fffffffffffffffffffffffffffffffffffffffffffffffffffffffffffffffff82610587565b6105cc8683610587565b95508019841693508086168417925050509392505050565b5f819050919050565b5f819050919050565b5f61061061060b610606846105e4565b6105ed565b6105e4565b9050919050565b5f819050919050565b610629836105f6565b61063d61063582610617565b848454610593565b825550505050565b5f90565b610651610645565b61065c818484610620565b505050565b5b8181101561067f576106745f82610649565b600181019050610662565b5050565b601f8211156106c45761069581610566565b61069e84610578565b810160208510156106ad578190505b6106c16106b985610578565b830182610661565b50505b505050565b5f82821c905092915050565b5f6106e45f19846008026106c9565b1980831691505092915050565b5f6106fc83836106d5565b9150826002028217905092915050565b6107158261052f565b67ffffffffffffffff81111561072e5761072d610539565b5b61073882546104ff565b610743828285610683565b5f60209050601f831160018114610774575f8415610762578287015190505b61076c85826106f1565b8655506107d3565b601f19841661078286610566565b5f5b828110156107a957848901518255600182019150602085019450602081019050610784565b868310156107c657848901516107c2601f8916826106d5565b8355505b6001600288020188555050505b505050505050565b7f4e487b71000000000000000000000000000000000000000000000000000000005f52603260045260245ffdfea2646970667358221220762f604f0f1016844e0e51f5534262d8d0a51bb6ad21edb38262ba724de9f73a64736f6c63430008140033",
					"opcodes": "PUSH1 0x80 PUSH1 0x40 MSTORE PUSH32 0x4142430000000000000000000000000000000000000000000000000000000000 PUSH0 DUP1 PUSH2 0x100 EXP DUP2 SLOAD DUP2 PUSH3 0xFFFFFF MUL NOT AND SWAP1 DUP4 PUSH1 0xE8 SHR MUL OR SWAP1 SSTORE POP PUSH1 0x6 PUSH8 0xFFFFFFFFFFFFFFFF DUP2 GT ISZERO PUSH3 0x5D JUMPI PUSH3 0x5C PUSH3 0xFC JUMP JUMPDEST JUMPDEST PUSH1 0x40 MLOAD SWAP1 DUP1 DUP3 MSTORE DUP1 PUSH1 0x1F ADD PUSH1 0x1F NOT AND PUSH1 0x20 ADD DUP3 ADD PUSH1 0x40 MSTORE DUP1 ISZERO PUSH3 0x90 JUMPI DUP2 PUSH1 0x20 ADD PUSH1 0x1 DUP3 MUL DUP1 CALLDATASIZE DUP4 CALLDATACOPY DUP1 DUP3 ADD SWAP2 POP POP SWAP1 POP JUMPDEST POP PUSH1 0x1 SWAP1 DUP2 PUSH3 0xA1 SWAP2 SWAP1 PUSH3 0x360 JUMP JUMPDEST POP CALLVALUE DUP1 ISZERO PUSH3 0xAE JUMPI PUSH0 DUP1 REVERT JUMPDEST POP PUSH1 0x40 MLOAD DUP1 PUSH1 0x40 ADD PUSH1 0x40 MSTORE DUP1 PUSH1 0x6 DUP2 MSTORE PUSH1 0x20 ADD PUSH32 0x6162636465660000000000000000000000000000000000000000000000000000 DUP2 MSTORE POP PUSH1 0x1 SWAP1 DUP2 PUSH3 0xF5 SWAP2 SWAP1 PUSH3 0x44E JUMP JUMPDEST POP PUSH3 0x532 JUMP JUMPDEST PUSH32 0x4E487B7100000000000000000000000000000000000000000000000000000000 PUSH0 MSTORE PUSH1 0x41 PUSH1 0x4 MSTORE PUSH1 0x24 PUSH0 REVERT JUMPDEST PUSH0 DUP2 MLOAD SWAP1 POP SWAP2 SWAP1 POP JUMP JUMPDEST PUSH32 0x4E487B7100000000000000000000000000000000000000000000000000000000 PUSH0 MSTORE PUSH1 0x22 PUSH1 0x4 MSTORE PUSH1 0x24 PUSH0 REVERT JUMPDEST PUSH0 PUSH1 0x2 DUP3 DIV SWAP1 POP PUSH1 0x1 DUP3 AND DUP1 PUSH3 0x178 JUMPI PUSH1 0x7F DUP3 AND SWAP2 POP JUMPDEST PUSH1 0x20 DUP3 LT DUP2 SUB PUSH3 0x18E JUMPI PUSH3 0x18D PUSH3 0x133 JUMP JUMPDEST JUMPDEST POP SWAP2 SWAP1 POP JUMP JUMPDEST PUSH0 DUP2 SWAP1 POP DUP2 PUSH0 MSTORE PUSH1 0x20 PUSH0 KECCAK256 SWAP1 POP SWAP2 SWAP1 POP JUMP JUMPDEST PUSH0 PUSH1 0x20 PUSH1 0x1F DUP4 ADD DIV SWAP1 POP SWAP2 SWAP1 POP JUMP JUMPDEST PUSH0 DUP3 DUP3 SHL SWAP1 POP SWAP3 SWAP2 POP POP JUMP JUMPDEST PUSH0 PUSH1 0x8 DUP4 MUL PUSH3 0x1F2 PUSH32 0xFFFFFFFFFFFFFFFFFFFFFFFFFFFFFFFFFFFFFFFFFFFFFFFFFFFFFFFFFFFFFFFF DUP3 PUSH3 0x1B5 JUMP JUMPDEST PUSH3 0x1FE DUP7 DUP4 PUSH3 0x1B5 JUMP JUMPDEST SWAP6 POP DUP1 NOT DUP5 AND SWAP4 POP DUP1 DUP7 AND DUP5 OR SWAP3 POP POP POP SWAP4 SWAP3 POP POP POP JUMP JUMPDEST PUSH0 DUP2 SWAP1 POP SWAP2 SWAP1 POP JUMP JUMPDEST PUSH0 DUP2 SWAP1 POP SWAP2 SWAP1 POP JUMP JUMPDEST PUSH0 PUSH3 0x248 PUSH3 0x242 PUSH3 0x23C DUP5 PUSH3 0x216 JUMP JUMPDEST PUSH3 0x21F JUMP JUMPDEST PUSH3 0x216 JUMP JUMPDEST SWAP1 POP SWAP2 SWAP1 POP JUMP JUMPDEST PUSH0 DUP2 SWAP1 POP SWAP2 SWAP1 POP JUMP JUMPDEST PUSH3 0x263 DUP4 PUSH3 0x228 JUMP JUMPDEST PUSH3 0x27B PUSH3 0x272 DUP3 PUSH3 0x24F JUMP JUMPDEST DUP5 DUP5 SLOAD PUSH3 0x1C1 JUMP JUMPDEST DUP3 SSTORE POP POP POP POP JUMP JUMPDEST PUSH0 SWAP1 JUMP JUMPDEST PUSH3 0x291 PUSH3 0x283 JUMP JUMPDEST PUSH3 0x29E DUP2 DUP5 DUP5 PUSH3 0x258 JUMP JUMPDEST POP POP POP JUMP JUMPDEST JUMPDEST DUP2 DUP2 LT ISZERO PUSH3 0x2C5 JUMPI PUSH3 0x2B9 PUSH0 DUP3 PUSH3 0x287 JUMP JUMPDEST PUSH1 0x1 DUP2 ADD SWAP1 POP PUSH3 0x2A4 JUMP JUMPDEST POP POP JUMP JUMPDEST PUSH1 0x1F DUP3 GT ISZERO PUSH3 0x314 JUMPI PUSH3 0x2DE DUP2 PUSH3 0x194 JUMP JUMPDEST PUSH3 0x2E9 DUP5 PUSH3 0x1A6 JUMP JUMPDEST DUP2 ADD PUSH1 0x20 DUP6 LT ISZERO PUSH3 0x2F9 JUMPI DUP2 SWAP1 POP JUMPDEST PUSH3 0x311 PUSH3 0x308 DUP6 PUSH3 0x1A6 JUMP JUMPDEST DUP4 ADD DUP3 PUSH3 0x2A3 JUMP JUMPDEST POP POP JUMPDEST POP POP POP JUMP JUMPDEST PUSH0 DUP3 DUP3 SHR SWAP1 POP SWAP3 SWAP2 POP POP JUMP JUMPDEST PUSH0 PUSH3 0x336 PUSH0 NOT DUP5 PUSH1 0x8 MUL PUSH3 0x319 JUMP JUMPDEST NOT DUP1 DUP4 AND SWAP2 POP POP SWAP3 SWAP2 POP POP JUMP JUMPDEST PUSH0 PUSH3 0x350 DUP4 DUP4 PUSH3 0x325 JUMP JUMPDEST SWAP2 POP DUP3 PUSH1 0x2 MUL DUP3 OR SWAP1 POP SWAP3 SWAP2 POP POP JUMP JUMPDEST PUSH3 0x36B DUP3 PUSH3 0x129 JUMP JUMPDEST PUSH8 0xFFFFFFFFFFFFFFFF DUP2 GT ISZERO PUSH3 0x387 JUMPI PUSH3 0x386 PUSH3 0xFC JUMP JUMPDEST JUMPDEST PUSH3 0x393 DUP3 SLOAD PUSH3 0x160 JUMP JUMPDEST PUSH3 0x3A0 DUP3 DUP3 DUP6 PUSH3 0x2C9 JUMP JUMPDEST PUSH0 PUSH1 0x20 SWAP1 POP PUSH1 0x1F DUP4 GT PUSH1 0x1 DUP2 EQ PUSH3 0x3D6 JUMPI PUSH0 DUP5 ISZERO PUSH3 0x3C1 JUMPI DUP3 DUP8 ADD MLOAD SWAP1 POP JUMPDEST PUSH3 0x3CD DUP6 DUP3 PUSH3 0x343 JUMP JUMPDEST DUP7 SSTORE POP PUSH3 0x43C JUMP JUMPDEST PUSH1 0x1F NOT DUP5 AND PUSH3 0x3E6 DUP7 PUSH3 0x194 JUMP JUMPDEST PUSH0 JUMPDEST DUP3 DUP2 LT ISZERO PUSH3 0x40F JUMPI DUP5 DUP10 ADD MLOAD DUP3 SSTORE PUSH1 0x1 DUP3 ADD SWAP2 POP PUSH1 0x20 DUP6 ADD SWAP5 POP PUSH1 0x20 DUP2 ADD SWAP1 POP PUSH3 0x3E8 JUMP JUMPDEST DUP7 DUP4 LT ISZERO PUSH3 0x42F JUMPI DUP5 DUP10 ADD MLOAD PUSH3 0x42B PUSH1 0x1F DUP10 AND DUP3 PUSH3 0x325 JUMP JUMPDEST DUP4 SSTORE POP JUMPDEST PUSH1 0x1 PUSH1 0x2 DUP9 MUL ADD DUP9 SSTORE POP POP POP JUMPDEST POP POP POP POP POP POP JUMP JUMPDEST PUSH0 DUP2 MLOAD SWAP1 POP SWAP2 SWAP1 POP JUMP JUMPDEST PUSH3 0x459 DUP3 PUSH3 0x444 JUMP JUMPDEST PUSH8 0xFFFFFFFFFFFFFFFF DUP2 GT ISZERO PUSH3 0x475 JUMPI PUSH3 0x474 PUSH3 0xFC JUMP JUMPDEST JUMPDEST PUSH3 0x481 DUP3 SLOAD PUSH3 0x160 JUMP JUMPDEST PUSH3 0x48E DUP3 DUP3 DUP6 PUSH3 0x2C9 JUMP JUMPDEST PUSH0 PUSH1 0x20 SWAP1 POP PUSH1 0x1F DUP4 GT PUSH1 0x1 DUP2 EQ PUSH3 0x4C4 JUMPI PUSH0 DUP5 ISZERO PUSH3 0x4AF JUMPI DUP3 DUP8 ADD MLOAD SWAP1 POP JUMPDEST PUSH3 0x4BB DUP6 DUP3 PUSH3 0x343 JUMP JUMPDEST DUP7 SSTORE POP PUSH3 0x52A JUMP JUMPDEST PUSH1 0x1F NOT DUP5 AND PUSH3 0x4D4 DUP7 PUSH3 0x194 JUMP JUMPDEST PUSH0 JUMPDEST DUP3 DUP2 LT ISZERO PUSH3 0x4FD JUMPI DUP5 DUP10 ADD MLOAD DUP3 SSTORE PUSH1 0x1 DUP3 ADD SWAP2 POP PUSH1 0x20 DUP6 ADD SWAP5 POP PUSH1 0x20 DUP2 ADD SWAP1 POP PUSH3 0x4D6 JUMP JUMPDEST DUP7 DUP4 LT ISZERO PUSH3 0x51D JUMPI DUP5 DUP10 ADD MLOAD PUSH3 0x519 PUSH1 0x1F DUP10 AND DUP3 PUSH3 0x325 JUMP JUMPDEST DUP4 SSTORE POP JUMPDEST PUSH1 0x1 PUSH1 0x2 DUP9 MUL ADD DUP9 SSTORE POP POP POP JUMPDEST POP POP POP POP POP POP JUMP JUMPDEST PUSH2 0x83E DUP1 PUSH3 0x540 PUSH0 CODECOPY PUSH0 RETURN INVALID PUSH1 0x80 PUSH1 0x40 MSTORE CALLVALUE DUP1 ISZERO PUSH2 0xF JUMPI PUSH0 DUP1 REVERT JUMPDEST POP PUSH1 0x4 CALLDATASIZE LT PUSH2 0x55 JUMPI PUSH0 CALLDATALOAD PUSH1 0xE0 SHR DUP1 PUSH4 0xDBE671F EQ PUSH2 0x59 JUMPI DUP1 PUSH4 0x3F3108F7 EQ PUSH2 0x77 JUMPI DUP1 PUSH4 0x4DF7E3D0 EQ PUSH2 0x81 JUMPI DUP1 PUSH4 0x8A054AC2 EQ PUSH2 0x9F JUMPI DUP1 PUSH4 0xC3DA42B8 EQ PUSH2 0xBD JUMPI JUMPDEST PUSH0 DUP1 REVERT JUMPDEST PUSH2 0x61 PUSH2 0xDB JUMP JUMPDEST PUSH1 0x40 MLOAD PUSH2 0x6E SWAP2 SWAP1 PUSH2 0x40C JUMP JUMPDEST PUSH1 0x40 MLOAD DUP1 SWAP2 SUB SWAP1 RETURN JUMPDEST PUSH2 0x7F PUSH2 0x167 JUMP JUMPDEST STOP JUMPDEST PUSH2 0x89 PUSH2 0x2D4 JUMP JUMPDEST PUSH1 0x40 MLOAD PUSH2 0x96 SWAP2 SWAP1 PUSH2 0x466 JUMP JUMPDEST PUSH1 0x40 MLOAD DUP1 SWAP2 SUB SWAP1 RETURN JUMPDEST PUSH2 0xA7 PUSH2 0x2E6 JUMP JUMPDEST PUSH1 0x40 MLOAD PUSH2 0xB4 SWAP2 SWAP1 PUSH2 0x40C JUMP JUMPDEST PUSH1 0x40 MLOAD DUP1 SWAP2 SUB SWAP1 RETURN JUMPDEST PUSH2 0xC5 PUSH2 0x372 JUMP JUMPDEST PUSH1 0x40 MLOAD PUSH2 0xD2 SWAP2 SWAP1 PUSH2 0x4B9 JUMP JUMPDEST PUSH1 0x40 MLOAD DUP1 SWAP2 SUB SWAP1 RETURN JUMPDEST PUSH1 0x1 DUP1 SLOAD PUSH2 0xE8 SWAP1 PUSH2 0x4FF JUMP JUMPDEST DUP1 PUSH1 0x1F ADD PUSH1 0x20 DUP1 SWAP2 DIV MUL PUSH1 0x20 ADD PUSH1 0x40 MLOAD SWAP1 DUP2 ADD PUSH1 0x40 MSTORE DUP1 SWAP3 SWAP2 SWAP1 DUP2 DUP2 MSTORE PUSH1 0x20 ADD DUP3 DUP1 SLOAD PUSH2 0x114 SWAP1 PUSH2 0x4FF JUMP JUMPDEST DUP1 ISZERO PUSH2 0x15F JUMPI DUP1 PUSH1 0x1F LT PUSH2 0x136 JUMPI PUSH2 0x100 DUP1 DUP4 SLOAD DIV MUL DUP4 MSTORE SWAP2 PUSH1 0x20 ADD SWAP2 PUSH2 0x15F JUMP JUMPDEST DUP3 ADD SWAP2 SWAP1 PUSH0 MSTORE PUSH1 0x20 PUSH0 KECCAK256 SWAP1 JUMPDEST DUP2 SLOAD DUP2 MSTORE SWAP1 PUSH1 0x1 ADD SWAP1 PUSH1 0x20 ADD DUP1 DUP4 GT PUSH2 0x142 JUMPI DUP3 SWAP1 SUB PUSH1 0x1F AND DUP3 ADD SWAP2 JUMPDEST POP POP POP POP POP DUP2 JUMP JUMPDEST PUSH1 0x40 MLOAD DUP1 PUSH1 0x40 ADD PUSH1 0x40 MSTORE DUP1 PUSH1 0xC DUP2 MSTORE PUSH1 0x20 ADD PUSH32 0x66736A64666A6866616A68660000000000000000000000000000000000000000 DUP2 MSTORE POP PUSH1 0x2 SWAP1 DUP2 PUSH2 0x1AB SWAP2 SWAP1 PUSH2 0x70C JUMP JUMPDEST POP PUSH32 0x6D00000000000000000000000000000000000000000000000000000000000000 PUSH1 0x2 PUSH0 DUP2 SLOAD PUSH2 0x1DB SWAP1 PUSH2 0x4FF JUMP JUMPDEST DUP2 LT PUSH2 0x1EA JUMPI PUSH2 0x1E9 PUSH2 0x7DB JUMP JUMPDEST JUMPDEST DUP2 SLOAD PUSH1 0x1 AND ISZERO PUSH2 0x207 JUMPI SWAP1 PUSH0 MSTORE PUSH1 0x20 PUSH0 KECCAK256 SWAP1 PUSH1 0x20 SWAP2 DUP3 DUP3 DIV ADD SWAP2 SWAP1 MOD JUMPDEST PUSH1 0x1F SUB PUSH2 0x100 EXP DUP2 SLOAD DUP2 PUSH1 0xFF MUL NOT AND SWAP1 PUSH32 0x100000000000000000000000000000000000000000000000000000000000000 DUP5 DIV MUL OR SWAP1 SSTORE POP PUSH32 0x7000000000000000000000000000000000000000000000000000000000000000 PUSH1 0x1 PUSH0 DUP2 SLOAD PUSH2 0x26E SWAP1 PUSH2 0x4FF JUMP JUMPDEST DUP2 LT PUSH2 0x27D JUMPI PUSH2 0x27C PUSH2 0x7DB JUMP JUMPDEST JUMPDEST DUP2 SLOAD PUSH1 0x1 AND ISZERO PUSH2 0x29A JUMPI SWAP1 PUSH0 MSTORE PUSH1 0x20 PUSH0 KECCAK256 SWAP1 PUSH1 0x20 SWAP2 DUP3 DUP3 DIV ADD SWAP2 SWAP1 MOD JUMPDEST PUSH1 0x1F SUB PUSH2 0x100 EXP DUP2 SLOAD DUP2 PUSH1 0xFF MUL NOT AND SWAP1 PUSH32 0x100000000000000000000000000000000000000000000000000000000000000 DUP5 DIV MUL OR SWAP1 SSTORE POP JUMP JUMPDEST PUSH0 PUSH1 0x3 SWAP1 SLOAD SWAP1 PUSH2 0x100 EXP SWAP1 DIV PUSH1 0xF0 SHL DUP2 JUMP JUMPDEST PUSH1 0x2 DUP1 SLOAD PUSH2 0x2F3 SWAP1 PUSH2 0x4FF JUMP JUMPDEST DUP1 PUSH1 0x1F ADD PUSH1 0x20 DUP1 SWAP2 DIV MUL PUSH1 0x20 ADD PUSH1 0x40 MLOAD SWAP1 DUP2 ADD PUSH1 0x40 MSTORE DUP1 SWAP3 SWAP2 SWAP1 DUP2 DUP2 MSTORE PUSH1 0x20 ADD DUP3 DUP1 SLOAD PUSH2 0x31F SWAP1 PUSH2 0x4FF JUMP JUMPDEST DUP1 ISZERO PUSH2 0x36A JUMPI DUP1 PUSH1 0x1F LT PUSH2 0x341 JUMPI PUSH2 0x100 DUP1 DUP4 SLOAD DIV MUL DUP4 MSTORE SWAP2 PUSH1 0x20 ADD SWAP2 PUSH2 0x36A JUMP JUMPDEST DUP3 ADD SWAP2 SWAP1 PUSH0 MSTORE PUSH1 0x20 PUSH0 KECCAK256 SWAP1 JUMPDEST DUP2 SLOAD DUP2 MSTORE SWAP1 PUSH1 0x1 ADD SWAP1 PUSH1 0x20 ADD DUP1 DUP4 GT PUSH2 0x34D JUMPI DUP3 SWAP1 SUB PUSH1 0x1F AND DUP3 ADD SWAP2 JUMPDEST POP POP POP POP POP DUP2 JUMP JUMPDEST PUSH0 DUP1 SLOAD SWAP1 PUSH2 0x100 EXP SWAP1 DIV PUSH1 0xE8 SHL DUP2 JUMP JUMPDEST PUSH0 DUP2 MLOAD SWAP1 POP SWAP2 SWAP1 POP JUMP JUMPDEST PUSH0 DUP3 DUP3 MSTORE PUSH1 0x20 DUP3 ADD SWAP1 POP SWAP3 SWAP2 POP POP JUMP JUMPDEST PUSH0 JUMPDEST DUP4 DUP2 LT ISZERO PUSH2 0x3B9 JUMPI DUP1 DUP3 ADD MLOAD DUP2 DUP5 ADD MSTORE PUSH1 0x20 DUP2 ADD SWAP1 POP PUSH2 0x39E JUMP JUMPDEST PUSH0 DUP5 DUP5 ADD MSTORE POP POP POP POP JUMP JUMPDEST PUSH0 PUSH1 0x1F NOT PUSH1 0x1F DUP4 ADD AND SWAP1 POP SWAP2 SWAP1 POP JUMP JUMPDEST PUSH0 PUSH2 0x3DE DUP3 PUSH2 0x382 JUMP JUMPDEST PUSH2 0x3E8 DUP2 DUP6 PUSH2 0x38C JUMP JUMPDEST SWAP4 POP PUSH2 0x3F8 DUP2 DUP6 PUSH1 0x20 DUP7 ADD PUSH2 0x39C JUMP JUMPDEST PUSH2 0x401 DUP2 PUSH2 0x3C4 JUMP JUMPDEST DUP5 ADD SWAP2 POP POP SWAP3 SWAP2 POP POP JUMP JUMPDEST PUSH0 PUSH1 0x20 DUP3 ADD SWAP1 POP DUP2 DUP2 SUB PUSH0 DUP4 ADD MSTORE PUSH2 0x424 DUP2 DUP5 PUSH2 0x3D4 JUMP JUMPDEST SWAP1 POP SWAP3 SWAP2 POP POP JUMP JUMPDEST PUSH0 PUSH32 0xFFFF000000000000000000000000000000000000000000000000000000000000 DUP3 AND SWAP1 POP SWAP2 SWAP1 POP JUMP JUMPDEST PUSH2 0x460 DUP2 PUSH2 0x42C JUMP JUMPDEST DUP3 MSTORE POP POP JUMP JUMPDEST PUSH0 PUSH1 0x20 DUP3 ADD SWAP1 POP PUSH2 0x479 PUSH0 DUP4 ADD DUP5 PUSH2 0x457 JUMP JUMPDEST SWAP3 SWAP2 POP POP JUMP JUMPDEST PUSH0 PUSH32 0xFFFFFF0000000000000000000000000000000000000000000000000000000000 DUP3 AND SWAP1 POP SWAP2 SWAP1 POP JUMP JUMPDEST PUSH2 0x4B3 DUP2 PUSH2 0x47F JUMP JUMPDEST DUP3 MSTORE POP POP JUMP JUMPDEST PUSH0 PUSH1 0x20 DUP3 ADD SWAP1 POP PUSH2 0x4CC PUSH0 DUP4 ADD DUP5 PUSH2 0x4AA JUMP JUMPDEST SWAP3 SWAP2 POP POP JUMP JUMPDEST PUSH32 0x4E487B7100000000000000000000000000000000000000000000000000000000 PUSH0 MSTORE PUSH1 0x22 PUSH1 0x4 MSTORE PUSH1 0x24 PUSH0 REVERT JUMPDEST PUSH0 PUSH1 0x2 DUP3 DIV SWAP1 POP PUSH1 0x1 DUP3 AND DUP1 PUSH2 0x516 JUMPI PUSH1 0x7F DUP3 AND SWAP2 POP JUMPDEST PUSH1 0x20 DUP3 LT DUP2 SUB PUSH2 0x529 JUMPI PUSH2 0x528 PUSH2 0x4D2 JUMP JUMPDEST JUMPDEST POP SWAP2 SWAP1 POP JUMP JUMPDEST PUSH0 DUP2 MLOAD SWAP1 POP SWAP2 SWAP1 POP JUMP JUMPDEST PUSH32 0x4E487B7100000000000000000000000000000000000000000000000000000000 PUSH0 MSTORE PUSH1 0x41 PUSH1 0x4 MSTORE PUSH1 0x24 PUSH0 REVERT JUMPDEST PUSH0 DUP2 SWAP1 POP DUP2 PUSH0 MSTORE PUSH1 0x20 PUSH0 KECCAK256 SWAP1 POP SWAP2 SWAP1 POP JUMP JUMPDEST PUSH0 PUSH1 0x20 PUSH1 0x1F DUP4 ADD DIV SWAP1 POP SWAP2 SWAP1 POP JUMP JUMPDEST PUSH0 DUP3 DUP3 SHL SWAP1 POP SWAP3 SWAP2 POP POP JUMP JUMPDEST PUSH0 PUSH1 0x8 DUP4 MUL PUSH2 0x5C2 PUSH32 0xFFFFFFFFFFFFFFFFFFFFFFFFFFFFFFFFFFFFFFFFFFFFFFFFFFFFFFFFFFFFFFFF DUP3 PUSH2 0x587 JUMP JUMPDEST PUSH2 0x5CC DUP7 DUP4 PUSH2 0x587 JUMP JUMPDEST SWAP6 POP DUP1 NOT DUP5 AND SWAP4 POP DUP1 DUP7 AND DUP5 OR SWAP3 POP POP POP SWAP4 SWAP3 POP POP POP JUMP JUMPDEST PUSH0 DUP2 SWAP1 POP SWAP2 SWAP1 POP JUMP JUMPDEST PUSH0 DUP2 SWAP1 POP SWAP2 SWAP1 POP JUMP JUMPDEST PUSH0 PUSH2 0x610 PUSH2 0x60B PUSH2 0x606 DUP5 PUSH2 0x5E4 JUMP JUMPDEST PUSH2 0x5ED JUMP JUMPDEST PUSH2 0x5E4 JUMP JUMPDEST SWAP1 POP SWAP2 SWAP1 POP JUMP JUMPDEST PUSH0 DUP2 SWAP1 POP SWAP2 SWAP1 POP JUMP JUMPDEST PUSH2 0x629 DUP4 PUSH2 0x5F6 JUMP JUMPDEST PUSH2 0x63D PUSH2 0x635 DUP3 PUSH2 0x617 JUMP JUMPDEST DUP5 DUP5 SLOAD PUSH2 0x593 JUMP JUMPDEST DUP3 SSTORE POP POP POP POP JUMP JUMPDEST PUSH0 SWAP1 JUMP JUMPDEST PUSH2 0x651 PUSH2 0x645 JUMP JUMPDEST PUSH2 0x65C DUP2 DUP5 DUP5 PUSH2 0x620 JUMP JUMPDEST POP POP POP JUMP JUMPDEST JUMPDEST DUP2 DUP2 LT ISZERO PUSH2 0x67F JUMPI PUSH2 0x674 PUSH0 DUP3 PUSH2 0x649 JUMP JUMPDEST PUSH1 0x1 DUP2 ADD SWAP1 POP PUSH2 0x662 JUMP JUMPDEST POP POP JUMP JUMPDEST PUSH1 0x1F DUP3 GT ISZERO PUSH2 0x6C4 JUMPI PUSH2 0x695 DUP2 PUSH2 0x566 JUMP JUMPDEST PUSH2 0x69E DUP5 PUSH2 0x578 JUMP JUMPDEST DUP2 ADD PUSH1 0x20 DUP6 LT ISZERO PUSH2 0x6AD JUMPI DUP2 SWAP1 POP JUMPDEST PUSH2 0x6C1 PUSH2 0x6B9 DUP6 PUSH2 0x578 JUMP JUMPDEST DUP4 ADD DUP3 PUSH2 0x661 JUMP JUMPDEST POP POP JUMPDEST POP POP POP JUMP JUMPDEST PUSH0 DUP3 DUP3 SHR SWAP1 POP SWAP3 SWAP2 POP POP JUMP JUMPDEST PUSH0 PUSH2 0x6E4 PUSH0 NOT DUP5 PUSH1 0x8 MUL PUSH2 0x6C9 JUMP JUMPDEST NOT DUP1 DUP4 AND SWAP2 POP POP SWAP3 SWAP2 POP POP JUMP JUMPDEST PUSH0 PUSH2 0x6FC DUP4 DUP4 PUSH2 0x6D5 JUMP JUMPDEST SWAP2 POP DUP3 PUSH1 0x2 MUL DUP3 OR SWAP1 POP SWAP3 SWAP2 POP POP JUMP JUMPDEST PUSH2 0x715 DUP3 PUSH2 0x52F JUMP JUMPDEST PUSH8 0xFFFFFFFFFFFFFFFF DUP2 GT ISZERO PUSH2 0x72E JUMPI PUSH2 0x72D PUSH2 0x539 JUMP JUMPDEST JUMPDEST PUSH2 0x738 DUP3 SLOAD PUSH2 0x4FF JUMP JUMPDEST PUSH2 0x743 DUP3 DUP3 DUP6 PUSH2 0x683 JUMP JUMPDEST PUSH0 PUSH1 0x20 SWAP1 POP PUSH1 0x1F DUP4 GT PUSH1 0x1 DUP2 EQ PUSH2 0x774 JUMPI PUSH0 DUP5 ISZERO PUSH2 0x762 JUMPI DUP3 DUP8 ADD MLOAD SWAP1 POP JUMPDEST PUSH2 0x76C DUP6 DUP3 PUSH2 0x6F1 JUMP JUMPDEST DUP7 SSTORE POP PUSH2 0x7D3 JUMP JUMPDEST PUSH1 0x1F NOT DUP5 AND PUSH2 0x782 DUP7 PUSH2 0x566 JUMP JUMPDEST PUSH0 JUMPDEST DUP3 DUP2 LT ISZERO PUSH2 0x7A9 JUMPI DUP5 DUP10 ADD MLOAD DUP3 SSTORE PUSH1 0x1 DUP3 ADD SWAP2 POP PUSH1 0x20 DUP6 ADD SWAP5 POP PUSH1 0x20 DUP2 ADD SWAP1 POP PUSH2 0x784 JUMP JUMPDEST DUP7 DUP4 LT ISZERO PUSH2 0x7C6 JUMPI DUP5 DUP10 ADD MLOAD PUSH2 0x7C2 PUSH1 0x1F DUP10 AND DUP3 PUSH2 0x6D5 JUMP JUMPDEST DUP4 SSTORE POP JUMPDEST PUSH1 0x1 PUSH1 0x2 DUP9 MUL ADD DUP9 SSTORE POP POP POP JUMPDEST POP POP POP POP POP POP JUMP JUMPDEST PUSH32 0x4E487B7100000000000000000000000000000000000000000000000000000000 PUSH0 MSTORE PUSH1 0x32 PUSH1 0x4 MSTORE PUSH1 0x24 PUSH0 REVERT INVALID LOG2 PUSH5 0x6970667358 0x22 SLT KECCAK256 PUSH23 0x2F604F0F1016844E0E51F5534262D8D0A51BB6AD21EDB3 DUP3 PUSH3 0xBA724D 0xE9 0xF7 GASPRICE PUSH5 0x736F6C6343 STOP ADDMOD EQ STOP CALLER "
				},
				"gasEstimates": {
					"creation": {
						"codeDepositCost": "422000",
						"executionCost": "infinite",
						"totalCost": "infinite"
					},
					"external": {
						"a()": "infinite",
						"b()": "2538",
						"c()": "2529",
						"d()": "infinite",
						"setter()": "infinite"
					}
				},
				"methodIdentifiers": {
					"a()": "0dbe671f",
					"b()": "4df7e3d0",
					"c()": "c3da42b8",
					"d()": "8a054ac2",
					"setter()": "3f3108f7"
				}
			},
			"storageLayout": {
				"storage": [
					{
						"astId": 4,
						"contract": "byte.sol:local",
						"label": "c",
						"offset": 0,
						"slot": "0",
						"type": "t_bytes3"
					},
					{
						"astId": 6,
						"contract": "byte.sol:local",
						"label": "b",
						"offset": 3,
						"slot": "0",
						"type": "t_bytes2"
					},
					{
						"astId": 12,
						"contract": "byte.sol:local",
						"label": "a",
						"offset": 0,
						"slot": "1",
						"type": "t_bytes_storage"
					},
					{
						"astId": 14,
						"contract": "byte.sol:local",
						"label": "d",
						"offset": 0,
						"slot": "2",
						"type": "t_bytes_storage"
					}
				],
				"types": {
					"t_bytes2": {
						"encoding": "inplace",
						"label": "bytes2",
						"numberOfBytes": "2"
					},
					"t_bytes3": {
						"encoding": "inplace",
						"label": "bytes3",
						"numberOfBytes": "3"
					},
					"t_bytes_storage": {
						"encoding": "bytes",
						"label": "bytes",
						"numberOfBytes": "32"
					}
				}
			},
			"userdoc": {
				"kind": "user",
				"methods": {},
				"version": 1
			}
		}
	}
}