{
	"BytesAndByte.sol": {
		"local": {
			"abi": [
				{
					"inputs": [],
					"name": "doIt",
					"outputs": [],
					"stateMutability": "view",
					"type": "function"
				}
			],
			"devdoc": {
				"kind": "dev",
				"methods": {},
				"version": 1
			},
			"evm": {
				"assembly": "    /* \"BytesAndByte.sol\":58:677  contract local {... */\n  mstore(0x40, 0x80)\n    /* \"BytesAndByte.sol\":115:117  10 */\n  0x0a\n    /* \"BytesAndByte.sol\":105:118  new int[](10) */\n  0xffffffffffffffff\n  dup2\n  gt\n  iszero\n  tag_1\n  jumpi\n  tag_2\n  tag_3\n  jump\t// in\ntag_2:\ntag_1:\n  mload(0x40)\n  swap1\n  dup1\n  dup3\n  mstore\n  dup1\n  0x20\n  mul\n  0x20\n  add\n  dup3\n  add\n  0x40\n  mstore\n  dup1\n  iszero\n  tag_4\n  jumpi\n  dup2\n  0x20\n  add\n  0x20\n  dup3\n  mul\n  dup1\n  calldatasize\n  dup4\n  calldatacopy\n  dup1\n  dup3\n  add\n  swap2\n  pop\n  pop\n  swap1\n  pop\ntag_4:\n  pop\n    /* \"BytesAndByte.sol\":93:118  int[] arr = new int[](10) */\n  0x01\n  swap1\n  dup1\n  mload\n  swap1\n  0x20\n  add\n  swap1\n  tag_5\n  swap3\n  swap2\n  swap1\n  tag_6\n  jump\t// in\ntag_5:\n  pop\n    /* \"BytesAndByte.sol\":58:677  contract local {... */\n  callvalue\n  dup1\n  iszero\n  tag_7\n  jumpi\n  0x00\n  dup1\n  revert\ntag_7:\n  pop\n  jump(tag_8)\ntag_6:\n  dup3\n  dup1\n  sload\n  dup3\n  dup3\n  sstore\n  swap1\n  0x00\n  mstore\n  keccak256(0x00, 0x20)\n  swap1\n  dup2\n  add\n  swap3\n  dup3\n  iszero\n  tag_9\n  jumpi\n  swap2\n  0x20\n  mul\n  dup3\n  add\ntag_10:\n  dup3\n  dup2\n  gt\n  iszero\n  tag_11\n  jumpi\n  dup3\n  mload\n  dup3\n  sstore\n  swap2\n  0x20\n  add\n  swap2\n  swap1\n  0x01\n  add\n  swap1\n  jump(tag_10)\ntag_11:\ntag_9:\n  pop\n  swap1\n  pop\n  tag_12\n  swap2\n  swap1\n  tag_13\n  jump\t// in\ntag_12:\n  pop\n  swap1\n  jump\t// out\ntag_13:\ntag_14:\n  dup1\n  dup3\n  gt\n  iszero\n  tag_15\n  jumpi\n  0x00\n  dup2\n  0x00\n  swap1\n  sstore\n  pop\n  0x01\n  add\n  jump(tag_14)\ntag_15:\n  pop\n  swap1\n  jump\t// out\n    /* \"#utility.yul\":7:187   */\ntag_3:\n    /* \"#utility.yul\":55:132   */\n  0x4e487b7100000000000000000000000000000000000000000000000000000000\n    /* \"#utility.yul\":52:53   */\n  0x00\n    /* \"#utility.yul\":45:133   */\n  mstore\n    /* \"#utility.yul\":152:156   */\n  0x41\n    /* \"#utility.yul\":149:150   */\n  0x04\n    /* \"#utility.yul\":142:157   */\n  mstore\n    /* \"#utility.yul\":176:180   */\n  0x24\n    /* \"#utility.yul\":173:174   */\n  0x00\n    /* \"#utility.yul\":166:181   */\n  revert\n    /* \"BytesAndByte.sol\":58:677  contract local {... */\ntag_8:\n  dataSize(sub_0)\n  dup1\n  dataOffset(sub_0)\n  0x00\n  codecopy\n  0x00\n  return\nstop\n\nsub_0: assembly {\n        /* \"BytesAndByte.sol\":58:677  contract local {... */\n      mstore(0x40, 0x80)\n      callvalue\n      dup1\n      iszero\n      tag_1\n      jumpi\n      0x00\n      dup1\n      revert\n    tag_1:\n      pop\n      jumpi(tag_2, lt(calldatasize, 0x04))\n      shr(0xe0, calldataload(0x00))\n      dup1\n      0xb29f0835\n      eq\n      tag_3\n      jumpi\n    tag_2:\n      0x00\n      dup1\n      revert\n        /* \"BytesAndByte.sol\":348:675  function doIt() public view{... */\n    tag_3:\n      tag_4\n      tag_5\n      jump\t// in\n    tag_4:\n      stop\n    tag_5:\n        /* \"BytesAndByte.sol\":445:453  bytes1 a */\n      0x00\n        /* \"BytesAndByte.sol\":456:460  0xac */\n      0xac\n        /* \"BytesAndByte.sol\":445:460  bytes1 a = 0xac */\n      0xf8\n      shl\n      swap1\n      pop\n        /* \"BytesAndByte.sol\":589:605  int[] memory arr */\n      0x00\n        /* \"BytesAndByte.sol\":618:620  10 */\n      0x0a\n        /* \"BytesAndByte.sol\":608:621  new int[](10) */\n      0xffffffffffffffff\n      dup2\n      gt\n      iszero\n      tag_7\n      jumpi\n      tag_8\n      tag_9\n      jump\t// in\n    tag_8:\n    tag_7:\n      mload(0x40)\n      swap1\n      dup1\n      dup3\n      mstore\n      dup1\n      0x20\n      mul\n      0x20\n      add\n      dup3\n      add\n      0x40\n      mstore\n      dup1\n      iszero\n      tag_10\n      jumpi\n      dup2\n      0x20\n      add\n      0x20\n      dup3\n      mul\n      dup1\n      calldatasize\n      dup4\n      calldatacopy\n      dup1\n      dup3\n      add\n      swap2\n      pop\n      pop\n      swap1\n      pop\n    tag_10:\n      pop\n        /* \"BytesAndByte.sol\":589:621  int[] memory arr = new int[](10) */\n      swap1\n      pop\n        /* \"BytesAndByte.sol\":375:675  {... */\n      pop\n      pop\n        /* \"BytesAndByte.sol\":348:675  function doIt() public view{... */\n      jump\t// out\n        /* \"#utility.yul\":7:187   */\n    tag_9:\n        /* \"#utility.yul\":55:132   */\n      0x4e487b7100000000000000000000000000000000000000000000000000000000\n        /* \"#utility.yul\":52:53   */\n      0x00\n        /* \"#utility.yul\":45:133   */\n      mstore\n        /* \"#utility.yul\":152:156   */\n      0x41\n        /* \"#utility.yul\":149:150   */\n      0x04\n        /* \"#utility.yul\":142:157   */\n      mstore\n        /* \"#utility.yul\":176:180   */\n      0x24\n        /* \"#utility.yul\":173:174   */\n      0x00\n        /* \"#utility.yul\":166:181   */\n      revert\n\n    auxdata: 0xa264697066735822122088a81ee1681ad71baca83378af8dacdb5fbb448365d859c5674fe8bef31de2ed64736f6c63430008140033\n}\n",
				"bytecode": {
					"linkReferences": {},
					"object": "6080604052600a67ffffffffffffffff81111561001f5761001e6100db565b5b60405190808252806020026020018201604052801561004d5781602001602082028036833780820191505090505b5060019080519060200190610063929190610075565b5034801561006f575f80fd5b50610108565b828054828255905f5260205f209081019282156100af579160200282015b828111156100ae578251825591602001919060010190610093565b5b5090506100bc91906100c0565b5090565b5b808211156100d7575f815f9055506001016100c1565b5090565b7f4e487b71000000000000000000000000000000000000000000000000000000005f52604160045260245ffd5b60ea806101145f395ff3fe6080604052348015600e575f80fd5b50600436106026575f3560e01c8063b29f083514602a575b5f80fd5b60306032565b005b5f60ac60f81b90505f600a67ffffffffffffffff81111560535760526087565b5b60405190808252806020026020018201604052801560805781602001602082028036833780820191505090505b5090505050565b7f4e487b71000000000000000000000000000000000000000000000000000000005f52604160045260245ffdfea264697066735822122088a81ee1681ad71baca83378af8dacdb5fbb448365d859c5674fe8bef31de2ed64736f6c63430008140033",
					"opcodes": "PUSH1 0x80 PUSH1 0x40 MSTORE PUSH1 0xA PUSH8 0xFFFFFFFFFFFFFFFF DUP2 GT ISZERO PUSH2 0x1F JUMPI PUSH2 0x1E PUSH2 0xDB JUMP JUMPDEST JUMPDEST PUSH1 0x40 MLOAD SWAP1 DUP1 DUP3 MSTORE DUP1 PUSH1 0x20 MUL PUSH1 0x20 ADD DUP3 ADD PUSH1 0x40 MSTORE DUP1 ISZERO PUSH2 0x4D JUMPI DUP2 PUSH1 0x20 ADD PUSH1 0x20 DUP3 MUL DUP1 CALLDATASIZE DUP4 CALLDATACOPY DUP1 DUP3 ADD SWAP2 POP POP SWAP1 POP JUMPDEST POP PUSH1 0x1 SWAP1 DUP1 MLOAD SWAP1 PUSH1 0x20 ADD SWAP1 PUSH2 0x63 SWAP3 SWAP2 SWAP1 PUSH2 0x75 JUMP JUMPDEST POP CALLVALUE DUP1 ISZERO PUSH2 0x6F JUMPI PUSH0 DUP1 REVERT JUMPDEST POP PUSH2 0x108 JUMP JUMPDEST DUP3 DUP1 SLOAD DUP3 DUP3 SSTORE SWAP1 PUSH0 MSTORE PUSH1 0x20 PUSH0 KECCAK256 SWAP1 DUP2 ADD SWAP3 DUP3 ISZERO PUSH2 0xAF JUMPI SWAP2 PUSH1 0x20 MUL DUP3 ADD JUMPDEST DUP3 DUP2 GT ISZERO PUSH2 0xAE JUMPI DUP3 MLOAD DUP3 SSTORE SWAP2 PUSH1 0x20 ADD SWAP2 SWAP1 PUSH1 0x1 ADD SWAP1 PUSH2 0x93 JUMP JUMPDEST JUMPDEST POP SWAP1 POP PUSH2 0xBC SWAP2 SWAP1 PUSH2 0xC0 JUMP JUMPDEST POP SWAP1 JUMP JUMPDEST JUMPDEST DUP1 DUP3 GT ISZERO PUSH2 0xD7 JUMPI PUSH0 DUP2 PUSH0 SWAP1 SSTORE POP PUSH1 0x1 ADD PUSH2 0xC1 JUMP JUMPDEST POP SWAP1 JUMP JUMPDEST PUSH32 0x4E487B7100000000000000000000000000000000000000000000000000000000 PUSH0 MSTORE PUSH1 0x41 PUSH1 0x4 MSTORE PUSH1 0x24 PUSH0 REVERT JUMPDEST PUSH1 0xEA DUP1 PUSH2 0x114 PUSH0 CODECOPY PUSH0 RETURN INVALID PUSH1 0x80 PUSH1 0x40 MSTORE CALLVALUE DUP1 ISZERO PUSH1 0xE JUMPI PUSH0 DUP1 REVERT JUMPDEST POP PUSH1 0x4 CALLDATASIZE LT PUSH1 0x26 JUMPI PUSH0 CALLDATALOAD PUSH1 0xE0 SHR DUP1 PUSH4 0xB29F0835 EQ PUSH1 0x2A JUMPI JUMPDEST PUSH0 DUP1 REVERT JUMPDEST PUSH1 0x30 PUSH1 0x32 JUMP JUMPDEST STOP JUMPDEST PUSH0 PUSH1 0xAC PUSH1 0xF8 SHL SWAP1 POP PUSH0 PUSH1 0xA PUSH8 0xFFFFFFFFFFFFFFFF DUP2 GT ISZERO PUSH1 0x53 JUMPI PUSH1 0x52 PUSH1 0x87 JUMP JUMPDEST JUMPDEST PUSH1 0x40 MLOAD SWAP1 DUP1 DUP3 MSTORE DUP1 PUSH1 0x20 MUL PUSH1 0x20 ADD DUP3 ADD PUSH1 0x40 MSTORE DUP1 ISZERO PUSH1 0x80 JUMPI DUP2 PUSH1 0x20 ADD PUSH1 0x20 DUP3 MUL DUP1 CALLDATASIZE DUP4 CALLDATACOPY DUP1 DUP3 ADD SWAP2 POP POP SWAP1 POP JUMPDEST POP SWAP1 POP POP POP JUMP JUMPDEST PUSH32 0x4E487B7100000000000000000000000000000000000000000000000000000000 PUSH0 MSTORE PUSH1 0x41 PUSH1 0x4 MSTORE PUSH1 0x24 PUSH0 REVERT INVALID LOG2 PUSH5 0x6970667358 0x22 SLT KECCAK256 DUP9 0xA8 0x1E 0xE1 PUSH9 0x1AD71BACA83378AF8D 0xAC 0xDB PUSH0 0xBB PREVRANDAO DUP4 PUSH6 0xD859C5674FE8 0xBE RETURN SAR 0xE2 0xED PUSH5 0x736F6C6343 STOP ADDMOD EQ STOP CALLER "
				},
				"gasEstimates": {
					"creation": {
						"codeDepositCost": "46800",
						"executionCost": "infinite",
						"totalCost": "infinite"
					},
					"external": {
						"doIt()": "364"
					}
				},
				"methodIdentifiers": {
					"doIt()": "b29f0835"
				}
			},
			"storageLayout": {
				"storage": [
					{
						"astId": 3,
						"contract": "BytesAndByte.sol:local",
						"label": "s",
						"offset": 0,
						"slot": "0",
						"type": "t_string_storage"
					},
					{
						"astId": 11,
						"contract": "BytesAndByte.sol:local",
						"label": "arr",
						"offset": 0,
						"slot": "1",
						"type": "t_array(t_int256)dyn_storage"
					}
				],
				"types": {
					"t_array(t_int256)dyn_storage": {
						"base": "t_int256",
						"encoding": "dynamic_array",
						"label": "int256[]",
						"numberOfBytes": "32"
					},
					"t_int256": {
						"encoding": "inplace",
						"label": "int256",
						"numberOfBytes": "32"
					},
					"t_string_storage": {
						"encoding": "bytes",
						"label": "string",
						"numberOfBytes": "32"
					}
				}
			},
			"userdoc": {
				"kind": "user",
				"methods": {
					"doIt()": {
						"notice": "for fixed size array or byte array(means we have declared it in stack) we don't need to  specify memory for that inside the function. but for dynamic size array we have to specify that keyword.*"
					}
				},
				"version": 1
			}
		}
	}
}