{
	"arrays.sol": {
		"local": {
			"abi": [
				{
					"inputs": [],
					"name": "GetLength",
					"outputs": [
						{
							"internalType": "uint256",
							"name": "",
							"type": "uint256"
						}
					],
					"stateMutability": "view",
					"type": "function"
				},
				{
					"inputs": [
						{
							"internalType": "uint256",
							"name": "",
							"type": "uint256"
						}
					],
					"name": "arr",
					"outputs": [
						{
							"internalType": "uint256",
							"name": "",
							"type": "uint256"
						}
					],
					"stateMutability": "view",
					"type": "function"
				},
				{
					"inputs": [
						{
							"internalType": "uint256",
							"name": "ind",
							"type": "uint256"
						},
						{
							"internalType": "uint256",
							"name": "val",
							"type": "uint256"
						}
					],
					"name": "setter",
					"outputs": [],
					"stateMutability": "nonpayable",
					"type": "function"
				}
			],
			"devdoc": {
				"kind": "dev",
				"methods": {},
				"version": 1
			},
			"evm": {
				"assembly": "    /* \"arrays.sol\":58:351  contract local {... */\n  mstore(0x40, 0x80)\n    /* \"arrays.sol\":102:133  uint [4] public arr = [1,2,3,4] */\n  mload(0x40)\n  dup1\n  0x80\n  add\n  0x40\n  mstore\n  dup1\n    /* \"arrays.sol\":125:126  1 */\n  0x01\n    /* \"arrays.sol\":102:133  uint [4] public arr = [1,2,3,4] */\n  0xff\n  and\n  dup2\n  mstore\n  0x20\n  add\n    /* \"arrays.sol\":127:128  2 */\n  0x02\n    /* \"arrays.sol\":102:133  uint [4] public arr = [1,2,3,4] */\n  0xff\n  and\n  dup2\n  mstore\n  0x20\n  add\n    /* \"arrays.sol\":129:130  3 */\n  0x03\n    /* \"arrays.sol\":102:133  uint [4] public arr = [1,2,3,4] */\n  0xff\n  and\n  dup2\n  mstore\n  0x20\n  add\n    /* \"arrays.sol\":131:132  4 */\n  0x04\n    /* \"arrays.sol\":102:133  uint [4] public arr = [1,2,3,4] */\n  0xff\n  and\n  dup2\n  mstore\n  pop\n  0x00\n  swap1\n  0x04\n  tag_1\n  swap3\n  swap2\n  swap1\n  tag_2\n  jump\t// in\ntag_1:\n  pop\n    /* \"arrays.sol\":58:351  contract local {... */\n  callvalue\n  dup1\n  iszero\n  tag_3\n  jumpi\n  0x00\n  dup1\n  revert\ntag_3:\n  pop\n  jump(tag_4)\ntag_2:\n  dup3\n  0x04\n  dup2\n  add\n  swap3\n  dup3\n  iszero\n  tag_5\n  jumpi\n  swap2\n  0x20\n  mul\n  dup3\n  add\ntag_6:\n  dup3\n  dup2\n  gt\n  iszero\n  tag_7\n  jumpi\n  dup3\n  mload\n  dup3\n  swap1\n  0xff\n  and\n  swap1\n  sstore\n  swap2\n  0x20\n  add\n  swap2\n  swap1\n  0x01\n  add\n  swap1\n  jump(tag_6)\ntag_7:\ntag_5:\n  pop\n  swap1\n  pop\n  tag_8\n  swap2\n  swap1\n  tag_9\n  jump\t// in\ntag_8:\n  pop\n  swap1\n  jump\t// out\ntag_9:\ntag_10:\n  dup1\n  dup3\n  gt\n  iszero\n  tag_11\n  jumpi\n  0x00\n  dup2\n  0x00\n  swap1\n  sstore\n  pop\n  0x01\n  add\n  jump(tag_10)\ntag_11:\n  pop\n  swap1\n  jump\t// out\ntag_4:\n  dataSize(sub_0)\n  dup1\n  dataOffset(sub_0)\n  0x00\n  codecopy\n  0x00\n  return\nstop\n\nsub_0: assembly {\n        /* \"arrays.sol\":58:351  contract local {... */\n      mstore(0x40, 0x80)\n      callvalue\n      dup1\n      iszero\n      tag_1\n      jumpi\n      0x00\n      dup1\n      revert\n    tag_1:\n      pop\n      jumpi(tag_2, lt(calldatasize, 0x04))\n      shr(0xe0, calldataload(0x00))\n      dup1\n      0x2e76b28d\n      eq\n      tag_3\n      jumpi\n      dup1\n      0x5298f36d\n      eq\n      tag_4\n      jumpi\n      dup1\n      0x71e5ee5f\n      eq\n      tag_5\n      jumpi\n    tag_2:\n      0x00\n      dup1\n      revert\n        /* \"arrays.sol\":269:349  function GetLength() public view returns(uint){... */\n    tag_3:\n      tag_6\n      tag_7\n      jump\t// in\n    tag_6:\n      mload(0x40)\n      tag_8\n      swap2\n      swap1\n      tag_9\n      jump\t// in\n    tag_8:\n      mload(0x40)\n      dup1\n      swap2\n      sub\n      swap1\n      return\n        /* \"arrays.sol\":153:226  function setter(uint ind,uint val) public {... */\n    tag_4:\n      tag_10\n      0x04\n      dup1\n      calldatasize\n      sub\n      dup2\n      add\n      swap1\n      tag_11\n      swap2\n      swap1\n      tag_12\n      jump\t// in\n    tag_11:\n      tag_13\n      jump\t// in\n    tag_10:\n      stop\n        /* \"arrays.sol\":102:133  uint [4] public arr = [1,2,3,4] */\n    tag_5:\n      tag_14\n      0x04\n      dup1\n      calldatasize\n      sub\n      dup2\n      add\n      swap1\n      tag_15\n      swap2\n      swap1\n      tag_16\n      jump\t// in\n    tag_15:\n      tag_17\n      jump\t// in\n    tag_14:\n      mload(0x40)\n      tag_18\n      swap2\n      swap1\n      tag_9\n      jump\t// in\n    tag_18:\n      mload(0x40)\n      dup1\n      swap2\n      sub\n      swap1\n      return\n        /* \"arrays.sol\":269:349  function GetLength() public view returns(uint){... */\n    tag_7:\n        /* \"arrays.sol\":310:314  uint */\n      0x00\n        /* \"arrays.sol\":332:342  arr.length */\n      0x04\n        /* \"arrays.sol\":325:342  return arr.length */\n      swap1\n      pop\n        /* \"arrays.sol\":269:349  function GetLength() public view returns(uint){... */\n      swap1\n      jump\t// out\n        /* \"arrays.sol\":153:226  function setter(uint ind,uint val) public {... */\n    tag_13:\n        /* \"arrays.sol\":216:219  val */\n      dup1\n        /* \"arrays.sol\":205:208  arr */\n      0x00\n        /* \"arrays.sol\":209:212  ind */\n      dup4\n        /* \"arrays.sol\":205:213  arr[ind] */\n      0x04\n      dup2\n      lt\n      tag_21\n      jumpi\n      mstore(0x00, 0x4e487b7100000000000000000000000000000000000000000000000000000000)\n      mstore(0x04, 0x32)\n      revert(0x00, 0x24)\n    tag_21:\n      add\n        /* \"arrays.sol\":205:219  arr[ind] = val */\n      dup2\n      swap1\n      sstore\n      pop\n        /* \"arrays.sol\":153:226  function setter(uint ind,uint val) public {... */\n      pop\n      pop\n      jump\t// out\n        /* \"arrays.sol\":102:133  uint [4] public arr = [1,2,3,4] */\n    tag_17:\n      0x00\n      dup2\n      0x04\n      dup2\n      lt\n      tag_23\n      jumpi\n      0x00\n      dup1\n      revert\n    tag_23:\n      add\n      0x00\n      swap2\n      pop\n      swap1\n      pop\n      sload\n      dup2\n      jump\t// out\n        /* \"#utility.yul\":7:146   */\n    tag_26:\n      0x00\n        /* \"#utility.yul\":91:97   */\n      dup2\n        /* \"#utility.yul\":78:98   */\n      calldataload\n        /* \"#utility.yul\":69:98   */\n      swap1\n      pop\n        /* \"#utility.yul\":107:140   */\n      tag_28\n        /* \"#utility.yul\":134:139   */\n      dup2\n        /* \"#utility.yul\":107:140   */\n      tag_29\n      jump\t// in\n    tag_28:\n        /* \"#utility.yul\":59:146   */\n      swap3\n      swap2\n      pop\n      pop\n      jump\t// out\n        /* \"#utility.yul\":152:414   */\n    tag_16:\n      0x00\n        /* \"#utility.yul\":260:262   */\n      0x20\n        /* \"#utility.yul\":248:257   */\n      dup3\n        /* \"#utility.yul\":239:246   */\n      dup5\n        /* \"#utility.yul\":235:258   */\n      sub\n        /* \"#utility.yul\":231:263   */\n      slt\n        /* \"#utility.yul\":228:230   */\n      iszero\n      tag_31\n      jumpi\n        /* \"#utility.yul\":276:277   */\n      0x00\n        /* \"#utility.yul\":273:274   */\n      dup1\n        /* \"#utility.yul\":266:278   */\n      revert\n        /* \"#utility.yul\":228:230   */\n    tag_31:\n        /* \"#utility.yul\":319:320   */\n      0x00\n        /* \"#utility.yul\":344:397   */\n      tag_32\n        /* \"#utility.yul\":389:396   */\n      dup5\n        /* \"#utility.yul\":380:386   */\n      dup3\n        /* \"#utility.yul\":369:378   */\n      dup6\n        /* \"#utility.yul\":365:387   */\n      add\n        /* \"#utility.yul\":344:397   */\n      tag_26\n      jump\t// in\n    tag_32:\n        /* \"#utility.yul\":334:397   */\n      swap2\n      pop\n        /* \"#utility.yul\":290:407   */\n      pop\n        /* \"#utility.yul\":218:414   */\n      swap3\n      swap2\n      pop\n      pop\n      jump\t// out\n        /* \"#utility.yul\":420:827   */\n    tag_12:\n      0x00\n      dup1\n        /* \"#utility.yul\":545:547   */\n      0x40\n        /* \"#utility.yul\":533:542   */\n      dup4\n        /* \"#utility.yul\":524:531   */\n      dup6\n        /* \"#utility.yul\":520:543   */\n      sub\n        /* \"#utility.yul\":516:548   */\n      slt\n        /* \"#utility.yul\":513:515   */\n      iszero\n      tag_34\n      jumpi\n        /* \"#utility.yul\":561:562   */\n      0x00\n        /* \"#utility.yul\":558:559   */\n      dup1\n        /* \"#utility.yul\":551:563   */\n      revert\n        /* \"#utility.yul\":513:515   */\n    tag_34:\n        /* \"#utility.yul\":604:605   */\n      0x00\n        /* \"#utility.yul\":629:682   */\n      tag_35\n        /* \"#utility.yul\":674:681   */\n      dup6\n        /* \"#utility.yul\":665:671   */\n      dup3\n        /* \"#utility.yul\":654:663   */\n      dup7\n        /* \"#utility.yul\":650:672   */\n      add\n        /* \"#utility.yul\":629:682   */\n      tag_26\n      jump\t// in\n    tag_35:\n        /* \"#utility.yul\":619:682   */\n      swap3\n      pop\n        /* \"#utility.yul\":575:692   */\n      pop\n        /* \"#utility.yul\":731:733   */\n      0x20\n        /* \"#utility.yul\":757:810   */\n      tag_36\n        /* \"#utility.yul\":802:809   */\n      dup6\n        /* \"#utility.yul\":793:799   */\n      dup3\n        /* \"#utility.yul\":782:791   */\n      dup7\n        /* \"#utility.yul\":778:800   */\n      add\n        /* \"#utility.yul\":757:810   */\n      tag_26\n      jump\t// in\n    tag_36:\n        /* \"#utility.yul\":747:810   */\n      swap2\n      pop\n        /* \"#utility.yul\":702:820   */\n      pop\n        /* \"#utility.yul\":503:827   */\n      swap3\n      pop\n      swap3\n      swap1\n      pop\n      jump\t// out\n        /* \"#utility.yul\":833:951   */\n    tag_37:\n        /* \"#utility.yul\":920:944   */\n      tag_39\n        /* \"#utility.yul\":938:943   */\n      dup2\n        /* \"#utility.yul\":920:944   */\n      tag_40\n      jump\t// in\n    tag_39:\n        /* \"#utility.yul\":915:918   */\n      dup3\n        /* \"#utility.yul\":908:945   */\n      mstore\n        /* \"#utility.yul\":898:951   */\n      pop\n      pop\n      jump\t// out\n        /* \"#utility.yul\":957:1179   */\n    tag_9:\n      0x00\n        /* \"#utility.yul\":1088:1090   */\n      0x20\n        /* \"#utility.yul\":1077:1086   */\n      dup3\n        /* \"#utility.yul\":1073:1091   */\n      add\n        /* \"#utility.yul\":1065:1091   */\n      swap1\n      pop\n        /* \"#utility.yul\":1101:1172   */\n      tag_42\n        /* \"#utility.yul\":1169:1170   */\n      0x00\n        /* \"#utility.yul\":1158:1167   */\n      dup4\n        /* \"#utility.yul\":1154:1171   */\n      add\n        /* \"#utility.yul\":1145:1151   */\n      dup5\n        /* \"#utility.yul\":1101:1172   */\n      tag_37\n      jump\t// in\n    tag_42:\n        /* \"#utility.yul\":1055:1179   */\n      swap3\n      swap2\n      pop\n      pop\n      jump\t// out\n        /* \"#utility.yul\":1185:1262   */\n    tag_40:\n      0x00\n        /* \"#utility.yul\":1251:1256   */\n      dup2\n        /* \"#utility.yul\":1240:1256   */\n      swap1\n      pop\n        /* \"#utility.yul\":1230:1262   */\n      swap2\n      swap1\n      pop\n      jump\t// out\n        /* \"#utility.yul\":1268:1390   */\n    tag_29:\n        /* \"#utility.yul\":1341:1365   */\n      tag_45\n        /* \"#utility.yul\":1359:1364   */\n      dup2\n        /* \"#utility.yul\":1341:1365   */\n      tag_40\n      jump\t// in\n    tag_45:\n        /* \"#utility.yul\":1334:1339   */\n      dup2\n        /* \"#utility.yul\":1331:1366   */\n      eq\n        /* \"#utility.yul\":1321:1323   */\n      tag_46\n      jumpi\n        /* \"#utility.yul\":1380:1381   */\n      0x00\n        /* \"#utility.yul\":1377:1378   */\n      dup1\n        /* \"#utility.yul\":1370:1382   */\n      revert\n        /* \"#utility.yul\":1321:1323   */\n    tag_46:\n        /* \"#utility.yul\":1311:1390   */\n      pop\n      jump\t// out\n\n    auxdata: 0xa2646970667358221220ee1ca045e73b7cb93555f2fe70c2057cd3b6254201d958aa70c1f18a175f946264736f6c63430008030033\n}\n",
				"bytecode": {
					"linkReferences": {},
					"object": "60806040526040518060800160405280600160ff168152602001600260ff168152602001600360ff168152602001600460ff168152506000906004610045929190610058565b5034801561005257600080fd5b506100ba565b826004810192821561008c579160200282015b8281111561008b578251829060ff1690559160200191906001019061006b565b5b509050610099919061009d565b5090565b5b808211156100b657600081600090555060010161009e565b5090565b610213806100c96000396000f3fe608060405234801561001057600080fd5b50600436106100415760003560e01c80632e76b28d146100465780635298f36d1461006457806371e5ee5f14610080575b600080fd5b61004e6100b0565b60405161005b91906101a1565b60405180910390f35b61007e60048036038101906100799190610156565b6100b9565b005b61009a6004803603810190610095919061012d565b6100fd565b6040516100a791906101a1565b60405180910390f35b60006004905090565b80600083600481106100f4577f4e487b7100000000000000000000000000000000000000000000000000000000600052603260045260246000fd5b01819055505050565b6000816004811061010d57600080fd5b016000915090505481565b600081359050610127816101c6565b92915050565b60006020828403121561013f57600080fd5b600061014d84828501610118565b91505092915050565b6000806040838503121561016957600080fd5b600061017785828601610118565b925050602061018885828601610118565b9150509250929050565b61019b816101bc565b82525050565b60006020820190506101b66000830184610192565b92915050565b6000819050919050565b6101cf816101bc565b81146101da57600080fd5b5056fea2646970667358221220ee1ca045e73b7cb93555f2fe70c2057cd3b6254201d958aa70c1f18a175f946264736f6c63430008030033",
					"opcodes": "PUSH1 0x80 PUSH1 0x40 MSTORE PUSH1 0x40 MLOAD DUP1 PUSH1 0x80 ADD PUSH1 0x40 MSTORE DUP1 PUSH1 0x1 PUSH1 0xFF AND DUP2 MSTORE PUSH1 0x20 ADD PUSH1 0x2 PUSH1 0xFF AND DUP2 MSTORE PUSH1 0x20 ADD PUSH1 0x3 PUSH1 0xFF AND DUP2 MSTORE PUSH1 0x20 ADD PUSH1 0x4 PUSH1 0xFF AND DUP2 MSTORE POP PUSH1 0x0 SWAP1 PUSH1 0x4 PUSH2 0x45 SWAP3 SWAP2 SWAP1 PUSH2 0x58 JUMP JUMPDEST POP CALLVALUE DUP1 ISZERO PUSH2 0x52 JUMPI PUSH1 0x0 DUP1 REVERT JUMPDEST POP PUSH2 0xBA JUMP JUMPDEST DUP3 PUSH1 0x4 DUP2 ADD SWAP3 DUP3 ISZERO PUSH2 0x8C JUMPI SWAP2 PUSH1 0x20 MUL DUP3 ADD JUMPDEST DUP3 DUP2 GT ISZERO PUSH2 0x8B JUMPI DUP3 MLOAD DUP3 SWAP1 PUSH1 0xFF AND SWAP1 SSTORE SWAP2 PUSH1 0x20 ADD SWAP2 SWAP1 PUSH1 0x1 ADD SWAP1 PUSH2 0x6B JUMP JUMPDEST JUMPDEST POP SWAP1 POP PUSH2 0x99 SWAP2 SWAP1 PUSH2 0x9D JUMP JUMPDEST POP SWAP1 JUMP JUMPDEST JUMPDEST DUP1 DUP3 GT ISZERO PUSH2 0xB6 JUMPI PUSH1 0x0 DUP2 PUSH1 0x0 SWAP1 SSTORE POP PUSH1 0x1 ADD PUSH2 0x9E JUMP JUMPDEST POP SWAP1 JUMP JUMPDEST PUSH2 0x213 DUP1 PUSH2 0xC9 PUSH1 0x0 CODECOPY PUSH1 0x0 RETURN INVALID PUSH1 0x80 PUSH1 0x40 MSTORE CALLVALUE DUP1 ISZERO PUSH2 0x10 JUMPI PUSH1 0x0 DUP1 REVERT JUMPDEST POP PUSH1 0x4 CALLDATASIZE LT PUSH2 0x41 JUMPI PUSH1 0x0 CALLDATALOAD PUSH1 0xE0 SHR DUP1 PUSH4 0x2E76B28D EQ PUSH2 0x46 JUMPI DUP1 PUSH4 0x5298F36D EQ PUSH2 0x64 JUMPI DUP1 PUSH4 0x71E5EE5F EQ PUSH2 0x80 JUMPI JUMPDEST PUSH1 0x0 DUP1 REVERT JUMPDEST PUSH2 0x4E PUSH2 0xB0 JUMP JUMPDEST PUSH1 0x40 MLOAD PUSH2 0x5B SWAP2 SWAP1 PUSH2 0x1A1 JUMP JUMPDEST PUSH1 0x40 MLOAD DUP1 SWAP2 SUB SWAP1 RETURN JUMPDEST PUSH2 0x7E PUSH1 0x4 DUP1 CALLDATASIZE SUB DUP2 ADD SWAP1 PUSH2 0x79 SWAP2 SWAP1 PUSH2 0x156 JUMP JUMPDEST PUSH2 0xB9 JUMP JUMPDEST STOP JUMPDEST PUSH2 0x9A PUSH1 0x4 DUP1 CALLDATASIZE SUB DUP2 ADD SWAP1 PUSH2 0x95 SWAP2 SWAP1 PUSH2 0x12D JUMP JUMPDEST PUSH2 0xFD JUMP JUMPDEST PUSH1 0x40 MLOAD PUSH2 0xA7 SWAP2 SWAP1 PUSH2 0x1A1 JUMP JUMPDEST PUSH1 0x40 MLOAD DUP1 SWAP2 SUB SWAP1 RETURN JUMPDEST PUSH1 0x0 PUSH1 0x4 SWAP1 POP SWAP1 JUMP JUMPDEST DUP1 PUSH1 0x0 DUP4 PUSH1 0x4 DUP2 LT PUSH2 0xF4 JUMPI PUSH32 0x4E487B7100000000000000000000000000000000000000000000000000000000 PUSH1 0x0 MSTORE PUSH1 0x32 PUSH1 0x4 MSTORE PUSH1 0x24 PUSH1 0x0 REVERT JUMPDEST ADD DUP2 SWAP1 SSTORE POP POP POP JUMP JUMPDEST PUSH1 0x0 DUP2 PUSH1 0x4 DUP2 LT PUSH2 0x10D JUMPI PUSH1 0x0 DUP1 REVERT JUMPDEST ADD PUSH1 0x0 SWAP2 POP SWAP1 POP SLOAD DUP2 JUMP JUMPDEST PUSH1 0x0 DUP2 CALLDATALOAD SWAP1 POP PUSH2 0x127 DUP2 PUSH2 0x1C6 JUMP JUMPDEST SWAP3 SWAP2 POP POP JUMP JUMPDEST PUSH1 0x0 PUSH1 0x20 DUP3 DUP5 SUB SLT ISZERO PUSH2 0x13F JUMPI PUSH1 0x0 DUP1 REVERT JUMPDEST PUSH1 0x0 PUSH2 0x14D DUP5 DUP3 DUP6 ADD PUSH2 0x118 JUMP JUMPDEST SWAP2 POP POP SWAP3 SWAP2 POP POP JUMP JUMPDEST PUSH1 0x0 DUP1 PUSH1 0x40 DUP4 DUP6 SUB SLT ISZERO PUSH2 0x169 JUMPI PUSH1 0x0 DUP1 REVERT JUMPDEST PUSH1 0x0 PUSH2 0x177 DUP6 DUP3 DUP7 ADD PUSH2 0x118 JUMP JUMPDEST SWAP3 POP POP PUSH1 0x20 PUSH2 0x188 DUP6 DUP3 DUP7 ADD PUSH2 0x118 JUMP JUMPDEST SWAP2 POP POP SWAP3 POP SWAP3 SWAP1 POP JUMP JUMPDEST PUSH2 0x19B DUP2 PUSH2 0x1BC JUMP JUMPDEST DUP3 MSTORE POP POP JUMP JUMPDEST PUSH1 0x0 PUSH1 0x20 DUP3 ADD SWAP1 POP PUSH2 0x1B6 PUSH1 0x0 DUP4 ADD DUP5 PUSH2 0x192 JUMP JUMPDEST SWAP3 SWAP2 POP POP JUMP JUMPDEST PUSH1 0x0 DUP2 SWAP1 POP SWAP2 SWAP1 POP JUMP JUMPDEST PUSH2 0x1CF DUP2 PUSH2 0x1BC JUMP JUMPDEST DUP2 EQ PUSH2 0x1DA JUMPI PUSH1 0x0 DUP1 REVERT JUMPDEST POP JUMP INVALID LOG2 PUSH5 0x6970667358 0x22 SLT KECCAK256 0xEE SHR LOG0 GASLIMIT 0xE7 EXTCODESIZE PUSH29 0xB93555F2FE70C2057CD3B6254201D958AA70C1F18A175F946264736F6C PUSH4 0x43000803 STOP CALLER "
				},
				"gasEstimates": {
					"creation": {
						"codeDepositCost": "106200",
						"executionCost": "infinite",
						"totalCost": "infinite"
					},
					"external": {
						"GetLength()": "315",
						"arr(uint256)": "infinite",
						"setter(uint256,uint256)": "infinite"
					}
				},
				"methodIdentifiers": {
					"GetLength()": "2e76b28d",
					"arr(uint256)": "71e5ee5f",
					"setter(uint256,uint256)": "5298f36d"
				}
			},
			"storageLayout": {
				"storage": [
					{
						"astId": 10,
						"contract": "arrays.sol:local",
						"label": "arr",
						"offset": 0,
						"slot": "0",
						"type": "t_array(t_uint256)4_storage"
					}
				],
				"types": {
					"t_array(t_uint256)4_storage": {
						"base": "t_uint256",
						"encoding": "inplace",
						"label": "uint256[4]",
						"numberOfBytes": "128"
					},
					"t_uint256": {
						"encoding": "inplace",
						"label": "uint256",
						"numberOfBytes": "32"
					}
				}
			},
			"userdoc": {
				"kind": "user",
				"methods": {},
				"version": 1
			}
		}
	}
}