{
	"simpleVotingContract.sol": {
		"voting": {
			"abi": [
				{
					"inputs": [],
					"stateMutability": "nonpayable",
					"type": "constructor"
				},
				{
					"anonymous": false,
					"inputs": [
						{
							"indexed": false,
							"internalType": "string",
							"name": "",
							"type": "string"
						}
					],
					"name": "ErrorEvent",
					"type": "event"
				},
				{
					"inputs": [
						{
							"internalType": "address",
							"name": "cnd",
							"type": "address"
						}
					],
					"name": "InsertCandidate",
					"outputs": [
						{
							"internalType": "bool",
							"name": "",
							"type": "bool"
						}
					],
					"stateMutability": "nonpayable",
					"type": "function"
				},
				{
					"inputs": [],
					"name": "result",
					"outputs": [
						{
							"internalType": "address",
							"name": "add",
							"type": "address"
						},
						{
							"internalType": "uint256",
							"name": "val",
							"type": "uint256"
						}
					],
					"stateMutability": "nonpayable",
					"type": "function"
				},
				{
					"inputs": [
						{
							"internalType": "address",
							"name": "cnt",
							"type": "address"
						}
					],
					"name": "vote",
					"outputs": [
						{
							"internalType": "bool",
							"name": "",
							"type": "bool"
						}
					],
					"stateMutability": "nonpayable",
					"type": "function"
				}
			],
			"devdoc": {
				"kind": "dev",
				"methods": {},
				"version": 1
			},
			"evm": {
				"assembly": "    /* \"simpleVotingContract.sol\":57:2284  contract voting{... */\n  mstore(0x40, 0x80)\n    /* \"simpleVotingContract.sol\":415:463  constructor(){... */\n  callvalue\n  dup1\n  iszero\n  tag_1\n  jumpi\n  0x00\n  dup1\n  revert\ntag_1:\n  pop\n    /* \"simpleVotingContract.sol\":446:456  msg.sender */\n  caller\n    /* \"simpleVotingContract.sol\":438:443  owner */\n  0x00\n  dup1\n    /* \"simpleVotingContract.sol\":438:456  owner = msg.sender */\n  0x0100\n  exp\n  dup2\n  sload\n  dup2\n  0xffffffffffffffffffffffffffffffffffffffff\n  mul\n  not\n  and\n  swap1\n  dup4\n  0xffffffffffffffffffffffffffffffffffffffff\n  and\n  mul\n  or\n  swap1\n  sstore\n  pop\n    /* \"simpleVotingContract.sol\":57:2284  contract voting{... */\n  dataSize(sub_0)\n  dup1\n  dataOffset(sub_0)\n  0x00\n  codecopy\n  0x00\n  return\nstop\n\nsub_0: assembly {\n        /* \"simpleVotingContract.sol\":57:2284  contract voting{... */\n      mstore(0x40, 0x80)\n      callvalue\n      dup1\n      iszero\n      tag_1\n      jumpi\n      0x00\n      dup1\n      revert\n    tag_1:\n      pop\n      jumpi(tag_2, lt(calldatasize, 0x04))\n      shr(0xe0, calldataload(0x00))\n      dup1\n      0x48a3a695\n      eq\n      tag_3\n      jumpi\n      dup1\n      0x65372147\n      eq\n      tag_4\n      jumpi\n      dup1\n      0x6dd7d8ea\n      eq\n      tag_5\n      jumpi\n    tag_2:\n      0x00\n      dup1\n      revert\n        /* \"simpleVotingContract.sol\":760:1213  function InsertCandidate(address cnd) public returns(bool){... */\n    tag_3:\n      tag_6\n      0x04\n      dup1\n      calldatasize\n      sub\n      dup2\n      add\n      swap1\n      tag_7\n      swap2\n      swap1\n      tag_8\n      jump\t// in\n    tag_7:\n      tag_9\n      jump\t// in\n    tag_6:\n      mload(0x40)\n      tag_10\n      swap2\n      swap1\n      tag_11\n      jump\t// in\n    tag_10:\n      mload(0x40)\n      dup1\n      swap2\n      sub\n      swap1\n      return\n        /* \"simpleVotingContract.sol\":1787:2282  function result() public returns(address add,uint val){... */\n    tag_4:\n      tag_12\n      tag_13\n      jump\t// in\n    tag_12:\n      mload(0x40)\n      tag_14\n      swap3\n      swap2\n      swap1\n      tag_15\n      jump\t// in\n    tag_14:\n      mload(0x40)\n      dup1\n      swap2\n      sub\n      swap1\n      return\n        /* \"simpleVotingContract.sol\":1447:1768  function vote(address cnt) public returns(bool){... */\n    tag_5:\n      tag_16\n      0x04\n      dup1\n      calldatasize\n      sub\n      dup2\n      add\n      swap1\n      tag_17\n      swap2\n      swap1\n      tag_8\n      jump\t// in\n    tag_17:\n      tag_18\n      jump\t// in\n    tag_16:\n      mload(0x40)\n      tag_19\n      swap2\n      swap1\n      tag_11\n      jump\t// in\n    tag_19:\n      mload(0x40)\n      dup1\n      swap2\n      sub\n      swap1\n      return\n        /* \"simpleVotingContract.sol\":760:1213  function InsertCandidate(address cnd) public returns(bool){... */\n    tag_9:\n        /* \"simpleVotingContract.sol\":813:817  bool */\n      0x00\n        /* \"simpleVotingContract.sol\":845:850  owner */\n      dup1\n      0x00\n      swap1\n      sload\n      swap1\n      0x0100\n      exp\n      swap1\n      div\n      0xffffffffffffffffffffffffffffffffffffffff\n      and\n        /* \"simpleVotingContract.sol\":831:850  msg.sender != owner */\n      0xffffffffffffffffffffffffffffffffffffffff\n      and\n        /* \"simpleVotingContract.sol\":831:841  msg.sender */\n      caller\n        /* \"simpleVotingContract.sol\":831:850  msg.sender != owner */\n      0xffffffffffffffffffffffffffffffffffffffff\n      and\n      eq\n        /* \"simpleVotingContract.sol\":828:935  if(msg.sender != owner){... */\n      tag_21\n      jumpi\n        /* \"simpleVotingContract.sol\":870:898  ErrorEvent(\"Not autherized\") */\n      0x6222dc10afcca3c8cec10b1b08a9bff096c30eb574a3233be051aa5440fc41bb\n      mload(0x40)\n      tag_22\n      swap1\n      tag_23\n      jump\t// in\n    tag_22:\n      mload(0x40)\n      dup1\n      swap2\n      sub\n      swap1\n      log1\n        /* \"simpleVotingContract.sol\":919:924  false */\n      0x00\n        /* \"simpleVotingContract.sol\":912:924  return false */\n      swap1\n      pop\n      jump(tag_20)\n        /* \"simpleVotingContract.sol\":828:935  if(msg.sender != owner){... */\n    tag_21:\n        /* \"simpleVotingContract.sol\":944:952  bool res */\n      0x00\n        /* \"simpleVotingContract.sol\":955:974  checkCandidate(cnd) */\n      tag_24\n        /* \"simpleVotingContract.sol\":970:973  cnd */\n      dup4\n        /* \"simpleVotingContract.sol\":955:969  checkCandidate */\n      tag_25\n        /* \"simpleVotingContract.sol\":955:974  checkCandidate(cnd) */\n      jump\t// in\n    tag_24:\n        /* \"simpleVotingContract.sol\":944:974  bool res = checkCandidate(cnd) */\n      swap1\n      pop\n        /* \"simpleVotingContract.sol\":987:990  res */\n      dup1\n        /* \"simpleVotingContract.sol\":984:1087  if(res){... */\n      iszero\n      tag_26\n      jumpi\n        /* \"simpleVotingContract.sol\":1010:1050  ErrorEvent(\"Candidate already exists !\") */\n      0x6222dc10afcca3c8cec10b1b08a9bff096c30eb574a3233be051aa5440fc41bb\n      mload(0x40)\n      tag_27\n      swap1\n      tag_28\n      jump\t// in\n    tag_27:\n      mload(0x40)\n      dup1\n      swap2\n      sub\n      swap1\n      log1\n        /* \"simpleVotingContract.sol\":1071:1076  false */\n      0x00\n        /* \"simpleVotingContract.sol\":1064:1076  return false */\n      swap2\n      pop\n      pop\n      jump(tag_20)\n        /* \"simpleVotingContract.sol\":984:1087  if(res){... */\n    tag_26:\n        /* \"simpleVotingContract.sol\":1118:1119  0 */\n      0x00\n        /* \"simpleVotingContract.sol\":1096:1110  candidateVotes */\n      0x01\n        /* \"simpleVotingContract.sol\":1096:1115  candidateVotes[cnd] */\n      0x00\n        /* \"simpleVotingContract.sol\":1111:1114  cnd */\n      dup6\n        /* \"simpleVotingContract.sol\":1096:1115  candidateVotes[cnd] */\n      0xffffffffffffffffffffffffffffffffffffffff\n      and\n      0xffffffffffffffffffffffffffffffffffffffff\n      and\n      dup2\n      mstore\n      0x20\n      add\n      swap1\n      dup2\n      mstore\n      0x20\n      add\n      0x00\n      keccak256\n        /* \"simpleVotingContract.sol\":1096:1119  candidateVotes[cnd] = 0 */\n      dup2\n      swap1\n      sstore\n      pop\n        /* \"simpleVotingContract.sol\":1151:1155  true */\n      0x01\n        /* \"simpleVotingContract.sol\":1129:1143  candidateExist */\n      0x02\n        /* \"simpleVotingContract.sol\":1129:1148  candidateExist[cnd] */\n      0x00\n        /* \"simpleVotingContract.sol\":1144:1147  cnd */\n      dup6\n        /* \"simpleVotingContract.sol\":1129:1148  candidateExist[cnd] */\n      0xffffffffffffffffffffffffffffffffffffffff\n      and\n      0xffffffffffffffffffffffffffffffffffffffff\n      and\n      dup2\n      mstore\n      0x20\n      add\n      swap1\n      dup2\n      mstore\n      0x20\n      add\n      0x00\n      keccak256\n      0x00\n        /* \"simpleVotingContract.sol\":1129:1155  candidateExist[cnd] = true */\n      0x0100\n      exp\n      dup2\n      sload\n      dup2\n      0xff\n      mul\n      not\n      and\n      swap1\n      dup4\n      iszero\n      iszero\n      mul\n      or\n      swap1\n      sstore\n      pop\n        /* \"simpleVotingContract.sol\":1165:1175  candidates */\n      0x05\n        /* \"simpleVotingContract.sol\":1181:1184  cnd */\n      dup4\n        /* \"simpleVotingContract.sol\":1165:1185  candidates.push(cnd) */\n      swap1\n      dup1\n      0x01\n      dup2\n      sload\n      add\n      dup1\n      dup3\n      sstore\n      dup1\n      swap2\n      pop\n      pop\n      0x01\n      swap1\n      sub\n      swap1\n      0x00\n      mstore\n      keccak256(0x00, 0x20)\n      add\n      0x00\n      swap1\n      swap2\n      swap1\n      swap2\n      swap1\n      swap2\n      0x0100\n      exp\n      dup2\n      sload\n      dup2\n      0xffffffffffffffffffffffffffffffffffffffff\n      mul\n      not\n      and\n      swap1\n      dup4\n      0xffffffffffffffffffffffffffffffffffffffff\n      and\n      mul\n      or\n      swap1\n      sstore\n      pop\n        /* \"simpleVotingContract.sol\":1202:1206  true */\n      0x01\n        /* \"simpleVotingContract.sol\":1195:1206  return true */\n      swap2\n      pop\n      pop\n        /* \"simpleVotingContract.sol\":760:1213  function InsertCandidate(address cnd) public returns(bool){... */\n    tag_20:\n      swap2\n      swap1\n      pop\n      jump\t// out\n        /* \"simpleVotingContract.sol\":1787:2282  function result() public returns(address add,uint val){... */\n    tag_13:\n        /* \"simpleVotingContract.sol\":1820:1831  address add */\n      0x00\n        /* \"simpleVotingContract.sol\":1832:1840  uint val */\n      dup1\n        /* \"simpleVotingContract.sol\":1863:1873  msg.sender */\n      caller\n        /* \"simpleVotingContract.sol\":1854:1873  owner != msg.sender */\n      0xffffffffffffffffffffffffffffffffffffffff\n      and\n        /* \"simpleVotingContract.sol\":1854:1859  owner */\n      0x00\n      dup1\n      sload\n      swap1\n      0x0100\n      exp\n      swap1\n      div\n      0xffffffffffffffffffffffffffffffffffffffff\n      and\n        /* \"simpleVotingContract.sol\":1854:1873  owner != msg.sender */\n      0xffffffffffffffffffffffffffffffffffffffff\n      and\n      eq\n        /* \"simpleVotingContract.sol\":1851:2276  if(owner != msg.sender){... */\n      tag_31\n      jumpi\n        /* \"simpleVotingContract.sol\":1893:1921  ErrorEvent(\"Not autherized\") */\n      0x6222dc10afcca3c8cec10b1b08a9bff096c30eb574a3233be051aa5440fc41bb\n      mload(0x40)\n      tag_32\n      swap1\n      tag_23\n      jump\t// in\n    tag_32:\n      mload(0x40)\n      dup1\n      swap2\n      sub\n      swap1\n      log1\n        /* \"simpleVotingContract.sol\":1851:2276  if(owner != msg.sender){... */\n      jump(tag_33)\n    tag_31:\n        /* \"simpleVotingContract.sol\":1950:1964  address winner */\n      0x00\n        /* \"simpleVotingContract.sol\":1978:1986  uint cnt */\n      dup1\n        /* \"simpleVotingContract.sol\":1989:1990  0 */\n      0x00\n        /* \"simpleVotingContract.sol\":1978:1990  uint cnt = 0 */\n      swap1\n      pop\n        /* \"simpleVotingContract.sol\":2008:2014  uint i */\n      0x00\n        /* \"simpleVotingContract.sol\":2004:2233  for(uint i = 0 ; i < candidates.length ; i++){... */\n    tag_34:\n        /* \"simpleVotingContract.sol\":2025:2035  candidates */\n      0x05\n        /* \"simpleVotingContract.sol\":2025:2042  candidates.length */\n      dup1\n      sload\n      swap1\n      pop\n        /* \"simpleVotingContract.sol\":2021:2022  i */\n      dup2\n        /* \"simpleVotingContract.sol\":2021:2042  i < candidates.length */\n      lt\n        /* \"simpleVotingContract.sol\":2004:2233  for(uint i = 0 ; i < candidates.length ; i++){... */\n      iszero\n      tag_35\n      jumpi\n        /* \"simpleVotingContract.sol\":2102:2105  cnt */\n      dup2\n        /* \"simpleVotingContract.sol\":2070:2084  candidateVotes */\n      0x01\n        /* \"simpleVotingContract.sol\":2070:2099  candidateVotes[candidates[i]] */\n      0x00\n        /* \"simpleVotingContract.sol\":2085:2095  candidates */\n      0x05\n        /* \"simpleVotingContract.sol\":2096:2097  i */\n      dup5\n        /* \"simpleVotingContract.sol\":2085:2098  candidates[i] */\n      dup2\n      sload\n      dup2\n      lt\n      tag_37\n      jumpi\n      tag_38\n      tag_39\n      jump\t// in\n    tag_38:\n    tag_37:\n      swap1\n      0x00\n      mstore\n      keccak256(0x00, 0x20)\n      add\n      0x00\n      swap1\n      sload\n      swap1\n      0x0100\n      exp\n      swap1\n      div\n      0xffffffffffffffffffffffffffffffffffffffff\n      and\n        /* \"simpleVotingContract.sol\":2070:2099  candidateVotes[candidates[i]] */\n      0xffffffffffffffffffffffffffffffffffffffff\n      and\n      0xffffffffffffffffffffffffffffffffffffffff\n      and\n      dup2\n      mstore\n      0x20\n      add\n      swap1\n      dup2\n      mstore\n      0x20\n      add\n      0x00\n      keccak256\n      sload\n        /* \"simpleVotingContract.sol\":2070:2105  candidateVotes[candidates[i]] > cnt */\n      gt\n        /* \"simpleVotingContract.sol\":2067:2219  if(candidateVotes[candidates[i]] > cnt){... */\n      iszero\n      tag_41\n      jumpi\n        /* \"simpleVotingContract.sol\":2137:2147  candidates */\n      0x05\n        /* \"simpleVotingContract.sol\":2148:2149  i */\n      dup2\n        /* \"simpleVotingContract.sol\":2137:2150  candidates[i] */\n      dup2\n      sload\n      dup2\n      lt\n      tag_42\n      jumpi\n      tag_43\n      tag_39\n      jump\t// in\n    tag_43:\n    tag_42:\n      swap1\n      0x00\n      mstore\n      keccak256(0x00, 0x20)\n      add\n      0x00\n      swap1\n      sload\n      swap1\n      0x0100\n      exp\n      swap1\n      div\n      0xffffffffffffffffffffffffffffffffffffffff\n      and\n        /* \"simpleVotingContract.sol\":2128:2150  winner = candidates[i] */\n      swap3\n      pop\n        /* \"simpleVotingContract.sol\":2178:2192  candidateVotes */\n      0x01\n        /* \"simpleVotingContract.sol\":2178:2200  candidateVotes[winner] */\n      0x00\n        /* \"simpleVotingContract.sol\":2193:2199  winner */\n      dup5\n        /* \"simpleVotingContract.sol\":2178:2200  candidateVotes[winner] */\n      0xffffffffffffffffffffffffffffffffffffffff\n      and\n      0xffffffffffffffffffffffffffffffffffffffff\n      and\n      dup2\n      mstore\n      0x20\n      add\n      swap1\n      dup2\n      mstore\n      0x20\n      add\n      0x00\n      keccak256\n      sload\n        /* \"simpleVotingContract.sol\":2172:2200  cnt = candidateVotes[winner] */\n      swap2\n      pop\n        /* \"simpleVotingContract.sol\":2067:2219  if(candidateVotes[candidates[i]] > cnt){... */\n    tag_41:\n        /* \"simpleVotingContract.sol\":2045:2048  i++ */\n      dup1\n      dup1\n      tag_45\n      swap1\n      tag_46\n      jump\t// in\n    tag_45:\n      swap2\n      pop\n      pop\n        /* \"simpleVotingContract.sol\":2004:2233  for(uint i = 0 ; i < candidates.length ; i++){... */\n      jump(tag_34)\n    tag_35:\n      pop\n        /* \"simpleVotingContract.sol\":2254:2260  winner */\n      dup2\n        /* \"simpleVotingContract.sol\":2261:2264  cnt */\n      dup2\n        /* \"simpleVotingContract.sol\":2246:2265  return (winner,cnt) */\n      swap4\n      pop\n      swap4\n      pop\n      pop\n      pop\n      jump(tag_30)\n        /* \"simpleVotingContract.sol\":1851:2276  if(owner != msg.sender){... */\n    tag_33:\n        /* \"simpleVotingContract.sol\":1787:2282  function result() public returns(address add,uint val){... */\n    tag_30:\n      swap1\n      swap2\n      jump\t// out\n        /* \"simpleVotingContract.sol\":1447:1768  function vote(address cnt) public returns(bool){... */\n    tag_18:\n        /* \"simpleVotingContract.sol\":1489:1493  bool */\n      0x00\n        /* \"simpleVotingContract.sol\":1504:1512  bool res */\n      dup1\n        /* \"simpleVotingContract.sol\":1515:1527  checkVoted() */\n      tag_48\n        /* \"simpleVotingContract.sol\":1515:1525  checkVoted */\n      tag_49\n        /* \"simpleVotingContract.sol\":1515:1527  checkVoted() */\n      jump\t// in\n    tag_48:\n        /* \"simpleVotingContract.sol\":1504:1527  bool res = checkVoted() */\n      swap1\n      pop\n        /* \"simpleVotingContract.sol\":1540:1543  res */\n      dup1\n        /* \"simpleVotingContract.sol\":1537:1638  if(res){... */\n      iszero\n      tag_50\n      jumpi\n        /* \"simpleVotingContract.sol\":1563:1601  ErrorEvent(\"You have already voted !\") */\n      0x6222dc10afcca3c8cec10b1b08a9bff096c30eb574a3233be051aa5440fc41bb\n      mload(0x40)\n      tag_51\n      swap1\n      tag_52\n      jump\t// in\n    tag_51:\n      mload(0x40)\n      dup1\n      swap2\n      sub\n      swap1\n      log1\n        /* \"simpleVotingContract.sol\":1622:1627  false */\n      0x00\n        /* \"simpleVotingContract.sol\":1615:1627  return false */\n      swap2\n      pop\n      pop\n      jump(tag_47)\n        /* \"simpleVotingContract.sol\":1537:1638  if(res){... */\n    tag_50:\n        /* \"simpleVotingContract.sol\":1672:1676  true */\n      0x01\n        /* \"simpleVotingContract.sol\":1647:1657  voterExist */\n      0x04\n        /* \"simpleVotingContract.sol\":1647:1669  voterExist[msg.sender] */\n      0x00\n        /* \"simpleVotingContract.sol\":1658:1668  msg.sender */\n      caller\n        /* \"simpleVotingContract.sol\":1647:1669  voterExist[msg.sender] */\n      0xffffffffffffffffffffffffffffffffffffffff\n      and\n      0xffffffffffffffffffffffffffffffffffffffff\n      and\n      dup2\n      mstore\n      0x20\n      add\n      swap1\n      dup2\n      mstore\n      0x20\n      add\n      0x00\n      keccak256\n      0x00\n        /* \"simpleVotingContract.sol\":1647:1676  voterExist[msg.sender] = true */\n      0x0100\n      exp\n      dup2\n      sload\n      dup2\n      0xff\n      mul\n      not\n      and\n      swap1\n      dup4\n      iszero\n      iszero\n      mul\n      or\n      swap1\n      sstore\n      pop\n        /* \"simpleVotingContract.sol\":1706:1709  cnt */\n      dup3\n        /* \"simpleVotingContract.sol\":1686:1691  votes */\n      0x03\n        /* \"simpleVotingContract.sol\":1686:1703  votes[msg.sender] */\n      0x00\n        /* \"simpleVotingContract.sol\":1692:1702  msg.sender */\n      caller\n        /* \"simpleVotingContract.sol\":1686:1703  votes[msg.sender] */\n      0xffffffffffffffffffffffffffffffffffffffff\n      and\n      0xffffffffffffffffffffffffffffffffffffffff\n      and\n      dup2\n      mstore\n      0x20\n      add\n      swap1\n      dup2\n      mstore\n      0x20\n      add\n      0x00\n      keccak256\n      0x00\n        /* \"simpleVotingContract.sol\":1686:1709  votes[msg.sender] = cnt */\n      0x0100\n      exp\n      dup2\n      sload\n      dup2\n      0xffffffffffffffffffffffffffffffffffffffff\n      mul\n      not\n      and\n      swap1\n      dup4\n      0xffffffffffffffffffffffffffffffffffffffff\n      and\n      mul\n      or\n      swap1\n      sstore\n      pop\n        /* \"simpleVotingContract.sol\":1719:1733  candidateVotes */\n      0x01\n        /* \"simpleVotingContract.sol\":1719:1738  candidateVotes[cnt] */\n      0x00\n        /* \"simpleVotingContract.sol\":1734:1737  cnt */\n      dup5\n        /* \"simpleVotingContract.sol\":1719:1738  candidateVotes[cnt] */\n      0xffffffffffffffffffffffffffffffffffffffff\n      and\n      0xffffffffffffffffffffffffffffffffffffffff\n      and\n      dup2\n      mstore\n      0x20\n      add\n      swap1\n      dup2\n      mstore\n      0x20\n      add\n      0x00\n      keccak256\n      0x00\n        /* \"simpleVotingContract.sol\":1719:1740  candidateVotes[cnt]++ */\n      dup2\n      sload\n      dup1\n      swap3\n      swap2\n      swap1\n      tag_53\n      swap1\n      tag_46\n      jump\t// in\n    tag_53:\n      swap2\n      swap1\n      pop\n      sstore\n      pop\n        /* \"simpleVotingContract.sol\":1757:1761  true */\n      0x01\n        /* \"simpleVotingContract.sol\":1750:1761  return true */\n      swap2\n      pop\n      pop\n        /* \"simpleVotingContract.sol\":1447:1768  function vote(address cnt) public returns(bool){... */\n    tag_47:\n      swap2\n      swap1\n      pop\n      jump\t// out\n        /* \"simpleVotingContract.sol\":531:691  function checkCandidate(address cnd) private view returns(bool){... */\n    tag_25:\n        /* \"simpleVotingContract.sol\":589:593  bool */\n      0x00\n        /* \"simpleVotingContract.sol\":607:621  candidateExist */\n      0x02\n        /* \"simpleVotingContract.sol\":607:626  candidateExist[cnd] */\n      0x00\n        /* \"simpleVotingContract.sol\":622:625  cnd */\n      dup4\n        /* \"simpleVotingContract.sol\":607:626  candidateExist[cnd] */\n      0xffffffffffffffffffffffffffffffffffffffff\n      and\n      0xffffffffffffffffffffffffffffffffffffffff\n      and\n      dup2\n      mstore\n      0x20\n      add\n      swap1\n      dup2\n      mstore\n      0x20\n      add\n      0x00\n      keccak256\n      0x00\n      swap1\n      sload\n      swap1\n      0x0100\n      exp\n      swap1\n      div\n      0xff\n      and\n        /* \"simpleVotingContract.sol\":604:663  if(candidateExist[cnd]){... */\n      iszero\n      tag_55\n      jumpi\n        /* \"simpleVotingContract.sol\":648:652  true */\n      0x01\n        /* \"simpleVotingContract.sol\":641:652  return true */\n      swap1\n      pop\n      jump(tag_54)\n        /* \"simpleVotingContract.sol\":604:663  if(candidateExist[cnd]){... */\n    tag_55:\n        /* \"simpleVotingContract.sol\":679:684  false */\n      0x00\n        /* \"simpleVotingContract.sol\":672:684  return false */\n      swap1\n      pop\n        /* \"simpleVotingContract.sol\":531:691  function checkCandidate(address cnd) private view returns(bool){... */\n    tag_54:\n      swap2\n      swap1\n      pop\n      jump\t// out\n        /* \"simpleVotingContract.sol\":1270:1419  function checkVoted() private view returns(bool){... */\n    tag_49:\n        /* \"simpleVotingContract.sol\":1313:1317  bool */\n      0x00\n        /* \"simpleVotingContract.sol\":1331:1341  voterExist */\n      0x04\n        /* \"simpleVotingContract.sol\":1331:1353  voterExist[msg.sender] */\n      0x00\n        /* \"simpleVotingContract.sol\":1342:1352  msg.sender */\n      caller\n        /* \"simpleVotingContract.sol\":1331:1353  voterExist[msg.sender] */\n      0xffffffffffffffffffffffffffffffffffffffff\n      and\n      0xffffffffffffffffffffffffffffffffffffffff\n      and\n      dup2\n      mstore\n      0x20\n      add\n      swap1\n      dup2\n      mstore\n      0x20\n      add\n      0x00\n      keccak256\n      0x00\n      swap1\n      sload\n      swap1\n      0x0100\n      exp\n      swap1\n      div\n      0xff\n      and\n        /* \"simpleVotingContract.sol\":1328:1391  if(voterExist[msg.sender]) {... */\n      iszero\n      tag_57\n      jumpi\n        /* \"simpleVotingContract.sol\":1376:1380  true */\n      0x01\n        /* \"simpleVotingContract.sol\":1369:1380  return true */\n      swap1\n      pop\n      jump(tag_56)\n        /* \"simpleVotingContract.sol\":1328:1391  if(voterExist[msg.sender]) {... */\n    tag_57:\n        /* \"simpleVotingContract.sol\":1407:1412  false */\n      0x00\n        /* \"simpleVotingContract.sol\":1400:1412  return false */\n      swap1\n      pop\n        /* \"simpleVotingContract.sol\":1270:1419  function checkVoted() private view returns(bool){... */\n    tag_56:\n      swap1\n      jump\t// out\n        /* \"#utility.yul\":88:205   */\n    tag_59:\n        /* \"#utility.yul\":197:198   */\n      0x00\n        /* \"#utility.yul\":194:195   */\n      dup1\n        /* \"#utility.yul\":187:199   */\n      revert\n        /* \"#utility.yul\":334:460   */\n    tag_61:\n        /* \"#utility.yul\":371:378   */\n      0x00\n        /* \"#utility.yul\":411:453   */\n      0xffffffffffffffffffffffffffffffffffffffff\n        /* \"#utility.yul\":404:409   */\n      dup3\n        /* \"#utility.yul\":400:454   */\n      and\n        /* \"#utility.yul\":389:454   */\n      swap1\n      pop\n        /* \"#utility.yul\":334:460   */\n      swap2\n      swap1\n      pop\n      jump\t// out\n        /* \"#utility.yul\":466:562   */\n    tag_62:\n        /* \"#utility.yul\":503:510   */\n      0x00\n        /* \"#utility.yul\":532:556   */\n      tag_84\n        /* \"#utility.yul\":550:555   */\n      dup3\n        /* \"#utility.yul\":532:556   */\n      tag_61\n      jump\t// in\n    tag_84:\n        /* \"#utility.yul\":521:556   */\n      swap1\n      pop\n        /* \"#utility.yul\":466:562   */\n      swap2\n      swap1\n      pop\n      jump\t// out\n        /* \"#utility.yul\":568:690   */\n    tag_63:\n        /* \"#utility.yul\":641:665   */\n      tag_86\n        /* \"#utility.yul\":659:664   */\n      dup2\n        /* \"#utility.yul\":641:665   */\n      tag_62\n      jump\t// in\n    tag_86:\n        /* \"#utility.yul\":634:639   */\n      dup2\n        /* \"#utility.yul\":631:666   */\n      eq\n        /* \"#utility.yul\":621:684   */\n      tag_87\n      jumpi\n        /* \"#utility.yul\":680:681   */\n      0x00\n        /* \"#utility.yul\":677:678   */\n      dup1\n        /* \"#utility.yul\":670:682   */\n      revert\n        /* \"#utility.yul\":621:684   */\n    tag_87:\n        /* \"#utility.yul\":568:690   */\n      pop\n      jump\t// out\n        /* \"#utility.yul\":696:835   */\n    tag_64:\n        /* \"#utility.yul\":742:747   */\n      0x00\n        /* \"#utility.yul\":780:786   */\n      dup2\n        /* \"#utility.yul\":767:787   */\n      calldataload\n        /* \"#utility.yul\":758:787   */\n      swap1\n      pop\n        /* \"#utility.yul\":796:829   */\n      tag_89\n        /* \"#utility.yul\":823:828   */\n      dup2\n        /* \"#utility.yul\":796:829   */\n      tag_63\n      jump\t// in\n    tag_89:\n        /* \"#utility.yul\":696:835   */\n      swap3\n      swap2\n      pop\n      pop\n      jump\t// out\n        /* \"#utility.yul\":841:1170   */\n    tag_8:\n        /* \"#utility.yul\":900:906   */\n      0x00\n        /* \"#utility.yul\":949:951   */\n      0x20\n        /* \"#utility.yul\":937:946   */\n      dup3\n        /* \"#utility.yul\":928:935   */\n      dup5\n        /* \"#utility.yul\":924:947   */\n      sub\n        /* \"#utility.yul\":920:952   */\n      slt\n        /* \"#utility.yul\":917:1036   */\n      iszero\n      tag_91\n      jumpi\n        /* \"#utility.yul\":955:1034   */\n      tag_92\n      tag_59\n      jump\t// in\n    tag_92:\n        /* \"#utility.yul\":917:1036   */\n    tag_91:\n        /* \"#utility.yul\":1075:1076   */\n      0x00\n        /* \"#utility.yul\":1100:1153   */\n      tag_93\n        /* \"#utility.yul\":1145:1152   */\n      dup5\n        /* \"#utility.yul\":1136:1142   */\n      dup3\n        /* \"#utility.yul\":1125:1134   */\n      dup6\n        /* \"#utility.yul\":1121:1143   */\n      add\n        /* \"#utility.yul\":1100:1153   */\n      tag_64\n      jump\t// in\n    tag_93:\n        /* \"#utility.yul\":1090:1153   */\n      swap2\n      pop\n        /* \"#utility.yul\":1046:1163   */\n      pop\n        /* \"#utility.yul\":841:1170   */\n      swap3\n      swap2\n      pop\n      pop\n      jump\t// out\n        /* \"#utility.yul\":1176:1266   */\n    tag_65:\n        /* \"#utility.yul\":1210:1217   */\n      0x00\n        /* \"#utility.yul\":1253:1258   */\n      dup2\n        /* \"#utility.yul\":1246:1259   */\n      iszero\n        /* \"#utility.yul\":1239:1260   */\n      iszero\n        /* \"#utility.yul\":1228:1260   */\n      swap1\n      pop\n        /* \"#utility.yul\":1176:1266   */\n      swap2\n      swap1\n      pop\n      jump\t// out\n        /* \"#utility.yul\":1272:1381   */\n    tag_66:\n        /* \"#utility.yul\":1353:1374   */\n      tag_96\n        /* \"#utility.yul\":1368:1373   */\n      dup2\n        /* \"#utility.yul\":1353:1374   */\n      tag_65\n      jump\t// in\n    tag_96:\n        /* \"#utility.yul\":1348:1351   */\n      dup3\n        /* \"#utility.yul\":1341:1375   */\n      mstore\n        /* \"#utility.yul\":1272:1381   */\n      pop\n      pop\n      jump\t// out\n        /* \"#utility.yul\":1387:1597   */\n    tag_11:\n        /* \"#utility.yul\":1474:1478   */\n      0x00\n        /* \"#utility.yul\":1512:1514   */\n      0x20\n        /* \"#utility.yul\":1501:1510   */\n      dup3\n        /* \"#utility.yul\":1497:1515   */\n      add\n        /* \"#utility.yul\":1489:1515   */\n      swap1\n      pop\n        /* \"#utility.yul\":1525:1590   */\n      tag_98\n        /* \"#utility.yul\":1587:1588   */\n      0x00\n        /* \"#utility.yul\":1576:1585   */\n      dup4\n        /* \"#utility.yul\":1572:1589   */\n      add\n        /* \"#utility.yul\":1563:1569   */\n      dup5\n        /* \"#utility.yul\":1525:1590   */\n      tag_66\n      jump\t// in\n    tag_98:\n        /* \"#utility.yul\":1387:1597   */\n      swap3\n      swap2\n      pop\n      pop\n      jump\t// out\n        /* \"#utility.yul\":1603:1721   */\n    tag_67:\n        /* \"#utility.yul\":1690:1714   */\n      tag_100\n        /* \"#utility.yul\":1708:1713   */\n      dup2\n        /* \"#utility.yul\":1690:1714   */\n      tag_62\n      jump\t// in\n    tag_100:\n        /* \"#utility.yul\":1685:1688   */\n      dup3\n        /* \"#utility.yul\":1678:1715   */\n      mstore\n        /* \"#utility.yul\":1603:1721   */\n      pop\n      pop\n      jump\t// out\n        /* \"#utility.yul\":1727:1804   */\n    tag_68:\n        /* \"#utility.yul\":1764:1771   */\n      0x00\n        /* \"#utility.yul\":1793:1798   */\n      dup2\n        /* \"#utility.yul\":1782:1798   */\n      swap1\n      pop\n        /* \"#utility.yul\":1727:1804   */\n      swap2\n      swap1\n      pop\n      jump\t// out\n        /* \"#utility.yul\":1810:1928   */\n    tag_69:\n        /* \"#utility.yul\":1897:1921   */\n      tag_103\n        /* \"#utility.yul\":1915:1920   */\n      dup2\n        /* \"#utility.yul\":1897:1921   */\n      tag_68\n      jump\t// in\n    tag_103:\n        /* \"#utility.yul\":1892:1895   */\n      dup3\n        /* \"#utility.yul\":1885:1922   */\n      mstore\n        /* \"#utility.yul\":1810:1928   */\n      pop\n      pop\n      jump\t// out\n        /* \"#utility.yul\":1934:2266   */\n    tag_15:\n        /* \"#utility.yul\":2055:2059   */\n      0x00\n        /* \"#utility.yul\":2093:2095   */\n      0x40\n        /* \"#utility.yul\":2082:2091   */\n      dup3\n        /* \"#utility.yul\":2078:2096   */\n      add\n        /* \"#utility.yul\":2070:2096   */\n      swap1\n      pop\n        /* \"#utility.yul\":2106:2177   */\n      tag_105\n        /* \"#utility.yul\":2174:2175   */\n      0x00\n        /* \"#utility.yul\":2163:2172   */\n      dup4\n        /* \"#utility.yul\":2159:2176   */\n      add\n        /* \"#utility.yul\":2150:2156   */\n      dup6\n        /* \"#utility.yul\":2106:2177   */\n      tag_67\n      jump\t// in\n    tag_105:\n        /* \"#utility.yul\":2187:2259   */\n      tag_106\n        /* \"#utility.yul\":2255:2257   */\n      0x20\n        /* \"#utility.yul\":2244:2253   */\n      dup4\n        /* \"#utility.yul\":2240:2258   */\n      add\n        /* \"#utility.yul\":2231:2237   */\n      dup5\n        /* \"#utility.yul\":2187:2259   */\n      tag_69\n      jump\t// in\n    tag_106:\n        /* \"#utility.yul\":1934:2266   */\n      swap4\n      swap3\n      pop\n      pop\n      pop\n      jump\t// out\n        /* \"#utility.yul\":2272:2441   */\n    tag_70:\n        /* \"#utility.yul\":2356:2367   */\n      0x00\n        /* \"#utility.yul\":2390:2396   */\n      dup3\n        /* \"#utility.yul\":2385:2388   */\n      dup3\n        /* \"#utility.yul\":2378:2397   */\n      mstore\n        /* \"#utility.yul\":2430:2434   */\n      0x20\n        /* \"#utility.yul\":2425:2428   */\n      dup3\n        /* \"#utility.yul\":2421:2435   */\n      add\n        /* \"#utility.yul\":2406:2435   */\n      swap1\n      pop\n        /* \"#utility.yul\":2272:2441   */\n      swap3\n      swap2\n      pop\n      pop\n      jump\t// out\n        /* \"#utility.yul\":2447:2611   */\n    tag_71:\n        /* \"#utility.yul\":2587:2603   */\n      0x4e6f7420617574686572697a6564000000000000000000000000000000000000\n        /* \"#utility.yul\":2583:2584   */\n      0x00\n        /* \"#utility.yul\":2575:2581   */\n      dup3\n        /* \"#utility.yul\":2571:2585   */\n      add\n        /* \"#utility.yul\":2564:2604   */\n      mstore\n        /* \"#utility.yul\":2447:2611   */\n      pop\n      jump\t// out\n        /* \"#utility.yul\":2617:2983   */\n    tag_72:\n        /* \"#utility.yul\":2759:2762   */\n      0x00\n        /* \"#utility.yul\":2780:2847   */\n      tag_110\n        /* \"#utility.yul\":2844:2846   */\n      0x0e\n        /* \"#utility.yul\":2839:2842   */\n      dup4\n        /* \"#utility.yul\":2780:2847   */\n      tag_70\n      jump\t// in\n    tag_110:\n        /* \"#utility.yul\":2773:2847   */\n      swap2\n      pop\n        /* \"#utility.yul\":2856:2949   */\n      tag_111\n        /* \"#utility.yul\":2945:2948   */\n      dup3\n        /* \"#utility.yul\":2856:2949   */\n      tag_71\n      jump\t// in\n    tag_111:\n        /* \"#utility.yul\":2974:2976   */\n      0x20\n        /* \"#utility.yul\":2969:2972   */\n      dup3\n        /* \"#utility.yul\":2965:2977   */\n      add\n        /* \"#utility.yul\":2958:2977   */\n      swap1\n      pop\n        /* \"#utility.yul\":2617:2983   */\n      swap2\n      swap1\n      pop\n      jump\t// out\n        /* \"#utility.yul\":2989:3408   */\n    tag_23:\n        /* \"#utility.yul\":3155:3159   */\n      0x00\n        /* \"#utility.yul\":3193:3195   */\n      0x20\n        /* \"#utility.yul\":3182:3191   */\n      dup3\n        /* \"#utility.yul\":3178:3196   */\n      add\n        /* \"#utility.yul\":3170:3196   */\n      swap1\n      pop\n        /* \"#utility.yul\":3242:3251   */\n      dup2\n        /* \"#utility.yul\":3236:3240   */\n      dup2\n        /* \"#utility.yul\":3232:3252   */\n      sub\n        /* \"#utility.yul\":3228:3229   */\n      0x00\n        /* \"#utility.yul\":3217:3226   */\n      dup4\n        /* \"#utility.yul\":3213:3230   */\n      add\n        /* \"#utility.yul\":3206:3253   */\n      mstore\n        /* \"#utility.yul\":3270:3401   */\n      tag_113\n        /* \"#utility.yul\":3396:3400   */\n      dup2\n        /* \"#utility.yul\":3270:3401   */\n      tag_72\n      jump\t// in\n    tag_113:\n        /* \"#utility.yul\":3262:3401   */\n      swap1\n      pop\n        /* \"#utility.yul\":2989:3408   */\n      swap2\n      swap1\n      pop\n      jump\t// out\n        /* \"#utility.yul\":3414:3590   */\n    tag_73:\n        /* \"#utility.yul\":3554:3582   */\n      0x43616e64696461746520616c7265616479206578697374732021000000000000\n        /* \"#utility.yul\":3550:3551   */\n      0x00\n        /* \"#utility.yul\":3542:3548   */\n      dup3\n        /* \"#utility.yul\":3538:3552   */\n      add\n        /* \"#utility.yul\":3531:3583   */\n      mstore\n        /* \"#utility.yul\":3414:3590   */\n      pop\n      jump\t// out\n        /* \"#utility.yul\":3596:3962   */\n    tag_74:\n        /* \"#utility.yul\":3738:3741   */\n      0x00\n        /* \"#utility.yul\":3759:3826   */\n      tag_116\n        /* \"#utility.yul\":3823:3825   */\n      0x1a\n        /* \"#utility.yul\":3818:3821   */\n      dup4\n        /* \"#utility.yul\":3759:3826   */\n      tag_70\n      jump\t// in\n    tag_116:\n        /* \"#utility.yul\":3752:3826   */\n      swap2\n      pop\n        /* \"#utility.yul\":3835:3928   */\n      tag_117\n        /* \"#utility.yul\":3924:3927   */\n      dup3\n        /* \"#utility.yul\":3835:3928   */\n      tag_73\n      jump\t// in\n    tag_117:\n        /* \"#utility.yul\":3953:3955   */\n      0x20\n        /* \"#utility.yul\":3948:3951   */\n      dup3\n        /* \"#utility.yul\":3944:3956   */\n      add\n        /* \"#utility.yul\":3937:3956   */\n      swap1\n      pop\n        /* \"#utility.yul\":3596:3962   */\n      swap2\n      swap1\n      pop\n      jump\t// out\n        /* \"#utility.yul\":3968:4387   */\n    tag_28:\n        /* \"#utility.yul\":4134:4138   */\n      0x00\n        /* \"#utility.yul\":4172:4174   */\n      0x20\n        /* \"#utility.yul\":4161:4170   */\n      dup3\n        /* \"#utility.yul\":4157:4175   */\n      add\n        /* \"#utility.yul\":4149:4175   */\n      swap1\n      pop\n        /* \"#utility.yul\":4221:4230   */\n      dup2\n        /* \"#utility.yul\":4215:4219   */\n      dup2\n        /* \"#utility.yul\":4211:4231   */\n      sub\n        /* \"#utility.yul\":4207:4208   */\n      0x00\n        /* \"#utility.yul\":4196:4205   */\n      dup4\n        /* \"#utility.yul\":4192:4209   */\n      add\n        /* \"#utility.yul\":4185:4232   */\n      mstore\n        /* \"#utility.yul\":4249:4380   */\n      tag_119\n        /* \"#utility.yul\":4375:4379   */\n      dup2\n        /* \"#utility.yul\":4249:4380   */\n      tag_74\n      jump\t// in\n    tag_119:\n        /* \"#utility.yul\":4241:4380   */\n      swap1\n      pop\n        /* \"#utility.yul\":3968:4387   */\n      swap2\n      swap1\n      pop\n      jump\t// out\n        /* \"#utility.yul\":4393:4573   */\n    tag_39:\n        /* \"#utility.yul\":4441:4518   */\n      0x4e487b7100000000000000000000000000000000000000000000000000000000\n        /* \"#utility.yul\":4438:4439   */\n      0x00\n        /* \"#utility.yul\":4431:4519   */\n      mstore\n        /* \"#utility.yul\":4538:4542   */\n      0x32\n        /* \"#utility.yul\":4535:4536   */\n      0x04\n        /* \"#utility.yul\":4528:4543   */\n      mstore\n        /* \"#utility.yul\":4562:4566   */\n      0x24\n        /* \"#utility.yul\":4559:4560   */\n      0x00\n        /* \"#utility.yul\":4552:4567   */\n      revert\n        /* \"#utility.yul\":4579:4759   */\n    tag_75:\n        /* \"#utility.yul\":4627:4704   */\n      0x4e487b7100000000000000000000000000000000000000000000000000000000\n        /* \"#utility.yul\":4624:4625   */\n      0x00\n        /* \"#utility.yul\":4617:4705   */\n      mstore\n        /* \"#utility.yul\":4724:4728   */\n      0x11\n        /* \"#utility.yul\":4721:4722   */\n      0x04\n        /* \"#utility.yul\":4714:4729   */\n      mstore\n        /* \"#utility.yul\":4748:4752   */\n      0x24\n        /* \"#utility.yul\":4745:4746   */\n      0x00\n        /* \"#utility.yul\":4738:4753   */\n      revert\n        /* \"#utility.yul\":4765:4998   */\n    tag_46:\n        /* \"#utility.yul\":4804:4807   */\n      0x00\n        /* \"#utility.yul\":4827:4851   */\n      tag_123\n        /* \"#utility.yul\":4845:4850   */\n      dup3\n        /* \"#utility.yul\":4827:4851   */\n      tag_68\n      jump\t// in\n    tag_123:\n        /* \"#utility.yul\":4818:4851   */\n      swap2\n      pop\n        /* \"#utility.yul\":4873:4939   */\n      0xffffffffffffffffffffffffffffffffffffffffffffffffffffffffffffffff\n        /* \"#utility.yul\":4866:4871   */\n      dup3\n        /* \"#utility.yul\":4863:4940   */\n      sub\n        /* \"#utility.yul\":4860:4963   */\n      tag_124\n      jumpi\n        /* \"#utility.yul\":4943:4961   */\n      tag_125\n      tag_75\n      jump\t// in\n    tag_125:\n        /* \"#utility.yul\":4860:4963   */\n    tag_124:\n        /* \"#utility.yul\":4990:4991   */\n      0x01\n        /* \"#utility.yul\":4983:4988   */\n      dup3\n        /* \"#utility.yul\":4979:4992   */\n      add\n        /* \"#utility.yul\":4972:4992   */\n      swap1\n      pop\n        /* \"#utility.yul\":4765:4998   */\n      swap2\n      swap1\n      pop\n      jump\t// out\n        /* \"#utility.yul\":5004:5178   */\n    tag_76:\n        /* \"#utility.yul\":5144:5170   */\n      0x596f75206861766520616c726561647920766f74656420210000000000000000\n        /* \"#utility.yul\":5140:5141   */\n      0x00\n        /* \"#utility.yul\":5132:5138   */\n      dup3\n        /* \"#utility.yul\":5128:5142   */\n      add\n        /* \"#utility.yul\":5121:5171   */\n      mstore\n        /* \"#utility.yul\":5004:5178   */\n      pop\n      jump\t// out\n        /* \"#utility.yul\":5184:5550   */\n    tag_77:\n        /* \"#utility.yul\":5326:5329   */\n      0x00\n        /* \"#utility.yul\":5347:5414   */\n      tag_128\n        /* \"#utility.yul\":5411:5413   */\n      0x18\n        /* \"#utility.yul\":5406:5409   */\n      dup4\n        /* \"#utility.yul\":5347:5414   */\n      tag_70\n      jump\t// in\n    tag_128:\n        /* \"#utility.yul\":5340:5414   */\n      swap2\n      pop\n        /* \"#utility.yul\":5423:5516   */\n      tag_129\n        /* \"#utility.yul\":5512:5515   */\n      dup3\n        /* \"#utility.yul\":5423:5516   */\n      tag_76\n      jump\t// in\n    tag_129:\n        /* \"#utility.yul\":5541:5543   */\n      0x20\n        /* \"#utility.yul\":5536:5539   */\n      dup3\n        /* \"#utility.yul\":5532:5544   */\n      add\n        /* \"#utility.yul\":5525:5544   */\n      swap1\n      pop\n        /* \"#utility.yul\":5184:5550   */\n      swap2\n      swap1\n      pop\n      jump\t// out\n        /* \"#utility.yul\":5556:5975   */\n    tag_52:\n        /* \"#utility.yul\":5722:5726   */\n      0x00\n        /* \"#utility.yul\":5760:5762   */\n      0x20\n        /* \"#utility.yul\":5749:5758   */\n      dup3\n        /* \"#utility.yul\":5745:5763   */\n      add\n        /* \"#utility.yul\":5737:5763   */\n      swap1\n      pop\n        /* \"#utility.yul\":5809:5818   */\n      dup2\n        /* \"#utility.yul\":5803:5807   */\n      dup2\n        /* \"#utility.yul\":5799:5819   */\n      sub\n        /* \"#utility.yul\":5795:5796   */\n      0x00\n        /* \"#utility.yul\":5784:5793   */\n      dup4\n        /* \"#utility.yul\":5780:5797   */\n      add\n        /* \"#utility.yul\":5773:5820   */\n      mstore\n        /* \"#utility.yul\":5837:5968   */\n      tag_131\n        /* \"#utility.yul\":5963:5967   */\n      dup2\n        /* \"#utility.yul\":5837:5968   */\n      tag_77\n      jump\t// in\n    tag_131:\n        /* \"#utility.yul\":5829:5968   */\n      swap1\n      pop\n        /* \"#utility.yul\":5556:5975   */\n      swap2\n      swap1\n      pop\n      jump\t// out\n\n    auxdata: 0xa2646970667358221220a5f07f73f47b7ee8d2b66a21877b7fa1c998b0a309b72a0ca462c53920c7824164736f6c63430008140033\n}\n",
				"bytecode": {
					"linkReferences": {},
					"object": "608060405234801561000f575f80fd5b50335f806101000a81548173ffffffffffffffffffffffffffffffffffffffff021916908373ffffffffffffffffffffffffffffffffffffffff1602179055506109d48061005c5f395ff3fe608060405234801561000f575f80fd5b506004361061003f575f3560e01c806348a3a6951461004357806365372147146100735780636dd7d8ea14610092575b5f80fd5b61005d60048036038101906100589190610709565b6100c2565b60405161006a919061074e565b60405180910390f35b61007b6102a5565b60405161008992919061078e565b60405180910390f35b6100ac60048036038101906100a79190610709565b61046c565b6040516100b9919061074e565b60405180910390f35b5f805f9054906101000a900473ffffffffffffffffffffffffffffffffffffffff1673ffffffffffffffffffffffffffffffffffffffff163373ffffffffffffffffffffffffffffffffffffffff1614610153577f6222dc10afcca3c8cec10b1b08a9bff096c30eb574a3233be051aa5440fc41bb6040516101439061080f565b60405180910390a15f90506102a0565b5f61015d836105e9565b905080156101a3577f6222dc10afcca3c8cec10b1b08a9bff096c30eb574a3233be051aa5440fc41bb60405161019290610877565b60405180910390a15f9150506102a0565b5f60015f8573ffffffffffffffffffffffffffffffffffffffff1673ffffffffffffffffffffffffffffffffffffffff1681526020019081526020015f2081905550600160025f8573ffffffffffffffffffffffffffffffffffffffff1673ffffffffffffffffffffffffffffffffffffffff1681526020019081526020015f205f6101000a81548160ff021916908315150217905550600583908060018154018082558091505060019003905f5260205f20015f9091909190916101000a81548173ffffffffffffffffffffffffffffffffffffffff021916908373ffffffffffffffffffffffffffffffffffffffff16021790555060019150505b919050565b5f803373ffffffffffffffffffffffffffffffffffffffff165f8054906101000a900473ffffffffffffffffffffffffffffffffffffffff1673ffffffffffffffffffffffffffffffffffffffff1614610333577f6222dc10afcca3c8cec10b1b08a9bff096c30eb574a3233be051aa5440fc41bb6040516103269061080f565b60405180910390a1610467565b5f805f90505f5b600580549050811015610459578160015f6005848154811061035f5761035e610895565b5b905f5260205f20015f9054906101000a900473ffffffffffffffffffffffffffffffffffffffff1673ffffffffffffffffffffffffffffffffffffffff1673ffffffffffffffffffffffffffffffffffffffff1681526020019081526020015f2054111561044657600581815481106103db576103da610895565b5b905f5260205f20015f9054906101000a900473ffffffffffffffffffffffffffffffffffffffff16925060015f8473ffffffffffffffffffffffffffffffffffffffff1673ffffffffffffffffffffffffffffffffffffffff1681526020019081526020015f205491505b8080610451906108ef565b91505061033a565b508181935093505050610468565b5b9091565b5f8061047661064b565b905080156104bc577f6222dc10afcca3c8cec10b1b08a9bff096c30eb574a3233be051aa5440fc41bb6040516104ab90610980565b60405180910390a15f9150506105e4565b600160045f3373ffffffffffffffffffffffffffffffffffffffff1673ffffffffffffffffffffffffffffffffffffffff1681526020019081526020015f205f6101000a81548160ff0219169083151502179055508260035f3373ffffffffffffffffffffffffffffffffffffffff1673ffffffffffffffffffffffffffffffffffffffff1681526020019081526020015f205f6101000a81548173ffffffffffffffffffffffffffffffffffffffff021916908373ffffffffffffffffffffffffffffffffffffffff16021790555060015f8473ffffffffffffffffffffffffffffffffffffffff1673ffffffffffffffffffffffffffffffffffffffff1681526020019081526020015f205f8154809291906105d9906108ef565b919050555060019150505b919050565b5f60025f8373ffffffffffffffffffffffffffffffffffffffff1673ffffffffffffffffffffffffffffffffffffffff1681526020019081526020015f205f9054906101000a900460ff16156106425760019050610646565b5f90505b919050565b5f60045f3373ffffffffffffffffffffffffffffffffffffffff1673ffffffffffffffffffffffffffffffffffffffff1681526020019081526020015f205f9054906101000a900460ff16156106a457600190506106a8565b5f90505b90565b5f80fd5b5f73ffffffffffffffffffffffffffffffffffffffff82169050919050565b5f6106d8826106af565b9050919050565b6106e8816106ce565b81146106f2575f80fd5b50565b5f81359050610703816106df565b92915050565b5f6020828403121561071e5761071d6106ab565b5b5f61072b848285016106f5565b91505092915050565b5f8115159050919050565b61074881610734565b82525050565b5f6020820190506107615f83018461073f565b92915050565b610770816106ce565b82525050565b5f819050919050565b61078881610776565b82525050565b5f6040820190506107a15f830185610767565b6107ae602083018461077f565b9392505050565b5f82825260208201905092915050565b7f4e6f7420617574686572697a65640000000000000000000000000000000000005f82015250565b5f6107f9600e836107b5565b9150610804826107c5565b602082019050919050565b5f6020820190508181035f830152610826816107ed565b9050919050565b7f43616e64696461746520616c72656164792065786973747320210000000000005f82015250565b5f610861601a836107b5565b915061086c8261082d565b602082019050919050565b5f6020820190508181035f83015261088e81610855565b9050919050565b7f4e487b71000000000000000000000000000000000000000000000000000000005f52603260045260245ffd5b7f4e487b71000000000000000000000000000000000000000000000000000000005f52601160045260245ffd5b5f6108f982610776565b91507fffffffffffffffffffffffffffffffffffffffffffffffffffffffffffffffff820361092b5761092a6108c2565b5b600182019050919050565b7f596f75206861766520616c726561647920766f746564202100000000000000005f82015250565b5f61096a6018836107b5565b915061097582610936565b602082019050919050565b5f6020820190508181035f8301526109978161095e565b905091905056fea2646970667358221220a5f07f73f47b7ee8d2b66a21877b7fa1c998b0a309b72a0ca462c53920c7824164736f6c63430008140033",
					"opcodes": "PUSH1 0x80 PUSH1 0x40 MSTORE CALLVALUE DUP1 ISZERO PUSH2 0xF JUMPI PUSH0 DUP1 REVERT JUMPDEST POP CALLER PUSH0 DUP1 PUSH2 0x100 EXP DUP2 SLOAD DUP2 PUSH20 0xFFFFFFFFFFFFFFFFFFFFFFFFFFFFFFFFFFFFFFFF MUL NOT AND SWAP1 DUP4 PUSH20 0xFFFFFFFFFFFFFFFFFFFFFFFFFFFFFFFFFFFFFFFF AND MUL OR SWAP1 SSTORE POP PUSH2 0x9D4 DUP1 PUSH2 0x5C PUSH0 CODECOPY PUSH0 RETURN INVALID PUSH1 0x80 PUSH1 0x40 MSTORE CALLVALUE DUP1 ISZERO PUSH2 0xF JUMPI PUSH0 DUP1 REVERT JUMPDEST POP PUSH1 0x4 CALLDATASIZE LT PUSH2 0x3F JUMPI PUSH0 CALLDATALOAD PUSH1 0xE0 SHR DUP1 PUSH4 0x48A3A695 EQ PUSH2 0x43 JUMPI DUP1 PUSH4 0x65372147 EQ PUSH2 0x73 JUMPI DUP1 PUSH4 0x6DD7D8EA EQ PUSH2 0x92 JUMPI JUMPDEST PUSH0 DUP1 REVERT JUMPDEST PUSH2 0x5D PUSH1 0x4 DUP1 CALLDATASIZE SUB DUP2 ADD SWAP1 PUSH2 0x58 SWAP2 SWAP1 PUSH2 0x709 JUMP JUMPDEST PUSH2 0xC2 JUMP JUMPDEST PUSH1 0x40 MLOAD PUSH2 0x6A SWAP2 SWAP1 PUSH2 0x74E JUMP JUMPDEST PUSH1 0x40 MLOAD DUP1 SWAP2 SUB SWAP1 RETURN JUMPDEST PUSH2 0x7B PUSH2 0x2A5 JUMP JUMPDEST PUSH1 0x40 MLOAD PUSH2 0x89 SWAP3 SWAP2 SWAP1 PUSH2 0x78E JUMP JUMPDEST PUSH1 0x40 MLOAD DUP1 SWAP2 SUB SWAP1 RETURN JUMPDEST PUSH2 0xAC PUSH1 0x4 DUP1 CALLDATASIZE SUB DUP2 ADD SWAP1 PUSH2 0xA7 SWAP2 SWAP1 PUSH2 0x709 JUMP JUMPDEST PUSH2 0x46C JUMP JUMPDEST PUSH1 0x40 MLOAD PUSH2 0xB9 SWAP2 SWAP1 PUSH2 0x74E JUMP JUMPDEST PUSH1 0x40 MLOAD DUP1 SWAP2 SUB SWAP1 RETURN JUMPDEST PUSH0 DUP1 PUSH0 SWAP1 SLOAD SWAP1 PUSH2 0x100 EXP SWAP1 DIV PUSH20 0xFFFFFFFFFFFFFFFFFFFFFFFFFFFFFFFFFFFFFFFF AND PUSH20 0xFFFFFFFFFFFFFFFFFFFFFFFFFFFFFFFFFFFFFFFF AND CALLER PUSH20 0xFFFFFFFFFFFFFFFFFFFFFFFFFFFFFFFFFFFFFFFF AND EQ PUSH2 0x153 JUMPI PUSH32 0x6222DC10AFCCA3C8CEC10B1B08A9BFF096C30EB574A3233BE051AA5440FC41BB PUSH1 0x40 MLOAD PUSH2 0x143 SWAP1 PUSH2 0x80F JUMP JUMPDEST PUSH1 0x40 MLOAD DUP1 SWAP2 SUB SWAP1 LOG1 PUSH0 SWAP1 POP PUSH2 0x2A0 JUMP JUMPDEST PUSH0 PUSH2 0x15D DUP4 PUSH2 0x5E9 JUMP JUMPDEST SWAP1 POP DUP1 ISZERO PUSH2 0x1A3 JUMPI PUSH32 0x6222DC10AFCCA3C8CEC10B1B08A9BFF096C30EB574A3233BE051AA5440FC41BB PUSH1 0x40 MLOAD PUSH2 0x192 SWAP1 PUSH2 0x877 JUMP JUMPDEST PUSH1 0x40 MLOAD DUP1 SWAP2 SUB SWAP1 LOG1 PUSH0 SWAP2 POP POP PUSH2 0x2A0 JUMP JUMPDEST PUSH0 PUSH1 0x1 PUSH0 DUP6 PUSH20 0xFFFFFFFFFFFFFFFFFFFFFFFFFFFFFFFFFFFFFFFF AND PUSH20 0xFFFFFFFFFFFFFFFFFFFFFFFFFFFFFFFFFFFFFFFF AND DUP2 MSTORE PUSH1 0x20 ADD SWAP1 DUP2 MSTORE PUSH1 0x20 ADD PUSH0 KECCAK256 DUP2 SWAP1 SSTORE POP PUSH1 0x1 PUSH1 0x2 PUSH0 DUP6 PUSH20 0xFFFFFFFFFFFFFFFFFFFFFFFFFFFFFFFFFFFFFFFF AND PUSH20 0xFFFFFFFFFFFFFFFFFFFFFFFFFFFFFFFFFFFFFFFF AND DUP2 MSTORE PUSH1 0x20 ADD SWAP1 DUP2 MSTORE PUSH1 0x20 ADD PUSH0 KECCAK256 PUSH0 PUSH2 0x100 EXP DUP2 SLOAD DUP2 PUSH1 0xFF MUL NOT AND SWAP1 DUP4 ISZERO ISZERO MUL OR SWAP1 SSTORE POP PUSH1 0x5 DUP4 SWAP1 DUP1 PUSH1 0x1 DUP2 SLOAD ADD DUP1 DUP3 SSTORE DUP1 SWAP2 POP POP PUSH1 0x1 SWAP1 SUB SWAP1 PUSH0 MSTORE PUSH1 0x20 PUSH0 KECCAK256 ADD PUSH0 SWAP1 SWAP2 SWAP1 SWAP2 SWAP1 SWAP2 PUSH2 0x100 EXP DUP2 SLOAD DUP2 PUSH20 0xFFFFFFFFFFFFFFFFFFFFFFFFFFFFFFFFFFFFFFFF MUL NOT AND SWAP1 DUP4 PUSH20 0xFFFFFFFFFFFFFFFFFFFFFFFFFFFFFFFFFFFFFFFF AND MUL OR SWAP1 SSTORE POP PUSH1 0x1 SWAP2 POP POP JUMPDEST SWAP2 SWAP1 POP JUMP JUMPDEST PUSH0 DUP1 CALLER PUSH20 0xFFFFFFFFFFFFFFFFFFFFFFFFFFFFFFFFFFFFFFFF AND PUSH0 DUP1 SLOAD SWAP1 PUSH2 0x100 EXP SWAP1 DIV PUSH20 0xFFFFFFFFFFFFFFFFFFFFFFFFFFFFFFFFFFFFFFFF AND PUSH20 0xFFFFFFFFFFFFFFFFFFFFFFFFFFFFFFFFFFFFFFFF AND EQ PUSH2 0x333 JUMPI PUSH32 0x6222DC10AFCCA3C8CEC10B1B08A9BFF096C30EB574A3233BE051AA5440FC41BB PUSH1 0x40 MLOAD PUSH2 0x326 SWAP1 PUSH2 0x80F JUMP JUMPDEST PUSH1 0x40 MLOAD DUP1 SWAP2 SUB SWAP1 LOG1 PUSH2 0x467 JUMP JUMPDEST PUSH0 DUP1 PUSH0 SWAP1 POP PUSH0 JUMPDEST PUSH1 0x5 DUP1 SLOAD SWAP1 POP DUP2 LT ISZERO PUSH2 0x459 JUMPI DUP2 PUSH1 0x1 PUSH0 PUSH1 0x5 DUP5 DUP2 SLOAD DUP2 LT PUSH2 0x35F JUMPI PUSH2 0x35E PUSH2 0x895 JUMP JUMPDEST JUMPDEST SWAP1 PUSH0 MSTORE PUSH1 0x20 PUSH0 KECCAK256 ADD PUSH0 SWAP1 SLOAD SWAP1 PUSH2 0x100 EXP SWAP1 DIV PUSH20 0xFFFFFFFFFFFFFFFFFFFFFFFFFFFFFFFFFFFFFFFF AND PUSH20 0xFFFFFFFFFFFFFFFFFFFFFFFFFFFFFFFFFFFFFFFF AND PUSH20 0xFFFFFFFFFFFFFFFFFFFFFFFFFFFFFFFFFFFFFFFF AND DUP2 MSTORE PUSH1 0x20 ADD SWAP1 DUP2 MSTORE PUSH1 0x20 ADD PUSH0 KECCAK256 SLOAD GT ISZERO PUSH2 0x446 JUMPI PUSH1 0x5 DUP2 DUP2 SLOAD DUP2 LT PUSH2 0x3DB JUMPI PUSH2 0x3DA PUSH2 0x895 JUMP JUMPDEST JUMPDEST SWAP1 PUSH0 MSTORE PUSH1 0x20 PUSH0 KECCAK256 ADD PUSH0 SWAP1 SLOAD SWAP1 PUSH2 0x100 EXP SWAP1 DIV PUSH20 0xFFFFFFFFFFFFFFFFFFFFFFFFFFFFFFFFFFFFFFFF AND SWAP3 POP PUSH1 0x1 PUSH0 DUP5 PUSH20 0xFFFFFFFFFFFFFFFFFFFFFFFFFFFFFFFFFFFFFFFF AND PUSH20 0xFFFFFFFFFFFFFFFFFFFFFFFFFFFFFFFFFFFFFFFF AND DUP2 MSTORE PUSH1 0x20 ADD SWAP1 DUP2 MSTORE PUSH1 0x20 ADD PUSH0 KECCAK256 SLOAD SWAP2 POP JUMPDEST DUP1 DUP1 PUSH2 0x451 SWAP1 PUSH2 0x8EF JUMP JUMPDEST SWAP2 POP POP PUSH2 0x33A JUMP JUMPDEST POP DUP2 DUP2 SWAP4 POP SWAP4 POP POP POP PUSH2 0x468 JUMP JUMPDEST JUMPDEST SWAP1 SWAP2 JUMP JUMPDEST PUSH0 DUP1 PUSH2 0x476 PUSH2 0x64B JUMP JUMPDEST SWAP1 POP DUP1 ISZERO PUSH2 0x4BC JUMPI PUSH32 0x6222DC10AFCCA3C8CEC10B1B08A9BFF096C30EB574A3233BE051AA5440FC41BB PUSH1 0x40 MLOAD PUSH2 0x4AB SWAP1 PUSH2 0x980 JUMP JUMPDEST PUSH1 0x40 MLOAD DUP1 SWAP2 SUB SWAP1 LOG1 PUSH0 SWAP2 POP POP PUSH2 0x5E4 JUMP JUMPDEST PUSH1 0x1 PUSH1 0x4 PUSH0 CALLER PUSH20 0xFFFFFFFFFFFFFFFFFFFFFFFFFFFFFFFFFFFFFFFF AND PUSH20 0xFFFFFFFFFFFFFFFFFFFFFFFFFFFFFFFFFFFFFFFF AND DUP2 MSTORE PUSH1 0x20 ADD SWAP1 DUP2 MSTORE PUSH1 0x20 ADD PUSH0 KECCAK256 PUSH0 PUSH2 0x100 EXP DUP2 SLOAD DUP2 PUSH1 0xFF MUL NOT AND SWAP1 DUP4 ISZERO ISZERO MUL OR SWAP1 SSTORE POP DUP3 PUSH1 0x3 PUSH0 CALLER PUSH20 0xFFFFFFFFFFFFFFFFFFFFFFFFFFFFFFFFFFFFFFFF AND PUSH20 0xFFFFFFFFFFFFFFFFFFFFFFFFFFFFFFFFFFFFFFFF AND DUP2 MSTORE PUSH1 0x20 ADD SWAP1 DUP2 MSTORE PUSH1 0x20 ADD PUSH0 KECCAK256 PUSH0 PUSH2 0x100 EXP DUP2 SLOAD DUP2 PUSH20 0xFFFFFFFFFFFFFFFFFFFFFFFFFFFFFFFFFFFFFFFF MUL NOT AND SWAP1 DUP4 PUSH20 0xFFFFFFFFFFFFFFFFFFFFFFFFFFFFFFFFFFFFFFFF AND MUL OR SWAP1 SSTORE POP PUSH1 0x1 PUSH0 DUP5 PUSH20 0xFFFFFFFFFFFFFFFFFFFFFFFFFFFFFFFFFFFFFFFF AND PUSH20 0xFFFFFFFFFFFFFFFFFFFFFFFFFFFFFFFFFFFFFFFF AND DUP2 MSTORE PUSH1 0x20 ADD SWAP1 DUP2 MSTORE PUSH1 0x20 ADD PUSH0 KECCAK256 PUSH0 DUP2 SLOAD DUP1 SWAP3 SWAP2 SWAP1 PUSH2 0x5D9 SWAP1 PUSH2 0x8EF JUMP JUMPDEST SWAP2 SWAP1 POP SSTORE POP PUSH1 0x1 SWAP2 POP POP JUMPDEST SWAP2 SWAP1 POP JUMP JUMPDEST PUSH0 PUSH1 0x2 PUSH0 DUP4 PUSH20 0xFFFFFFFFFFFFFFFFFFFFFFFFFFFFFFFFFFFFFFFF AND PUSH20 0xFFFFFFFFFFFFFFFFFFFFFFFFFFFFFFFFFFFFFFFF AND DUP2 MSTORE PUSH1 0x20 ADD SWAP1 DUP2 MSTORE PUSH1 0x20 ADD PUSH0 KECCAK256 PUSH0 SWAP1 SLOAD SWAP1 PUSH2 0x100 EXP SWAP1 DIV PUSH1 0xFF AND ISZERO PUSH2 0x642 JUMPI PUSH1 0x1 SWAP1 POP PUSH2 0x646 JUMP JUMPDEST PUSH0 SWAP1 POP JUMPDEST SWAP2 SWAP1 POP JUMP JUMPDEST PUSH0 PUSH1 0x4 PUSH0 CALLER PUSH20 0xFFFFFFFFFFFFFFFFFFFFFFFFFFFFFFFFFFFFFFFF AND PUSH20 0xFFFFFFFFFFFFFFFFFFFFFFFFFFFFFFFFFFFFFFFF AND DUP2 MSTORE PUSH1 0x20 ADD SWAP1 DUP2 MSTORE PUSH1 0x20 ADD PUSH0 KECCAK256 PUSH0 SWAP1 SLOAD SWAP1 PUSH2 0x100 EXP SWAP1 DIV PUSH1 0xFF AND ISZERO PUSH2 0x6A4 JUMPI PUSH1 0x1 SWAP1 POP PUSH2 0x6A8 JUMP JUMPDEST PUSH0 SWAP1 POP JUMPDEST SWAP1 JUMP JUMPDEST PUSH0 DUP1 REVERT JUMPDEST PUSH0 PUSH20 0xFFFFFFFFFFFFFFFFFFFFFFFFFFFFFFFFFFFFFFFF DUP3 AND SWAP1 POP SWAP2 SWAP1 POP JUMP JUMPDEST PUSH0 PUSH2 0x6D8 DUP3 PUSH2 0x6AF JUMP JUMPDEST SWAP1 POP SWAP2 SWAP1 POP JUMP JUMPDEST PUSH2 0x6E8 DUP2 PUSH2 0x6CE JUMP JUMPDEST DUP2 EQ PUSH2 0x6F2 JUMPI PUSH0 DUP1 REVERT JUMPDEST POP JUMP JUMPDEST PUSH0 DUP2 CALLDATALOAD SWAP1 POP PUSH2 0x703 DUP2 PUSH2 0x6DF JUMP JUMPDEST SWAP3 SWAP2 POP POP JUMP JUMPDEST PUSH0 PUSH1 0x20 DUP3 DUP5 SUB SLT ISZERO PUSH2 0x71E JUMPI PUSH2 0x71D PUSH2 0x6AB JUMP JUMPDEST JUMPDEST PUSH0 PUSH2 0x72B DUP5 DUP3 DUP6 ADD PUSH2 0x6F5 JUMP JUMPDEST SWAP2 POP POP SWAP3 SWAP2 POP POP JUMP JUMPDEST PUSH0 DUP2 ISZERO ISZERO SWAP1 POP SWAP2 SWAP1 POP JUMP JUMPDEST PUSH2 0x748 DUP2 PUSH2 0x734 JUMP JUMPDEST DUP3 MSTORE POP POP JUMP JUMPDEST PUSH0 PUSH1 0x20 DUP3 ADD SWAP1 POP PUSH2 0x761 PUSH0 DUP4 ADD DUP5 PUSH2 0x73F JUMP JUMPDEST SWAP3 SWAP2 POP POP JUMP JUMPDEST PUSH2 0x770 DUP2 PUSH2 0x6CE JUMP JUMPDEST DUP3 MSTORE POP POP JUMP JUMPDEST PUSH0 DUP2 SWAP1 POP SWAP2 SWAP1 POP JUMP JUMPDEST PUSH2 0x788 DUP2 PUSH2 0x776 JUMP JUMPDEST DUP3 MSTORE POP POP JUMP JUMPDEST PUSH0 PUSH1 0x40 DUP3 ADD SWAP1 POP PUSH2 0x7A1 PUSH0 DUP4 ADD DUP6 PUSH2 0x767 JUMP JUMPDEST PUSH2 0x7AE PUSH1 0x20 DUP4 ADD DUP5 PUSH2 0x77F JUMP JUMPDEST SWAP4 SWAP3 POP POP POP JUMP JUMPDEST PUSH0 DUP3 DUP3 MSTORE PUSH1 0x20 DUP3 ADD SWAP1 POP SWAP3 SWAP2 POP POP JUMP JUMPDEST PUSH32 0x4E6F7420617574686572697A6564000000000000000000000000000000000000 PUSH0 DUP3 ADD MSTORE POP JUMP JUMPDEST PUSH0 PUSH2 0x7F9 PUSH1 0xE DUP4 PUSH2 0x7B5 JUMP JUMPDEST SWAP2 POP PUSH2 0x804 DUP3 PUSH2 0x7C5 JUMP JUMPDEST PUSH1 0x20 DUP3 ADD SWAP1 POP SWAP2 SWAP1 POP JUMP JUMPDEST PUSH0 PUSH1 0x20 DUP3 ADD SWAP1 POP DUP2 DUP2 SUB PUSH0 DUP4 ADD MSTORE PUSH2 0x826 DUP2 PUSH2 0x7ED JUMP JUMPDEST SWAP1 POP SWAP2 SWAP1 POP JUMP JUMPDEST PUSH32 0x43616E64696461746520616C7265616479206578697374732021000000000000 PUSH0 DUP3 ADD MSTORE POP JUMP JUMPDEST PUSH0 PUSH2 0x861 PUSH1 0x1A DUP4 PUSH2 0x7B5 JUMP JUMPDEST SWAP2 POP PUSH2 0x86C DUP3 PUSH2 0x82D JUMP JUMPDEST PUSH1 0x20 DUP3 ADD SWAP1 POP SWAP2 SWAP1 POP JUMP JUMPDEST PUSH0 PUSH1 0x20 DUP3 ADD SWAP1 POP DUP2 DUP2 SUB PUSH0 DUP4 ADD MSTORE PUSH2 0x88E DUP2 PUSH2 0x855 JUMP JUMPDEST SWAP1 POP SWAP2 SWAP1 POP JUMP JUMPDEST PUSH32 0x4E487B7100000000000000000000000000000000000000000000000000000000 PUSH0 MSTORE PUSH1 0x32 PUSH1 0x4 MSTORE PUSH1 0x24 PUSH0 REVERT JUMPDEST PUSH32 0x4E487B7100000000000000000000000000000000000000000000000000000000 PUSH0 MSTORE PUSH1 0x11 PUSH1 0x4 MSTORE PUSH1 0x24 PUSH0 REVERT JUMPDEST PUSH0 PUSH2 0x8F9 DUP3 PUSH2 0x776 JUMP JUMPDEST SWAP2 POP PUSH32 0xFFFFFFFFFFFFFFFFFFFFFFFFFFFFFFFFFFFFFFFFFFFFFFFFFFFFFFFFFFFFFFFF DUP3 SUB PUSH2 0x92B JUMPI PUSH2 0x92A PUSH2 0x8C2 JUMP JUMPDEST JUMPDEST PUSH1 0x1 DUP3 ADD SWAP1 POP SWAP2 SWAP1 POP JUMP JUMPDEST PUSH32 0x596F75206861766520616C726561647920766F74656420210000000000000000 PUSH0 DUP3 ADD MSTORE POP JUMP JUMPDEST PUSH0 PUSH2 0x96A PUSH1 0x18 DUP4 PUSH2 0x7B5 JUMP JUMPDEST SWAP2 POP PUSH2 0x975 DUP3 PUSH2 0x936 JUMP JUMPDEST PUSH1 0x20 DUP3 ADD SWAP1 POP SWAP2 SWAP1 POP JUMP JUMPDEST PUSH0 PUSH1 0x20 DUP3 ADD SWAP1 POP DUP2 DUP2 SUB PUSH0 DUP4 ADD MSTORE PUSH2 0x997 DUP2 PUSH2 0x95E JUMP JUMPDEST SWAP1 POP SWAP2 SWAP1 POP JUMP INVALID LOG2 PUSH5 0x6970667358 0x22 SLT KECCAK256 0xA5 CREATE PUSH32 0x73F47B7EE8D2B66A21877B7FA1C998B0A309B72A0CA462C53920C7824164736F PUSH13 0x63430008140033000000000000 "
				},
				"gasEstimates": {
					"creation": {
						"codeDepositCost": "503200",
						"executionCost": "24800",
						"totalCost": "528000"
					},
					"external": {
						"InsertCandidate(address)": "6923",
						"result()": "infinite",
						"vote(address)": "4790"
					},
					"internal": {
						"checkCandidate(address)": "2287",
						"checkVoted()": "2281"
					}
				},
				"methodIdentifiers": {
					"InsertCandidate(address)": "48a3a695",
					"result()": "65372147",
					"vote(address)": "6dd7d8ea"
				}
			},
			"storageLayout": {
				"storage": [
					{
						"astId": 3,
						"contract": "simpleVotingContract.sol:voting",
						"label": "owner",
						"offset": 0,
						"slot": "0",
						"type": "t_address"
					},
					{
						"astId": 7,
						"contract": "simpleVotingContract.sol:voting",
						"label": "candidateVotes",
						"offset": 0,
						"slot": "1",
						"type": "t_mapping(t_address,t_uint256)"
					},
					{
						"astId": 11,
						"contract": "simpleVotingContract.sol:voting",
						"label": "candidateExist",
						"offset": 0,
						"slot": "2",
						"type": "t_mapping(t_address,t_bool)"
					},
					{
						"astId": 15,
						"contract": "simpleVotingContract.sol:voting",
						"label": "votes",
						"offset": 0,
						"slot": "3",
						"type": "t_mapping(t_address,t_address)"
					},
					{
						"astId": 19,
						"contract": "simpleVotingContract.sol:voting",
						"label": "voterExist",
						"offset": 0,
						"slot": "4",
						"type": "t_mapping(t_address,t_bool)"
					},
					{
						"astId": 22,
						"contract": "simpleVotingContract.sol:voting",
						"label": "candidates",
						"offset": 0,
						"slot": "5",
						"type": "t_array(t_address)dyn_storage"
					}
				],
				"types": {
					"t_address": {
						"encoding": "inplace",
						"label": "address",
						"numberOfBytes": "20"
					},
					"t_array(t_address)dyn_storage": {
						"base": "t_address",
						"encoding": "dynamic_array",
						"label": "address[]",
						"numberOfBytes": "32"
					},
					"t_bool": {
						"encoding": "inplace",
						"label": "bool",
						"numberOfBytes": "1"
					},
					"t_mapping(t_address,t_address)": {
						"encoding": "mapping",
						"key": "t_address",
						"label": "mapping(address => address)",
						"numberOfBytes": "32",
						"value": "t_address"
					},
					"t_mapping(t_address,t_bool)": {
						"encoding": "mapping",
						"key": "t_address",
						"label": "mapping(address => bool)",
						"numberOfBytes": "32",
						"value": "t_bool"
					},
					"t_mapping(t_address,t_uint256)": {
						"encoding": "mapping",
						"key": "t_address",
						"label": "mapping(address => uint256)",
						"numberOfBytes": "32",
						"value": "t_uint256"
					},
					"t_uint256": {
						"encoding": "inplace",
						"label": "uint256",
						"numberOfBytes": "32"
					}
				}
			},
			"userdoc": {
				"kind": "user",
				"methods": {},
				"version": 1
			}
		}
	}
}