{
	"CoinFlip.sol": {
		"CoinFlip": {
			"abi": [
				{
					"inputs": [],
					"name": "FlipCoin",
					"outputs": [],
					"stateMutability": "nonpayable",
					"type": "function"
				},
				{
					"inputs": [],
					"name": "SeeResult",
					"outputs": [
						{
							"internalType": "string",
							"name": "",
							"type": "string"
						}
					],
					"stateMutability": "view",
					"type": "function"
				}
			],
			"devdoc": {
				"kind": "dev",
				"methods": {},
				"version": 1
			},
			"evm": {
				"assembly": "    /* \"CoinFlip.sol\":139:794  contract CoinFlip{... */\n  mstore(0x40, 0x80)\n    /* \"CoinFlip.sol\":162:200  string Side = \"Coin not flipped yet !\" */\n  mload(0x40)\n  dup1\n  0x40\n  add\n  0x40\n  mstore\n  dup1\n  0x16\n  dup2\n  mstore\n  0x20\n  add\n  0x436f696e206e6f7420666c697070656420796574202100000000000000000000\n  dup2\n  mstore\n  pop\n  0x00\n  swap1\n  dup2\n  tag_1\n  swap2\n  swap1\n  tag_2\n  jump\t// in\ntag_1:\n  pop\n    /* \"CoinFlip.sol\":235:237  37 */\n  0x25\n    /* \"CoinFlip.sol\":206:237  uint private secreatNumber = 37 */\n  0x01\n  sstore\n    /* \"CoinFlip.sol\":139:794  contract CoinFlip{... */\n  callvalue\n  dup1\n  iszero\n  tag_3\n  jumpi\n  0x00\n  dup1\n  revert\ntag_3:\n  pop\n  jump(tag_4)\n    /* \"#utility.yul\":7:106   */\ntag_5:\n    /* \"#utility.yul\":59:65   */\n  0x00\n    /* \"#utility.yul\":93:98   */\n  dup2\n    /* \"#utility.yul\":87:99   */\n  mload\n    /* \"#utility.yul\":77:99   */\n  swap1\n  pop\n    /* \"#utility.yul\":7:106   */\n  swap2\n  swap1\n  pop\n  jump\t// out\n    /* \"#utility.yul\":112:292   */\ntag_6:\n    /* \"#utility.yul\":160:237   */\n  0x4e487b7100000000000000000000000000000000000000000000000000000000\n    /* \"#utility.yul\":157:158   */\n  0x00\n    /* \"#utility.yul\":150:238   */\n  mstore\n    /* \"#utility.yul\":257:261   */\n  0x41\n    /* \"#utility.yul\":254:255   */\n  0x04\n    /* \"#utility.yul\":247:262   */\n  mstore\n    /* \"#utility.yul\":281:285   */\n  0x24\n    /* \"#utility.yul\":278:279   */\n  0x00\n    /* \"#utility.yul\":271:286   */\n  revert\n    /* \"#utility.yul\":298:478   */\ntag_7:\n    /* \"#utility.yul\":346:423   */\n  0x4e487b7100000000000000000000000000000000000000000000000000000000\n    /* \"#utility.yul\":343:344   */\n  0x00\n    /* \"#utility.yul\":336:424   */\n  mstore\n    /* \"#utility.yul\":443:447   */\n  0x22\n    /* \"#utility.yul\":440:441   */\n  0x04\n    /* \"#utility.yul\":433:448   */\n  mstore\n    /* \"#utility.yul\":467:471   */\n  0x24\n    /* \"#utility.yul\":464:465   */\n  0x00\n    /* \"#utility.yul\":457:472   */\n  revert\n    /* \"#utility.yul\":484:804   */\ntag_8:\n    /* \"#utility.yul\":528:534   */\n  0x00\n    /* \"#utility.yul\":565:566   */\n  0x02\n    /* \"#utility.yul\":559:563   */\n  dup3\n    /* \"#utility.yul\":555:567   */\n  div\n    /* \"#utility.yul\":545:567   */\n  swap1\n  pop\n    /* \"#utility.yul\":612:613   */\n  0x01\n    /* \"#utility.yul\":606:610   */\n  dup3\n    /* \"#utility.yul\":602:614   */\n  and\n    /* \"#utility.yul\":633:651   */\n  dup1\n    /* \"#utility.yul\":623:704   */\n  tag_30\n  jumpi\n    /* \"#utility.yul\":689:693   */\n  0x7f\n    /* \"#utility.yul\":681:687   */\n  dup3\n    /* \"#utility.yul\":677:694   */\n  and\n    /* \"#utility.yul\":667:694   */\n  swap2\n  pop\n    /* \"#utility.yul\":623:704   */\ntag_30:\n    /* \"#utility.yul\":751:753   */\n  0x20\n    /* \"#utility.yul\":743:749   */\n  dup3\n    /* \"#utility.yul\":740:754   */\n  lt\n    /* \"#utility.yul\":720:738   */\n  dup2\n    /* \"#utility.yul\":717:755   */\n  sub\n    /* \"#utility.yul\":714:798   */\n  tag_31\n  jumpi\n    /* \"#utility.yul\":770:788   */\n  tag_32\n  tag_7\n  jump\t// in\ntag_32:\n    /* \"#utility.yul\":714:798   */\ntag_31:\n    /* \"#utility.yul\":535:804   */\n  pop\n    /* \"#utility.yul\":484:804   */\n  swap2\n  swap1\n  pop\n  jump\t// out\n    /* \"#utility.yul\":810:951   */\ntag_9:\n    /* \"#utility.yul\":859:863   */\n  0x00\n    /* \"#utility.yul\":882:885   */\n  dup2\n    /* \"#utility.yul\":874:885   */\n  swap1\n  pop\n    /* \"#utility.yul\":905:908   */\n  dup2\n    /* \"#utility.yul\":902:903   */\n  0x00\n    /* \"#utility.yul\":895:909   */\n  mstore\n    /* \"#utility.yul\":939:943   */\n  0x20\n    /* \"#utility.yul\":936:937   */\n  0x00\n    /* \"#utility.yul\":926:944   */\n  keccak256\n    /* \"#utility.yul\":918:944   */\n  swap1\n  pop\n    /* \"#utility.yul\":810:951   */\n  swap2\n  swap1\n  pop\n  jump\t// out\n    /* \"#utility.yul\":957:1050   */\ntag_10:\n    /* \"#utility.yul\":994:1000   */\n  0x00\n    /* \"#utility.yul\":1041:1043   */\n  0x20\n    /* \"#utility.yul\":1036:1038   */\n  0x1f\n    /* \"#utility.yul\":1029:1034   */\n  dup4\n    /* \"#utility.yul\":1025:1039   */\n  add\n    /* \"#utility.yul\":1021:1044   */\n  div\n    /* \"#utility.yul\":1011:1044   */\n  swap1\n  pop\n    /* \"#utility.yul\":957:1050   */\n  swap2\n  swap1\n  pop\n  jump\t// out\n    /* \"#utility.yul\":1056:1163   */\ntag_11:\n    /* \"#utility.yul\":1100:1108   */\n  0x00\n    /* \"#utility.yul\":1150:1155   */\n  dup3\n    /* \"#utility.yul\":1144:1148   */\n  dup3\n    /* \"#utility.yul\":1140:1156   */\n  shl\n    /* \"#utility.yul\":1119:1156   */\n  swap1\n  pop\n    /* \"#utility.yul\":1056:1163   */\n  swap3\n  swap2\n  pop\n  pop\n  jump\t// out\n    /* \"#utility.yul\":1169:1562   */\ntag_12:\n    /* \"#utility.yul\":1238:1244   */\n  0x00\n    /* \"#utility.yul\":1288:1289   */\n  0x08\n    /* \"#utility.yul\":1276:1286   */\n  dup4\n    /* \"#utility.yul\":1272:1290   */\n  mul\n    /* \"#utility.yul\":1311:1408   */\n  tag_37\n    /* \"#utility.yul\":1341:1407   */\n  0xffffffffffffffffffffffffffffffffffffffffffffffffffffffffffffffff\n    /* \"#utility.yul\":1330:1339   */\n  dup3\n    /* \"#utility.yul\":1311:1408   */\n  tag_11\n  jump\t// in\ntag_37:\n    /* \"#utility.yul\":1429:1468   */\n  tag_38\n    /* \"#utility.yul\":1459:1467   */\n  dup7\n    /* \"#utility.yul\":1448:1457   */\n  dup4\n    /* \"#utility.yul\":1429:1468   */\n  tag_11\n  jump\t// in\ntag_38:\n    /* \"#utility.yul\":1417:1468   */\n  swap6\n  pop\n    /* \"#utility.yul\":1501:1505   */\n  dup1\n    /* \"#utility.yul\":1497:1506   */\n  not\n    /* \"#utility.yul\":1490:1495   */\n  dup5\n    /* \"#utility.yul\":1486:1507   */\n  and\n    /* \"#utility.yul\":1477:1507   */\n  swap4\n  pop\n    /* \"#utility.yul\":1550:1554   */\n  dup1\n    /* \"#utility.yul\":1540:1548   */\n  dup7\n    /* \"#utility.yul\":1536:1555   */\n  and\n    /* \"#utility.yul\":1529:1534   */\n  dup5\n    /* \"#utility.yul\":1526:1556   */\n  or\n    /* \"#utility.yul\":1516:1556   */\n  swap3\n  pop\n    /* \"#utility.yul\":1245:1562   */\n  pop\n  pop\n    /* \"#utility.yul\":1169:1562   */\n  swap4\n  swap3\n  pop\n  pop\n  pop\n  jump\t// out\n    /* \"#utility.yul\":1568:1645   */\ntag_13:\n    /* \"#utility.yul\":1605:1612   */\n  0x00\n    /* \"#utility.yul\":1634:1639   */\n  dup2\n    /* \"#utility.yul\":1623:1639   */\n  swap1\n  pop\n    /* \"#utility.yul\":1568:1645   */\n  swap2\n  swap1\n  pop\n  jump\t// out\n    /* \"#utility.yul\":1651:1711   */\ntag_14:\n    /* \"#utility.yul\":1679:1682   */\n  0x00\n    /* \"#utility.yul\":1700:1705   */\n  dup2\n    /* \"#utility.yul\":1693:1705   */\n  swap1\n  pop\n    /* \"#utility.yul\":1651:1711   */\n  swap2\n  swap1\n  pop\n  jump\t// out\n    /* \"#utility.yul\":1717:1859   */\ntag_15:\n    /* \"#utility.yul\":1767:1776   */\n  0x00\n    /* \"#utility.yul\":1800:1853   */\n  tag_42\n    /* \"#utility.yul\":1818:1852   */\n  tag_43\n    /* \"#utility.yul\":1827:1851   */\n  tag_44\n    /* \"#utility.yul\":1845:1850   */\n  dup5\n    /* \"#utility.yul\":1827:1851   */\n  tag_13\n  jump\t// in\ntag_44:\n    /* \"#utility.yul\":1818:1852   */\n  tag_14\n  jump\t// in\ntag_43:\n    /* \"#utility.yul\":1800:1853   */\n  tag_13\n  jump\t// in\ntag_42:\n    /* \"#utility.yul\":1787:1853   */\n  swap1\n  pop\n    /* \"#utility.yul\":1717:1859   */\n  swap2\n  swap1\n  pop\n  jump\t// out\n    /* \"#utility.yul\":1865:1940   */\ntag_16:\n    /* \"#utility.yul\":1908:1911   */\n  0x00\n    /* \"#utility.yul\":1929:1934   */\n  dup2\n    /* \"#utility.yul\":1922:1934   */\n  swap1\n  pop\n    /* \"#utility.yul\":1865:1940   */\n  swap2\n  swap1\n  pop\n  jump\t// out\n    /* \"#utility.yul\":1946:2215   */\ntag_17:\n    /* \"#utility.yul\":2056:2095   */\n  tag_47\n    /* \"#utility.yul\":2087:2094   */\n  dup4\n    /* \"#utility.yul\":2056:2095   */\n  tag_15\n  jump\t// in\ntag_47:\n    /* \"#utility.yul\":2117:2208   */\n  tag_48\n    /* \"#utility.yul\":2166:2207   */\n  tag_49\n    /* \"#utility.yul\":2190:2206   */\n  dup3\n    /* \"#utility.yul\":2166:2207   */\n  tag_16\n  jump\t// in\ntag_49:\n    /* \"#utility.yul\":2158:2164   */\n  dup5\n    /* \"#utility.yul\":2151:2155   */\n  dup5\n    /* \"#utility.yul\":2145:2156   */\n  sload\n    /* \"#utility.yul\":2117:2208   */\n  tag_12\n  jump\t// in\ntag_48:\n    /* \"#utility.yul\":2111:2115   */\n  dup3\n    /* \"#utility.yul\":2104:2209   */\n  sstore\n    /* \"#utility.yul\":2022:2215   */\n  pop\n    /* \"#utility.yul\":1946:2215   */\n  pop\n  pop\n  pop\n  jump\t// out\n    /* \"#utility.yul\":2221:2294   */\ntag_18:\n    /* \"#utility.yul\":2266:2269   */\n  0x00\n    /* \"#utility.yul\":2221:2294   */\n  swap1\n  jump\t// out\n    /* \"#utility.yul\":2300:2489   */\ntag_19:\n    /* \"#utility.yul\":2377:2409   */\n  tag_52\n  tag_18\n  jump\t// in\ntag_52:\n    /* \"#utility.yul\":2418:2483   */\n  tag_53\n    /* \"#utility.yul\":2476:2482   */\n  dup2\n    /* \"#utility.yul\":2468:2474   */\n  dup5\n    /* \"#utility.yul\":2462:2466   */\n  dup5\n    /* \"#utility.yul\":2418:2483   */\n  tag_17\n  jump\t// in\ntag_53:\n    /* \"#utility.yul\":2353:2489   */\n  pop\n    /* \"#utility.yul\":2300:2489   */\n  pop\n  pop\n  jump\t// out\n    /* \"#utility.yul\":2495:2681   */\ntag_20:\n    /* \"#utility.yul\":2555:2675   */\ntag_55:\n    /* \"#utility.yul\":2572:2575   */\n  dup2\n    /* \"#utility.yul\":2565:2570   */\n  dup2\n    /* \"#utility.yul\":2562:2576   */\n  lt\n    /* \"#utility.yul\":2555:2675   */\n  iszero\n  tag_57\n  jumpi\n    /* \"#utility.yul\":2626:2665   */\n  tag_58\n    /* \"#utility.yul\":2663:2664   */\n  0x00\n    /* \"#utility.yul\":2656:2661   */\n  dup3\n    /* \"#utility.yul\":2626:2665   */\n  tag_19\n  jump\t// in\ntag_58:\n    /* \"#utility.yul\":2599:2600   */\n  0x01\n    /* \"#utility.yul\":2592:2597   */\n  dup2\n    /* \"#utility.yul\":2588:2601   */\n  add\n    /* \"#utility.yul\":2579:2601   */\n  swap1\n  pop\n    /* \"#utility.yul\":2555:2675   */\n  jump(tag_55)\ntag_57:\n    /* \"#utility.yul\":2495:2681   */\n  pop\n  pop\n  jump\t// out\n    /* \"#utility.yul\":2687:3230   */\ntag_21:\n    /* \"#utility.yul\":2788:2790   */\n  0x1f\n    /* \"#utility.yul\":2783:2786   */\n  dup3\n    /* \"#utility.yul\":2780:2791   */\n  gt\n    /* \"#utility.yul\":2777:3223   */\n  iszero\n  tag_60\n  jumpi\n    /* \"#utility.yul\":2822:2860   */\n  tag_61\n    /* \"#utility.yul\":2854:2859   */\n  dup2\n    /* \"#utility.yul\":2822:2860   */\n  tag_9\n  jump\t// in\ntag_61:\n    /* \"#utility.yul\":2906:2935   */\n  tag_62\n    /* \"#utility.yul\":2924:2934   */\n  dup5\n    /* \"#utility.yul\":2906:2935   */\n  tag_10\n  jump\t// in\ntag_62:\n    /* \"#utility.yul\":2896:2904   */\n  dup2\n    /* \"#utility.yul\":2892:2936   */\n  add\n    /* \"#utility.yul\":3089:3091   */\n  0x20\n    /* \"#utility.yul\":3077:3087   */\n  dup6\n    /* \"#utility.yul\":3074:3092   */\n  lt\n    /* \"#utility.yul\":3071:3120   */\n  iszero\n  tag_63\n  jumpi\n    /* \"#utility.yul\":3110:3118   */\n  dup2\n    /* \"#utility.yul\":3095:3118   */\n  swap1\n  pop\n    /* \"#utility.yul\":3071:3120   */\ntag_63:\n    /* \"#utility.yul\":3133:3213   */\n  tag_64\n    /* \"#utility.yul\":3189:3211   */\n  tag_65\n    /* \"#utility.yul\":3207:3210   */\n  dup6\n    /* \"#utility.yul\":3189:3211   */\n  tag_10\n  jump\t// in\ntag_65:\n    /* \"#utility.yul\":3179:3187   */\n  dup4\n    /* \"#utility.yul\":3175:3212   */\n  add\n    /* \"#utility.yul\":3162:3173   */\n  dup3\n    /* \"#utility.yul\":3133:3213   */\n  tag_20\n  jump\t// in\ntag_64:\n    /* \"#utility.yul\":2792:3223   */\n  pop\n  pop\n    /* \"#utility.yul\":2777:3223   */\ntag_60:\n    /* \"#utility.yul\":2687:3230   */\n  pop\n  pop\n  pop\n  jump\t// out\n    /* \"#utility.yul\":3236:3353   */\ntag_22:\n    /* \"#utility.yul\":3290:3298   */\n  0x00\n    /* \"#utility.yul\":3340:3345   */\n  dup3\n    /* \"#utility.yul\":3334:3338   */\n  dup3\n    /* \"#utility.yul\":3330:3346   */\n  shr\n    /* \"#utility.yul\":3309:3346   */\n  swap1\n  pop\n    /* \"#utility.yul\":3236:3353   */\n  swap3\n  swap2\n  pop\n  pop\n  jump\t// out\n    /* \"#utility.yul\":3359:3528   */\ntag_23:\n    /* \"#utility.yul\":3403:3409   */\n  0x00\n    /* \"#utility.yul\":3436:3487   */\n  tag_68\n    /* \"#utility.yul\":3484:3485   */\n  0x00\n    /* \"#utility.yul\":3480:3486   */\n  not\n    /* \"#utility.yul\":3472:3477   */\n  dup5\n    /* \"#utility.yul\":3469:3470   */\n  0x08\n    /* \"#utility.yul\":3465:3478   */\n  mul\n    /* \"#utility.yul\":3436:3487   */\n  tag_22\n  jump\t// in\ntag_68:\n    /* \"#utility.yul\":3432:3488   */\n  not\n    /* \"#utility.yul\":3517:3521   */\n  dup1\n    /* \"#utility.yul\":3511:3515   */\n  dup4\n    /* \"#utility.yul\":3507:3522   */\n  and\n    /* \"#utility.yul\":3497:3522   */\n  swap2\n  pop\n    /* \"#utility.yul\":3410:3528   */\n  pop\n    /* \"#utility.yul\":3359:3528   */\n  swap3\n  swap2\n  pop\n  pop\n  jump\t// out\n    /* \"#utility.yul\":3533:3828   */\ntag_24:\n    /* \"#utility.yul\":3609:3613   */\n  0x00\n    /* \"#utility.yul\":3755:3784   */\n  tag_70\n    /* \"#utility.yul\":3780:3783   */\n  dup4\n    /* \"#utility.yul\":3774:3778   */\n  dup4\n    /* \"#utility.yul\":3755:3784   */\n  tag_23\n  jump\t// in\ntag_70:\n    /* \"#utility.yul\":3747:3784   */\n  swap2\n  pop\n    /* \"#utility.yul\":3817:3820   */\n  dup3\n    /* \"#utility.yul\":3814:3815   */\n  0x02\n    /* \"#utility.yul\":3810:3821   */\n  mul\n    /* \"#utility.yul\":3804:3808   */\n  dup3\n    /* \"#utility.yul\":3801:3822   */\n  or\n    /* \"#utility.yul\":3793:3822   */\n  swap1\n  pop\n    /* \"#utility.yul\":3533:3828   */\n  swap3\n  swap2\n  pop\n  pop\n  jump\t// out\n    /* \"#utility.yul\":3833:5228   */\ntag_2:\n    /* \"#utility.yul\":3950:3987   */\n  tag_72\n    /* \"#utility.yul\":3983:3986   */\n  dup3\n    /* \"#utility.yul\":3950:3987   */\n  tag_5\n  jump\t// in\ntag_72:\n    /* \"#utility.yul\":4052:4070   */\n  0xffffffffffffffff\n    /* \"#utility.yul\":4044:4050   */\n  dup2\n    /* \"#utility.yul\":4041:4071   */\n  gt\n    /* \"#utility.yul\":4038:4094   */\n  iszero\n  tag_73\n  jumpi\n    /* \"#utility.yul\":4074:4092   */\n  tag_74\n  tag_6\n  jump\t// in\ntag_74:\n    /* \"#utility.yul\":4038:4094   */\ntag_73:\n    /* \"#utility.yul\":4118:4156   */\n  tag_75\n    /* \"#utility.yul\":4150:4154   */\n  dup3\n    /* \"#utility.yul\":4144:4155   */\n  sload\n    /* \"#utility.yul\":4118:4156   */\n  tag_8\n  jump\t// in\ntag_75:\n    /* \"#utility.yul\":4203:4270   */\n  tag_76\n    /* \"#utility.yul\":4263:4269   */\n  dup3\n    /* \"#utility.yul\":4255:4261   */\n  dup3\n    /* \"#utility.yul\":4249:4253   */\n  dup6\n    /* \"#utility.yul\":4203:4270   */\n  tag_21\n  jump\t// in\ntag_76:\n    /* \"#utility.yul\":4297:4298   */\n  0x00\n    /* \"#utility.yul\":4321:4325   */\n  0x20\n    /* \"#utility.yul\":4308:4325   */\n  swap1\n  pop\n    /* \"#utility.yul\":4353:4355   */\n  0x1f\n    /* \"#utility.yul\":4345:4351   */\n  dup4\n    /* \"#utility.yul\":4342:4356   */\n  gt\n    /* \"#utility.yul\":4370:4371   */\n  0x01\n    /* \"#utility.yul\":4365:4983   */\n  dup2\n  eq\n  tag_78\n  jumpi\n    /* \"#utility.yul\":5027:5028   */\n  0x00\n    /* \"#utility.yul\":5044:5050   */\n  dup5\n    /* \"#utility.yul\":5041:5118   */\n  iszero\n  tag_79\n  jumpi\n    /* \"#utility.yul\":5093:5102   */\n  dup3\n    /* \"#utility.yul\":5088:5091   */\n  dup8\n    /* \"#utility.yul\":5084:5103   */\n  add\n    /* \"#utility.yul\":5078:5104   */\n  mload\n    /* \"#utility.yul\":5069:5104   */\n  swap1\n  pop\n    /* \"#utility.yul\":5041:5118   */\ntag_79:\n    /* \"#utility.yul\":5144:5211   */\n  tag_80\n    /* \"#utility.yul\":5204:5210   */\n  dup6\n    /* \"#utility.yul\":5197:5202   */\n  dup3\n    /* \"#utility.yul\":5144:5211   */\n  tag_24\n  jump\t// in\ntag_80:\n    /* \"#utility.yul\":5138:5142   */\n  dup7\n    /* \"#utility.yul\":5131:5212   */\n  sstore\n    /* \"#utility.yul\":5000:5222   */\n  pop\n    /* \"#utility.yul\":4335:5222   */\n  jump(tag_77)\n    /* \"#utility.yul\":4365:4983   */\ntag_78:\n    /* \"#utility.yul\":4417:4421   */\n  0x1f\n    /* \"#utility.yul\":4413:4422   */\n  not\n    /* \"#utility.yul\":4405:4411   */\n  dup5\n    /* \"#utility.yul\":4401:4423   */\n  and\n    /* \"#utility.yul\":4451:4488   */\n  tag_81\n    /* \"#utility.yul\":4483:4487   */\n  dup7\n    /* \"#utility.yul\":4451:4488   */\n  tag_9\n  jump\t// in\ntag_81:\n    /* \"#utility.yul\":4510:4511   */\n  0x00\n    /* \"#utility.yul\":4524:4732   */\ntag_82:\n    /* \"#utility.yul\":4538:4545   */\n  dup3\n    /* \"#utility.yul\":4535:4536   */\n  dup2\n    /* \"#utility.yul\":4532:4546   */\n  lt\n    /* \"#utility.yul\":4524:4732   */\n  iszero\n  tag_84\n  jumpi\n    /* \"#utility.yul\":4617:4626   */\n  dup5\n    /* \"#utility.yul\":4612:4615   */\n  dup10\n    /* \"#utility.yul\":4608:4627   */\n  add\n    /* \"#utility.yul\":4602:4628   */\n  mload\n    /* \"#utility.yul\":4594:4600   */\n  dup3\n    /* \"#utility.yul\":4587:4629   */\n  sstore\n    /* \"#utility.yul\":4668:4669   */\n  0x01\n    /* \"#utility.yul\":4660:4666   */\n  dup3\n    /* \"#utility.yul\":4656:4670   */\n  add\n    /* \"#utility.yul\":4646:4670   */\n  swap2\n  pop\n    /* \"#utility.yul\":4715:4717   */\n  0x20\n    /* \"#utility.yul\":4704:4713   */\n  dup6\n    /* \"#utility.yul\":4700:4718   */\n  add\n    /* \"#utility.yul\":4687:4718   */\n  swap5\n  pop\n    /* \"#utility.yul\":4561:4565   */\n  0x20\n    /* \"#utility.yul\":4558:4559   */\n  dup2\n    /* \"#utility.yul\":4554:4566   */\n  add\n    /* \"#utility.yul\":4549:4566   */\n  swap1\n  pop\n    /* \"#utility.yul\":4524:4732   */\n  jump(tag_82)\ntag_84:\n    /* \"#utility.yul\":4760:4766   */\n  dup7\n    /* \"#utility.yul\":4751:4758   */\n  dup4\n    /* \"#utility.yul\":4748:4767   */\n  lt\n    /* \"#utility.yul\":4745:4924   */\n  iszero\n  tag_85\n  jumpi\n    /* \"#utility.yul\":4818:4827   */\n  dup5\n    /* \"#utility.yul\":4813:4816   */\n  dup10\n    /* \"#utility.yul\":4809:4828   */\n  add\n    /* \"#utility.yul\":4803:4829   */\n  mload\n    /* \"#utility.yul\":4861:4909   */\n  tag_86\n    /* \"#utility.yul\":4903:4907   */\n  0x1f\n    /* \"#utility.yul\":4895:4901   */\n  dup10\n    /* \"#utility.yul\":4891:4908   */\n  and\n    /* \"#utility.yul\":4880:4889   */\n  dup3\n    /* \"#utility.yul\":4861:4909   */\n  tag_23\n  jump\t// in\ntag_86:\n    /* \"#utility.yul\":4853:4859   */\n  dup4\n    /* \"#utility.yul\":4846:4910   */\n  sstore\n    /* \"#utility.yul\":4768:4924   */\n  pop\n    /* \"#utility.yul\":4745:4924   */\ntag_85:\n    /* \"#utility.yul\":4970:4971   */\n  0x01\n    /* \"#utility.yul\":4966:4967   */\n  0x02\n    /* \"#utility.yul\":4958:4964   */\n  dup9\n    /* \"#utility.yul\":4954:4968   */\n  mul\n    /* \"#utility.yul\":4950:4972   */\n  add\n    /* \"#utility.yul\":4944:4948   */\n  dup9\n    /* \"#utility.yul\":4937:4973   */\n  sstore\n    /* \"#utility.yul\":4372:4983   */\n  pop\n  pop\n  pop\n    /* \"#utility.yul\":4335:5222   */\ntag_77:\n  pop\n    /* \"#utility.yul\":3925:5228   */\n  pop\n  pop\n  pop\n    /* \"#utility.yul\":3833:5228   */\n  pop\n  pop\n  jump\t// out\n    /* \"CoinFlip.sol\":139:794  contract CoinFlip{... */\ntag_4:\n  dataSize(sub_0)\n  dup1\n  dataOffset(sub_0)\n  0x00\n  codecopy\n  0x00\n  return\nstop\n\nsub_0: assembly {\n        /* \"CoinFlip.sol\":139:794  contract CoinFlip{... */\n      mstore(0x40, 0x80)\n      callvalue\n      dup1\n      iszero\n      tag_1\n      jumpi\n      0x00\n      dup1\n      revert\n    tag_1:\n      pop\n      jumpi(tag_2, lt(calldatasize, 0x04))\n      shr(0xe0, calldataload(0x00))\n      dup1\n      0x303a0025\n      eq\n      tag_3\n      jumpi\n      dup1\n      0x5ec470db\n      eq\n      tag_4\n      jumpi\n    tag_2:\n      0x00\n      dup1\n      revert\n        /* \"CoinFlip.sol\":558:703  function FlipCoin() public{... */\n    tag_3:\n      tag_5\n      tag_6\n      jump\t// in\n    tag_5:\n      stop\n        /* \"CoinFlip.sol\":709:792  function SeeResult() public view returns(string memory){... */\n    tag_4:\n      tag_7\n      tag_8\n      jump\t// in\n    tag_7:\n      mload(0x40)\n      tag_9\n      swap2\n      swap1\n      tag_10\n      jump\t// in\n    tag_9:\n      mload(0x40)\n      dup1\n      swap2\n      sub\n      swap1\n      return\n        /* \"CoinFlip.sol\":558:703  function FlipCoin() public{... */\n    tag_6:\n        /* \"CoinFlip.sol\":594:611  uint randomNumber */\n      0x00\n        /* \"CoinFlip.sol\":614:621  Logic() */\n      tag_12\n        /* \"CoinFlip.sol\":614:619  Logic */\n      tag_13\n        /* \"CoinFlip.sol\":614:621  Logic() */\n      jump\t// in\n    tag_12:\n        /* \"CoinFlip.sol\":594:621  uint randomNumber = Logic() */\n      swap1\n      pop\n        /* \"CoinFlip.sol\":652:653  0 */\n      0x00\n        /* \"CoinFlip.sol\":647:648  2 */\n      0x02\n        /* \"CoinFlip.sol\":634:646  randomNumber */\n      dup3\n        /* \"CoinFlip.sol\":634:648  randomNumber%2 */\n      tag_14\n      swap2\n      swap1\n      tag_15\n      jump\t// in\n    tag_14:\n        /* \"CoinFlip.sol\":634:653  randomNumber%2 == 0 */\n      sub\n        /* \"CoinFlip.sol\":631:696  if(randomNumber%2 == 0) Side = \"HEAD\";... */\n      tag_16\n      jumpi\n        /* \"CoinFlip.sol\":655:668  Side = \"HEAD\" */\n      mload(0x40)\n      dup1\n      0x40\n      add\n      0x40\n      mstore\n      dup1\n      0x04\n      dup2\n      mstore\n      0x20\n      add\n      0x4845414400000000000000000000000000000000000000000000000000000000\n      dup2\n      mstore\n      pop\n        /* \"CoinFlip.sol\":655:659  Side */\n      0x00\n        /* \"CoinFlip.sol\":655:668  Side = \"HEAD\" */\n      swap1\n      dup2\n      tag_17\n      swap2\n      swap1\n      tag_18\n      jump\t// in\n    tag_17:\n      pop\n        /* \"CoinFlip.sol\":631:696  if(randomNumber%2 == 0) Side = \"HEAD\";... */\n      jump(tag_19)\n    tag_16:\n        /* \"CoinFlip.sol\":683:696  Side = \"TAIL\" */\n      mload(0x40)\n      dup1\n      0x40\n      add\n      0x40\n      mstore\n      dup1\n      0x04\n      dup2\n      mstore\n      0x20\n      add\n      0x5441494c00000000000000000000000000000000000000000000000000000000\n      dup2\n      mstore\n      pop\n        /* \"CoinFlip.sol\":683:687  Side */\n      0x00\n        /* \"CoinFlip.sol\":683:696  Side = \"TAIL\" */\n      swap1\n      dup2\n      tag_20\n      swap2\n      swap1\n      tag_18\n      jump\t// in\n    tag_20:\n      pop\n        /* \"CoinFlip.sol\":631:696  if(randomNumber%2 == 0) Side = \"HEAD\";... */\n    tag_19:\n        /* \"CoinFlip.sol\":584:703  {... */\n      pop\n        /* \"CoinFlip.sol\":558:703  function FlipCoin() public{... */\n      jump\t// out\n        /* \"CoinFlip.sol\":709:792  function SeeResult() public view returns(string memory){... */\n    tag_8:\n        /* \"CoinFlip.sol\":750:763  string memory */\n      0x60\n        /* \"CoinFlip.sol\":781:785  Side */\n      0x00\n        /* \"CoinFlip.sol\":774:785  return Side */\n      dup1\n      sload\n      tag_22\n      swap1\n      tag_23\n      jump\t// in\n    tag_22:\n      dup1\n      0x1f\n      add\n      0x20\n      dup1\n      swap2\n      div\n      mul\n      0x20\n      add\n      mload(0x40)\n      swap1\n      dup2\n      add\n      0x40\n      mstore\n      dup1\n      swap3\n      swap2\n      swap1\n      dup2\n      dup2\n      mstore\n      0x20\n      add\n      dup3\n      dup1\n      sload\n      tag_24\n      swap1\n      tag_23\n      jump\t// in\n    tag_24:\n      dup1\n      iszero\n      tag_25\n      jumpi\n      dup1\n      0x1f\n      lt\n      tag_26\n      jumpi\n      0x0100\n      dup1\n      dup4\n      sload\n      div\n      mul\n      dup4\n      mstore\n      swap2\n      0x20\n      add\n      swap2\n      jump(tag_25)\n    tag_26:\n      dup3\n      add\n      swap2\n      swap1\n      0x00\n      mstore\n      keccak256(0x00, 0x20)\n      swap1\n    tag_27:\n      dup2\n      sload\n      dup2\n      mstore\n      swap1\n      0x01\n      add\n      swap1\n      0x20\n      add\n      dup1\n      dup4\n      gt\n      tag_27\n      jumpi\n      dup3\n      swap1\n      sub\n      0x1f\n      and\n      dup3\n      add\n      swap2\n    tag_25:\n      pop\n      pop\n      pop\n      pop\n      pop\n      swap1\n      pop\n        /* \"CoinFlip.sol\":709:792  function SeeResult() public view returns(string memory){... */\n      swap1\n      jump\t// out\n        /* \"CoinFlip.sol\":286:552  function Logic() private view returns(uint){... */\n    tag_13:\n        /* \"CoinFlip.sol\":324:328  uint */\n      0x00\n        /* \"CoinFlip.sol\":339:348  uint time */\n      dup1\n        /* \"CoinFlip.sol\":351:366  block.timestamp */\n      timestamp\n        /* \"CoinFlip.sol\":339:366  uint time = block.timestamp */\n      swap1\n      pop\n        /* \"CoinFlip.sol\":377:385  uint val */\n      0x00\n        /* \"CoinFlip.sol\":399:526  while(time > 0){... */\n    tag_29:\n        /* \"CoinFlip.sol\":412:413  0 */\n      0x00\n        /* \"CoinFlip.sol\":405:409  time */\n      dup3\n        /* \"CoinFlip.sol\":405:413  time > 0 */\n      gt\n        /* \"CoinFlip.sol\":399:526  while(time > 0){... */\n      iszero\n      tag_30\n      jumpi\n        /* \"CoinFlip.sol\":428:436  uint rem */\n      0x00\n        /* \"CoinFlip.sol\":444:446  10 */\n      0x0a\n        /* \"CoinFlip.sol\":439:443  time */\n      dup4\n        /* \"CoinFlip.sol\":439:446  time%10 */\n      tag_31\n      swap2\n      swap1\n      tag_15\n      jump\t// in\n    tag_31:\n        /* \"CoinFlip.sol\":428:446  uint rem = time%10 */\n      swap1\n      pop\n        /* \"CoinFlip.sol\":484:487  rem */\n      dup1\n        /* \"CoinFlip.sol\":470:483  secreatNumber */\n      sload(0x01)\n        /* \"CoinFlip.sol\":466:469  val */\n      dup4\n        /* \"CoinFlip.sol\":466:483  val*secreatNumber */\n      tag_32\n      swap2\n      swap1\n      tag_33\n      jump\t// in\n    tag_32:\n        /* \"CoinFlip.sol\":466:487  val*secreatNumber+rem */\n      tag_34\n      swap2\n      swap1\n      tag_35\n      jump\t// in\n    tag_34:\n        /* \"CoinFlip.sol\":460:487  val = val*secreatNumber+rem */\n      swap2\n      pop\n        /* \"CoinFlip.sol\":513:515  10 */\n      0x0a\n        /* \"CoinFlip.sol\":508:512  time */\n      dup4\n        /* \"CoinFlip.sol\":508:515  time/10 */\n      tag_36\n      swap2\n      swap1\n      tag_37\n      jump\t// in\n    tag_36:\n        /* \"CoinFlip.sol\":501:515  time = time/10 */\n      swap3\n      pop\n        /* \"CoinFlip.sol\":414:526  {... */\n      pop\n        /* \"CoinFlip.sol\":399:526  while(time > 0){... */\n      jump(tag_29)\n    tag_30:\n        /* \"CoinFlip.sol\":542:545  val */\n      dup1\n        /* \"CoinFlip.sol\":535:545  return val */\n      swap3\n      pop\n      pop\n      pop\n        /* \"CoinFlip.sol\":286:552  function Logic() private view returns(uint){... */\n      swap1\n      jump\t// out\n        /* \"#utility.yul\":7:106   */\n    tag_38:\n        /* \"#utility.yul\":59:65   */\n      0x00\n        /* \"#utility.yul\":93:98   */\n      dup2\n        /* \"#utility.yul\":87:99   */\n      mload\n        /* \"#utility.yul\":77:99   */\n      swap1\n      pop\n        /* \"#utility.yul\":7:106   */\n      swap2\n      swap1\n      pop\n      jump\t// out\n        /* \"#utility.yul\":112:281   */\n    tag_39:\n        /* \"#utility.yul\":196:207   */\n      0x00\n        /* \"#utility.yul\":230:236   */\n      dup3\n        /* \"#utility.yul\":225:228   */\n      dup3\n        /* \"#utility.yul\":218:237   */\n      mstore\n        /* \"#utility.yul\":270:274   */\n      0x20\n        /* \"#utility.yul\":265:268   */\n      dup3\n        /* \"#utility.yul\":261:275   */\n      add\n        /* \"#utility.yul\":246:275   */\n      swap1\n      pop\n        /* \"#utility.yul\":112:281   */\n      swap3\n      swap2\n      pop\n      pop\n      jump\t// out\n        /* \"#utility.yul\":287:533   */\n    tag_40:\n        /* \"#utility.yul\":368:369   */\n      0x00\n        /* \"#utility.yul\":378:491   */\n    tag_67:\n        /* \"#utility.yul\":392:398   */\n      dup4\n        /* \"#utility.yul\":389:390   */\n      dup2\n        /* \"#utility.yul\":386:399   */\n      lt\n        /* \"#utility.yul\":378:491   */\n      iszero\n      tag_69\n      jumpi\n        /* \"#utility.yul\":477:478   */\n      dup1\n        /* \"#utility.yul\":472:475   */\n      dup3\n        /* \"#utility.yul\":468:479   */\n      add\n        /* \"#utility.yul\":462:480   */\n      mload\n        /* \"#utility.yul\":458:459   */\n      dup2\n        /* \"#utility.yul\":453:456   */\n      dup5\n        /* \"#utility.yul\":449:460   */\n      add\n        /* \"#utility.yul\":442:481   */\n      mstore\n        /* \"#utility.yul\":414:416   */\n      0x20\n        /* \"#utility.yul\":411:412   */\n      dup2\n        /* \"#utility.yul\":407:417   */\n      add\n        /* \"#utility.yul\":402:417   */\n      swap1\n      pop\n        /* \"#utility.yul\":378:491   */\n      jump(tag_67)\n    tag_69:\n        /* \"#utility.yul\":525:526   */\n      0x00\n        /* \"#utility.yul\":516:522   */\n      dup5\n        /* \"#utility.yul\":511:514   */\n      dup5\n        /* \"#utility.yul\":507:523   */\n      add\n        /* \"#utility.yul\":500:527   */\n      mstore\n        /* \"#utility.yul\":349:533   */\n      pop\n        /* \"#utility.yul\":287:533   */\n      pop\n      pop\n      pop\n      jump\t// out\n        /* \"#utility.yul\":539:641   */\n    tag_41:\n        /* \"#utility.yul\":580:586   */\n      0x00\n        /* \"#utility.yul\":631:633   */\n      0x1f\n        /* \"#utility.yul\":627:634   */\n      not\n        /* \"#utility.yul\":622:624   */\n      0x1f\n        /* \"#utility.yul\":615:620   */\n      dup4\n        /* \"#utility.yul\":611:625   */\n      add\n        /* \"#utility.yul\":607:635   */\n      and\n        /* \"#utility.yul\":597:635   */\n      swap1\n      pop\n        /* \"#utility.yul\":539:641   */\n      swap2\n      swap1\n      pop\n      jump\t// out\n        /* \"#utility.yul\":647:1024   */\n    tag_42:\n        /* \"#utility.yul\":735:738   */\n      0x00\n        /* \"#utility.yul\":763:802   */\n      tag_72\n        /* \"#utility.yul\":796:801   */\n      dup3\n        /* \"#utility.yul\":763:802   */\n      tag_38\n      jump\t// in\n    tag_72:\n        /* \"#utility.yul\":818:889   */\n      tag_73\n        /* \"#utility.yul\":882:888   */\n      dup2\n        /* \"#utility.yul\":877:880   */\n      dup6\n        /* \"#utility.yul\":818:889   */\n      tag_39\n      jump\t// in\n    tag_73:\n        /* \"#utility.yul\":811:889   */\n      swap4\n      pop\n        /* \"#utility.yul\":898:963   */\n      tag_74\n        /* \"#utility.yul\":956:962   */\n      dup2\n        /* \"#utility.yul\":951:954   */\n      dup6\n        /* \"#utility.yul\":944:948   */\n      0x20\n        /* \"#utility.yul\":937:942   */\n      dup7\n        /* \"#utility.yul\":933:949   */\n      add\n        /* \"#utility.yul\":898:963   */\n      tag_40\n      jump\t// in\n    tag_74:\n        /* \"#utility.yul\":988:1017   */\n      tag_75\n        /* \"#utility.yul\":1010:1016   */\n      dup2\n        /* \"#utility.yul\":988:1017   */\n      tag_41\n      jump\t// in\n    tag_75:\n        /* \"#utility.yul\":983:986   */\n      dup5\n        /* \"#utility.yul\":979:1018   */\n      add\n        /* \"#utility.yul\":972:1018   */\n      swap2\n      pop\n        /* \"#utility.yul\":739:1024   */\n      pop\n        /* \"#utility.yul\":647:1024   */\n      swap3\n      swap2\n      pop\n      pop\n      jump\t// out\n        /* \"#utility.yul\":1030:1343   */\n    tag_10:\n        /* \"#utility.yul\":1143:1147   */\n      0x00\n        /* \"#utility.yul\":1181:1183   */\n      0x20\n        /* \"#utility.yul\":1170:1179   */\n      dup3\n        /* \"#utility.yul\":1166:1184   */\n      add\n        /* \"#utility.yul\":1158:1184   */\n      swap1\n      pop\n        /* \"#utility.yul\":1230:1239   */\n      dup2\n        /* \"#utility.yul\":1224:1228   */\n      dup2\n        /* \"#utility.yul\":1220:1240   */\n      sub\n        /* \"#utility.yul\":1216:1217   */\n      0x00\n        /* \"#utility.yul\":1205:1214   */\n      dup4\n        /* \"#utility.yul\":1201:1218   */\n      add\n        /* \"#utility.yul\":1194:1241   */\n      mstore\n        /* \"#utility.yul\":1258:1336   */\n      tag_77\n        /* \"#utility.yul\":1331:1335   */\n      dup2\n        /* \"#utility.yul\":1322:1328   */\n      dup5\n        /* \"#utility.yul\":1258:1336   */\n      tag_42\n      jump\t// in\n    tag_77:\n        /* \"#utility.yul\":1250:1336   */\n      swap1\n      pop\n        /* \"#utility.yul\":1030:1343   */\n      swap3\n      swap2\n      pop\n      pop\n      jump\t// out\n        /* \"#utility.yul\":1349:1426   */\n    tag_43:\n        /* \"#utility.yul\":1386:1393   */\n      0x00\n        /* \"#utility.yul\":1415:1420   */\n      dup2\n        /* \"#utility.yul\":1404:1420   */\n      swap1\n      pop\n        /* \"#utility.yul\":1349:1426   */\n      swap2\n      swap1\n      pop\n      jump\t// out\n        /* \"#utility.yul\":1432:1612   */\n    tag_44:\n        /* \"#utility.yul\":1480:1557   */\n      0x4e487b7100000000000000000000000000000000000000000000000000000000\n        /* \"#utility.yul\":1477:1478   */\n      0x00\n        /* \"#utility.yul\":1470:1558   */\n      mstore\n        /* \"#utility.yul\":1577:1581   */\n      0x12\n        /* \"#utility.yul\":1574:1575   */\n      0x04\n        /* \"#utility.yul\":1567:1582   */\n      mstore\n        /* \"#utility.yul\":1601:1605   */\n      0x24\n        /* \"#utility.yul\":1598:1599   */\n      0x00\n        /* \"#utility.yul\":1591:1606   */\n      revert\n        /* \"#utility.yul\":1618:1794   */\n    tag_15:\n        /* \"#utility.yul\":1650:1651   */\n      0x00\n        /* \"#utility.yul\":1667:1687   */\n      tag_81\n        /* \"#utility.yul\":1685:1686   */\n      dup3\n        /* \"#utility.yul\":1667:1687   */\n      tag_43\n      jump\t// in\n    tag_81:\n        /* \"#utility.yul\":1662:1687   */\n      swap2\n      pop\n        /* \"#utility.yul\":1701:1721   */\n      tag_82\n        /* \"#utility.yul\":1719:1720   */\n      dup4\n        /* \"#utility.yul\":1701:1721   */\n      tag_43\n      jump\t// in\n    tag_82:\n        /* \"#utility.yul\":1696:1721   */\n      swap3\n      pop\n        /* \"#utility.yul\":1740:1741   */\n      dup3\n        /* \"#utility.yul\":1730:1765   */\n      tag_83\n      jumpi\n        /* \"#utility.yul\":1745:1763   */\n      tag_84\n      tag_44\n      jump\t// in\n    tag_84:\n        /* \"#utility.yul\":1730:1765   */\n    tag_83:\n        /* \"#utility.yul\":1786:1787   */\n      dup3\n        /* \"#utility.yul\":1783:1784   */\n      dup3\n        /* \"#utility.yul\":1779:1788   */\n      mod\n        /* \"#utility.yul\":1774:1788   */\n      swap1\n      pop\n        /* \"#utility.yul\":1618:1794   */\n      swap3\n      swap2\n      pop\n      pop\n      jump\t// out\n        /* \"#utility.yul\":1800:1980   */\n    tag_45:\n        /* \"#utility.yul\":1848:1925   */\n      0x4e487b7100000000000000000000000000000000000000000000000000000000\n        /* \"#utility.yul\":1845:1846   */\n      0x00\n        /* \"#utility.yul\":1838:1926   */\n      mstore\n        /* \"#utility.yul\":1945:1949   */\n      0x41\n        /* \"#utility.yul\":1942:1943   */\n      0x04\n        /* \"#utility.yul\":1935:1950   */\n      mstore\n        /* \"#utility.yul\":1969:1973   */\n      0x24\n        /* \"#utility.yul\":1966:1967   */\n      0x00\n        /* \"#utility.yul\":1959:1974   */\n      revert\n        /* \"#utility.yul\":1986:2166   */\n    tag_46:\n        /* \"#utility.yul\":2034:2111   */\n      0x4e487b7100000000000000000000000000000000000000000000000000000000\n        /* \"#utility.yul\":2031:2032   */\n      0x00\n        /* \"#utility.yul\":2024:2112   */\n      mstore\n        /* \"#utility.yul\":2131:2135   */\n      0x22\n        /* \"#utility.yul\":2128:2129   */\n      0x04\n        /* \"#utility.yul\":2121:2136   */\n      mstore\n        /* \"#utility.yul\":2155:2159   */\n      0x24\n        /* \"#utility.yul\":2152:2153   */\n      0x00\n        /* \"#utility.yul\":2145:2160   */\n      revert\n        /* \"#utility.yul\":2172:2492   */\n    tag_23:\n        /* \"#utility.yul\":2216:2222   */\n      0x00\n        /* \"#utility.yul\":2253:2254   */\n      0x02\n        /* \"#utility.yul\":2247:2251   */\n      dup3\n        /* \"#utility.yul\":2243:2255   */\n      div\n        /* \"#utility.yul\":2233:2255   */\n      swap1\n      pop\n        /* \"#utility.yul\":2300:2301   */\n      0x01\n        /* \"#utility.yul\":2294:2298   */\n      dup3\n        /* \"#utility.yul\":2290:2302   */\n      and\n        /* \"#utility.yul\":2321:2339   */\n      dup1\n        /* \"#utility.yul\":2311:2392   */\n      tag_88\n      jumpi\n        /* \"#utility.yul\":2377:2381   */\n      0x7f\n        /* \"#utility.yul\":2369:2375   */\n      dup3\n        /* \"#utility.yul\":2365:2382   */\n      and\n        /* \"#utility.yul\":2355:2382   */\n      swap2\n      pop\n        /* \"#utility.yul\":2311:2392   */\n    tag_88:\n        /* \"#utility.yul\":2439:2441   */\n      0x20\n        /* \"#utility.yul\":2431:2437   */\n      dup3\n        /* \"#utility.yul\":2428:2442   */\n      lt\n        /* \"#utility.yul\":2408:2426   */\n      dup2\n        /* \"#utility.yul\":2405:2443   */\n      sub\n        /* \"#utility.yul\":2402:2486   */\n      tag_89\n      jumpi\n        /* \"#utility.yul\":2458:2476   */\n      tag_90\n      tag_46\n      jump\t// in\n    tag_90:\n        /* \"#utility.yul\":2402:2486   */\n    tag_89:\n        /* \"#utility.yul\":2223:2492   */\n      pop\n        /* \"#utility.yul\":2172:2492   */\n      swap2\n      swap1\n      pop\n      jump\t// out\n        /* \"#utility.yul\":2498:2639   */\n    tag_47:\n        /* \"#utility.yul\":2547:2551   */\n      0x00\n        /* \"#utility.yul\":2570:2573   */\n      dup2\n        /* \"#utility.yul\":2562:2573   */\n      swap1\n      pop\n        /* \"#utility.yul\":2593:2596   */\n      dup2\n        /* \"#utility.yul\":2590:2591   */\n      0x00\n        /* \"#utility.yul\":2583:2597   */\n      mstore\n        /* \"#utility.yul\":2627:2631   */\n      0x20\n        /* \"#utility.yul\":2624:2625   */\n      0x00\n        /* \"#utility.yul\":2614:2632   */\n      keccak256\n        /* \"#utility.yul\":2606:2632   */\n      swap1\n      pop\n        /* \"#utility.yul\":2498:2639   */\n      swap2\n      swap1\n      pop\n      jump\t// out\n        /* \"#utility.yul\":2645:2738   */\n    tag_48:\n        /* \"#utility.yul\":2682:2688   */\n      0x00\n        /* \"#utility.yul\":2729:2731   */\n      0x20\n        /* \"#utility.yul\":2724:2726   */\n      0x1f\n        /* \"#utility.yul\":2717:2722   */\n      dup4\n        /* \"#utility.yul\":2713:2727   */\n      add\n        /* \"#utility.yul\":2709:2732   */\n      div\n        /* \"#utility.yul\":2699:2732   */\n      swap1\n      pop\n        /* \"#utility.yul\":2645:2738   */\n      swap2\n      swap1\n      pop\n      jump\t// out\n        /* \"#utility.yul\":2744:2851   */\n    tag_49:\n        /* \"#utility.yul\":2788:2796   */\n      0x00\n        /* \"#utility.yul\":2838:2843   */\n      dup3\n        /* \"#utility.yul\":2832:2836   */\n      dup3\n        /* \"#utility.yul\":2828:2844   */\n      shl\n        /* \"#utility.yul\":2807:2844   */\n      swap1\n      pop\n        /* \"#utility.yul\":2744:2851   */\n      swap3\n      swap2\n      pop\n      pop\n      jump\t// out\n        /* \"#utility.yul\":2857:3250   */\n    tag_50:\n        /* \"#utility.yul\":2926:2932   */\n      0x00\n        /* \"#utility.yul\":2976:2977   */\n      0x08\n        /* \"#utility.yul\":2964:2974   */\n      dup4\n        /* \"#utility.yul\":2960:2978   */\n      mul\n        /* \"#utility.yul\":2999:3096   */\n      tag_95\n        /* \"#utility.yul\":3029:3095   */\n      0xffffffffffffffffffffffffffffffffffffffffffffffffffffffffffffffff\n        /* \"#utility.yul\":3018:3027   */\n      dup3\n        /* \"#utility.yul\":2999:3096   */\n      tag_49\n      jump\t// in\n    tag_95:\n        /* \"#utility.yul\":3117:3156   */\n      tag_96\n        /* \"#utility.yul\":3147:3155   */\n      dup7\n        /* \"#utility.yul\":3136:3145   */\n      dup4\n        /* \"#utility.yul\":3117:3156   */\n      tag_49\n      jump\t// in\n    tag_96:\n        /* \"#utility.yul\":3105:3156   */\n      swap6\n      pop\n        /* \"#utility.yul\":3189:3193   */\n      dup1\n        /* \"#utility.yul\":3185:3194   */\n      not\n        /* \"#utility.yul\":3178:3183   */\n      dup5\n        /* \"#utility.yul\":3174:3195   */\n      and\n        /* \"#utility.yul\":3165:3195   */\n      swap4\n      pop\n        /* \"#utility.yul\":3238:3242   */\n      dup1\n        /* \"#utility.yul\":3228:3236   */\n      dup7\n        /* \"#utility.yul\":3224:3243   */\n      and\n        /* \"#utility.yul\":3217:3222   */\n      dup5\n        /* \"#utility.yul\":3214:3244   */\n      or\n        /* \"#utility.yul\":3204:3244   */\n      swap3\n      pop\n        /* \"#utility.yul\":2933:3250   */\n      pop\n      pop\n        /* \"#utility.yul\":2857:3250   */\n      swap4\n      swap3\n      pop\n      pop\n      pop\n      jump\t// out\n        /* \"#utility.yul\":3256:3316   */\n    tag_51:\n        /* \"#utility.yul\":3284:3287   */\n      0x00\n        /* \"#utility.yul\":3305:3310   */\n      dup2\n        /* \"#utility.yul\":3298:3310   */\n      swap1\n      pop\n        /* \"#utility.yul\":3256:3316   */\n      swap2\n      swap1\n      pop\n      jump\t// out\n        /* \"#utility.yul\":3322:3464   */\n    tag_52:\n        /* \"#utility.yul\":3372:3381   */\n      0x00\n        /* \"#utility.yul\":3405:3458   */\n      tag_99\n        /* \"#utility.yul\":3423:3457   */\n      tag_100\n        /* \"#utility.yul\":3432:3456   */\n      tag_101\n        /* \"#utility.yul\":3450:3455   */\n      dup5\n        /* \"#utility.yul\":3432:3456   */\n      tag_43\n      jump\t// in\n    tag_101:\n        /* \"#utility.yul\":3423:3457   */\n      tag_51\n      jump\t// in\n    tag_100:\n        /* \"#utility.yul\":3405:3458   */\n      tag_43\n      jump\t// in\n    tag_99:\n        /* \"#utility.yul\":3392:3458   */\n      swap1\n      pop\n        /* \"#utility.yul\":3322:3464   */\n      swap2\n      swap1\n      pop\n      jump\t// out\n        /* \"#utility.yul\":3470:3545   */\n    tag_53:\n        /* \"#utility.yul\":3513:3516   */\n      0x00\n        /* \"#utility.yul\":3534:3539   */\n      dup2\n        /* \"#utility.yul\":3527:3539   */\n      swap1\n      pop\n        /* \"#utility.yul\":3470:3545   */\n      swap2\n      swap1\n      pop\n      jump\t// out\n        /* \"#utility.yul\":3551:3820   */\n    tag_54:\n        /* \"#utility.yul\":3661:3700   */\n      tag_104\n        /* \"#utility.yul\":3692:3699   */\n      dup4\n        /* \"#utility.yul\":3661:3700   */\n      tag_52\n      jump\t// in\n    tag_104:\n        /* \"#utility.yul\":3722:3813   */\n      tag_105\n        /* \"#utility.yul\":3771:3812   */\n      tag_106\n        /* \"#utility.yul\":3795:3811   */\n      dup3\n        /* \"#utility.yul\":3771:3812   */\n      tag_53\n      jump\t// in\n    tag_106:\n        /* \"#utility.yul\":3763:3769   */\n      dup5\n        /* \"#utility.yul\":3756:3760   */\n      dup5\n        /* \"#utility.yul\":3750:3761   */\n      sload\n        /* \"#utility.yul\":3722:3813   */\n      tag_50\n      jump\t// in\n    tag_105:\n        /* \"#utility.yul\":3716:3720   */\n      dup3\n        /* \"#utility.yul\":3709:3814   */\n      sstore\n        /* \"#utility.yul\":3627:3820   */\n      pop\n        /* \"#utility.yul\":3551:3820   */\n      pop\n      pop\n      pop\n      jump\t// out\n        /* \"#utility.yul\":3826:3899   */\n    tag_55:\n        /* \"#utility.yul\":3871:3874   */\n      0x00\n        /* \"#utility.yul\":3826:3899   */\n      swap1\n      jump\t// out\n        /* \"#utility.yul\":3905:4094   */\n    tag_56:\n        /* \"#utility.yul\":3982:4014   */\n      tag_109\n      tag_55\n      jump\t// in\n    tag_109:\n        /* \"#utility.yul\":4023:4088   */\n      tag_110\n        /* \"#utility.yul\":4081:4087   */\n      dup2\n        /* \"#utility.yul\":4073:4079   */\n      dup5\n        /* \"#utility.yul\":4067:4071   */\n      dup5\n        /* \"#utility.yul\":4023:4088   */\n      tag_54\n      jump\t// in\n    tag_110:\n        /* \"#utility.yul\":3958:4094   */\n      pop\n        /* \"#utility.yul\":3905:4094   */\n      pop\n      pop\n      jump\t// out\n        /* \"#utility.yul\":4100:4286   */\n    tag_57:\n        /* \"#utility.yul\":4160:4280   */\n    tag_112:\n        /* \"#utility.yul\":4177:4180   */\n      dup2\n        /* \"#utility.yul\":4170:4175   */\n      dup2\n        /* \"#utility.yul\":4167:4181   */\n      lt\n        /* \"#utility.yul\":4160:4280   */\n      iszero\n      tag_114\n      jumpi\n        /* \"#utility.yul\":4231:4270   */\n      tag_115\n        /* \"#utility.yul\":4268:4269   */\n      0x00\n        /* \"#utility.yul\":4261:4266   */\n      dup3\n        /* \"#utility.yul\":4231:4270   */\n      tag_56\n      jump\t// in\n    tag_115:\n        /* \"#utility.yul\":4204:4205   */\n      0x01\n        /* \"#utility.yul\":4197:4202   */\n      dup2\n        /* \"#utility.yul\":4193:4206   */\n      add\n        /* \"#utility.yul\":4184:4206   */\n      swap1\n      pop\n        /* \"#utility.yul\":4160:4280   */\n      jump(tag_112)\n    tag_114:\n        /* \"#utility.yul\":4100:4286   */\n      pop\n      pop\n      jump\t// out\n        /* \"#utility.yul\":4292:4835   */\n    tag_58:\n        /* \"#utility.yul\":4393:4395   */\n      0x1f\n        /* \"#utility.yul\":4388:4391   */\n      dup3\n        /* \"#utility.yul\":4385:4396   */\n      gt\n        /* \"#utility.yul\":4382:4828   */\n      iszero\n      tag_117\n      jumpi\n        /* \"#utility.yul\":4427:4465   */\n      tag_118\n        /* \"#utility.yul\":4459:4464   */\n      dup2\n        /* \"#utility.yul\":4427:4465   */\n      tag_47\n      jump\t// in\n    tag_118:\n        /* \"#utility.yul\":4511:4540   */\n      tag_119\n        /* \"#utility.yul\":4529:4539   */\n      dup5\n        /* \"#utility.yul\":4511:4540   */\n      tag_48\n      jump\t// in\n    tag_119:\n        /* \"#utility.yul\":4501:4509   */\n      dup2\n        /* \"#utility.yul\":4497:4541   */\n      add\n        /* \"#utility.yul\":4694:4696   */\n      0x20\n        /* \"#utility.yul\":4682:4692   */\n      dup6\n        /* \"#utility.yul\":4679:4697   */\n      lt\n        /* \"#utility.yul\":4676:4725   */\n      iszero\n      tag_120\n      jumpi\n        /* \"#utility.yul\":4715:4723   */\n      dup2\n        /* \"#utility.yul\":4700:4723   */\n      swap1\n      pop\n        /* \"#utility.yul\":4676:4725   */\n    tag_120:\n        /* \"#utility.yul\":4738:4818   */\n      tag_121\n        /* \"#utility.yul\":4794:4816   */\n      tag_122\n        /* \"#utility.yul\":4812:4815   */\n      dup6\n        /* \"#utility.yul\":4794:4816   */\n      tag_48\n      jump\t// in\n    tag_122:\n        /* \"#utility.yul\":4784:4792   */\n      dup4\n        /* \"#utility.yul\":4780:4817   */\n      add\n        /* \"#utility.yul\":4767:4778   */\n      dup3\n        /* \"#utility.yul\":4738:4818   */\n      tag_57\n      jump\t// in\n    tag_121:\n        /* \"#utility.yul\":4397:4828   */\n      pop\n      pop\n        /* \"#utility.yul\":4382:4828   */\n    tag_117:\n        /* \"#utility.yul\":4292:4835   */\n      pop\n      pop\n      pop\n      jump\t// out\n        /* \"#utility.yul\":4841:4958   */\n    tag_59:\n        /* \"#utility.yul\":4895:4903   */\n      0x00\n        /* \"#utility.yul\":4945:4950   */\n      dup3\n        /* \"#utility.yul\":4939:4943   */\n      dup3\n        /* \"#utility.yul\":4935:4951   */\n      shr\n        /* \"#utility.yul\":4914:4951   */\n      swap1\n      pop\n        /* \"#utility.yul\":4841:4958   */\n      swap3\n      swap2\n      pop\n      pop\n      jump\t// out\n        /* \"#utility.yul\":4964:5133   */\n    tag_60:\n        /* \"#utility.yul\":5008:5014   */\n      0x00\n        /* \"#utility.yul\":5041:5092   */\n      tag_125\n        /* \"#utility.yul\":5089:5090   */\n      0x00\n        /* \"#utility.yul\":5085:5091   */\n      not\n        /* \"#utility.yul\":5077:5082   */\n      dup5\n        /* \"#utility.yul\":5074:5075   */\n      0x08\n        /* \"#utility.yul\":5070:5083   */\n      mul\n        /* \"#utility.yul\":5041:5092   */\n      tag_59\n      jump\t// in\n    tag_125:\n        /* \"#utility.yul\":5037:5093   */\n      not\n        /* \"#utility.yul\":5122:5126   */\n      dup1\n        /* \"#utility.yul\":5116:5120   */\n      dup4\n        /* \"#utility.yul\":5112:5127   */\n      and\n        /* \"#utility.yul\":5102:5127   */\n      swap2\n      pop\n        /* \"#utility.yul\":5015:5133   */\n      pop\n        /* \"#utility.yul\":4964:5133   */\n      swap3\n      swap2\n      pop\n      pop\n      jump\t// out\n        /* \"#utility.yul\":5138:5433   */\n    tag_61:\n        /* \"#utility.yul\":5214:5218   */\n      0x00\n        /* \"#utility.yul\":5360:5389   */\n      tag_127\n        /* \"#utility.yul\":5385:5388   */\n      dup4\n        /* \"#utility.yul\":5379:5383   */\n      dup4\n        /* \"#utility.yul\":5360:5389   */\n      tag_60\n      jump\t// in\n    tag_127:\n        /* \"#utility.yul\":5352:5389   */\n      swap2\n      pop\n        /* \"#utility.yul\":5422:5425   */\n      dup3\n        /* \"#utility.yul\":5419:5420   */\n      0x02\n        /* \"#utility.yul\":5415:5426   */\n      mul\n        /* \"#utility.yul\":5409:5413   */\n      dup3\n        /* \"#utility.yul\":5406:5427   */\n      or\n        /* \"#utility.yul\":5398:5427   */\n      swap1\n      pop\n        /* \"#utility.yul\":5138:5433   */\n      swap3\n      swap2\n      pop\n      pop\n      jump\t// out\n        /* \"#utility.yul\":5438:6833   */\n    tag_18:\n        /* \"#utility.yul\":5555:5592   */\n      tag_129\n        /* \"#utility.yul\":5588:5591   */\n      dup3\n        /* \"#utility.yul\":5555:5592   */\n      tag_38\n      jump\t// in\n    tag_129:\n        /* \"#utility.yul\":5657:5675   */\n      0xffffffffffffffff\n        /* \"#utility.yul\":5649:5655   */\n      dup2\n        /* \"#utility.yul\":5646:5676   */\n      gt\n        /* \"#utility.yul\":5643:5699   */\n      iszero\n      tag_130\n      jumpi\n        /* \"#utility.yul\":5679:5697   */\n      tag_131\n      tag_45\n      jump\t// in\n    tag_131:\n        /* \"#utility.yul\":5643:5699   */\n    tag_130:\n        /* \"#utility.yul\":5723:5761   */\n      tag_132\n        /* \"#utility.yul\":5755:5759   */\n      dup3\n        /* \"#utility.yul\":5749:5760   */\n      sload\n        /* \"#utility.yul\":5723:5761   */\n      tag_23\n      jump\t// in\n    tag_132:\n        /* \"#utility.yul\":5808:5875   */\n      tag_133\n        /* \"#utility.yul\":5868:5874   */\n      dup3\n        /* \"#utility.yul\":5860:5866   */\n      dup3\n        /* \"#utility.yul\":5854:5858   */\n      dup6\n        /* \"#utility.yul\":5808:5875   */\n      tag_58\n      jump\t// in\n    tag_133:\n        /* \"#utility.yul\":5902:5903   */\n      0x00\n        /* \"#utility.yul\":5926:5930   */\n      0x20\n        /* \"#utility.yul\":5913:5930   */\n      swap1\n      pop\n        /* \"#utility.yul\":5958:5960   */\n      0x1f\n        /* \"#utility.yul\":5950:5956   */\n      dup4\n        /* \"#utility.yul\":5947:5961   */\n      gt\n        /* \"#utility.yul\":5975:5976   */\n      0x01\n        /* \"#utility.yul\":5970:6588   */\n      dup2\n      eq\n      tag_135\n      jumpi\n        /* \"#utility.yul\":6632:6633   */\n      0x00\n        /* \"#utility.yul\":6649:6655   */\n      dup5\n        /* \"#utility.yul\":6646:6723   */\n      iszero\n      tag_136\n      jumpi\n        /* \"#utility.yul\":6698:6707   */\n      dup3\n        /* \"#utility.yul\":6693:6696   */\n      dup8\n        /* \"#utility.yul\":6689:6708   */\n      add\n        /* \"#utility.yul\":6683:6709   */\n      mload\n        /* \"#utility.yul\":6674:6709   */\n      swap1\n      pop\n        /* \"#utility.yul\":6646:6723   */\n    tag_136:\n        /* \"#utility.yul\":6749:6816   */\n      tag_137\n        /* \"#utility.yul\":6809:6815   */\n      dup6\n        /* \"#utility.yul\":6802:6807   */\n      dup3\n        /* \"#utility.yul\":6749:6816   */\n      tag_61\n      jump\t// in\n    tag_137:\n        /* \"#utility.yul\":6743:6747   */\n      dup7\n        /* \"#utility.yul\":6736:6817   */\n      sstore\n        /* \"#utility.yul\":6605:6827   */\n      pop\n        /* \"#utility.yul\":5940:6827   */\n      jump(tag_134)\n        /* \"#utility.yul\":5970:6588   */\n    tag_135:\n        /* \"#utility.yul\":6022:6026   */\n      0x1f\n        /* \"#utility.yul\":6018:6027   */\n      not\n        /* \"#utility.yul\":6010:6016   */\n      dup5\n        /* \"#utility.yul\":6006:6028   */\n      and\n        /* \"#utility.yul\":6056:6093   */\n      tag_138\n        /* \"#utility.yul\":6088:6092   */\n      dup7\n        /* \"#utility.yul\":6056:6093   */\n      tag_47\n      jump\t// in\n    tag_138:\n        /* \"#utility.yul\":6115:6116   */\n      0x00\n        /* \"#utility.yul\":6129:6337   */\n    tag_139:\n        /* \"#utility.yul\":6143:6150   */\n      dup3\n        /* \"#utility.yul\":6140:6141   */\n      dup2\n        /* \"#utility.yul\":6137:6151   */\n      lt\n        /* \"#utility.yul\":6129:6337   */\n      iszero\n      tag_141\n      jumpi\n        /* \"#utility.yul\":6222:6231   */\n      dup5\n        /* \"#utility.yul\":6217:6220   */\n      dup10\n        /* \"#utility.yul\":6213:6232   */\n      add\n        /* \"#utility.yul\":6207:6233   */\n      mload\n        /* \"#utility.yul\":6199:6205   */\n      dup3\n        /* \"#utility.yul\":6192:6234   */\n      sstore\n        /* \"#utility.yul\":6273:6274   */\n      0x01\n        /* \"#utility.yul\":6265:6271   */\n      dup3\n        /* \"#utility.yul\":6261:6275   */\n      add\n        /* \"#utility.yul\":6251:6275   */\n      swap2\n      pop\n        /* \"#utility.yul\":6320:6322   */\n      0x20\n        /* \"#utility.yul\":6309:6318   */\n      dup6\n        /* \"#utility.yul\":6305:6323   */\n      add\n        /* \"#utility.yul\":6292:6323   */\n      swap5\n      pop\n        /* \"#utility.yul\":6166:6170   */\n      0x20\n        /* \"#utility.yul\":6163:6164   */\n      dup2\n        /* \"#utility.yul\":6159:6171   */\n      add\n        /* \"#utility.yul\":6154:6171   */\n      swap1\n      pop\n        /* \"#utility.yul\":6129:6337   */\n      jump(tag_139)\n    tag_141:\n        /* \"#utility.yul\":6365:6371   */\n      dup7\n        /* \"#utility.yul\":6356:6363   */\n      dup4\n        /* \"#utility.yul\":6353:6372   */\n      lt\n        /* \"#utility.yul\":6350:6529   */\n      iszero\n      tag_142\n      jumpi\n        /* \"#utility.yul\":6423:6432   */\n      dup5\n        /* \"#utility.yul\":6418:6421   */\n      dup10\n        /* \"#utility.yul\":6414:6433   */\n      add\n        /* \"#utility.yul\":6408:6434   */\n      mload\n        /* \"#utility.yul\":6466:6514   */\n      tag_143\n        /* \"#utility.yul\":6508:6512   */\n      0x1f\n        /* \"#utility.yul\":6500:6506   */\n      dup10\n        /* \"#utility.yul\":6496:6513   */\n      and\n        /* \"#utility.yul\":6485:6494   */\n      dup3\n        /* \"#utility.yul\":6466:6514   */\n      tag_60\n      jump\t// in\n    tag_143:\n        /* \"#utility.yul\":6458:6464   */\n      dup4\n        /* \"#utility.yul\":6451:6515   */\n      sstore\n        /* \"#utility.yul\":6373:6529   */\n      pop\n        /* \"#utility.yul\":6350:6529   */\n    tag_142:\n        /* \"#utility.yul\":6575:6576   */\n      0x01\n        /* \"#utility.yul\":6571:6572   */\n      0x02\n        /* \"#utility.yul\":6563:6569   */\n      dup9\n        /* \"#utility.yul\":6559:6573   */\n      mul\n        /* \"#utility.yul\":6555:6577   */\n      add\n        /* \"#utility.yul\":6549:6553   */\n      dup9\n        /* \"#utility.yul\":6542:6578   */\n      sstore\n        /* \"#utility.yul\":5977:6588   */\n      pop\n      pop\n      pop\n        /* \"#utility.yul\":5940:6827   */\n    tag_134:\n      pop\n        /* \"#utility.yul\":5530:6833   */\n      pop\n      pop\n      pop\n        /* \"#utility.yul\":5438:6833   */\n      pop\n      pop\n      jump\t// out\n        /* \"#utility.yul\":6839:7019   */\n    tag_62:\n        /* \"#utility.yul\":6887:6964   */\n      0x4e487b7100000000000000000000000000000000000000000000000000000000\n        /* \"#utility.yul\":6884:6885   */\n      0x00\n        /* \"#utility.yul\":6877:6965   */\n      mstore\n        /* \"#utility.yul\":6984:6988   */\n      0x11\n        /* \"#utility.yul\":6981:6982   */\n      0x04\n        /* \"#utility.yul\":6974:6989   */\n      mstore\n        /* \"#utility.yul\":7008:7012   */\n      0x24\n        /* \"#utility.yul\":7005:7006   */\n      0x00\n        /* \"#utility.yul\":6998:7013   */\n      revert\n        /* \"#utility.yul\":7025:7435   */\n    tag_33:\n        /* \"#utility.yul\":7065:7072   */\n      0x00\n        /* \"#utility.yul\":7088:7108   */\n      tag_146\n        /* \"#utility.yul\":7106:7107   */\n      dup3\n        /* \"#utility.yul\":7088:7108   */\n      tag_43\n      jump\t// in\n    tag_146:\n        /* \"#utility.yul\":7083:7108   */\n      swap2\n      pop\n        /* \"#utility.yul\":7122:7142   */\n      tag_147\n        /* \"#utility.yul\":7140:7141   */\n      dup4\n        /* \"#utility.yul\":7122:7142   */\n      tag_43\n      jump\t// in\n    tag_147:\n        /* \"#utility.yul\":7117:7142   */\n      swap3\n      pop\n        /* \"#utility.yul\":7177:7178   */\n      dup3\n        /* \"#utility.yul\":7174:7175   */\n      dup3\n        /* \"#utility.yul\":7170:7179   */\n      mul\n        /* \"#utility.yul\":7199:7229   */\n      tag_148\n        /* \"#utility.yul\":7217:7228   */\n      dup2\n        /* \"#utility.yul\":7199:7229   */\n      tag_43\n      jump\t// in\n    tag_148:\n        /* \"#utility.yul\":7188:7229   */\n      swap2\n      pop\n        /* \"#utility.yul\":7378:7379   */\n      dup3\n        /* \"#utility.yul\":7369:7376   */\n      dup3\n        /* \"#utility.yul\":7365:7380   */\n      div\n        /* \"#utility.yul\":7362:7363   */\n      dup5\n        /* \"#utility.yul\":7359:7381   */\n      eq\n        /* \"#utility.yul\":7339:7340   */\n      dup4\n        /* \"#utility.yul\":7332:7341   */\n      iszero\n        /* \"#utility.yul\":7312:7395   */\n      or\n        /* \"#utility.yul\":7289:7428   */\n      tag_149\n      jumpi\n        /* \"#utility.yul\":7408:7426   */\n      tag_150\n      tag_62\n      jump\t// in\n    tag_150:\n        /* \"#utility.yul\":7289:7428   */\n    tag_149:\n        /* \"#utility.yul\":7073:7435   */\n      pop\n        /* \"#utility.yul\":7025:7435   */\n      swap3\n      swap2\n      pop\n      pop\n      jump\t// out\n        /* \"#utility.yul\":7441:7632   */\n    tag_35:\n        /* \"#utility.yul\":7481:7484   */\n      0x00\n        /* \"#utility.yul\":7500:7520   */\n      tag_152\n        /* \"#utility.yul\":7518:7519   */\n      dup3\n        /* \"#utility.yul\":7500:7520   */\n      tag_43\n      jump\t// in\n    tag_152:\n        /* \"#utility.yul\":7495:7520   */\n      swap2\n      pop\n        /* \"#utility.yul\":7534:7554   */\n      tag_153\n        /* \"#utility.yul\":7552:7553   */\n      dup4\n        /* \"#utility.yul\":7534:7554   */\n      tag_43\n      jump\t// in\n    tag_153:\n        /* \"#utility.yul\":7529:7554   */\n      swap3\n      pop\n        /* \"#utility.yul\":7577:7578   */\n      dup3\n        /* \"#utility.yul\":7574:7575   */\n      dup3\n        /* \"#utility.yul\":7570:7579   */\n      add\n        /* \"#utility.yul\":7563:7579   */\n      swap1\n      pop\n        /* \"#utility.yul\":7598:7601   */\n      dup1\n        /* \"#utility.yul\":7595:7596   */\n      dup3\n        /* \"#utility.yul\":7592:7602   */\n      gt\n        /* \"#utility.yul\":7589:7625   */\n      iszero\n      tag_154\n      jumpi\n        /* \"#utility.yul\":7605:7623   */\n      tag_155\n      tag_62\n      jump\t// in\n    tag_155:\n        /* \"#utility.yul\":7589:7625   */\n    tag_154:\n        /* \"#utility.yul\":7441:7632   */\n      swap3\n      swap2\n      pop\n      pop\n      jump\t// out\n        /* \"#utility.yul\":7638:7823   */\n    tag_37:\n        /* \"#utility.yul\":7678:7679   */\n      0x00\n        /* \"#utility.yul\":7695:7715   */\n      tag_157\n        /* \"#utility.yul\":7713:7714   */\n      dup3\n        /* \"#utility.yul\":7695:7715   */\n      tag_43\n      jump\t// in\n    tag_157:\n        /* \"#utility.yul\":7690:7715   */\n      swap2\n      pop\n        /* \"#utility.yul\":7729:7749   */\n      tag_158\n        /* \"#utility.yul\":7747:7748   */\n      dup4\n        /* \"#utility.yul\":7729:7749   */\n      tag_43\n      jump\t// in\n    tag_158:\n        /* \"#utility.yul\":7724:7749   */\n      swap3\n      pop\n        /* \"#utility.yul\":7768:7769   */\n      dup3\n        /* \"#utility.yul\":7758:7793   */\n      tag_159\n      jumpi\n        /* \"#utility.yul\":7773:7791   */\n      tag_160\n      tag_44\n      jump\t// in\n    tag_160:\n        /* \"#utility.yul\":7758:7793   */\n    tag_159:\n        /* \"#utility.yul\":7815:7816   */\n      dup3\n        /* \"#utility.yul\":7812:7813   */\n      dup3\n        /* \"#utility.yul\":7808:7817   */\n      div\n        /* \"#utility.yul\":7803:7817   */\n      swap1\n      pop\n        /* \"#utility.yul\":7638:7823   */\n      swap3\n      swap2\n      pop\n      pop\n      jump\t// out\n\n    auxdata: 0xa2646970667358221220930e5556c95367429d29f0546e0e67e464d7faff1a8436ceb93dbf8e97b2ceb264736f6c63430008140033\n}\n",
				"bytecode": {
					"linkReferences": {},
					"object": "60806040526040518060400160405280601681526020017f436f696e206e6f7420666c6970706564207965742021000000000000000000008152505f9081620000499190620002c6565b5060256001553480156200005b575f80fd5b50620003aa565b5f81519050919050565b7f4e487b71000000000000000000000000000000000000000000000000000000005f52604160045260245ffd5b7f4e487b71000000000000000000000000000000000000000000000000000000005f52602260045260245ffd5b5f6002820490506001821680620000de57607f821691505b602082108103620000f457620000f362000099565b5b50919050565b5f819050815f5260205f209050919050565b5f6020601f8301049050919050565b5f82821b905092915050565b5f60088302620001587fffffffffffffffffffffffffffffffffffffffffffffffffffffffffffffffff826200011b565b6200016486836200011b565b95508019841693508086168417925050509392505050565b5f819050919050565b5f819050919050565b5f620001ae620001a8620001a2846200017c565b62000185565b6200017c565b9050919050565b5f819050919050565b620001c9836200018e565b620001e1620001d882620001b5565b84845462000127565b825550505050565b5f90565b620001f7620001e9565b62000204818484620001be565b505050565b5b818110156200022b576200021f5f82620001ed565b6001810190506200020a565b5050565b601f8211156200027a576200024481620000fa565b6200024f846200010c565b810160208510156200025f578190505b620002776200026e856200010c565b83018262000209565b50505b505050565b5f82821c905092915050565b5f6200029c5f19846008026200027f565b1980831691505092915050565b5f620002b683836200028b565b9150826002028217905092915050565b620002d18262000062565b67ffffffffffffffff811115620002ed57620002ec6200006c565b5b620002f98254620000c6565b620003068282856200022f565b5f60209050601f8311600181146200033c575f841562000327578287015190505b620003338582620002a9565b865550620003a2565b601f1984166200034c86620000fa565b5f5b8281101562000375578489015182556001820191506020850194506020810190506200034e565b8683101562000395578489015162000391601f8916826200028b565b8355505b6001600288020188555050505b505050505050565b61070280620003b85f395ff3fe608060405234801561000f575f80fd5b5060043610610034575f3560e01c8063303a0025146100385780635ec470db14610042575b5f80fd5b610040610060565b005b61004a61010f565b604051610057919061027f565b60405180910390f35b5f61006961019e565b90505f60028261007991906102d5565b036100c7576040518060400160405280600481526020017f48454144000000000000000000000000000000000000000000000000000000008152505f90816100c1919061052c565b5061010c565b6040518060400160405280600481526020017f5441494c000000000000000000000000000000000000000000000000000000008152505f908161010a919061052c565b505b50565b60605f805461011d9061035f565b80601f01602080910402602001604051908101604052809291908181526020018280546101499061035f565b80156101945780601f1061016b57610100808354040283529160200191610194565b820191905f5260205f20905b81548152906001019060200180831161017757829003601f168201915b5050505050905090565b5f804290505f5b5f8211156101ed575f600a836101bb91906102d5565b905080600154836101cc9190610628565b6101d69190610669565b9150600a836101e5919061069c565b9250506101a5565b809250505090565b5f81519050919050565b5f82825260208201905092915050565b5f5b8381101561022c578082015181840152602081019050610211565b5f8484015250505050565b5f601f19601f8301169050919050565b5f610251826101f5565b61025b81856101ff565b935061026b81856020860161020f565b61027481610237565b840191505092915050565b5f6020820190508181035f8301526102978184610247565b905092915050565b5f819050919050565b7f4e487b71000000000000000000000000000000000000000000000000000000005f52601260045260245ffd5b5f6102df8261029f565b91506102ea8361029f565b9250826102fa576102f96102a8565b5b828206905092915050565b7f4e487b71000000000000000000000000000000000000000000000000000000005f52604160045260245ffd5b7f4e487b71000000000000000000000000000000000000000000000000000000005f52602260045260245ffd5b5f600282049050600182168061037657607f821691505b60208210810361038957610388610332565b5b50919050565b5f819050815f5260205f209050919050565b5f6020601f8301049050919050565b5f82821b905092915050565b5f600883026103eb7fffffffffffffffffffffffffffffffffffffffffffffffffffffffffffffffff826103b0565b6103f586836103b0565b95508019841693508086168417925050509392505050565b5f819050919050565b5f61043061042b6104268461029f565b61040d565b61029f565b9050919050565b5f819050919050565b61044983610416565b61045d61045582610437565b8484546103bc565b825550505050565b5f90565b610471610465565b61047c818484610440565b505050565b5b8181101561049f576104945f82610469565b600181019050610482565b5050565b601f8211156104e4576104b58161038f565b6104be846103a1565b810160208510156104cd578190505b6104e16104d9856103a1565b830182610481565b50505b505050565b5f82821c905092915050565b5f6105045f19846008026104e9565b1980831691505092915050565b5f61051c83836104f5565b9150826002028217905092915050565b610535826101f5565b67ffffffffffffffff81111561054e5761054d610305565b5b610558825461035f565b6105638282856104a3565b5f60209050601f831160018114610594575f8415610582578287015190505b61058c8582610511565b8655506105f3565b601f1984166105a28661038f565b5f5b828110156105c9578489015182556001820191506020850194506020810190506105a4565b868310156105e657848901516105e2601f8916826104f5565b8355505b6001600288020188555050505b505050505050565b7f4e487b71000000000000000000000000000000000000000000000000000000005f52601160045260245ffd5b5f6106328261029f565b915061063d8361029f565b925082820261064b8161029f565b91508282048414831517610662576106616105fb565b5b5092915050565b5f6106738261029f565b915061067e8361029f565b9250828201905080821115610696576106956105fb565b5b92915050565b5f6106a68261029f565b91506106b18361029f565b9250826106c1576106c06102a8565b5b82820490509291505056fea2646970667358221220930e5556c95367429d29f0546e0e67e464d7faff1a8436ceb93dbf8e97b2ceb264736f6c63430008140033",
					"opcodes": "PUSH1 0x80 PUSH1 0x40 MSTORE PUSH1 0x40 MLOAD DUP1 PUSH1 0x40 ADD PUSH1 0x40 MSTORE DUP1 PUSH1 0x16 DUP2 MSTORE PUSH1 0x20 ADD PUSH32 0x436F696E206E6F7420666C697070656420796574202100000000000000000000 DUP2 MSTORE POP PUSH0 SWAP1 DUP2 PUSH3 0x49 SWAP2 SWAP1 PUSH3 0x2C6 JUMP JUMPDEST POP PUSH1 0x25 PUSH1 0x1 SSTORE CALLVALUE DUP1 ISZERO PUSH3 0x5B JUMPI PUSH0 DUP1 REVERT JUMPDEST POP PUSH3 0x3AA JUMP JUMPDEST PUSH0 DUP2 MLOAD SWAP1 POP SWAP2 SWAP1 POP JUMP JUMPDEST PUSH32 0x4E487B7100000000000000000000000000000000000000000000000000000000 PUSH0 MSTORE PUSH1 0x41 PUSH1 0x4 MSTORE PUSH1 0x24 PUSH0 REVERT JUMPDEST PUSH32 0x4E487B7100000000000000000000000000000000000000000000000000000000 PUSH0 MSTORE PUSH1 0x22 PUSH1 0x4 MSTORE PUSH1 0x24 PUSH0 REVERT JUMPDEST PUSH0 PUSH1 0x2 DUP3 DIV SWAP1 POP PUSH1 0x1 DUP3 AND DUP1 PUSH3 0xDE JUMPI PUSH1 0x7F DUP3 AND SWAP2 POP JUMPDEST PUSH1 0x20 DUP3 LT DUP2 SUB PUSH3 0xF4 JUMPI PUSH3 0xF3 PUSH3 0x99 JUMP JUMPDEST JUMPDEST POP SWAP2 SWAP1 POP JUMP JUMPDEST PUSH0 DUP2 SWAP1 POP DUP2 PUSH0 MSTORE PUSH1 0x20 PUSH0 KECCAK256 SWAP1 POP SWAP2 SWAP1 POP JUMP JUMPDEST PUSH0 PUSH1 0x20 PUSH1 0x1F DUP4 ADD DIV SWAP1 POP SWAP2 SWAP1 POP JUMP JUMPDEST PUSH0 DUP3 DUP3 SHL SWAP1 POP SWAP3 SWAP2 POP POP JUMP JUMPDEST PUSH0 PUSH1 0x8 DUP4 MUL PUSH3 0x158 PUSH32 0xFFFFFFFFFFFFFFFFFFFFFFFFFFFFFFFFFFFFFFFFFFFFFFFFFFFFFFFFFFFFFFFF DUP3 PUSH3 0x11B JUMP JUMPDEST PUSH3 0x164 DUP7 DUP4 PUSH3 0x11B JUMP JUMPDEST SWAP6 POP DUP1 NOT DUP5 AND SWAP4 POP DUP1 DUP7 AND DUP5 OR SWAP3 POP POP POP SWAP4 SWAP3 POP POP POP JUMP JUMPDEST PUSH0 DUP2 SWAP1 POP SWAP2 SWAP1 POP JUMP JUMPDEST PUSH0 DUP2 SWAP1 POP SWAP2 SWAP1 POP JUMP JUMPDEST PUSH0 PUSH3 0x1AE PUSH3 0x1A8 PUSH3 0x1A2 DUP5 PUSH3 0x17C JUMP JUMPDEST PUSH3 0x185 JUMP JUMPDEST PUSH3 0x17C JUMP JUMPDEST SWAP1 POP SWAP2 SWAP1 POP JUMP JUMPDEST PUSH0 DUP2 SWAP1 POP SWAP2 SWAP1 POP JUMP JUMPDEST PUSH3 0x1C9 DUP4 PUSH3 0x18E JUMP JUMPDEST PUSH3 0x1E1 PUSH3 0x1D8 DUP3 PUSH3 0x1B5 JUMP JUMPDEST DUP5 DUP5 SLOAD PUSH3 0x127 JUMP JUMPDEST DUP3 SSTORE POP POP POP POP JUMP JUMPDEST PUSH0 SWAP1 JUMP JUMPDEST PUSH3 0x1F7 PUSH3 0x1E9 JUMP JUMPDEST PUSH3 0x204 DUP2 DUP5 DUP5 PUSH3 0x1BE JUMP JUMPDEST POP POP POP JUMP JUMPDEST JUMPDEST DUP2 DUP2 LT ISZERO PUSH3 0x22B JUMPI PUSH3 0x21F PUSH0 DUP3 PUSH3 0x1ED JUMP JUMPDEST PUSH1 0x1 DUP2 ADD SWAP1 POP PUSH3 0x20A JUMP JUMPDEST POP POP JUMP JUMPDEST PUSH1 0x1F DUP3 GT ISZERO PUSH3 0x27A JUMPI PUSH3 0x244 DUP2 PUSH3 0xFA JUMP JUMPDEST PUSH3 0x24F DUP5 PUSH3 0x10C JUMP JUMPDEST DUP2 ADD PUSH1 0x20 DUP6 LT ISZERO PUSH3 0x25F JUMPI DUP2 SWAP1 POP JUMPDEST PUSH3 0x277 PUSH3 0x26E DUP6 PUSH3 0x10C JUMP JUMPDEST DUP4 ADD DUP3 PUSH3 0x209 JUMP JUMPDEST POP POP JUMPDEST POP POP POP JUMP JUMPDEST PUSH0 DUP3 DUP3 SHR SWAP1 POP SWAP3 SWAP2 POP POP JUMP JUMPDEST PUSH0 PUSH3 0x29C PUSH0 NOT DUP5 PUSH1 0x8 MUL PUSH3 0x27F JUMP JUMPDEST NOT DUP1 DUP4 AND SWAP2 POP POP SWAP3 SWAP2 POP POP JUMP JUMPDEST PUSH0 PUSH3 0x2B6 DUP4 DUP4 PUSH3 0x28B JUMP JUMPDEST SWAP2 POP DUP3 PUSH1 0x2 MUL DUP3 OR SWAP1 POP SWAP3 SWAP2 POP POP JUMP JUMPDEST PUSH3 0x2D1 DUP3 PUSH3 0x62 JUMP JUMPDEST PUSH8 0xFFFFFFFFFFFFFFFF DUP2 GT ISZERO PUSH3 0x2ED JUMPI PUSH3 0x2EC PUSH3 0x6C JUMP JUMPDEST JUMPDEST PUSH3 0x2F9 DUP3 SLOAD PUSH3 0xC6 JUMP JUMPDEST PUSH3 0x306 DUP3 DUP3 DUP6 PUSH3 0x22F JUMP JUMPDEST PUSH0 PUSH1 0x20 SWAP1 POP PUSH1 0x1F DUP4 GT PUSH1 0x1 DUP2 EQ PUSH3 0x33C JUMPI PUSH0 DUP5 ISZERO PUSH3 0x327 JUMPI DUP3 DUP8 ADD MLOAD SWAP1 POP JUMPDEST PUSH3 0x333 DUP6 DUP3 PUSH3 0x2A9 JUMP JUMPDEST DUP7 SSTORE POP PUSH3 0x3A2 JUMP JUMPDEST PUSH1 0x1F NOT DUP5 AND PUSH3 0x34C DUP7 PUSH3 0xFA JUMP JUMPDEST PUSH0 JUMPDEST DUP3 DUP2 LT ISZERO PUSH3 0x375 JUMPI DUP5 DUP10 ADD MLOAD DUP3 SSTORE PUSH1 0x1 DUP3 ADD SWAP2 POP PUSH1 0x20 DUP6 ADD SWAP5 POP PUSH1 0x20 DUP2 ADD SWAP1 POP PUSH3 0x34E JUMP JUMPDEST DUP7 DUP4 LT ISZERO PUSH3 0x395 JUMPI DUP5 DUP10 ADD MLOAD PUSH3 0x391 PUSH1 0x1F DUP10 AND DUP3 PUSH3 0x28B JUMP JUMPDEST DUP4 SSTORE POP JUMPDEST PUSH1 0x1 PUSH1 0x2 DUP9 MUL ADD DUP9 SSTORE POP POP POP JUMPDEST POP POP POP POP POP POP JUMP JUMPDEST PUSH2 0x702 DUP1 PUSH3 0x3B8 PUSH0 CODECOPY PUSH0 RETURN INVALID PUSH1 0x80 PUSH1 0x40 MSTORE CALLVALUE DUP1 ISZERO PUSH2 0xF JUMPI PUSH0 DUP1 REVERT JUMPDEST POP PUSH1 0x4 CALLDATASIZE LT PUSH2 0x34 JUMPI PUSH0 CALLDATALOAD PUSH1 0xE0 SHR DUP1 PUSH4 0x303A0025 EQ PUSH2 0x38 JUMPI DUP1 PUSH4 0x5EC470DB EQ PUSH2 0x42 JUMPI JUMPDEST PUSH0 DUP1 REVERT JUMPDEST PUSH2 0x40 PUSH2 0x60 JUMP JUMPDEST STOP JUMPDEST PUSH2 0x4A PUSH2 0x10F JUMP JUMPDEST PUSH1 0x40 MLOAD PUSH2 0x57 SWAP2 SWAP1 PUSH2 0x27F JUMP JUMPDEST PUSH1 0x40 MLOAD DUP1 SWAP2 SUB SWAP1 RETURN JUMPDEST PUSH0 PUSH2 0x69 PUSH2 0x19E JUMP JUMPDEST SWAP1 POP PUSH0 PUSH1 0x2 DUP3 PUSH2 0x79 SWAP2 SWAP1 PUSH2 0x2D5 JUMP JUMPDEST SUB PUSH2 0xC7 JUMPI PUSH1 0x40 MLOAD DUP1 PUSH1 0x40 ADD PUSH1 0x40 MSTORE DUP1 PUSH1 0x4 DUP2 MSTORE PUSH1 0x20 ADD PUSH32 0x4845414400000000000000000000000000000000000000000000000000000000 DUP2 MSTORE POP PUSH0 SWAP1 DUP2 PUSH2 0xC1 SWAP2 SWAP1 PUSH2 0x52C JUMP JUMPDEST POP PUSH2 0x10C JUMP JUMPDEST PUSH1 0x40 MLOAD DUP1 PUSH1 0x40 ADD PUSH1 0x40 MSTORE DUP1 PUSH1 0x4 DUP2 MSTORE PUSH1 0x20 ADD PUSH32 0x5441494C00000000000000000000000000000000000000000000000000000000 DUP2 MSTORE POP PUSH0 SWAP1 DUP2 PUSH2 0x10A SWAP2 SWAP1 PUSH2 0x52C JUMP JUMPDEST POP JUMPDEST POP JUMP JUMPDEST PUSH1 0x60 PUSH0 DUP1 SLOAD PUSH2 0x11D SWAP1 PUSH2 0x35F JUMP JUMPDEST DUP1 PUSH1 0x1F ADD PUSH1 0x20 DUP1 SWAP2 DIV MUL PUSH1 0x20 ADD PUSH1 0x40 MLOAD SWAP1 DUP2 ADD PUSH1 0x40 MSTORE DUP1 SWAP3 SWAP2 SWAP1 DUP2 DUP2 MSTORE PUSH1 0x20 ADD DUP3 DUP1 SLOAD PUSH2 0x149 SWAP1 PUSH2 0x35F JUMP JUMPDEST DUP1 ISZERO PUSH2 0x194 JUMPI DUP1 PUSH1 0x1F LT PUSH2 0x16B JUMPI PUSH2 0x100 DUP1 DUP4 SLOAD DIV MUL DUP4 MSTORE SWAP2 PUSH1 0x20 ADD SWAP2 PUSH2 0x194 JUMP JUMPDEST DUP3 ADD SWAP2 SWAP1 PUSH0 MSTORE PUSH1 0x20 PUSH0 KECCAK256 SWAP1 JUMPDEST DUP2 SLOAD DUP2 MSTORE SWAP1 PUSH1 0x1 ADD SWAP1 PUSH1 0x20 ADD DUP1 DUP4 GT PUSH2 0x177 JUMPI DUP3 SWAP1 SUB PUSH1 0x1F AND DUP3 ADD SWAP2 JUMPDEST POP POP POP POP POP SWAP1 POP SWAP1 JUMP JUMPDEST PUSH0 DUP1 TIMESTAMP SWAP1 POP PUSH0 JUMPDEST PUSH0 DUP3 GT ISZERO PUSH2 0x1ED JUMPI PUSH0 PUSH1 0xA DUP4 PUSH2 0x1BB SWAP2 SWAP1 PUSH2 0x2D5 JUMP JUMPDEST SWAP1 POP DUP1 PUSH1 0x1 SLOAD DUP4 PUSH2 0x1CC SWAP2 SWAP1 PUSH2 0x628 JUMP JUMPDEST PUSH2 0x1D6 SWAP2 SWAP1 PUSH2 0x669 JUMP JUMPDEST SWAP2 POP PUSH1 0xA DUP4 PUSH2 0x1E5 SWAP2 SWAP1 PUSH2 0x69C JUMP JUMPDEST SWAP3 POP POP PUSH2 0x1A5 JUMP JUMPDEST DUP1 SWAP3 POP POP POP SWAP1 JUMP JUMPDEST PUSH0 DUP2 MLOAD SWAP1 POP SWAP2 SWAP1 POP JUMP JUMPDEST PUSH0 DUP3 DUP3 MSTORE PUSH1 0x20 DUP3 ADD SWAP1 POP SWAP3 SWAP2 POP POP JUMP JUMPDEST PUSH0 JUMPDEST DUP4 DUP2 LT ISZERO PUSH2 0x22C JUMPI DUP1 DUP3 ADD MLOAD DUP2 DUP5 ADD MSTORE PUSH1 0x20 DUP2 ADD SWAP1 POP PUSH2 0x211 JUMP JUMPDEST PUSH0 DUP5 DUP5 ADD MSTORE POP POP POP POP JUMP JUMPDEST PUSH0 PUSH1 0x1F NOT PUSH1 0x1F DUP4 ADD AND SWAP1 POP SWAP2 SWAP1 POP JUMP JUMPDEST PUSH0 PUSH2 0x251 DUP3 PUSH2 0x1F5 JUMP JUMPDEST PUSH2 0x25B DUP2 DUP6 PUSH2 0x1FF JUMP JUMPDEST SWAP4 POP PUSH2 0x26B DUP2 DUP6 PUSH1 0x20 DUP7 ADD PUSH2 0x20F JUMP JUMPDEST PUSH2 0x274 DUP2 PUSH2 0x237 JUMP JUMPDEST DUP5 ADD SWAP2 POP POP SWAP3 SWAP2 POP POP JUMP JUMPDEST PUSH0 PUSH1 0x20 DUP3 ADD SWAP1 POP DUP2 DUP2 SUB PUSH0 DUP4 ADD MSTORE PUSH2 0x297 DUP2 DUP5 PUSH2 0x247 JUMP JUMPDEST SWAP1 POP SWAP3 SWAP2 POP POP JUMP JUMPDEST PUSH0 DUP2 SWAP1 POP SWAP2 SWAP1 POP JUMP JUMPDEST PUSH32 0x4E487B7100000000000000000000000000000000000000000000000000000000 PUSH0 MSTORE PUSH1 0x12 PUSH1 0x4 MSTORE PUSH1 0x24 PUSH0 REVERT JUMPDEST PUSH0 PUSH2 0x2DF DUP3 PUSH2 0x29F JUMP JUMPDEST SWAP2 POP PUSH2 0x2EA DUP4 PUSH2 0x29F JUMP JUMPDEST SWAP3 POP DUP3 PUSH2 0x2FA JUMPI PUSH2 0x2F9 PUSH2 0x2A8 JUMP JUMPDEST JUMPDEST DUP3 DUP3 MOD SWAP1 POP SWAP3 SWAP2 POP POP JUMP JUMPDEST PUSH32 0x4E487B7100000000000000000000000000000000000000000000000000000000 PUSH0 MSTORE PUSH1 0x41 PUSH1 0x4 MSTORE PUSH1 0x24 PUSH0 REVERT JUMPDEST PUSH32 0x4E487B7100000000000000000000000000000000000000000000000000000000 PUSH0 MSTORE PUSH1 0x22 PUSH1 0x4 MSTORE PUSH1 0x24 PUSH0 REVERT JUMPDEST PUSH0 PUSH1 0x2 DUP3 DIV SWAP1 POP PUSH1 0x1 DUP3 AND DUP1 PUSH2 0x376 JUMPI PUSH1 0x7F DUP3 AND SWAP2 POP JUMPDEST PUSH1 0x20 DUP3 LT DUP2 SUB PUSH2 0x389 JUMPI PUSH2 0x388 PUSH2 0x332 JUMP JUMPDEST JUMPDEST POP SWAP2 SWAP1 POP JUMP JUMPDEST PUSH0 DUP2 SWAP1 POP DUP2 PUSH0 MSTORE PUSH1 0x20 PUSH0 KECCAK256 SWAP1 POP SWAP2 SWAP1 POP JUMP JUMPDEST PUSH0 PUSH1 0x20 PUSH1 0x1F DUP4 ADD DIV SWAP1 POP SWAP2 SWAP1 POP JUMP JUMPDEST PUSH0 DUP3 DUP3 SHL SWAP1 POP SWAP3 SWAP2 POP POP JUMP JUMPDEST PUSH0 PUSH1 0x8 DUP4 MUL PUSH2 0x3EB PUSH32 0xFFFFFFFFFFFFFFFFFFFFFFFFFFFFFFFFFFFFFFFFFFFFFFFFFFFFFFFFFFFFFFFF DUP3 PUSH2 0x3B0 JUMP JUMPDEST PUSH2 0x3F5 DUP7 DUP4 PUSH2 0x3B0 JUMP JUMPDEST SWAP6 POP DUP1 NOT DUP5 AND SWAP4 POP DUP1 DUP7 AND DUP5 OR SWAP3 POP POP POP SWAP4 SWAP3 POP POP POP JUMP JUMPDEST PUSH0 DUP2 SWAP1 POP SWAP2 SWAP1 POP JUMP JUMPDEST PUSH0 PUSH2 0x430 PUSH2 0x42B PUSH2 0x426 DUP5 PUSH2 0x29F JUMP JUMPDEST PUSH2 0x40D JUMP JUMPDEST PUSH2 0x29F JUMP JUMPDEST SWAP1 POP SWAP2 SWAP1 POP JUMP JUMPDEST PUSH0 DUP2 SWAP1 POP SWAP2 SWAP1 POP JUMP JUMPDEST PUSH2 0x449 DUP4 PUSH2 0x416 JUMP JUMPDEST PUSH2 0x45D PUSH2 0x455 DUP3 PUSH2 0x437 JUMP JUMPDEST DUP5 DUP5 SLOAD PUSH2 0x3BC JUMP JUMPDEST DUP3 SSTORE POP POP POP POP JUMP JUMPDEST PUSH0 SWAP1 JUMP JUMPDEST PUSH2 0x471 PUSH2 0x465 JUMP JUMPDEST PUSH2 0x47C DUP2 DUP5 DUP5 PUSH2 0x440 JUMP JUMPDEST POP POP POP JUMP JUMPDEST JUMPDEST DUP2 DUP2 LT ISZERO PUSH2 0x49F JUMPI PUSH2 0x494 PUSH0 DUP3 PUSH2 0x469 JUMP JUMPDEST PUSH1 0x1 DUP2 ADD SWAP1 POP PUSH2 0x482 JUMP JUMPDEST POP POP JUMP JUMPDEST PUSH1 0x1F DUP3 GT ISZERO PUSH2 0x4E4 JUMPI PUSH2 0x4B5 DUP2 PUSH2 0x38F JUMP JUMPDEST PUSH2 0x4BE DUP5 PUSH2 0x3A1 JUMP JUMPDEST DUP2 ADD PUSH1 0x20 DUP6 LT ISZERO PUSH2 0x4CD JUMPI DUP2 SWAP1 POP JUMPDEST PUSH2 0x4E1 PUSH2 0x4D9 DUP6 PUSH2 0x3A1 JUMP JUMPDEST DUP4 ADD DUP3 PUSH2 0x481 JUMP JUMPDEST POP POP JUMPDEST POP POP POP JUMP JUMPDEST PUSH0 DUP3 DUP3 SHR SWAP1 POP SWAP3 SWAP2 POP POP JUMP JUMPDEST PUSH0 PUSH2 0x504 PUSH0 NOT DUP5 PUSH1 0x8 MUL PUSH2 0x4E9 JUMP JUMPDEST NOT DUP1 DUP4 AND SWAP2 POP POP SWAP3 SWAP2 POP POP JUMP JUMPDEST PUSH0 PUSH2 0x51C DUP4 DUP4 PUSH2 0x4F5 JUMP JUMPDEST SWAP2 POP DUP3 PUSH1 0x2 MUL DUP3 OR SWAP1 POP SWAP3 SWAP2 POP POP JUMP JUMPDEST PUSH2 0x535 DUP3 PUSH2 0x1F5 JUMP JUMPDEST PUSH8 0xFFFFFFFFFFFFFFFF DUP2 GT ISZERO PUSH2 0x54E JUMPI PUSH2 0x54D PUSH2 0x305 JUMP JUMPDEST JUMPDEST PUSH2 0x558 DUP3 SLOAD PUSH2 0x35F JUMP JUMPDEST PUSH2 0x563 DUP3 DUP3 DUP6 PUSH2 0x4A3 JUMP JUMPDEST PUSH0 PUSH1 0x20 SWAP1 POP PUSH1 0x1F DUP4 GT PUSH1 0x1 DUP2 EQ PUSH2 0x594 JUMPI PUSH0 DUP5 ISZERO PUSH2 0x582 JUMPI DUP3 DUP8 ADD MLOAD SWAP1 POP JUMPDEST PUSH2 0x58C DUP6 DUP3 PUSH2 0x511 JUMP JUMPDEST DUP7 SSTORE POP PUSH2 0x5F3 JUMP JUMPDEST PUSH1 0x1F NOT DUP5 AND PUSH2 0x5A2 DUP7 PUSH2 0x38F JUMP JUMPDEST PUSH0 JUMPDEST DUP3 DUP2 LT ISZERO PUSH2 0x5C9 JUMPI DUP5 DUP10 ADD MLOAD DUP3 SSTORE PUSH1 0x1 DUP3 ADD SWAP2 POP PUSH1 0x20 DUP6 ADD SWAP5 POP PUSH1 0x20 DUP2 ADD SWAP1 POP PUSH2 0x5A4 JUMP JUMPDEST DUP7 DUP4 LT ISZERO PUSH2 0x5E6 JUMPI DUP5 DUP10 ADD MLOAD PUSH2 0x5E2 PUSH1 0x1F DUP10 AND DUP3 PUSH2 0x4F5 JUMP JUMPDEST DUP4 SSTORE POP JUMPDEST PUSH1 0x1 PUSH1 0x2 DUP9 MUL ADD DUP9 SSTORE POP POP POP JUMPDEST POP POP POP POP POP POP JUMP JUMPDEST PUSH32 0x4E487B7100000000000000000000000000000000000000000000000000000000 PUSH0 MSTORE PUSH1 0x11 PUSH1 0x4 MSTORE PUSH1 0x24 PUSH0 REVERT JUMPDEST PUSH0 PUSH2 0x632 DUP3 PUSH2 0x29F JUMP JUMPDEST SWAP2 POP PUSH2 0x63D DUP4 PUSH2 0x29F JUMP JUMPDEST SWAP3 POP DUP3 DUP3 MUL PUSH2 0x64B DUP2 PUSH2 0x29F JUMP JUMPDEST SWAP2 POP DUP3 DUP3 DIV DUP5 EQ DUP4 ISZERO OR PUSH2 0x662 JUMPI PUSH2 0x661 PUSH2 0x5FB JUMP JUMPDEST JUMPDEST POP SWAP3 SWAP2 POP POP JUMP JUMPDEST PUSH0 PUSH2 0x673 DUP3 PUSH2 0x29F JUMP JUMPDEST SWAP2 POP PUSH2 0x67E DUP4 PUSH2 0x29F JUMP JUMPDEST SWAP3 POP DUP3 DUP3 ADD SWAP1 POP DUP1 DUP3 GT ISZERO PUSH2 0x696 JUMPI PUSH2 0x695 PUSH2 0x5FB JUMP JUMPDEST JUMPDEST SWAP3 SWAP2 POP POP JUMP JUMPDEST PUSH0 PUSH2 0x6A6 DUP3 PUSH2 0x29F JUMP JUMPDEST SWAP2 POP PUSH2 0x6B1 DUP4 PUSH2 0x29F JUMP JUMPDEST SWAP3 POP DUP3 PUSH2 0x6C1 JUMPI PUSH2 0x6C0 PUSH2 0x2A8 JUMP JUMPDEST JUMPDEST DUP3 DUP3 DIV SWAP1 POP SWAP3 SWAP2 POP POP JUMP INVALID LOG2 PUSH5 0x6970667358 0x22 SLT KECCAK256 SWAP4 0xE SSTORE JUMP 0xC9 MSTORE8 PUSH8 0x429D29F0546E0E67 0xE4 PUSH5 0xD7FAFF1A84 CALLDATASIZE 0xCE 0xB9 RETURNDATASIZE 0xBF DUP15 SWAP8 0xB2 0xCE 0xB2 PUSH5 0x736F6C6343 STOP ADDMOD EQ STOP CALLER "
				},
				"gasEstimates": {
					"creation": {
						"codeDepositCost": "358800",
						"executionCost": "infinite",
						"totalCost": "infinite"
					},
					"external": {
						"FlipCoin()": "infinite",
						"SeeResult()": "infinite"
					},
					"internal": {
						"Logic()": "infinite"
					}
				},
				"methodIdentifiers": {
					"FlipCoin()": "303a0025",
					"SeeResult()": "5ec470db"
				}
			},
			"storageLayout": {
				"storage": [
					{
						"astId": 4,
						"contract": "CoinFlip.sol:CoinFlip",
						"label": "Side",
						"offset": 0,
						"slot": "0",
						"type": "t_string_storage"
					},
					{
						"astId": 7,
						"contract": "CoinFlip.sol:CoinFlip",
						"label": "secreatNumber",
						"offset": 0,
						"slot": "1",
						"type": "t_uint256"
					}
				],
				"types": {
					"t_string_storage": {
						"encoding": "bytes",
						"label": "string",
						"numberOfBytes": "32"
					},
					"t_uint256": {
						"encoding": "inplace",
						"label": "uint256",
						"numberOfBytes": "32"
					}
				}
			},
			"userdoc": {
				"kind": "user",
				"methods": {},
				"version": 1
			}
		}
	}
}