{
	"PaymentContract.sol": {
		"Demo": {
			"abi": [
				{
					"inputs": [],
					"name": "getBalence",
					"outputs": [
						{
							"internalType": "uint256",
							"name": "",
							"type": "uint256"
						}
					],
					"stateMutability": "view",
					"type": "function"
				},
				{
					"inputs": [],
					"name": "payEther",
					"outputs": [],
					"stateMutability": "payable",
					"type": "function"
				},
				{
					"inputs": [],
					"name": "sendEtherAccount",
					"outputs": [],
					"stateMutability": "nonpayable",
					"type": "function"
				}
			],
			"devdoc": {
				"kind": "dev",
				"methods": {},
				"version": 1
			},
			"evm": {
				"assembly": "    /* \"PaymentContract.sol\":57:444  contract Demo{... */\n  mstore(0x40, 0x80)\n    /* \"PaymentContract.sol\":107:149  0xAb8483F64d9C6d1EcF9b849Ae677dD3315835cb2 */\n  0xab8483f64d9c6d1ecf9b849ae677dd3315835cb2\n    /* \"PaymentContract.sol\":76:150  address payable user = payable(0xAb8483F64d9C6d1EcF9b849Ae677dD3315835cb2) */\n  0x00\n  dup1\n  0x0100\n  exp\n  dup2\n  sload\n  dup2\n  0xffffffffffffffffffffffffffffffffffffffff\n  mul\n  not\n  and\n  swap1\n  dup4\n  0xffffffffffffffffffffffffffffffffffffffff\n  and\n  mul\n  or\n  swap1\n  sstore\n  pop\n    /* \"PaymentContract.sol\":57:444  contract Demo{... */\n  callvalue\n  dup1\n  iszero\n  tag_1\n  jumpi\n  0x00\n  dup1\n  revert\ntag_1:\n  pop\n  dataSize(sub_0)\n  dup1\n  dataOffset(sub_0)\n  0x00\n  codecopy\n  0x00\n  return\nstop\n\nsub_0: assembly {\n        /* \"PaymentContract.sol\":57:444  contract Demo{... */\n      mstore(0x40, 0x80)\n      jumpi(tag_1, lt(calldatasize, 0x04))\n      shr(0xe0, calldataload(0x00))\n      dup1\n      0x92103473\n      eq\n      tag_2\n      jumpi\n      dup1\n      0x990fce44\n      eq\n      tag_3\n      jumpi\n      dup1\n      0xf7474d00\n      eq\n      tag_4\n      jumpi\n    tag_1:\n      0x00\n      dup1\n      revert\n        /* \"PaymentContract.sol\":271:363  function getBalence() public view returns(uint){... */\n    tag_2:\n      callvalue\n      dup1\n      iszero\n      tag_5\n      jumpi\n      0x00\n      dup1\n      revert\n    tag_5:\n      pop\n      tag_6\n      tag_7\n      jump\t// in\n    tag_6:\n      mload(0x40)\n      tag_8\n      swap2\n      swap1\n      tag_9\n      jump\t// in\n    tag_8:\n      mload(0x40)\n      dup1\n      swap2\n      sub\n      swap1\n      return\n        /* \"PaymentContract.sol\":369:442  function sendEtherAccount() public{... */\n    tag_3:\n      callvalue\n      dup1\n      iszero\n      tag_10\n      jumpi\n      0x00\n      dup1\n      revert\n    tag_10:\n      pop\n      tag_11\n      tag_12\n      jump\t// in\n    tag_11:\n      stop\n        /* \"PaymentContract.sol\":156:265  function payEther() public payable {... */\n    tag_4:\n      tag_13\n      tag_14\n      jump\t// in\n    tag_13:\n      stop\n        /* \"PaymentContract.sol\":271:363  function getBalence() public view returns(uint){... */\n    tag_7:\n        /* \"PaymentContract.sol\":313:317  uint */\n      0x00\n        /* \"PaymentContract.sol\":335:356  address(this).balance */\n      selfbalance\n        /* \"PaymentContract.sol\":328:356  return address(this).balance */\n      swap1\n      pop\n        /* \"PaymentContract.sol\":271:363  function getBalence() public view returns(uint){... */\n      swap1\n      jump\t// out\n        /* \"PaymentContract.sol\":369:442  function sendEtherAccount() public{... */\n    tag_12:\n        /* \"PaymentContract.sol\":413:417  user */\n      0x00\n      dup1\n      sload\n      swap1\n      0x0100\n      exp\n      swap1\n      div\n      0xffffffffffffffffffffffffffffffffffffffff\n      and\n        /* \"PaymentContract.sol\":413:426  user.transfer */\n      0xffffffffffffffffffffffffffffffffffffffff\n      and\n        /* \"PaymentContract.sol\":413:435  user.transfer(1 ether) */\n      0x08fc\n        /* \"PaymentContract.sol\":427:434  1 ether */\n      0x0de0b6b3a7640000\n        /* \"PaymentContract.sol\":413:435  user.transfer(1 ether) */\n      swap1\n      dup2\n      iszero\n      mul\n      swap1\n      mload(0x40)\n      0x00\n      mload(0x40)\n      dup1\n      dup4\n      sub\n      dup2\n      dup6\n      dup9\n      dup9\n      call\n      swap4\n      pop\n      pop\n      pop\n      pop\n      iszero\n      dup1\n      iszero\n      tag_18\n      jumpi\n      returndatasize\n      0x00\n      dup1\n      returndatacopy\n      revert(0x00, returndatasize)\n    tag_18:\n      pop\n        /* \"PaymentContract.sol\":369:442  function sendEtherAccount() public{... */\n      jump\t// out\n        /* \"PaymentContract.sol\":156:265  function payEther() public payable {... */\n    tag_14:\n      jump\t// out\n        /* \"#utility.yul\":7:84   */\n    tag_20:\n        /* \"#utility.yul\":44:51   */\n      0x00\n        /* \"#utility.yul\":73:78   */\n      dup2\n        /* \"#utility.yul\":62:78   */\n      swap1\n      pop\n        /* \"#utility.yul\":7:84   */\n      swap2\n      swap1\n      pop\n      jump\t// out\n        /* \"#utility.yul\":90:208   */\n    tag_21:\n        /* \"#utility.yul\":177:201   */\n      tag_25\n        /* \"#utility.yul\":195:200   */\n      dup2\n        /* \"#utility.yul\":177:201   */\n      tag_20\n      jump\t// in\n    tag_25:\n        /* \"#utility.yul\":172:175   */\n      dup3\n        /* \"#utility.yul\":165:202   */\n      mstore\n        /* \"#utility.yul\":90:208   */\n      pop\n      pop\n      jump\t// out\n        /* \"#utility.yul\":214:436   */\n    tag_9:\n        /* \"#utility.yul\":307:311   */\n      0x00\n        /* \"#utility.yul\":345:347   */\n      0x20\n        /* \"#utility.yul\":334:343   */\n      dup3\n        /* \"#utility.yul\":330:348   */\n      add\n        /* \"#utility.yul\":322:348   */\n      swap1\n      pop\n        /* \"#utility.yul\":358:429   */\n      tag_27\n        /* \"#utility.yul\":426:427   */\n      0x00\n        /* \"#utility.yul\":415:424   */\n      dup4\n        /* \"#utility.yul\":411:428   */\n      add\n        /* \"#utility.yul\":402:408   */\n      dup5\n        /* \"#utility.yul\":358:429   */\n      tag_21\n      jump\t// in\n    tag_27:\n        /* \"#utility.yul\":214:436   */\n      swap3\n      swap2\n      pop\n      pop\n      jump\t// out\n\n    auxdata: 0xa26469706673582212209a7b6903b9025cd19c9ba34c8317fff056c74187c7dfde2c18f97ce22f4aec7f64736f6c63430008140033\n}\n",
				"bytecode": {
					"linkReferences": {},
					"object": "608060405273ab8483f64d9c6d1ecf9b849ae677dd3315835cb25f806101000a81548173ffffffffffffffffffffffffffffffffffffffff021916908373ffffffffffffffffffffffffffffffffffffffff160217905550348015610062575f80fd5b5061015e806100705f395ff3fe608060405260043610610033575f3560e01c80639210347314610037578063990fce4414610061578063f7474d0014610077575b5f80fd5b348015610042575f80fd5b5061004b610081565b604051610058919061010f565b60405180910390f35b34801561006c575f80fd5b50610075610088565b005b61007f6100f5565b005b5f47905090565b5f8054906101000a900473ffffffffffffffffffffffffffffffffffffffff1673ffffffffffffffffffffffffffffffffffffffff166108fc670de0b6b3a764000090811502906040515f60405180830381858888f193505050501580156100f2573d5f803e3d5ffd5b50565b565b5f819050919050565b610109816100f7565b82525050565b5f6020820190506101225f830184610100565b9291505056fea26469706673582212209a7b6903b9025cd19c9ba34c8317fff056c74187c7dfde2c18f97ce22f4aec7f64736f6c63430008140033",
					"opcodes": "PUSH1 0x80 PUSH1 0x40 MSTORE PUSH20 0xAB8483F64D9C6D1ECF9B849AE677DD3315835CB2 PUSH0 DUP1 PUSH2 0x100 EXP DUP2 SLOAD DUP2 PUSH20 0xFFFFFFFFFFFFFFFFFFFFFFFFFFFFFFFFFFFFFFFF MUL NOT AND SWAP1 DUP4 PUSH20 0xFFFFFFFFFFFFFFFFFFFFFFFFFFFFFFFFFFFFFFFF AND MUL OR SWAP1 SSTORE POP CALLVALUE DUP1 ISZERO PUSH2 0x62 JUMPI PUSH0 DUP1 REVERT JUMPDEST POP PUSH2 0x15E DUP1 PUSH2 0x70 PUSH0 CODECOPY PUSH0 RETURN INVALID PUSH1 0x80 PUSH1 0x40 MSTORE PUSH1 0x4 CALLDATASIZE LT PUSH2 0x33 JUMPI PUSH0 CALLDATALOAD PUSH1 0xE0 SHR DUP1 PUSH4 0x92103473 EQ PUSH2 0x37 JUMPI DUP1 PUSH4 0x990FCE44 EQ PUSH2 0x61 JUMPI DUP1 PUSH4 0xF7474D00 EQ PUSH2 0x77 JUMPI JUMPDEST PUSH0 DUP1 REVERT JUMPDEST CALLVALUE DUP1 ISZERO PUSH2 0x42 JUMPI PUSH0 DUP1 REVERT JUMPDEST POP PUSH2 0x4B PUSH2 0x81 JUMP JUMPDEST PUSH1 0x40 MLOAD PUSH2 0x58 SWAP2 SWAP1 PUSH2 0x10F JUMP JUMPDEST PUSH1 0x40 MLOAD DUP1 SWAP2 SUB SWAP1 RETURN JUMPDEST CALLVALUE DUP1 ISZERO PUSH2 0x6C JUMPI PUSH0 DUP1 REVERT JUMPDEST POP PUSH2 0x75 PUSH2 0x88 JUMP JUMPDEST STOP JUMPDEST PUSH2 0x7F PUSH2 0xF5 JUMP JUMPDEST STOP JUMPDEST PUSH0 SELFBALANCE SWAP1 POP SWAP1 JUMP JUMPDEST PUSH0 DUP1 SLOAD SWAP1 PUSH2 0x100 EXP SWAP1 DIV PUSH20 0xFFFFFFFFFFFFFFFFFFFFFFFFFFFFFFFFFFFFFFFF AND PUSH20 0xFFFFFFFFFFFFFFFFFFFFFFFFFFFFFFFFFFFFFFFF AND PUSH2 0x8FC PUSH8 0xDE0B6B3A7640000 SWAP1 DUP2 ISZERO MUL SWAP1 PUSH1 0x40 MLOAD PUSH0 PUSH1 0x40 MLOAD DUP1 DUP4 SUB DUP2 DUP6 DUP9 DUP9 CALL SWAP4 POP POP POP POP ISZERO DUP1 ISZERO PUSH2 0xF2 JUMPI RETURNDATASIZE PUSH0 DUP1 RETURNDATACOPY RETURNDATASIZE PUSH0 REVERT JUMPDEST POP JUMP JUMPDEST JUMP JUMPDEST PUSH0 DUP2 SWAP1 POP SWAP2 SWAP1 POP JUMP JUMPDEST PUSH2 0x109 DUP2 PUSH2 0xF7 JUMP JUMPDEST DUP3 MSTORE POP POP JUMP JUMPDEST PUSH0 PUSH1 0x20 DUP3 ADD SWAP1 POP PUSH2 0x122 PUSH0 DUP4 ADD DUP5 PUSH2 0x100 JUMP JUMPDEST SWAP3 SWAP2 POP POP JUMP INVALID LOG2 PUSH5 0x6970667358 0x22 SLT KECCAK256 SWAP11 PUSH28 0x6903B9025CD19C9BA34C8317FFF056C74187C7DFDE2C18F97CE22F4A 0xEC PUSH32 0x64736F6C63430008140033000000000000000000000000000000000000000000 "
				},
				"gasEstimates": {
					"creation": {
						"codeDepositCost": "70000",
						"executionCost": "24381",
						"totalCost": "94381"
					},
					"external": {
						"getBalence()": "312",
						"payEther()": "141",
						"sendEtherAccount()": "infinite"
					}
				},
				"methodIdentifiers": {
					"getBalence()": "92103473",
					"payEther()": "f7474d00",
					"sendEtherAccount()": "990fce44"
				}
			},
			"storageLayout": {
				"storage": [
					{
						"astId": 7,
						"contract": "PaymentContract.sol:Demo",
						"label": "user",
						"offset": 0,
						"slot": "0",
						"type": "t_address_payable"
					}
				],
				"types": {
					"t_address_payable": {
						"encoding": "inplace",
						"label": "address payable",
						"numberOfBytes": "20"
					}
				}
			},
			"userdoc": {
				"kind": "user",
				"methods": {},
				"version": 1
			}
		}
	}
}