{
	"binarySearch.sol": {
		"BS": {
			"abi": [
				{
					"inputs": [
						{
							"internalType": "int256",
							"name": "target",
							"type": "int256"
						}
					],
					"name": "BiS",
					"outputs": [
						{
							"internalType": "bool",
							"name": "",
							"type": "bool"
						}
					],
					"stateMutability": "view",
					"type": "function"
				}
			],
			"devdoc": {
				"kind": "dev",
				"methods": {},
				"version": 1
			},
			"evm": {
				"assembly": "    /* \"binarySearch.sol\":57:617  contract BS {... */\n  mstore(0x40, 0x80)\n    /* \"binarySearch.sol\":75:121  int [10] private arr = [-1,2,3,4,5,6,7,8,9,10] */\n  mload(0x40)\n  dup1\n  0x0140\n  add\n  0x40\n  mstore\n  dup1\n    /* \"binarySearch.sol\":99:101  -1 */\n  0xffffffffffffffffffffffffffffffffffffffffffffffffffffffffffffffff\n    /* \"binarySearch.sol\":75:121  int [10] private arr = [-1,2,3,4,5,6,7,8,9,10] */\n  0x00\n  signextend\n  dup2\n  mstore\n  0x20\n  add\n    /* \"binarySearch.sol\":102:103  2 */\n  0x02\n    /* \"binarySearch.sol\":75:121  int [10] private arr = [-1,2,3,4,5,6,7,8,9,10] */\n  0x00\n  signextend\n  dup2\n  mstore\n  0x20\n  add\n    /* \"binarySearch.sol\":104:105  3 */\n  0x03\n    /* \"binarySearch.sol\":75:121  int [10] private arr = [-1,2,3,4,5,6,7,8,9,10] */\n  0x00\n  signextend\n  dup2\n  mstore\n  0x20\n  add\n    /* \"binarySearch.sol\":106:107  4 */\n  0x04\n    /* \"binarySearch.sol\":75:121  int [10] private arr = [-1,2,3,4,5,6,7,8,9,10] */\n  0x00\n  signextend\n  dup2\n  mstore\n  0x20\n  add\n    /* \"binarySearch.sol\":108:109  5 */\n  0x05\n    /* \"binarySearch.sol\":75:121  int [10] private arr = [-1,2,3,4,5,6,7,8,9,10] */\n  0x00\n  signextend\n  dup2\n  mstore\n  0x20\n  add\n    /* \"binarySearch.sol\":110:111  6 */\n  0x06\n    /* \"binarySearch.sol\":75:121  int [10] private arr = [-1,2,3,4,5,6,7,8,9,10] */\n  0x00\n  signextend\n  dup2\n  mstore\n  0x20\n  add\n    /* \"binarySearch.sol\":112:113  7 */\n  0x07\n    /* \"binarySearch.sol\":75:121  int [10] private arr = [-1,2,3,4,5,6,7,8,9,10] */\n  0x00\n  signextend\n  dup2\n  mstore\n  0x20\n  add\n    /* \"binarySearch.sol\":114:115  8 */\n  0x08\n    /* \"binarySearch.sol\":75:121  int [10] private arr = [-1,2,3,4,5,6,7,8,9,10] */\n  0x00\n  signextend\n  dup2\n  mstore\n  0x20\n  add\n    /* \"binarySearch.sol\":116:117  9 */\n  0x09\n    /* \"binarySearch.sol\":75:121  int [10] private arr = [-1,2,3,4,5,6,7,8,9,10] */\n  0x00\n  signextend\n  dup2\n  mstore\n  0x20\n  add\n    /* \"binarySearch.sol\":118:120  10 */\n  0x0a\n    /* \"binarySearch.sol\":75:121  int [10] private arr = [-1,2,3,4,5,6,7,8,9,10] */\n  0x00\n  signextend\n  dup2\n  mstore\n  pop\n  0x00\n  swap1\n  0x0a\n  tag_1\n  swap3\n  swap2\n  swap1\n  tag_2\n  jump\t// in\ntag_1:\n  pop\n    /* \"binarySearch.sol\":57:617  contract BS {... */\n  callvalue\n  dup1\n  iszero\n  tag_3\n  jumpi\n  0x00\n  dup1\n  revert\ntag_3:\n  pop\n  jump(tag_4)\ntag_2:\n  dup3\n  0x0a\n  dup2\n  add\n  swap3\n  dup3\n  iszero\n  tag_5\n  jumpi\n  swap2\n  0x20\n  mul\n  dup3\n  add\ntag_6:\n  dup3\n  dup2\n  gt\n  iszero\n  tag_7\n  jumpi\n  dup3\n  mload\n  dup3\n  swap1\n  0x00\n  signextend\n  swap1\n  sstore\n  swap2\n  0x20\n  add\n  swap2\n  swap1\n  0x01\n  add\n  swap1\n  jump(tag_6)\ntag_7:\ntag_5:\n  pop\n  swap1\n  pop\n  tag_8\n  swap2\n  swap1\n  tag_9\n  jump\t// in\ntag_8:\n  pop\n  swap1\n  jump\t// out\ntag_9:\ntag_10:\n  dup1\n  dup3\n  gt\n  iszero\n  tag_11\n  jumpi\n  0x00\n  dup2\n  0x00\n  swap1\n  sstore\n  pop\n  0x01\n  add\n  jump(tag_10)\ntag_11:\n  pop\n  swap1\n  jump\t// out\ntag_4:\n  dataSize(sub_0)\n  dup1\n  dataOffset(sub_0)\n  0x00\n  codecopy\n  0x00\n  return\nstop\n\nsub_0: assembly {\n        /* \"binarySearch.sol\":57:617  contract BS {... */\n      mstore(0x40, 0x80)\n      callvalue\n      dup1\n      iszero\n      tag_1\n      jumpi\n      0x00\n      dup1\n      revert\n    tag_1:\n      pop\n      jumpi(tag_2, lt(calldatasize, 0x04))\n      shr(0xe0, calldataload(0x00))\n      dup1\n      0x1fd1a07c\n      eq\n      tag_3\n      jumpi\n    tag_2:\n      0x00\n      dup1\n      revert\n        /* \"binarySearch.sol\":514:615  function BiS(int target) public view returns(bool){... */\n    tag_3:\n      tag_4\n      0x04\n      dup1\n      calldatasize\n      sub\n      dup2\n      add\n      swap1\n      tag_5\n      swap2\n      swap1\n      tag_6\n      jump\t// in\n    tag_5:\n      tag_7\n      jump\t// in\n    tag_4:\n      mload(0x40)\n      tag_8\n      swap2\n      swap1\n      tag_9\n      jump\t// in\n    tag_8:\n      mload(0x40)\n      dup1\n      swap2\n      sub\n      swap1\n      return\n    tag_7:\n        /* \"binarySearch.sol\":559:563  bool */\n      0x00\n        /* \"binarySearch.sol\":581:608  BiSe(target,0,arr.length-1) */\n      tag_11\n        /* \"binarySearch.sol\":586:592  target */\n      dup3\n        /* \"binarySearch.sol\":593:594  0 */\n      0x00\n        /* \"binarySearch.sol\":606:607  1 */\n      0x01\n        /* \"binarySearch.sol\":595:605  arr.length */\n      0x0a\n        /* \"binarySearch.sol\":595:607  arr.length-1 */\n      tag_12\n      swap2\n      swap1\n      tag_13\n      jump\t// in\n    tag_12:\n        /* \"binarySearch.sol\":581:585  BiSe */\n      tag_14\n        /* \"binarySearch.sol\":581:608  BiSe(target,0,arr.length-1) */\n      jump\t// in\n    tag_11:\n        /* \"binarySearch.sol\":574:608  return BiSe(target,0,arr.length-1) */\n      swap1\n      pop\n        /* \"binarySearch.sol\":514:615  function BiS(int target) public view returns(bool){... */\n      swap2\n      swap1\n      pop\n      jump\t// out\n        /* \"binarySearch.sol\":128:508  function BiSe(int target,uint s,uint e) private view returns(bool){... */\n    tag_14:\n        /* \"binarySearch.sol\":189:193  bool */\n      0x00\n        /* \"binarySearch.sol\":211:212  e */\n      dup2\n        /* \"binarySearch.sol\":207:208  s */\n      dup4\n        /* \"binarySearch.sol\":207:212  s > e */\n      gt\n        /* \"binarySearch.sol\":204:226  if(s > e) return false */\n      iszero\n      tag_16\n      jumpi\n        /* \"binarySearch.sol\":221:226  false */\n      0x00\n        /* \"binarySearch.sol\":214:226  return false */\n      swap1\n      pop\n      jump(tag_15)\n        /* \"binarySearch.sol\":204:226  if(s > e) return false */\n    tag_16:\n        /* \"binarySearch.sol\":244:245  e */\n      dup2\n        /* \"binarySearch.sol\":239:240  s */\n      dup4\n        /* \"binarySearch.sol\":239:245  s == e */\n      sub\n        /* \"binarySearch.sol\":236:270  if(s == e) return target == arr[s] */\n      tag_17\n      jumpi\n        /* \"binarySearch.sol\":264:267  arr */\n      0x00\n        /* \"binarySearch.sol\":268:269  s */\n      dup4\n        /* \"binarySearch.sol\":264:270  arr[s] */\n      0x0a\n      dup2\n      lt\n      tag_18\n      jumpi\n      tag_19\n      tag_20\n      jump\t// in\n    tag_19:\n    tag_18:\n      add\n      sload\n        /* \"binarySearch.sol\":254:260  target */\n      dup5\n        /* \"binarySearch.sol\":254:270  target == arr[s] */\n      eq\n        /* \"binarySearch.sol\":247:270  return target == arr[s] */\n      swap1\n      pop\n      jump(tag_15)\n        /* \"binarySearch.sol\":236:270  if(s == e) return target == arr[s] */\n    tag_17:\n        /* \"binarySearch.sol\":281:289  uint mid */\n      0x00\n        /* \"binarySearch.sol\":300:301  2 */\n      0x02\n        /* \"binarySearch.sol\":297:298  s */\n      dup5\n        /* \"binarySearch.sol\":295:296  e */\n      dup5\n        /* \"binarySearch.sol\":295:298  e-s */\n      tag_22\n      swap2\n      swap1\n      tag_13\n      jump\t// in\n    tag_22:\n        /* \"binarySearch.sol\":294:301  (e-s)/2 */\n      tag_23\n      swap2\n      swap1\n      tag_24\n      jump\t// in\n    tag_23:\n        /* \"binarySearch.sol\":292:293  s */\n      dup5\n        /* \"binarySearch.sol\":292:301  s+(e-s)/2 */\n      tag_25\n      swap2\n      swap1\n      tag_26\n      jump\t// in\n    tag_25:\n        /* \"binarySearch.sol\":281:301  uint mid = s+(e-s)/2 */\n      swap1\n      pop\n        /* \"binarySearch.sol\":325:331  target */\n      dup5\n        /* \"binarySearch.sol\":314:317  arr */\n      0x00\n        /* \"binarySearch.sol\":318:321  mid */\n      dup3\n        /* \"binarySearch.sol\":314:322  arr[mid] */\n      0x0a\n      dup2\n      lt\n      tag_27\n      jumpi\n      tag_28\n      tag_20\n      jump\t// in\n    tag_28:\n    tag_27:\n      add\n      sload\n        /* \"binarySearch.sol\":314:331  arr[mid] < target */\n      slt\n        /* \"binarySearch.sol\":311:502  if(arr[mid] < target){... */\n      iszero\n      tag_30\n      jumpi\n        /* \"binarySearch.sol\":353:373  BiSe(target,mid+1,e) */\n      tag_31\n        /* \"binarySearch.sol\":358:364  target */\n      dup6\n        /* \"binarySearch.sol\":369:370  1 */\n      0x01\n        /* \"binarySearch.sol\":365:368  mid */\n      dup4\n        /* \"binarySearch.sol\":365:370  mid+1 */\n      tag_32\n      swap2\n      swap1\n      tag_26\n      jump\t// in\n    tag_32:\n        /* \"binarySearch.sol\":371:372  e */\n      dup6\n        /* \"binarySearch.sol\":353:357  BiSe */\n      tag_14\n        /* \"binarySearch.sol\":353:373  BiSe(target,mid+1,e) */\n      jump\t// in\n    tag_31:\n        /* \"binarySearch.sol\":346:373  return BiSe(target,mid+1,e) */\n      swap2\n      pop\n      pop\n      jump(tag_15)\n        /* \"binarySearch.sol\":311:502  if(arr[mid] < target){... */\n    tag_30:\n        /* \"binarySearch.sol\":403:409  target */\n      dup5\n        /* \"binarySearch.sol\":392:395  arr */\n      0x00\n        /* \"binarySearch.sol\":396:399  mid */\n      dup3\n        /* \"binarySearch.sol\":392:400  arr[mid] */\n      0x0a\n      dup2\n      lt\n      tag_34\n      jumpi\n      tag_35\n      tag_20\n      jump\t// in\n    tag_35:\n    tag_34:\n      add\n      sload\n        /* \"binarySearch.sol\":392:409  arr[mid] > target */\n      sgt\n        /* \"binarySearch.sol\":389:502  if(arr[mid] > target){... */\n      iszero\n      tag_37\n      jumpi\n        /* \"binarySearch.sol\":431:451  BiSe(target,s,mid-1) */\n      tag_38\n        /* \"binarySearch.sol\":436:442  target */\n      dup6\n        /* \"binarySearch.sol\":443:444  s */\n      dup6\n        /* \"binarySearch.sol\":449:450  1 */\n      0x01\n        /* \"binarySearch.sol\":445:448  mid */\n      dup5\n        /* \"binarySearch.sol\":445:450  mid-1 */\n      tag_39\n      swap2\n      swap1\n      tag_13\n      jump\t// in\n    tag_39:\n        /* \"binarySearch.sol\":431:435  BiSe */\n      tag_14\n        /* \"binarySearch.sol\":431:451  BiSe(target,s,mid-1) */\n      jump\t// in\n    tag_38:\n        /* \"binarySearch.sol\":424:451  return BiSe(target,s,mid-1) */\n      swap2\n      pop\n      pop\n      jump(tag_15)\n        /* \"binarySearch.sol\":389:502  if(arr[mid] > target){... */\n    tag_37:\n        /* \"binarySearch.sol\":487:491  true */\n      0x01\n        /* \"binarySearch.sol\":480:491  return true */\n      swap2\n      pop\n      pop\n        /* \"binarySearch.sol\":128:508  function BiSe(int target,uint s,uint e) private view returns(bool){... */\n    tag_15:\n      swap4\n      swap3\n      pop\n      pop\n      pop\n      jump\t// out\n        /* \"#utility.yul\":88:205   */\n    tag_42:\n        /* \"#utility.yul\":197:198   */\n      0x00\n        /* \"#utility.yul\":194:195   */\n      dup1\n        /* \"#utility.yul\":187:199   */\n      revert\n        /* \"#utility.yul\":334:410   */\n    tag_44:\n        /* \"#utility.yul\":370:377   */\n      0x00\n        /* \"#utility.yul\":399:404   */\n      dup2\n        /* \"#utility.yul\":388:404   */\n      swap1\n      pop\n        /* \"#utility.yul\":334:410   */\n      swap2\n      swap1\n      pop\n      jump\t// out\n        /* \"#utility.yul\":416:536   */\n    tag_45:\n        /* \"#utility.yul\":488:511   */\n      tag_58\n        /* \"#utility.yul\":505:510   */\n      dup2\n        /* \"#utility.yul\":488:511   */\n      tag_44\n      jump\t// in\n    tag_58:\n        /* \"#utility.yul\":481:486   */\n      dup2\n        /* \"#utility.yul\":478:512   */\n      eq\n        /* \"#utility.yul\":468:530   */\n      tag_59\n      jumpi\n        /* \"#utility.yul\":526:527   */\n      0x00\n        /* \"#utility.yul\":523:524   */\n      dup1\n        /* \"#utility.yul\":516:528   */\n      revert\n        /* \"#utility.yul\":468:530   */\n    tag_59:\n        /* \"#utility.yul\":416:536   */\n      pop\n      jump\t// out\n        /* \"#utility.yul\":542:679   */\n    tag_46:\n        /* \"#utility.yul\":587:592   */\n      0x00\n        /* \"#utility.yul\":625:631   */\n      dup2\n        /* \"#utility.yul\":612:632   */\n      calldataload\n        /* \"#utility.yul\":603:632   */\n      swap1\n      pop\n        /* \"#utility.yul\":641:673   */\n      tag_61\n        /* \"#utility.yul\":667:672   */\n      dup2\n        /* \"#utility.yul\":641:673   */\n      tag_45\n      jump\t// in\n    tag_61:\n        /* \"#utility.yul\":542:679   */\n      swap3\n      swap2\n      pop\n      pop\n      jump\t// out\n        /* \"#utility.yul\":685:1012   */\n    tag_6:\n        /* \"#utility.yul\":743:749   */\n      0x00\n        /* \"#utility.yul\":792:794   */\n      0x20\n        /* \"#utility.yul\":780:789   */\n      dup3\n        /* \"#utility.yul\":771:778   */\n      dup5\n        /* \"#utility.yul\":767:790   */\n      sub\n        /* \"#utility.yul\":763:795   */\n      slt\n        /* \"#utility.yul\":760:879   */\n      iszero\n      tag_63\n      jumpi\n        /* \"#utility.yul\":798:877   */\n      tag_64\n      tag_42\n      jump\t// in\n    tag_64:\n        /* \"#utility.yul\":760:879   */\n    tag_63:\n        /* \"#utility.yul\":918:919   */\n      0x00\n        /* \"#utility.yul\":943:995   */\n      tag_65\n        /* \"#utility.yul\":987:994   */\n      dup5\n        /* \"#utility.yul\":978:984   */\n      dup3\n        /* \"#utility.yul\":967:976   */\n      dup6\n        /* \"#utility.yul\":963:985   */\n      add\n        /* \"#utility.yul\":943:995   */\n      tag_46\n      jump\t// in\n    tag_65:\n        /* \"#utility.yul\":933:995   */\n      swap2\n      pop\n        /* \"#utility.yul\":889:1005   */\n      pop\n        /* \"#utility.yul\":685:1012   */\n      swap3\n      swap2\n      pop\n      pop\n      jump\t// out\n        /* \"#utility.yul\":1018:1108   */\n    tag_47:\n        /* \"#utility.yul\":1052:1059   */\n      0x00\n        /* \"#utility.yul\":1095:1100   */\n      dup2\n        /* \"#utility.yul\":1088:1101   */\n      iszero\n        /* \"#utility.yul\":1081:1102   */\n      iszero\n        /* \"#utility.yul\":1070:1102   */\n      swap1\n      pop\n        /* \"#utility.yul\":1018:1108   */\n      swap2\n      swap1\n      pop\n      jump\t// out\n        /* \"#utility.yul\":1114:1223   */\n    tag_48:\n        /* \"#utility.yul\":1195:1216   */\n      tag_68\n        /* \"#utility.yul\":1210:1215   */\n      dup2\n        /* \"#utility.yul\":1195:1216   */\n      tag_47\n      jump\t// in\n    tag_68:\n        /* \"#utility.yul\":1190:1193   */\n      dup3\n        /* \"#utility.yul\":1183:1217   */\n      mstore\n        /* \"#utility.yul\":1114:1223   */\n      pop\n      pop\n      jump\t// out\n        /* \"#utility.yul\":1229:1439   */\n    tag_9:\n        /* \"#utility.yul\":1316:1320   */\n      0x00\n        /* \"#utility.yul\":1354:1356   */\n      0x20\n        /* \"#utility.yul\":1343:1352   */\n      dup3\n        /* \"#utility.yul\":1339:1357   */\n      add\n        /* \"#utility.yul\":1331:1357   */\n      swap1\n      pop\n        /* \"#utility.yul\":1367:1432   */\n      tag_70\n        /* \"#utility.yul\":1429:1430   */\n      0x00\n        /* \"#utility.yul\":1418:1427   */\n      dup4\n        /* \"#utility.yul\":1414:1431   */\n      add\n        /* \"#utility.yul\":1405:1411   */\n      dup5\n        /* \"#utility.yul\":1367:1432   */\n      tag_48\n      jump\t// in\n    tag_70:\n        /* \"#utility.yul\":1229:1439   */\n      swap3\n      swap2\n      pop\n      pop\n      jump\t// out\n        /* \"#utility.yul\":1445:1522   */\n    tag_49:\n        /* \"#utility.yul\":1482:1489   */\n      0x00\n        /* \"#utility.yul\":1511:1516   */\n      dup2\n        /* \"#utility.yul\":1500:1516   */\n      swap1\n      pop\n        /* \"#utility.yul\":1445:1522   */\n      swap2\n      swap1\n      pop\n      jump\t// out\n        /* \"#utility.yul\":1528:1708   */\n    tag_50:\n        /* \"#utility.yul\":1576:1653   */\n      0x4e487b7100000000000000000000000000000000000000000000000000000000\n        /* \"#utility.yul\":1573:1574   */\n      0x00\n        /* \"#utility.yul\":1566:1654   */\n      mstore\n        /* \"#utility.yul\":1673:1677   */\n      0x11\n        /* \"#utility.yul\":1670:1671   */\n      0x04\n        /* \"#utility.yul\":1663:1678   */\n      mstore\n        /* \"#utility.yul\":1697:1701   */\n      0x24\n        /* \"#utility.yul\":1694:1695   */\n      0x00\n        /* \"#utility.yul\":1687:1702   */\n      revert\n        /* \"#utility.yul\":1714:1908   */\n    tag_13:\n        /* \"#utility.yul\":1754:1758   */\n      0x00\n        /* \"#utility.yul\":1774:1794   */\n      tag_74\n        /* \"#utility.yul\":1792:1793   */\n      dup3\n        /* \"#utility.yul\":1774:1794   */\n      tag_49\n      jump\t// in\n    tag_74:\n        /* \"#utility.yul\":1769:1794   */\n      swap2\n      pop\n        /* \"#utility.yul\":1808:1828   */\n      tag_75\n        /* \"#utility.yul\":1826:1827   */\n      dup4\n        /* \"#utility.yul\":1808:1828   */\n      tag_49\n      jump\t// in\n    tag_75:\n        /* \"#utility.yul\":1803:1828   */\n      swap3\n      pop\n        /* \"#utility.yul\":1852:1853   */\n      dup3\n        /* \"#utility.yul\":1849:1850   */\n      dup3\n        /* \"#utility.yul\":1845:1854   */\n      sub\n        /* \"#utility.yul\":1837:1854   */\n      swap1\n      pop\n        /* \"#utility.yul\":1876:1877   */\n      dup2\n        /* \"#utility.yul\":1870:1874   */\n      dup2\n        /* \"#utility.yul\":1867:1878   */\n      gt\n        /* \"#utility.yul\":1864:1901   */\n      iszero\n      tag_76\n      jumpi\n        /* \"#utility.yul\":1881:1899   */\n      tag_77\n      tag_50\n      jump\t// in\n    tag_77:\n        /* \"#utility.yul\":1864:1901   */\n    tag_76:\n        /* \"#utility.yul\":1714:1908   */\n      swap3\n      swap2\n      pop\n      pop\n      jump\t// out\n        /* \"#utility.yul\":1914:2094   */\n    tag_20:\n        /* \"#utility.yul\":1962:2039   */\n      0x4e487b7100000000000000000000000000000000000000000000000000000000\n        /* \"#utility.yul\":1959:1960   */\n      0x00\n        /* \"#utility.yul\":1952:2040   */\n      mstore\n        /* \"#utility.yul\":2059:2063   */\n      0x32\n        /* \"#utility.yul\":2056:2057   */\n      0x04\n        /* \"#utility.yul\":2049:2064   */\n      mstore\n        /* \"#utility.yul\":2083:2087   */\n      0x24\n        /* \"#utility.yul\":2080:2081   */\n      0x00\n        /* \"#utility.yul\":2073:2088   */\n      revert\n        /* \"#utility.yul\":2100:2280   */\n    tag_51:\n        /* \"#utility.yul\":2148:2225   */\n      0x4e487b7100000000000000000000000000000000000000000000000000000000\n        /* \"#utility.yul\":2145:2146   */\n      0x00\n        /* \"#utility.yul\":2138:2226   */\n      mstore\n        /* \"#utility.yul\":2245:2249   */\n      0x12\n        /* \"#utility.yul\":2242:2243   */\n      0x04\n        /* \"#utility.yul\":2235:2250   */\n      mstore\n        /* \"#utility.yul\":2269:2273   */\n      0x24\n        /* \"#utility.yul\":2266:2267   */\n      0x00\n        /* \"#utility.yul\":2259:2274   */\n      revert\n        /* \"#utility.yul\":2286:2471   */\n    tag_24:\n        /* \"#utility.yul\":2326:2327   */\n      0x00\n        /* \"#utility.yul\":2343:2363   */\n      tag_81\n        /* \"#utility.yul\":2361:2362   */\n      dup3\n        /* \"#utility.yul\":2343:2363   */\n      tag_49\n      jump\t// in\n    tag_81:\n        /* \"#utility.yul\":2338:2363   */\n      swap2\n      pop\n        /* \"#utility.yul\":2377:2397   */\n      tag_82\n        /* \"#utility.yul\":2395:2396   */\n      dup4\n        /* \"#utility.yul\":2377:2397   */\n      tag_49\n      jump\t// in\n    tag_82:\n        /* \"#utility.yul\":2372:2397   */\n      swap3\n      pop\n        /* \"#utility.yul\":2416:2417   */\n      dup3\n        /* \"#utility.yul\":2406:2441   */\n      tag_83\n      jumpi\n        /* \"#utility.yul\":2421:2439   */\n      tag_84\n      tag_51\n      jump\t// in\n    tag_84:\n        /* \"#utility.yul\":2406:2441   */\n    tag_83:\n        /* \"#utility.yul\":2463:2464   */\n      dup3\n        /* \"#utility.yul\":2460:2461   */\n      dup3\n        /* \"#utility.yul\":2456:2465   */\n      div\n        /* \"#utility.yul\":2451:2465   */\n      swap1\n      pop\n        /* \"#utility.yul\":2286:2471   */\n      swap3\n      swap2\n      pop\n      pop\n      jump\t// out\n        /* \"#utility.yul\":2477:2668   */\n    tag_26:\n        /* \"#utility.yul\":2517:2520   */\n      0x00\n        /* \"#utility.yul\":2536:2556   */\n      tag_86\n        /* \"#utility.yul\":2554:2555   */\n      dup3\n        /* \"#utility.yul\":2536:2556   */\n      tag_49\n      jump\t// in\n    tag_86:\n        /* \"#utility.yul\":2531:2556   */\n      swap2\n      pop\n        /* \"#utility.yul\":2570:2590   */\n      tag_87\n        /* \"#utility.yul\":2588:2589   */\n      dup4\n        /* \"#utility.yul\":2570:2590   */\n      tag_49\n      jump\t// in\n    tag_87:\n        /* \"#utility.yul\":2565:2590   */\n      swap3\n      pop\n        /* \"#utility.yul\":2613:2614   */\n      dup3\n        /* \"#utility.yul\":2610:2611   */\n      dup3\n        /* \"#utility.yul\":2606:2615   */\n      add\n        /* \"#utility.yul\":2599:2615   */\n      swap1\n      pop\n        /* \"#utility.yul\":2634:2637   */\n      dup1\n        /* \"#utility.yul\":2631:2632   */\n      dup3\n        /* \"#utility.yul\":2628:2638   */\n      gt\n        /* \"#utility.yul\":2625:2661   */\n      iszero\n      tag_88\n      jumpi\n        /* \"#utility.yul\":2641:2659   */\n      tag_89\n      tag_50\n      jump\t// in\n    tag_89:\n        /* \"#utility.yul\":2625:2661   */\n    tag_88:\n        /* \"#utility.yul\":2477:2668   */\n      swap3\n      swap2\n      pop\n      pop\n      jump\t// out\n\n    auxdata: 0xa26469706673582212200ddff209a48bc123f16cb04a228d257b109d15c6a2fc6860b37eb17e0ec7646264736f6c63430008140033\n}\n",
				"bytecode": {
					"linkReferences": {},
					"object": "60806040526040518061014001604052807fffffffffffffffffffffffffffffffffffffffffffffffffffffffffffffffff5f0b815260200160025f0b815260200160035f0b815260200160045f0b815260200160055f0b815260200160065f0b815260200160075f0b815260200160085f0b815260200160095f0b8152602001600a5f0b8152505f90600a6100969291906100a8565b503480156100a2575f80fd5b50610107565b82600a81019282156100db579160200282015b828111156100da57825182905f0b9055916020019190600101906100bb565b5b5090506100e891906100ec565b5090565b5b80821115610103575f815f9055506001016100ed565b5090565b61034d806101145f395ff3fe608060405234801561000f575f80fd5b5060043610610029575f3560e01c80631fd1a07c1461002d575b5f80fd5b61004760048036038101906100429190610193565b61005d565b60405161005491906101d8565b60405180910390f35b5f610076825f6001600a6100719190610227565b61007d565b9050919050565b5f8183111561008e575f9050610155565b8183036100b3575f83600a81106100a8576100a761025a565b5b015484149050610155565b5f600284846100c29190610227565b6100cc91906102b4565b846100d791906102e4565b9050845f82600a81106100ed576100ec61025a565b5b015412156101145761010c8560018361010691906102e4565b8561007d565b915050610155565b845f82600a81106101285761012761025a565b5b0154131561014f5761014785856001846101429190610227565b61007d565b915050610155565b60019150505b9392505050565b5f80fd5b5f819050919050565b61017281610160565b811461017c575f80fd5b50565b5f8135905061018d81610169565b92915050565b5f602082840312156101a8576101a761015c565b5b5f6101b58482850161017f565b91505092915050565b5f8115159050919050565b6101d2816101be565b82525050565b5f6020820190506101eb5f8301846101c9565b92915050565b5f819050919050565b7f4e487b71000000000000000000000000000000000000000000000000000000005f52601160045260245ffd5b5f610231826101f1565b915061023c836101f1565b9250828203905081811115610254576102536101fa565b5b92915050565b7f4e487b71000000000000000000000000000000000000000000000000000000005f52603260045260245ffd5b7f4e487b71000000000000000000000000000000000000000000000000000000005f52601260045260245ffd5b5f6102be826101f1565b91506102c9836101f1565b9250826102d9576102d8610287565b5b828204905092915050565b5f6102ee826101f1565b91506102f9836101f1565b9250828201905080821115610311576103106101fa565b5b9291505056fea26469706673582212200ddff209a48bc123f16cb04a228d257b109d15c6a2fc6860b37eb17e0ec7646264736f6c63430008140033",
					"opcodes": "PUSH1 0x80 PUSH1 0x40 MSTORE PUSH1 0x40 MLOAD DUP1 PUSH2 0x140 ADD PUSH1 0x40 MSTORE DUP1 PUSH32 0xFFFFFFFFFFFFFFFFFFFFFFFFFFFFFFFFFFFFFFFFFFFFFFFFFFFFFFFFFFFFFFFF PUSH0 SIGNEXTEND DUP2 MSTORE PUSH1 0x20 ADD PUSH1 0x2 PUSH0 SIGNEXTEND DUP2 MSTORE PUSH1 0x20 ADD PUSH1 0x3 PUSH0 SIGNEXTEND DUP2 MSTORE PUSH1 0x20 ADD PUSH1 0x4 PUSH0 SIGNEXTEND DUP2 MSTORE PUSH1 0x20 ADD PUSH1 0x5 PUSH0 SIGNEXTEND DUP2 MSTORE PUSH1 0x20 ADD PUSH1 0x6 PUSH0 SIGNEXTEND DUP2 MSTORE PUSH1 0x20 ADD PUSH1 0x7 PUSH0 SIGNEXTEND DUP2 MSTORE PUSH1 0x20 ADD PUSH1 0x8 PUSH0 SIGNEXTEND DUP2 MSTORE PUSH1 0x20 ADD PUSH1 0x9 PUSH0 SIGNEXTEND DUP2 MSTORE PUSH1 0x20 ADD PUSH1 0xA PUSH0 SIGNEXTEND DUP2 MSTORE POP PUSH0 SWAP1 PUSH1 0xA PUSH2 0x96 SWAP3 SWAP2 SWAP1 PUSH2 0xA8 JUMP JUMPDEST POP CALLVALUE DUP1 ISZERO PUSH2 0xA2 JUMPI PUSH0 DUP1 REVERT JUMPDEST POP PUSH2 0x107 JUMP JUMPDEST DUP3 PUSH1 0xA DUP2 ADD SWAP3 DUP3 ISZERO PUSH2 0xDB JUMPI SWAP2 PUSH1 0x20 MUL DUP3 ADD JUMPDEST DUP3 DUP2 GT ISZERO PUSH2 0xDA JUMPI DUP3 MLOAD DUP3 SWAP1 PUSH0 SIGNEXTEND SWAP1 SSTORE SWAP2 PUSH1 0x20 ADD SWAP2 SWAP1 PUSH1 0x1 ADD SWAP1 PUSH2 0xBB JUMP JUMPDEST JUMPDEST POP SWAP1 POP PUSH2 0xE8 SWAP2 SWAP1 PUSH2 0xEC JUMP JUMPDEST POP SWAP1 JUMP JUMPDEST JUMPDEST DUP1 DUP3 GT ISZERO PUSH2 0x103 JUMPI PUSH0 DUP2 PUSH0 SWAP1 SSTORE POP PUSH1 0x1 ADD PUSH2 0xED JUMP JUMPDEST POP SWAP1 JUMP JUMPDEST PUSH2 0x34D DUP1 PUSH2 0x114 PUSH0 CODECOPY PUSH0 RETURN INVALID PUSH1 0x80 PUSH1 0x40 MSTORE CALLVALUE DUP1 ISZERO PUSH2 0xF JUMPI PUSH0 DUP1 REVERT JUMPDEST POP PUSH1 0x4 CALLDATASIZE LT PUSH2 0x29 JUMPI PUSH0 CALLDATALOAD PUSH1 0xE0 SHR DUP1 PUSH4 0x1FD1A07C EQ PUSH2 0x2D JUMPI JUMPDEST PUSH0 DUP1 REVERT JUMPDEST PUSH2 0x47 PUSH1 0x4 DUP1 CALLDATASIZE SUB DUP2 ADD SWAP1 PUSH2 0x42 SWAP2 SWAP1 PUSH2 0x193 JUMP JUMPDEST PUSH2 0x5D JUMP JUMPDEST PUSH1 0x40 MLOAD PUSH2 0x54 SWAP2 SWAP1 PUSH2 0x1D8 JUMP JUMPDEST PUSH1 0x40 MLOAD DUP1 SWAP2 SUB SWAP1 RETURN JUMPDEST PUSH0 PUSH2 0x76 DUP3 PUSH0 PUSH1 0x1 PUSH1 0xA PUSH2 0x71 SWAP2 SWAP1 PUSH2 0x227 JUMP JUMPDEST PUSH2 0x7D JUMP JUMPDEST SWAP1 POP SWAP2 SWAP1 POP JUMP JUMPDEST PUSH0 DUP2 DUP4 GT ISZERO PUSH2 0x8E JUMPI PUSH0 SWAP1 POP PUSH2 0x155 JUMP JUMPDEST DUP2 DUP4 SUB PUSH2 0xB3 JUMPI PUSH0 DUP4 PUSH1 0xA DUP2 LT PUSH2 0xA8 JUMPI PUSH2 0xA7 PUSH2 0x25A JUMP JUMPDEST JUMPDEST ADD SLOAD DUP5 EQ SWAP1 POP PUSH2 0x155 JUMP JUMPDEST PUSH0 PUSH1 0x2 DUP5 DUP5 PUSH2 0xC2 SWAP2 SWAP1 PUSH2 0x227 JUMP JUMPDEST PUSH2 0xCC SWAP2 SWAP1 PUSH2 0x2B4 JUMP JUMPDEST DUP5 PUSH2 0xD7 SWAP2 SWAP1 PUSH2 0x2E4 JUMP JUMPDEST SWAP1 POP DUP5 PUSH0 DUP3 PUSH1 0xA DUP2 LT PUSH2 0xED JUMPI PUSH2 0xEC PUSH2 0x25A JUMP JUMPDEST JUMPDEST ADD SLOAD SLT ISZERO PUSH2 0x114 JUMPI PUSH2 0x10C DUP6 PUSH1 0x1 DUP4 PUSH2 0x106 SWAP2 SWAP1 PUSH2 0x2E4 JUMP JUMPDEST DUP6 PUSH2 0x7D JUMP JUMPDEST SWAP2 POP POP PUSH2 0x155 JUMP JUMPDEST DUP5 PUSH0 DUP3 PUSH1 0xA DUP2 LT PUSH2 0x128 JUMPI PUSH2 0x127 PUSH2 0x25A JUMP JUMPDEST JUMPDEST ADD SLOAD SGT ISZERO PUSH2 0x14F JUMPI PUSH2 0x147 DUP6 DUP6 PUSH1 0x1 DUP5 PUSH2 0x142 SWAP2 SWAP1 PUSH2 0x227 JUMP JUMPDEST PUSH2 0x7D JUMP JUMPDEST SWAP2 POP POP PUSH2 0x155 JUMP JUMPDEST PUSH1 0x1 SWAP2 POP POP JUMPDEST SWAP4 SWAP3 POP POP POP JUMP JUMPDEST PUSH0 DUP1 REVERT JUMPDEST PUSH0 DUP2 SWAP1 POP SWAP2 SWAP1 POP JUMP JUMPDEST PUSH2 0x172 DUP2 PUSH2 0x160 JUMP JUMPDEST DUP2 EQ PUSH2 0x17C JUMPI PUSH0 DUP1 REVERT JUMPDEST POP JUMP JUMPDEST PUSH0 DUP2 CALLDATALOAD SWAP1 POP PUSH2 0x18D DUP2 PUSH2 0x169 JUMP JUMPDEST SWAP3 SWAP2 POP POP JUMP JUMPDEST PUSH0 PUSH1 0x20 DUP3 DUP5 SUB SLT ISZERO PUSH2 0x1A8 JUMPI PUSH2 0x1A7 PUSH2 0x15C JUMP JUMPDEST JUMPDEST PUSH0 PUSH2 0x1B5 DUP5 DUP3 DUP6 ADD PUSH2 0x17F JUMP JUMPDEST SWAP2 POP POP SWAP3 SWAP2 POP POP JUMP JUMPDEST PUSH0 DUP2 ISZERO ISZERO SWAP1 POP SWAP2 SWAP1 POP JUMP JUMPDEST PUSH2 0x1D2 DUP2 PUSH2 0x1BE JUMP JUMPDEST DUP3 MSTORE POP POP JUMP JUMPDEST PUSH0 PUSH1 0x20 DUP3 ADD SWAP1 POP PUSH2 0x1EB PUSH0 DUP4 ADD DUP5 PUSH2 0x1C9 JUMP JUMPDEST SWAP3 SWAP2 POP POP JUMP JUMPDEST PUSH0 DUP2 SWAP1 POP SWAP2 SWAP1 POP JUMP JUMPDEST PUSH32 0x4E487B7100000000000000000000000000000000000000000000000000000000 PUSH0 MSTORE PUSH1 0x11 PUSH1 0x4 MSTORE PUSH1 0x24 PUSH0 REVERT JUMPDEST PUSH0 PUSH2 0x231 DUP3 PUSH2 0x1F1 JUMP JUMPDEST SWAP2 POP PUSH2 0x23C DUP4 PUSH2 0x1F1 JUMP JUMPDEST SWAP3 POP DUP3 DUP3 SUB SWAP1 POP DUP2 DUP2 GT ISZERO PUSH2 0x254 JUMPI PUSH2 0x253 PUSH2 0x1FA JUMP JUMPDEST JUMPDEST SWAP3 SWAP2 POP POP JUMP JUMPDEST PUSH32 0x4E487B7100000000000000000000000000000000000000000000000000000000 PUSH0 MSTORE PUSH1 0x32 PUSH1 0x4 MSTORE PUSH1 0x24 PUSH0 REVERT JUMPDEST PUSH32 0x4E487B7100000000000000000000000000000000000000000000000000000000 PUSH0 MSTORE PUSH1 0x12 PUSH1 0x4 MSTORE PUSH1 0x24 PUSH0 REVERT JUMPDEST PUSH0 PUSH2 0x2BE DUP3 PUSH2 0x1F1 JUMP JUMPDEST SWAP2 POP PUSH2 0x2C9 DUP4 PUSH2 0x1F1 JUMP JUMPDEST SWAP3 POP DUP3 PUSH2 0x2D9 JUMPI PUSH2 0x2D8 PUSH2 0x287 JUMP JUMPDEST JUMPDEST DUP3 DUP3 DIV SWAP1 POP SWAP3 SWAP2 POP POP JUMP JUMPDEST PUSH0 PUSH2 0x2EE DUP3 PUSH2 0x1F1 JUMP JUMPDEST SWAP2 POP PUSH2 0x2F9 DUP4 PUSH2 0x1F1 JUMP JUMPDEST SWAP3 POP DUP3 DUP3 ADD SWAP1 POP DUP1 DUP3 GT ISZERO PUSH2 0x311 JUMPI PUSH2 0x310 PUSH2 0x1FA JUMP JUMPDEST JUMPDEST SWAP3 SWAP2 POP POP JUMP INVALID LOG2 PUSH5 0x6970667358 0x22 SLT KECCAK256 0xD 0xDF CALLCODE MULMOD LOG4 DUP12 0xC1 0x23 CALL PUSH13 0xB04A228D257B109D15C6A2FC68 PUSH1 0xB3 PUSH31 0xB17E0EC7646264736F6C634300081400330000000000000000000000000000 "
				},
				"gasEstimates": {
					"creation": {
						"codeDepositCost": "169000",
						"executionCost": "infinite",
						"totalCost": "infinite"
					},
					"external": {
						"BiS(int256)": "infinite"
					},
					"internal": {
						"BiSe(int256,uint256,uint256)": "infinite"
					}
				},
				"methodIdentifiers": {
					"BiS(int256)": "1fd1a07c"
				}
			},
			"storageLayout": {
				"storage": [
					{
						"astId": 17,
						"contract": "binarySearch.sol:BS",
						"label": "arr",
						"offset": 0,
						"slot": "0",
						"type": "t_array(t_int256)10_storage"
					}
				],
				"types": {
					"t_array(t_int256)10_storage": {
						"base": "t_int256",
						"encoding": "inplace",
						"label": "int256[10]",
						"numberOfBytes": "320"
					},
					"t_int256": {
						"encoding": "inplace",
						"label": "int256",
						"numberOfBytes": "32"
					}
				}
			},
			"userdoc": {
				"kind": "user",
				"methods": {},
				"version": 1
			}
		}
	}
}