{
	"map.sol": {
		"map": {
			"abi": [
				{
					"inputs": [
						{
							"internalType": "int256",
							"name": "",
							"type": "int256"
						}
					],
					"name": "myMap",
					"outputs": [
						{
							"internalType": "string",
							"name": "",
							"type": "string"
						}
					],
					"stateMutability": "view",
					"type": "function"
				},
				{
					"inputs": [
						{
							"internalType": "int256",
							"name": "key",
							"type": "int256"
						},
						{
							"internalType": "string",
							"name": "value",
							"type": "string"
						}
					],
					"name": "setter",
					"outputs": [],
					"stateMutability": "nonpayable",
					"type": "function"
				}
			],
			"devdoc": {
				"kind": "dev",
				"methods": {},
				"version": 1
			},
			"evm": {
				"assembly": "    /* \"map.sol\":57:207  contract map{... */\n  mstore(0x40, 0x80)\n  callvalue\n  dup1\n  iszero\n  tag_1\n  jumpi\n  0x00\n  dup1\n  revert\ntag_1:\n  pop\n  dataSize(sub_0)\n  dup1\n  dataOffset(sub_0)\n  0x00\n  codecopy\n  0x00\n  return\nstop\n\nsub_0: assembly {\n        /* \"map.sol\":57:207  contract map{... */\n      mstore(0x40, 0x80)\n      callvalue\n      dup1\n      iszero\n      tag_1\n      jumpi\n      0x00\n      dup1\n      revert\n    tag_1:\n      pop\n      jumpi(tag_2, lt(calldatasize, 0x04))\n      shr(0xe0, calldataload(0x00))\n      dup1\n      0x6759d43d\n      eq\n      tag_3\n      jumpi\n      dup1\n      0x9d9defb2\n      eq\n      tag_4\n      jumpi\n    tag_2:\n      0x00\n      dup1\n      revert\n        /* \"map.sol\":114:200  function setter(int key,string memory value) public{... */\n    tag_3:\n      tag_5\n      0x04\n      dup1\n      calldatasize\n      sub\n      dup2\n      add\n      swap1\n      tag_6\n      swap2\n      swap1\n      tag_7\n      jump\t// in\n    tag_6:\n      tag_8\n      jump\t// in\n    tag_5:\n      stop\n        /* \"map.sol\":75:108  mapping(int=>string) public myMap */\n    tag_4:\n      tag_9\n      0x04\n      dup1\n      calldatasize\n      sub\n      dup2\n      add\n      swap1\n      tag_10\n      swap2\n      swap1\n      tag_11\n      jump\t// in\n    tag_10:\n      tag_12\n      jump\t// in\n    tag_9:\n      mload(0x40)\n      tag_13\n      swap2\n      swap1\n      tag_14\n      jump\t// in\n    tag_13:\n      mload(0x40)\n      dup1\n      swap2\n      sub\n      swap1\n      return\n        /* \"map.sol\":114:200  function setter(int key,string memory value) public{... */\n    tag_8:\n        /* \"map.sol\":188:193  value */\n      dup1\n        /* \"map.sol\":175:180  myMap */\n      0x00\n        /* \"map.sol\":175:185  myMap[key] */\n      dup1\n        /* \"map.sol\":181:184  key */\n      dup5\n        /* \"map.sol\":175:185  myMap[key] */\n      dup2\n      mstore\n      0x20\n      add\n      swap1\n      dup2\n      mstore\n      0x20\n      add\n      0x00\n      keccak256\n        /* \"map.sol\":175:193  myMap[key] = value */\n      swap1\n      dup2\n      tag_16\n      swap2\n      swap1\n      tag_17\n      jump\t// in\n    tag_16:\n      pop\n        /* \"map.sol\":114:200  function setter(int key,string memory value) public{... */\n      pop\n      pop\n      jump\t// out\n        /* \"map.sol\":75:108  mapping(int=>string) public myMap */\n    tag_12:\n      mstore(0x20, 0x00)\n      dup1\n      0x00\n      mstore\n      keccak256(0x00, 0x40)\n      0x00\n      swap2\n      pop\n      swap1\n      pop\n      dup1\n      sload\n      tag_18\n      swap1\n      tag_19\n      jump\t// in\n    tag_18:\n      dup1\n      0x1f\n      add\n      0x20\n      dup1\n      swap2\n      div\n      mul\n      0x20\n      add\n      mload(0x40)\n      swap1\n      dup2\n      add\n      0x40\n      mstore\n      dup1\n      swap3\n      swap2\n      swap1\n      dup2\n      dup2\n      mstore\n      0x20\n      add\n      dup3\n      dup1\n      sload\n      tag_20\n      swap1\n      tag_19\n      jump\t// in\n    tag_20:\n      dup1\n      iszero\n      tag_21\n      jumpi\n      dup1\n      0x1f\n      lt\n      tag_22\n      jumpi\n      0x0100\n      dup1\n      dup4\n      sload\n      div\n      mul\n      dup4\n      mstore\n      swap2\n      0x20\n      add\n      swap2\n      jump(tag_21)\n    tag_22:\n      dup3\n      add\n      swap2\n      swap1\n      0x00\n      mstore\n      keccak256(0x00, 0x20)\n      swap1\n    tag_23:\n      dup2\n      sload\n      dup2\n      mstore\n      swap1\n      0x01\n      add\n      swap1\n      0x20\n      add\n      dup1\n      dup4\n      gt\n      tag_23\n      jumpi\n      dup3\n      swap1\n      sub\n      0x1f\n      and\n      dup3\n      add\n      swap2\n    tag_21:\n      pop\n      pop\n      pop\n      pop\n      pop\n      dup2\n      jump\t// out\n        /* \"#utility.yul\":7:82   */\n    tag_24:\n        /* \"#utility.yul\":40:46   */\n      0x00\n        /* \"#utility.yul\":73:75   */\n      0x40\n        /* \"#utility.yul\":67:76   */\n      mload\n        /* \"#utility.yul\":57:76   */\n      swap1\n      pop\n        /* \"#utility.yul\":7:82   */\n      swap1\n      jump\t// out\n        /* \"#utility.yul\":88:205   */\n    tag_25:\n        /* \"#utility.yul\":197:198   */\n      0x00\n        /* \"#utility.yul\":194:195   */\n      dup1\n        /* \"#utility.yul\":187:199   */\n      revert\n        /* \"#utility.yul\":211:328   */\n    tag_26:\n        /* \"#utility.yul\":320:321   */\n      0x00\n        /* \"#utility.yul\":317:318   */\n      dup1\n        /* \"#utility.yul\":310:322   */\n      revert\n        /* \"#utility.yul\":334:410   */\n    tag_27:\n        /* \"#utility.yul\":370:377   */\n      0x00\n        /* \"#utility.yul\":399:404   */\n      dup2\n        /* \"#utility.yul\":388:404   */\n      swap1\n      pop\n        /* \"#utility.yul\":334:410   */\n      swap2\n      swap1\n      pop\n      jump\t// out\n        /* \"#utility.yul\":416:536   */\n    tag_28:\n        /* \"#utility.yul\":488:511   */\n      tag_67\n        /* \"#utility.yul\":505:510   */\n      dup2\n        /* \"#utility.yul\":488:511   */\n      tag_27\n      jump\t// in\n    tag_67:\n        /* \"#utility.yul\":481:486   */\n      dup2\n        /* \"#utility.yul\":478:512   */\n      eq\n        /* \"#utility.yul\":468:530   */\n      tag_68\n      jumpi\n        /* \"#utility.yul\":526:527   */\n      0x00\n        /* \"#utility.yul\":523:524   */\n      dup1\n        /* \"#utility.yul\":516:528   */\n      revert\n        /* \"#utility.yul\":468:530   */\n    tag_68:\n        /* \"#utility.yul\":416:536   */\n      pop\n      jump\t// out\n        /* \"#utility.yul\":542:679   */\n    tag_29:\n        /* \"#utility.yul\":587:592   */\n      0x00\n        /* \"#utility.yul\":625:631   */\n      dup2\n        /* \"#utility.yul\":612:632   */\n      calldataload\n        /* \"#utility.yul\":603:632   */\n      swap1\n      pop\n        /* \"#utility.yul\":641:673   */\n      tag_70\n        /* \"#utility.yul\":667:672   */\n      dup2\n        /* \"#utility.yul\":641:673   */\n      tag_28\n      jump\t// in\n    tag_70:\n        /* \"#utility.yul\":542:679   */\n      swap3\n      swap2\n      pop\n      pop\n      jump\t// out\n        /* \"#utility.yul\":685:802   */\n    tag_30:\n        /* \"#utility.yul\":794:795   */\n      0x00\n        /* \"#utility.yul\":791:792   */\n      dup1\n        /* \"#utility.yul\":784:796   */\n      revert\n        /* \"#utility.yul\":808:925   */\n    tag_31:\n        /* \"#utility.yul\":917:918   */\n      0x00\n        /* \"#utility.yul\":914:915   */\n      dup1\n        /* \"#utility.yul\":907:919   */\n      revert\n        /* \"#utility.yul\":931:1033   */\n    tag_32:\n        /* \"#utility.yul\":972:978   */\n      0x00\n        /* \"#utility.yul\":1023:1025   */\n      0x1f\n        /* \"#utility.yul\":1019:1026   */\n      not\n        /* \"#utility.yul\":1014:1016   */\n      0x1f\n        /* \"#utility.yul\":1007:1012   */\n      dup4\n        /* \"#utility.yul\":1003:1017   */\n      add\n        /* \"#utility.yul\":999:1027   */\n      and\n        /* \"#utility.yul\":989:1027   */\n      swap1\n      pop\n        /* \"#utility.yul\":931:1033   */\n      swap2\n      swap1\n      pop\n      jump\t// out\n        /* \"#utility.yul\":1039:1219   */\n    tag_33:\n        /* \"#utility.yul\":1087:1164   */\n      0x4e487b7100000000000000000000000000000000000000000000000000000000\n        /* \"#utility.yul\":1084:1085   */\n      0x00\n        /* \"#utility.yul\":1077:1165   */\n      mstore\n        /* \"#utility.yul\":1184:1188   */\n      0x41\n        /* \"#utility.yul\":1181:1182   */\n      0x04\n        /* \"#utility.yul\":1174:1189   */\n      mstore\n        /* \"#utility.yul\":1208:1212   */\n      0x24\n        /* \"#utility.yul\":1205:1206   */\n      0x00\n        /* \"#utility.yul\":1198:1213   */\n      revert\n        /* \"#utility.yul\":1225:1506   */\n    tag_34:\n        /* \"#utility.yul\":1308:1335   */\n      tag_76\n        /* \"#utility.yul\":1330:1334   */\n      dup3\n        /* \"#utility.yul\":1308:1335   */\n      tag_32\n      jump\t// in\n    tag_76:\n        /* \"#utility.yul\":1300:1306   */\n      dup2\n        /* \"#utility.yul\":1296:1336   */\n      add\n        /* \"#utility.yul\":1438:1444   */\n      dup2\n        /* \"#utility.yul\":1426:1436   */\n      dup2\n        /* \"#utility.yul\":1423:1445   */\n      lt\n        /* \"#utility.yul\":1402:1420   */\n      0xffffffffffffffff\n        /* \"#utility.yul\":1390:1400   */\n      dup3\n        /* \"#utility.yul\":1387:1421   */\n      gt\n        /* \"#utility.yul\":1384:1446   */\n      or\n        /* \"#utility.yul\":1381:1469   */\n      iszero\n      tag_77\n      jumpi\n        /* \"#utility.yul\":1449:1467   */\n      tag_78\n      tag_33\n      jump\t// in\n    tag_78:\n        /* \"#utility.yul\":1381:1469   */\n    tag_77:\n        /* \"#utility.yul\":1489:1499   */\n      dup1\n        /* \"#utility.yul\":1485:1487   */\n      0x40\n        /* \"#utility.yul\":1478:1500   */\n      mstore\n        /* \"#utility.yul\":1268:1506   */\n      pop\n        /* \"#utility.yul\":1225:1506   */\n      pop\n      pop\n      jump\t// out\n        /* \"#utility.yul\":1512:1641   */\n    tag_35:\n        /* \"#utility.yul\":1546:1552   */\n      0x00\n        /* \"#utility.yul\":1573:1593   */\n      tag_80\n      tag_24\n      jump\t// in\n    tag_80:\n        /* \"#utility.yul\":1563:1593   */\n      swap1\n      pop\n        /* \"#utility.yul\":1602:1635   */\n      tag_81\n        /* \"#utility.yul\":1630:1634   */\n      dup3\n        /* \"#utility.yul\":1622:1628   */\n      dup3\n        /* \"#utility.yul\":1602:1635   */\n      tag_34\n      jump\t// in\n    tag_81:\n        /* \"#utility.yul\":1512:1641   */\n      swap2\n      swap1\n      pop\n      jump\t// out\n        /* \"#utility.yul\":1647:1955   */\n    tag_36:\n        /* \"#utility.yul\":1709:1713   */\n      0x00\n        /* \"#utility.yul\":1799:1817   */\n      0xffffffffffffffff\n        /* \"#utility.yul\":1791:1797   */\n      dup3\n        /* \"#utility.yul\":1788:1818   */\n      gt\n        /* \"#utility.yul\":1785:1841   */\n      iszero\n      tag_83\n      jumpi\n        /* \"#utility.yul\":1821:1839   */\n      tag_84\n      tag_33\n      jump\t// in\n    tag_84:\n        /* \"#utility.yul\":1785:1841   */\n    tag_83:\n        /* \"#utility.yul\":1859:1888   */\n      tag_85\n        /* \"#utility.yul\":1881:1887   */\n      dup3\n        /* \"#utility.yul\":1859:1888   */\n      tag_32\n      jump\t// in\n    tag_85:\n        /* \"#utility.yul\":1851:1888   */\n      swap1\n      pop\n        /* \"#utility.yul\":1943:1947   */\n      0x20\n        /* \"#utility.yul\":1937:1941   */\n      dup2\n        /* \"#utility.yul\":1933:1948   */\n      add\n        /* \"#utility.yul\":1925:1948   */\n      swap1\n      pop\n        /* \"#utility.yul\":1647:1955   */\n      swap2\n      swap1\n      pop\n      jump\t// out\n        /* \"#utility.yul\":1961:2107   */\n    tag_37:\n        /* \"#utility.yul\":2058:2064   */\n      dup3\n        /* \"#utility.yul\":2053:2056   */\n      dup2\n        /* \"#utility.yul\":2048:2051   */\n      dup4\n        /* \"#utility.yul\":2035:2065   */\n      calldatacopy\n        /* \"#utility.yul\":2099:2100   */\n      0x00\n        /* \"#utility.yul\":2090:2096   */\n      dup4\n        /* \"#utility.yul\":2085:2088   */\n      dup4\n        /* \"#utility.yul\":2081:2097   */\n      add\n        /* \"#utility.yul\":2074:2101   */\n      mstore\n        /* \"#utility.yul\":1961:2107   */\n      pop\n      pop\n      pop\n      jump\t// out\n        /* \"#utility.yul\":2113:2538   */\n    tag_38:\n        /* \"#utility.yul\":2191:2196   */\n      0x00\n        /* \"#utility.yul\":2216:2282   */\n      tag_88\n        /* \"#utility.yul\":2232:2281   */\n      tag_89\n        /* \"#utility.yul\":2274:2280   */\n      dup5\n        /* \"#utility.yul\":2232:2281   */\n      tag_36\n      jump\t// in\n    tag_89:\n        /* \"#utility.yul\":2216:2282   */\n      tag_35\n      jump\t// in\n    tag_88:\n        /* \"#utility.yul\":2207:2282   */\n      swap1\n      pop\n        /* \"#utility.yul\":2305:2311   */\n      dup3\n        /* \"#utility.yul\":2298:2303   */\n      dup2\n        /* \"#utility.yul\":2291:2312   */\n      mstore\n        /* \"#utility.yul\":2343:2347   */\n      0x20\n        /* \"#utility.yul\":2336:2341   */\n      dup2\n        /* \"#utility.yul\":2332:2348   */\n      add\n        /* \"#utility.yul\":2381:2384   */\n      dup5\n        /* \"#utility.yul\":2372:2378   */\n      dup5\n        /* \"#utility.yul\":2367:2370   */\n      dup5\n        /* \"#utility.yul\":2363:2379   */\n      add\n        /* \"#utility.yul\":2360:2385   */\n      gt\n        /* \"#utility.yul\":2357:2469   */\n      iszero\n      tag_90\n      jumpi\n        /* \"#utility.yul\":2388:2467   */\n      tag_91\n      tag_31\n      jump\t// in\n    tag_91:\n        /* \"#utility.yul\":2357:2469   */\n    tag_90:\n        /* \"#utility.yul\":2478:2532   */\n      tag_92\n        /* \"#utility.yul\":2525:2531   */\n      dup5\n        /* \"#utility.yul\":2520:2523   */\n      dup3\n        /* \"#utility.yul\":2515:2518   */\n      dup6\n        /* \"#utility.yul\":2478:2532   */\n      tag_37\n      jump\t// in\n    tag_92:\n        /* \"#utility.yul\":2197:2538   */\n      pop\n        /* \"#utility.yul\":2113:2538   */\n      swap4\n      swap3\n      pop\n      pop\n      pop\n      jump\t// out\n        /* \"#utility.yul\":2558:2898   */\n    tag_39:\n        /* \"#utility.yul\":2614:2619   */\n      0x00\n        /* \"#utility.yul\":2663:2666   */\n      dup3\n        /* \"#utility.yul\":2656:2660   */\n      0x1f\n        /* \"#utility.yul\":2648:2654   */\n      dup4\n        /* \"#utility.yul\":2644:2661   */\n      add\n        /* \"#utility.yul\":2640:2667   */\n      slt\n        /* \"#utility.yul\":2630:2752   */\n      tag_94\n      jumpi\n        /* \"#utility.yul\":2671:2750   */\n      tag_95\n      tag_30\n      jump\t// in\n    tag_95:\n        /* \"#utility.yul\":2630:2752   */\n    tag_94:\n        /* \"#utility.yul\":2788:2794   */\n      dup2\n        /* \"#utility.yul\":2775:2795   */\n      calldataload\n        /* \"#utility.yul\":2813:2892   */\n      tag_96\n        /* \"#utility.yul\":2888:2891   */\n      dup5\n        /* \"#utility.yul\":2880:2886   */\n      dup3\n        /* \"#utility.yul\":2873:2877   */\n      0x20\n        /* \"#utility.yul\":2865:2871   */\n      dup7\n        /* \"#utility.yul\":2861:2878   */\n      add\n        /* \"#utility.yul\":2813:2892   */\n      tag_38\n      jump\t// in\n    tag_96:\n        /* \"#utility.yul\":2804:2892   */\n      swap2\n      pop\n        /* \"#utility.yul\":2620:2898   */\n      pop\n        /* \"#utility.yul\":2558:2898   */\n      swap3\n      swap2\n      pop\n      pop\n      jump\t// out\n        /* \"#utility.yul\":2904:3556   */\n    tag_7:\n        /* \"#utility.yul\":2981:2987   */\n      0x00\n        /* \"#utility.yul\":2989:2995   */\n      dup1\n        /* \"#utility.yul\":3038:3040   */\n      0x40\n        /* \"#utility.yul\":3026:3035   */\n      dup4\n        /* \"#utility.yul\":3017:3024   */\n      dup6\n        /* \"#utility.yul\":3013:3036   */\n      sub\n        /* \"#utility.yul\":3009:3041   */\n      slt\n        /* \"#utility.yul\":3006:3125   */\n      iszero\n      tag_98\n      jumpi\n        /* \"#utility.yul\":3044:3123   */\n      tag_99\n      tag_25\n      jump\t// in\n    tag_99:\n        /* \"#utility.yul\":3006:3125   */\n    tag_98:\n        /* \"#utility.yul\":3164:3165   */\n      0x00\n        /* \"#utility.yul\":3189:3241   */\n      tag_100\n        /* \"#utility.yul\":3233:3240   */\n      dup6\n        /* \"#utility.yul\":3224:3230   */\n      dup3\n        /* \"#utility.yul\":3213:3222   */\n      dup7\n        /* \"#utility.yul\":3209:3231   */\n      add\n        /* \"#utility.yul\":3189:3241   */\n      tag_29\n      jump\t// in\n    tag_100:\n        /* \"#utility.yul\":3179:3241   */\n      swap3\n      pop\n        /* \"#utility.yul\":3135:3251   */\n      pop\n        /* \"#utility.yul\":3318:3320   */\n      0x20\n        /* \"#utility.yul\":3307:3316   */\n      dup4\n        /* \"#utility.yul\":3303:3321   */\n      add\n        /* \"#utility.yul\":3290:3322   */\n      calldataload\n        /* \"#utility.yul\":3349:3367   */\n      0xffffffffffffffff\n        /* \"#utility.yul\":3341:3347   */\n      dup2\n        /* \"#utility.yul\":3338:3368   */\n      gt\n        /* \"#utility.yul\":3335:3452   */\n      iszero\n      tag_101\n      jumpi\n        /* \"#utility.yul\":3371:3450   */\n      tag_102\n      tag_26\n      jump\t// in\n    tag_102:\n        /* \"#utility.yul\":3335:3452   */\n    tag_101:\n        /* \"#utility.yul\":3476:3539   */\n      tag_103\n        /* \"#utility.yul\":3531:3538   */\n      dup6\n        /* \"#utility.yul\":3522:3528   */\n      dup3\n        /* \"#utility.yul\":3511:3520   */\n      dup7\n        /* \"#utility.yul\":3507:3529   */\n      add\n        /* \"#utility.yul\":3476:3539   */\n      tag_39\n      jump\t// in\n    tag_103:\n        /* \"#utility.yul\":3466:3539   */\n      swap2\n      pop\n        /* \"#utility.yul\":3261:3549   */\n      pop\n        /* \"#utility.yul\":2904:3556   */\n      swap3\n      pop\n      swap3\n      swap1\n      pop\n      jump\t// out\n        /* \"#utility.yul\":3562:3889   */\n    tag_11:\n        /* \"#utility.yul\":3620:3626   */\n      0x00\n        /* \"#utility.yul\":3669:3671   */\n      0x20\n        /* \"#utility.yul\":3657:3666   */\n      dup3\n        /* \"#utility.yul\":3648:3655   */\n      dup5\n        /* \"#utility.yul\":3644:3667   */\n      sub\n        /* \"#utility.yul\":3640:3672   */\n      slt\n        /* \"#utility.yul\":3637:3756   */\n      iszero\n      tag_105\n      jumpi\n        /* \"#utility.yul\":3675:3754   */\n      tag_106\n      tag_25\n      jump\t// in\n    tag_106:\n        /* \"#utility.yul\":3637:3756   */\n    tag_105:\n        /* \"#utility.yul\":3795:3796   */\n      0x00\n        /* \"#utility.yul\":3820:3872   */\n      tag_107\n        /* \"#utility.yul\":3864:3871   */\n      dup5\n        /* \"#utility.yul\":3855:3861   */\n      dup3\n        /* \"#utility.yul\":3844:3853   */\n      dup6\n        /* \"#utility.yul\":3840:3862   */\n      add\n        /* \"#utility.yul\":3820:3872   */\n      tag_29\n      jump\t// in\n    tag_107:\n        /* \"#utility.yul\":3810:3872   */\n      swap2\n      pop\n        /* \"#utility.yul\":3766:3882   */\n      pop\n        /* \"#utility.yul\":3562:3889   */\n      swap3\n      swap2\n      pop\n      pop\n      jump\t// out\n        /* \"#utility.yul\":3895:3994   */\n    tag_40:\n        /* \"#utility.yul\":3947:3953   */\n      0x00\n        /* \"#utility.yul\":3981:3986   */\n      dup2\n        /* \"#utility.yul\":3975:3987   */\n      mload\n        /* \"#utility.yul\":3965:3987   */\n      swap1\n      pop\n        /* \"#utility.yul\":3895:3994   */\n      swap2\n      swap1\n      pop\n      jump\t// out\n        /* \"#utility.yul\":4000:4169   */\n    tag_41:\n        /* \"#utility.yul\":4084:4095   */\n      0x00\n        /* \"#utility.yul\":4118:4124   */\n      dup3\n        /* \"#utility.yul\":4113:4116   */\n      dup3\n        /* \"#utility.yul\":4106:4125   */\n      mstore\n        /* \"#utility.yul\":4158:4162   */\n      0x20\n        /* \"#utility.yul\":4153:4156   */\n      dup3\n        /* \"#utility.yul\":4149:4163   */\n      add\n        /* \"#utility.yul\":4134:4163   */\n      swap1\n      pop\n        /* \"#utility.yul\":4000:4169   */\n      swap3\n      swap2\n      pop\n      pop\n      jump\t// out\n        /* \"#utility.yul\":4175:4421   */\n    tag_42:\n        /* \"#utility.yul\":4256:4257   */\n      0x00\n        /* \"#utility.yul\":4266:4379   */\n    tag_111:\n        /* \"#utility.yul\":4280:4286   */\n      dup4\n        /* \"#utility.yul\":4277:4278   */\n      dup2\n        /* \"#utility.yul\":4274:4287   */\n      lt\n        /* \"#utility.yul\":4266:4379   */\n      iszero\n      tag_113\n      jumpi\n        /* \"#utility.yul\":4365:4366   */\n      dup1\n        /* \"#utility.yul\":4360:4363   */\n      dup3\n        /* \"#utility.yul\":4356:4367   */\n      add\n        /* \"#utility.yul\":4350:4368   */\n      mload\n        /* \"#utility.yul\":4346:4347   */\n      dup2\n        /* \"#utility.yul\":4341:4344   */\n      dup5\n        /* \"#utility.yul\":4337:4348   */\n      add\n        /* \"#utility.yul\":4330:4369   */\n      mstore\n        /* \"#utility.yul\":4302:4304   */\n      0x20\n        /* \"#utility.yul\":4299:4300   */\n      dup2\n        /* \"#utility.yul\":4295:4305   */\n      add\n        /* \"#utility.yul\":4290:4305   */\n      swap1\n      pop\n        /* \"#utility.yul\":4266:4379   */\n      jump(tag_111)\n    tag_113:\n        /* \"#utility.yul\":4413:4414   */\n      0x00\n        /* \"#utility.yul\":4404:4410   */\n      dup5\n        /* \"#utility.yul\":4399:4402   */\n      dup5\n        /* \"#utility.yul\":4395:4411   */\n      add\n        /* \"#utility.yul\":4388:4415   */\n      mstore\n        /* \"#utility.yul\":4237:4421   */\n      pop\n        /* \"#utility.yul\":4175:4421   */\n      pop\n      pop\n      pop\n      jump\t// out\n        /* \"#utility.yul\":4427:4804   */\n    tag_43:\n        /* \"#utility.yul\":4515:4518   */\n      0x00\n        /* \"#utility.yul\":4543:4582   */\n      tag_115\n        /* \"#utility.yul\":4576:4581   */\n      dup3\n        /* \"#utility.yul\":4543:4582   */\n      tag_40\n      jump\t// in\n    tag_115:\n        /* \"#utility.yul\":4598:4669   */\n      tag_116\n        /* \"#utility.yul\":4662:4668   */\n      dup2\n        /* \"#utility.yul\":4657:4660   */\n      dup6\n        /* \"#utility.yul\":4598:4669   */\n      tag_41\n      jump\t// in\n    tag_116:\n        /* \"#utility.yul\":4591:4669   */\n      swap4\n      pop\n        /* \"#utility.yul\":4678:4743   */\n      tag_117\n        /* \"#utility.yul\":4736:4742   */\n      dup2\n        /* \"#utility.yul\":4731:4734   */\n      dup6\n        /* \"#utility.yul\":4724:4728   */\n      0x20\n        /* \"#utility.yul\":4717:4722   */\n      dup7\n        /* \"#utility.yul\":4713:4729   */\n      add\n        /* \"#utility.yul\":4678:4743   */\n      tag_42\n      jump\t// in\n    tag_117:\n        /* \"#utility.yul\":4768:4797   */\n      tag_118\n        /* \"#utility.yul\":4790:4796   */\n      dup2\n        /* \"#utility.yul\":4768:4797   */\n      tag_32\n      jump\t// in\n    tag_118:\n        /* \"#utility.yul\":4763:4766   */\n      dup5\n        /* \"#utility.yul\":4759:4798   */\n      add\n        /* \"#utility.yul\":4752:4798   */\n      swap2\n      pop\n        /* \"#utility.yul\":4519:4804   */\n      pop\n        /* \"#utility.yul\":4427:4804   */\n      swap3\n      swap2\n      pop\n      pop\n      jump\t// out\n        /* \"#utility.yul\":4810:5123   */\n    tag_14:\n        /* \"#utility.yul\":4923:4927   */\n      0x00\n        /* \"#utility.yul\":4961:4963   */\n      0x20\n        /* \"#utility.yul\":4950:4959   */\n      dup3\n        /* \"#utility.yul\":4946:4964   */\n      add\n        /* \"#utility.yul\":4938:4964   */\n      swap1\n      pop\n        /* \"#utility.yul\":5010:5019   */\n      dup2\n        /* \"#utility.yul\":5004:5008   */\n      dup2\n        /* \"#utility.yul\":5000:5020   */\n      sub\n        /* \"#utility.yul\":4996:4997   */\n      0x00\n        /* \"#utility.yul\":4985:4994   */\n      dup4\n        /* \"#utility.yul\":4981:4998   */\n      add\n        /* \"#utility.yul\":4974:5021   */\n      mstore\n        /* \"#utility.yul\":5038:5116   */\n      tag_120\n        /* \"#utility.yul\":5111:5115   */\n      dup2\n        /* \"#utility.yul\":5102:5108   */\n      dup5\n        /* \"#utility.yul\":5038:5116   */\n      tag_43\n      jump\t// in\n    tag_120:\n        /* \"#utility.yul\":5030:5116   */\n      swap1\n      pop\n        /* \"#utility.yul\":4810:5123   */\n      swap3\n      swap2\n      pop\n      pop\n      jump\t// out\n        /* \"#utility.yul\":5129:5309   */\n    tag_44:\n        /* \"#utility.yul\":5177:5254   */\n      0x4e487b7100000000000000000000000000000000000000000000000000000000\n        /* \"#utility.yul\":5174:5175   */\n      0x00\n        /* \"#utility.yul\":5167:5255   */\n      mstore\n        /* \"#utility.yul\":5274:5278   */\n      0x22\n        /* \"#utility.yul\":5271:5272   */\n      0x04\n        /* \"#utility.yul\":5264:5279   */\n      mstore\n        /* \"#utility.yul\":5298:5302   */\n      0x24\n        /* \"#utility.yul\":5295:5296   */\n      0x00\n        /* \"#utility.yul\":5288:5303   */\n      revert\n        /* \"#utility.yul\":5315:5635   */\n    tag_19:\n        /* \"#utility.yul\":5359:5365   */\n      0x00\n        /* \"#utility.yul\":5396:5397   */\n      0x02\n        /* \"#utility.yul\":5390:5394   */\n      dup3\n        /* \"#utility.yul\":5386:5398   */\n      div\n        /* \"#utility.yul\":5376:5398   */\n      swap1\n      pop\n        /* \"#utility.yul\":5443:5444   */\n      0x01\n        /* \"#utility.yul\":5437:5441   */\n      dup3\n        /* \"#utility.yul\":5433:5445   */\n      and\n        /* \"#utility.yul\":5464:5482   */\n      dup1\n        /* \"#utility.yul\":5454:5535   */\n      tag_123\n      jumpi\n        /* \"#utility.yul\":5520:5524   */\n      0x7f\n        /* \"#utility.yul\":5512:5518   */\n      dup3\n        /* \"#utility.yul\":5508:5525   */\n      and\n        /* \"#utility.yul\":5498:5525   */\n      swap2\n      pop\n        /* \"#utility.yul\":5454:5535   */\n    tag_123:\n        /* \"#utility.yul\":5582:5584   */\n      0x20\n        /* \"#utility.yul\":5574:5580   */\n      dup3\n        /* \"#utility.yul\":5571:5585   */\n      lt\n        /* \"#utility.yul\":5551:5569   */\n      dup2\n        /* \"#utility.yul\":5548:5586   */\n      sub\n        /* \"#utility.yul\":5545:5629   */\n      tag_124\n      jumpi\n        /* \"#utility.yul\":5601:5619   */\n      tag_125\n      tag_44\n      jump\t// in\n    tag_125:\n        /* \"#utility.yul\":5545:5629   */\n    tag_124:\n        /* \"#utility.yul\":5366:5635   */\n      pop\n        /* \"#utility.yul\":5315:5635   */\n      swap2\n      swap1\n      pop\n      jump\t// out\n        /* \"#utility.yul\":5641:5782   */\n    tag_45:\n        /* \"#utility.yul\":5690:5694   */\n      0x00\n        /* \"#utility.yul\":5713:5716   */\n      dup2\n        /* \"#utility.yul\":5705:5716   */\n      swap1\n      pop\n        /* \"#utility.yul\":5736:5739   */\n      dup2\n        /* \"#utility.yul\":5733:5734   */\n      0x00\n        /* \"#utility.yul\":5726:5740   */\n      mstore\n        /* \"#utility.yul\":5770:5774   */\n      0x20\n        /* \"#utility.yul\":5767:5768   */\n      0x00\n        /* \"#utility.yul\":5757:5775   */\n      keccak256\n        /* \"#utility.yul\":5749:5775   */\n      swap1\n      pop\n        /* \"#utility.yul\":5641:5782   */\n      swap2\n      swap1\n      pop\n      jump\t// out\n        /* \"#utility.yul\":5788:5881   */\n    tag_46:\n        /* \"#utility.yul\":5825:5831   */\n      0x00\n        /* \"#utility.yul\":5872:5874   */\n      0x20\n        /* \"#utility.yul\":5867:5869   */\n      0x1f\n        /* \"#utility.yul\":5860:5865   */\n      dup4\n        /* \"#utility.yul\":5856:5870   */\n      add\n        /* \"#utility.yul\":5852:5875   */\n      div\n        /* \"#utility.yul\":5842:5875   */\n      swap1\n      pop\n        /* \"#utility.yul\":5788:5881   */\n      swap2\n      swap1\n      pop\n      jump\t// out\n        /* \"#utility.yul\":5887:5994   */\n    tag_47:\n        /* \"#utility.yul\":5931:5939   */\n      0x00\n        /* \"#utility.yul\":5981:5986   */\n      dup3\n        /* \"#utility.yul\":5975:5979   */\n      dup3\n        /* \"#utility.yul\":5971:5987   */\n      shl\n        /* \"#utility.yul\":5950:5987   */\n      swap1\n      pop\n        /* \"#utility.yul\":5887:5994   */\n      swap3\n      swap2\n      pop\n      pop\n      jump\t// out\n        /* \"#utility.yul\":6000:6393   */\n    tag_48:\n        /* \"#utility.yul\":6069:6075   */\n      0x00\n        /* \"#utility.yul\":6119:6120   */\n      0x08\n        /* \"#utility.yul\":6107:6117   */\n      dup4\n        /* \"#utility.yul\":6103:6121   */\n      mul\n        /* \"#utility.yul\":6142:6239   */\n      tag_130\n        /* \"#utility.yul\":6172:6238   */\n      0xffffffffffffffffffffffffffffffffffffffffffffffffffffffffffffffff\n        /* \"#utility.yul\":6161:6170   */\n      dup3\n        /* \"#utility.yul\":6142:6239   */\n      tag_47\n      jump\t// in\n    tag_130:\n        /* \"#utility.yul\":6260:6299   */\n      tag_131\n        /* \"#utility.yul\":6290:6298   */\n      dup7\n        /* \"#utility.yul\":6279:6288   */\n      dup4\n        /* \"#utility.yul\":6260:6299   */\n      tag_47\n      jump\t// in\n    tag_131:\n        /* \"#utility.yul\":6248:6299   */\n      swap6\n      pop\n        /* \"#utility.yul\":6332:6336   */\n      dup1\n        /* \"#utility.yul\":6328:6337   */\n      not\n        /* \"#utility.yul\":6321:6326   */\n      dup5\n        /* \"#utility.yul\":6317:6338   */\n      and\n        /* \"#utility.yul\":6308:6338   */\n      swap4\n      pop\n        /* \"#utility.yul\":6381:6385   */\n      dup1\n        /* \"#utility.yul\":6371:6379   */\n      dup7\n        /* \"#utility.yul\":6367:6386   */\n      and\n        /* \"#utility.yul\":6360:6365   */\n      dup5\n        /* \"#utility.yul\":6357:6387   */\n      or\n        /* \"#utility.yul\":6347:6387   */\n      swap3\n      pop\n        /* \"#utility.yul\":6076:6393   */\n      pop\n      pop\n        /* \"#utility.yul\":6000:6393   */\n      swap4\n      swap3\n      pop\n      pop\n      pop\n      jump\t// out\n        /* \"#utility.yul\":6399:6476   */\n    tag_49:\n        /* \"#utility.yul\":6436:6443   */\n      0x00\n        /* \"#utility.yul\":6465:6470   */\n      dup2\n        /* \"#utility.yul\":6454:6470   */\n      swap1\n      pop\n        /* \"#utility.yul\":6399:6476   */\n      swap2\n      swap1\n      pop\n      jump\t// out\n        /* \"#utility.yul\":6482:6542   */\n    tag_50:\n        /* \"#utility.yul\":6510:6513   */\n      0x00\n        /* \"#utility.yul\":6531:6536   */\n      dup2\n        /* \"#utility.yul\":6524:6536   */\n      swap1\n      pop\n        /* \"#utility.yul\":6482:6542   */\n      swap2\n      swap1\n      pop\n      jump\t// out\n        /* \"#utility.yul\":6548:6690   */\n    tag_51:\n        /* \"#utility.yul\":6598:6607   */\n      0x00\n        /* \"#utility.yul\":6631:6684   */\n      tag_135\n        /* \"#utility.yul\":6649:6683   */\n      tag_136\n        /* \"#utility.yul\":6658:6682   */\n      tag_137\n        /* \"#utility.yul\":6676:6681   */\n      dup5\n        /* \"#utility.yul\":6658:6682   */\n      tag_49\n      jump\t// in\n    tag_137:\n        /* \"#utility.yul\":6649:6683   */\n      tag_50\n      jump\t// in\n    tag_136:\n        /* \"#utility.yul\":6631:6684   */\n      tag_49\n      jump\t// in\n    tag_135:\n        /* \"#utility.yul\":6618:6684   */\n      swap1\n      pop\n        /* \"#utility.yul\":6548:6690   */\n      swap2\n      swap1\n      pop\n      jump\t// out\n        /* \"#utility.yul\":6696:6771   */\n    tag_52:\n        /* \"#utility.yul\":6739:6742   */\n      0x00\n        /* \"#utility.yul\":6760:6765   */\n      dup2\n        /* \"#utility.yul\":6753:6765   */\n      swap1\n      pop\n        /* \"#utility.yul\":6696:6771   */\n      swap2\n      swap1\n      pop\n      jump\t// out\n        /* \"#utility.yul\":6777:7046   */\n    tag_53:\n        /* \"#utility.yul\":6887:6926   */\n      tag_140\n        /* \"#utility.yul\":6918:6925   */\n      dup4\n        /* \"#utility.yul\":6887:6926   */\n      tag_51\n      jump\t// in\n    tag_140:\n        /* \"#utility.yul\":6948:7039   */\n      tag_141\n        /* \"#utility.yul\":6997:7038   */\n      tag_142\n        /* \"#utility.yul\":7021:7037   */\n      dup3\n        /* \"#utility.yul\":6997:7038   */\n      tag_52\n      jump\t// in\n    tag_142:\n        /* \"#utility.yul\":6989:6995   */\n      dup5\n        /* \"#utility.yul\":6982:6986   */\n      dup5\n        /* \"#utility.yul\":6976:6987   */\n      sload\n        /* \"#utility.yul\":6948:7039   */\n      tag_48\n      jump\t// in\n    tag_141:\n        /* \"#utility.yul\":6942:6946   */\n      dup3\n        /* \"#utility.yul\":6935:7040   */\n      sstore\n        /* \"#utility.yul\":6853:7046   */\n      pop\n        /* \"#utility.yul\":6777:7046   */\n      pop\n      pop\n      pop\n      jump\t// out\n        /* \"#utility.yul\":7052:7125   */\n    tag_54:\n        /* \"#utility.yul\":7097:7100   */\n      0x00\n        /* \"#utility.yul\":7052:7125   */\n      swap1\n      jump\t// out\n        /* \"#utility.yul\":7131:7320   */\n    tag_55:\n        /* \"#utility.yul\":7208:7240   */\n      tag_145\n      tag_54\n      jump\t// in\n    tag_145:\n        /* \"#utility.yul\":7249:7314   */\n      tag_146\n        /* \"#utility.yul\":7307:7313   */\n      dup2\n        /* \"#utility.yul\":7299:7305   */\n      dup5\n        /* \"#utility.yul\":7293:7297   */\n      dup5\n        /* \"#utility.yul\":7249:7314   */\n      tag_53\n      jump\t// in\n    tag_146:\n        /* \"#utility.yul\":7184:7320   */\n      pop\n        /* \"#utility.yul\":7131:7320   */\n      pop\n      pop\n      jump\t// out\n        /* \"#utility.yul\":7326:7512   */\n    tag_56:\n        /* \"#utility.yul\":7386:7506   */\n    tag_148:\n        /* \"#utility.yul\":7403:7406   */\n      dup2\n        /* \"#utility.yul\":7396:7401   */\n      dup2\n        /* \"#utility.yul\":7393:7407   */\n      lt\n        /* \"#utility.yul\":7386:7506   */\n      iszero\n      tag_150\n      jumpi\n        /* \"#utility.yul\":7457:7496   */\n      tag_151\n        /* \"#utility.yul\":7494:7495   */\n      0x00\n        /* \"#utility.yul\":7487:7492   */\n      dup3\n        /* \"#utility.yul\":7457:7496   */\n      tag_55\n      jump\t// in\n    tag_151:\n        /* \"#utility.yul\":7430:7431   */\n      0x01\n        /* \"#utility.yul\":7423:7428   */\n      dup2\n        /* \"#utility.yul\":7419:7432   */\n      add\n        /* \"#utility.yul\":7410:7432   */\n      swap1\n      pop\n        /* \"#utility.yul\":7386:7506   */\n      jump(tag_148)\n    tag_150:\n        /* \"#utility.yul\":7326:7512   */\n      pop\n      pop\n      jump\t// out\n        /* \"#utility.yul\":7518:8061   */\n    tag_57:\n        /* \"#utility.yul\":7619:7621   */\n      0x1f\n        /* \"#utility.yul\":7614:7617   */\n      dup3\n        /* \"#utility.yul\":7611:7622   */\n      gt\n        /* \"#utility.yul\":7608:8054   */\n      iszero\n      tag_153\n      jumpi\n        /* \"#utility.yul\":7653:7691   */\n      tag_154\n        /* \"#utility.yul\":7685:7690   */\n      dup2\n        /* \"#utility.yul\":7653:7691   */\n      tag_45\n      jump\t// in\n    tag_154:\n        /* \"#utility.yul\":7737:7766   */\n      tag_155\n        /* \"#utility.yul\":7755:7765   */\n      dup5\n        /* \"#utility.yul\":7737:7766   */\n      tag_46\n      jump\t// in\n    tag_155:\n        /* \"#utility.yul\":7727:7735   */\n      dup2\n        /* \"#utility.yul\":7723:7767   */\n      add\n        /* \"#utility.yul\":7920:7922   */\n      0x20\n        /* \"#utility.yul\":7908:7918   */\n      dup6\n        /* \"#utility.yul\":7905:7923   */\n      lt\n        /* \"#utility.yul\":7902:7951   */\n      iszero\n      tag_156\n      jumpi\n        /* \"#utility.yul\":7941:7949   */\n      dup2\n        /* \"#utility.yul\":7926:7949   */\n      swap1\n      pop\n        /* \"#utility.yul\":7902:7951   */\n    tag_156:\n        /* \"#utility.yul\":7964:8044   */\n      tag_157\n        /* \"#utility.yul\":8020:8042   */\n      tag_158\n        /* \"#utility.yul\":8038:8041   */\n      dup6\n        /* \"#utility.yul\":8020:8042   */\n      tag_46\n      jump\t// in\n    tag_158:\n        /* \"#utility.yul\":8010:8018   */\n      dup4\n        /* \"#utility.yul\":8006:8043   */\n      add\n        /* \"#utility.yul\":7993:8004   */\n      dup3\n        /* \"#utility.yul\":7964:8044   */\n      tag_56\n      jump\t// in\n    tag_157:\n        /* \"#utility.yul\":7623:8054   */\n      pop\n      pop\n        /* \"#utility.yul\":7608:8054   */\n    tag_153:\n        /* \"#utility.yul\":7518:8061   */\n      pop\n      pop\n      pop\n      jump\t// out\n        /* \"#utility.yul\":8067:8184   */\n    tag_58:\n        /* \"#utility.yul\":8121:8129   */\n      0x00\n        /* \"#utility.yul\":8171:8176   */\n      dup3\n        /* \"#utility.yul\":8165:8169   */\n      dup3\n        /* \"#utility.yul\":8161:8177   */\n      shr\n        /* \"#utility.yul\":8140:8177   */\n      swap1\n      pop\n        /* \"#utility.yul\":8067:8184   */\n      swap3\n      swap2\n      pop\n      pop\n      jump\t// out\n        /* \"#utility.yul\":8190:8359   */\n    tag_59:\n        /* \"#utility.yul\":8234:8240   */\n      0x00\n        /* \"#utility.yul\":8267:8318   */\n      tag_161\n        /* \"#utility.yul\":8315:8316   */\n      0x00\n        /* \"#utility.yul\":8311:8317   */\n      not\n        /* \"#utility.yul\":8303:8308   */\n      dup5\n        /* \"#utility.yul\":8300:8301   */\n      0x08\n        /* \"#utility.yul\":8296:8309   */\n      mul\n        /* \"#utility.yul\":8267:8318   */\n      tag_58\n      jump\t// in\n    tag_161:\n        /* \"#utility.yul\":8263:8319   */\n      not\n        /* \"#utility.yul\":8348:8352   */\n      dup1\n        /* \"#utility.yul\":8342:8346   */\n      dup4\n        /* \"#utility.yul\":8338:8353   */\n      and\n        /* \"#utility.yul\":8328:8353   */\n      swap2\n      pop\n        /* \"#utility.yul\":8241:8359   */\n      pop\n        /* \"#utility.yul\":8190:8359   */\n      swap3\n      swap2\n      pop\n      pop\n      jump\t// out\n        /* \"#utility.yul\":8364:8659   */\n    tag_60:\n        /* \"#utility.yul\":8440:8444   */\n      0x00\n        /* \"#utility.yul\":8586:8615   */\n      tag_163\n        /* \"#utility.yul\":8611:8614   */\n      dup4\n        /* \"#utility.yul\":8605:8609   */\n      dup4\n        /* \"#utility.yul\":8586:8615   */\n      tag_59\n      jump\t// in\n    tag_163:\n        /* \"#utility.yul\":8578:8615   */\n      swap2\n      pop\n        /* \"#utility.yul\":8648:8651   */\n      dup3\n        /* \"#utility.yul\":8645:8646   */\n      0x02\n        /* \"#utility.yul\":8641:8652   */\n      mul\n        /* \"#utility.yul\":8635:8639   */\n      dup3\n        /* \"#utility.yul\":8632:8653   */\n      or\n        /* \"#utility.yul\":8624:8653   */\n      swap1\n      pop\n        /* \"#utility.yul\":8364:8659   */\n      swap3\n      swap2\n      pop\n      pop\n      jump\t// out\n        /* \"#utility.yul\":8664:10059   */\n    tag_17:\n        /* \"#utility.yul\":8781:8818   */\n      tag_165\n        /* \"#utility.yul\":8814:8817   */\n      dup3\n        /* \"#utility.yul\":8781:8818   */\n      tag_40\n      jump\t// in\n    tag_165:\n        /* \"#utility.yul\":8883:8901   */\n      0xffffffffffffffff\n        /* \"#utility.yul\":8875:8881   */\n      dup2\n        /* \"#utility.yul\":8872:8902   */\n      gt\n        /* \"#utility.yul\":8869:8925   */\n      iszero\n      tag_166\n      jumpi\n        /* \"#utility.yul\":8905:8923   */\n      tag_167\n      tag_33\n      jump\t// in\n    tag_167:\n        /* \"#utility.yul\":8869:8925   */\n    tag_166:\n        /* \"#utility.yul\":8949:8987   */\n      tag_168\n        /* \"#utility.yul\":8981:8985   */\n      dup3\n        /* \"#utility.yul\":8975:8986   */\n      sload\n        /* \"#utility.yul\":8949:8987   */\n      tag_19\n      jump\t// in\n    tag_168:\n        /* \"#utility.yul\":9034:9101   */\n      tag_169\n        /* \"#utility.yul\":9094:9100   */\n      dup3\n        /* \"#utility.yul\":9086:9092   */\n      dup3\n        /* \"#utility.yul\":9080:9084   */\n      dup6\n        /* \"#utility.yul\":9034:9101   */\n      tag_57\n      jump\t// in\n    tag_169:\n        /* \"#utility.yul\":9128:9129   */\n      0x00\n        /* \"#utility.yul\":9152:9156   */\n      0x20\n        /* \"#utility.yul\":9139:9156   */\n      swap1\n      pop\n        /* \"#utility.yul\":9184:9186   */\n      0x1f\n        /* \"#utility.yul\":9176:9182   */\n      dup4\n        /* \"#utility.yul\":9173:9187   */\n      gt\n        /* \"#utility.yul\":9201:9202   */\n      0x01\n        /* \"#utility.yul\":9196:9814   */\n      dup2\n      eq\n      tag_171\n      jumpi\n        /* \"#utility.yul\":9858:9859   */\n      0x00\n        /* \"#utility.yul\":9875:9881   */\n      dup5\n        /* \"#utility.yul\":9872:9949   */\n      iszero\n      tag_172\n      jumpi\n        /* \"#utility.yul\":9924:9933   */\n      dup3\n        /* \"#utility.yul\":9919:9922   */\n      dup8\n        /* \"#utility.yul\":9915:9934   */\n      add\n        /* \"#utility.yul\":9909:9935   */\n      mload\n        /* \"#utility.yul\":9900:9935   */\n      swap1\n      pop\n        /* \"#utility.yul\":9872:9949   */\n    tag_172:\n        /* \"#utility.yul\":9975:10042   */\n      tag_173\n        /* \"#utility.yul\":10035:10041   */\n      dup6\n        /* \"#utility.yul\":10028:10033   */\n      dup3\n        /* \"#utility.yul\":9975:10042   */\n      tag_60\n      jump\t// in\n    tag_173:\n        /* \"#utility.yul\":9969:9973   */\n      dup7\n        /* \"#utility.yul\":9962:10043   */\n      sstore\n        /* \"#utility.yul\":9831:10053   */\n      pop\n        /* \"#utility.yul\":9166:10053   */\n      jump(tag_170)\n        /* \"#utility.yul\":9196:9814   */\n    tag_171:\n        /* \"#utility.yul\":9248:9252   */\n      0x1f\n        /* \"#utility.yul\":9244:9253   */\n      not\n        /* \"#utility.yul\":9236:9242   */\n      dup5\n        /* \"#utility.yul\":9232:9254   */\n      and\n        /* \"#utility.yul\":9282:9319   */\n      tag_174\n        /* \"#utility.yul\":9314:9318   */\n      dup7\n        /* \"#utility.yul\":9282:9319   */\n      tag_45\n      jump\t// in\n    tag_174:\n        /* \"#utility.yul\":9341:9342   */\n      0x00\n        /* \"#utility.yul\":9355:9563   */\n    tag_175:\n        /* \"#utility.yul\":9369:9376   */\n      dup3\n        /* \"#utility.yul\":9366:9367   */\n      dup2\n        /* \"#utility.yul\":9363:9377   */\n      lt\n        /* \"#utility.yul\":9355:9563   */\n      iszero\n      tag_177\n      jumpi\n        /* \"#utility.yul\":9448:9457   */\n      dup5\n        /* \"#utility.yul\":9443:9446   */\n      dup10\n        /* \"#utility.yul\":9439:9458   */\n      add\n        /* \"#utility.yul\":9433:9459   */\n      mload\n        /* \"#utility.yul\":9425:9431   */\n      dup3\n        /* \"#utility.yul\":9418:9460   */\n      sstore\n        /* \"#utility.yul\":9499:9500   */\n      0x01\n        /* \"#utility.yul\":9491:9497   */\n      dup3\n        /* \"#utility.yul\":9487:9501   */\n      add\n        /* \"#utility.yul\":9477:9501   */\n      swap2\n      pop\n        /* \"#utility.yul\":9546:9548   */\n      0x20\n        /* \"#utility.yul\":9535:9544   */\n      dup6\n        /* \"#utility.yul\":9531:9549   */\n      add\n        /* \"#utility.yul\":9518:9549   */\n      swap5\n      pop\n        /* \"#utility.yul\":9392:9396   */\n      0x20\n        /* \"#utility.yul\":9389:9390   */\n      dup2\n        /* \"#utility.yul\":9385:9397   */\n      add\n        /* \"#utility.yul\":9380:9397   */\n      swap1\n      pop\n        /* \"#utility.yul\":9355:9563   */\n      jump(tag_175)\n    tag_177:\n        /* \"#utility.yul\":9591:9597   */\n      dup7\n        /* \"#utility.yul\":9582:9589   */\n      dup4\n        /* \"#utility.yul\":9579:9598   */\n      lt\n        /* \"#utility.yul\":9576:9755   */\n      iszero\n      tag_178\n      jumpi\n        /* \"#utility.yul\":9649:9658   */\n      dup5\n        /* \"#utility.yul\":9644:9647   */\n      dup10\n        /* \"#utility.yul\":9640:9659   */\n      add\n        /* \"#utility.yul\":9634:9660   */\n      mload\n        /* \"#utility.yul\":9692:9740   */\n      tag_179\n        /* \"#utility.yul\":9734:9738   */\n      0x1f\n        /* \"#utility.yul\":9726:9732   */\n      dup10\n        /* \"#utility.yul\":9722:9739   */\n      and\n        /* \"#utility.yul\":9711:9720   */\n      dup3\n        /* \"#utility.yul\":9692:9740   */\n      tag_59\n      jump\t// in\n    tag_179:\n        /* \"#utility.yul\":9684:9690   */\n      dup4\n        /* \"#utility.yul\":9677:9741   */\n      sstore\n        /* \"#utility.yul\":9599:9755   */\n      pop\n        /* \"#utility.yul\":9576:9755   */\n    tag_178:\n        /* \"#utility.yul\":9801:9802   */\n      0x01\n        /* \"#utility.yul\":9797:9798   */\n      0x02\n        /* \"#utility.yul\":9789:9795   */\n      dup9\n        /* \"#utility.yul\":9785:9799   */\n      mul\n        /* \"#utility.yul\":9781:9803   */\n      add\n        /* \"#utility.yul\":9775:9779   */\n      dup9\n        /* \"#utility.yul\":9768:9804   */\n      sstore\n        /* \"#utility.yul\":9203:9814   */\n      pop\n      pop\n      pop\n        /* \"#utility.yul\":9166:10053   */\n    tag_170:\n      pop\n        /* \"#utility.yul\":8756:10059   */\n      pop\n      pop\n      pop\n        /* \"#utility.yul\":8664:10059   */\n      pop\n      pop\n      jump\t// out\n\n    auxdata: 0xa26469706673582212206c3e5537b230e878517d5122bbbc19572a4bdf2e50ecacbfae3716da5821fd7c64736f6c63430008140033\n}\n",
				"bytecode": {
					"linkReferences": {},
					"object": "608060405234801561000f575f80fd5b506106e78061001d5f395ff3fe608060405234801561000f575f80fd5b5060043610610034575f3560e01c80636759d43d146100385780639d9defb214610054575b5f80fd5b610052600480360381019061004d91906102c0565b610084565b005b61006e6004803603810190610069919061031a565b6100a6565b60405161007b91906103bf565b60405180910390f35b805f808481526020019081526020015f2090816100a191906105e2565b505050565b5f602052805f5260405f205f9150905080546100c19061040c565b80601f01602080910402602001604051908101604052809291908181526020018280546100ed9061040c565b80156101385780601f1061010f57610100808354040283529160200191610138565b820191905f5260205f20905b81548152906001019060200180831161011b57829003601f168201915b505050505081565b5f604051905090565b5f80fd5b5f80fd5b5f819050919050565b61016381610151565b811461016d575f80fd5b50565b5f8135905061017e8161015a565b92915050565b5f80fd5b5f80fd5b5f601f19601f8301169050919050565b7f4e487b71000000000000000000000000000000000000000000000000000000005f52604160045260245ffd5b6101d28261018c565b810181811067ffffffffffffffff821117156101f1576101f061019c565b5b80604052505050565b5f610203610140565b905061020f82826101c9565b919050565b5f67ffffffffffffffff82111561022e5761022d61019c565b5b6102378261018c565b9050602081019050919050565b828183375f83830152505050565b5f61026461025f84610214565b6101fa565b9050828152602081018484840111156102805761027f610188565b5b61028b848285610244565b509392505050565b5f82601f8301126102a7576102a6610184565b5b81356102b7848260208601610252565b91505092915050565b5f80604083850312156102d6576102d5610149565b5b5f6102e385828601610170565b925050602083013567ffffffffffffffff8111156103045761030361014d565b5b61031085828601610293565b9150509250929050565b5f6020828403121561032f5761032e610149565b5b5f61033c84828501610170565b91505092915050565b5f81519050919050565b5f82825260208201905092915050565b5f5b8381101561037c578082015181840152602081019050610361565b5f8484015250505050565b5f61039182610345565b61039b818561034f565b93506103ab81856020860161035f565b6103b48161018c565b840191505092915050565b5f6020820190508181035f8301526103d78184610387565b905092915050565b7f4e487b71000000000000000000000000000000000000000000000000000000005f52602260045260245ffd5b5f600282049050600182168061042357607f821691505b602082108103610436576104356103df565b5b50919050565b5f819050815f5260205f209050919050565b5f6020601f8301049050919050565b5f82821b905092915050565b5f600883026104987fffffffffffffffffffffffffffffffffffffffffffffffffffffffffffffffff8261045d565b6104a2868361045d565b95508019841693508086168417925050509392505050565b5f819050919050565b5f819050919050565b5f6104e66104e16104dc846104ba565b6104c3565b6104ba565b9050919050565b5f819050919050565b6104ff836104cc565b61051361050b826104ed565b848454610469565b825550505050565b5f90565b61052761051b565b6105328184846104f6565b505050565b5b818110156105555761054a5f8261051f565b600181019050610538565b5050565b601f82111561059a5761056b8161043c565b6105748461044e565b81016020851015610583578190505b61059761058f8561044e565b830182610537565b50505b505050565b5f82821c905092915050565b5f6105ba5f198460080261059f565b1980831691505092915050565b5f6105d283836105ab565b9150826002028217905092915050565b6105eb82610345565b67ffffffffffffffff8111156106045761060361019c565b5b61060e825461040c565b610619828285610559565b5f60209050601f83116001811461064a575f8415610638578287015190505b61064285826105c7565b8655506106a9565b601f1984166106588661043c565b5f5b8281101561067f5784890151825560018201915060208501945060208101905061065a565b8683101561069c5784890151610698601f8916826105ab565b8355505b6001600288020188555050505b50505050505056fea26469706673582212206c3e5537b230e878517d5122bbbc19572a4bdf2e50ecacbfae3716da5821fd7c64736f6c63430008140033",
					"opcodes": "PUSH1 0x80 PUSH1 0x40 MSTORE CALLVALUE DUP1 ISZERO PUSH2 0xF JUMPI PUSH0 DUP1 REVERT JUMPDEST POP PUSH2 0x6E7 DUP1 PUSH2 0x1D PUSH0 CODECOPY PUSH0 RETURN INVALID PUSH1 0x80 PUSH1 0x40 MSTORE CALLVALUE DUP1 ISZERO PUSH2 0xF JUMPI PUSH0 DUP1 REVERT JUMPDEST POP PUSH1 0x4 CALLDATASIZE LT PUSH2 0x34 JUMPI PUSH0 CALLDATALOAD PUSH1 0xE0 SHR DUP1 PUSH4 0x6759D43D EQ PUSH2 0x38 JUMPI DUP1 PUSH4 0x9D9DEFB2 EQ PUSH2 0x54 JUMPI JUMPDEST PUSH0 DUP1 REVERT JUMPDEST PUSH2 0x52 PUSH1 0x4 DUP1 CALLDATASIZE SUB DUP2 ADD SWAP1 PUSH2 0x4D SWAP2 SWAP1 PUSH2 0x2C0 JUMP JUMPDEST PUSH2 0x84 JUMP JUMPDEST STOP JUMPDEST PUSH2 0x6E PUSH1 0x4 DUP1 CALLDATASIZE SUB DUP2 ADD SWAP1 PUSH2 0x69 SWAP2 SWAP1 PUSH2 0x31A JUMP JUMPDEST PUSH2 0xA6 JUMP JUMPDEST PUSH1 0x40 MLOAD PUSH2 0x7B SWAP2 SWAP1 PUSH2 0x3BF JUMP JUMPDEST PUSH1 0x40 MLOAD DUP1 SWAP2 SUB SWAP1 RETURN JUMPDEST DUP1 PUSH0 DUP1 DUP5 DUP2 MSTORE PUSH1 0x20 ADD SWAP1 DUP2 MSTORE PUSH1 0x20 ADD PUSH0 KECCAK256 SWAP1 DUP2 PUSH2 0xA1 SWAP2 SWAP1 PUSH2 0x5E2 JUMP JUMPDEST POP POP POP JUMP JUMPDEST PUSH0 PUSH1 0x20 MSTORE DUP1 PUSH0 MSTORE PUSH1 0x40 PUSH0 KECCAK256 PUSH0 SWAP2 POP SWAP1 POP DUP1 SLOAD PUSH2 0xC1 SWAP1 PUSH2 0x40C JUMP JUMPDEST DUP1 PUSH1 0x1F ADD PUSH1 0x20 DUP1 SWAP2 DIV MUL PUSH1 0x20 ADD PUSH1 0x40 MLOAD SWAP1 DUP2 ADD PUSH1 0x40 MSTORE DUP1 SWAP3 SWAP2 SWAP1 DUP2 DUP2 MSTORE PUSH1 0x20 ADD DUP3 DUP1 SLOAD PUSH2 0xED SWAP1 PUSH2 0x40C JUMP JUMPDEST DUP1 ISZERO PUSH2 0x138 JUMPI DUP1 PUSH1 0x1F LT PUSH2 0x10F JUMPI PUSH2 0x100 DUP1 DUP4 SLOAD DIV MUL DUP4 MSTORE SWAP2 PUSH1 0x20 ADD SWAP2 PUSH2 0x138 JUMP JUMPDEST DUP3 ADD SWAP2 SWAP1 PUSH0 MSTORE PUSH1 0x20 PUSH0 KECCAK256 SWAP1 JUMPDEST DUP2 SLOAD DUP2 MSTORE SWAP1 PUSH1 0x1 ADD SWAP1 PUSH1 0x20 ADD DUP1 DUP4 GT PUSH2 0x11B JUMPI DUP3 SWAP1 SUB PUSH1 0x1F AND DUP3 ADD SWAP2 JUMPDEST POP POP POP POP POP DUP2 JUMP JUMPDEST PUSH0 PUSH1 0x40 MLOAD SWAP1 POP SWAP1 JUMP JUMPDEST PUSH0 DUP1 REVERT JUMPDEST PUSH0 DUP1 REVERT JUMPDEST PUSH0 DUP2 SWAP1 POP SWAP2 SWAP1 POP JUMP JUMPDEST PUSH2 0x163 DUP2 PUSH2 0x151 JUMP JUMPDEST DUP2 EQ PUSH2 0x16D JUMPI PUSH0 DUP1 REVERT JUMPDEST POP JUMP JUMPDEST PUSH0 DUP2 CALLDATALOAD SWAP1 POP PUSH2 0x17E DUP2 PUSH2 0x15A JUMP JUMPDEST SWAP3 SWAP2 POP POP JUMP JUMPDEST PUSH0 DUP1 REVERT JUMPDEST PUSH0 DUP1 REVERT JUMPDEST PUSH0 PUSH1 0x1F NOT PUSH1 0x1F DUP4 ADD AND SWAP1 POP SWAP2 SWAP1 POP JUMP JUMPDEST PUSH32 0x4E487B7100000000000000000000000000000000000000000000000000000000 PUSH0 MSTORE PUSH1 0x41 PUSH1 0x4 MSTORE PUSH1 0x24 PUSH0 REVERT JUMPDEST PUSH2 0x1D2 DUP3 PUSH2 0x18C JUMP JUMPDEST DUP2 ADD DUP2 DUP2 LT PUSH8 0xFFFFFFFFFFFFFFFF DUP3 GT OR ISZERO PUSH2 0x1F1 JUMPI PUSH2 0x1F0 PUSH2 0x19C JUMP JUMPDEST JUMPDEST DUP1 PUSH1 0x40 MSTORE POP POP POP JUMP JUMPDEST PUSH0 PUSH2 0x203 PUSH2 0x140 JUMP JUMPDEST SWAP1 POP PUSH2 0x20F DUP3 DUP3 PUSH2 0x1C9 JUMP JUMPDEST SWAP2 SWAP1 POP JUMP JUMPDEST PUSH0 PUSH8 0xFFFFFFFFFFFFFFFF DUP3 GT ISZERO PUSH2 0x22E JUMPI PUSH2 0x22D PUSH2 0x19C JUMP JUMPDEST JUMPDEST PUSH2 0x237 DUP3 PUSH2 0x18C JUMP JUMPDEST SWAP1 POP PUSH1 0x20 DUP2 ADD SWAP1 POP SWAP2 SWAP1 POP JUMP JUMPDEST DUP3 DUP2 DUP4 CALLDATACOPY PUSH0 DUP4 DUP4 ADD MSTORE POP POP POP JUMP JUMPDEST PUSH0 PUSH2 0x264 PUSH2 0x25F DUP5 PUSH2 0x214 JUMP JUMPDEST PUSH2 0x1FA JUMP JUMPDEST SWAP1 POP DUP3 DUP2 MSTORE PUSH1 0x20 DUP2 ADD DUP5 DUP5 DUP5 ADD GT ISZERO PUSH2 0x280 JUMPI PUSH2 0x27F PUSH2 0x188 JUMP JUMPDEST JUMPDEST PUSH2 0x28B DUP5 DUP3 DUP6 PUSH2 0x244 JUMP JUMPDEST POP SWAP4 SWAP3 POP POP POP JUMP JUMPDEST PUSH0 DUP3 PUSH1 0x1F DUP4 ADD SLT PUSH2 0x2A7 JUMPI PUSH2 0x2A6 PUSH2 0x184 JUMP JUMPDEST JUMPDEST DUP2 CALLDATALOAD PUSH2 0x2B7 DUP5 DUP3 PUSH1 0x20 DUP7 ADD PUSH2 0x252 JUMP JUMPDEST SWAP2 POP POP SWAP3 SWAP2 POP POP JUMP JUMPDEST PUSH0 DUP1 PUSH1 0x40 DUP4 DUP6 SUB SLT ISZERO PUSH2 0x2D6 JUMPI PUSH2 0x2D5 PUSH2 0x149 JUMP JUMPDEST JUMPDEST PUSH0 PUSH2 0x2E3 DUP6 DUP3 DUP7 ADD PUSH2 0x170 JUMP JUMPDEST SWAP3 POP POP PUSH1 0x20 DUP4 ADD CALLDATALOAD PUSH8 0xFFFFFFFFFFFFFFFF DUP2 GT ISZERO PUSH2 0x304 JUMPI PUSH2 0x303 PUSH2 0x14D JUMP JUMPDEST JUMPDEST PUSH2 0x310 DUP6 DUP3 DUP7 ADD PUSH2 0x293 JUMP JUMPDEST SWAP2 POP POP SWAP3 POP SWAP3 SWAP1 POP JUMP JUMPDEST PUSH0 PUSH1 0x20 DUP3 DUP5 SUB SLT ISZERO PUSH2 0x32F JUMPI PUSH2 0x32E PUSH2 0x149 JUMP JUMPDEST JUMPDEST PUSH0 PUSH2 0x33C DUP5 DUP3 DUP6 ADD PUSH2 0x170 JUMP JUMPDEST SWAP2 POP POP SWAP3 SWAP2 POP POP JUMP JUMPDEST PUSH0 DUP2 MLOAD SWAP1 POP SWAP2 SWAP1 POP JUMP JUMPDEST PUSH0 DUP3 DUP3 MSTORE PUSH1 0x20 DUP3 ADD SWAP1 POP SWAP3 SWAP2 POP POP JUMP JUMPDEST PUSH0 JUMPDEST DUP4 DUP2 LT ISZERO PUSH2 0x37C JUMPI DUP1 DUP3 ADD MLOAD DUP2 DUP5 ADD MSTORE PUSH1 0x20 DUP2 ADD SWAP1 POP PUSH2 0x361 JUMP JUMPDEST PUSH0 DUP5 DUP5 ADD MSTORE POP POP POP POP JUMP JUMPDEST PUSH0 PUSH2 0x391 DUP3 PUSH2 0x345 JUMP JUMPDEST PUSH2 0x39B DUP2 DUP6 PUSH2 0x34F JUMP JUMPDEST SWAP4 POP PUSH2 0x3AB DUP2 DUP6 PUSH1 0x20 DUP7 ADD PUSH2 0x35F JUMP JUMPDEST PUSH2 0x3B4 DUP2 PUSH2 0x18C JUMP JUMPDEST DUP5 ADD SWAP2 POP POP SWAP3 SWAP2 POP POP JUMP JUMPDEST PUSH0 PUSH1 0x20 DUP3 ADD SWAP1 POP DUP2 DUP2 SUB PUSH0 DUP4 ADD MSTORE PUSH2 0x3D7 DUP2 DUP5 PUSH2 0x387 JUMP JUMPDEST SWAP1 POP SWAP3 SWAP2 POP POP JUMP JUMPDEST PUSH32 0x4E487B7100000000000000000000000000000000000000000000000000000000 PUSH0 MSTORE PUSH1 0x22 PUSH1 0x4 MSTORE PUSH1 0x24 PUSH0 REVERT JUMPDEST PUSH0 PUSH1 0x2 DUP3 DIV SWAP1 POP PUSH1 0x1 DUP3 AND DUP1 PUSH2 0x423 JUMPI PUSH1 0x7F DUP3 AND SWAP2 POP JUMPDEST PUSH1 0x20 DUP3 LT DUP2 SUB PUSH2 0x436 JUMPI PUSH2 0x435 PUSH2 0x3DF JUMP JUMPDEST JUMPDEST POP SWAP2 SWAP1 POP JUMP JUMPDEST PUSH0 DUP2 SWAP1 POP DUP2 PUSH0 MSTORE PUSH1 0x20 PUSH0 KECCAK256 SWAP1 POP SWAP2 SWAP1 POP JUMP JUMPDEST PUSH0 PUSH1 0x20 PUSH1 0x1F DUP4 ADD DIV SWAP1 POP SWAP2 SWAP1 POP JUMP JUMPDEST PUSH0 DUP3 DUP3 SHL SWAP1 POP SWAP3 SWAP2 POP POP JUMP JUMPDEST PUSH0 PUSH1 0x8 DUP4 MUL PUSH2 0x498 PUSH32 0xFFFFFFFFFFFFFFFFFFFFFFFFFFFFFFFFFFFFFFFFFFFFFFFFFFFFFFFFFFFFFFFF DUP3 PUSH2 0x45D JUMP JUMPDEST PUSH2 0x4A2 DUP7 DUP4 PUSH2 0x45D JUMP JUMPDEST SWAP6 POP DUP1 NOT DUP5 AND SWAP4 POP DUP1 DUP7 AND DUP5 OR SWAP3 POP POP POP SWAP4 SWAP3 POP POP POP JUMP JUMPDEST PUSH0 DUP2 SWAP1 POP SWAP2 SWAP1 POP JUMP JUMPDEST PUSH0 DUP2 SWAP1 POP SWAP2 SWAP1 POP JUMP JUMPDEST PUSH0 PUSH2 0x4E6 PUSH2 0x4E1 PUSH2 0x4DC DUP5 PUSH2 0x4BA JUMP JUMPDEST PUSH2 0x4C3 JUMP JUMPDEST PUSH2 0x4BA JUMP JUMPDEST SWAP1 POP SWAP2 SWAP1 POP JUMP JUMPDEST PUSH0 DUP2 SWAP1 POP SWAP2 SWAP1 POP JUMP JUMPDEST PUSH2 0x4FF DUP4 PUSH2 0x4CC JUMP JUMPDEST PUSH2 0x513 PUSH2 0x50B DUP3 PUSH2 0x4ED JUMP JUMPDEST DUP5 DUP5 SLOAD PUSH2 0x469 JUMP JUMPDEST DUP3 SSTORE POP POP POP POP JUMP JUMPDEST PUSH0 SWAP1 JUMP JUMPDEST PUSH2 0x527 PUSH2 0x51B JUMP JUMPDEST PUSH2 0x532 DUP2 DUP5 DUP5 PUSH2 0x4F6 JUMP JUMPDEST POP POP POP JUMP JUMPDEST JUMPDEST DUP2 DUP2 LT ISZERO PUSH2 0x555 JUMPI PUSH2 0x54A PUSH0 DUP3 PUSH2 0x51F JUMP JUMPDEST PUSH1 0x1 DUP2 ADD SWAP1 POP PUSH2 0x538 JUMP JUMPDEST POP POP JUMP JUMPDEST PUSH1 0x1F DUP3 GT ISZERO PUSH2 0x59A JUMPI PUSH2 0x56B DUP2 PUSH2 0x43C JUMP JUMPDEST PUSH2 0x574 DUP5 PUSH2 0x44E JUMP JUMPDEST DUP2 ADD PUSH1 0x20 DUP6 LT ISZERO PUSH2 0x583 JUMPI DUP2 SWAP1 POP JUMPDEST PUSH2 0x597 PUSH2 0x58F DUP6 PUSH2 0x44E JUMP JUMPDEST DUP4 ADD DUP3 PUSH2 0x537 JUMP JUMPDEST POP POP JUMPDEST POP POP POP JUMP JUMPDEST PUSH0 DUP3 DUP3 SHR SWAP1 POP SWAP3 SWAP2 POP POP JUMP JUMPDEST PUSH0 PUSH2 0x5BA PUSH0 NOT DUP5 PUSH1 0x8 MUL PUSH2 0x59F JUMP JUMPDEST NOT DUP1 DUP4 AND SWAP2 POP POP SWAP3 SWAP2 POP POP JUMP JUMPDEST PUSH0 PUSH2 0x5D2 DUP4 DUP4 PUSH2 0x5AB JUMP JUMPDEST SWAP2 POP DUP3 PUSH1 0x2 MUL DUP3 OR SWAP1 POP SWAP3 SWAP2 POP POP JUMP JUMPDEST PUSH2 0x5EB DUP3 PUSH2 0x345 JUMP JUMPDEST PUSH8 0xFFFFFFFFFFFFFFFF DUP2 GT ISZERO PUSH2 0x604 JUMPI PUSH2 0x603 PUSH2 0x19C JUMP JUMPDEST JUMPDEST PUSH2 0x60E DUP3 SLOAD PUSH2 0x40C JUMP JUMPDEST PUSH2 0x619 DUP3 DUP3 DUP6 PUSH2 0x559 JUMP JUMPDEST PUSH0 PUSH1 0x20 SWAP1 POP PUSH1 0x1F DUP4 GT PUSH1 0x1 DUP2 EQ PUSH2 0x64A JUMPI PUSH0 DUP5 ISZERO PUSH2 0x638 JUMPI DUP3 DUP8 ADD MLOAD SWAP1 POP JUMPDEST PUSH2 0x642 DUP6 DUP3 PUSH2 0x5C7 JUMP JUMPDEST DUP7 SSTORE POP PUSH2 0x6A9 JUMP JUMPDEST PUSH1 0x1F NOT DUP5 AND PUSH2 0x658 DUP7 PUSH2 0x43C JUMP JUMPDEST PUSH0 JUMPDEST DUP3 DUP2 LT ISZERO PUSH2 0x67F JUMPI DUP5 DUP10 ADD MLOAD DUP3 SSTORE PUSH1 0x1 DUP3 ADD SWAP2 POP PUSH1 0x20 DUP6 ADD SWAP5 POP PUSH1 0x20 DUP2 ADD SWAP1 POP PUSH2 0x65A JUMP JUMPDEST DUP7 DUP4 LT ISZERO PUSH2 0x69C JUMPI DUP5 DUP10 ADD MLOAD PUSH2 0x698 PUSH1 0x1F DUP10 AND DUP3 PUSH2 0x5AB JUMP JUMPDEST DUP4 SSTORE POP JUMPDEST PUSH1 0x1 PUSH1 0x2 DUP9 MUL ADD DUP9 SSTORE POP POP POP JUMPDEST POP POP POP POP POP POP JUMP INVALID LOG2 PUSH5 0x6970667358 0x22 SLT KECCAK256 PUSH13 0x3E5537B230E878517D5122BBBC NOT JUMPI 0x2A 0x4B 0xDF 0x2E POP 0xEC 0xAC 0xBF 0xAE CALLDATACOPY AND 0xDA PC 0x21 REVERT PUSH29 0x64736F6C63430008140033000000000000000000000000000000000000 "
				},
				"gasEstimates": {
					"creation": {
						"codeDepositCost": "353400",
						"executionCost": "391",
						"totalCost": "353791"
					},
					"external": {
						"myMap(int256)": "infinite",
						"setter(int256,string)": "infinite"
					}
				},
				"methodIdentifiers": {
					"myMap(int256)": "9d9defb2",
					"setter(int256,string)": "6759d43d"
				}
			},
			"storageLayout": {
				"storage": [
					{
						"astId": 5,
						"contract": "map.sol:map",
						"label": "myMap",
						"offset": 0,
						"slot": "0",
						"type": "t_mapping(t_int256,t_string_storage)"
					}
				],
				"types": {
					"t_int256": {
						"encoding": "inplace",
						"label": "int256",
						"numberOfBytes": "32"
					},
					"t_mapping(t_int256,t_string_storage)": {
						"encoding": "mapping",
						"key": "t_int256",
						"label": "mapping(int256 => string)",
						"numberOfBytes": "32",
						"value": "t_string_storage"
					},
					"t_string_storage": {
						"encoding": "bytes",
						"label": "string",
						"numberOfBytes": "32"
					}
				}
			},
			"userdoc": {
				"kind": "user",
				"methods": {},
				"version": 1
			}
		}
	}
}