{
	"data": {
		"bytecode": {
			"linkReferences": {},
			"object": "6080604052600a5f55600a60015534801562000019575f80fd5b503360045f6101000a81548173ffffffffffffffffffffffffffffffffffffffff021916908373ffffffffffffffffffffffffffffffffffffffff16021790555060015467ffffffffffffffff81111562000079576200007862000291565b5b604051908082528060200260200182016040528015620000a85781602001602082028036833780820191505090505b5060029080519060200190620000c092919062000140565b5060015467ffffffffffffffff811115620000e057620000df62000291565b5b6040519080825280602002602001820160405280156200010f5781602001602082028036833780820191505090505b506003908051906020019062000127929190620001cc565b50612328600581905550612328600681905550620002be565b828054828255905f5260205f20908101928215620001b9579160200282015b82811115620001b8578251825f6101000a81548173ffffffffffffffffffffffffffffffffffffffff021916908373ffffffffffffffffffffffffffffffffffffffff160217905550916020019190600101906200015f565b5b509050620001c8919062000274565b5090565b828054828255905f5260205f2090601f0160209004810192821562000261579160200282015f5b838211156200023157835183826101000a81548160ff02191690831515021790555092602001926001016020815f01049283019260010302620001f3565b80156200025f5782816101000a81549060ff02191690556001016020815f0104928301926001030262000231565b505b50905062000270919062000274565b5090565b5b808211156200028d575f815f90555060010162000275565b5090565b7f4e487b71000000000000000000000000000000000000000000000000000000005f52604160045260245ffd5b6117f080620002cc5f395ff3fe608060405234801561000f575f80fd5b50600436106100b2575f3560e01c80638cfd3e401161006f5780638cfd3e40146101a0578063ac8f5ead146101be578063ae3c0176146101dc578063b2ae388a146101fa578063dd7ef7061461022a578063ef2ae9601461025a576100b2565b8063294c6082146100b6578063441f91d9146100e65780634c5869f61461011657806354db01b71461013457806367a52793146101645780637d0d3c6d14610182575b5f80fd5b6100d060048036038101906100cb9190610f07565b610278565b6040516100dd9190610f8d565b60405180910390f35b61010060048036038101906100fb9190610fa6565b6105d9565b60405161010d9190611010565b60405180910390f35b61011e610614565b60405161012b9190610f8d565b60405180910390f35b61014e60048036038101906101499190610fa6565b610618565b60405161015b9190610f8d565b60405180910390f35b61016c6106bb565b6040516101799190611038565b60405180910390f35b61018a6106c1565b6040516101979190610f8d565b60405180910390f35b6101a8610798565b6040516101b59190611038565b60405180910390f35b6101c661079e565b6040516101d39190610f8d565b60405180910390f35b6101e4610b9a565b6040516101f19190611108565b60405180910390f35b610214600480360381019061020f9190610fa6565b610c7b565b6040516102219190610f8d565b60405180910390f35b610244600480360381019061023f9190610fa6565b610cac565b6040516102519190610f8d565b60405180910390f35b610262610d4f565b60405161026f9190611038565b60405180910390f35b5f805482106102be577f767a686a4c3a04a95e094547835f2313a4e1fc9f6689362feb2906141a3ef0ee6040516102ae90611182565b60405180910390a15f90506105d2565b600382815481106102d2576102d16111a0565b5b905f5260205f2090602091828204019190069054906101000a900460ff1615610332577f767a686a4c3a04a95e094547835f2313a4e1fc9f6689362feb2906141a3ef0ee60405161032290611217565b60405180910390a15f90506105d2565b5f60075f3373ffffffffffffffffffffffffffffffffffffffff1673ffffffffffffffffffffffffffffffffffffffff1681526020019081526020015f206002015411156103b7577f767a686a4c3a04a95e094547835f2313a4e1fc9f6689362feb2906141a3ef0ee6040516103a7906112a5565b60405180910390a15f90506105d2565b6103bf610d55565b84815f01819052508381604001818152505082816060018181525050428160200181815250506040518060400160405280600681526020017f4a4f494e454400000000000000000000000000000000000000000000000000008152508160a001819052508060075f3373ffffffffffffffffffffffffffffffffffffffff1673ffffffffffffffffffffffffffffffffffffffff1681526020019081526020015f205f820151815f01908161047491906114c7565b506020820151816001015560408201518160020155606082015181600301556080820151816004015560a08201518160050190816104b291906114c7565b50905050600160038260600151815481106104d0576104cf6111a0565b5b905f5260205f2090602091828204019190066101000a81548160ff0219169083151502179055503360028260600151815481106105105761050f6111a0565b5b905f5260205f20015f6101000a81548173ffffffffffffffffffffffffffffffffffffffff021916908373ffffffffffffffffffffffffffffffffffffffff160217905550600833908060018154018082558091505060019003905f5260205f20015f9091909190916101000a81548173ffffffffffffffffffffffffffffffffffffffff021916908373ffffffffffffffffffffffffffffffffffffffff16021790555060015f8154809291906105c7906115c3565b919050555060019150505b9392505050565b600881815481106105e8575f80fd5b905f5260205f20015f915054906101000a900473ffffffffffffffffffffffffffffffffffffffff1681565b5f90565b5f60045f9054906101000a900473ffffffffffffffffffffffffffffffffffffffff1673ffffffffffffffffffffffffffffffffffffffff163373ffffffffffffffffffffffffffffffffffffffff16146106aa577f767a686a4c3a04a95e094547835f2313a4e1fc9f6689362feb2906141a3ef0ee60405161069a90611634565b60405180910390a15f90506106b6565b81600581905550600190505b919050565b60055481565b5f805f8154809291906106d390611652565b919050555060015f8154809291906106ea90611652565b919050555060035f908060018154018082558091505060019003905f5260205f2090602091828204019190069091909190916101000a81548160ff02191690831515021790555060025f908060018154018082558091505060019003905f5260205f20015f9091909190916101000a81548173ffffffffffffffffffffffffffffffffffffffff021916908373ffffffffffffffffffffffffffffffffffffffff1602179055506001905090565b60065481565b5f8060075f3373ffffffffffffffffffffffffffffffffffffffff1673ffffffffffffffffffffffffffffffffffffffff1681526020019081526020015f206002015403610823577f767a686a4c3a04a95e094547835f2313a4e1fc9f6689362feb2906141a3ef0ee60405161081390611709565b60405180910390a15f9050610b97565b60015f81548092919061083590611652565b91905055505f60075f3373ffffffffffffffffffffffffffffffffffffffff1673ffffffffffffffffffffffffffffffffffffffff1681526020019081526020015f206003015490505f60028281548110610893576108926111a0565b5b905f5260205f20015f6101000a81548173ffffffffffffffffffffffffffffffffffffffff021916908373ffffffffffffffffffffffffffffffffffffffff1602179055505f600382815481106108ed576108ec6111a0565b5b905f5260205f2090602091828204019190066101000a81548160ff0219169083151502179055506040518060400160405280600481526020017f4c4546540000000000000000000000000000000000000000000000000000000081525060075f3373ffffffffffffffffffffffffffffffffffffffff1673ffffffffffffffffffffffffffffffffffffffff1681526020019081526020015f20600501908161099691906114c7565b504260075f3373ffffffffffffffffffffffffffffffffffffffff1673ffffffffffffffffffffffffffffffffffffffff1681526020019081526020015f20600401819055505f60088054905090505f5b600880549050811015610a7d573373ffffffffffffffffffffffffffffffffffffffff1660088281548110610a1f57610a1e6111a0565b5b905f5260205f20015f9054906101000a900473ffffffffffffffffffffffffffffffffffffffff1673ffffffffffffffffffffffffffffffffffffffff1603610a6a57809150610a7d565b8080610a7590611652565b9150506109e7565b505b6001600880549050610a919190611727565b811015610b4c576008600182610aa7919061175a565b81548110610ab857610ab76111a0565b5b905f5260205f20015f9054906101000a900473ffffffffffffffffffffffffffffffffffffffff1660088281548110610af457610af36111a0565b5b905f5260205f20015f6101000a81548173ffffffffffffffffffffffffffffffffffffffff021916908373ffffffffffffffffffffffffffffffffffffffff1602179055508080610b4490611652565b915050610a7f565b6008805480610b5e57610b5d61178d565b5b600190038181905f5260205f20015f6101000a81549073ffffffffffffffffffffffffffffffffffffffff021916905590556001925050505b90565b60605f60015467ffffffffffffffff811115610bb957610bb8610db0565b5b604051908082528060200260200182016040528015610be75781602001602082028036833780820191505090505b5090505f805b600380549050811015610c725760038181548110610c0e57610c0d6111a0565b5b905f5260205f2090602091828204019190069054906101000a900460ff16610c5f5780838381518110610c4457610c436111a0565b5b6020026020010181815250508180610c5b90611652565b9250505b8080610c6a90611652565b915050610bed565b50819250505090565b60038181548110610c8a575f80fd5b905f5260205f209060209182820401919006915054906101000a900460ff1681565b5f60045f9054906101000a900473ffffffffffffffffffffffffffffffffffffffff1673ffffffffffffffffffffffffffffffffffffffff163373ffffffffffffffffffffffffffffffffffffffff1614610d3e577f767a686a4c3a04a95e094547835f2313a4e1fc9f6689362feb2906141a3ef0ee604051610d2e90611634565b60405180910390a15f9050610d4a565b81600681905550600190505b919050565b60015481565b6040518060c00160405280606081526020015f81526020015f81526020015f81526020015f8152602001606081525090565b5f604051905090565b5f80fd5b5f80fd5b5f80fd5b5f80fd5b5f601f19601f8301169050919050565b7f4e487b71000000000000000000000000000000000000000000000000000000005f52604160045260245ffd5b610de682610da0565b810181811067ffffffffffffffff82111715610e0557610e04610db0565b5b80604052505050565b5f610e17610d87565b9050610e238282610ddd565b919050565b5f67ffffffffffffffff821115610e4257610e41610db0565b5b610e4b82610da0565b9050602081019050919050565b828183375f83830152505050565b5f610e78610e7384610e28565b610e0e565b905082815260208101848484011115610e9457610e93610d9c565b5b610e9f848285610e58565b509392505050565b5f82601f830112610ebb57610eba610d98565b5b8135610ecb848260208601610e66565b91505092915050565b5f819050919050565b610ee681610ed4565b8114610ef0575f80fd5b50565b5f81359050610f0181610edd565b92915050565b5f805f60608486031215610f1e57610f1d610d90565b5b5f84013567ffffffffffffffff811115610f3b57610f3a610d94565b5b610f4786828701610ea7565b9350506020610f5886828701610ef3565b9250506040610f6986828701610ef3565b9150509250925092565b5f8115159050919050565b610f8781610f73565b82525050565b5f602082019050610fa05f830184610f7e565b92915050565b5f60208284031215610fbb57610fba610d90565b5b5f610fc884828501610ef3565b91505092915050565b5f73ffffffffffffffffffffffffffffffffffffffff82169050919050565b5f610ffa82610fd1565b9050919050565b61100a81610ff0565b82525050565b5f6020820190506110235f830184611001565b92915050565b61103281610ed4565b82525050565b5f60208201905061104b5f830184611029565b92915050565b5f81519050919050565b5f82825260208201905092915050565b5f819050602082019050919050565b61108381610ed4565b82525050565b5f611094838361107a565b60208301905092915050565b5f602082019050919050565b5f6110b682611051565b6110c0818561105b565b93506110cb8361106b565b805f5b838110156110fb5781516110e28882611089565b97506110ed836110a0565b9250506001810190506110ce565b5085935050505092915050565b5f6020820190508181035f83015261112081846110ac565b905092915050565b5f82825260208201905092915050565b7f4e6f207375636820726f6f6d20657869737473202100000000000000000000005f82015250565b5f61116c601583611128565b915061117782611138565b602082019050919050565b5f6020820190508181035f83015261119981611160565b9050919050565b7f4e487b71000000000000000000000000000000000000000000000000000000005f52603260045260245ffd5b7f526f6f6d20697320616c7265616479206f6363757069656400000000000000005f82015250565b5f611201601883611128565b915061120c826111cd565b602082019050919050565b5f6020820190508181035f83015261122e816111f5565b9050919050565b7f596f7520616c72656164792068617665206f6e6520726f6f6d2c796f752063615f8201527f6e27742074616b6520616e6f7468657220726f6f6d2021000000000000000000602082015250565b5f61128f603783611128565b915061129a82611235565b604082019050919050565b5f6020820190508181035f8301526112bc81611283565b9050919050565b5f81519050919050565b7f4e487b71000000000000000000000000000000000000000000000000000000005f52602260045260245ffd5b5f600282049050600182168061131157607f821691505b602082108103611324576113236112cd565b5b50919050565b5f819050815f5260205f209050919050565b5f6020601f8301049050919050565b5f82821b905092915050565b5f600883026113867fffffffffffffffffffffffffffffffffffffffffffffffffffffffffffffffff8261134b565b611390868361134b565b95508019841693508086168417925050509392505050565b5f819050919050565b5f6113cb6113c66113c184610ed4565b6113a8565b610ed4565b9050919050565b5f819050919050565b6113e4836113b1565b6113f86113f0826113d2565b848454611357565b825550505050565b5f90565b61140c611400565b6114178184846113db565b505050565b5b8181101561143a5761142f5f82611404565b60018101905061141d565b5050565b601f82111561147f576114508161132a565b6114598461133c565b81016020851015611468578190505b61147c6114748561133c565b83018261141c565b50505b505050565b5f82821c905092915050565b5f61149f5f1984600802611484565b1980831691505092915050565b5f6114b78383611490565b9150826002028217905092915050565b6114d0826112c3565b67ffffffffffffffff8111156114e9576114e8610db0565b5b6114f382546112fa565b6114fe82828561143e565b5f60209050601f83116001811461152f575f841561151d578287015190505b61152785826114ac565b86555061158e565b601f19841661153d8661132a565b5f5b828110156115645784890151825560018201915060208501945060208101905061153f565b86831015611581578489015161157d601f891682611490565b8355505b6001600288020188555050505b505050505050565b7f4e487b71000000000000000000000000000000000000000000000000000000005f52601160045260245ffd5b5f6115cd82610ed4565b91505f82036115df576115de611596565b5b600182039050919050565b7f4e6f7420617574686572697a65642021000000000000000000000000000000005f82015250565b5f61161e601083611128565b9150611629826115ea565b602082019050919050565b5f6020820190508181035f83015261164b81611612565b9050919050565b5f61165c82610ed4565b91507fffffffffffffffffffffffffffffffffffffffffffffffffffffffffffffffff820361168e5761168d611596565b5b600182019050919050565b7f536f7272792c20596f7520617265206e6f74206173736f6369617465642077695f8201527f746820616e7920726f6f6d206865726520210000000000000000000000000000602082015250565b5f6116f3603283611128565b91506116fe82611699565b604082019050919050565b5f6020820190508181035f830152611720816116e7565b9050919050565b5f61173182610ed4565b915061173c83610ed4565b925082820390508181111561175457611753611596565b5b92915050565b5f61176482610ed4565b915061176f83610ed4565b925082820190508082111561178757611786611596565b5b92915050565b7f4e487b71000000000000000000000000000000000000000000000000000000005f52603160045260245ffdfea264697066735822122096f095b7b48ad4ae588aead8ce890adea43a579eb8f36f80a4412a4785d8e3de64736f6c63430008140033",
			"opcodes": "PUSH1 0x80 PUSH1 0x40 MSTORE PUSH1 0xA PUSH0 SSTORE PUSH1 0xA PUSH1 0x1 SSTORE CALLVALUE DUP1 ISZERO PUSH3 0x19 JUMPI PUSH0 DUP1 REVERT JUMPDEST POP CALLER PUSH1 0x4 PUSH0 PUSH2 0x100 EXP DUP2 SLOAD DUP2 PUSH20 0xFFFFFFFFFFFFFFFFFFFFFFFFFFFFFFFFFFFFFFFF MUL NOT AND SWAP1 DUP4 PUSH20 0xFFFFFFFFFFFFFFFFFFFFFFFFFFFFFFFFFFFFFFFF AND MUL OR SWAP1 SSTORE POP PUSH1 0x1 SLOAD PUSH8 0xFFFFFFFFFFFFFFFF DUP2 GT ISZERO PUSH3 0x79 JUMPI PUSH3 0x78 PUSH3 0x291 JUMP JUMPDEST JUMPDEST PUSH1 0x40 MLOAD SWAP1 DUP1 DUP3 MSTORE DUP1 PUSH1 0x20 MUL PUSH1 0x20 ADD DUP3 ADD PUSH1 0x40 MSTORE DUP1 ISZERO PUSH3 0xA8 JUMPI DUP2 PUSH1 0x20 ADD PUSH1 0x20 DUP3 MUL DUP1 CALLDATASIZE DUP4 CALLDATACOPY DUP1 DUP3 ADD SWAP2 POP POP SWAP1 POP JUMPDEST POP PUSH1 0x2 SWAP1 DUP1 MLOAD SWAP1 PUSH1 0x20 ADD SWAP1 PUSH3 0xC0 SWAP3 SWAP2 SWAP1 PUSH3 0x140 JUMP JUMPDEST POP PUSH1 0x1 SLOAD PUSH8 0xFFFFFFFFFFFFFFFF DUP2 GT ISZERO PUSH3 0xE0 JUMPI PUSH3 0xDF PUSH3 0x291 JUMP JUMPDEST JUMPDEST PUSH1 0x40 MLOAD SWAP1 DUP1 DUP3 MSTORE DUP1 PUSH1 0x20 MUL PUSH1 0x20 ADD DUP3 ADD PUSH1 0x40 MSTORE DUP1 ISZERO PUSH3 0x10F JUMPI DUP2 PUSH1 0x20 ADD PUSH1 0x20 DUP3 MUL DUP1 CALLDATASIZE DUP4 CALLDATACOPY DUP1 DUP3 ADD SWAP2 POP POP SWAP1 POP JUMPDEST POP PUSH1 0x3 SWAP1 DUP1 MLOAD SWAP1 PUSH1 0x20 ADD SWAP1 PUSH3 0x127 SWAP3 SWAP2 SWAP1 PUSH3 0x1CC JUMP JUMPDEST POP PUSH2 0x2328 PUSH1 0x5 DUP2 SWAP1 SSTORE POP PUSH2 0x2328 PUSH1 0x6 DUP2 SWAP1 SSTORE POP PUSH3 0x2BE JUMP JUMPDEST DUP3 DUP1 SLOAD DUP3 DUP3 SSTORE SWAP1 PUSH0 MSTORE PUSH1 0x20 PUSH0 KECCAK256 SWAP1 DUP2 ADD SWAP3 DUP3 ISZERO PUSH3 0x1B9 JUMPI SWAP2 PUSH1 0x20 MUL DUP3 ADD JUMPDEST DUP3 DUP2 GT ISZERO PUSH3 0x1B8 JUMPI DUP3 MLOAD DUP3 PUSH0 PUSH2 0x100 EXP DUP2 SLOAD DUP2 PUSH20 0xFFFFFFFFFFFFFFFFFFFFFFFFFFFFFFFFFFFFFFFF MUL NOT AND SWAP1 DUP4 PUSH20 0xFFFFFFFFFFFFFFFFFFFFFFFFFFFFFFFFFFFFFFFF AND MUL OR SWAP1 SSTORE POP SWAP2 PUSH1 0x20 ADD SWAP2 SWAP1 PUSH1 0x1 ADD SWAP1 PUSH3 0x15F JUMP JUMPDEST JUMPDEST POP SWAP1 POP PUSH3 0x1C8 SWAP2 SWAP1 PUSH3 0x274 JUMP JUMPDEST POP SWAP1 JUMP JUMPDEST DUP3 DUP1 SLOAD DUP3 DUP3 SSTORE SWAP1 PUSH0 MSTORE PUSH1 0x20 PUSH0 KECCAK256 SWAP1 PUSH1 0x1F ADD PUSH1 0x20 SWAP1 DIV DUP2 ADD SWAP3 DUP3 ISZERO PUSH3 0x261 JUMPI SWAP2 PUSH1 0x20 MUL DUP3 ADD PUSH0 JUMPDEST DUP4 DUP3 GT ISZERO PUSH3 0x231 JUMPI DUP4 MLOAD DUP4 DUP3 PUSH2 0x100 EXP DUP2 SLOAD DUP2 PUSH1 0xFF MUL NOT AND SWAP1 DUP4 ISZERO ISZERO MUL OR SWAP1 SSTORE POP SWAP3 PUSH1 0x20 ADD SWAP3 PUSH1 0x1 ADD PUSH1 0x20 DUP2 PUSH0 ADD DIV SWAP3 DUP4 ADD SWAP3 PUSH1 0x1 SUB MUL PUSH3 0x1F3 JUMP JUMPDEST DUP1 ISZERO PUSH3 0x25F JUMPI DUP3 DUP2 PUSH2 0x100 EXP DUP2 SLOAD SWAP1 PUSH1 0xFF MUL NOT AND SWAP1 SSTORE PUSH1 0x1 ADD PUSH1 0x20 DUP2 PUSH0 ADD DIV SWAP3 DUP4 ADD SWAP3 PUSH1 0x1 SUB MUL PUSH3 0x231 JUMP JUMPDEST POP JUMPDEST POP SWAP1 POP PUSH3 0x270 SWAP2 SWAP1 PUSH3 0x274 JUMP JUMPDEST POP SWAP1 JUMP JUMPDEST JUMPDEST DUP1 DUP3 GT ISZERO PUSH3 0x28D JUMPI PUSH0 DUP2 PUSH0 SWAP1 SSTORE POP PUSH1 0x1 ADD PUSH3 0x275 JUMP JUMPDEST POP SWAP1 JUMP JUMPDEST PUSH32 0x4E487B7100000000000000000000000000000000000000000000000000000000 PUSH0 MSTORE PUSH1 0x41 PUSH1 0x4 MSTORE PUSH1 0x24 PUSH0 REVERT JUMPDEST PUSH2 0x17F0 DUP1 PUSH3 0x2CC PUSH0 CODECOPY PUSH0 RETURN INVALID PUSH1 0x80 PUSH1 0x40 MSTORE CALLVALUE DUP1 ISZERO PUSH2 0xF JUMPI PUSH0 DUP1 REVERT JUMPDEST POP PUSH1 0x4 CALLDATASIZE LT PUSH2 0xB2 JUMPI PUSH0 CALLDATALOAD PUSH1 0xE0 SHR DUP1 PUSH4 0x8CFD3E40 GT PUSH2 0x6F JUMPI DUP1 PUSH4 0x8CFD3E40 EQ PUSH2 0x1A0 JUMPI DUP1 PUSH4 0xAC8F5EAD EQ PUSH2 0x1BE JUMPI DUP1 PUSH4 0xAE3C0176 EQ PUSH2 0x1DC JUMPI DUP1 PUSH4 0xB2AE388A EQ PUSH2 0x1FA JUMPI DUP1 PUSH4 0xDD7EF706 EQ PUSH2 0x22A JUMPI DUP1 PUSH4 0xEF2AE960 EQ PUSH2 0x25A JUMPI PUSH2 0xB2 JUMP JUMPDEST DUP1 PUSH4 0x294C6082 EQ PUSH2 0xB6 JUMPI DUP1 PUSH4 0x441F91D9 EQ PUSH2 0xE6 JUMPI DUP1 PUSH4 0x4C5869F6 EQ PUSH2 0x116 JUMPI DUP1 PUSH4 0x54DB01B7 EQ PUSH2 0x134 JUMPI DUP1 PUSH4 0x67A52793 EQ PUSH2 0x164 JUMPI DUP1 PUSH4 0x7D0D3C6D EQ PUSH2 0x182 JUMPI JUMPDEST PUSH0 DUP1 REVERT JUMPDEST PUSH2 0xD0 PUSH1 0x4 DUP1 CALLDATASIZE SUB DUP2 ADD SWAP1 PUSH2 0xCB SWAP2 SWAP1 PUSH2 0xF07 JUMP JUMPDEST PUSH2 0x278 JUMP JUMPDEST PUSH1 0x40 MLOAD PUSH2 0xDD SWAP2 SWAP1 PUSH2 0xF8D JUMP JUMPDEST PUSH1 0x40 MLOAD DUP1 SWAP2 SUB SWAP1 RETURN JUMPDEST PUSH2 0x100 PUSH1 0x4 DUP1 CALLDATASIZE SUB DUP2 ADD SWAP1 PUSH2 0xFB SWAP2 SWAP1 PUSH2 0xFA6 JUMP JUMPDEST PUSH2 0x5D9 JUMP JUMPDEST PUSH1 0x40 MLOAD PUSH2 0x10D SWAP2 SWAP1 PUSH2 0x1010 JUMP JUMPDEST PUSH1 0x40 MLOAD DUP1 SWAP2 SUB SWAP1 RETURN JUMPDEST PUSH2 0x11E PUSH2 0x614 JUMP JUMPDEST PUSH1 0x40 MLOAD PUSH2 0x12B SWAP2 SWAP1 PUSH2 0xF8D JUMP JUMPDEST PUSH1 0x40 MLOAD DUP1 SWAP2 SUB SWAP1 RETURN JUMPDEST PUSH2 0x14E PUSH1 0x4 DUP1 CALLDATASIZE SUB DUP2 ADD SWAP1 PUSH2 0x149 SWAP2 SWAP1 PUSH2 0xFA6 JUMP JUMPDEST PUSH2 0x618 JUMP JUMPDEST PUSH1 0x40 MLOAD PUSH2 0x15B SWAP2 SWAP1 PUSH2 0xF8D JUMP JUMPDEST PUSH1 0x40 MLOAD DUP1 SWAP2 SUB SWAP1 RETURN JUMPDEST PUSH2 0x16C PUSH2 0x6BB JUMP JUMPDEST PUSH1 0x40 MLOAD PUSH2 0x179 SWAP2 SWAP1 PUSH2 0x1038 JUMP JUMPDEST PUSH1 0x40 MLOAD DUP1 SWAP2 SUB SWAP1 RETURN JUMPDEST PUSH2 0x18A PUSH2 0x6C1 JUMP JUMPDEST PUSH1 0x40 MLOAD PUSH2 0x197 SWAP2 SWAP1 PUSH2 0xF8D JUMP JUMPDEST PUSH1 0x40 MLOAD DUP1 SWAP2 SUB SWAP1 RETURN JUMPDEST PUSH2 0x1A8 PUSH2 0x798 JUMP JUMPDEST PUSH1 0x40 MLOAD PUSH2 0x1B5 SWAP2 SWAP1 PUSH2 0x1038 JUMP JUMPDEST PUSH1 0x40 MLOAD DUP1 SWAP2 SUB SWAP1 RETURN JUMPDEST PUSH2 0x1C6 PUSH2 0x79E JUMP JUMPDEST PUSH1 0x40 MLOAD PUSH2 0x1D3 SWAP2 SWAP1 PUSH2 0xF8D JUMP JUMPDEST PUSH1 0x40 MLOAD DUP1 SWAP2 SUB SWAP1 RETURN JUMPDEST PUSH2 0x1E4 PUSH2 0xB9A JUMP JUMPDEST PUSH1 0x40 MLOAD PUSH2 0x1F1 SWAP2 SWAP1 PUSH2 0x1108 JUMP JUMPDEST PUSH1 0x40 MLOAD DUP1 SWAP2 SUB SWAP1 RETURN JUMPDEST PUSH2 0x214 PUSH1 0x4 DUP1 CALLDATASIZE SUB DUP2 ADD SWAP1 PUSH2 0x20F SWAP2 SWAP1 PUSH2 0xFA6 JUMP JUMPDEST PUSH2 0xC7B JUMP JUMPDEST PUSH1 0x40 MLOAD PUSH2 0x221 SWAP2 SWAP1 PUSH2 0xF8D JUMP JUMPDEST PUSH1 0x40 MLOAD DUP1 SWAP2 SUB SWAP1 RETURN JUMPDEST PUSH2 0x244 PUSH1 0x4 DUP1 CALLDATASIZE SUB DUP2 ADD SWAP1 PUSH2 0x23F SWAP2 SWAP1 PUSH2 0xFA6 JUMP JUMPDEST PUSH2 0xCAC JUMP JUMPDEST PUSH1 0x40 MLOAD PUSH2 0x251 SWAP2 SWAP1 PUSH2 0xF8D JUMP JUMPDEST PUSH1 0x40 MLOAD DUP1 SWAP2 SUB SWAP1 RETURN JUMPDEST PUSH2 0x262 PUSH2 0xD4F JUMP JUMPDEST PUSH1 0x40 MLOAD PUSH2 0x26F SWAP2 SWAP1 PUSH2 0x1038 JUMP JUMPDEST PUSH1 0x40 MLOAD DUP1 SWAP2 SUB SWAP1 RETURN JUMPDEST PUSH0 DUP1 SLOAD DUP3 LT PUSH2 0x2BE JUMPI PUSH32 0x767A686A4C3A04A95E094547835F2313A4E1FC9F6689362FEB2906141A3EF0EE PUSH1 0x40 MLOAD PUSH2 0x2AE SWAP1 PUSH2 0x1182 JUMP JUMPDEST PUSH1 0x40 MLOAD DUP1 SWAP2 SUB SWAP1 LOG1 PUSH0 SWAP1 POP PUSH2 0x5D2 JUMP JUMPDEST PUSH1 0x3 DUP3 DUP2 SLOAD DUP2 LT PUSH2 0x2D2 JUMPI PUSH2 0x2D1 PUSH2 0x11A0 JUMP JUMPDEST JUMPDEST SWAP1 PUSH0 MSTORE PUSH1 0x20 PUSH0 KECCAK256 SWAP1 PUSH1 0x20 SWAP2 DUP3 DUP3 DIV ADD SWAP2 SWAP1 MOD SWAP1 SLOAD SWAP1 PUSH2 0x100 EXP SWAP1 DIV PUSH1 0xFF AND ISZERO PUSH2 0x332 JUMPI PUSH32 0x767A686A4C3A04A95E094547835F2313A4E1FC9F6689362FEB2906141A3EF0EE PUSH1 0x40 MLOAD PUSH2 0x322 SWAP1 PUSH2 0x1217 JUMP JUMPDEST PUSH1 0x40 MLOAD DUP1 SWAP2 SUB SWAP1 LOG1 PUSH0 SWAP1 POP PUSH2 0x5D2 JUMP JUMPDEST PUSH0 PUSH1 0x7 PUSH0 CALLER PUSH20 0xFFFFFFFFFFFFFFFFFFFFFFFFFFFFFFFFFFFFFFFF AND PUSH20 0xFFFFFFFFFFFFFFFFFFFFFFFFFFFFFFFFFFFFFFFF AND DUP2 MSTORE PUSH1 0x20 ADD SWAP1 DUP2 MSTORE PUSH1 0x20 ADD PUSH0 KECCAK256 PUSH1 0x2 ADD SLOAD GT ISZERO PUSH2 0x3B7 JUMPI PUSH32 0x767A686A4C3A04A95E094547835F2313A4E1FC9F6689362FEB2906141A3EF0EE PUSH1 0x40 MLOAD PUSH2 0x3A7 SWAP1 PUSH2 0x12A5 JUMP JUMPDEST PUSH1 0x40 MLOAD DUP1 SWAP2 SUB SWAP1 LOG1 PUSH0 SWAP1 POP PUSH2 0x5D2 JUMP JUMPDEST PUSH2 0x3BF PUSH2 0xD55 JUMP JUMPDEST DUP5 DUP2 PUSH0 ADD DUP2 SWAP1 MSTORE POP DUP4 DUP2 PUSH1 0x40 ADD DUP2 DUP2 MSTORE POP POP DUP3 DUP2 PUSH1 0x60 ADD DUP2 DUP2 MSTORE POP POP TIMESTAMP DUP2 PUSH1 0x20 ADD DUP2 DUP2 MSTORE POP POP PUSH1 0x40 MLOAD DUP1 PUSH1 0x40 ADD PUSH1 0x40 MSTORE DUP1 PUSH1 0x6 DUP2 MSTORE PUSH1 0x20 ADD PUSH32 0x4A4F494E45440000000000000000000000000000000000000000000000000000 DUP2 MSTORE POP DUP2 PUSH1 0xA0 ADD DUP2 SWAP1 MSTORE POP DUP1 PUSH1 0x7 PUSH0 CALLER PUSH20 0xFFFFFFFFFFFFFFFFFFFFFFFFFFFFFFFFFFFFFFFF AND PUSH20 0xFFFFFFFFFFFFFFFFFFFFFFFFFFFFFFFFFFFFFFFF AND DUP2 MSTORE PUSH1 0x20 ADD SWAP1 DUP2 MSTORE PUSH1 0x20 ADD PUSH0 KECCAK256 PUSH0 DUP3 ADD MLOAD DUP2 PUSH0 ADD SWAP1 DUP2 PUSH2 0x474 SWAP2 SWAP1 PUSH2 0x14C7 JUMP JUMPDEST POP PUSH1 0x20 DUP3 ADD MLOAD DUP2 PUSH1 0x1 ADD SSTORE PUSH1 0x40 DUP3 ADD MLOAD DUP2 PUSH1 0x2 ADD SSTORE PUSH1 0x60 DUP3 ADD MLOAD DUP2 PUSH1 0x3 ADD SSTORE PUSH1 0x80 DUP3 ADD MLOAD DUP2 PUSH1 0x4 ADD SSTORE PUSH1 0xA0 DUP3 ADD MLOAD DUP2 PUSH1 0x5 ADD SWAP1 DUP2 PUSH2 0x4B2 SWAP2 SWAP1 PUSH2 0x14C7 JUMP JUMPDEST POP SWAP1 POP POP PUSH1 0x1 PUSH1 0x3 DUP3 PUSH1 0x60 ADD MLOAD DUP2 SLOAD DUP2 LT PUSH2 0x4D0 JUMPI PUSH2 0x4CF PUSH2 0x11A0 JUMP JUMPDEST JUMPDEST SWAP1 PUSH0 MSTORE PUSH1 0x20 PUSH0 KECCAK256 SWAP1 PUSH1 0x20 SWAP2 DUP3 DUP3 DIV ADD SWAP2 SWAP1 MOD PUSH2 0x100 EXP DUP2 SLOAD DUP2 PUSH1 0xFF MUL NOT AND SWAP1 DUP4 ISZERO ISZERO MUL OR SWAP1 SSTORE POP CALLER PUSH1 0x2 DUP3 PUSH1 0x60 ADD MLOAD DUP2 SLOAD DUP2 LT PUSH2 0x510 JUMPI PUSH2 0x50F PUSH2 0x11A0 JUMP JUMPDEST JUMPDEST SWAP1 PUSH0 MSTORE PUSH1 0x20 PUSH0 KECCAK256 ADD PUSH0 PUSH2 0x100 EXP DUP2 SLOAD DUP2 PUSH20 0xFFFFFFFFFFFFFFFFFFFFFFFFFFFFFFFFFFFFFFFF MUL NOT AND SWAP1 DUP4 PUSH20 0xFFFFFFFFFFFFFFFFFFFFFFFFFFFFFFFFFFFFFFFF AND MUL OR SWAP1 SSTORE POP PUSH1 0x8 CALLER SWAP1 DUP1 PUSH1 0x1 DUP2 SLOAD ADD DUP1 DUP3 SSTORE DUP1 SWAP2 POP POP PUSH1 0x1 SWAP1 SUB SWAP1 PUSH0 MSTORE PUSH1 0x20 PUSH0 KECCAK256 ADD PUSH0 SWAP1 SWAP2 SWAP1 SWAP2 SWAP1 SWAP2 PUSH2 0x100 EXP DUP2 SLOAD DUP2 PUSH20 0xFFFFFFFFFFFFFFFFFFFFFFFFFFFFFFFFFFFFFFFF MUL NOT AND SWAP1 DUP4 PUSH20 0xFFFFFFFFFFFFFFFFFFFFFFFFFFFFFFFFFFFFFFFF AND MUL OR SWAP1 SSTORE POP PUSH1 0x1 PUSH0 DUP2 SLOAD DUP1 SWAP3 SWAP2 SWAP1 PUSH2 0x5C7 SWAP1 PUSH2 0x15C3 JUMP JUMPDEST SWAP2 SWAP1 POP SSTORE POP PUSH1 0x1 SWAP2 POP POP JUMPDEST SWAP4 SWAP3 POP POP POP JUMP JUMPDEST PUSH1 0x8 DUP2 DUP2 SLOAD DUP2 LT PUSH2 0x5E8 JUMPI PUSH0 DUP1 REVERT JUMPDEST SWAP1 PUSH0 MSTORE PUSH1 0x20 PUSH0 KECCAK256 ADD PUSH0 SWAP2 POP SLOAD SWAP1 PUSH2 0x100 EXP SWAP1 DIV PUSH20 0xFFFFFFFFFFFFFFFFFFFFFFFFFFFFFFFFFFFFFFFF AND DUP2 JUMP JUMPDEST PUSH0 SWAP1 JUMP JUMPDEST PUSH0 PUSH1 0x4 PUSH0 SWAP1 SLOAD SWAP1 PUSH2 0x100 EXP SWAP1 DIV PUSH20 0xFFFFFFFFFFFFFFFFFFFFFFFFFFFFFFFFFFFFFFFF AND PUSH20 0xFFFFFFFFFFFFFFFFFFFFFFFFFFFFFFFFFFFFFFFF AND CALLER PUSH20 0xFFFFFFFFFFFFFFFFFFFFFFFFFFFFFFFFFFFFFFFF AND EQ PUSH2 0x6AA JUMPI PUSH32 0x767A686A4C3A04A95E094547835F2313A4E1FC9F6689362FEB2906141A3EF0EE PUSH1 0x40 MLOAD PUSH2 0x69A SWAP1 PUSH2 0x1634 JUMP JUMPDEST PUSH1 0x40 MLOAD DUP1 SWAP2 SUB SWAP1 LOG1 PUSH0 SWAP1 POP PUSH2 0x6B6 JUMP JUMPDEST DUP2 PUSH1 0x5 DUP2 SWAP1 SSTORE POP PUSH1 0x1 SWAP1 POP JUMPDEST SWAP2 SWAP1 POP JUMP JUMPDEST PUSH1 0x5 SLOAD DUP2 JUMP JUMPDEST PUSH0 DUP1 PUSH0 DUP2 SLOAD DUP1 SWAP3 SWAP2 SWAP1 PUSH2 0x6D3 SWAP1 PUSH2 0x1652 JUMP JUMPDEST SWAP2 SWAP1 POP SSTORE POP PUSH1 0x1 PUSH0 DUP2 SLOAD DUP1 SWAP3 SWAP2 SWAP1 PUSH2 0x6EA SWAP1 PUSH2 0x1652 JUMP JUMPDEST SWAP2 SWAP1 POP SSTORE POP PUSH1 0x3 PUSH0 SWAP1 DUP1 PUSH1 0x1 DUP2 SLOAD ADD DUP1 DUP3 SSTORE DUP1 SWAP2 POP POP PUSH1 0x1 SWAP1 SUB SWAP1 PUSH0 MSTORE PUSH1 0x20 PUSH0 KECCAK256 SWAP1 PUSH1 0x20 SWAP2 DUP3 DUP3 DIV ADD SWAP2 SWAP1 MOD SWAP1 SWAP2 SWAP1 SWAP2 SWAP1 SWAP2 PUSH2 0x100 EXP DUP2 SLOAD DUP2 PUSH1 0xFF MUL NOT AND SWAP1 DUP4 ISZERO ISZERO MUL OR SWAP1 SSTORE POP PUSH1 0x2 PUSH0 SWAP1 DUP1 PUSH1 0x1 DUP2 SLOAD ADD DUP1 DUP3 SSTORE DUP1 SWAP2 POP POP PUSH1 0x1 SWAP1 SUB SWAP1 PUSH0 MSTORE PUSH1 0x20 PUSH0 KECCAK256 ADD PUSH0 SWAP1 SWAP2 SWAP1 SWAP2 SWAP1 SWAP2 PUSH2 0x100 EXP DUP2 SLOAD DUP2 PUSH20 0xFFFFFFFFFFFFFFFFFFFFFFFFFFFFFFFFFFFFFFFF MUL NOT AND SWAP1 DUP4 PUSH20 0xFFFFFFFFFFFFFFFFFFFFFFFFFFFFFFFFFFFFFFFF AND MUL OR SWAP1 SSTORE POP PUSH1 0x1 SWAP1 POP SWAP1 JUMP JUMPDEST PUSH1 0x6 SLOAD DUP2 JUMP JUMPDEST PUSH0 DUP1 PUSH1 0x7 PUSH0 CALLER PUSH20 0xFFFFFFFFFFFFFFFFFFFFFFFFFFFFFFFFFFFFFFFF AND PUSH20 0xFFFFFFFFFFFFFFFFFFFFFFFFFFFFFFFFFFFFFFFF AND DUP2 MSTORE PUSH1 0x20 ADD SWAP1 DUP2 MSTORE PUSH1 0x20 ADD PUSH0 KECCAK256 PUSH1 0x2 ADD SLOAD SUB PUSH2 0x823 JUMPI PUSH32 0x767A686A4C3A04A95E094547835F2313A4E1FC9F6689362FEB2906141A3EF0EE PUSH1 0x40 MLOAD PUSH2 0x813 SWAP1 PUSH2 0x1709 JUMP JUMPDEST PUSH1 0x40 MLOAD DUP1 SWAP2 SUB SWAP1 LOG1 PUSH0 SWAP1 POP PUSH2 0xB97 JUMP JUMPDEST PUSH1 0x1 PUSH0 DUP2 SLOAD DUP1 SWAP3 SWAP2 SWAP1 PUSH2 0x835 SWAP1 PUSH2 0x1652 JUMP JUMPDEST SWAP2 SWAP1 POP SSTORE POP PUSH0 PUSH1 0x7 PUSH0 CALLER PUSH20 0xFFFFFFFFFFFFFFFFFFFFFFFFFFFFFFFFFFFFFFFF AND PUSH20 0xFFFFFFFFFFFFFFFFFFFFFFFFFFFFFFFFFFFFFFFF AND DUP2 MSTORE PUSH1 0x20 ADD SWAP1 DUP2 MSTORE PUSH1 0x20 ADD PUSH0 KECCAK256 PUSH1 0x3 ADD SLOAD SWAP1 POP PUSH0 PUSH1 0x2 DUP3 DUP2 SLOAD DUP2 LT PUSH2 0x893 JUMPI PUSH2 0x892 PUSH2 0x11A0 JUMP JUMPDEST JUMPDEST SWAP1 PUSH0 MSTORE PUSH1 0x20 PUSH0 KECCAK256 ADD PUSH0 PUSH2 0x100 EXP DUP2 SLOAD DUP2 PUSH20 0xFFFFFFFFFFFFFFFFFFFFFFFFFFFFFFFFFFFFFFFF MUL NOT AND SWAP1 DUP4 PUSH20 0xFFFFFFFFFFFFFFFFFFFFFFFFFFFFFFFFFFFFFFFF AND MUL OR SWAP1 SSTORE POP PUSH0 PUSH1 0x3 DUP3 DUP2 SLOAD DUP2 LT PUSH2 0x8ED JUMPI PUSH2 0x8EC PUSH2 0x11A0 JUMP JUMPDEST JUMPDEST SWAP1 PUSH0 MSTORE PUSH1 0x20 PUSH0 KECCAK256 SWAP1 PUSH1 0x20 SWAP2 DUP3 DUP3 DIV ADD SWAP2 SWAP1 MOD PUSH2 0x100 EXP DUP2 SLOAD DUP2 PUSH1 0xFF MUL NOT AND SWAP1 DUP4 ISZERO ISZERO MUL OR SWAP1 SSTORE POP PUSH1 0x40 MLOAD DUP1 PUSH1 0x40 ADD PUSH1 0x40 MSTORE DUP1 PUSH1 0x4 DUP2 MSTORE PUSH1 0x20 ADD PUSH32 0x4C45465400000000000000000000000000000000000000000000000000000000 DUP2 MSTORE POP PUSH1 0x7 PUSH0 CALLER PUSH20 0xFFFFFFFFFFFFFFFFFFFFFFFFFFFFFFFFFFFFFFFF AND PUSH20 0xFFFFFFFFFFFFFFFFFFFFFFFFFFFFFFFFFFFFFFFF AND DUP2 MSTORE PUSH1 0x20 ADD SWAP1 DUP2 MSTORE PUSH1 0x20 ADD PUSH0 KECCAK256 PUSH1 0x5 ADD SWAP1 DUP2 PUSH2 0x996 SWAP2 SWAP1 PUSH2 0x14C7 JUMP JUMPDEST POP TIMESTAMP PUSH1 0x7 PUSH0 CALLER PUSH20 0xFFFFFFFFFFFFFFFFFFFFFFFFFFFFFFFFFFFFFFFF AND PUSH20 0xFFFFFFFFFFFFFFFFFFFFFFFFFFFFFFFFFFFFFFFF AND DUP2 MSTORE PUSH1 0x20 ADD SWAP1 DUP2 MSTORE PUSH1 0x20 ADD PUSH0 KECCAK256 PUSH1 0x4 ADD DUP2 SWAP1 SSTORE POP PUSH0 PUSH1 0x8 DUP1 SLOAD SWAP1 POP SWAP1 POP PUSH0 JUMPDEST PUSH1 0x8 DUP1 SLOAD SWAP1 POP DUP2 LT ISZERO PUSH2 0xA7D JUMPI CALLER PUSH20 0xFFFFFFFFFFFFFFFFFFFFFFFFFFFFFFFFFFFFFFFF AND PUSH1 0x8 DUP3 DUP2 SLOAD DUP2 LT PUSH2 0xA1F JUMPI PUSH2 0xA1E PUSH2 0x11A0 JUMP JUMPDEST JUMPDEST SWAP1 PUSH0 MSTORE PUSH1 0x20 PUSH0 KECCAK256 ADD PUSH0 SWAP1 SLOAD SWAP1 PUSH2 0x100 EXP SWAP1 DIV PUSH20 0xFFFFFFFFFFFFFFFFFFFFFFFFFFFFFFFFFFFFFFFF AND PUSH20 0xFFFFFFFFFFFFFFFFFFFFFFFFFFFFFFFFFFFFFFFF AND SUB PUSH2 0xA6A JUMPI DUP1 SWAP2 POP PUSH2 0xA7D JUMP JUMPDEST DUP1 DUP1 PUSH2 0xA75 SWAP1 PUSH2 0x1652 JUMP JUMPDEST SWAP2 POP POP PUSH2 0x9E7 JUMP JUMPDEST POP JUMPDEST PUSH1 0x1 PUSH1 0x8 DUP1 SLOAD SWAP1 POP PUSH2 0xA91 SWAP2 SWAP1 PUSH2 0x1727 JUMP JUMPDEST DUP2 LT ISZERO PUSH2 0xB4C JUMPI PUSH1 0x8 PUSH1 0x1 DUP3 PUSH2 0xAA7 SWAP2 SWAP1 PUSH2 0x175A JUMP JUMPDEST DUP2 SLOAD DUP2 LT PUSH2 0xAB8 JUMPI PUSH2 0xAB7 PUSH2 0x11A0 JUMP JUMPDEST JUMPDEST SWAP1 PUSH0 MSTORE PUSH1 0x20 PUSH0 KECCAK256 ADD PUSH0 SWAP1 SLOAD SWAP1 PUSH2 0x100 EXP SWAP1 DIV PUSH20 0xFFFFFFFFFFFFFFFFFFFFFFFFFFFFFFFFFFFFFFFF AND PUSH1 0x8 DUP3 DUP2 SLOAD DUP2 LT PUSH2 0xAF4 JUMPI PUSH2 0xAF3 PUSH2 0x11A0 JUMP JUMPDEST JUMPDEST SWAP1 PUSH0 MSTORE PUSH1 0x20 PUSH0 KECCAK256 ADD PUSH0 PUSH2 0x100 EXP DUP2 SLOAD DUP2 PUSH20 0xFFFFFFFFFFFFFFFFFFFFFFFFFFFFFFFFFFFFFFFF MUL NOT AND SWAP1 DUP4 PUSH20 0xFFFFFFFFFFFFFFFFFFFFFFFFFFFFFFFFFFFFFFFF AND MUL OR SWAP1 SSTORE POP DUP1 DUP1 PUSH2 0xB44 SWAP1 PUSH2 0x1652 JUMP JUMPDEST SWAP2 POP POP PUSH2 0xA7F JUMP JUMPDEST PUSH1 0x8 DUP1 SLOAD DUP1 PUSH2 0xB5E JUMPI PUSH2 0xB5D PUSH2 0x178D JUMP JUMPDEST JUMPDEST PUSH1 0x1 SWAP1 SUB DUP2 DUP2 SWAP1 PUSH0 MSTORE PUSH1 0x20 PUSH0 KECCAK256 ADD PUSH0 PUSH2 0x100 EXP DUP2 SLOAD SWAP1 PUSH20 0xFFFFFFFFFFFFFFFFFFFFFFFFFFFFFFFFFFFFFFFF MUL NOT AND SWAP1 SSTORE SWAP1 SSTORE PUSH1 0x1 SWAP3 POP POP POP JUMPDEST SWAP1 JUMP JUMPDEST PUSH1 0x60 PUSH0 PUSH1 0x1 SLOAD PUSH8 0xFFFFFFFFFFFFFFFF DUP2 GT ISZERO PUSH2 0xBB9 JUMPI PUSH2 0xBB8 PUSH2 0xDB0 JUMP JUMPDEST JUMPDEST PUSH1 0x40 MLOAD SWAP1 DUP1 DUP3 MSTORE DUP1 PUSH1 0x20 MUL PUSH1 0x20 ADD DUP3 ADD PUSH1 0x40 MSTORE DUP1 ISZERO PUSH2 0xBE7 JUMPI DUP2 PUSH1 0x20 ADD PUSH1 0x20 DUP3 MUL DUP1 CALLDATASIZE DUP4 CALLDATACOPY DUP1 DUP3 ADD SWAP2 POP POP SWAP1 POP JUMPDEST POP SWAP1 POP PUSH0 DUP1 JUMPDEST PUSH1 0x3 DUP1 SLOAD SWAP1 POP DUP2 LT ISZERO PUSH2 0xC72 JUMPI PUSH1 0x3 DUP2 DUP2 SLOAD DUP2 LT PUSH2 0xC0E JUMPI PUSH2 0xC0D PUSH2 0x11A0 JUMP JUMPDEST JUMPDEST SWAP1 PUSH0 MSTORE PUSH1 0x20 PUSH0 KECCAK256 SWAP1 PUSH1 0x20 SWAP2 DUP3 DUP3 DIV ADD SWAP2 SWAP1 MOD SWAP1 SLOAD SWAP1 PUSH2 0x100 EXP SWAP1 DIV PUSH1 0xFF AND PUSH2 0xC5F JUMPI DUP1 DUP4 DUP4 DUP2 MLOAD DUP2 LT PUSH2 0xC44 JUMPI PUSH2 0xC43 PUSH2 0x11A0 JUMP JUMPDEST JUMPDEST PUSH1 0x20 MUL PUSH1 0x20 ADD ADD DUP2 DUP2 MSTORE POP POP DUP2 DUP1 PUSH2 0xC5B SWAP1 PUSH2 0x1652 JUMP JUMPDEST SWAP3 POP POP JUMPDEST DUP1 DUP1 PUSH2 0xC6A SWAP1 PUSH2 0x1652 JUMP JUMPDEST SWAP2 POP POP PUSH2 0xBED JUMP JUMPDEST POP DUP2 SWAP3 POP POP POP SWAP1 JUMP JUMPDEST PUSH1 0x3 DUP2 DUP2 SLOAD DUP2 LT PUSH2 0xC8A JUMPI PUSH0 DUP1 REVERT JUMPDEST SWAP1 PUSH0 MSTORE PUSH1 0x20 PUSH0 KECCAK256 SWAP1 PUSH1 0x20 SWAP2 DUP3 DUP3 DIV ADD SWAP2 SWAP1 MOD SWAP2 POP SLOAD SWAP1 PUSH2 0x100 EXP SWAP1 DIV PUSH1 0xFF AND DUP2 JUMP JUMPDEST PUSH0 PUSH1 0x4 PUSH0 SWAP1 SLOAD SWAP1 PUSH2 0x100 EXP SWAP1 DIV PUSH20 0xFFFFFFFFFFFFFFFFFFFFFFFFFFFFFFFFFFFFFFFF AND PUSH20 0xFFFFFFFFFFFFFFFFFFFFFFFFFFFFFFFFFFFFFFFF AND CALLER PUSH20 0xFFFFFFFFFFFFFFFFFFFFFFFFFFFFFFFFFFFFFFFF AND EQ PUSH2 0xD3E JUMPI PUSH32 0x767A686A4C3A04A95E094547835F2313A4E1FC9F6689362FEB2906141A3EF0EE PUSH1 0x40 MLOAD PUSH2 0xD2E SWAP1 PUSH2 0x1634 JUMP JUMPDEST PUSH1 0x40 MLOAD DUP1 SWAP2 SUB SWAP1 LOG1 PUSH0 SWAP1 POP PUSH2 0xD4A JUMP JUMPDEST DUP2 PUSH1 0x6 DUP2 SWAP1 SSTORE POP PUSH1 0x1 SWAP1 POP JUMPDEST SWAP2 SWAP1 POP JUMP JUMPDEST PUSH1 0x1 SLOAD DUP2 JUMP JUMPDEST PUSH1 0x40 MLOAD DUP1 PUSH1 0xC0 ADD PUSH1 0x40 MSTORE DUP1 PUSH1 0x60 DUP2 MSTORE PUSH1 0x20 ADD PUSH0 DUP2 MSTORE PUSH1 0x20 ADD PUSH0 DUP2 MSTORE PUSH1 0x20 ADD PUSH0 DUP2 MSTORE PUSH1 0x20 ADD PUSH0 DUP2 MSTORE PUSH1 0x20 ADD PUSH1 0x60 DUP2 MSTORE POP SWAP1 JUMP JUMPDEST PUSH0 PUSH1 0x40 MLOAD SWAP1 POP SWAP1 JUMP JUMPDEST PUSH0 DUP1 REVERT JUMPDEST PUSH0 DUP1 REVERT JUMPDEST PUSH0 DUP1 REVERT JUMPDEST PUSH0 DUP1 REVERT JUMPDEST PUSH0 PUSH1 0x1F NOT PUSH1 0x1F DUP4 ADD AND SWAP1 POP SWAP2 SWAP1 POP JUMP JUMPDEST PUSH32 0x4E487B7100000000000000000000000000000000000000000000000000000000 PUSH0 MSTORE PUSH1 0x41 PUSH1 0x4 MSTORE PUSH1 0x24 PUSH0 REVERT JUMPDEST PUSH2 0xDE6 DUP3 PUSH2 0xDA0 JUMP JUMPDEST DUP2 ADD DUP2 DUP2 LT PUSH8 0xFFFFFFFFFFFFFFFF DUP3 GT OR ISZERO PUSH2 0xE05 JUMPI PUSH2 0xE04 PUSH2 0xDB0 JUMP JUMPDEST JUMPDEST DUP1 PUSH1 0x40 MSTORE POP POP POP JUMP JUMPDEST PUSH0 PUSH2 0xE17 PUSH2 0xD87 JUMP JUMPDEST SWAP1 POP PUSH2 0xE23 DUP3 DUP3 PUSH2 0xDDD JUMP JUMPDEST SWAP2 SWAP1 POP JUMP JUMPDEST PUSH0 PUSH8 0xFFFFFFFFFFFFFFFF DUP3 GT ISZERO PUSH2 0xE42 JUMPI PUSH2 0xE41 PUSH2 0xDB0 JUMP JUMPDEST JUMPDEST PUSH2 0xE4B DUP3 PUSH2 0xDA0 JUMP JUMPDEST SWAP1 POP PUSH1 0x20 DUP2 ADD SWAP1 POP SWAP2 SWAP1 POP JUMP JUMPDEST DUP3 DUP2 DUP4 CALLDATACOPY PUSH0 DUP4 DUP4 ADD MSTORE POP POP POP JUMP JUMPDEST PUSH0 PUSH2 0xE78 PUSH2 0xE73 DUP5 PUSH2 0xE28 JUMP JUMPDEST PUSH2 0xE0E JUMP JUMPDEST SWAP1 POP DUP3 DUP2 MSTORE PUSH1 0x20 DUP2 ADD DUP5 DUP5 DUP5 ADD GT ISZERO PUSH2 0xE94 JUMPI PUSH2 0xE93 PUSH2 0xD9C JUMP JUMPDEST JUMPDEST PUSH2 0xE9F DUP5 DUP3 DUP6 PUSH2 0xE58 JUMP JUMPDEST POP SWAP4 SWAP3 POP POP POP JUMP JUMPDEST PUSH0 DUP3 PUSH1 0x1F DUP4 ADD SLT PUSH2 0xEBB JUMPI PUSH2 0xEBA PUSH2 0xD98 JUMP JUMPDEST JUMPDEST DUP2 CALLDATALOAD PUSH2 0xECB DUP5 DUP3 PUSH1 0x20 DUP7 ADD PUSH2 0xE66 JUMP JUMPDEST SWAP2 POP POP SWAP3 SWAP2 POP POP JUMP JUMPDEST PUSH0 DUP2 SWAP1 POP SWAP2 SWAP1 POP JUMP JUMPDEST PUSH2 0xEE6 DUP2 PUSH2 0xED4 JUMP JUMPDEST DUP2 EQ PUSH2 0xEF0 JUMPI PUSH0 DUP1 REVERT JUMPDEST POP JUMP JUMPDEST PUSH0 DUP2 CALLDATALOAD SWAP1 POP PUSH2 0xF01 DUP2 PUSH2 0xEDD JUMP JUMPDEST SWAP3 SWAP2 POP POP JUMP JUMPDEST PUSH0 DUP1 PUSH0 PUSH1 0x60 DUP5 DUP7 SUB SLT ISZERO PUSH2 0xF1E JUMPI PUSH2 0xF1D PUSH2 0xD90 JUMP JUMPDEST JUMPDEST PUSH0 DUP5 ADD CALLDATALOAD PUSH8 0xFFFFFFFFFFFFFFFF DUP2 GT ISZERO PUSH2 0xF3B JUMPI PUSH2 0xF3A PUSH2 0xD94 JUMP JUMPDEST JUMPDEST PUSH2 0xF47 DUP7 DUP3 DUP8 ADD PUSH2 0xEA7 JUMP JUMPDEST SWAP4 POP POP PUSH1 0x20 PUSH2 0xF58 DUP7 DUP3 DUP8 ADD PUSH2 0xEF3 JUMP JUMPDEST SWAP3 POP POP PUSH1 0x40 PUSH2 0xF69 DUP7 DUP3 DUP8 ADD PUSH2 0xEF3 JUMP JUMPDEST SWAP2 POP POP SWAP3 POP SWAP3 POP SWAP3 JUMP JUMPDEST PUSH0 DUP2 ISZERO ISZERO SWAP1 POP SWAP2 SWAP1 POP JUMP JUMPDEST PUSH2 0xF87 DUP2 PUSH2 0xF73 JUMP JUMPDEST DUP3 MSTORE POP POP JUMP JUMPDEST PUSH0 PUSH1 0x20 DUP3 ADD SWAP1 POP PUSH2 0xFA0 PUSH0 DUP4 ADD DUP5 PUSH2 0xF7E JUMP JUMPDEST SWAP3 SWAP2 POP POP JUMP JUMPDEST PUSH0 PUSH1 0x20 DUP3 DUP5 SUB SLT ISZERO PUSH2 0xFBB JUMPI PUSH2 0xFBA PUSH2 0xD90 JUMP JUMPDEST JUMPDEST PUSH0 PUSH2 0xFC8 DUP5 DUP3 DUP6 ADD PUSH2 0xEF3 JUMP JUMPDEST SWAP2 POP POP SWAP3 SWAP2 POP POP JUMP JUMPDEST PUSH0 PUSH20 0xFFFFFFFFFFFFFFFFFFFFFFFFFFFFFFFFFFFFFFFF DUP3 AND SWAP1 POP SWAP2 SWAP1 POP JUMP JUMPDEST PUSH0 PUSH2 0xFFA DUP3 PUSH2 0xFD1 JUMP JUMPDEST SWAP1 POP SWAP2 SWAP1 POP JUMP JUMPDEST PUSH2 0x100A DUP2 PUSH2 0xFF0 JUMP JUMPDEST DUP3 MSTORE POP POP JUMP JUMPDEST PUSH0 PUSH1 0x20 DUP3 ADD SWAP1 POP PUSH2 0x1023 PUSH0 DUP4 ADD DUP5 PUSH2 0x1001 JUMP JUMPDEST SWAP3 SWAP2 POP POP JUMP JUMPDEST PUSH2 0x1032 DUP2 PUSH2 0xED4 JUMP JUMPDEST DUP3 MSTORE POP POP JUMP JUMPDEST PUSH0 PUSH1 0x20 DUP3 ADD SWAP1 POP PUSH2 0x104B PUSH0 DUP4 ADD DUP5 PUSH2 0x1029 JUMP JUMPDEST SWAP3 SWAP2 POP POP JUMP JUMPDEST PUSH0 DUP2 MLOAD SWAP1 POP SWAP2 SWAP1 POP JUMP JUMPDEST PUSH0 DUP3 DUP3 MSTORE PUSH1 0x20 DUP3 ADD SWAP1 POP SWAP3 SWAP2 POP POP JUMP JUMPDEST PUSH0 DUP2 SWAP1 POP PUSH1 0x20 DUP3 ADD SWAP1 POP SWAP2 SWAP1 POP JUMP JUMPDEST PUSH2 0x1083 DUP2 PUSH2 0xED4 JUMP JUMPDEST DUP3 MSTORE POP POP JUMP JUMPDEST PUSH0 PUSH2 0x1094 DUP4 DUP4 PUSH2 0x107A JUMP JUMPDEST PUSH1 0x20 DUP4 ADD SWAP1 POP SWAP3 SWAP2 POP POP JUMP JUMPDEST PUSH0 PUSH1 0x20 DUP3 ADD SWAP1 POP SWAP2 SWAP1 POP JUMP JUMPDEST PUSH0 PUSH2 0x10B6 DUP3 PUSH2 0x1051 JUMP JUMPDEST PUSH2 0x10C0 DUP2 DUP6 PUSH2 0x105B JUMP JUMPDEST SWAP4 POP PUSH2 0x10CB DUP4 PUSH2 0x106B JUMP JUMPDEST DUP1 PUSH0 JUMPDEST DUP4 DUP2 LT ISZERO PUSH2 0x10FB JUMPI DUP2 MLOAD PUSH2 0x10E2 DUP9 DUP3 PUSH2 0x1089 JUMP JUMPDEST SWAP8 POP PUSH2 0x10ED DUP4 PUSH2 0x10A0 JUMP JUMPDEST SWAP3 POP POP PUSH1 0x1 DUP2 ADD SWAP1 POP PUSH2 0x10CE JUMP JUMPDEST POP DUP6 SWAP4 POP POP POP POP SWAP3 SWAP2 POP POP JUMP JUMPDEST PUSH0 PUSH1 0x20 DUP3 ADD SWAP1 POP DUP2 DUP2 SUB PUSH0 DUP4 ADD MSTORE PUSH2 0x1120 DUP2 DUP5 PUSH2 0x10AC JUMP JUMPDEST SWAP1 POP SWAP3 SWAP2 POP POP JUMP JUMPDEST PUSH0 DUP3 DUP3 MSTORE PUSH1 0x20 DUP3 ADD SWAP1 POP SWAP3 SWAP2 POP POP JUMP JUMPDEST PUSH32 0x4E6F207375636820726F6F6D2065786973747320210000000000000000000000 PUSH0 DUP3 ADD MSTORE POP JUMP JUMPDEST PUSH0 PUSH2 0x116C PUSH1 0x15 DUP4 PUSH2 0x1128 JUMP JUMPDEST SWAP2 POP PUSH2 0x1177 DUP3 PUSH2 0x1138 JUMP JUMPDEST PUSH1 0x20 DUP3 ADD SWAP1 POP SWAP2 SWAP1 POP JUMP JUMPDEST PUSH0 PUSH1 0x20 DUP3 ADD SWAP1 POP DUP2 DUP2 SUB PUSH0 DUP4 ADD MSTORE PUSH2 0x1199 DUP2 PUSH2 0x1160 JUMP JUMPDEST SWAP1 POP SWAP2 SWAP1 POP JUMP JUMPDEST PUSH32 0x4E487B7100000000000000000000000000000000000000000000000000000000 PUSH0 MSTORE PUSH1 0x32 PUSH1 0x4 MSTORE PUSH1 0x24 PUSH0 REVERT JUMPDEST PUSH32 0x526F6F6D20697320616C7265616479206F636375706965640000000000000000 PUSH0 DUP3 ADD MSTORE POP JUMP JUMPDEST PUSH0 PUSH2 0x1201 PUSH1 0x18 DUP4 PUSH2 0x1128 JUMP JUMPDEST SWAP2 POP PUSH2 0x120C DUP3 PUSH2 0x11CD JUMP JUMPDEST PUSH1 0x20 DUP3 ADD SWAP1 POP SWAP2 SWAP1 POP JUMP JUMPDEST PUSH0 PUSH1 0x20 DUP3 ADD SWAP1 POP DUP2 DUP2 SUB PUSH0 DUP4 ADD MSTORE PUSH2 0x122E DUP2 PUSH2 0x11F5 JUMP JUMPDEST SWAP1 POP SWAP2 SWAP1 POP JUMP JUMPDEST PUSH32 0x596F7520616C72656164792068617665206F6E6520726F6F6D2C796F75206361 PUSH0 DUP3 ADD MSTORE PUSH32 0x6E27742074616B6520616E6F7468657220726F6F6D2021000000000000000000 PUSH1 0x20 DUP3 ADD MSTORE POP JUMP JUMPDEST PUSH0 PUSH2 0x128F PUSH1 0x37 DUP4 PUSH2 0x1128 JUMP JUMPDEST SWAP2 POP PUSH2 0x129A DUP3 PUSH2 0x1235 JUMP JUMPDEST PUSH1 0x40 DUP3 ADD SWAP1 POP SWAP2 SWAP1 POP JUMP JUMPDEST PUSH0 PUSH1 0x20 DUP3 ADD SWAP1 POP DUP2 DUP2 SUB PUSH0 DUP4 ADD MSTORE PUSH2 0x12BC DUP2 PUSH2 0x1283 JUMP JUMPDEST SWAP1 POP SWAP2 SWAP1 POP JUMP JUMPDEST PUSH0 DUP2 MLOAD SWAP1 POP SWAP2 SWAP1 POP JUMP JUMPDEST PUSH32 0x4E487B7100000000000000000000000000000000000000000000000000000000 PUSH0 MSTORE PUSH1 0x22 PUSH1 0x4 MSTORE PUSH1 0x24 PUSH0 REVERT JUMPDEST PUSH0 PUSH1 0x2 DUP3 DIV SWAP1 POP PUSH1 0x1 DUP3 AND DUP1 PUSH2 0x1311 JUMPI PUSH1 0x7F DUP3 AND SWAP2 POP JUMPDEST PUSH1 0x20 DUP3 LT DUP2 SUB PUSH2 0x1324 JUMPI PUSH2 0x1323 PUSH2 0x12CD JUMP JUMPDEST JUMPDEST POP SWAP2 SWAP1 POP JUMP JUMPDEST PUSH0 DUP2 SWAP1 POP DUP2 PUSH0 MSTORE PUSH1 0x20 PUSH0 KECCAK256 SWAP1 POP SWAP2 SWAP1 POP JUMP JUMPDEST PUSH0 PUSH1 0x20 PUSH1 0x1F DUP4 ADD DIV SWAP1 POP SWAP2 SWAP1 POP JUMP JUMPDEST PUSH0 DUP3 DUP3 SHL SWAP1 POP SWAP3 SWAP2 POP POP JUMP JUMPDEST PUSH0 PUSH1 0x8 DUP4 MUL PUSH2 0x1386 PUSH32 0xFFFFFFFFFFFFFFFFFFFFFFFFFFFFFFFFFFFFFFFFFFFFFFFFFFFFFFFFFFFFFFFF DUP3 PUSH2 0x134B JUMP JUMPDEST PUSH2 0x1390 DUP7 DUP4 PUSH2 0x134B JUMP JUMPDEST SWAP6 POP DUP1 NOT DUP5 AND SWAP4 POP DUP1 DUP7 AND DUP5 OR SWAP3 POP POP POP SWAP4 SWAP3 POP POP POP JUMP JUMPDEST PUSH0 DUP2 SWAP1 POP SWAP2 SWAP1 POP JUMP JUMPDEST PUSH0 PUSH2 0x13CB PUSH2 0x13C6 PUSH2 0x13C1 DUP5 PUSH2 0xED4 JUMP JUMPDEST PUSH2 0x13A8 JUMP JUMPDEST PUSH2 0xED4 JUMP JUMPDEST SWAP1 POP SWAP2 SWAP1 POP JUMP JUMPDEST PUSH0 DUP2 SWAP1 POP SWAP2 SWAP1 POP JUMP JUMPDEST PUSH2 0x13E4 DUP4 PUSH2 0x13B1 JUMP JUMPDEST PUSH2 0x13F8 PUSH2 0x13F0 DUP3 PUSH2 0x13D2 JUMP JUMPDEST DUP5 DUP5 SLOAD PUSH2 0x1357 JUMP JUMPDEST DUP3 SSTORE POP POP POP POP JUMP JUMPDEST PUSH0 SWAP1 JUMP JUMPDEST PUSH2 0x140C PUSH2 0x1400 JUMP JUMPDEST PUSH2 0x1417 DUP2 DUP5 DUP5 PUSH2 0x13DB JUMP JUMPDEST POP POP POP JUMP JUMPDEST JUMPDEST DUP2 DUP2 LT ISZERO PUSH2 0x143A JUMPI PUSH2 0x142F PUSH0 DUP3 PUSH2 0x1404 JUMP JUMPDEST PUSH1 0x1 DUP2 ADD SWAP1 POP PUSH2 0x141D JUMP JUMPDEST POP POP JUMP JUMPDEST PUSH1 0x1F DUP3 GT ISZERO PUSH2 0x147F JUMPI PUSH2 0x1450 DUP2 PUSH2 0x132A JUMP JUMPDEST PUSH2 0x1459 DUP5 PUSH2 0x133C JUMP JUMPDEST DUP2 ADD PUSH1 0x20 DUP6 LT ISZERO PUSH2 0x1468 JUMPI DUP2 SWAP1 POP JUMPDEST PUSH2 0x147C PUSH2 0x1474 DUP6 PUSH2 0x133C JUMP JUMPDEST DUP4 ADD DUP3 PUSH2 0x141C JUMP JUMPDEST POP POP JUMPDEST POP POP POP JUMP JUMPDEST PUSH0 DUP3 DUP3 SHR SWAP1 POP SWAP3 SWAP2 POP POP JUMP JUMPDEST PUSH0 PUSH2 0x149F PUSH0 NOT DUP5 PUSH1 0x8 MUL PUSH2 0x1484 JUMP JUMPDEST NOT DUP1 DUP4 AND SWAP2 POP POP SWAP3 SWAP2 POP POP JUMP JUMPDEST PUSH0 PUSH2 0x14B7 DUP4 DUP4 PUSH2 0x1490 JUMP JUMPDEST SWAP2 POP DUP3 PUSH1 0x2 MUL DUP3 OR SWAP1 POP SWAP3 SWAP2 POP POP JUMP JUMPDEST PUSH2 0x14D0 DUP3 PUSH2 0x12C3 JUMP JUMPDEST PUSH8 0xFFFFFFFFFFFFFFFF DUP2 GT ISZERO PUSH2 0x14E9 JUMPI PUSH2 0x14E8 PUSH2 0xDB0 JUMP JUMPDEST JUMPDEST PUSH2 0x14F3 DUP3 SLOAD PUSH2 0x12FA JUMP JUMPDEST PUSH2 0x14FE DUP3 DUP3 DUP6 PUSH2 0x143E JUMP JUMPDEST PUSH0 PUSH1 0x20 SWAP1 POP PUSH1 0x1F DUP4 GT PUSH1 0x1 DUP2 EQ PUSH2 0x152F JUMPI PUSH0 DUP5 ISZERO PUSH2 0x151D JUMPI DUP3 DUP8 ADD MLOAD SWAP1 POP JUMPDEST PUSH2 0x1527 DUP6 DUP3 PUSH2 0x14AC JUMP JUMPDEST DUP7 SSTORE POP PUSH2 0x158E JUMP JUMPDEST PUSH1 0x1F NOT DUP5 AND PUSH2 0x153D DUP7 PUSH2 0x132A JUMP JUMPDEST PUSH0 JUMPDEST DUP3 DUP2 LT ISZERO PUSH2 0x1564 JUMPI DUP5 DUP10 ADD MLOAD DUP3 SSTORE PUSH1 0x1 DUP3 ADD SWAP2 POP PUSH1 0x20 DUP6 ADD SWAP5 POP PUSH1 0x20 DUP2 ADD SWAP1 POP PUSH2 0x153F JUMP JUMPDEST DUP7 DUP4 LT ISZERO PUSH2 0x1581 JUMPI DUP5 DUP10 ADD MLOAD PUSH2 0x157D PUSH1 0x1F DUP10 AND DUP3 PUSH2 0x1490 JUMP JUMPDEST DUP4 SSTORE POP JUMPDEST PUSH1 0x1 PUSH1 0x2 DUP9 MUL ADD DUP9 SSTORE POP POP POP JUMPDEST POP POP POP POP POP POP JUMP JUMPDEST PUSH32 0x4E487B7100000000000000000000000000000000000000000000000000000000 PUSH0 MSTORE PUSH1 0x11 PUSH1 0x4 MSTORE PUSH1 0x24 PUSH0 REVERT JUMPDEST PUSH0 PUSH2 0x15CD DUP3 PUSH2 0xED4 JUMP JUMPDEST SWAP2 POP PUSH0 DUP3 SUB PUSH2 0x15DF JUMPI PUSH2 0x15DE PUSH2 0x1596 JUMP JUMPDEST JUMPDEST PUSH1 0x1 DUP3 SUB SWAP1 POP SWAP2 SWAP1 POP JUMP JUMPDEST PUSH32 0x4E6F7420617574686572697A6564202100000000000000000000000000000000 PUSH0 DUP3 ADD MSTORE POP JUMP JUMPDEST PUSH0 PUSH2 0x161E PUSH1 0x10 DUP4 PUSH2 0x1128 JUMP JUMPDEST SWAP2 POP PUSH2 0x1629 DUP3 PUSH2 0x15EA JUMP JUMPDEST PUSH1 0x20 DUP3 ADD SWAP1 POP SWAP2 SWAP1 POP JUMP JUMPDEST PUSH0 PUSH1 0x20 DUP3 ADD SWAP1 POP DUP2 DUP2 SUB PUSH0 DUP4 ADD MSTORE PUSH2 0x164B DUP2 PUSH2 0x1612 JUMP JUMPDEST SWAP1 POP SWAP2 SWAP1 POP JUMP JUMPDEST PUSH0 PUSH2 0x165C DUP3 PUSH2 0xED4 JUMP JUMPDEST SWAP2 POP PUSH32 0xFFFFFFFFFFFFFFFFFFFFFFFFFFFFFFFFFFFFFFFFFFFFFFFFFFFFFFFFFFFFFFFF DUP3 SUB PUSH2 0x168E JUMPI PUSH2 0x168D PUSH2 0x1596 JUMP JUMPDEST JUMPDEST PUSH1 0x1 DUP3 ADD SWAP1 POP SWAP2 SWAP1 POP JUMP JUMPDEST PUSH32 0x536F7272792C20596F7520617265206E6F74206173736F636961746564207769 PUSH0 DUP3 ADD MSTORE PUSH32 0x746820616E7920726F6F6D206865726520210000000000000000000000000000 PUSH1 0x20 DUP3 ADD MSTORE POP JUMP JUMPDEST PUSH0 PUSH2 0x16F3 PUSH1 0x32 DUP4 PUSH2 0x1128 JUMP JUMPDEST SWAP2 POP PUSH2 0x16FE DUP3 PUSH2 0x1699 JUMP JUMPDEST PUSH1 0x40 DUP3 ADD SWAP1 POP SWAP2 SWAP1 POP JUMP JUMPDEST PUSH0 PUSH1 0x20 DUP3 ADD SWAP1 POP DUP2 DUP2 SUB PUSH0 DUP4 ADD MSTORE PUSH2 0x1720 DUP2 PUSH2 0x16E7 JUMP JUMPDEST SWAP1 POP SWAP2 SWAP1 POP JUMP JUMPDEST PUSH0 PUSH2 0x1731 DUP3 PUSH2 0xED4 JUMP JUMPDEST SWAP2 POP PUSH2 0x173C DUP4 PUSH2 0xED4 JUMP JUMPDEST SWAP3 POP DUP3 DUP3 SUB SWAP1 POP DUP2 DUP2 GT ISZERO PUSH2 0x1754 JUMPI PUSH2 0x1753 PUSH2 0x1596 JUMP JUMPDEST JUMPDEST SWAP3 SWAP2 POP POP JUMP JUMPDEST PUSH0 PUSH2 0x1764 DUP3 PUSH2 0xED4 JUMP JUMPDEST SWAP2 POP PUSH2 0x176F DUP4 PUSH2 0xED4 JUMP JUMPDEST SWAP3 POP DUP3 DUP3 ADD SWAP1 POP DUP1 DUP3 GT ISZERO PUSH2 0x1787 JUMPI PUSH2 0x1786 PUSH2 0x1596 JUMP JUMPDEST JUMPDEST SWAP3 SWAP2 POP POP JUMP JUMPDEST PUSH32 0x4E487B7100000000000000000000000000000000000000000000000000000000 PUSH0 MSTORE PUSH1 0x31 PUSH1 0x4 MSTORE PUSH1 0x24 PUSH0 REVERT INVALID LOG2 PUSH5 0x6970667358 0x22 SLT KECCAK256 SWAP7 CREATE SWAP6 0xB7 0xB4 DUP11 0xD4 0xAE PC DUP11 0xEA 0xD8 0xCE DUP10 EXP 0xDE LOG4 GASPRICE JUMPI SWAP15 0xB8 RETURN PUSH16 0x80A4412A4785D8E3DE64736F6C634300 ADDMOD EQ STOP CALLER "
		},
		"gasEstimates": {
			"creation": {
				"codeDepositCost": "1225600",
				"executionCost": "infinite",
				"totalCost": "infinite"
			},
			"external": {
				"Leave()": "infinite",
				"Registration(string,uint256,uint256)": "infinite",
				"RoomsState(uint256)": "6597",
				"TakeFare()": "375",
				"Tenants(uint256)": "4967",
				"availableRooms()": "infinite",
				"changeDeposite(uint256)": "24950",
				"changeRent(uint256)": "24971",
				"creatingNewRoom()": "infinite",
				"depositFee()": "2514",
				"monthlyFee()": "2425",
				"totalRoomsAvailable()": "2535"
			}
		},
		"methodIdentifiers": {
			"Leave()": "ac8f5ead",
			"Registration(string,uint256,uint256)": "294c6082",
			"RoomsState(uint256)": "b2ae388a",
			"TakeFare()": "4c5869f6",
			"Tenants(uint256)": "441f91d9",
			"availableRooms()": "ae3c0176",
			"changeDeposite(uint256)": "54db01b7",
			"changeRent(uint256)": "dd7ef706",
			"creatingNewRoom()": "7d0d3c6d",
			"depositFee()": "67a52793",
			"monthlyFee()": "8cfd3e40",
			"totalRoomsAvailable()": "ef2ae960"
		}
	},
	"abi": [
		{
			"inputs": [],
			"stateMutability": "nonpayable",
			"type": "constructor"
		},
		{
			"anonymous": false,
			"inputs": [
				{
					"indexed": false,
					"internalType": "string",
					"name": "",
					"type": "string"
				}
			],
			"name": "Trigger",
			"type": "event"
		},
		{
			"anonymous": false,
			"inputs": [
				{
					"indexed": false,
					"internalType": "string",
					"name": "",
					"type": "string"
				}
			],
			"name": "sayThankYou",
			"type": "event"
		},
		{
			"inputs": [],
			"name": "Leave",
			"outputs": [
				{
					"internalType": "bool",
					"name": "",
					"type": "bool"
				}
			],
			"stateMutability": "nonpayable",
			"type": "function"
		},
		{
			"inputs": [
				{
					"internalType": "string",
					"name": "name",
					"type": "string"
				},
				{
					"internalType": "uint256",
					"name": "aadhar",
					"type": "uint256"
				},
				{
					"internalType": "uint256",
					"name": "roomNumber",
					"type": "uint256"
				}
			],
			"name": "Registration",
			"outputs": [
				{
					"internalType": "bool",
					"name": "",
					"type": "bool"
				}
			],
			"stateMutability": "nonpayable",
			"type": "function"
		},
		{
			"inputs": [
				{
					"internalType": "uint256",
					"name": "",
					"type": "uint256"
				}
			],
			"name": "RoomsState",
			"outputs": [
				{
					"internalType": "bool",
					"name": "",
					"type": "bool"
				}
			],
			"stateMutability": "view",
			"type": "function"
		},
		{
			"inputs": [],
			"name": "TakeFare",
			"outputs": [
				{
					"internalType": "bool",
					"name": "",
					"type": "bool"
				}
			],
			"stateMutability": "nonpayable",
			"type": "function"
		},
		{
			"inputs": [
				{
					"internalType": "uint256",
					"name": "",
					"type": "uint256"
				}
			],
			"name": "Tenants",
			"outputs": [
				{
					"internalType": "address",
					"name": "",
					"type": "address"
				}
			],
			"stateMutability": "view",
			"type": "function"
		},
		{
			"inputs": [],
			"name": "availableRooms",
			"outputs": [
				{
					"internalType": "uint256[]",
					"name": "",
					"type": "uint256[]"
				}
			],
			"stateMutability": "view",
			"type": "function"
		},
		{
			"inputs": [
				{
					"internalType": "uint256",
					"name": "amount",
					"type": "uint256"
				}
			],
			"name": "changeDeposite",
			"outputs": [
				{
					"internalType": "bool",
					"name": "",
					"type": "bool"
				}
			],
			"stateMutability": "nonpayable",
			"type": "function"
		},
		{
			"inputs": [
				{
					"internalType": "uint256",
					"name": "amount",
					"type": "uint256"
				}
			],
			"name": "changeRent",
			"outputs": [
				{
					"internalType": "bool",
					"name": "",
					"type": "bool"
				}
			],
			"stateMutability": "nonpayable",
			"type": "function"
		},
		{
			"inputs": [],
			"name": "creatingNewRoom",
			"outputs": [
				{
					"internalType": "bool",
					"name": "",
					"type": "bool"
				}
			],
			"stateMutability": "nonpayable",
			"type": "function"
		},
		{
			"inputs": [],
			"name": "depositFee",
			"outputs": [
				{
					"internalType": "uint256",
					"name": "",
					"type": "uint256"
				}
			],
			"stateMutability": "view",
			"type": "function"
		},
		{
			"inputs": [],
			"name": "monthlyFee",
			"outputs": [
				{
					"internalType": "uint256",
					"name": "",
					"type": "uint256"
				}
			],
			"stateMutability": "view",
			"type": "function"
		},
		{
			"inputs": [],
			"name": "totalRoomsAvailable",
			"outputs": [
				{
					"internalType": "uint256",
					"name": "",
					"type": "uint256"
				}
			],
			"stateMutability": "view",
			"type": "function"
		}
	]
}