{
	"data": {
		"bytecode": {
			"linkReferences": {},
			"object": "60806040526040518061014001604052807fffffffffffffffffffffffffffffffffffffffffffffffffffffffffffffffff60000b8152602001600260000b8152602001600360000b8152602001600460000b8152602001600560000b8152602001600660000b8152602001600760000b8152602001600860000b8152602001600960000b8152602001600a60000b815250600090600a6100a19291906100b4565b503480156100ae57600080fd5b50610116565b82600a81019282156100e8579160200282015b828111156100e7578251829060000b9055916020019190600101906100c7565b5b5090506100f591906100f9565b5090565b5b808211156101125760008160009055506001016100fa565b5090565b6103c8806101256000396000f3fe608060405234801561001057600080fd5b506004361061002b5760003560e01c80631fd1a07c14610030575b600080fd5b61004a600480360381019061004591906101ef565b610060565b6040516100579190610227565b60405180910390f35b600061007b8260006001600a61007691906102c9565b610082565b9050919050565b60008183111561009557600090506101d3565b818314156100e257600083600a81106100d7577f4e487b7100000000000000000000000000000000000000000000000000000000600052603260045260246000fd5b0154841490506101d3565b6000600284846100f291906102c9565b6100fc9190610298565b846101079190610242565b905084600082600a8110610144577f4e487b7100000000000000000000000000000000000000000000000000000000600052603260045260246000fd5b0154121561016b576101638560018361015d9190610242565b85610082565b9150506101d3565b84600082600a81106101a6577f4e487b7100000000000000000000000000000000000000000000000000000000600052603260045260246000fd5b015413156101cd576101c585856001846101c091906102c9565b610082565b9150506101d3565b60019150505b9392505050565b6000813590506101e98161037b565b92915050565b60006020828403121561020157600080fd5b600061020f848285016101da565b91505092915050565b610221816102fd565b82525050565b600060208201905061023c6000830184610218565b92915050565b600061024d82610313565b915061025883610313565b9250827fffffffffffffffffffffffffffffffffffffffffffffffffffffffffffffffff0382111561028d5761028c61031d565b5b828201905092915050565b60006102a382610313565b91506102ae83610313565b9250826102be576102bd61034c565b5b828204905092915050565b60006102d482610313565b91506102df83610313565b9250828210156102f2576102f161031d565b5b828203905092915050565b60008115159050919050565b6000819050919050565b6000819050919050565b7f4e487b7100000000000000000000000000000000000000000000000000000000600052601160045260246000fd5b7f4e487b7100000000000000000000000000000000000000000000000000000000600052601260045260246000fd5b61038481610309565b811461038f57600080fd5b5056fea26469706673582212204eb3b53961f19dee34b28c685ee803266e14060e4b91f0b9f758507fb7e5092f64736f6c63430008030033",
			"opcodes": "PUSH1 0x80 PUSH1 0x40 MSTORE PUSH1 0x40 MLOAD DUP1 PUSH2 0x140 ADD PUSH1 0x40 MSTORE DUP1 PUSH32 0xFFFFFFFFFFFFFFFFFFFFFFFFFFFFFFFFFFFFFFFFFFFFFFFFFFFFFFFFFFFFFFFF PUSH1 0x0 SIGNEXTEND DUP2 MSTORE PUSH1 0x20 ADD PUSH1 0x2 PUSH1 0x0 SIGNEXTEND DUP2 MSTORE PUSH1 0x20 ADD PUSH1 0x3 PUSH1 0x0 SIGNEXTEND DUP2 MSTORE PUSH1 0x20 ADD PUSH1 0x4 PUSH1 0x0 SIGNEXTEND DUP2 MSTORE PUSH1 0x20 ADD PUSH1 0x5 PUSH1 0x0 SIGNEXTEND DUP2 MSTORE PUSH1 0x20 ADD PUSH1 0x6 PUSH1 0x0 SIGNEXTEND DUP2 MSTORE PUSH1 0x20 ADD PUSH1 0x7 PUSH1 0x0 SIGNEXTEND DUP2 MSTORE PUSH1 0x20 ADD PUSH1 0x8 PUSH1 0x0 SIGNEXTEND DUP2 MSTORE PUSH1 0x20 ADD PUSH1 0x9 PUSH1 0x0 SIGNEXTEND DUP2 MSTORE PUSH1 0x20 ADD PUSH1 0xA PUSH1 0x0 SIGNEXTEND DUP2 MSTORE POP PUSH1 0x0 SWAP1 PUSH1 0xA PUSH2 0xA1 SWAP3 SWAP2 SWAP1 PUSH2 0xB4 JUMP JUMPDEST POP CALLVALUE DUP1 ISZERO PUSH2 0xAE JUMPI PUSH1 0x0 DUP1 REVERT JUMPDEST POP PUSH2 0x116 JUMP JUMPDEST DUP3 PUSH1 0xA DUP2 ADD SWAP3 DUP3 ISZERO PUSH2 0xE8 JUMPI SWAP2 PUSH1 0x20 MUL DUP3 ADD JUMPDEST DUP3 DUP2 GT ISZERO PUSH2 0xE7 JUMPI DUP3 MLOAD DUP3 SWAP1 PUSH1 0x0 SIGNEXTEND SWAP1 SSTORE SWAP2 PUSH1 0x20 ADD SWAP2 SWAP1 PUSH1 0x1 ADD SWAP1 PUSH2 0xC7 JUMP JUMPDEST JUMPDEST POP SWAP1 POP PUSH2 0xF5 SWAP2 SWAP1 PUSH2 0xF9 JUMP JUMPDEST POP SWAP1 JUMP JUMPDEST JUMPDEST DUP1 DUP3 GT ISZERO PUSH2 0x112 JUMPI PUSH1 0x0 DUP2 PUSH1 0x0 SWAP1 SSTORE POP PUSH1 0x1 ADD PUSH2 0xFA JUMP JUMPDEST POP SWAP1 JUMP JUMPDEST PUSH2 0x3C8 DUP1 PUSH2 0x125 PUSH1 0x0 CODECOPY PUSH1 0x0 RETURN INVALID PUSH1 0x80 PUSH1 0x40 MSTORE CALLVALUE DUP1 ISZERO PUSH2 0x10 JUMPI PUSH1 0x0 DUP1 REVERT JUMPDEST POP PUSH1 0x4 CALLDATASIZE LT PUSH2 0x2B JUMPI PUSH1 0x0 CALLDATALOAD PUSH1 0xE0 SHR DUP1 PUSH4 0x1FD1A07C EQ PUSH2 0x30 JUMPI JUMPDEST PUSH1 0x0 DUP1 REVERT JUMPDEST PUSH2 0x4A PUSH1 0x4 DUP1 CALLDATASIZE SUB DUP2 ADD SWAP1 PUSH2 0x45 SWAP2 SWAP1 PUSH2 0x1EF JUMP JUMPDEST PUSH2 0x60 JUMP JUMPDEST PUSH1 0x40 MLOAD PUSH2 0x57 SWAP2 SWAP1 PUSH2 0x227 JUMP JUMPDEST PUSH1 0x40 MLOAD DUP1 SWAP2 SUB SWAP1 RETURN JUMPDEST PUSH1 0x0 PUSH2 0x7B DUP3 PUSH1 0x0 PUSH1 0x1 PUSH1 0xA PUSH2 0x76 SWAP2 SWAP1 PUSH2 0x2C9 JUMP JUMPDEST PUSH2 0x82 JUMP JUMPDEST SWAP1 POP SWAP2 SWAP1 POP JUMP JUMPDEST PUSH1 0x0 DUP2 DUP4 GT ISZERO PUSH2 0x95 JUMPI PUSH1 0x0 SWAP1 POP PUSH2 0x1D3 JUMP JUMPDEST DUP2 DUP4 EQ ISZERO PUSH2 0xE2 JUMPI PUSH1 0x0 DUP4 PUSH1 0xA DUP2 LT PUSH2 0xD7 JUMPI PUSH32 0x4E487B7100000000000000000000000000000000000000000000000000000000 PUSH1 0x0 MSTORE PUSH1 0x32 PUSH1 0x4 MSTORE PUSH1 0x24 PUSH1 0x0 REVERT JUMPDEST ADD SLOAD DUP5 EQ SWAP1 POP PUSH2 0x1D3 JUMP JUMPDEST PUSH1 0x0 PUSH1 0x2 DUP5 DUP5 PUSH2 0xF2 SWAP2 SWAP1 PUSH2 0x2C9 JUMP JUMPDEST PUSH2 0xFC SWAP2 SWAP1 PUSH2 0x298 JUMP JUMPDEST DUP5 PUSH2 0x107 SWAP2 SWAP1 PUSH2 0x242 JUMP JUMPDEST SWAP1 POP DUP5 PUSH1 0x0 DUP3 PUSH1 0xA DUP2 LT PUSH2 0x144 JUMPI PUSH32 0x4E487B7100000000000000000000000000000000000000000000000000000000 PUSH1 0x0 MSTORE PUSH1 0x32 PUSH1 0x4 MSTORE PUSH1 0x24 PUSH1 0x0 REVERT JUMPDEST ADD SLOAD SLT ISZERO PUSH2 0x16B JUMPI PUSH2 0x163 DUP6 PUSH1 0x1 DUP4 PUSH2 0x15D SWAP2 SWAP1 PUSH2 0x242 JUMP JUMPDEST DUP6 PUSH2 0x82 JUMP JUMPDEST SWAP2 POP POP PUSH2 0x1D3 JUMP JUMPDEST DUP5 PUSH1 0x0 DUP3 PUSH1 0xA DUP2 LT PUSH2 0x1A6 JUMPI PUSH32 0x4E487B7100000000000000000000000000000000000000000000000000000000 PUSH1 0x0 MSTORE PUSH1 0x32 PUSH1 0x4 MSTORE PUSH1 0x24 PUSH1 0x0 REVERT JUMPDEST ADD SLOAD SGT ISZERO PUSH2 0x1CD JUMPI PUSH2 0x1C5 DUP6 DUP6 PUSH1 0x1 DUP5 PUSH2 0x1C0 SWAP2 SWAP1 PUSH2 0x2C9 JUMP JUMPDEST PUSH2 0x82 JUMP JUMPDEST SWAP2 POP POP PUSH2 0x1D3 JUMP JUMPDEST PUSH1 0x1 SWAP2 POP POP JUMPDEST SWAP4 SWAP3 POP POP POP JUMP JUMPDEST PUSH1 0x0 DUP2 CALLDATALOAD SWAP1 POP PUSH2 0x1E9 DUP2 PUSH2 0x37B JUMP JUMPDEST SWAP3 SWAP2 POP POP JUMP JUMPDEST PUSH1 0x0 PUSH1 0x20 DUP3 DUP5 SUB SLT ISZERO PUSH2 0x201 JUMPI PUSH1 0x0 DUP1 REVERT JUMPDEST PUSH1 0x0 PUSH2 0x20F DUP5 DUP3 DUP6 ADD PUSH2 0x1DA JUMP JUMPDEST SWAP2 POP POP SWAP3 SWAP2 POP POP JUMP JUMPDEST PUSH2 0x221 DUP2 PUSH2 0x2FD JUMP JUMPDEST DUP3 MSTORE POP POP JUMP JUMPDEST PUSH1 0x0 PUSH1 0x20 DUP3 ADD SWAP1 POP PUSH2 0x23C PUSH1 0x0 DUP4 ADD DUP5 PUSH2 0x218 JUMP JUMPDEST SWAP3 SWAP2 POP POP JUMP JUMPDEST PUSH1 0x0 PUSH2 0x24D DUP3 PUSH2 0x313 JUMP JUMPDEST SWAP2 POP PUSH2 0x258 DUP4 PUSH2 0x313 JUMP JUMPDEST SWAP3 POP DUP3 PUSH32 0xFFFFFFFFFFFFFFFFFFFFFFFFFFFFFFFFFFFFFFFFFFFFFFFFFFFFFFFFFFFFFFFF SUB DUP3 GT ISZERO PUSH2 0x28D JUMPI PUSH2 0x28C PUSH2 0x31D JUMP JUMPDEST JUMPDEST DUP3 DUP3 ADD SWAP1 POP SWAP3 SWAP2 POP POP JUMP JUMPDEST PUSH1 0x0 PUSH2 0x2A3 DUP3 PUSH2 0x313 JUMP JUMPDEST SWAP2 POP PUSH2 0x2AE DUP4 PUSH2 0x313 JUMP JUMPDEST SWAP3 POP DUP3 PUSH2 0x2BE JUMPI PUSH2 0x2BD PUSH2 0x34C JUMP JUMPDEST JUMPDEST DUP3 DUP3 DIV SWAP1 POP SWAP3 SWAP2 POP POP JUMP JUMPDEST PUSH1 0x0 PUSH2 0x2D4 DUP3 PUSH2 0x313 JUMP JUMPDEST SWAP2 POP PUSH2 0x2DF DUP4 PUSH2 0x313 JUMP JUMPDEST SWAP3 POP DUP3 DUP3 LT ISZERO PUSH2 0x2F2 JUMPI PUSH2 0x2F1 PUSH2 0x31D JUMP JUMPDEST JUMPDEST DUP3 DUP3 SUB SWAP1 POP SWAP3 SWAP2 POP POP JUMP JUMPDEST PUSH1 0x0 DUP2 ISZERO ISZERO SWAP1 POP SWAP2 SWAP1 POP JUMP JUMPDEST PUSH1 0x0 DUP2 SWAP1 POP SWAP2 SWAP1 POP JUMP JUMPDEST PUSH1 0x0 DUP2 SWAP1 POP SWAP2 SWAP1 POP JUMP JUMPDEST PUSH32 0x4E487B7100000000000000000000000000000000000000000000000000000000 PUSH1 0x0 MSTORE PUSH1 0x11 PUSH1 0x4 MSTORE PUSH1 0x24 PUSH1 0x0 REVERT JUMPDEST PUSH32 0x4E487B7100000000000000000000000000000000000000000000000000000000 PUSH1 0x0 MSTORE PUSH1 0x12 PUSH1 0x4 MSTORE PUSH1 0x24 PUSH1 0x0 REVERT JUMPDEST PUSH2 0x384 DUP2 PUSH2 0x309 JUMP JUMPDEST DUP2 EQ PUSH2 0x38F JUMPI PUSH1 0x0 DUP1 REVERT JUMPDEST POP JUMP INVALID LOG2 PUSH5 0x6970667358 0x22 SLT KECCAK256 0x4E 0xB3 0xB5 CODECOPY PUSH2 0xF19D 0xEE CALLVALUE 0xB2 DUP13 PUSH9 0x5EE803266E14060E4B SWAP2 CREATE 0xB9 0xF7 PC POP PUSH32 0xB7E5092F64736F6C634300080300330000000000000000000000000000000000 "
		},
		"gasEstimates": {
			"creation": {
				"codeDepositCost": "193600",
				"executionCost": "infinite",
				"totalCost": "infinite"
			},
			"external": {
				"BiS(int256)": "infinite"
			},
			"internal": {
				"BiSe(int256,uint256,uint256)": "infinite"
			}
		},
		"methodIdentifiers": {
			"BiS(int256)": "1fd1a07c"
		}
	},
	"abi": [
		{
			"inputs": [
				{
					"internalType": "int256",
					"name": "target",
					"type": "int256"
				}
			],
			"name": "BiS",
			"outputs": [
				{
					"internalType": "bool",
					"name": "",
					"type": "bool"
				}
			],
			"stateMutability": "view",
			"type": "function"
		}
	]
}