{
	"data": {
		"bytecode": {
			"linkReferences": {},
			"object": "608060405234801561001057600080fd5b506105ca806100206000396000f3fe608060405234801561001057600080fd5b506004361061004c5760003560e01c80632a7c24f1146100515780633b904fd914610081578063609e076f146100b1578063c2d85baf146100e1575b600080fd5b61006b600480360381019061006691906101d5565b610111565b6040516100789190610220565b60405180910390f35b61009b600480360381019061009691906101d5565b61017e565b6040516100a89190610220565b60405180910390f35b6100cb60048036038101906100c691906101d5565b610194565b6040516100d89190610220565b60405180910390f35b6100fb60048036038101906100f691906101d5565b6101aa565b6040516101089190610220565b60405180910390f35b6000808214156101245760019050610178565b600061013c8460028561013791906102cf565b610111565b90506000818261014c9190610339565b9050600160028561015d91906104ee565b141561017257848161016f9190610339565b90505b80925050505b92915050565b6000818361018c9190610339565b905092915050565b600081836101a29190610450565b905092915050565b600081836101b8919061023b565b905092915050565b6000813590506101cf8161057d565b92915050565b600080604083850312156101e857600080fd5b60006101f6858286016101c0565b9250506020610207858286016101c0565b9150509250929050565b61021a816104e4565b82525050565b60006020820190506102356000830184610211565b92915050565b6000610246826104e4565b9150610251836104e4565b9250817f7fffffffffffffffffffffffffffffffffffffffffffffffffffffffffffffff0383136000831215161561028c5761028b61051f565b5b817f80000000000000000000000000000000000000000000000000000000000000000383126000831216156102c4576102c361051f565b5b828201905092915050565b60006102da826104e4565b91506102e5836104e4565b9250826102f5576102f461054e565b5b600160000383147f80000000000000000000000000000000000000000000000000000000000000008314161561032e5761032d61051f565b5b828205905092915050565b6000610344826104e4565b915061034f836104e4565b9250827f7fffffffffffffffffffffffffffffffffffffffffffffffffffffffffffffff048211600084136000841316161561038e5761038d61051f565b5b817f800000000000000000000000000000000000000000000000000000000000000005831260008412600084131616156103cb576103ca61051f565b5b827f800000000000000000000000000000000000000000000000000000000000000005821260008413600084121616156104085761040761051f565b5b827f7fffffffffffffffffffffffffffffffffffffffffffffffffffffffffffffff05821260008412600084121616156104455761044461051f565b5b828202905092915050565b600061045b826104e4565b9150610466836104e4565b9250827f8000000000000000000000000000000000000000000000000000000000000000018212600084121516156104a1576104a061051f565b5b827f7fffffffffffffffffffffffffffffffffffffffffffffffffffffffffffffff0182136000841216156104d9576104d861051f565b5b828203905092915050565b6000819050919050565b60006104f9826104e4565b9150610504836104e4565b9250826105145761051361054e565b5b828207905092915050565b7f4e487b7100000000000000000000000000000000000000000000000000000000600052601160045260246000fd5b7f4e487b7100000000000000000000000000000000000000000000000000000000600052601260045260246000fd5b610586816104e4565b811461059157600080fd5b5056fea26469706673582212201f56946695a640810f3e90b6581d796a22cdf58ce833f6f843b38048e38f174064736f6c63430008030033",
			"opcodes": "PUSH1 0x80 PUSH1 0x40 MSTORE CALLVALUE DUP1 ISZERO PUSH2 0x10 JUMPI PUSH1 0x0 DUP1 REVERT JUMPDEST POP PUSH2 0x5CA DUP1 PUSH2 0x20 PUSH1 0x0 CODECOPY PUSH1 0x0 RETURN INVALID PUSH1 0x80 PUSH1 0x40 MSTORE CALLVALUE DUP1 ISZERO PUSH2 0x10 JUMPI PUSH1 0x0 DUP1 REVERT JUMPDEST POP PUSH1 0x4 CALLDATASIZE LT PUSH2 0x4C JUMPI PUSH1 0x0 CALLDATALOAD PUSH1 0xE0 SHR DUP1 PUSH4 0x2A7C24F1 EQ PUSH2 0x51 JUMPI DUP1 PUSH4 0x3B904FD9 EQ PUSH2 0x81 JUMPI DUP1 PUSH4 0x609E076F EQ PUSH2 0xB1 JUMPI DUP1 PUSH4 0xC2D85BAF EQ PUSH2 0xE1 JUMPI JUMPDEST PUSH1 0x0 DUP1 REVERT JUMPDEST PUSH2 0x6B PUSH1 0x4 DUP1 CALLDATASIZE SUB DUP2 ADD SWAP1 PUSH2 0x66 SWAP2 SWAP1 PUSH2 0x1D5 JUMP JUMPDEST PUSH2 0x111 JUMP JUMPDEST PUSH1 0x40 MLOAD PUSH2 0x78 SWAP2 SWAP1 PUSH2 0x220 JUMP JUMPDEST PUSH1 0x40 MLOAD DUP1 SWAP2 SUB SWAP1 RETURN JUMPDEST PUSH2 0x9B PUSH1 0x4 DUP1 CALLDATASIZE SUB DUP2 ADD SWAP1 PUSH2 0x96 SWAP2 SWAP1 PUSH2 0x1D5 JUMP JUMPDEST PUSH2 0x17E JUMP JUMPDEST PUSH1 0x40 MLOAD PUSH2 0xA8 SWAP2 SWAP1 PUSH2 0x220 JUMP JUMPDEST PUSH1 0x40 MLOAD DUP1 SWAP2 SUB SWAP1 RETURN JUMPDEST PUSH2 0xCB PUSH1 0x4 DUP1 CALLDATASIZE SUB DUP2 ADD SWAP1 PUSH2 0xC6 SWAP2 SWAP1 PUSH2 0x1D5 JUMP JUMPDEST PUSH2 0x194 JUMP JUMPDEST PUSH1 0x40 MLOAD PUSH2 0xD8 SWAP2 SWAP1 PUSH2 0x220 JUMP JUMPDEST PUSH1 0x40 MLOAD DUP1 SWAP2 SUB SWAP1 RETURN JUMPDEST PUSH2 0xFB PUSH1 0x4 DUP1 CALLDATASIZE SUB DUP2 ADD SWAP1 PUSH2 0xF6 SWAP2 SWAP1 PUSH2 0x1D5 JUMP JUMPDEST PUSH2 0x1AA JUMP JUMPDEST PUSH1 0x40 MLOAD PUSH2 0x108 SWAP2 SWAP1 PUSH2 0x220 JUMP JUMPDEST PUSH1 0x40 MLOAD DUP1 SWAP2 SUB SWAP1 RETURN JUMPDEST PUSH1 0x0 DUP1 DUP3 EQ ISZERO PUSH2 0x124 JUMPI PUSH1 0x1 SWAP1 POP PUSH2 0x178 JUMP JUMPDEST PUSH1 0x0 PUSH2 0x13C DUP5 PUSH1 0x2 DUP6 PUSH2 0x137 SWAP2 SWAP1 PUSH2 0x2CF JUMP JUMPDEST PUSH2 0x111 JUMP JUMPDEST SWAP1 POP PUSH1 0x0 DUP2 DUP3 PUSH2 0x14C SWAP2 SWAP1 PUSH2 0x339 JUMP JUMPDEST SWAP1 POP PUSH1 0x1 PUSH1 0x2 DUP6 PUSH2 0x15D SWAP2 SWAP1 PUSH2 0x4EE JUMP JUMPDEST EQ ISZERO PUSH2 0x172 JUMPI DUP5 DUP2 PUSH2 0x16F SWAP2 SWAP1 PUSH2 0x339 JUMP JUMPDEST SWAP1 POP JUMPDEST DUP1 SWAP3 POP POP POP JUMPDEST SWAP3 SWAP2 POP POP JUMP JUMPDEST PUSH1 0x0 DUP2 DUP4 PUSH2 0x18C SWAP2 SWAP1 PUSH2 0x339 JUMP JUMPDEST SWAP1 POP SWAP3 SWAP2 POP POP JUMP JUMPDEST PUSH1 0x0 DUP2 DUP4 PUSH2 0x1A2 SWAP2 SWAP1 PUSH2 0x450 JUMP JUMPDEST SWAP1 POP SWAP3 SWAP2 POP POP JUMP JUMPDEST PUSH1 0x0 DUP2 DUP4 PUSH2 0x1B8 SWAP2 SWAP1 PUSH2 0x23B JUMP JUMPDEST SWAP1 POP SWAP3 SWAP2 POP POP JUMP JUMPDEST PUSH1 0x0 DUP2 CALLDATALOAD SWAP1 POP PUSH2 0x1CF DUP2 PUSH2 0x57D JUMP JUMPDEST SWAP3 SWAP2 POP POP JUMP JUMPDEST PUSH1 0x0 DUP1 PUSH1 0x40 DUP4 DUP6 SUB SLT ISZERO PUSH2 0x1E8 JUMPI PUSH1 0x0 DUP1 REVERT JUMPDEST PUSH1 0x0 PUSH2 0x1F6 DUP6 DUP3 DUP7 ADD PUSH2 0x1C0 JUMP JUMPDEST SWAP3 POP POP PUSH1 0x20 PUSH2 0x207 DUP6 DUP3 DUP7 ADD PUSH2 0x1C0 JUMP JUMPDEST SWAP2 POP POP SWAP3 POP SWAP3 SWAP1 POP JUMP JUMPDEST PUSH2 0x21A DUP2 PUSH2 0x4E4 JUMP JUMPDEST DUP3 MSTORE POP POP JUMP JUMPDEST PUSH1 0x0 PUSH1 0x20 DUP3 ADD SWAP1 POP PUSH2 0x235 PUSH1 0x0 DUP4 ADD DUP5 PUSH2 0x211 JUMP JUMPDEST SWAP3 SWAP2 POP POP JUMP JUMPDEST PUSH1 0x0 PUSH2 0x246 DUP3 PUSH2 0x4E4 JUMP JUMPDEST SWAP2 POP PUSH2 0x251 DUP4 PUSH2 0x4E4 JUMP JUMPDEST SWAP3 POP DUP2 PUSH32 0x7FFFFFFFFFFFFFFFFFFFFFFFFFFFFFFFFFFFFFFFFFFFFFFFFFFFFFFFFFFFFFFF SUB DUP4 SGT PUSH1 0x0 DUP4 SLT ISZERO AND ISZERO PUSH2 0x28C JUMPI PUSH2 0x28B PUSH2 0x51F JUMP JUMPDEST JUMPDEST DUP2 PUSH32 0x8000000000000000000000000000000000000000000000000000000000000000 SUB DUP4 SLT PUSH1 0x0 DUP4 SLT AND ISZERO PUSH2 0x2C4 JUMPI PUSH2 0x2C3 PUSH2 0x51F JUMP JUMPDEST JUMPDEST DUP3 DUP3 ADD SWAP1 POP SWAP3 SWAP2 POP POP JUMP JUMPDEST PUSH1 0x0 PUSH2 0x2DA DUP3 PUSH2 0x4E4 JUMP JUMPDEST SWAP2 POP PUSH2 0x2E5 DUP4 PUSH2 0x4E4 JUMP JUMPDEST SWAP3 POP DUP3 PUSH2 0x2F5 JUMPI PUSH2 0x2F4 PUSH2 0x54E JUMP JUMPDEST JUMPDEST PUSH1 0x1 PUSH1 0x0 SUB DUP4 EQ PUSH32 0x8000000000000000000000000000000000000000000000000000000000000000 DUP4 EQ AND ISZERO PUSH2 0x32E JUMPI PUSH2 0x32D PUSH2 0x51F JUMP JUMPDEST JUMPDEST DUP3 DUP3 SDIV SWAP1 POP SWAP3 SWAP2 POP POP JUMP JUMPDEST PUSH1 0x0 PUSH2 0x344 DUP3 PUSH2 0x4E4 JUMP JUMPDEST SWAP2 POP PUSH2 0x34F DUP4 PUSH2 0x4E4 JUMP JUMPDEST SWAP3 POP DUP3 PUSH32 0x7FFFFFFFFFFFFFFFFFFFFFFFFFFFFFFFFFFFFFFFFFFFFFFFFFFFFFFFFFFFFFFF DIV DUP3 GT PUSH1 0x0 DUP5 SGT PUSH1 0x0 DUP5 SGT AND AND ISZERO PUSH2 0x38E JUMPI PUSH2 0x38D PUSH2 0x51F JUMP JUMPDEST JUMPDEST DUP2 PUSH32 0x8000000000000000000000000000000000000000000000000000000000000000 SDIV DUP4 SLT PUSH1 0x0 DUP5 SLT PUSH1 0x0 DUP5 SGT AND AND ISZERO PUSH2 0x3CB JUMPI PUSH2 0x3CA PUSH2 0x51F JUMP JUMPDEST JUMPDEST DUP3 PUSH32 0x8000000000000000000000000000000000000000000000000000000000000000 SDIV DUP3 SLT PUSH1 0x0 DUP5 SGT PUSH1 0x0 DUP5 SLT AND AND ISZERO PUSH2 0x408 JUMPI PUSH2 0x407 PUSH2 0x51F JUMP JUMPDEST JUMPDEST DUP3 PUSH32 0x7FFFFFFFFFFFFFFFFFFFFFFFFFFFFFFFFFFFFFFFFFFFFFFFFFFFFFFFFFFFFFFF SDIV DUP3 SLT PUSH1 0x0 DUP5 SLT PUSH1 0x0 DUP5 SLT AND AND ISZERO PUSH2 0x445 JUMPI PUSH2 0x444 PUSH2 0x51F JUMP JUMPDEST JUMPDEST DUP3 DUP3 MUL SWAP1 POP SWAP3 SWAP2 POP POP JUMP JUMPDEST PUSH1 0x0 PUSH2 0x45B DUP3 PUSH2 0x4E4 JUMP JUMPDEST SWAP2 POP PUSH2 0x466 DUP4 PUSH2 0x4E4 JUMP JUMPDEST SWAP3 POP DUP3 PUSH32 0x8000000000000000000000000000000000000000000000000000000000000000 ADD DUP3 SLT PUSH1 0x0 DUP5 SLT ISZERO AND ISZERO PUSH2 0x4A1 JUMPI PUSH2 0x4A0 PUSH2 0x51F JUMP JUMPDEST JUMPDEST DUP3 PUSH32 0x7FFFFFFFFFFFFFFFFFFFFFFFFFFFFFFFFFFFFFFFFFFFFFFFFFFFFFFFFFFFFFFF ADD DUP3 SGT PUSH1 0x0 DUP5 SLT AND ISZERO PUSH2 0x4D9 JUMPI PUSH2 0x4D8 PUSH2 0x51F JUMP JUMPDEST JUMPDEST DUP3 DUP3 SUB SWAP1 POP SWAP3 SWAP2 POP POP JUMP JUMPDEST PUSH1 0x0 DUP2 SWAP1 POP SWAP2 SWAP1 POP JUMP JUMPDEST PUSH1 0x0 PUSH2 0x4F9 DUP3 PUSH2 0x4E4 JUMP JUMPDEST SWAP2 POP PUSH2 0x504 DUP4 PUSH2 0x4E4 JUMP JUMPDEST SWAP3 POP DUP3 PUSH2 0x514 JUMPI PUSH2 0x513 PUSH2 0x54E JUMP JUMPDEST JUMPDEST DUP3 DUP3 SMOD SWAP1 POP SWAP3 SWAP2 POP POP JUMP JUMPDEST PUSH32 0x4E487B7100000000000000000000000000000000000000000000000000000000 PUSH1 0x0 MSTORE PUSH1 0x11 PUSH1 0x4 MSTORE PUSH1 0x24 PUSH1 0x0 REVERT JUMPDEST PUSH32 0x4E487B7100000000000000000000000000000000000000000000000000000000 PUSH1 0x0 MSTORE PUSH1 0x12 PUSH1 0x4 MSTORE PUSH1 0x24 PUSH1 0x0 REVERT JUMPDEST PUSH2 0x586 DUP2 PUSH2 0x4E4 JUMP JUMPDEST DUP2 EQ PUSH2 0x591 JUMPI PUSH1 0x0 DUP1 REVERT JUMPDEST POP JUMP INVALID LOG2 PUSH5 0x6970667358 0x22 SLT KECCAK256 0x1F JUMP SWAP5 PUSH7 0x95A640810F3E90 0xB6 PC SAR PUSH26 0x6A22CDF58CE833F6F843B38048E38F174064736F6C6343000803 STOP CALLER "
		},
		"gasEstimates": {
			"creation": {
				"codeDepositCost": "296400",
				"executionCost": "337",
				"totalCost": "296737"
			},
			"external": {
				"addition(int256,int256)": "infinite",
				"multiplication(int256,int256)": "infinite",
				"power(int256,int256)": "infinite",
				"subtraction(int256,int256)": "infinite"
			}
		},
		"methodIdentifiers": {
			"addition(int256,int256)": "c2d85baf",
			"multiplication(int256,int256)": "3b904fd9",
			"power(int256,int256)": "2a7c24f1",
			"subtraction(int256,int256)": "609e076f"
		}
	},
	"abi": [
		{
			"inputs": [
				{
					"internalType": "int256",
					"name": "a",
					"type": "int256"
				},
				{
					"internalType": "int256",
					"name": "b",
					"type": "int256"
				}
			],
			"name": "addition",
			"outputs": [
				{
					"internalType": "int256",
					"name": "",
					"type": "int256"
				}
			],
			"stateMutability": "pure",
			"type": "function"
		},
		{
			"inputs": [
				{
					"internalType": "int256",
					"name": "a",
					"type": "int256"
				},
				{
					"internalType": "int256",
					"name": "b",
					"type": "int256"
				}
			],
			"name": "multiplication",
			"outputs": [
				{
					"internalType": "int256",
					"name": "",
					"type": "int256"
				}
			],
			"stateMutability": "pure",
			"type": "function"
		},
		{
			"inputs": [
				{
					"internalType": "int256",
					"name": "a",
					"type": "int256"
				},
				{
					"internalType": "int256",
					"name": "b",
					"type": "int256"
				}
			],
			"name": "power",
			"outputs": [
				{
					"internalType": "int256",
					"name": "",
					"type": "int256"
				}
			],
			"stateMutability": "pure",
			"type": "function"
		},
		{
			"inputs": [
				{
					"internalType": "int256",
					"name": "a",
					"type": "int256"
				},
				{
					"internalType": "int256",
					"name": "b",
					"type": "int256"
				}
			],
			"name": "subtraction",
			"outputs": [
				{
					"internalType": "int256",
					"name": "",
					"type": "int256"
				}
			],
			"stateMutability": "pure",
			"type": "function"
		}
	]
}