{
	"data": {
		"bytecode": {
			"linkReferences": {},
			"object": "608060405260065f806101000a81548160ff0219169083600b8111156100285761002761003e565b5b0217905550348015610038575f80fd5b5061006b565b7f4e487b71000000000000000000000000000000000000000000000000000000005f52602160045260245ffd5b610347806100785f395ff3fe608060405234801561000f575f80fd5b506004361061003f575f3560e01c806354bb88e3146100435780637d70066e1461005f578063862a4d471461007d575b5f80fd5b61005d600480360381019061005891906101b0565b61009b565b005b6100676100c6565b6040516100749190610265565b60405180910390f35b610085610179565b60405161009291906102f8565b60405180910390f35b805f806101000a81548160ff0219169083600b8111156100be576100bd610285565b5b021790555050565b60606001600b8111156100dc576100db610285565b5b5f8054906101000a900460ff16600b8111156100fb576100fa610285565b5b0361013d576040518060400160405280601481526020017f796573206974206973206c6f76657273206461790000000000000000000000008152509050610176565b6040518060400160405280600c81526020017f6261636b20746f20776f726b000000000000000000000000000000000000000081525090505b90565b5f8054906101000a900460ff1681565b5f80fd5b600c8110610199575f80fd5b50565b5f813590506101aa8161018d565b92915050565b5f602082840312156101c5576101c4610189565b5b5f6101d28482850161019c565b91505092915050565b5f81519050919050565b5f82825260208201905092915050565b5f5b838110156102125780820151818401526020810190506101f7565b5f8484015250505050565b5f601f19601f8301169050919050565b5f610237826101db565b61024181856101e5565b93506102518185602086016101f5565b61025a8161021d565b840191505092915050565b5f6020820190508181035f83015261027d818461022d565b905092915050565b7f4e487b71000000000000000000000000000000000000000000000000000000005f52602160045260245ffd5b600c81106102c3576102c2610285565b5b50565b5f8190506102d3826102b2565b919050565b5f6102e2826102c6565b9050919050565b6102f2816102d8565b82525050565b5f60208201905061030b5f8301846102e9565b9291505056fea26469706673582212206e7135e8c2035ab66cf3537d9aed92e6261eaf1d40dd768d8a6cb7dd451e146664736f6c63430008140033",
			"opcodes": "PUSH1 0x80 PUSH1 0x40 MSTORE PUSH1 0x6 PUSH0 DUP1 PUSH2 0x100 EXP DUP2 SLOAD DUP2 PUSH1 0xFF MUL NOT AND SWAP1 DUP4 PUSH1 0xB DUP2 GT ISZERO PUSH2 0x28 JUMPI PUSH2 0x27 PUSH2 0x3E JUMP JUMPDEST JUMPDEST MUL OR SWAP1 SSTORE POP CALLVALUE DUP1 ISZERO PUSH2 0x38 JUMPI PUSH0 DUP1 REVERT JUMPDEST POP PUSH2 0x6B JUMP JUMPDEST PUSH32 0x4E487B7100000000000000000000000000000000000000000000000000000000 PUSH0 MSTORE PUSH1 0x21 PUSH1 0x4 MSTORE PUSH1 0x24 PUSH0 REVERT JUMPDEST PUSH2 0x347 DUP1 PUSH2 0x78 PUSH0 CODECOPY PUSH0 RETURN INVALID PUSH1 0x80 PUSH1 0x40 MSTORE CALLVALUE DUP1 ISZERO PUSH2 0xF JUMPI PUSH0 DUP1 REVERT JUMPDEST POP PUSH1 0x4 CALLDATASIZE LT PUSH2 0x3F JUMPI PUSH0 CALLDATALOAD PUSH1 0xE0 SHR DUP1 PUSH4 0x54BB88E3 EQ PUSH2 0x43 JUMPI DUP1 PUSH4 0x7D70066E EQ PUSH2 0x5F JUMPI DUP1 PUSH4 0x862A4D47 EQ PUSH2 0x7D JUMPI JUMPDEST PUSH0 DUP1 REVERT JUMPDEST PUSH2 0x5D PUSH1 0x4 DUP1 CALLDATASIZE SUB DUP2 ADD SWAP1 PUSH2 0x58 SWAP2 SWAP1 PUSH2 0x1B0 JUMP JUMPDEST PUSH2 0x9B JUMP JUMPDEST STOP JUMPDEST PUSH2 0x67 PUSH2 0xC6 JUMP JUMPDEST PUSH1 0x40 MLOAD PUSH2 0x74 SWAP2 SWAP1 PUSH2 0x265 JUMP JUMPDEST PUSH1 0x40 MLOAD DUP1 SWAP2 SUB SWAP1 RETURN JUMPDEST PUSH2 0x85 PUSH2 0x179 JUMP JUMPDEST PUSH1 0x40 MLOAD PUSH2 0x92 SWAP2 SWAP1 PUSH2 0x2F8 JUMP JUMPDEST PUSH1 0x40 MLOAD DUP1 SWAP2 SUB SWAP1 RETURN JUMPDEST DUP1 PUSH0 DUP1 PUSH2 0x100 EXP DUP2 SLOAD DUP2 PUSH1 0xFF MUL NOT AND SWAP1 DUP4 PUSH1 0xB DUP2 GT ISZERO PUSH2 0xBE JUMPI PUSH2 0xBD PUSH2 0x285 JUMP JUMPDEST JUMPDEST MUL OR SWAP1 SSTORE POP POP JUMP JUMPDEST PUSH1 0x60 PUSH1 0x1 PUSH1 0xB DUP2 GT ISZERO PUSH2 0xDC JUMPI PUSH2 0xDB PUSH2 0x285 JUMP JUMPDEST JUMPDEST PUSH0 DUP1 SLOAD SWAP1 PUSH2 0x100 EXP SWAP1 DIV PUSH1 0xFF AND PUSH1 0xB DUP2 GT ISZERO PUSH2 0xFB JUMPI PUSH2 0xFA PUSH2 0x285 JUMP JUMPDEST JUMPDEST SUB PUSH2 0x13D JUMPI PUSH1 0x40 MLOAD DUP1 PUSH1 0x40 ADD PUSH1 0x40 MSTORE DUP1 PUSH1 0x14 DUP2 MSTORE PUSH1 0x20 ADD PUSH32 0x796573206974206973206C6F7665727320646179000000000000000000000000 DUP2 MSTORE POP SWAP1 POP PUSH2 0x176 JUMP JUMPDEST PUSH1 0x40 MLOAD DUP1 PUSH1 0x40 ADD PUSH1 0x40 MSTORE DUP1 PUSH1 0xC DUP2 MSTORE PUSH1 0x20 ADD PUSH32 0x6261636B20746F20776F726B0000000000000000000000000000000000000000 DUP2 MSTORE POP SWAP1 POP JUMPDEST SWAP1 JUMP JUMPDEST PUSH0 DUP1 SLOAD SWAP1 PUSH2 0x100 EXP SWAP1 DIV PUSH1 0xFF AND DUP2 JUMP JUMPDEST PUSH0 DUP1 REVERT JUMPDEST PUSH1 0xC DUP2 LT PUSH2 0x199 JUMPI PUSH0 DUP1 REVERT JUMPDEST POP JUMP JUMPDEST PUSH0 DUP2 CALLDATALOAD SWAP1 POP PUSH2 0x1AA DUP2 PUSH2 0x18D JUMP JUMPDEST SWAP3 SWAP2 POP POP JUMP JUMPDEST PUSH0 PUSH1 0x20 DUP3 DUP5 SUB SLT ISZERO PUSH2 0x1C5 JUMPI PUSH2 0x1C4 PUSH2 0x189 JUMP JUMPDEST JUMPDEST PUSH0 PUSH2 0x1D2 DUP5 DUP3 DUP6 ADD PUSH2 0x19C JUMP JUMPDEST SWAP2 POP POP SWAP3 SWAP2 POP POP JUMP JUMPDEST PUSH0 DUP2 MLOAD SWAP1 POP SWAP2 SWAP1 POP JUMP JUMPDEST PUSH0 DUP3 DUP3 MSTORE PUSH1 0x20 DUP3 ADD SWAP1 POP SWAP3 SWAP2 POP POP JUMP JUMPDEST PUSH0 JUMPDEST DUP4 DUP2 LT ISZERO PUSH2 0x212 JUMPI DUP1 DUP3 ADD MLOAD DUP2 DUP5 ADD MSTORE PUSH1 0x20 DUP2 ADD SWAP1 POP PUSH2 0x1F7 JUMP JUMPDEST PUSH0 DUP5 DUP5 ADD MSTORE POP POP POP POP JUMP JUMPDEST PUSH0 PUSH1 0x1F NOT PUSH1 0x1F DUP4 ADD AND SWAP1 POP SWAP2 SWAP1 POP JUMP JUMPDEST PUSH0 PUSH2 0x237 DUP3 PUSH2 0x1DB JUMP JUMPDEST PUSH2 0x241 DUP2 DUP6 PUSH2 0x1E5 JUMP JUMPDEST SWAP4 POP PUSH2 0x251 DUP2 DUP6 PUSH1 0x20 DUP7 ADD PUSH2 0x1F5 JUMP JUMPDEST PUSH2 0x25A DUP2 PUSH2 0x21D JUMP JUMPDEST DUP5 ADD SWAP2 POP POP SWAP3 SWAP2 POP POP JUMP JUMPDEST PUSH0 PUSH1 0x20 DUP3 ADD SWAP1 POP DUP2 DUP2 SUB PUSH0 DUP4 ADD MSTORE PUSH2 0x27D DUP2 DUP5 PUSH2 0x22D JUMP JUMPDEST SWAP1 POP SWAP3 SWAP2 POP POP JUMP JUMPDEST PUSH32 0x4E487B7100000000000000000000000000000000000000000000000000000000 PUSH0 MSTORE PUSH1 0x21 PUSH1 0x4 MSTORE PUSH1 0x24 PUSH0 REVERT JUMPDEST PUSH1 0xC DUP2 LT PUSH2 0x2C3 JUMPI PUSH2 0x2C2 PUSH2 0x285 JUMP JUMPDEST JUMPDEST POP JUMP JUMPDEST PUSH0 DUP2 SWAP1 POP PUSH2 0x2D3 DUP3 PUSH2 0x2B2 JUMP JUMPDEST SWAP2 SWAP1 POP JUMP JUMPDEST PUSH0 PUSH2 0x2E2 DUP3 PUSH2 0x2C6 JUMP JUMPDEST SWAP1 POP SWAP2 SWAP1 POP JUMP JUMPDEST PUSH2 0x2F2 DUP2 PUSH2 0x2D8 JUMP JUMPDEST DUP3 MSTORE POP POP JUMP JUMPDEST PUSH0 PUSH1 0x20 DUP3 ADD SWAP1 POP PUSH2 0x30B PUSH0 DUP4 ADD DUP5 PUSH2 0x2E9 JUMP JUMPDEST SWAP3 SWAP2 POP POP JUMP INVALID LOG2 PUSH5 0x6970667358 0x22 SLT KECCAK256 PUSH15 0x7135E8C2035AB66CF3537D9AED92E6 0x26 0x1E 0xAF SAR BLOCKHASH 0xDD PUSH23 0x8D8A6CB7DD451E146664736F6C63430008140033000000 "
		},
		"gasEstimates": {
			"creation": {
				"codeDepositCost": "167800",
				"executionCost": "24510",
				"totalCost": "192310"
			},
			"external": {
				"changeMonth(uint8)": "24623",
				"currentMonth()": "2573",
				"sayIt()": "infinite"
			}
		},
		"methodIdentifiers": {
			"changeMonth(uint8)": "54bb88e3",
			"currentMonth()": "862a4d47",
			"sayIt()": "7d70066e"
		}
	},
	"abi": [
		{
			"inputs": [
				{
					"internalType": "enum month",
					"name": "changed_month",
					"type": "uint8"
				}
			],
			"name": "changeMonth",
			"outputs": [],
			"stateMutability": "nonpayable",
			"type": "function"
		},
		{
			"inputs": [],
			"name": "currentMonth",
			"outputs": [
				{
					"internalType": "enum month",
					"name": "",
					"type": "uint8"
				}
			],
			"stateMutability": "view",
			"type": "function"
		},
		{
			"inputs": [],
			"name": "sayIt",
			"outputs": [
				{
					"internalType": "string",
					"name": "",
					"type": "string"
				}
			],
			"stateMutability": "view",
			"type": "function"
		}
	]
}