{
	"data": {
		"bytecode": {
			"linkReferences": {},
			"object": "608060405234801561001057600080fd5b506040518060400160405280600481526020017f52617669000000000000000000000000000000000000000000000000000000008152506000908051906020019061005c92919061006a565b50600260018190555061016e565b8280546100769061010d565b90600052602060002090601f01602090048101928261009857600085556100df565b82601f106100b157805160ff19168380011785556100df565b828001600101855582156100df579182015b828111156100de5782518255916020019190600101906100c3565b5b5090506100ec91906100f0565b5090565b5b808211156101095760008160009055506001016100f1565b5090565b6000600282049050600182168061012557607f821691505b602082108114156101395761013861013f565b5b50919050565b7f4e487b7100000000000000000000000000000000000000000000000000000000600052602260045260246000fd5b61036b8061017d6000396000f3fe608060405234801561001057600080fd5b506004361061004c5760003560e01c806317d7de7c14610051578063457676ee1461006f5780639227793314610079578063967e6e6514610083575b600080fd5b6100596100a1565b60405161006691906101a8565b60405180910390f35b610077610133565b005b610081610149565b005b61008b610156565b60405161009891906101ca565b60405180910390f35b6060600080546100b090610294565b80601f01602080910402602001604051908101604052809291908181526020018280546100dc90610294565b80156101295780601f106100fe57610100808354040283529160200191610129565b820191906000526020600020905b81548152906001019060200180831161010c57829003601f168201915b5050505050905090565b600180546101419190610201565b600181905550565b6000600290506003905050565b6000600154905090565b600061016b826101e5565b61017581856101f0565b9350610185818560208601610261565b61018e81610324565b840191505092915050565b6101a281610257565b82525050565b600060208201905081810360008301526101c28184610160565b905092915050565b60006020820190506101df6000830184610199565b92915050565b600081519050919050565b600082825260208201905092915050565b600061020c82610257565b915061021783610257565b9250827fffffffffffffffffffffffffffffffffffffffffffffffffffffffffffffffff0382111561024c5761024b6102c6565b5b828201905092915050565b6000819050919050565b60005b8381101561027f578082015181840152602081019050610264565b8381111561028e576000848401525b50505050565b600060028204905060018216806102ac57607f821691505b602082108114156102c0576102bf6102f5565b5b50919050565b7f4e487b7100000000000000000000000000000000000000000000000000000000600052601160045260246000fd5b7f4e487b7100000000000000000000000000000000000000000000000000000000600052602260045260246000fd5b6000601f19601f830116905091905056fea26469706673582212209e208a10a5940ea6e5e58478df5014962c2c19d5605b0366199fcc886607d9f764736f6c63430008030033",
			"opcodes": "PUSH1 0x80 PUSH1 0x40 MSTORE CALLVALUE DUP1 ISZERO PUSH2 0x10 JUMPI PUSH1 0x0 DUP1 REVERT JUMPDEST POP PUSH1 0x40 MLOAD DUP1 PUSH1 0x40 ADD PUSH1 0x40 MSTORE DUP1 PUSH1 0x4 DUP2 MSTORE PUSH1 0x20 ADD PUSH32 0x5261766900000000000000000000000000000000000000000000000000000000 DUP2 MSTORE POP PUSH1 0x0 SWAP1 DUP1 MLOAD SWAP1 PUSH1 0x20 ADD SWAP1 PUSH2 0x5C SWAP3 SWAP2 SWAP1 PUSH2 0x6A JUMP JUMPDEST POP PUSH1 0x2 PUSH1 0x1 DUP2 SWAP1 SSTORE POP PUSH2 0x16E JUMP JUMPDEST DUP3 DUP1 SLOAD PUSH2 0x76 SWAP1 PUSH2 0x10D JUMP JUMPDEST SWAP1 PUSH1 0x0 MSTORE PUSH1 0x20 PUSH1 0x0 KECCAK256 SWAP1 PUSH1 0x1F ADD PUSH1 0x20 SWAP1 DIV DUP2 ADD SWAP3 DUP3 PUSH2 0x98 JUMPI PUSH1 0x0 DUP6 SSTORE PUSH2 0xDF JUMP JUMPDEST DUP3 PUSH1 0x1F LT PUSH2 0xB1 JUMPI DUP1 MLOAD PUSH1 0xFF NOT AND DUP4 DUP1 ADD OR DUP6 SSTORE PUSH2 0xDF JUMP JUMPDEST DUP3 DUP1 ADD PUSH1 0x1 ADD DUP6 SSTORE DUP3 ISZERO PUSH2 0xDF JUMPI SWAP2 DUP3 ADD JUMPDEST DUP3 DUP2 GT ISZERO PUSH2 0xDE JUMPI DUP3 MLOAD DUP3 SSTORE SWAP2 PUSH1 0x20 ADD SWAP2 SWAP1 PUSH1 0x1 ADD SWAP1 PUSH2 0xC3 JUMP JUMPDEST JUMPDEST POP SWAP1 POP PUSH2 0xEC SWAP2 SWAP1 PUSH2 0xF0 JUMP JUMPDEST POP SWAP1 JUMP JUMPDEST JUMPDEST DUP1 DUP3 GT ISZERO PUSH2 0x109 JUMPI PUSH1 0x0 DUP2 PUSH1 0x0 SWAP1 SSTORE POP PUSH1 0x1 ADD PUSH2 0xF1 JUMP JUMPDEST POP SWAP1 JUMP JUMPDEST PUSH1 0x0 PUSH1 0x2 DUP3 DIV SWAP1 POP PUSH1 0x1 DUP3 AND DUP1 PUSH2 0x125 JUMPI PUSH1 0x7F DUP3 AND SWAP2 POP JUMPDEST PUSH1 0x20 DUP3 LT DUP2 EQ ISZERO PUSH2 0x139 JUMPI PUSH2 0x138 PUSH2 0x13F JUMP JUMPDEST JUMPDEST POP SWAP2 SWAP1 POP JUMP JUMPDEST PUSH32 0x4E487B7100000000000000000000000000000000000000000000000000000000 PUSH1 0x0 MSTORE PUSH1 0x22 PUSH1 0x4 MSTORE PUSH1 0x24 PUSH1 0x0 REVERT JUMPDEST PUSH2 0x36B DUP1 PUSH2 0x17D PUSH1 0x0 CODECOPY PUSH1 0x0 RETURN INVALID PUSH1 0x80 PUSH1 0x40 MSTORE CALLVALUE DUP1 ISZERO PUSH2 0x10 JUMPI PUSH1 0x0 DUP1 REVERT JUMPDEST POP PUSH1 0x4 CALLDATASIZE LT PUSH2 0x4C JUMPI PUSH1 0x0 CALLDATALOAD PUSH1 0xE0 SHR DUP1 PUSH4 0x17D7DE7C EQ PUSH2 0x51 JUMPI DUP1 PUSH4 0x457676EE EQ PUSH2 0x6F JUMPI DUP1 PUSH4 0x92277933 EQ PUSH2 0x79 JUMPI DUP1 PUSH4 0x967E6E65 EQ PUSH2 0x83 JUMPI JUMPDEST PUSH1 0x0 DUP1 REVERT JUMPDEST PUSH2 0x59 PUSH2 0xA1 JUMP JUMPDEST PUSH1 0x40 MLOAD PUSH2 0x66 SWAP2 SWAP1 PUSH2 0x1A8 JUMP JUMPDEST PUSH1 0x40 MLOAD DUP1 SWAP2 SUB SWAP1 RETURN JUMPDEST PUSH2 0x77 PUSH2 0x133 JUMP JUMPDEST STOP JUMPDEST PUSH2 0x81 PUSH2 0x149 JUMP JUMPDEST STOP JUMPDEST PUSH2 0x8B PUSH2 0x156 JUMP JUMPDEST PUSH1 0x40 MLOAD PUSH2 0x98 SWAP2 SWAP1 PUSH2 0x1CA JUMP JUMPDEST PUSH1 0x40 MLOAD DUP1 SWAP2 SUB SWAP1 RETURN JUMPDEST PUSH1 0x60 PUSH1 0x0 DUP1 SLOAD PUSH2 0xB0 SWAP1 PUSH2 0x294 JUMP JUMPDEST DUP1 PUSH1 0x1F ADD PUSH1 0x20 DUP1 SWAP2 DIV MUL PUSH1 0x20 ADD PUSH1 0x40 MLOAD SWAP1 DUP2 ADD PUSH1 0x40 MSTORE DUP1 SWAP3 SWAP2 SWAP1 DUP2 DUP2 MSTORE PUSH1 0x20 ADD DUP3 DUP1 SLOAD PUSH2 0xDC SWAP1 PUSH2 0x294 JUMP JUMPDEST DUP1 ISZERO PUSH2 0x129 JUMPI DUP1 PUSH1 0x1F LT PUSH2 0xFE JUMPI PUSH2 0x100 DUP1 DUP4 SLOAD DIV MUL DUP4 MSTORE SWAP2 PUSH1 0x20 ADD SWAP2 PUSH2 0x129 JUMP JUMPDEST DUP3 ADD SWAP2 SWAP1 PUSH1 0x0 MSTORE PUSH1 0x20 PUSH1 0x0 KECCAK256 SWAP1 JUMPDEST DUP2 SLOAD DUP2 MSTORE SWAP1 PUSH1 0x1 ADD SWAP1 PUSH1 0x20 ADD DUP1 DUP4 GT PUSH2 0x10C JUMPI DUP3 SWAP1 SUB PUSH1 0x1F AND DUP3 ADD SWAP2 JUMPDEST POP POP POP POP POP SWAP1 POP SWAP1 JUMP JUMPDEST PUSH1 0x1 DUP1 SLOAD PUSH2 0x141 SWAP2 SWAP1 PUSH2 0x201 JUMP JUMPDEST PUSH1 0x1 DUP2 SWAP1 SSTORE POP JUMP JUMPDEST PUSH1 0x0 PUSH1 0x2 SWAP1 POP PUSH1 0x3 SWAP1 POP POP JUMP JUMPDEST PUSH1 0x0 PUSH1 0x1 SLOAD SWAP1 POP SWAP1 JUMP JUMPDEST PUSH1 0x0 PUSH2 0x16B DUP3 PUSH2 0x1E5 JUMP JUMPDEST PUSH2 0x175 DUP2 DUP6 PUSH2 0x1F0 JUMP JUMPDEST SWAP4 POP PUSH2 0x185 DUP2 DUP6 PUSH1 0x20 DUP7 ADD PUSH2 0x261 JUMP JUMPDEST PUSH2 0x18E DUP2 PUSH2 0x324 JUMP JUMPDEST DUP5 ADD SWAP2 POP POP SWAP3 SWAP2 POP POP JUMP JUMPDEST PUSH2 0x1A2 DUP2 PUSH2 0x257 JUMP JUMPDEST DUP3 MSTORE POP POP JUMP JUMPDEST PUSH1 0x0 PUSH1 0x20 DUP3 ADD SWAP1 POP DUP2 DUP2 SUB PUSH1 0x0 DUP4 ADD MSTORE PUSH2 0x1C2 DUP2 DUP5 PUSH2 0x160 JUMP JUMPDEST SWAP1 POP SWAP3 SWAP2 POP POP JUMP JUMPDEST PUSH1 0x0 PUSH1 0x20 DUP3 ADD SWAP1 POP PUSH2 0x1DF PUSH1 0x0 DUP4 ADD DUP5 PUSH2 0x199 JUMP JUMPDEST SWAP3 SWAP2 POP POP JUMP JUMPDEST PUSH1 0x0 DUP2 MLOAD SWAP1 POP SWAP2 SWAP1 POP JUMP JUMPDEST PUSH1 0x0 DUP3 DUP3 MSTORE PUSH1 0x20 DUP3 ADD SWAP1 POP SWAP3 SWAP2 POP POP JUMP JUMPDEST PUSH1 0x0 PUSH2 0x20C DUP3 PUSH2 0x257 JUMP JUMPDEST SWAP2 POP PUSH2 0x217 DUP4 PUSH2 0x257 JUMP JUMPDEST SWAP3 POP DUP3 PUSH32 0xFFFFFFFFFFFFFFFFFFFFFFFFFFFFFFFFFFFFFFFFFFFFFFFFFFFFFFFFFFFFFFFF SUB DUP3 GT ISZERO PUSH2 0x24C JUMPI PUSH2 0x24B PUSH2 0x2C6 JUMP JUMPDEST JUMPDEST DUP3 DUP3 ADD SWAP1 POP SWAP3 SWAP2 POP POP JUMP JUMPDEST PUSH1 0x0 DUP2 SWAP1 POP SWAP2 SWAP1 POP JUMP JUMPDEST PUSH1 0x0 JUMPDEST DUP4 DUP2 LT ISZERO PUSH2 0x27F JUMPI DUP1 DUP3 ADD MLOAD DUP2 DUP5 ADD MSTORE PUSH1 0x20 DUP2 ADD SWAP1 POP PUSH2 0x264 JUMP JUMPDEST DUP4 DUP2 GT ISZERO PUSH2 0x28E JUMPI PUSH1 0x0 DUP5 DUP5 ADD MSTORE JUMPDEST POP POP POP POP JUMP JUMPDEST PUSH1 0x0 PUSH1 0x2 DUP3 DIV SWAP1 POP PUSH1 0x1 DUP3 AND DUP1 PUSH2 0x2AC JUMPI PUSH1 0x7F DUP3 AND SWAP2 POP JUMPDEST PUSH1 0x20 DUP3 LT DUP2 EQ ISZERO PUSH2 0x2C0 JUMPI PUSH2 0x2BF PUSH2 0x2F5 JUMP JUMPDEST JUMPDEST POP SWAP2 SWAP1 POP JUMP JUMPDEST PUSH32 0x4E487B7100000000000000000000000000000000000000000000000000000000 PUSH1 0x0 MSTORE PUSH1 0x11 PUSH1 0x4 MSTORE PUSH1 0x24 PUSH1 0x0 REVERT JUMPDEST PUSH32 0x4E487B7100000000000000000000000000000000000000000000000000000000 PUSH1 0x0 MSTORE PUSH1 0x22 PUSH1 0x4 MSTORE PUSH1 0x24 PUSH1 0x0 REVERT JUMPDEST PUSH1 0x0 PUSH1 0x1F NOT PUSH1 0x1F DUP4 ADD AND SWAP1 POP SWAP2 SWAP1 POP JUMP INVALID LOG2 PUSH5 0x6970667358 0x22 SLT KECCAK256 SWAP15 KECCAK256 DUP11 LT 0xA5 SWAP5 0xE 0xA6 0xE5 0xE5 DUP5 PUSH25 0xDF5014962C2C19D5605B0366199FCC886607D9F764736F6C63 NUMBER STOP ADDMOD SUB STOP CALLER "
		},
		"gasEstimates": {
			"creation": {
				"codeDepositCost": "175000",
				"executionCost": "infinite",
				"totalCost": "infinite"
			},
			"external": {
				"abc()": "187",
				"getAge()": "1181",
				"getName()": "infinite",
				"setAge()": "infinite"
			}
		},
		"methodIdentifiers": {
			"abc()": "92277933",
			"getAge()": "967e6e65",
			"getName()": "17d7de7c",
			"setAge()": "457676ee"
		}
	},
	"abi": [
		{
			"inputs": [],
			"stateMutability": "nonpayable",
			"type": "constructor"
		},
		{
			"inputs": [],
			"name": "abc",
			"outputs": [],
			"stateMutability": "pure",
			"type": "function"
		},
		{
			"inputs": [],
			"name": "getAge",
			"outputs": [
				{
					"internalType": "uint256",
					"name": "",
					"type": "uint256"
				}
			],
			"stateMutability": "view",
			"type": "function"
		},
		{
			"inputs": [],
			"name": "getName",
			"outputs": [
				{
					"internalType": "string",
					"name": "",
					"type": "string"
				}
			],
			"stateMutability": "view",
			"type": "function"
		},
		{
			"inputs": [],
			"name": "setAge",
			"outputs": [],
			"stateMutability": "nonpayable",
			"type": "function"
		}
	]
}