{
	"data": {
		"bytecode": {
			"linkReferences": {},
			"object": "608060405234801561000f575f80fd5b506102e68061001d5f395ff3fe608060405234801561000f575f80fd5b5060043610610034575f3560e01c806371e5ee5f146100385780639f4d545c14610068575b5f80fd5b610052600480360381019061004d9190610189565b610072565b60405161005f91906101c3565b60405180910390f35b61007061008a565b005b5f8160058110610080575f80fd5b015f915090505481565b5f5b60058110156100c157805f82600581106100a9576100a86101dc565b5b018190555080806100b990610236565b91505061008c565b5f90505b600581101561010b57805f82600581106100e2576100e16101dc565b5b015f8282546100f1919061027d565b92505081905550808061010390610236565b9150506100c5565b5f90505b805f8260058110610123576101226101dc565b5b015f828254610132919061027d565b92505081905550808061014490610236565b9150506005811061010f5750565b5f80fd5b5f819050919050565b61016881610156565b8114610172575f80fd5b50565b5f813590506101838161015f565b92915050565b5f6020828403121561019e5761019d610152565b5b5f6101ab84828501610175565b91505092915050565b6101bd81610156565b82525050565b5f6020820190506101d65f8301846101b4565b92915050565b7f4e487b71000000000000000000000000000000000000000000000000000000005f52603260045260245ffd5b7f4e487b71000000000000000000000000000000000000000000000000000000005f52601160045260245ffd5b5f61024082610156565b91507fffffffffffffffffffffffffffffffffffffffffffffffffffffffffffffffff820361027257610271610209565b5b600182019050919050565b5f61028782610156565b915061029283610156565b92508282019050808211156102aa576102a9610209565b5b9291505056fea26469706673582212203c467323652824432b970b37db5daa76439259ab9540e6f53bd2d17fa767eecd64736f6c63430008140033",
			"opcodes": "PUSH1 0x80 PUSH1 0x40 MSTORE CALLVALUE DUP1 ISZERO PUSH2 0xF JUMPI PUSH0 DUP1 REVERT JUMPDEST POP PUSH2 0x2E6 DUP1 PUSH2 0x1D PUSH0 CODECOPY PUSH0 RETURN INVALID PUSH1 0x80 PUSH1 0x40 MSTORE CALLVALUE DUP1 ISZERO PUSH2 0xF JUMPI PUSH0 DUP1 REVERT JUMPDEST POP PUSH1 0x4 CALLDATASIZE LT PUSH2 0x34 JUMPI PUSH0 CALLDATALOAD PUSH1 0xE0 SHR DUP1 PUSH4 0x71E5EE5F EQ PUSH2 0x38 JUMPI DUP1 PUSH4 0x9F4D545C EQ PUSH2 0x68 JUMPI JUMPDEST PUSH0 DUP1 REVERT JUMPDEST PUSH2 0x52 PUSH1 0x4 DUP1 CALLDATASIZE SUB DUP2 ADD SWAP1 PUSH2 0x4D SWAP2 SWAP1 PUSH2 0x189 JUMP JUMPDEST PUSH2 0x72 JUMP JUMPDEST PUSH1 0x40 MLOAD PUSH2 0x5F SWAP2 SWAP1 PUSH2 0x1C3 JUMP JUMPDEST PUSH1 0x40 MLOAD DUP1 SWAP2 SUB SWAP1 RETURN JUMPDEST PUSH2 0x70 PUSH2 0x8A JUMP JUMPDEST STOP JUMPDEST PUSH0 DUP2 PUSH1 0x5 DUP2 LT PUSH2 0x80 JUMPI PUSH0 DUP1 REVERT JUMPDEST ADD PUSH0 SWAP2 POP SWAP1 POP SLOAD DUP2 JUMP JUMPDEST PUSH0 JUMPDEST PUSH1 0x5 DUP2 LT ISZERO PUSH2 0xC1 JUMPI DUP1 PUSH0 DUP3 PUSH1 0x5 DUP2 LT PUSH2 0xA9 JUMPI PUSH2 0xA8 PUSH2 0x1DC JUMP JUMPDEST JUMPDEST ADD DUP2 SWAP1 SSTORE POP DUP1 DUP1 PUSH2 0xB9 SWAP1 PUSH2 0x236 JUMP JUMPDEST SWAP2 POP POP PUSH2 0x8C JUMP JUMPDEST PUSH0 SWAP1 POP JUMPDEST PUSH1 0x5 DUP2 LT ISZERO PUSH2 0x10B JUMPI DUP1 PUSH0 DUP3 PUSH1 0x5 DUP2 LT PUSH2 0xE2 JUMPI PUSH2 0xE1 PUSH2 0x1DC JUMP JUMPDEST JUMPDEST ADD PUSH0 DUP3 DUP3 SLOAD PUSH2 0xF1 SWAP2 SWAP1 PUSH2 0x27D JUMP JUMPDEST SWAP3 POP POP DUP2 SWAP1 SSTORE POP DUP1 DUP1 PUSH2 0x103 SWAP1 PUSH2 0x236 JUMP JUMPDEST SWAP2 POP POP PUSH2 0xC5 JUMP JUMPDEST PUSH0 SWAP1 POP JUMPDEST DUP1 PUSH0 DUP3 PUSH1 0x5 DUP2 LT PUSH2 0x123 JUMPI PUSH2 0x122 PUSH2 0x1DC JUMP JUMPDEST JUMPDEST ADD PUSH0 DUP3 DUP3 SLOAD PUSH2 0x132 SWAP2 SWAP1 PUSH2 0x27D JUMP JUMPDEST SWAP3 POP POP DUP2 SWAP1 SSTORE POP DUP1 DUP1 PUSH2 0x144 SWAP1 PUSH2 0x236 JUMP JUMPDEST SWAP2 POP POP PUSH1 0x5 DUP2 LT PUSH2 0x10F JUMPI POP JUMP JUMPDEST PUSH0 DUP1 REVERT JUMPDEST PUSH0 DUP2 SWAP1 POP SWAP2 SWAP1 POP JUMP JUMPDEST PUSH2 0x168 DUP2 PUSH2 0x156 JUMP JUMPDEST DUP2 EQ PUSH2 0x172 JUMPI PUSH0 DUP1 REVERT JUMPDEST POP JUMP JUMPDEST PUSH0 DUP2 CALLDATALOAD SWAP1 POP PUSH2 0x183 DUP2 PUSH2 0x15F JUMP JUMPDEST SWAP3 SWAP2 POP POP JUMP JUMPDEST PUSH0 PUSH1 0x20 DUP3 DUP5 SUB SLT ISZERO PUSH2 0x19E JUMPI PUSH2 0x19D PUSH2 0x152 JUMP JUMPDEST JUMPDEST PUSH0 PUSH2 0x1AB DUP5 DUP3 DUP6 ADD PUSH2 0x175 JUMP JUMPDEST SWAP2 POP POP SWAP3 SWAP2 POP POP JUMP JUMPDEST PUSH2 0x1BD DUP2 PUSH2 0x156 JUMP JUMPDEST DUP3 MSTORE POP POP JUMP JUMPDEST PUSH0 PUSH1 0x20 DUP3 ADD SWAP1 POP PUSH2 0x1D6 PUSH0 DUP4 ADD DUP5 PUSH2 0x1B4 JUMP JUMPDEST SWAP3 SWAP2 POP POP JUMP JUMPDEST PUSH32 0x4E487B7100000000000000000000000000000000000000000000000000000000 PUSH0 MSTORE PUSH1 0x32 PUSH1 0x4 MSTORE PUSH1 0x24 PUSH0 REVERT JUMPDEST PUSH32 0x4E487B7100000000000000000000000000000000000000000000000000000000 PUSH0 MSTORE PUSH1 0x11 PUSH1 0x4 MSTORE PUSH1 0x24 PUSH0 REVERT JUMPDEST PUSH0 PUSH2 0x240 DUP3 PUSH2 0x156 JUMP JUMPDEST SWAP2 POP PUSH32 0xFFFFFFFFFFFFFFFFFFFFFFFFFFFFFFFFFFFFFFFFFFFFFFFFFFFFFFFFFFFFFFFF DUP3 SUB PUSH2 0x272 JUMPI PUSH2 0x271 PUSH2 0x209 JUMP JUMPDEST JUMPDEST PUSH1 0x1 DUP3 ADD SWAP1 POP SWAP2 SWAP1 POP JUMP JUMPDEST PUSH0 PUSH2 0x287 DUP3 PUSH2 0x156 JUMP JUMPDEST SWAP2 POP PUSH2 0x292 DUP4 PUSH2 0x156 JUMP JUMPDEST SWAP3 POP DUP3 DUP3 ADD SWAP1 POP DUP1 DUP3 GT ISZERO PUSH2 0x2AA JUMPI PUSH2 0x2A9 PUSH2 0x209 JUMP JUMPDEST JUMPDEST SWAP3 SWAP2 POP POP JUMP INVALID LOG2 PUSH5 0x6970667358 0x22 SLT KECCAK256 EXTCODECOPY CHAINID PUSH20 0x23652824432B970B37DB5DAA76439259AB9540E6 CREATE2 EXTCODESIZE 0xD2 0xD1 PUSH32 0xA767EECD64736F6C634300081400330000000000000000000000000000000000 "
		},
		"gasEstimates": {
			"creation": {
				"codeDepositCost": "148400",
				"executionCost": "194",
				"totalCost": "148594"
			},
			"external": {
				"Loop()": "infinite",
				"arr(uint256)": "infinite"
			}
		},
		"methodIdentifiers": {
			"Loop()": "9f4d545c",
			"arr(uint256)": "71e5ee5f"
		}
	},
	"abi": [
		{
			"inputs": [],
			"name": "Loop",
			"outputs": [],
			"stateMutability": "nonpayable",
			"type": "function"
		},
		{
			"inputs": [
				{
					"internalType": "uint256",
					"name": "",
					"type": "uint256"
				}
			],
			"name": "arr",
			"outputs": [
				{
					"internalType": "uint256",
					"name": "",
					"type": "uint256"
				}
			],
			"stateMutability": "view",
			"type": "function"
		}
	]
}