{
	"data": {
		"bytecode": {
			"linkReferences": {},
			"object": "60806040526040518060400160405280600281526020017f7474000000000000000000000000000000000000000000000000000000000000815250600190816200004a919062000305565b505f6002553480156200005b575f80fd5b50335f806101000a81548173ffffffffffffffffffffffffffffffffffffffff021916908373ffffffffffffffffffffffffffffffffffffffff160217905550620003e9565b5f81519050919050565b7f4e487b71000000000000000000000000000000000000000000000000000000005f52604160045260245ffd5b7f4e487b71000000000000000000000000000000000000000000000000000000005f52602260045260245ffd5b5f60028204905060018216806200011d57607f821691505b602082108103620001335762000132620000d8565b5b50919050565b5f819050815f5260205f209050919050565b5f6020601f8301049050919050565b5f82821b905092915050565b5f60088302620001977fffffffffffffffffffffffffffffffffffffffffffffffffffffffffffffffff826200015a565b620001a386836200015a565b95508019841693508086168417925050509392505050565b5f819050919050565b5f819050919050565b5f620001ed620001e7620001e184620001bb565b620001c4565b620001bb565b9050919050565b5f819050919050565b6200020883620001cd565b620002206200021782620001f4565b84845462000166565b825550505050565b5f90565b6200023662000228565b62000243818484620001fd565b505050565b5b818110156200026a576200025e5f826200022c565b60018101905062000249565b5050565b601f821115620002b957620002838162000139565b6200028e846200014b565b810160208510156200029e578190505b620002b6620002ad856200014b565b83018262000248565b50505b505050565b5f82821c905092915050565b5f620002db5f1984600802620002be565b1980831691505092915050565b5f620002f58383620002ca565b9150826002028217905092915050565b6200031082620000a1565b67ffffffffffffffff8111156200032c576200032b620000ab565b5b62000338825462000105565b620003458282856200026e565b5f60209050601f8311600181146200037b575f841562000366578287015190505b620003728582620002e8565b865550620003e1565b601f1984166200038b8662000139565b5f5b82811015620003b4578489015182556001820191506020850194506020810190506200038d565b86831015620003d45784890151620003d0601f891682620002ca565b8355505b6001600288020188555050505b505050505050565b610ae880620003f75f395ff3fe608060405260043610610054575f3560e01c806306fdde03146100585780631c4888251461008257806338e351471461008c5780634be93c11146100c85780638da5cb5b146101045780639512263f1461012e575b5f80fd5b348015610063575f80fd5b5061006c610158565b60405161007991906106a4565b60405180910390f35b61008a6101e4565b005b348015610097575f80fd5b506100b260048036038101906100ad9190610755565b610263565b6040516100bf91906107ad565b60405180910390f35b3480156100d3575f80fd5b506100ee60048036038101906100e991906107c6565b61039d565b6040516100fb91906107ad565b60405180910390f35b34801561010f575f80fd5b5061011861057b565b6040516101259190610813565b60405180910390f35b348015610139575f80fd5b5061014261059e565b60405161014f919061083b565b60405180910390f35b6001805461016590610881565b80601f016020809104026020016040519081016040528092919081815260200182805461019190610881565b80156101dc5780601f106101b3576101008083540402835291602001916101dc565b820191905f5260205f20905b8154815290600101906020018083116101bf57829003601f168201915b505050505081565b5f3490505f6101f2826105e2565b90508060035f3373ffffffffffffffffffffffffffffffffffffffff1673ffffffffffffffffffffffffffffffffffffffff1681526020019081526020015f205f82825461024091906108de565b925050819055508060025f82825461025891906108de565b925050819055505050565b5f803390508260035f8373ffffffffffffffffffffffffffffffffffffffff1673ffffffffffffffffffffffffffffffffffffffff1681526020019081526020015f205410156102eb577f87da94c9d8e3646e5648677b9bf0a336770e64239f5fd1593230b73d8013138f6040516102da9061095b565b60405180910390a15f915050610397565b8260035f8373ffffffffffffffffffffffffffffffffffffffff1673ffffffffffffffffffffffffffffffffffffffff1681526020019081526020015f205f8282546103379190610979565b925050819055508260035f8673ffffffffffffffffffffffffffffffffffffffff1673ffffffffffffffffffffffffffffffffffffffff1681526020019081526020015f205f82825461038a91906108de565b9250508190555060019150505b92915050565b5f3373ffffffffffffffffffffffffffffffffffffffff165f8054906101000a900473ffffffffffffffffffffffffffffffffffffffff1673ffffffffffffffffffffffffffffffffffffffff161461042d577f87da94c9d8e3646e5648677b9bf0a336770e64239f5fd1593230b73d8013138f60405161041d906109f6565b60405180910390a15f9050610575565b60035f8373ffffffffffffffffffffffffffffffffffffffff1673ffffffffffffffffffffffffffffffffffffffff1681526020019081526020015f20548311156104af577f87da94c9d8e3646e5648677b9bf0a336770e64239f5fd1593230b73d8013138f60405161049f9061095b565b60405180910390a15f9050610575565b5f6104b9846105fe565b90508360035f8573ffffffffffffffffffffffffffffffffffffffff1673ffffffffffffffffffffffffffffffffffffffff1681526020019081526020015f205f8282546105079190610979565b925050819055508360025f82825461051f9190610979565b925050819055505f8390508073ffffffffffffffffffffffffffffffffffffffff166108fc8390811502906040515f60405180830381858888f1935050505015801561056d573d5f803e3d5ffd5b506001925050505b92915050565b5f8054906101000a900473ffffffffffffffffffffffffffffffffffffffff1681565b5f60035f3373ffffffffffffffffffffffffffffffffffffffff1673ffffffffffffffffffffffffffffffffffffffff1681526020019081526020015f2054905090565b5f806207a120836105f39190610a14565b905080915050919050565b5f806207a1208361060f9190610a82565b905080915050919050565b5f81519050919050565b5f82825260208201905092915050565b5f5b83811015610651578082015181840152602081019050610636565b5f8484015250505050565b5f601f19601f8301169050919050565b5f6106768261061a565b6106808185610624565b9350610690818560208601610634565b6106998161065c565b840191505092915050565b5f6020820190508181035f8301526106bc818461066c565b905092915050565b5f80fd5b5f73ffffffffffffffffffffffffffffffffffffffff82169050919050565b5f6106f1826106c8565b9050919050565b610701816106e7565b811461070b575f80fd5b50565b5f8135905061071c816106f8565b92915050565b5f819050919050565b61073481610722565b811461073e575f80fd5b50565b5f8135905061074f8161072b565b92915050565b5f806040838503121561076b5761076a6106c4565b5b5f6107788582860161070e565b925050602061078985828601610741565b9150509250929050565b5f8115159050919050565b6107a781610793565b82525050565b5f6020820190506107c05f83018461079e565b92915050565b5f80604083850312156107dc576107db6106c4565b5b5f6107e985828601610741565b92505060206107fa8582860161070e565b9150509250929050565b61080d816106e7565b82525050565b5f6020820190506108265f830184610804565b92915050565b61083581610722565b82525050565b5f60208201905061084e5f83018461082c565b92915050565b7f4e487b71000000000000000000000000000000000000000000000000000000005f52602260045260245ffd5b5f600282049050600182168061089857607f821691505b6020821081036108ab576108aa610854565b5b50919050565b7f4e487b71000000000000000000000000000000000000000000000000000000005f52601160045260245ffd5b5f6108e882610722565b91506108f383610722565b925082820190508082111561090b5761090a6108b1565b5b92915050565b7f696e73756666696369656e742062616c656e63650000000000000000000000005f82015250565b5f610945601483610624565b915061095082610911565b602082019050919050565b5f6020820190508181035f83015261097281610939565b9050919050565b5f61098382610722565b915061098e83610722565b92508282039050818111156109a6576109a56108b1565b5b92915050565b7f4e6f7420617574686572697a65640000000000000000000000000000000000005f82015250565b5f6109e0600e83610624565b91506109eb826109ac565b602082019050919050565b5f6020820190508181035f830152610a0d816109d4565b9050919050565b5f610a1e82610722565b9150610a2983610722565b9250828202610a3781610722565b91508282048414831517610a4e57610a4d6108b1565b5b5092915050565b7f4e487b71000000000000000000000000000000000000000000000000000000005f52601260045260245ffd5b5f610a8c82610722565b9150610a9783610722565b925082610aa757610aa6610a55565b5b82820490509291505056fea26469706673582212208b877ba2de69b5594be6924c05e630e7d32d6acf14620617d793f6b8e04569a164736f6c63430008140033",
			"opcodes": "PUSH1 0x80 PUSH1 0x40 MSTORE PUSH1 0x40 MLOAD DUP1 PUSH1 0x40 ADD PUSH1 0x40 MSTORE DUP1 PUSH1 0x2 DUP2 MSTORE PUSH1 0x20 ADD PUSH32 0x7474000000000000000000000000000000000000000000000000000000000000 DUP2 MSTORE POP PUSH1 0x1 SWAP1 DUP2 PUSH3 0x4A SWAP2 SWAP1 PUSH3 0x305 JUMP JUMPDEST POP PUSH0 PUSH1 0x2 SSTORE CALLVALUE DUP1 ISZERO PUSH3 0x5B JUMPI PUSH0 DUP1 REVERT JUMPDEST POP CALLER PUSH0 DUP1 PUSH2 0x100 EXP DUP2 SLOAD DUP2 PUSH20 0xFFFFFFFFFFFFFFFFFFFFFFFFFFFFFFFFFFFFFFFF MUL NOT AND SWAP1 DUP4 PUSH20 0xFFFFFFFFFFFFFFFFFFFFFFFFFFFFFFFFFFFFFFFF AND MUL OR SWAP1 SSTORE POP PUSH3 0x3E9 JUMP JUMPDEST PUSH0 DUP2 MLOAD SWAP1 POP SWAP2 SWAP1 POP JUMP JUMPDEST PUSH32 0x4E487B7100000000000000000000000000000000000000000000000000000000 PUSH0 MSTORE PUSH1 0x41 PUSH1 0x4 MSTORE PUSH1 0x24 PUSH0 REVERT JUMPDEST PUSH32 0x4E487B7100000000000000000000000000000000000000000000000000000000 PUSH0 MSTORE PUSH1 0x22 PUSH1 0x4 MSTORE PUSH1 0x24 PUSH0 REVERT JUMPDEST PUSH0 PUSH1 0x2 DUP3 DIV SWAP1 POP PUSH1 0x1 DUP3 AND DUP1 PUSH3 0x11D JUMPI PUSH1 0x7F DUP3 AND SWAP2 POP JUMPDEST PUSH1 0x20 DUP3 LT DUP2 SUB PUSH3 0x133 JUMPI PUSH3 0x132 PUSH3 0xD8 JUMP JUMPDEST JUMPDEST POP SWAP2 SWAP1 POP JUMP JUMPDEST PUSH0 DUP2 SWAP1 POP DUP2 PUSH0 MSTORE PUSH1 0x20 PUSH0 KECCAK256 SWAP1 POP SWAP2 SWAP1 POP JUMP JUMPDEST PUSH0 PUSH1 0x20 PUSH1 0x1F DUP4 ADD DIV SWAP1 POP SWAP2 SWAP1 POP JUMP JUMPDEST PUSH0 DUP3 DUP3 SHL SWAP1 POP SWAP3 SWAP2 POP POP JUMP JUMPDEST PUSH0 PUSH1 0x8 DUP4 MUL PUSH3 0x197 PUSH32 0xFFFFFFFFFFFFFFFFFFFFFFFFFFFFFFFFFFFFFFFFFFFFFFFFFFFFFFFFFFFFFFFF DUP3 PUSH3 0x15A JUMP JUMPDEST PUSH3 0x1A3 DUP7 DUP4 PUSH3 0x15A JUMP JUMPDEST SWAP6 POP DUP1 NOT DUP5 AND SWAP4 POP DUP1 DUP7 AND DUP5 OR SWAP3 POP POP POP SWAP4 SWAP3 POP POP POP JUMP JUMPDEST PUSH0 DUP2 SWAP1 POP SWAP2 SWAP1 POP JUMP JUMPDEST PUSH0 DUP2 SWAP1 POP SWAP2 SWAP1 POP JUMP JUMPDEST PUSH0 PUSH3 0x1ED PUSH3 0x1E7 PUSH3 0x1E1 DUP5 PUSH3 0x1BB JUMP JUMPDEST PUSH3 0x1C4 JUMP JUMPDEST PUSH3 0x1BB JUMP JUMPDEST SWAP1 POP SWAP2 SWAP1 POP JUMP JUMPDEST PUSH0 DUP2 SWAP1 POP SWAP2 SWAP1 POP JUMP JUMPDEST PUSH3 0x208 DUP4 PUSH3 0x1CD JUMP JUMPDEST PUSH3 0x220 PUSH3 0x217 DUP3 PUSH3 0x1F4 JUMP JUMPDEST DUP5 DUP5 SLOAD PUSH3 0x166 JUMP JUMPDEST DUP3 SSTORE POP POP POP POP JUMP JUMPDEST PUSH0 SWAP1 JUMP JUMPDEST PUSH3 0x236 PUSH3 0x228 JUMP JUMPDEST PUSH3 0x243 DUP2 DUP5 DUP5 PUSH3 0x1FD JUMP JUMPDEST POP POP POP JUMP JUMPDEST JUMPDEST DUP2 DUP2 LT ISZERO PUSH3 0x26A JUMPI PUSH3 0x25E PUSH0 DUP3 PUSH3 0x22C JUMP JUMPDEST PUSH1 0x1 DUP2 ADD SWAP1 POP PUSH3 0x249 JUMP JUMPDEST POP POP JUMP JUMPDEST PUSH1 0x1F DUP3 GT ISZERO PUSH3 0x2B9 JUMPI PUSH3 0x283 DUP2 PUSH3 0x139 JUMP JUMPDEST PUSH3 0x28E DUP5 PUSH3 0x14B JUMP JUMPDEST DUP2 ADD PUSH1 0x20 DUP6 LT ISZERO PUSH3 0x29E JUMPI DUP2 SWAP1 POP JUMPDEST PUSH3 0x2B6 PUSH3 0x2AD DUP6 PUSH3 0x14B JUMP JUMPDEST DUP4 ADD DUP3 PUSH3 0x248 JUMP JUMPDEST POP POP JUMPDEST POP POP POP JUMP JUMPDEST PUSH0 DUP3 DUP3 SHR SWAP1 POP SWAP3 SWAP2 POP POP JUMP JUMPDEST PUSH0 PUSH3 0x2DB PUSH0 NOT DUP5 PUSH1 0x8 MUL PUSH3 0x2BE JUMP JUMPDEST NOT DUP1 DUP4 AND SWAP2 POP POP SWAP3 SWAP2 POP POP JUMP JUMPDEST PUSH0 PUSH3 0x2F5 DUP4 DUP4 PUSH3 0x2CA JUMP JUMPDEST SWAP2 POP DUP3 PUSH1 0x2 MUL DUP3 OR SWAP1 POP SWAP3 SWAP2 POP POP JUMP JUMPDEST PUSH3 0x310 DUP3 PUSH3 0xA1 JUMP JUMPDEST PUSH8 0xFFFFFFFFFFFFFFFF DUP2 GT ISZERO PUSH3 0x32C JUMPI PUSH3 0x32B PUSH3 0xAB JUMP JUMPDEST JUMPDEST PUSH3 0x338 DUP3 SLOAD PUSH3 0x105 JUMP JUMPDEST PUSH3 0x345 DUP3 DUP3 DUP6 PUSH3 0x26E JUMP JUMPDEST PUSH0 PUSH1 0x20 SWAP1 POP PUSH1 0x1F DUP4 GT PUSH1 0x1 DUP2 EQ PUSH3 0x37B JUMPI PUSH0 DUP5 ISZERO PUSH3 0x366 JUMPI DUP3 DUP8 ADD MLOAD SWAP1 POP JUMPDEST PUSH3 0x372 DUP6 DUP3 PUSH3 0x2E8 JUMP JUMPDEST DUP7 SSTORE POP PUSH3 0x3E1 JUMP JUMPDEST PUSH1 0x1F NOT DUP5 AND PUSH3 0x38B DUP7 PUSH3 0x139 JUMP JUMPDEST PUSH0 JUMPDEST DUP3 DUP2 LT ISZERO PUSH3 0x3B4 JUMPI DUP5 DUP10 ADD MLOAD DUP3 SSTORE PUSH1 0x1 DUP3 ADD SWAP2 POP PUSH1 0x20 DUP6 ADD SWAP5 POP PUSH1 0x20 DUP2 ADD SWAP1 POP PUSH3 0x38D JUMP JUMPDEST DUP7 DUP4 LT ISZERO PUSH3 0x3D4 JUMPI DUP5 DUP10 ADD MLOAD PUSH3 0x3D0 PUSH1 0x1F DUP10 AND DUP3 PUSH3 0x2CA JUMP JUMPDEST DUP4 SSTORE POP JUMPDEST PUSH1 0x1 PUSH1 0x2 DUP9 MUL ADD DUP9 SSTORE POP POP POP JUMPDEST POP POP POP POP POP POP JUMP JUMPDEST PUSH2 0xAE8 DUP1 PUSH3 0x3F7 PUSH0 CODECOPY PUSH0 RETURN INVALID PUSH1 0x80 PUSH1 0x40 MSTORE PUSH1 0x4 CALLDATASIZE LT PUSH2 0x54 JUMPI PUSH0 CALLDATALOAD PUSH1 0xE0 SHR DUP1 PUSH4 0x6FDDE03 EQ PUSH2 0x58 JUMPI DUP1 PUSH4 0x1C488825 EQ PUSH2 0x82 JUMPI DUP1 PUSH4 0x38E35147 EQ PUSH2 0x8C JUMPI DUP1 PUSH4 0x4BE93C11 EQ PUSH2 0xC8 JUMPI DUP1 PUSH4 0x8DA5CB5B EQ PUSH2 0x104 JUMPI DUP1 PUSH4 0x9512263F EQ PUSH2 0x12E JUMPI JUMPDEST PUSH0 DUP1 REVERT JUMPDEST CALLVALUE DUP1 ISZERO PUSH2 0x63 JUMPI PUSH0 DUP1 REVERT JUMPDEST POP PUSH2 0x6C PUSH2 0x158 JUMP JUMPDEST PUSH1 0x40 MLOAD PUSH2 0x79 SWAP2 SWAP1 PUSH2 0x6A4 JUMP JUMPDEST PUSH1 0x40 MLOAD DUP1 SWAP2 SUB SWAP1 RETURN JUMPDEST PUSH2 0x8A PUSH2 0x1E4 JUMP JUMPDEST STOP JUMPDEST CALLVALUE DUP1 ISZERO PUSH2 0x97 JUMPI PUSH0 DUP1 REVERT JUMPDEST POP PUSH2 0xB2 PUSH1 0x4 DUP1 CALLDATASIZE SUB DUP2 ADD SWAP1 PUSH2 0xAD SWAP2 SWAP1 PUSH2 0x755 JUMP JUMPDEST PUSH2 0x263 JUMP JUMPDEST PUSH1 0x40 MLOAD PUSH2 0xBF SWAP2 SWAP1 PUSH2 0x7AD JUMP JUMPDEST PUSH1 0x40 MLOAD DUP1 SWAP2 SUB SWAP1 RETURN JUMPDEST CALLVALUE DUP1 ISZERO PUSH2 0xD3 JUMPI PUSH0 DUP1 REVERT JUMPDEST POP PUSH2 0xEE PUSH1 0x4 DUP1 CALLDATASIZE SUB DUP2 ADD SWAP1 PUSH2 0xE9 SWAP2 SWAP1 PUSH2 0x7C6 JUMP JUMPDEST PUSH2 0x39D JUMP JUMPDEST PUSH1 0x40 MLOAD PUSH2 0xFB SWAP2 SWAP1 PUSH2 0x7AD JUMP JUMPDEST PUSH1 0x40 MLOAD DUP1 SWAP2 SUB SWAP1 RETURN JUMPDEST CALLVALUE DUP1 ISZERO PUSH2 0x10F JUMPI PUSH0 DUP1 REVERT JUMPDEST POP PUSH2 0x118 PUSH2 0x57B JUMP JUMPDEST PUSH1 0x40 MLOAD PUSH2 0x125 SWAP2 SWAP1 PUSH2 0x813 JUMP JUMPDEST PUSH1 0x40 MLOAD DUP1 SWAP2 SUB SWAP1 RETURN JUMPDEST CALLVALUE DUP1 ISZERO PUSH2 0x139 JUMPI PUSH0 DUP1 REVERT JUMPDEST POP PUSH2 0x142 PUSH2 0x59E JUMP JUMPDEST PUSH1 0x40 MLOAD PUSH2 0x14F SWAP2 SWAP1 PUSH2 0x83B JUMP JUMPDEST PUSH1 0x40 MLOAD DUP1 SWAP2 SUB SWAP1 RETURN JUMPDEST PUSH1 0x1 DUP1 SLOAD PUSH2 0x165 SWAP1 PUSH2 0x881 JUMP JUMPDEST DUP1 PUSH1 0x1F ADD PUSH1 0x20 DUP1 SWAP2 DIV MUL PUSH1 0x20 ADD PUSH1 0x40 MLOAD SWAP1 DUP2 ADD PUSH1 0x40 MSTORE DUP1 SWAP3 SWAP2 SWAP1 DUP2 DUP2 MSTORE PUSH1 0x20 ADD DUP3 DUP1 SLOAD PUSH2 0x191 SWAP1 PUSH2 0x881 JUMP JUMPDEST DUP1 ISZERO PUSH2 0x1DC JUMPI DUP1 PUSH1 0x1F LT PUSH2 0x1B3 JUMPI PUSH2 0x100 DUP1 DUP4 SLOAD DIV MUL DUP4 MSTORE SWAP2 PUSH1 0x20 ADD SWAP2 PUSH2 0x1DC JUMP JUMPDEST DUP3 ADD SWAP2 SWAP1 PUSH0 MSTORE PUSH1 0x20 PUSH0 KECCAK256 SWAP1 JUMPDEST DUP2 SLOAD DUP2 MSTORE SWAP1 PUSH1 0x1 ADD SWAP1 PUSH1 0x20 ADD DUP1 DUP4 GT PUSH2 0x1BF JUMPI DUP3 SWAP1 SUB PUSH1 0x1F AND DUP3 ADD SWAP2 JUMPDEST POP POP POP POP POP DUP2 JUMP JUMPDEST PUSH0 CALLVALUE SWAP1 POP PUSH0 PUSH2 0x1F2 DUP3 PUSH2 0x5E2 JUMP JUMPDEST SWAP1 POP DUP1 PUSH1 0x3 PUSH0 CALLER PUSH20 0xFFFFFFFFFFFFFFFFFFFFFFFFFFFFFFFFFFFFFFFF AND PUSH20 0xFFFFFFFFFFFFFFFFFFFFFFFFFFFFFFFFFFFFFFFF AND DUP2 MSTORE PUSH1 0x20 ADD SWAP1 DUP2 MSTORE PUSH1 0x20 ADD PUSH0 KECCAK256 PUSH0 DUP3 DUP3 SLOAD PUSH2 0x240 SWAP2 SWAP1 PUSH2 0x8DE JUMP JUMPDEST SWAP3 POP POP DUP2 SWAP1 SSTORE POP DUP1 PUSH1 0x2 PUSH0 DUP3 DUP3 SLOAD PUSH2 0x258 SWAP2 SWAP1 PUSH2 0x8DE JUMP JUMPDEST SWAP3 POP POP DUP2 SWAP1 SSTORE POP POP POP JUMP JUMPDEST PUSH0 DUP1 CALLER SWAP1 POP DUP3 PUSH1 0x3 PUSH0 DUP4 PUSH20 0xFFFFFFFFFFFFFFFFFFFFFFFFFFFFFFFFFFFFFFFF AND PUSH20 0xFFFFFFFFFFFFFFFFFFFFFFFFFFFFFFFFFFFFFFFF AND DUP2 MSTORE PUSH1 0x20 ADD SWAP1 DUP2 MSTORE PUSH1 0x20 ADD PUSH0 KECCAK256 SLOAD LT ISZERO PUSH2 0x2EB JUMPI PUSH32 0x87DA94C9D8E3646E5648677B9BF0A336770E64239F5FD1593230B73D8013138F PUSH1 0x40 MLOAD PUSH2 0x2DA SWAP1 PUSH2 0x95B JUMP JUMPDEST PUSH1 0x40 MLOAD DUP1 SWAP2 SUB SWAP1 LOG1 PUSH0 SWAP2 POP POP PUSH2 0x397 JUMP JUMPDEST DUP3 PUSH1 0x3 PUSH0 DUP4 PUSH20 0xFFFFFFFFFFFFFFFFFFFFFFFFFFFFFFFFFFFFFFFF AND PUSH20 0xFFFFFFFFFFFFFFFFFFFFFFFFFFFFFFFFFFFFFFFF AND DUP2 MSTORE PUSH1 0x20 ADD SWAP1 DUP2 MSTORE PUSH1 0x20 ADD PUSH0 KECCAK256 PUSH0 DUP3 DUP3 SLOAD PUSH2 0x337 SWAP2 SWAP1 PUSH2 0x979 JUMP JUMPDEST SWAP3 POP POP DUP2 SWAP1 SSTORE POP DUP3 PUSH1 0x3 PUSH0 DUP7 PUSH20 0xFFFFFFFFFFFFFFFFFFFFFFFFFFFFFFFFFFFFFFFF AND PUSH20 0xFFFFFFFFFFFFFFFFFFFFFFFFFFFFFFFFFFFFFFFF AND DUP2 MSTORE PUSH1 0x20 ADD SWAP1 DUP2 MSTORE PUSH1 0x20 ADD PUSH0 KECCAK256 PUSH0 DUP3 DUP3 SLOAD PUSH2 0x38A SWAP2 SWAP1 PUSH2 0x8DE JUMP JUMPDEST SWAP3 POP POP DUP2 SWAP1 SSTORE POP PUSH1 0x1 SWAP2 POP POP JUMPDEST SWAP3 SWAP2 POP POP JUMP JUMPDEST PUSH0 CALLER PUSH20 0xFFFFFFFFFFFFFFFFFFFFFFFFFFFFFFFFFFFFFFFF AND PUSH0 DUP1 SLOAD SWAP1 PUSH2 0x100 EXP SWAP1 DIV PUSH20 0xFFFFFFFFFFFFFFFFFFFFFFFFFFFFFFFFFFFFFFFF AND PUSH20 0xFFFFFFFFFFFFFFFFFFFFFFFFFFFFFFFFFFFFFFFF AND EQ PUSH2 0x42D JUMPI PUSH32 0x87DA94C9D8E3646E5648677B9BF0A336770E64239F5FD1593230B73D8013138F PUSH1 0x40 MLOAD PUSH2 0x41D SWAP1 PUSH2 0x9F6 JUMP JUMPDEST PUSH1 0x40 MLOAD DUP1 SWAP2 SUB SWAP1 LOG1 PUSH0 SWAP1 POP PUSH2 0x575 JUMP JUMPDEST PUSH1 0x3 PUSH0 DUP4 PUSH20 0xFFFFFFFFFFFFFFFFFFFFFFFFFFFFFFFFFFFFFFFF AND PUSH20 0xFFFFFFFFFFFFFFFFFFFFFFFFFFFFFFFFFFFFFFFF AND DUP2 MSTORE PUSH1 0x20 ADD SWAP1 DUP2 MSTORE PUSH1 0x20 ADD PUSH0 KECCAK256 SLOAD DUP4 GT ISZERO PUSH2 0x4AF JUMPI PUSH32 0x87DA94C9D8E3646E5648677B9BF0A336770E64239F5FD1593230B73D8013138F PUSH1 0x40 MLOAD PUSH2 0x49F SWAP1 PUSH2 0x95B JUMP JUMPDEST PUSH1 0x40 MLOAD DUP1 SWAP2 SUB SWAP1 LOG1 PUSH0 SWAP1 POP PUSH2 0x575 JUMP JUMPDEST PUSH0 PUSH2 0x4B9 DUP5 PUSH2 0x5FE JUMP JUMPDEST SWAP1 POP DUP4 PUSH1 0x3 PUSH0 DUP6 PUSH20 0xFFFFFFFFFFFFFFFFFFFFFFFFFFFFFFFFFFFFFFFF AND PUSH20 0xFFFFFFFFFFFFFFFFFFFFFFFFFFFFFFFFFFFFFFFF AND DUP2 MSTORE PUSH1 0x20 ADD SWAP1 DUP2 MSTORE PUSH1 0x20 ADD PUSH0 KECCAK256 PUSH0 DUP3 DUP3 SLOAD PUSH2 0x507 SWAP2 SWAP1 PUSH2 0x979 JUMP JUMPDEST SWAP3 POP POP DUP2 SWAP1 SSTORE POP DUP4 PUSH1 0x2 PUSH0 DUP3 DUP3 SLOAD PUSH2 0x51F SWAP2 SWAP1 PUSH2 0x979 JUMP JUMPDEST SWAP3 POP POP DUP2 SWAP1 SSTORE POP PUSH0 DUP4 SWAP1 POP DUP1 PUSH20 0xFFFFFFFFFFFFFFFFFFFFFFFFFFFFFFFFFFFFFFFF AND PUSH2 0x8FC DUP4 SWAP1 DUP2 ISZERO MUL SWAP1 PUSH1 0x40 MLOAD PUSH0 PUSH1 0x40 MLOAD DUP1 DUP4 SUB DUP2 DUP6 DUP9 DUP9 CALL SWAP4 POP POP POP POP ISZERO DUP1 ISZERO PUSH2 0x56D JUMPI RETURNDATASIZE PUSH0 DUP1 RETURNDATACOPY RETURNDATASIZE PUSH0 REVERT JUMPDEST POP PUSH1 0x1 SWAP3 POP POP POP JUMPDEST SWAP3 SWAP2 POP POP JUMP JUMPDEST PUSH0 DUP1 SLOAD SWAP1 PUSH2 0x100 EXP SWAP1 DIV PUSH20 0xFFFFFFFFFFFFFFFFFFFFFFFFFFFFFFFFFFFFFFFF AND DUP2 JUMP JUMPDEST PUSH0 PUSH1 0x3 PUSH0 CALLER PUSH20 0xFFFFFFFFFFFFFFFFFFFFFFFFFFFFFFFFFFFFFFFF AND PUSH20 0xFFFFFFFFFFFFFFFFFFFFFFFFFFFFFFFFFFFFFFFF AND DUP2 MSTORE PUSH1 0x20 ADD SWAP1 DUP2 MSTORE PUSH1 0x20 ADD PUSH0 KECCAK256 SLOAD SWAP1 POP SWAP1 JUMP JUMPDEST PUSH0 DUP1 PUSH3 0x7A120 DUP4 PUSH2 0x5F3 SWAP2 SWAP1 PUSH2 0xA14 JUMP JUMPDEST SWAP1 POP DUP1 SWAP2 POP POP SWAP2 SWAP1 POP JUMP JUMPDEST PUSH0 DUP1 PUSH3 0x7A120 DUP4 PUSH2 0x60F SWAP2 SWAP1 PUSH2 0xA82 JUMP JUMPDEST SWAP1 POP DUP1 SWAP2 POP POP SWAP2 SWAP1 POP JUMP JUMPDEST PUSH0 DUP2 MLOAD SWAP1 POP SWAP2 SWAP1 POP JUMP JUMPDEST PUSH0 DUP3 DUP3 MSTORE PUSH1 0x20 DUP3 ADD SWAP1 POP SWAP3 SWAP2 POP POP JUMP JUMPDEST PUSH0 JUMPDEST DUP4 DUP2 LT ISZERO PUSH2 0x651 JUMPI DUP1 DUP3 ADD MLOAD DUP2 DUP5 ADD MSTORE PUSH1 0x20 DUP2 ADD SWAP1 POP PUSH2 0x636 JUMP JUMPDEST PUSH0 DUP5 DUP5 ADD MSTORE POP POP POP POP JUMP JUMPDEST PUSH0 PUSH1 0x1F NOT PUSH1 0x1F DUP4 ADD AND SWAP1 POP SWAP2 SWAP1 POP JUMP JUMPDEST PUSH0 PUSH2 0x676 DUP3 PUSH2 0x61A JUMP JUMPDEST PUSH2 0x680 DUP2 DUP6 PUSH2 0x624 JUMP JUMPDEST SWAP4 POP PUSH2 0x690 DUP2 DUP6 PUSH1 0x20 DUP7 ADD PUSH2 0x634 JUMP JUMPDEST PUSH2 0x699 DUP2 PUSH2 0x65C JUMP JUMPDEST DUP5 ADD SWAP2 POP POP SWAP3 SWAP2 POP POP JUMP JUMPDEST PUSH0 PUSH1 0x20 DUP3 ADD SWAP1 POP DUP2 DUP2 SUB PUSH0 DUP4 ADD MSTORE PUSH2 0x6BC DUP2 DUP5 PUSH2 0x66C JUMP JUMPDEST SWAP1 POP SWAP3 SWAP2 POP POP JUMP JUMPDEST PUSH0 DUP1 REVERT JUMPDEST PUSH0 PUSH20 0xFFFFFFFFFFFFFFFFFFFFFFFFFFFFFFFFFFFFFFFF DUP3 AND SWAP1 POP SWAP2 SWAP1 POP JUMP JUMPDEST PUSH0 PUSH2 0x6F1 DUP3 PUSH2 0x6C8 JUMP JUMPDEST SWAP1 POP SWAP2 SWAP1 POP JUMP JUMPDEST PUSH2 0x701 DUP2 PUSH2 0x6E7 JUMP JUMPDEST DUP2 EQ PUSH2 0x70B JUMPI PUSH0 DUP1 REVERT JUMPDEST POP JUMP JUMPDEST PUSH0 DUP2 CALLDATALOAD SWAP1 POP PUSH2 0x71C DUP2 PUSH2 0x6F8 JUMP JUMPDEST SWAP3 SWAP2 POP POP JUMP JUMPDEST PUSH0 DUP2 SWAP1 POP SWAP2 SWAP1 POP JUMP JUMPDEST PUSH2 0x734 DUP2 PUSH2 0x722 JUMP JUMPDEST DUP2 EQ PUSH2 0x73E JUMPI PUSH0 DUP1 REVERT JUMPDEST POP JUMP JUMPDEST PUSH0 DUP2 CALLDATALOAD SWAP1 POP PUSH2 0x74F DUP2 PUSH2 0x72B JUMP JUMPDEST SWAP3 SWAP2 POP POP JUMP JUMPDEST PUSH0 DUP1 PUSH1 0x40 DUP4 DUP6 SUB SLT ISZERO PUSH2 0x76B JUMPI PUSH2 0x76A PUSH2 0x6C4 JUMP JUMPDEST JUMPDEST PUSH0 PUSH2 0x778 DUP6 DUP3 DUP7 ADD PUSH2 0x70E JUMP JUMPDEST SWAP3 POP POP PUSH1 0x20 PUSH2 0x789 DUP6 DUP3 DUP7 ADD PUSH2 0x741 JUMP JUMPDEST SWAP2 POP POP SWAP3 POP SWAP3 SWAP1 POP JUMP JUMPDEST PUSH0 DUP2 ISZERO ISZERO SWAP1 POP SWAP2 SWAP1 POP JUMP JUMPDEST PUSH2 0x7A7 DUP2 PUSH2 0x793 JUMP JUMPDEST DUP3 MSTORE POP POP JUMP JUMPDEST PUSH0 PUSH1 0x20 DUP3 ADD SWAP1 POP PUSH2 0x7C0 PUSH0 DUP4 ADD DUP5 PUSH2 0x79E JUMP JUMPDEST SWAP3 SWAP2 POP POP JUMP JUMPDEST PUSH0 DUP1 PUSH1 0x40 DUP4 DUP6 SUB SLT ISZERO PUSH2 0x7DC JUMPI PUSH2 0x7DB PUSH2 0x6C4 JUMP JUMPDEST JUMPDEST PUSH0 PUSH2 0x7E9 DUP6 DUP3 DUP7 ADD PUSH2 0x741 JUMP JUMPDEST SWAP3 POP POP PUSH1 0x20 PUSH2 0x7FA DUP6 DUP3 DUP7 ADD PUSH2 0x70E JUMP JUMPDEST SWAP2 POP POP SWAP3 POP SWAP3 SWAP1 POP JUMP JUMPDEST PUSH2 0x80D DUP2 PUSH2 0x6E7 JUMP JUMPDEST DUP3 MSTORE POP POP JUMP JUMPDEST PUSH0 PUSH1 0x20 DUP3 ADD SWAP1 POP PUSH2 0x826 PUSH0 DUP4 ADD DUP5 PUSH2 0x804 JUMP JUMPDEST SWAP3 SWAP2 POP POP JUMP JUMPDEST PUSH2 0x835 DUP2 PUSH2 0x722 JUMP JUMPDEST DUP3 MSTORE POP POP JUMP JUMPDEST PUSH0 PUSH1 0x20 DUP3 ADD SWAP1 POP PUSH2 0x84E PUSH0 DUP4 ADD DUP5 PUSH2 0x82C JUMP JUMPDEST SWAP3 SWAP2 POP POP JUMP JUMPDEST PUSH32 0x4E487B7100000000000000000000000000000000000000000000000000000000 PUSH0 MSTORE PUSH1 0x22 PUSH1 0x4 MSTORE PUSH1 0x24 PUSH0 REVERT JUMPDEST PUSH0 PUSH1 0x2 DUP3 DIV SWAP1 POP PUSH1 0x1 DUP3 AND DUP1 PUSH2 0x898 JUMPI PUSH1 0x7F DUP3 AND SWAP2 POP JUMPDEST PUSH1 0x20 DUP3 LT DUP2 SUB PUSH2 0x8AB JUMPI PUSH2 0x8AA PUSH2 0x854 JUMP JUMPDEST JUMPDEST POP SWAP2 SWAP1 POP JUMP JUMPDEST PUSH32 0x4E487B7100000000000000000000000000000000000000000000000000000000 PUSH0 MSTORE PUSH1 0x11 PUSH1 0x4 MSTORE PUSH1 0x24 PUSH0 REVERT JUMPDEST PUSH0 PUSH2 0x8E8 DUP3 PUSH2 0x722 JUMP JUMPDEST SWAP2 POP PUSH2 0x8F3 DUP4 PUSH2 0x722 JUMP JUMPDEST SWAP3 POP DUP3 DUP3 ADD SWAP1 POP DUP1 DUP3 GT ISZERO PUSH2 0x90B JUMPI PUSH2 0x90A PUSH2 0x8B1 JUMP JUMPDEST JUMPDEST SWAP3 SWAP2 POP POP JUMP JUMPDEST PUSH32 0x696E73756666696369656E742062616C656E6365000000000000000000000000 PUSH0 DUP3 ADD MSTORE POP JUMP JUMPDEST PUSH0 PUSH2 0x945 PUSH1 0x14 DUP4 PUSH2 0x624 JUMP JUMPDEST SWAP2 POP PUSH2 0x950 DUP3 PUSH2 0x911 JUMP JUMPDEST PUSH1 0x20 DUP3 ADD SWAP1 POP SWAP2 SWAP1 POP JUMP JUMPDEST PUSH0 PUSH1 0x20 DUP3 ADD SWAP1 POP DUP2 DUP2 SUB PUSH0 DUP4 ADD MSTORE PUSH2 0x972 DUP2 PUSH2 0x939 JUMP JUMPDEST SWAP1 POP SWAP2 SWAP1 POP JUMP JUMPDEST PUSH0 PUSH2 0x983 DUP3 PUSH2 0x722 JUMP JUMPDEST SWAP2 POP PUSH2 0x98E DUP4 PUSH2 0x722 JUMP JUMPDEST SWAP3 POP DUP3 DUP3 SUB SWAP1 POP DUP2 DUP2 GT ISZERO PUSH2 0x9A6 JUMPI PUSH2 0x9A5 PUSH2 0x8B1 JUMP JUMPDEST JUMPDEST SWAP3 SWAP2 POP POP JUMP JUMPDEST PUSH32 0x4E6F7420617574686572697A6564000000000000000000000000000000000000 PUSH0 DUP3 ADD MSTORE POP JUMP JUMPDEST PUSH0 PUSH2 0x9E0 PUSH1 0xE DUP4 PUSH2 0x624 JUMP JUMPDEST SWAP2 POP PUSH2 0x9EB DUP3 PUSH2 0x9AC JUMP JUMPDEST PUSH1 0x20 DUP3 ADD SWAP1 POP SWAP2 SWAP1 POP JUMP JUMPDEST PUSH0 PUSH1 0x20 DUP3 ADD SWAP1 POP DUP2 DUP2 SUB PUSH0 DUP4 ADD MSTORE PUSH2 0xA0D DUP2 PUSH2 0x9D4 JUMP JUMPDEST SWAP1 POP SWAP2 SWAP1 POP JUMP JUMPDEST PUSH0 PUSH2 0xA1E DUP3 PUSH2 0x722 JUMP JUMPDEST SWAP2 POP PUSH2 0xA29 DUP4 PUSH2 0x722 JUMP JUMPDEST SWAP3 POP DUP3 DUP3 MUL PUSH2 0xA37 DUP2 PUSH2 0x722 JUMP JUMPDEST SWAP2 POP DUP3 DUP3 DIV DUP5 EQ DUP4 ISZERO OR PUSH2 0xA4E JUMPI PUSH2 0xA4D PUSH2 0x8B1 JUMP JUMPDEST JUMPDEST POP SWAP3 SWAP2 POP POP JUMP JUMPDEST PUSH32 0x4E487B7100000000000000000000000000000000000000000000000000000000 PUSH0 MSTORE PUSH1 0x12 PUSH1 0x4 MSTORE PUSH1 0x24 PUSH0 REVERT JUMPDEST PUSH0 PUSH2 0xA8C DUP3 PUSH2 0x722 JUMP JUMPDEST SWAP2 POP PUSH2 0xA97 DUP4 PUSH2 0x722 JUMP JUMPDEST SWAP3 POP DUP3 PUSH2 0xAA7 JUMPI PUSH2 0xAA6 PUSH2 0xA55 JUMP JUMPDEST JUMPDEST DUP3 DUP3 DIV SWAP1 POP SWAP3 SWAP2 POP POP JUMP INVALID LOG2 PUSH5 0x6970667358 0x22 SLT KECCAK256 DUP12 DUP8 PUSH28 0xA2DE69B5594BE6924C05E630E7D32D6ACF14620617D793F6B8E04569 LOG1 PUSH5 0x736F6C6343 STOP ADDMOD EQ STOP CALLER "
		},
		"gasEstimates": {
			"creation": {
				"codeDepositCost": "558400",
				"executionCost": "infinite",
				"totalCost": "infinite"
			},
			"external": {
				"Balence()": "2607",
				"BurnTokens(uint256,address)": "infinite",
				"MintTokens()": "infinite",
				"name()": "infinite",
				"owner()": "2571",
				"payTokens(address,uint256)": "infinite"
			},
			"internal": {
				"LogicforBurning(uint256)": "infinite",
				"LogicforMinting(uint256)": "infinite"
			}
		},
		"methodIdentifiers": {
			"Balence()": "9512263f",
			"BurnTokens(uint256,address)": "4be93c11",
			"MintTokens()": "1c488825",
			"name()": "06fdde03",
			"owner()": "8da5cb5b",
			"payTokens(address,uint256)": "38e35147"
		}
	},
	"abi": [
		{
			"inputs": [],
			"stateMutability": "nonpayable",
			"type": "constructor"
		},
		{
			"anonymous": false,
			"inputs": [
				{
					"indexed": false,
					"internalType": "string",
					"name": "message",
					"type": "string"
				}
			],
			"name": "TransactionError",
			"type": "event"
		},
		{
			"inputs": [],
			"name": "Balence",
			"outputs": [
				{
					"internalType": "uint256",
					"name": "",
					"type": "uint256"
				}
			],
			"stateMutability": "view",
			"type": "function"
		},
		{
			"inputs": [
				{
					"internalType": "uint256",
					"name": "tokens",
					"type": "uint256"
				},
				{
					"internalType": "address",
					"name": "whom",
					"type": "address"
				}
			],
			"name": "BurnTokens",
			"outputs": [
				{
					"internalType": "bool",
					"name": "",
					"type": "bool"
				}
			],
			"stateMutability": "nonpayable",
			"type": "function"
		},
		{
			"inputs": [],
			"name": "MintTokens",
			"outputs": [],
			"stateMutability": "payable",
			"type": "function"
		},
		{
			"inputs": [],
			"name": "name",
			"outputs": [
				{
					"internalType": "string",
					"name": "",
					"type": "string"
				}
			],
			"stateMutability": "view",
			"type": "function"
		},
		{
			"inputs": [],
			"name": "owner",
			"outputs": [
				{
					"internalType": "address",
					"name": "",
					"type": "address"
				}
			],
			"stateMutability": "view",
			"type": "function"
		},
		{
			"inputs": [
				{
					"internalType": "address",
					"name": "to",
					"type": "address"
				},
				{
					"internalType": "uint256",
					"name": "amount",
					"type": "uint256"
				}
			],
			"name": "payTokens",
			"outputs": [
				{
					"internalType": "bool",
					"name": "",
					"type": "bool"
				}
			],
			"stateMutability": "nonpayable",
			"type": "function"
		}
	]
}